{
  "contractName": "IBetEventOracleV1",
  "abi": [
    {
      "inputs": [
        {
          "internalType": "address",
          "name": "sureBetDataContract",
          "type": "address"
        }
      ],
      "stateMutability": "nonpayable",
      "type": "constructor"
    },
    {
      "anonymous": false,
      "inputs": [
        {
          "indexed": true,
          "internalType": "bytes32",
          "name": "betKey",
          "type": "bytes32"
        }
      ],
      "name": "BetInArbitration",
      "type": "event"
    },
    {
      "anonymous": false,
      "inputs": [
        {
          "indexed": true,
          "internalType": "address",
          "name": "previousOwner",
          "type": "address"
        },
        {
          "indexed": true,
          "internalType": "address",
          "name": "newOwner",
          "type": "address"
        }
      ],
      "name": "OwnershipTransferred",
      "type": "event"
    },
    {
      "anonymous": false,
      "inputs": [
        {
          "indexed": false,
          "internalType": "address",
          "name": "account",
          "type": "address"
        }
      ],
      "name": "Paused",
      "type": "event"
    },
    {
      "anonymous": false,
      "inputs": [
        {
          "indexed": false,
          "internalType": "address",
          "name": "account",
          "type": "address"
        }
      ],
      "name": "Unpaused",
      "type": "event"
    },
    {
      "inputs": [],
      "name": "owner",
      "outputs": [
        {
          "internalType": "address",
          "name": "",
          "type": "address"
        }
      ],
      "stateMutability": "view",
      "type": "function"
    },
    {
      "inputs": [],
      "name": "paused",
      "outputs": [
        {
          "internalType": "bool",
          "name": "",
          "type": "bool"
        }
      ],
      "stateMutability": "view",
      "type": "function"
    },
    {
      "inputs": [],
      "name": "renounceOwnership",
      "outputs": [],
      "stateMutability": "nonpayable",
      "type": "function"
    },
    {
      "inputs": [
        {
          "internalType": "address",
          "name": "newOwner",
          "type": "address"
        }
      ],
      "name": "transferOwnership",
      "outputs": [],
      "stateMutability": "nonpayable",
      "type": "function"
    },
    {
      "inputs": [
        {
          "internalType": "bytes32",
          "name": "betKey",
          "type": "bytes32"
        }
      ],
      "name": "awakeArbitrationBet",
      "outputs": [],
      "stateMutability": "nonpayable",
      "type": "function"
    },
    {
      "inputs": [
        {
          "internalType": "uint32",
          "name": "complexityIndex",
          "type": "uint32"
        }
      ],
      "name": "updateArbitrationComplexityIndex",
      "outputs": [],
      "stateMutability": "nonpayable",
      "type": "function"
    },
    {
      "inputs": [],
      "name": "pause",
      "outputs": [],
      "stateMutability": "nonpayable",
      "type": "function"
    },
    {
      "inputs": [],
      "name": "unpause",
      "outputs": [],
      "stateMutability": "nonpayable",
      "type": "function"
    }
  ],
  "bytecode": "0x60806040526000600160146101000a81548160ff021916908360ff1602179055503480156200002d57600080fd5b5060405162002ae338038062002ae38339818101604052810190620000539190620001ca565b6200008562000070620000e7640100000000026401000000009004565b620000ef640100000000026401000000009004565b60008060146101000a81548160ff02191690831515021790555080600160006101000a81548173ffffffffffffffffffffffffffffffffffffffff021916908373ffffffffffffffffffffffffffffffffffffffff160217905550506200024f565b600033905090565b60008060009054906101000a900473ffffffffffffffffffffffffffffffffffffffff169050816000806101000a81548173ffffffffffffffffffffffffffffffffffffffff021916908373ffffffffffffffffffffffffffffffffffffffff1602179055508173ffffffffffffffffffffffffffffffffffffffff168173ffffffffffffffffffffffffffffffffffffffff167f8be0079c531659141344cd1fd0a4f28419497f9722a3daafe3b4186f6b6457e060405160405180910390a35050565b600081519050620001c48162000235565b92915050565b600060208284031215620001e357620001e262000230565b5b6000620001f384828501620001b3565b91505092915050565b6000620002098262000210565b9050919050565b600073ffffffffffffffffffffffffffffffffffffffff82169050919050565b600080fd5b6200024081620001fc565b81146200024c57600080fd5b50565b612884806200025f6000396000f3fe608060405234801561001057600080fd5b50600436106100a5576000357c0100000000000000000000000000000000000000000000000000000000900480638456cb59116100785780638456cb59146100f85780638da5cb5b14610102578063e2e4cef314610120578063f2fde38b1461013c576100a5565b80633e40ffb8146100aa5780633f4ba83a146100c65780635c975abb146100d0578063715018a6146100ee575b600080fd5b6100c460048036038101906100bf9190611bca565b610158565b005b6100ce610280565b005b6100d8610306565b6040516100e59190611fd8565b60405180910390f35b6100f661031c565b005b6101006103a4565b005b61010a61042a565b6040516101179190611f94565b60405180910390f35b61013a60048036038101906101359190611ab1565b610453565b005b61015660048036038101906101519190611a57565b6110ac565b005b6101606111a4565b73ffffffffffffffffffffffffffffffffffffffff1661017e61042a565b73ffffffffffffffffffffffffffffffffffffffff16146101d4576040517f08c379a00000000000000000000000000000000000000000000000000000000081526004016101cb9061215c565b60405180910390fd5b600160009054906101000a900473ffffffffffffffffffffffffffffffffffffffff1673ffffffffffffffffffffffffffffffffffffffff16633e40ffb8826040518263ffffffff167c010000000000000000000000000000000000000000000000000000000002815260040161024b919061219e565b600060405180830381600087803b15801561026557600080fd5b505af1158015610279573d6000803e3d6000fd5b5050505050565b6102886111a4565b73ffffffffffffffffffffffffffffffffffffffff166102a661042a565b73ffffffffffffffffffffffffffffffffffffffff16146102fc576040517f08c379a00000000000000000000000000000000000000000000000000000000081526004016102f39061215c565b60405180910390fd5b6103046111ac565b565b60008060149054906101000a900460ff16905090565b6103246111a4565b73ffffffffffffffffffffffffffffffffffffffff1661034261042a565b73ffffffffffffffffffffffffffffffffffffffff1614610398576040517f08c379a000000000000000000000000000000000000000000000000000000000815260040161038f9061215c565b60405180910390fd5b6103a2600061124d565b565b6103ac6111a4565b73ffffffffffffffffffffffffffffffffffffffff166103ca61042a565b73ffffffffffffffffffffffffffffffffffffffff1614610420576040517f08c379a00000000000000000000000000000000000000000000000000000000081526004016104179061215c565b60405180910390fd5b610428611311565b565b60008060009054906101000a900473ffffffffffffffffffffffffffffffffffffffff16905090565b6000600160009054906101000a900473ffffffffffffffffffffffffffffffffffffffff1673ffffffffffffffffffffffffffffffffffffffff166337e8c09e836040518263ffffffff167c01000000000000000000000000000000000000000000000000000000000281526004016104cc9190611ff3565b60006040518083038186803b1580156104e457600080fd5b505afa1580156104f8573d6000803e3d6000fd5b505050506040513d6000823e3d601f19601f820116820180604052508101906105219190611b54565b905080608001514211610569576040517f08c379a00000000000000000000000000000000000000000000000000000000081526004016105609061213c565b60405180910390fd5b6002600581111561057d5761057c6125e5565b5b60ff168160e0015160ff16146105c8576040517f08c379a00000000000000000000000000000000000000000000000000000000081526004016105bf9061213c565b60405180910390fd5b600073__ConversionUtil________________________631bd95155600160009054906101000a900473ffffffffffffffffffffffffffffffffffffffff1673ffffffffffffffffffffffffffffffffffffffff16638ab4de3c866040518060400160405280601481526020017f41524249545241544f52434f4d4d495353494f4e0000000000000000000000008152506040518363ffffffff167c0100000000000000000000000000000000000000000000000000000000028152600401610692929190612045565b60006040518083038186803b1580156106aa57600080fd5b505afa1580156106be573d6000803e3d6000fd5b505050506040513d6000823e3d601f19601f820116820180604052508101906106e79190611b0b565b6040518263ffffffff167c010000000000000000000000000000000000000000000000000000000002815260040161071f91906120ba565b60206040518083038186803b15801561073757600080fd5b505af415801561074b573d6000803e3d6000fd5b505050506040513d601f19601f8201168201806040525081019061076f9190611b9d565b905060006107da620186a06107cc60646107be6103e86107b060056107a28a8c61010001516113b490919063ffffffff16565b6113b490919063ffffffff16565b6113ca90919063ffffffff16565b6113ca90919063ffffffff16565b6113ca90919063ffffffff16565b9050600015156107e86113e0565b151514156108c157600160009054906101000a900473ffffffffffffffffffffffffffffffffffffffff1673ffffffffffffffffffffffffffffffffffffffff166321670f2233836040518363ffffffff167c0100000000000000000000000000000000000000000000000000000000028152600401610869929190611faf565b602060405180830381600087803b15801561088357600080fd5b505af1158015610897573d6000803e3d6000fd5b505050506040513d601f19601f820116820180604052508101906108bb9190611a84565b506109b0565b6108d98184610120015161156190919063ffffffff16565b83610120018181525050600160009054906101000a900473ffffffffffffffffffffffffffffffffffffffff1673ffffffffffffffffffffffffffffffffffffffff1663283760fa33836040518363ffffffff167c010000000000000000000000000000000000000000000000000000000002815260040161095c929190611faf565b602060405180830381600087803b15801561097657600080fd5b505af115801561098a573d6000803e3d6000fd5b505050506040513d601f19601f820116820180604052508101906109ae9190611a84565b505b600360058111156109c4576109c36125e5565b5b8360e0019060ff16908160ff1681525050600160009054906101000a900473ffffffffffffffffffffffffffffffffffffffff1673ffffffffffffffffffffffffffffffffffffffff1663527c472e846040518263ffffffff167c0100000000000000000000000000000000000000000000000000000000028152600401610a4c919061217c565b602060405180830381600087803b158015610a6657600080fd5b505af1158015610a7a573d6000803e3d6000fd5b505050506040513d601f19601f82011682018060405250810190610a9e9190611a84565b506000600160009054906101000a900473ffffffffffffffffffffffffffffffffffffffff1673ffffffffffffffffffffffffffffffffffffffff166327c4758b6040518163ffffffff167c010000000000000000000000000000000000000000000000000000000002815260040160206040518083038186803b158015610b2557600080fd5b505afa158015610b39573d6000803e3d6000fd5b505050506040513d601f19601f82011682018060405250810190610b5d9190611bf7565b90506000610b6b8683611577565b90506000600160009054906101000a900473ffffffffffffffffffffffffffffffffffffffff1673ffffffffffffffffffffffffffffffffffffffff1663c2dc453a836040518263ffffffff167c0100000000000000000000000000000000000000000000000000000000028152600401610be6919061219e565b60206040518083038186803b158015610bfe57600080fd5b505afa158015610c12573d6000803e3d6000fd5b505050506040513d601f19601f82011682018060405250810190610c369190611ade565b90506000600102811415610d215733818760200151604051602001610c5d93929190611f2b565b604051602081830303815290604052805190602001209050600160009054906101000a900473ffffffffffffffffffffffffffffffffffffffff1673ffffffffffffffffffffffffffffffffffffffff16637beacf6183836040518363ffffffff167c0100000000000000000000000000000000000000000000000000000000028152600401610cee9291906121b9565b600060405180830381600087803b158015610d0857600080fd5b505af1158015610d1c573d6000803e3d6000fd5b505050505b600a600160009054906101000a900473ffffffffffffffffffffffffffffffffffffffff1673ffffffffffffffffffffffffffffffffffffffff16632e814642836040518263ffffffff167c0100000000000000000000000000000000000000000000000000000000028152600401610d9a9190611ff3565b60206040518083038186803b158015610db257600080fd5b505afa158015610dc6573d6000803e3d6000fd5b505050506040513d601f19601f82011682018060405250810190610dea9190611b9d565b1115610eb357600160009054906101000a900473ffffffffffffffffffffffffffffffffffffffff1673ffffffffffffffffffffffffffffffffffffffff16633e40ffb8610e4860018663ffffffff1661164590919063ffffffff16565b6040518263ffffffff167c0100000000000000000000000000000000000000000000000000000000028152600401610e80919061219e565b600060405180830381600087803b158015610e9a57600080fd5b505af1158015610eae573d6000803e3d6000fd5b505050505b600160009054906101000a900473ffffffffffffffffffffffffffffffffffffffff1673ffffffffffffffffffffffffffffffffffffffff1663203a6bfd886040518060400160405280600c81526020017f50454e44494e4751554555450000000000000000000000000000000000000000815250610f378663ffffffff1661165b565b6040518463ffffffff167c0100000000000000000000000000000000000000000000000000000000028152600401610f7193929190612075565b602060405180830381600087803b158015610f8b57600080fd5b505af1158015610f9f573d6000803e3d6000fd5b505050506040513d601f19601f82011682018060405250810190610fc39190611a84565b50600160009054906101000a900473ffffffffffffffffffffffffffffffffffffffff1673ffffffffffffffffffffffffffffffffffffffff166331fc60b2828960016040518463ffffffff167c01000000000000000000000000000000000000000000000000000000000281526004016110409392919061200e565b600060405180830381600087803b15801561105a57600080fd5b505af115801561106e573d6000803e3d6000fd5b5050505085602001517f4b4765d35479cadc60d2017499c2a73bf7ad8c90f0a29b2804ba62d06b3546b560405160405180910390a250505050505050565b6110b46111a4565b73ffffffffffffffffffffffffffffffffffffffff166110d261042a565b73ffffffffffffffffffffffffffffffffffffffff1614611128576040517f08c379a000000000000000000000000000000000000000000000000000000000815260040161111f9061215c565b60405180910390fd5b600073ffffffffffffffffffffffffffffffffffffffff168173ffffffffffffffffffffffffffffffffffffffff161415611198576040517f08c379a000000000000000000000000000000000000000000000000000000000815260040161118f906120fc565b60405180910390fd5b6111a18161124d565b50565b600033905090565b6111b4610306565b6111f3576040517f08c379a00000000000000000000000000000000000000000000000000000000081526004016111ea906120dc565b60405180910390fd5b60008060146101000a81548160ff0219169083151502179055507f5db9ee0a495bf2e6ff9c91a7834c1ba4fdd244a5e8aa4e537bd38aeae4b073aa6112366111a4565b6040516112439190611f94565b60405180910390a1565b60008060009054906101000a900473ffffffffffffffffffffffffffffffffffffffff169050816000806101000a81548173ffffffffffffffffffffffffffffffffffffffff021916908373ffffffffffffffffffffffffffffffffffffffff1602179055508173ffffffffffffffffffffffffffffffffffffffff168173ffffffffffffffffffffffffffffffffffffffff167f8be0079c531659141344cd1fd0a4f28419497f9722a3daafe3b4186f6b6457e060405160405180910390a35050565b611319610306565b15611359576040517f08c379a00000000000000000000000000000000000000000000000000000000081526004016113509061211c565b60405180910390fd5b6001600060146101000a81548160ff0219169083151502179055507f62e78cea01bee320cd4e420270b5ea74000d11b0c9f74754ebdbfc544b05a25861139d6111a4565b6040516113aa9190611f94565b60405180910390a1565b600081836113c29190612334565b905092915050565b600081836113d89190612303565b905092915050565b6000600160009054906101000a900473ffffffffffffffffffffffffffffffffffffffff1673ffffffffffffffffffffffffffffffffffffffff1663837fbbec6040518163ffffffff167c010000000000000000000000000000000000000000000000000000000002815260040160206040518083038186803b15801561146657600080fd5b505afa15801561147a573d6000803e3d6000fd5b505050506040513d601f19601f8201168201806040525081019061149e9190611b9d565b600160009054906101000a900473ffffffffffffffffffffffffffffffffffffffff1673ffffffffffffffffffffffffffffffffffffffff166315a54a646040518163ffffffff167c010000000000000000000000000000000000000000000000000000000002815260040160206040518083038186803b15801561152257600080fd5b505afa158015611536573d6000803e3d6000fd5b505050506040513d601f19601f8201168201806040525081019061155a9190611b9d565b1015905090565b6000818361156f919061238e565b905092915050565b6000808263ffffffff166001601481819054906101000a900460ff16809291906115a0906124fe565b91906101000a81548160ff021916908360ff16021790555060ff16436115c6919061238e565b40856040516020016115d9929190611f68565b60405160208183030381529060405280519060200120600190046115fd9190612556565b61ffff16905060fa600160149054906101000a900460ff1660ff16111561163b576000600160146101000a81548160ff021916908360ff1602179055505b8091505092915050565b600081836116539190612276565b905092915050565b606060008214156116a3576040518060400160405280600181526020017f300000000000000000000000000000000000000000000000000000000000000081525090506117fe565b600082905060005b600082146116d55780806116be906124b5565b915050600a826116ce9190612303565b91506116ab565b60008167ffffffffffffffff8111156116f1576116f0612643565b5b6040519080825280601f01601f1916602001820160405280156117235781602001600182028036833780820191505090505b50905060008290505b600086146117f657600181611741919061238e565b90506000600a80886117539190612303565b61175d9190612334565b87611768919061238e565b603061177491906122cc565b90506000817f0100000000000000000000000000000000000000000000000000000000000000029050808484815181106117b1576117b0612614565b5b60200101907effffffffffffffffffffffffffffffffffffffffffffffffffffffffffffff1916908160001a905350600a886117ed9190612303565b9750505061172c565b819450505050505b919050565b600061181661181184612207565b6121e2565b90508281526020810184848401111561183257611831612681565b5b61183d848285612451565b509392505050565b600081359050611854816127ad565b92915050565b600081519050611869816127ad565b92915050565b60008151905061187e816127c4565b92915050565b600081359050611893816127db565b92915050565b6000815190506118a8816127db565b92915050565b600082601f8301126118c3576118c2612672565b5b81516118d3848260208601611803565b91505092915050565b600061014082840312156118f3576118f2612677565b5b6118fe6101406121e2565b9050600061190e848285016119ee565b600083015250602061192284828501611899565b60208301525060406119368482850161185a565b604083015250606082015167ffffffffffffffff81111561195a5761195961267c565b5b611966848285016118ae565b606083015250608061197a84828501611a03565b60808301525060a061198e84828501611a42565b60a08301525060c06119a284828501611a42565b60c08301525060e06119b684828501611a42565b60e0830152506101006119cb84828501611a03565b610100830152506101206119e184828501611a03565b6101208301525092915050565b6000815190506119fd816127f2565b92915050565b600081519050611a1281612809565b92915050565b600081359050611a2781612820565b92915050565b600081519050611a3c81612820565b92915050565b600081519050611a5181612837565b92915050565b600060208284031215611a6d57611a6c61268b565b5b6000611a7b84828501611845565b91505092915050565b600060208284031215611a9a57611a9961268b565b5b6000611aa88482850161186f565b91505092915050565b600060208284031215611ac757611ac661268b565b5b6000611ad584828501611884565b91505092915050565b600060208284031215611af457611af361268b565b5b6000611b0284828501611899565b91505092915050565b600060208284031215611b2157611b2061268b565b5b600082015167ffffffffffffffff811115611b3f57611b3e612686565b5b611b4b848285016118ae565b91505092915050565b600060208284031215611b6a57611b6961268b565b5b600082015167ffffffffffffffff811115611b8857611b87612686565b5b611b94848285016118dc565b91505092915050565b600060208284031215611bb357611bb261268b565b5b6000611bc184828501611a03565b91505092915050565b600060208284031215611be057611bdf61268b565b5b6000611bee84828501611a18565b91505092915050565b600060208284031215611c0d57611c0c61268b565b5b6000611c1b84828501611a2d565b91505092915050565b611c2d816123c2565b82525050565b611c3c816123c2565b82525050565b611c53611c4e826123c2565b612528565b82525050565b611c62816123d4565b82525050565b611c71816123e0565b82525050565b611c80816123e0565b82525050565b611c97611c92826123e0565b61253a565b82525050565b611ca68161243f565b82525050565b6000611cb782612238565b611cc18185612243565b9350611cd1818560208601612451565b611cda81612690565b840191505092915050565b6000611cf082612238565b611cfa8185612254565b9350611d0a818560208601612451565b611d1381612690565b840191505092915050565b6000611d2982612238565b611d338185612265565b9350611d43818560208601612451565b611d4c81612690565b840191505092915050565b6000611d64601483612254565b9150611d6f826126ba565b602082019050919050565b6000611d87602683612254565b9150611d92826126e3565b604082019050919050565b6000611daa601083612254565b9150611db582612732565b602082019050919050565b6000611dcd601983612254565b9150611dd88261275b565b602082019050919050565b6000611df0602083612254565b9150611dfb82612784565b602082019050919050565b600061014083016000830151611e1f6000860182611ee0565b506020830151611e326020860182611c68565b506040830151611e456040860182611c24565b5060608301518482036060860152611e5d8282611cac565b9150506080830151611e726080860182611eef565b5060a0830151611e8560a0860182611f1c565b5060c0830151611e9860c0860182611f1c565b5060e0830151611eab60e0860182611f1c565b50610100830151611ec0610100860182611eef565b50610120830151611ed5610120860182611eef565b508091505092915050565b611ee9816123ea565b82525050565b611ef881612418565b82525050565b611f0781612418565b82525050565b611f1681612422565b82525050565b611f2581612432565b82525050565b6000611f378286611c42565b601482019150611f478285611c86565b602082019150611f578284611c86565b602082019150819050949350505050565b6000611f748285611c86565b602082019150611f848284611c86565b6020820191508190509392505050565b6000602082019050611fa96000830184611c33565b92915050565b6000604082019050611fc46000830185611c33565b611fd16020830184611efe565b9392505050565b6000602082019050611fed6000830184611c59565b92915050565b60006020820190506120086000830184611c77565b92915050565b60006060820190506120236000830186611c77565b6120306020830185611c77565b61203d6040830184611c9d565b949350505050565b600060408201905061205a6000830185611c77565b818103602083015261206c8184611ce5565b90509392505050565b600060608201905061208a6000830186611c77565b818103602083015261209c8185611ce5565b905081810360408301526120b08184611ce5565b9050949350505050565b600060208201905081810360008301526120d48184611d1e565b905092915050565b600060208201905081810360008301526120f581611d57565b9050919050565b6000602082019050818103600083015261211581611d7a565b9050919050565b6000602082019050818103600083015261213581611d9d565b9050919050565b6000602082019050818103600083015261215581611dc0565b9050919050565b6000602082019050818103600083015261217581611de3565b9050919050565b600060208201905081810360008301526121968184611e06565b905092915050565b60006020820190506121b36000830184611f0d565b92915050565b60006040820190506121ce6000830185611f0d565b6121db6020830184611c77565b9392505050565b60006121ec6121fd565b90506121f88282612484565b919050565b6000604051905090565b600067ffffffffffffffff82111561222257612221612643565b5b61222b82612690565b9050602081019050919050565b600081519050919050565b600082825260208201905092915050565b600082825260208201905092915050565b600082825260208201905092915050565b600061228182612418565b915061228c83612418565b9250827fffffffffffffffffffffffffffffffffffffffffffffffffffffffffffffffff038211156122c1576122c0612587565b5b828201905092915050565b60006122d782612432565b91506122e283612432565b92508260ff038211156122f8576122f7612587565b5b828201905092915050565b600061230e82612418565b915061231983612418565b925082612329576123286125b6565b5b828204905092915050565b600061233f82612418565b915061234a83612418565b9250817fffffffffffffffffffffffffffffffffffffffffffffffffffffffffffffffff048311821515161561238357612382612587565b5b828202905092915050565b600061239982612418565b91506123a483612418565b9250828210156123b7576123b6612587565b5b828203905092915050565b60006123cd826123f8565b9050919050565b60008115159050919050565b6000819050919050565b600061ffff82169050919050565b600073ffffffffffffffffffffffffffffffffffffffff82169050919050565b6000819050919050565b600063ffffffff82169050919050565b600060ff82169050919050565b600061244a82612418565b9050919050565b60005b8381101561246f578082015181840152602081019050612454565b8381111561247e576000848401525b50505050565b61248d82612690565b810181811067ffffffffffffffff821117156124ac576124ab612643565b5b80604052505050565b60006124c082612418565b91507fffffffffffffffffffffffffffffffffffffffffffffffffffffffffffffffff8214156124f3576124f2612587565b5b600182019050919050565b600061250982612432565b915060ff82141561251d5761251c612587565b5b600182019050919050565b600061253382612544565b9050919050565b6000819050919050565b600061254f826126a1565b9050919050565b600061256182612418565b915061256c83612418565b92508261257c5761257b6125b6565b5b828206905092915050565b7f4e487b7100000000000000000000000000000000000000000000000000000000600052601160045260246000fd5b7f4e487b7100000000000000000000000000000000000000000000000000000000600052601260045260246000fd5b7f4e487b7100000000000000000000000000000000000000000000000000000000600052602160045260246000fd5b7f4e487b7100000000000000000000000000000000000000000000000000000000600052603260045260246000fd5b7f4e487b7100000000000000000000000000000000000000000000000000000000600052604160045260246000fd5b600080fd5b600080fd5b600080fd5b600080fd5b600080fd5b600080fd5b6000601f19601f8301169050919050565b60006c0100000000000000000000000082029050919050565b7f5061757361626c653a206e6f7420706175736564000000000000000000000000600082015250565b7f4f776e61626c653a206e6577206f776e657220697320746865207a65726f206160008201527f6464726573730000000000000000000000000000000000000000000000000000602082015250565b7f5061757361626c653a2070617573656400000000000000000000000000000000600082015250565b7f4576656e742054696d6520686173206e6f742070617373656400000000000000600082015250565b7f4f776e61626c653a2063616c6c6572206973206e6f7420746865206f776e6572600082015250565b6127b6816123c2565b81146127c157600080fd5b50565b6127cd816123d4565b81146127d857600080fd5b50565b6127e4816123e0565b81146127ef57600080fd5b50565b6127fb816123ea565b811461280657600080fd5b50565b61281281612418565b811461281d57600080fd5b50565b61282981612422565b811461283457600080fd5b50565b61284081612432565b811461284b57600080fd5b5056fea264697066735822122052f6c734f4c5e7e1e5e5767da0a1cca14984b6adcba5c0ffbf31db88a90b777964736f6c63430008060033",
  "immutableReferences": {},
  "source": "// SPDX-License-Identifier: MIT\r\npragma solidity >=0.8.6 <0.9.0;\r\n\r\nimport \"@openzeppelin/contracts/access/Ownable.sol\";\r\nimport \"@openzeppelin/contracts/security/Pausable.sol\";\r\nimport \"@openzeppelin/contracts/utils/math/SafeMath.sol\";\r\nimport \"./IBetData.sol\";\r\nimport { Lib, ConversionUtil } from \"./Lib.sol\";\r\n\r\ncontract IBetEventOracleV1 is Ownable, Pausable {\r\n   using SafeMath for uint256;\r\n   using SafeMath for uint32;\r\n\r\n   IBetData private sureBetData;\r\n\r\nevent BetInArbitration(bytes32 indexed betKey);\r\n\r\nconstructor(address sureBetDataContract)\r\n{\r\n   sureBetData = IBetData(sureBetDataContract);\r\n}\r\n\r\nfunction isServiceTokensExhausted() internal view returns (bool) {\r\n   return sureBetData.getServiceTokensDisbursedCount() >= sureBetData.getMaxServiceTokensCount();\r\n}\r\n\r\nfunction awakeArbitrationBet(bytes32 betKey) public {\r\n  Lib.Bet memory bet = sureBetData.getBet(betKey);\r\n  require(block.timestamp > (bet.eventTime), \"Event Time has not passed\");\r\n  require(bet.status ==  uint8(Lib.BetStatus.WAITINGARBITRATION), \"Event Time has not passed\");\r\n\r\n   uint arbitratorCommissionProp = ConversionUtil.stringToUint(sureBetData.getBetProperty(betKey, Lib.PROPERTIES_ARBITRATOR_COMMISSION));\r\n   uint256 oracleReward = bet.amount.mul(arbitratorCommissionProp).mul(5).div(1000).div(100).div(100000);\r\n   if(isServiceTokensExhausted() == false)\r\n   {\r\n      sureBetData.reward(msg.sender, oracleReward);\r\n   } else {\r\n      bet.escrowBalance = bet.escrowBalance.sub(oracleReward);\r\n      sureBetData.transferFromEscrow(msg.sender, oracleReward);\r\n   }\r\n\r\n   bet.status = uint8(Lib.BetStatus.INARBITRATION);\r\n   sureBetData.saveBet(bet);\r\n\r\n   // check to see if ComplexityIndex Needs to be increased.\r\n   uint32 complexityIndex = sureBetData.getArbitrationComplexityIndex();\r\n   uint32 betQueue = getRandomIndex(betKey, complexityIndex);\r\n\r\n   bytes32 queueKey = sureBetData.getPendingArbitrationQueueMapKey(uint32(betQueue));\r\n   if(queueKey == 0)\r\n   {\r\n      queueKey = keccak256(abi.encodePacked(msg.sender, queueKey, bet.betKey));\r\n      sureBetData.addPendingArbitrationQueueMapKey(betQueue, queueKey);\r\n   }\r\n\r\n   if(sureBetData.getPendingArbitrationCount(queueKey) > 10)\r\n   {\r\n      sureBetData.updateArbitrationComplexityIndex(uint32(complexityIndex.add(1)));\r\n   }\r\n\r\n   sureBetData.saveBetProperty(betKey, Lib.PROPERTIES_PENDING_QUEUE, ConversionUtil.uintToString(betQueue));\r\n\r\n   sureBetData.addPendingArbitrationByValue(queueKey, betKey, 1);\r\n\r\n  emit BetInArbitration(bet.betKey);\r\n}\r\n\r\n   function updateArbitrationComplexityIndex(uint32 complexityIndex) public onlyOwner {\r\n      sureBetData.updateArbitrationComplexityIndex(complexityIndex);\r\n   }\r\n\r\n   uint8 nonce = 0;\r\n\r\n   function getRandomIndex(bytes32 betKey, uint32 maxValue) internal returns (uint32)\r\n   {\r\n        // Pseudo random number...\r\n        uint32 random = uint16(uint256(keccak256(abi.encodePacked(blockhash(block.number - nonce++), betKey))) % maxValue);\r\n\r\n        if (nonce > 250) {\r\n            nonce = 0;\r\n        }\r\n        return random;\r\n   }\r\n\r\n     function pause() public onlyOwner {\r\n   _pause();\r\n}\r\n\r\n   function unpause() public onlyOwner {\r\n   _unpause();\r\n}\r\n}",
  "sourcePath": "D:\\eberrysoftwares\\ibettoken\\contracts\\IBetEventOracleV1.sol",
  "compiler": {
    "name": "solc",
    "version": "0.8.6+commit.11564f7e.Emscripten.clang"
  },
  "schemaVersion": "3.4.2",
  "updatedAt": "2021-08-25T19:59:59.457Z",
  "devdoc": {
    "kind": "dev",
    "methods": {
      "owner()": {
        "details": "Returns the address of the current owner."
      },
      "paused()": {
        "details": "Returns true if the contract is paused, and false otherwise."
      },
      "renounceOwnership()": {
        "details": "Leaves the contract without owner. It will not be possible to call `onlyOwner` functions anymore. Can only be called by the current owner. NOTE: Renouncing ownership will leave the contract without an owner, thereby removing any functionality that is only available to the owner."
      },
      "transferOwnership(address)": {
        "details": "Transfers ownership of the contract to a new account (`newOwner`). Can only be called by the current owner."
      }
    },
    "version": 1
  },
  "userdoc": {
    "kind": "user",
    "methods": {},
    "version": 1
  }
}