{"contractName":"IBetBettingV1","abi":[{"inputs":[{"internalType":"address","name":"sureBetDataContract","type":"address"}],"stateMutability":"nonpayable","type":"constructor"},{"anonymous":false,"inputs":[{"indexed":true,"internalType":"bytes32","name":"betKey","type":"bytes32"},{"indexed":true,"internalType":"address","name":"acceptor","type":"address"}],"name":"BetAccepted","type":"event"},{"anonymous":false,"inputs":[{"indexed":true,"internalType":"bytes32","name":"betKey","type":"bytes32"},{"indexed":false,"internalType":"uint256","name":"eventTime","type":"uint256"}],"name":"BetAwaitingArbitration","type":"event"},{"anonymous":false,"inputs":[{"indexed":true,"internalType":"bytes32","name":"betKey","type":"bytes32"},{"indexed":true,"internalType":"address","name":"sender","type":"address"}],"name":"BetCancelled","type":"event"},{"anonymous":false,"inputs":[{"indexed":true,"internalType":"bytes32","name":"betKey","type":"bytes32"},{"indexed":true,"internalType":"uint256","name":"betType","type":"uint256"},{"indexed":true,"internalType":"address","name":"betor","type":"address"},{"indexed":false,"internalType":"uint256","name":"amount","type":"uint256"}],"name":"BetCreated","type":"event"},{"anonymous":false,"inputs":[{"indexed":true,"internalType":"address","name":"previousOwner","type":"address"},{"indexed":true,"internalType":"address","name":"newOwner","type":"address"}],"name":"OwnershipTransferred","type":"event"},{"anonymous":false,"inputs":[{"indexed":false,"internalType":"address","name":"account","type":"address"}],"name":"Paused","type":"event"},{"anonymous":false,"inputs":[{"indexed":false,"internalType":"address","name":"account","type":"address"}],"name":"Unpaused","type":"event"},{"inputs":[],"name":"owner","outputs":[{"internalType":"address","name":"","type":"address"}],"stateMutability":"view","type":"function"},{"inputs":[],"name":"paused","outputs":[{"internalType":"bool","name":"","type":"bool"}],"stateMutability":"view","type":"function"},{"inputs":[],"name":"renounceOwnership","outputs":[],"stateMutability":"nonpayable","type":"function"},{"inputs":[{"internalType":"address","name":"newOwner","type":"address"}],"name":"transferOwnership","outputs":[],"stateMutability":"nonpayable","type":"function"},{"inputs":[{"internalType":"uint256","name":"inputStakePercentRequired","type":"uint256"}],"name":"UpdateStakePercentRequired","outputs":[],"stateMutability":"nonpayable","type":"function"},{"inputs":[{"internalType":"uint256","name":"inputArbitratorCommissionPercent","type":"uint256"}],"name":"UpdateArbitratorCommissionPercent","outputs":[],"stateMutability":"nonpayable","type":"function"},{"inputs":[{"internalType":"uint256","name":"timestamp","type":"uint256"},{"internalType":"uint256","name":"amount","type":"uint256"},{"internalType":"uint256","name":"eventTime","type":"uint256"},{"internalType":"uint8","name":"betType","type":"uint8"},{"internalType":"uint8","name":"arbitrationType","type":"uint8"},{"internalType":"string[]","name":"properties","type":"string[]"}],"name":"createBet","outputs":[],"stateMutability":"nonpayable","type":"function"},{"inputs":[{"internalType":"bytes32","name":"betKey","type":"bytes32"}],"name":"acceptBet","outputs":[],"stateMutability":"nonpayable","type":"function"},{"inputs":[{"internalType":"bytes32","name":"betKey","type":"bytes32"}],"name":"cancelBet","outputs":[],"stateMutability":"nonpayable","type":"function"},{"inputs":[],"name":"pause","outputs":[],"stateMutability":"nonpayable","type":"function"},{"inputs":[],"name":"unpause","outputs":[],"stateMutability":"nonpayable","type":"function"}],"bytecode":"0x60806040526207a1206002556188b86003553480156200001e57600080fd5b50604051620054a3380380620054a38339818101604052810190620000449190620001bb565b6200007662000061620000d8640100000000026401000000009004565b620000e0640100000000026401000000009004565b60008060146101000a81548160ff02191690831515021790555080600160006101000a81548173ffffffffffffffffffffffffffffffffffffffff021916908373ffffffffffffffffffffffffffffffffffffffff1602179055505062000240565b600033905090565b60008060009054906101000a900473ffffffffffffffffffffffffffffffffffffffff169050816000806101000a81548173ffffffffffffffffffffffffffffffffffffffff021916908373ffffffffffffffffffffffffffffffffffffffff1602179055508173ffffffffffffffffffffffffffffffffffffffff168173ffffffffffffffffffffffffffffffffffffffff167f8be0079c531659141344cd1fd0a4f28419497f9722a3daafe3b4186f6b6457e060405160405180910390a35050565b600081519050620001b58162000226565b92915050565b600060208284031215620001d457620001d362000221565b5b6000620001e484828501620001a4565b91505092915050565b6000620001fa8262000201565b9050919050565b600073ffffffffffffffffffffffffffffffffffffffff82169050919050565b600080fd5b6200023181620001ed565b81146200023d57600080fd5b50565b61525380620002506000396000f3fe608060405234801561001057600080fd5b50600436106100c6576000357c010000000000000000000000000000000000000000000000000000000090048063715018a61161008e578063715018a6146101475780638456cb59146101515780638da5cb5b1461015b578063e4a7d11b14610179578063f2fde38b14610195578063f65a5aca146101b1576100c6565b80631ed1ed76146100cb5780632940ff1e146100e75780633f4ba83a14610103578063452b6abd1461010d5780635c975abb14610129575b600080fd5b6100e560048036038101906100e09190613ce8565b6101cd565b005b61010160048036038101906100fc9190613c29565b610296565b005b61010b6108c4565b005b61012760048036038101906101229190613d42565b61094a565b005b610131611c51565b60405161013e91906142ca565b60405180910390f35b61014f611c67565b005b610159611cef565b005b610163611d75565b604051610170919061425d565b60405180910390f35b610193600480360381019061018e9190613c29565b611d9e565b005b6101af60048036038101906101aa9190613bcf565b61296c565b005b6101cb60048036038101906101c69190613ce8565b612a64565b005b6101d5612b2d565b73ffffffffffffffffffffffffffffffffffffffff166101f3611d75565b73ffffffffffffffffffffffffffffffffffffffff1614610249576040517f08c379a000000000000000000000000000000000000000000000000000000000815260040161024090614477565b60405180910390fd5b6064811161028c576040517f08c379a0000000000000000000000000000000000000000000000000000000008152600401610283906143d7565b60405180910390fd5b8060038190555050565b6000600160009054906101000a900473ffffffffffffffffffffffffffffffffffffffff1673ffffffffffffffffffffffffffffffffffffffff166337e8c09e836040518263ffffffff167c010000000000000000000000000000000000000000000000000000000002815260040161030f91906142e5565b60006040518083038186803b15801561032757600080fd5b505afa15801561033b573d6000803e3d6000fd5b505050506040513d6000823e3d601f19601f820116820180604052508101906103649190613c9f565b90503373ffffffffffffffffffffffffffffffffffffffff16816040015173ffffffffffffffffffffffffffffffffffffffff16146103d8576040517f08c379a00000000000000000000000000000000000000000000000000000000081526004016103cf906144b7565b60405180910390fd5b600060058111156103ec576103eb614d9d565b5b60ff168160e0015160ff1614610437576040517f08c379a000000000000000000000000000000000000000000000000000000000815260040161042e90614497565b60405180910390fd5b600081610120015190506000826101200181815250506005808111156104605761045f614d9d565b5b8260e0019060ff16908160ff1681525050600160009054906101000a900473ffffffffffffffffffffffffffffffffffffffff1673ffffffffffffffffffffffffffffffffffffffff16632e716659610582846101000151600160009054906101000a900473ffffffffffffffffffffffffffffffffffffffff1673ffffffffffffffffffffffffffffffffffffffff1663dafb76826040518163ffffffff167c010000000000000000000000000000000000000000000000000000000002815260040160206040518083038186803b15801561053c57600080fd5b505afa158015610550573d6000803e3d6000fd5b505050506040513d601f19601f820116820180604052508101906105749190613d15565b612b3590919063ffffffff16565b6040518263ffffffff167c01000000000000000000000000000000000000000000000000000000000281526004016105ba91906145ed565b600060405180830381600087803b1580156105d457600080fd5b505af11580156105e8573d6000803e3d6000fd5b50505050600160009054906101000a900473ffffffffffffffffffffffffffffffffffffffff1673ffffffffffffffffffffffffffffffffffffffff1663527c472e836040518263ffffffff167c01000000000000000000000000000000000000000000000000000000000281526004016106639190614517565b602060405180830381600087803b15801561067d57600080fd5b505af1158015610691573d6000803e3d6000fd5b505050506040513d601f19601f820116820180604052508101906106b59190613bfc565b506001808111156106c9576106c8614d9d565b5b60ff168260a0015160ff1614156107ab5760008060006106ec8560800151612b4b565b505050925092509250600160009054906101000a900473ffffffffffffffffffffffffffffffffffffffff1673ffffffffffffffffffffffffffffffffffffffff16636604aa1e84848460008b6040518663ffffffff167c0100000000000000000000000000000000000000000000000000000000028152600401610775959493929190614539565b600060405180830381600087803b15801561078f57600080fd5b505af11580156107a3573d6000803e3d6000fd5b505050505050505b600160009054906101000a900473ffffffffffffffffffffffffffffffffffffffff1673ffffffffffffffffffffffffffffffffffffffff16639e88fd8133836040518363ffffffff167c01000000000000000000000000000000000000000000000000000000000281526004016108249291906142a1565b602060405180830381600087803b15801561083e57600080fd5b505af1158015610852573d6000803e3d6000fd5b505050506040513d601f19601f820116820180604052508101906108769190613bfc565b503373ffffffffffffffffffffffffffffffffffffffff1682602001517ff0f67a4c8ac0793cea2d284d87d6562b8ede76460a90455711f0aa2c6bd835d860405160405180910390a3505050565b6108cc612b2d565b73ffffffffffffffffffffffffffffffffffffffff166108ea611d75565b73ffffffffffffffffffffffffffffffffffffffff1614610940576040517f08c379a000000000000000000000000000000000000000000000000000000000815260040161093790614477565b60405180910390fd5b610948612bd2565b565b84600160009054906101000a900473ffffffffffffffffffffffffffffffffffffffff1673ffffffffffffffffffffffffffffffffffffffff16639b96eece336040518263ffffffff167c01000000000000000000000000000000000000000000000000000000000281526004016109c2919061425d565b60206040518083038186803b1580156109da57600080fd5b505afa1580156109ee573d6000803e3d6000fd5b505050506040513d601f19601f82011682018060405250810190610a129190613d15565b1015610a53576040517f08c379a0000000000000000000000000000000000000000000000000000000008152600401610a4a90614417565b60405180910390fd5b6000338688604051602001610a6a93929190614205565b604051602081830303815290604052805190602001209050600160009054906101000a900473ffffffffffffffffffffffffffffffffffffffff1673ffffffffffffffffffffffffffffffffffffffff16639e88fd8133886040518363ffffffff167c0100000000000000000000000000000000000000000000000000000000028152600401610afb9291906142a1565b602060405180830381600087803b158015610b1557600080fd5b505af1158015610b29573d6000803e3d6000fd5b505050506040513d601f19601f82011682018060405250810190610b4d9190613bfc565b506000604051806101400160405280600080811115610b6f57610b6e614d9d565b5b61ffff1681526020018381526020013373ffffffffffffffffffffffffffffffffffffffff16815260200184600081518110610bae57610bad614dcc565b5b602002602001015181526020018781526020018660ff1681526020018560ff16815260200160006005811115610be757610be6614d9d565b5b60ff168152602001888152602001888152509050600160009054906101000a900473ffffffffffffffffffffffffffffffffffffffff1673ffffffffffffffffffffffffffffffffffffffff1663527c472e826040518263ffffffff167c0100000000000000000000000000000000000000000000000000000000028152600401610c729190614517565b602060405180830381600087803b158015610c8c57600080fd5b505af1158015610ca0573d6000803e3d6000fd5b505050506040513d601f19601f82011682018060405250810190610cc49190613bfc565b50600160009054906101000a900473ffffffffffffffffffffffffffffffffffffffff1673ffffffffffffffffffffffffffffffffffffffff1663203a6bfd836040518060400160405280600b81526020017f57494e5343454e4152494f00000000000000000000000000000000000000000081525086600181518110610d4e57610d4d614dcc565b5b60200260200101516040518463ffffffff167c0100000000000000000000000000000000000000000000000000000000028152600401610d9093929190614330565b602060405180830381600087803b158015610daa57600080fd5b505af1158015610dbe573d6000803e3d6000fd5b505050506040513d601f19601f82011682018060405250810190610de29190613bfc565b50600160009054906101000a900473ffffffffffffffffffffffffffffffffffffffff1673ffffffffffffffffffffffffffffffffffffffff1663203a6bfd836040518060400160405280600c81526020017f4c4f53455343454e4152494f000000000000000000000000000000000000000081525086600281518110610e6c57610e6b614dcc565b5b60200260200101516040518463ffffffff167c0100000000000000000000000000000000000000000000000000000000028152600401610eae93929190614330565b602060405180830381600087803b158015610ec857600080fd5b505af1158015610edc573d6000803e3d6000fd5b505050506040513d601f19601f82011682018060405250810190610f009190613bfc565b50600160009054906101000a900473ffffffffffffffffffffffffffffffffffffffff1673ffffffffffffffffffffffffffffffffffffffff1663203a6bfd836040518060400160405280600e81526020017f43414e43454c5343454e4152494f00000000000000000000000000000000000081525086600381518110610f8a57610f89614dcc565b5b60200260200101516040518463ffffffff167c0100000000000000000000000000000000000000000000000000000000028152600401610fcc93929190614330565b602060405180830381600087803b158015610fe657600080fd5b505af1158015610ffa573d6000803e3d6000fd5b505050506040513d601f19601f8201168201806040525081019061101e9190613bfc565b50600160009054906101000a900473ffffffffffffffffffffffffffffffffffffffff1673ffffffffffffffffffffffffffffffffffffffff1663203a6bfd836040518060400160405280601081526020017f424554414741494e5354414d4f554e5400000000000000000000000000000000815250866005815181106110a8576110a7614dcc565b5b60200260200101516040518463ffffffff167c01000000000000000000000000000000000000000000000000000000000281526004016110ea93929190614330565b602060405180830381600087803b15801561110457600080fd5b505af1158015611118573d6000803e3d6000fd5b505050506040513d601f19601f8201168201806040525081019061113c9190613bfc565b50600160009054906101000a900473ffffffffffffffffffffffffffffffffffffffff1673ffffffffffffffffffffffffffffffffffffffff1663b5fa4af7826040015183602001516040518363ffffffff167c01000000000000000000000000000000000000000000000000000000000281526004016111be929190614278565b600060405180830381600087803b1580156111d857600080fd5b505af11580156111ec573d6000803e3d6000fd5b50505050600160009054906101000a900473ffffffffffffffffffffffffffffffffffffffff1673ffffffffffffffffffffffffffffffffffffffff16632e7166596112fc89600160009054906101000a900473ffffffffffffffffffffffffffffffffffffffff1673ffffffffffffffffffffffffffffffffffffffff1663dafb76826040518163ffffffff167c010000000000000000000000000000000000000000000000000000000002815260040160206040518083038186803b1580156112b657600080fd5b505afa1580156112ca573d6000803e3d6000fd5b505050506040513d601f19601f820116820180604052508101906112ee9190613d15565b612c7390919063ffffffff16565b6040518263ffffffff167c010000000000000000000000000000000000000000000000000000000002815260040161133491906145ed565b600060405180830381600087803b15801561134e57600080fd5b505af1158015611362573d6000803e3d6000fd5b505050506000600181111561137a57611379614d9d565b5b60ff168460ff1614156117b457600160009054906101000a900473ffffffffffffffffffffffffffffffffffffffff1673ffffffffffffffffffffffffffffffffffffffff1663203a6bfd836040518060400160405280600a81526020017f41524249545241544f5200000000000000000000000000000000000000000000815250866006815181106114105761140f614dcc565b5b60200260200101516040518463ffffffff167c010000000000000000000000000000000000000000000000000000000002815260040161145293929190614330565b602060405180830381600087803b15801561146c57600080fd5b505af1158015611480573d6000803e3d6000fd5b505050506040513d601f19601f820116820180604052508101906114a49190613bfc565b50600160009054906101000a900473ffffffffffffffffffffffffffffffffffffffff1673ffffffffffffffffffffffffffffffffffffffff1663203a6bfd836040518060400160405280600e81526020017f41524249545241544f524e414d450000000000000000000000000000000000008152508660048151811061152e5761152d614dcc565b5b60200260200101516040518463ffffffff167c010000000000000000000000000000000000000000000000000000000002815260040161157093929190614330565b602060405180830381600087803b15801561158a57600080fd5b505af115801561159e573d6000803e3d6000fd5b505050506040513d601f19601f820116820180604052508101906115c29190613bfc565b50600160009054906101000a900473ffffffffffffffffffffffffffffffffffffffff1673ffffffffffffffffffffffffffffffffffffffff1663203a6bfd836040518060400160405280601481526020017f41524249545241544f52434f4d4d495353494f4e0000000000000000000000008152508660078151811061164c5761164b614dcc565b5b60200260200101516040518463ffffffff167c010000000000000000000000000000000000000000000000000000000002815260040161168e93929190614330565b602060405180830381600087803b1580156116a857600080fd5b505af11580156116bc573d6000803e3d6000fd5b505050506040513d601f19601f820116820180604052508101906116e09190613bfc565b50600160009054906101000a900473ffffffffffffffffffffffffffffffffffffffff1673ffffffffffffffffffffffffffffffffffffffff1663b5fa4af76117438560068151811061173657611735614dcc565b5b6020026020010151612c89565b83602001516040518363ffffffff167c0100000000000000000000000000000000000000000000000000000000028152600401611781929190614278565b600060405180830381600087803b15801561179b57600080fd5b505af11580156117af573d6000803e3d6000fd5b505050505b6001808111156117c7576117c6614d9d565b5b60ff168560ff161415611bf457600015156117e0613015565b151514156119055760006117f2613196565b9050600160009054906101000a900473ffffffffffffffffffffffffffffffffffffffff1673ffffffffffffffffffffffffffffffffffffffff1663203a6bfd846040518060400160405280601481526020017f41524249545241544f52434f4d4d495353494f4e00000000000000000000000081525061187285613384565b6040518463ffffffff167c01000000000000000000000000000000000000000000000000000000000281526004016118ac93929190614330565b602060405180830381600087803b1580156118c657600080fd5b505af11580156118da573d6000803e3d6000fd5b505050506040513d601f19601f820116820180604052508101906118fe9190613bfc565b5050611a13565b600160009054906101000a900473ffffffffffffffffffffffffffffffffffffffff1673ffffffffffffffffffffffffffffffffffffffff1663203a6bfd836040518060400160405280601481526020017f41524249545241544f52434f4d4d495353494f4e000000000000000000000000815250611985600354613384565b6040518463ffffffff167c01000000000000000000000000000000000000000000000000000000000281526004016119bf93929190614330565b602060405180830381600087803b1580156119d957600080fd5b505af11580156119ed573d6000803e3d6000fd5b505050506040513d601f19601f82011682018060405250810190611a119190613bfc565b505b600160009054906101000a900473ffffffffffffffffffffffffffffffffffffffff1673ffffffffffffffffffffffffffffffffffffffff1663203a6bfd836040518060400160405280601481526020017f5354414b4550455243454e545245515549524544000000000000000000000000815250611a93600254613384565b6040518463ffffffff167c0100000000000000000000000000000000000000000000000000000000028152600401611acd93929190614330565b602060405180830381600087803b158015611ae757600080fd5b505af1158015611afb573d6000803e3d6000fd5b505050506040513d601f19601f82011682018060405250810190611b1f9190613bfc565b506000806000611b328460800151612b4b565b505050925092509250600160009054906101000a900473ffffffffffffffffffffffffffffffffffffffff1673ffffffffffffffffffffffffffffffffffffffff1663d9f8c20f84848460008a60016040518763ffffffff167c0100000000000000000000000000000000000000000000000000000000028152600401611bbe9695949392919061458c565b600060405180830381600087803b158015611bd857600080fd5b505af1158015611bec573d6000803e3d6000fd5b505050505050505b3373ffffffffffffffffffffffffffffffffffffffff168560ff16837f012561c0d87585938ef0f97d752154489c4d57935bcff732c5a8444d9e6ade968a604051611c3f91906145ed565b60405180910390a45050505050505050565b60008060149054906101000a900460ff16905090565b611c6f612b2d565b73ffffffffffffffffffffffffffffffffffffffff16611c8d611d75565b73ffffffffffffffffffffffffffffffffffffffff1614611ce3576040517f08c379a0000000000000000000000000000000000000000000000000000000008152600401611cda90614477565b60405180910390fd5b611ced600061352c565b565b611cf7612b2d565b73ffffffffffffffffffffffffffffffffffffffff16611d15611d75565b73ffffffffffffffffffffffffffffffffffffffff1614611d6b576040517f08c379a0000000000000000000000000000000000000000000000000000000008152600401611d6290614477565b60405180910390fd5b611d736135f0565b565b60008060009054906101000a900473ffffffffffffffffffffffffffffffffffffffff16905090565b6000600160009054906101000a900473ffffffffffffffffffffffffffffffffffffffff1673ffffffffffffffffffffffffffffffffffffffff166337e8c09e836040518263ffffffff167c0100000000000000000000000000000000000000000000000000000000028152600401611e1791906142e5565b60006040518083038186803b158015611e2f57600080fd5b505afa158015611e43573d6000803e3d6000fd5b505050506040513d6000823e3d601f19601f82011682018060405250810190611e6c9190613c9f565b905060006005811115611e8257611e81614d9d565b5b60ff168160e0015160ff1614611ecd576040517f08c379a0000000000000000000000000000000000000000000000000000000008152600401611ec490614437565b60405180910390fd5b3373ffffffffffffffffffffffffffffffffffffffff16816040015173ffffffffffffffffffffffffffffffffffffffff161415611f40576040517f08c379a0000000000000000000000000000000000000000000000000000000008152600401611f37906144d7565b60405180910390fd5b80608001514210611f86576040517f08c379a0000000000000000000000000000000000000000000000000000000008152600401611f7d90614457565b60405180910390fd5b600073__ConversionUtil________________________631bd95155600160009054906101000a900473ffffffffffffffffffffffffffffffffffffffff1673ffffffffffffffffffffffffffffffffffffffff16638ab4de3c866040518060400160405280601081526020017f424554414741494e5354414d4f554e54000000000000000000000000000000008152506040518363ffffffff167c0100000000000000000000000000000000000000000000000000000000028152600401612050929190614300565b60006040518083038186803b15801561206857600080fd5b505afa15801561207c573d6000803e3d6000fd5b505050506040513d6000823e3d601f19601f820116820180604052508101906120a59190613c56565b6040518263ffffffff167c01000000000000000000000000000000000000000000000000000000000281526004016120dd9190614375565b60206040518083038186803b1580156120f557600080fd5b505af4158015612109573d6000803e3d6000fd5b505050506040513d601f19601f8201168201806040525081019061212d9190613d15565b905080600160009054906101000a900473ffffffffffffffffffffffffffffffffffffffff1673ffffffffffffffffffffffffffffffffffffffff16639b96eece336040518263ffffffff167c01000000000000000000000000000000000000000000000000000000000281526004016121a7919061425d565b60206040518083038186803b1580156121bf57600080fd5b505afa1580156121d3573d6000803e3d6000fd5b505050506040513d601f19601f820116820180604052508101906121f79190613d15565b1015612238576040517f08c379a000000000000000000000000000000000000000000000000000000000815260040161222f906144f7565b60405180910390fd5b600061225282846101200151612c7390919063ffffffff16565b9050600160009054906101000a900473ffffffffffffffffffffffffffffffffffffffff1673ffffffffffffffffffffffffffffffffffffffff16639e88fd8133846040518363ffffffff167c01000000000000000000000000000000000000000000000000000000000281526004016122cd9291906142a1565b602060405180830381600087803b1580156122e757600080fd5b505af11580156122fb573d6000803e3d6000fd5b505050506040513d601f19601f8201168201806040525081019061231f9190613bfc565b5080836101200181815250503373ffffffffffffffffffffffffffffffffffffffff1683602001517fba6fb042f08d319f9c2dc1a50c1fdf93db5ecb56590ed5d2ee87c2933d12947260405160405180910390a36002600581111561238757612386614d9d565b5b8360e0019060ff16908160ff168152505082602001517f753d21093098ac8652616bb7075372e7b26e940ae47204d3226b698bd5efa4a984608001516040516123d091906145ed565b60405180910390a2600160009054906101000a900473ffffffffffffffffffffffffffffffffffffffff1673ffffffffffffffffffffffffffffffffffffffff16632e7166596124e484600160009054906101000a900473ffffffffffffffffffffffffffffffffffffffff1673ffffffffffffffffffffffffffffffffffffffff1663dafb76826040518163ffffffff167c010000000000000000000000000000000000000000000000000000000002815260040160206040518083038186803b15801561249e57600080fd5b505afa1580156124b2573d6000803e3d6000fd5b505050506040513d601f19601f820116820180604052508101906124d69190613d15565b612c7390919063ffffffff16565b6040518263ffffffff167c010000000000000000000000000000000000000000000000000000000002815260040161251c91906145ed565b600060405180830381600087803b15801561253657600080fd5b505af115801561254a573d6000803e3d6000fd5b50505050600160009054906101000a900473ffffffffffffffffffffffffffffffffffffffff1673ffffffffffffffffffffffffffffffffffffffff1663527c472e846040518263ffffffff167c01000000000000000000000000000000000000000000000000000000000281526004016125c59190614517565b602060405180830381600087803b1580156125df57600080fd5b505af11580156125f3573d6000803e3d6000fd5b505050506040513d601f19601f820116820180604052508101906126179190613bfc565b50600160009054906101000a900473ffffffffffffffffffffffffffffffffffffffff1673ffffffffffffffffffffffffffffffffffffffff1663203a6bfd856040518060400160405280600581526020017f424554454500000000000000000000000000000000000000000000000000000081525073__ConversionUtil________________________635e57966d336040518263ffffffff167c01000000000000000000000000000000000000000000000000000000000281526004016126e09190614242565b60006040518083038186803b1580156126f857600080fd5b505af415801561270c573d6000803e3d6000fd5b505050506040513d6000823e3d601f19601f820116820180604052508101906127359190613c56565b6040518463ffffffff167c010000000000000000000000000000000000000000000000000000000002815260040161276f93929190614330565b602060405180830381600087803b15801561278957600080fd5b505af115801561279d573d6000803e3d6000fd5b505050506040513d601f19601f820116820180604052508101906127c19190613bfc565b50600160009054906101000a900473ffffffffffffffffffffffffffffffffffffffff1673ffffffffffffffffffffffffffffffffffffffff1663b5fa4af73385602001516040518363ffffffff167c010000000000000000000000000000000000000000000000000000000002815260040161283f929190614278565b600060405180830381600087803b15801561285957600080fd5b505af115801561286d573d6000803e3d6000fd5b5050505060018081111561288457612883614d9d565b5b60ff168360a0015160ff1614156129665760008060006128a78660800151612b4b565b505050925092509250600160009054906101000a900473ffffffffffffffffffffffffffffffffffffffff1673ffffffffffffffffffffffffffffffffffffffff16636604aa1e84848460008c6040518663ffffffff167c0100000000000000000000000000000000000000000000000000000000028152600401612930959493929190614539565b600060405180830381600087803b15801561294a57600080fd5b505af115801561295e573d6000803e3d6000fd5b505050505050505b50505050565b612974612b2d565b73ffffffffffffffffffffffffffffffffffffffff16612992611d75565b73ffffffffffffffffffffffffffffffffffffffff16146129e8576040517f08c379a00000000000000000000000000000000000000000000000000000000081526004016129df90614477565b60405180910390fd5b600073ffffffffffffffffffffffffffffffffffffffff168173ffffffffffffffffffffffffffffffffffffffff161415612a58576040517f08c379a0000000000000000000000000000000000000000000000000000000008152600401612a4f906143b7565b60405180910390fd5b612a618161352c565b50565b612a6c612b2d565b73ffffffffffffffffffffffffffffffffffffffff16612a8a611d75565b73ffffffffffffffffffffffffffffffffffffffff1614612ae0576040517f08c379a0000000000000000000000000000000000000000000000000000000008152600401612ad790614477565b60405180910390fd5b60648111612b23576040517f08c379a0000000000000000000000000000000000000000000000000000000008152600401612b1a906143d7565b60405180910390fd5b8060028190555050565b600033905090565b60008183612b439190614b55565b905092915050565b600080600080600080612b6b6201518088612b66919061489d565b613693565b80965081975082985050505060006201518088612b889190614d0e565b9050610e1081612b98919061489d565b9350610e1081612ba89190614d0e565b9050603c81612bb7919061489d565b9250603c81612bc69190614d0e565b91505091939550919395565b612bda611c51565b612c19576040517f08c379a0000000000000000000000000000000000000000000000000000000008152600401612c1090614397565b60405180910390fd5b60008060146101000a81548160ff0219169083151502179055507f5db9ee0a495bf2e6ff9c91a7834c1ba4fdd244a5e8aa4e537bd38aeae4b073aa612c5c612b2d565b604051612c69919061425d565b60405180910390a1565b60008183612c8191906147a6565b905092915050565b600080829050600080806000600290505b602a8110156130085761010084612cb191906149e5565b9350848181518110612cc657612cc5614dcc565b5b60200101517f010000000000000000000000000000000000000000000000000000000000000090047f0100000000000000000000000000000000000000000000000000000000000000027f0100000000000000000000000000000000000000000000000000000000000000900460ff16925084600182612d4691906147a6565b81518110612d5757612d56614dcc565b5b60200101517f010000000000000000000000000000000000000000000000000000000000000090047f0100000000000000000000000000000000000000000000000000000000000000027f0100000000000000000000000000000000000000000000000000000000000000900460ff16915060618373ffffffffffffffffffffffffffffffffffffffff1610158015612e07575060668373ffffffffffffffffffffffffffffffffffffffff1611155b15612e2057605783612e199190614b21565b9250612ecc565b60418373ffffffffffffffffffffffffffffffffffffffff1610158015612e5e575060468373ffffffffffffffffffffffffffffffffffffffff1611155b15612e7757603783612e709190614b21565b9250612ecb565b60308373ffffffffffffffffffffffffffffffffffffffff1610158015612eb5575060398373ffffffffffffffffffffffffffffffffffffffff1611155b15612eca57603083612ec79190614b21565b92505b5b5b60618273ffffffffffffffffffffffffffffffffffffffff1610158015612f0a575060668273ffffffffffffffffffffffffffffffffffffffff1611155b15612f2357605782612f1c9190614b21565b9150612fcf565b60418273ffffffffffffffffffffffffffffffffffffffff1610158015612f61575060468273ffffffffffffffffffffffffffffffffffffffff1611155b15612f7a57603782612f739190614b21565b9150612fce565b60308273ffffffffffffffffffffffffffffffffffffffff1610158015612fb8575060398273ffffffffffffffffffffffffffffffffffffffff1611155b15612fcd57603082612fca9190614b21565b91505b5b5b81601084612fdd91906149e5565b612fe7919061475c565b84612ff2919061475c565b935060028161300191906147a6565b9050612c9a565b5082945050505050919050565b6000600160009054906101000a900473ffffffffffffffffffffffffffffffffffffffff1673ffffffffffffffffffffffffffffffffffffffff1663837fbbec6040518163ffffffff167c010000000000000000000000000000000000000000000000000000000002815260040160206040518083038186803b15801561309b57600080fd5b505afa1580156130af573d6000803e3d6000fd5b505050506040513d601f19601f820116820180604052508101906130d39190613d15565b600160009054906101000a900473ffffffffffffffffffffffffffffffffffffffff1673ffffffffffffffffffffffffffffffffffffffff166315a54a646040518163ffffffff167c010000000000000000000000000000000000000000000000000000000002815260040160206040518083038186803b15801561315757600080fd5b505afa15801561316b573d6000803e3d6000fd5b505050506040513d601f19601f8201168201806040525081019061318f9190613d15565b1015905090565b600080600160009054906101000a900473ffffffffffffffffffffffffffffffffffffffff1673ffffffffffffffffffffffffffffffffffffffff1663dafb76826040518163ffffffff167c010000000000000000000000000000000000000000000000000000000002815260040160206040518083038186803b15801561321d57600080fd5b505afa158015613231573d6000803e3d6000fd5b505050506040513d601f19601f820116820180604052508101906132559190613d15565b9050613262612710613832565b811015613276576359682f00915050613381565b613282620186a0613832565b81101561329657631bb75640915050613381565b6132a2620f4240613832565b8110156132b6576308978df0915050613381565b6132c262989680613832565b8110156132d6576302a9dab0915050613381565b6132e36305f5e100613832565b8110156132f65762d35d60915050613381565b613303633b9aca00613832565b8110156133165762418570915050613381565b6133246402540be400613832565b8110156133375762144f38915050613381565b61334564174876e800613832565b8110156133585762064960915050613381565b61336664e8d4a51000613832565b811015613379576201f018915050613381565b620186a09150505b90565b606060008214156133cc576040518060400160405280600181526020017f30000000000000000000000000000000000000000000000000000000000000008152509050613527565b600082905060005b600082146133fe5780806133e790614c97565b915050600a826133f7919061489d565b91506133d4565b60008167ffffffffffffffff81111561341a57613419614dfb565b5b6040519080825280601f01601f19166020018201604052801561344c5781602001600182028036833780820191505090505b50905060008290505b6000861461351f5760018161346a9190614b55565b90506000600a808861347c919061489d565b6134869190614a33565b876134919190614b55565b603061349d91906147fc565b90506000817f0100000000000000000000000000000000000000000000000000000000000000029050808484815181106134da576134d9614dcc565b5b60200101907effffffffffffffffffffffffffffffffffffffffffffffffffffffffffffff1916908160001a905350600a88613516919061489d565b97505050613455565b819450505050505b919050565b60008060009054906101000a900473ffffffffffffffffffffffffffffffffffffffff169050816000806101000a81548173ffffffffffffffffffffffffffffffffffffffff021916908373ffffffffffffffffffffffffffffffffffffffff1602179055508173ffffffffffffffffffffffffffffffffffffffff168173ffffffffffffffffffffffffffffffffffffffff167f8be0079c531659141344cd1fd0a4f28419497f9722a3daafe3b4186f6b6457e060405160405180910390a35050565b6135f8611c51565b15613638576040517f08c379a000000000000000000000000000000000000000000000000000000000815260040161362f906143f7565b60405180910390fd5b6001600060146101000a81548160ff0219169083151502179055507f62e78cea01bee320cd4e420270b5ea74000d11b0c9f74754ebdbfc544b05a25861367c612b2d565b604051613689919061425d565b60405180910390a1565b600080600080849050600062253d8c62010bd9836136b191906146c8565b6136bb91906146c8565b9050600062023ab18260046136d091906148ce565b6136da9190614833565b9050600460038262023ab16136ef91906148ce565b6136f991906146c8565b6137039190614833565b8261370e9190614a8d565b9150600062164b0960018461372391906146c8565b610fa061373091906148ce565b61373a9190614833565b9050601f6004826105b561374e91906148ce565b6137589190614833565b846137639190614a8d565b61376d91906146c8565b9250600061098f84605061378191906148ce565b61378b9190614833565b9050600060508261098f61379f91906148ce565b6137a99190614833565b856137b49190614a8d565b9050600b826137c39190614833565b945084600c6137d291906148ce565b6002836137df91906146c8565b6137e99190614a8d565b915084836031866137fa9190614a8d565b606461380691906148ce565b61381091906146c8565b61381a91906146c8565b92508298508197508096505050505050509193909250565b6000670de0b6b3a7640000826138489190614a33565b9050919050565b600061386261385d8461462d565b614608565b9050808382526020820190508285602086028201111561388557613884614e39565b5b60005b858110156138d357813567ffffffffffffffff8111156138ab576138aa614e2a565b5b8086016138b889826139f8565b85526020850194506020840193505050600181019050613888565b5050509392505050565b60006138f06138eb84614659565b614608565b90508281526020810184848401111561390c5761390b614e3e565b5b613917848285614c24565b509392505050565b600061393261392d84614659565b614608565b90508281526020810184848401111561394e5761394d614e3e565b5b613959848285614c33565b509392505050565b60008135905061397081615193565b92915050565b60008151905061398581615193565b92915050565b600082601f8301126139a05761399f614e2a565b5b81356139b084826020860161384f565b91505092915050565b6000815190506139c8816151aa565b92915050565b6000813590506139dd816151c1565b92915050565b6000815190506139f2816151c1565b92915050565b600082601f830112613a0d57613a0c614e2a565b5b8135613a1d8482602086016138dd565b91505092915050565b600082601f830112613a3b57613a3a614e2a565b5b8151613a4b84826020860161391f565b91505092915050565b60006101408284031215613a6b57613a6a614e2f565b5b613a76610140614608565b90506000613a8684828501613b66565b6000830152506020613a9a848285016139e3565b6020830152506040613aae84828501613976565b604083015250606082015167ffffffffffffffff811115613ad257613ad1614e34565b5b613ade84828501613a26565b6060830152506080613af284828501613b90565b60808301525060a0613b0684828501613bba565b60a08301525060c0613b1a84828501613bba565b60c08301525060e0613b2e84828501613bba565b60e083015250610100613b4384828501613b90565b61010083015250610120613b5984828501613b90565b6101208301525092915050565b600081519050613b75816151d8565b92915050565b600081359050613b8a816151ef565b92915050565b600081519050613b9f816151ef565b92915050565b600081359050613bb481615206565b92915050565b600081519050613bc981615206565b92915050565b600060208284031215613be557613be4614e48565b5b6000613bf384828501613961565b91505092915050565b600060208284031215613c1257613c11614e48565b5b6000613c20848285016139b9565b91505092915050565b600060208284031215613c3f57613c3e614e48565b5b6000613c4d848285016139ce565b91505092915050565b600060208284031215613c6c57613c6b614e48565b5b600082015167ffffffffffffffff811115613c8a57613c89614e43565b5b613c9684828501613a26565b91505092915050565b600060208284031215613cb557613cb4614e48565b5b600082015167ffffffffffffffff811115613cd357613cd2614e43565b5b613cdf84828501613a54565b91505092915050565b600060208284031215613cfe57613cfd614e48565b5b6000613d0c84828501613b7b565b91505092915050565b600060208284031215613d2b57613d2a614e48565b5b6000613d3984828501613b90565b91505092915050565b60008060008060008060c08789031215613d5f57613d5e614e48565b5b6000613d6d89828a01613b7b565b9650506020613d7e89828a01613b7b565b9550506040613d8f89828a01613b7b565b9450506060613da089828a01613ba5565b9350506080613db189828a01613ba5565b92505060a087013567ffffffffffffffff811115613dd257613dd1614e43565b5b613dde89828a0161398b565b9150509295509295509295565b613df481614b89565b82525050565b613e0381614b89565b82525050565b613e1281614b89565b82525050565b613e29613e2482614b89565b614ce0565b82525050565b613e3881614b9b565b82525050565b613e4781614ba7565b82525050565b613e5681614ba7565b82525050565b613e6581614c00565b82525050565b613e7481614c12565b82525050565b6000613e858261468a565b613e8f8185614695565b9350613e9f818560208601614c33565b613ea881614e4d565b840191505092915050565b6000613ebe8261468a565b613ec881856146a6565b9350613ed8818560208601614c33565b613ee181614e4d565b840191505092915050565b6000613ef78261468a565b613f0181856146b7565b9350613f11818560208601614c33565b613f1a81614e4d565b840191505092915050565b6000613f326014836146a6565b9150613f3d82614e77565b602082019050919050565b6000613f556026836146a6565b9150613f6082614ea0565b604082019050919050565b6000613f78600f836146a6565b9150613f8382614eef565b602082019050919050565b6000613f9b6010836146a6565b9150613fa682614f18565b602082019050919050565b6000613fbe6027836146a6565b9150613fc982614f41565b604082019050919050565b6000613fe16023836146a6565b9150613fec82614f90565b604082019050919050565b6000614004602e836146a6565b915061400f82614fdf565b604082019050919050565b60006140276020836146a6565b91506140328261502e565b602082019050919050565b600061404a602c836146a6565b915061405582615057565b604082019050919050565b600061406d6025836146a6565b9150614078826150a6565b604082019050919050565b60006140906024836146a6565b915061409b826150f5565b604082019050919050565b60006140b36028836146a6565b91506140be82615144565b604082019050919050565b6000610140830160008301516140e260008601826141a3565b5060208301516140f56020860182613e3e565b5060408301516141086040860182613deb565b50606083015184820360608601526141208282613e7a565b915050608083015161413560808601826141c1565b5060a083015161414860a08601826141f6565b5060c083015161415b60c08601826141f6565b5060e083015161416e60e08601826141f6565b506101008301516141836101008601826141c1565b506101208301516141986101208601826141c1565b508091505092915050565b6141ac81614bbb565b82525050565b6141bb81614bbb565b82525050565b6141ca81614be9565b82525050565b6141d981614be9565b82525050565b6141f06141eb82614be9565b614d04565b82525050565b6141ff81614bf3565b82525050565b60006142118286613e18565b60148201915061422182856141df565b60208201915061423182846141df565b602082019150819050949350505050565b60006020820190506142576000830184613e09565b92915050565b60006020820190506142726000830184613dfa565b92915050565b600060408201905061428d6000830185613dfa565b61429a6020830184613e4d565b9392505050565b60006040820190506142b66000830185613dfa565b6142c360208301846141d0565b9392505050565b60006020820190506142df6000830184613e2f565b92915050565b60006020820190506142fa6000830184613e4d565b92915050565b60006040820190506143156000830185613e4d565b81810360208301526143278184613eb3565b90509392505050565b60006060820190506143456000830186613e4d565b81810360208301526143578185613eb3565b9050818103604083015261436b8184613eb3565b9050949350505050565b6000602082019050818103600083015261438f8184613eec565b905092915050565b600060208201905081810360008301526143b081613f25565b9050919050565b600060208201905081810360008301526143d081613f48565b9050919050565b600060208201905081810360008301526143f081613f6b565b9050919050565b6000602082019050818103600083015261441081613f8e565b9050919050565b6000602082019050818103600083015261443081613fb1565b9050919050565b6000602082019050818103600083015261445081613fd4565b9050919050565b6000602082019050818103600083015261447081613ff7565b9050919050565b600060208201905081810360008301526144908161401a565b9050919050565b600060208201905081810360008301526144b08161403d565b9050919050565b600060208201905081810360008301526144d081614060565b9050919050565b600060208201905081810360008301526144f081614083565b9050919050565b60006020820190508181036000830152614510816140a6565b9050919050565b6000602082019050818103600083015261453181846140c9565b905092915050565b600060a08201905061454e60008301886141b2565b61455b60208301876141b2565b61456860408301866141b2565b6145756060830185613e5c565b6145826080830184613e4d565b9695505050505050565b600060c0820190506145a160008301896141b2565b6145ae60208301886141b2565b6145bb60408301876141b2565b6145c86060830186613e5c565b6145d56080830185613e4d565b6145e260a0830184613e6b565b979650505050505050565b600060208201905061460260008301846141d0565b92915050565b6000614612614623565b905061461e8282614c66565b919050565b6000604051905090565b600067ffffffffffffffff82111561464857614647614dfb565b5b602082029050602081019050919050565b600067ffffffffffffffff82111561467457614673614dfb565b5b61467d82614e4d565b9050602081019050919050565b600081519050919050565b600082825260208201905092915050565b600082825260208201905092915050565b600082825260208201905092915050565b60006146d382614bb1565b91506146de83614bb1565b9250817f7fffffffffffffffffffffffffffffffffffffffffffffffffffffffffffffff0383136000831215161561471957614718614d3f565b5b817f800000000000000000000000000000000000000000000000000000000000000003831260008312161561475157614750614d3f565b5b828201905092915050565b600061476782614bc9565b915061477283614bc9565b92508273ffffffffffffffffffffffffffffffffffffffff0382111561479b5761479a614d3f565b5b828201905092915050565b60006147b182614be9565b91506147bc83614be9565b9250827fffffffffffffffffffffffffffffffffffffffffffffffffffffffffffffffff038211156147f1576147f0614d3f565b5b828201905092915050565b600061480782614bf3565b915061481283614bf3565b92508260ff0382111561482857614827614d3f565b5b828201905092915050565b600061483e82614bb1565b915061484983614bb1565b92508261485957614858614d6e565b5b600160000383147f80000000000000000000000000000000000000000000000000000000000000008314161561489257614891614d3f565b5b828205905092915050565b60006148a882614be9565b91506148b383614be9565b9250826148c3576148c2614d6e565b5b828204905092915050565b60006148d982614bb1565b91506148e483614bb1565b9250827f7fffffffffffffffffffffffffffffffffffffffffffffffffffffffffffffff048211600084136000841316161561492357614922614d3f565b5b817f800000000000000000000000000000000000000000000000000000000000000005831260008412600084131616156149605761495f614d3f565b5b827f8000000000000000000000000000000000000000000000000000000000000000058212600084136000841216161561499d5761499c614d3f565b5b827f7fffffffffffffffffffffffffffffffffffffffffffffffffffffffffffffff05821260008412600084121616156149da576149d9614d3f565b5b828202905092915050565b60006149f082614bc9565b91506149fb83614bc9565b92508173ffffffffffffffffffffffffffffffffffffffff0483118215151615614a2857614a27614d3f565b5b828202905092915050565b6000614a3e82614be9565b9150614a4983614be9565b9250817fffffffffffffffffffffffffffffffffffffffffffffffffffffffffffffffff0483118215151615614a8257614a81614d3f565b5b828202905092915050565b6000614a9882614bb1565b9150614aa383614bb1565b9250827f800000000000000000000000000000000000000000000000000000000000000001821260008412151615614ade57614add614d3f565b5b827f7fffffffffffffffffffffffffffffffffffffffffffffffffffffffffffffff018213600084121615614b1657614b15614d3f565b5b828203905092915050565b6000614b2c82614bc9565b9150614b3783614bc9565b925082821015614b4a57614b49614d3f565b5b828203905092915050565b6000614b6082614be9565b9150614b6b83614be9565b925082821015614b7e57614b7d614d3f565b5b828203905092915050565b6000614b9482614bc9565b9050919050565b60008115159050919050565b6000819050919050565b6000819050919050565b600061ffff82169050919050565b600073ffffffffffffffffffffffffffffffffffffffff82169050919050565b6000819050919050565b600060ff82169050919050565b6000614c0b82614bbb565b9050919050565b6000614c1d82614be9565b9050919050565b82818337600083830152505050565b60005b83811015614c51578082015181840152602081019050614c36565b83811115614c60576000848401525b50505050565b614c6f82614e4d565b810181811067ffffffffffffffff82111715614c8e57614c8d614dfb565b5b80604052505050565b6000614ca282614be9565b91507fffffffffffffffffffffffffffffffffffffffffffffffffffffffffffffffff821415614cd557614cd4614d3f565b5b600182019050919050565b6000614ceb82614cf2565b9050919050565b6000614cfd82614e5e565b9050919050565b6000819050919050565b6000614d1982614be9565b9150614d2483614be9565b925082614d3457614d33614d6e565b5b828206905092915050565b7f4e487b7100000000000000000000000000000000000000000000000000000000600052601160045260246000fd5b7f4e487b7100000000000000000000000000000000000000000000000000000000600052601260045260246000fd5b7f4e487b7100000000000000000000000000000000000000000000000000000000600052602160045260246000fd5b7f4e487b7100000000000000000000000000000000000000000000000000000000600052603260045260246000fd5b7f4e487b7100000000000000000000000000000000000000000000000000000000600052604160045260246000fd5b600080fd5b600080fd5b600080fd5b600080fd5b600080fd5b600080fd5b600080fd5b6000601f19601f8301169050919050565b60006c0100000000000000000000000082029050919050565b7f5061757361626c653a206e6f7420706175736564000000000000000000000000600082015250565b7f4f776e61626c653a206e6577206f776e657220697320746865207a65726f206160008201527f6464726573730000000000000000000000000000000000000000000000000000602082015250565b7f5468697320697320746f6f206c6f770000000000000000000000000000000000600082015250565b7f5061757361626c653a2070617573656400000000000000000000000000000000600082015250565b7f496e73756666696369656e742062616c616e636520746f20706c61636520746860008201527f6973206265742e00000000000000000000000000000000000000000000000000602082015250565b7f5374617475732073686f756c6420626520696e2063726561746564207374617460008201527f75732e0000000000000000000000000000000000000000000000000000000000602082015250565b7f4576656e742074696d65206861732070617373656420746875732063616e6e6f60008201527f742062652061636365707465642e000000000000000000000000000000000000602082015250565b7f4f776e61626c653a2063616c6c6572206973206e6f7420746865206f776e6572600082015250565b7f43726561746f722063616e6e6f74206f6e6c792063616e63656c206e6f74206160008201527f63636570746564206265742e0000000000000000000000000000000000000000602082015250565b7f43726561746f722063616e6e6f74206f6e6c792063616e63656c20746865697260008201527f206265742e000000000000000000000000000000000000000000000000000000602082015250565b7f43726561746f722063616e6e6f7420616363657074207468656972206f776e2060008201527f6265742e00000000000000000000000000000000000000000000000000000000602082015250565b7f496e73756666696369656e742062616c616e636520746f20616363657074207460008201527f686973206265742e000000000000000000000000000000000000000000000000602082015250565b61519c81614b89565b81146151a757600080fd5b50565b6151b381614b9b565b81146151be57600080fd5b50565b6151ca81614ba7565b81146151d557600080fd5b50565b6151e181614bbb565b81146151ec57600080fd5b50565b6151f881614be9565b811461520357600080fd5b50565b61520f81614bf3565b811461521a57600080fd5b5056fea2646970667358221220527754474db868111522818c148b4b2b66463a1031ab68d6f6465ec6fbd2a03864736f6c63430008060033","immutableReferences":{},"source":"// SPDX-License-Identifier: MIT\r\npragma solidity >=0.8.6 <0.9.0;\r\n\r\nimport \"@openzeppelin/contracts/access/Ownable.sol\";\r\nimport \"@openzeppelin/contracts/security/Pausable.sol\";\r\nimport \"@openzeppelin/contracts/utils/math/SafeMath.sol\";\r\nimport \"./IBetData.sol\";\r\nimport { Lib, DateTime, ConversionUtil } from \"./Lib.sol\";\r\n\r\ncontract IBetBettingV1 is Ownable, Pausable {\r\n   using SafeMath for uint256;\r\n\r\n   enum BetVersion {\r\n      V1\r\n   }\r\n\r\n   IBetData private sureBetData;\r\n\r\n   event BetCreated(bytes32 indexed betKey, uint indexed betType, address indexed betor, uint256 amount);\r\n\r\n   event BetAccepted(bytes32 indexed betKey, address indexed acceptor);\r\n\r\n   event BetCancelled(bytes32 indexed betKey, address indexed sender);\r\n\r\n   event BetAwaitingArbitration(bytes32 indexed betKey, uint eventTime);\r\n\r\n   // 5% * 100000\r\n   uint256 private stakePercentRequired = 500000;\r\n\r\n   // 0.35%\r\n   uint256 private postExhaustionArbitratorCommissionPercent = 35000;\r\n\r\n   constructor(address sureBetDataContract)\r\n   {\r\n      sureBetData = IBetData(sureBetDataContract);\r\n   }\r\n\r\n   function UpdateStakePercentRequired(uint256 inputStakePercentRequired) public onlyOwner\r\n   {\r\n      require(inputStakePercentRequired > 100, \"This is too low\");\r\n      stakePercentRequired = inputStakePercentRequired;\r\n   }\r\n\r\n   function UpdateArbitratorCommissionPercent(uint256 inputArbitratorCommissionPercent) public onlyOwner\r\n   {\r\n      require(inputArbitratorCommissionPercent > 100, \"This is too low\");\r\n      postExhaustionArbitratorCommissionPercent = inputArbitratorCommissionPercent;\r\n   }\r\n\r\n   function createBet(uint256 timestamp, uint256 amount, uint256 eventTime,\r\n   uint8 betType,\r\n   uint8 arbitrationType,\r\n   string[] memory properties\r\n   )\r\n   public\r\n   {\r\n      require(sureBetData.getBalanceOf(msg.sender) >= amount, \"Insufficient balance to place this bet.\");\r\n      //properties\r\n      // properties[0] = string memory eventText,\r\n      // properties[1] = string memory winScenario,\r\n      // properties[2] = string memory loseScenario,\r\n      // properties[3] = string memory cancelScenario,\r\n      // properties[4] = string memory arbitratorName\r\n      bytes32 betKey = keccak256(abi.encodePacked(msg.sender, amount, timestamp));\r\n      sureBetData.transferToEscrow(msg.sender, amount);\r\n\r\n      Lib.Bet memory bet = Lib.Bet(uint16(BetVersion.V1),\r\n      betKey,\r\n      msg.sender,\r\n      properties[0],\r\n      eventTime,\r\n      betType,\r\n      arbitrationType,\r\n      uint8(Lib.BetStatus.CREATED),\r\n      amount,\r\n      amount);\r\n\r\n      sureBetData.saveBet(bet);\r\n\r\n      sureBetData.saveBetProperty(betKey, Lib.PROPERTIES_WIN_SCENARIO, properties[1]);\r\n      sureBetData.saveBetProperty(betKey, Lib.PROPERTIES_LOSE_SCENARIO, properties[2]);\r\n      sureBetData.saveBetProperty(betKey, Lib.PROPERTIES_CANCEL_SCENARIO, properties[3]);\r\n      sureBetData.saveBetProperty(betKey, Lib.PROPERTIES_BET_AGAINST_AMOUNT, properties[5]);\r\n      sureBetData.safeAddBetsToAddress(bet.creator, bet.betKey);\r\n      sureBetData.updateTotalBetSoFar(sureBetData.getTotalBetSoFar().add(amount));\r\n\r\n      if(arbitrationType == uint8(Lib.ArbitrationType.PRIVATE))\r\n      {\r\n         sureBetData.saveBetProperty(betKey, Lib.PROPERTIES_ARBITRATOR, properties[6]);\r\n         sureBetData.saveBetProperty(betKey, Lib.PROPERTIES_ARBITRATORNAME, properties[4]);\r\n         sureBetData.saveBetProperty(betKey, Lib.PROPERTIES_ARBITRATOR_COMMISSION, properties[7]);\r\n         sureBetData.safeAddBetsToAddress(ConversionUtil.stringToAddress(properties[6]), bet.betKey);\r\n      }\r\n      if(betType == uint8(Lib.BetType.PUBLIC))\r\n      {\r\n         if(isServiceTokensExhausted() == false)\r\n         {\r\n            uint256 arbitratorCommissionPercent = calculatePublicArbitrationCommissionPercent();\r\n            sureBetData.saveBetProperty(betKey, Lib.PROPERTIES_ARBITRATOR_COMMISSION, ConversionUtil.uintToString(arbitratorCommissionPercent));\r\n         }else{\r\n            sureBetData.saveBetProperty(betKey, Lib.PROPERTIES_ARBITRATOR_COMMISSION,  ConversionUtil.uintToString(postExhaustionArbitratorCommissionPercent));\r\n         }\r\n         sureBetData.saveBetProperty(betKey, Lib.PROPERTIES_STAKE_PERCENT_REQUIRED, ConversionUtil.uintToString(stakePercentRequired));\r\n         (uint256 year, uint256 month, uint256 day, ,,) = DateTime.timestampToDateTime(bet.eventTime);\r\n         sureBetData.addOpenBetByValue(uint16(year), uint16(month), uint16(day), 0, betKey, 1);\r\n      }\r\n      emit BetCreated(betKey, betType,  msg.sender, amount);\r\n   }\r\n\r\n   function isServiceTokensExhausted() internal view returns (bool) {\r\n      return sureBetData.getServiceTokensDisbursedCount() >= sureBetData.getMaxServiceTokensCount();\r\n   }\r\n\r\n   function acceptBet(bytes32 betKey) public {\r\n\r\n   Lib.Bet memory bet = sureBetData.getBet(betKey);\r\n   require(bet.status == uint8(Lib.BetStatus.CREATED),\"Status should be in created status.\");\r\n   require(bet.creator != msg.sender, \"Creator cannot accept their own bet.\");\r\n   require(block.timestamp < bet.eventTime, \"Event time has passed thus cannot be accepted.\");\r\n\r\n   uint256 betAgainstAmount = ConversionUtil.stringToUint(sureBetData.getBetProperty(betKey, Lib.PROPERTIES_BET_AGAINST_AMOUNT));\r\n   require(sureBetData.getBalanceOf(msg.sender) >= betAgainstAmount, \"Insufficient balance to accept this bet.\");\r\n   uint256 newEscrowBalance = bet.escrowBalance.add(betAgainstAmount);\r\n   sureBetData.transferToEscrow(msg.sender, betAgainstAmount);\r\n   bet.escrowBalance = newEscrowBalance;\r\n   \r\n   emit BetAccepted(bet.betKey, msg.sender);\r\n\r\n   bet.status = uint8(Lib.BetStatus.WAITINGARBITRATION);\r\n   emit BetAwaitingArbitration(bet.betKey, bet.eventTime);\r\n   sureBetData.updateTotalBetSoFar(sureBetData.getTotalBetSoFar().add(betAgainstAmount));\r\n   sureBetData.saveBet(bet);\r\n   sureBetData.saveBetProperty(betKey, Lib.PROPERTIES_BETEE, ConversionUtil.addressToString(msg.sender));\r\n   sureBetData.safeAddBetsToAddress(msg.sender, bet.betKey);\r\n   if(bet.betType == uint8(Lib.BetType.PUBLIC)){\r\n      (uint256 year, uint256 month, uint256 day,,,) = DateTime.timestampToDateTime(bet.eventTime);\r\n      sureBetData.removeOpenBetByValue(uint16(year), uint16(month), uint16(day), 0, betKey);\r\n   }\r\n   }\r\n\r\n   function cancelBet(bytes32 betKey) public {\r\n   Lib.Bet memory bet = sureBetData.getBet(betKey);\r\n   require(bet.creator == msg.sender, \"Creator cannot only cancel their bet.\");\r\n   require(bet.status == uint8(Lib.BetStatus.CREATED), \"Creator cannot only cancel not accepted bet.\");\r\n   uint256 amountToBeTransferredBack = bet.escrowBalance;\r\n   bet.escrowBalance = 0;\r\n   bet.status = uint8(Lib.BetStatus.CANCELLED);\r\n   sureBetData.updateTotalBetSoFar(sureBetData.getTotalBetSoFar().sub(bet.amount));\r\n   sureBetData.saveBet(bet);\r\n\r\n   if(bet.betType == uint8(Lib.BetType.PUBLIC)){\r\n      (uint256 year, uint256 month, uint256 day,,,) = DateTime.timestampToDateTime(bet.eventTime);\r\n      sureBetData.removeOpenBetByValue(uint16(year), uint16(month), uint16(day), 0, betKey);\r\n   }\r\n\r\n   sureBetData.transferToEscrow(msg.sender, amountToBeTransferredBack);\r\n   emit BetCancelled(bet.betKey, msg.sender);\r\n\r\n   }\r\n\r\n   function calculatePublicArbitrationCommissionPercent() internal view returns (uint256){\r\n      uint256 totalBetSoFar = sureBetData.getTotalBetSoFar();\r\n      // 15000*POWER((1-0.69),A1) starts off with 15000% and decay rate of 0.69 or 69% with every 10 multiplier\r\n      if(totalBetSoFar < Lib.ibetTokenWithFullDecimals(10000)) return 15000.00 * 100000;\r\n      if(totalBetSoFar < Lib.ibetTokenWithFullDecimals(100000)) return 4650.00 * 100000;\r\n      if(totalBetSoFar < Lib.ibetTokenWithFullDecimals(1000000)) return 1441.50 * 100000;\r\n      if(totalBetSoFar < Lib.ibetTokenWithFullDecimals(10000000)) return 446.86 * 100000;\r\n      if(totalBetSoFar < Lib.ibetTokenWithFullDecimals(100000000)) return 138.52 * 100000;\r\n      if(totalBetSoFar < Lib.ibetTokenWithFullDecimals(1000000000)) return 42.94 * 100000;\r\n      if(totalBetSoFar < Lib.ibetTokenWithFullDecimals(10000000000)) return 13.31 * 100000;\r\n      if(totalBetSoFar < Lib.ibetTokenWithFullDecimals(100000000000)) return 4.12 * 100000;\r\n      if(totalBetSoFar < Lib.ibetTokenWithFullDecimals(1000000000000)) return 1.27 * 100000;\r\n      return 1.00 * 100000;\r\n   }\r\n\r\n   function pause() public onlyOwner {\r\n   _pause();\r\n}\r\n\r\n   function unpause() public onlyOwner {\r\n   _unpause();\r\n}\r\n}","sourcePath":"D:\\eberrysoftwares\\ibettoken\\contracts\\IBetBettingV1.sol","compiler":{"name":"solc","version":"0.8.6+commit.11564f7e.Emscripten.clang"},"schemaVersion":"3.4.2","updatedAt":"2021-08-28T02:50:48.093Z","devdoc":{"kind":"dev","methods":{"owner()":{"details":"Returns the address of the current owner."},"paused()":{"details":"Returns true if the contract is paused, and false otherwise."},"renounceOwnership()":{"details":"Leaves the contract without owner. It will not be possible to call `onlyOwner` functions anymore. Can only be called by the current owner. NOTE: Renouncing ownership will leave the contract without an owner, thereby removing any functionality that is only available to the owner."},"transferOwnership(address)":{"details":"Transfers ownership of the contract to a new account (`newOwner`). Can only be called by the current owner."}},"version":1},"userdoc":{"kind":"user","methods":{},"version":1}}