{
  "contractName": "IBet",
  "abi": [
    {
      "inputs": [],
      "stateMutability": "nonpayable",
      "type": "constructor"
    },
    {
      "anonymous": false,
      "inputs": [
        {
          "indexed": true,
          "internalType": "address",
          "name": "owner",
          "type": "address"
        },
        {
          "indexed": true,
          "internalType": "address",
          "name": "spender",
          "type": "address"
        },
        {
          "indexed": false,
          "internalType": "uint256",
          "name": "value",
          "type": "uint256"
        }
      ],
      "name": "Approval",
      "type": "event"
    },
    {
      "anonymous": false,
      "inputs": [
        {
          "indexed": true,
          "internalType": "address",
          "name": "previousOwner",
          "type": "address"
        },
        {
          "indexed": true,
          "internalType": "address",
          "name": "newOwner",
          "type": "address"
        }
      ],
      "name": "OwnershipTransferred",
      "type": "event"
    },
    {
      "anonymous": false,
      "inputs": [
        {
          "indexed": false,
          "internalType": "address",
          "name": "account",
          "type": "address"
        }
      ],
      "name": "Paused",
      "type": "event"
    },
    {
      "anonymous": false,
      "inputs": [
        {
          "indexed": true,
          "internalType": "address",
          "name": "from",
          "type": "address"
        },
        {
          "indexed": true,
          "internalType": "address",
          "name": "to",
          "type": "address"
        },
        {
          "indexed": false,
          "internalType": "uint256",
          "name": "value",
          "type": "uint256"
        }
      ],
      "name": "Transfer",
      "type": "event"
    },
    {
      "anonymous": false,
      "inputs": [
        {
          "indexed": false,
          "internalType": "address",
          "name": "account",
          "type": "address"
        }
      ],
      "name": "Unpaused",
      "type": "event"
    },
    {
      "inputs": [
        {
          "internalType": "address",
          "name": "owner",
          "type": "address"
        },
        {
          "internalType": "address",
          "name": "spender",
          "type": "address"
        }
      ],
      "name": "allowance",
      "outputs": [
        {
          "internalType": "uint256",
          "name": "",
          "type": "uint256"
        }
      ],
      "stateMutability": "view",
      "type": "function",
      "constant": true
    },
    {
      "inputs": [
        {
          "internalType": "address",
          "name": "spender",
          "type": "address"
        },
        {
          "internalType": "uint256",
          "name": "amount",
          "type": "uint256"
        }
      ],
      "name": "approve",
      "outputs": [
        {
          "internalType": "bool",
          "name": "",
          "type": "bool"
        }
      ],
      "stateMutability": "nonpayable",
      "type": "function"
    },
    {
      "inputs": [
        {
          "internalType": "address",
          "name": "account",
          "type": "address"
        }
      ],
      "name": "balanceOf",
      "outputs": [
        {
          "internalType": "uint256",
          "name": "",
          "type": "uint256"
        }
      ],
      "stateMutability": "view",
      "type": "function",
      "constant": true
    },
    {
      "inputs": [],
      "name": "decimals",
      "outputs": [
        {
          "internalType": "uint8",
          "name": "",
          "type": "uint8"
        }
      ],
      "stateMutability": "view",
      "type": "function",
      "constant": true
    },
    {
      "inputs": [
        {
          "internalType": "address",
          "name": "spender",
          "type": "address"
        },
        {
          "internalType": "uint256",
          "name": "subtractedValue",
          "type": "uint256"
        }
      ],
      "name": "decreaseAllowance",
      "outputs": [
        {
          "internalType": "bool",
          "name": "",
          "type": "bool"
        }
      ],
      "stateMutability": "nonpayable",
      "type": "function"
    },
    {
      "inputs": [
        {
          "internalType": "address",
          "name": "spender",
          "type": "address"
        },
        {
          "internalType": "uint256",
          "name": "addedValue",
          "type": "uint256"
        }
      ],
      "name": "increaseAllowance",
      "outputs": [
        {
          "internalType": "bool",
          "name": "",
          "type": "bool"
        }
      ],
      "stateMutability": "nonpayable",
      "type": "function"
    },
    {
      "inputs": [],
      "name": "name",
      "outputs": [
        {
          "internalType": "string",
          "name": "",
          "type": "string"
        }
      ],
      "stateMutability": "view",
      "type": "function",
      "constant": true
    },
    {
      "inputs": [],
      "name": "owner",
      "outputs": [
        {
          "internalType": "address",
          "name": "",
          "type": "address"
        }
      ],
      "stateMutability": "view",
      "type": "function",
      "constant": true
    },
    {
      "inputs": [],
      "name": "paused",
      "outputs": [
        {
          "internalType": "bool",
          "name": "",
          "type": "bool"
        }
      ],
      "stateMutability": "view",
      "type": "function",
      "constant": true
    },
    {
      "inputs": [],
      "name": "renounceOwnership",
      "outputs": [],
      "stateMutability": "nonpayable",
      "type": "function"
    },
    {
      "inputs": [],
      "name": "symbol",
      "outputs": [
        {
          "internalType": "string",
          "name": "",
          "type": "string"
        }
      ],
      "stateMutability": "view",
      "type": "function",
      "constant": true
    },
    {
      "inputs": [],
      "name": "totalSupply",
      "outputs": [
        {
          "internalType": "uint256",
          "name": "",
          "type": "uint256"
        }
      ],
      "stateMutability": "view",
      "type": "function",
      "constant": true
    },
    {
      "inputs": [
        {
          "internalType": "address",
          "name": "sender",
          "type": "address"
        },
        {
          "internalType": "address",
          "name": "recipient",
          "type": "address"
        },
        {
          "internalType": "uint256",
          "name": "amount",
          "type": "uint256"
        }
      ],
      "name": "transferFrom",
      "outputs": [
        {
          "internalType": "bool",
          "name": "",
          "type": "bool"
        }
      ],
      "stateMutability": "nonpayable",
      "type": "function"
    },
    {
      "inputs": [
        {
          "internalType": "address",
          "name": "newOwner",
          "type": "address"
        }
      ],
      "name": "transferOwnership",
      "outputs": [],
      "stateMutability": "nonpayable",
      "type": "function"
    },
    {
      "inputs": [
        {
          "internalType": "address",
          "name": "_address",
          "type": "address"
        }
      ],
      "name": "authorizeCaller",
      "outputs": [],
      "stateMutability": "nonpayable",
      "type": "function"
    },
    {
      "inputs": [
        {
          "components": [
            {
              "internalType": "uint16",
              "name": "version",
              "type": "uint16"
            },
            {
              "internalType": "bytes32",
              "name": "betKey",
              "type": "bytes32"
            },
            {
              "internalType": "address",
              "name": "creator",
              "type": "address"
            },
            {
              "internalType": "string",
              "name": "eventText",
              "type": "string"
            },
            {
              "internalType": "uint256",
              "name": "eventTime",
              "type": "uint256"
            },
            {
              "internalType": "uint8",
              "name": "betType",
              "type": "uint8"
            },
            {
              "internalType": "uint8",
              "name": "arbitrationType",
              "type": "uint8"
            },
            {
              "internalType": "uint8",
              "name": "status",
              "type": "uint8"
            },
            {
              "internalType": "uint256",
              "name": "amount",
              "type": "uint256"
            },
            {
              "internalType": "uint256",
              "name": "escrowBalance",
              "type": "uint256"
            }
          ],
          "internalType": "struct Lib.Bet",
          "name": "bet",
          "type": "tuple"
        }
      ],
      "name": "saveBet",
      "outputs": [
        {
          "internalType": "bool",
          "name": "",
          "type": "bool"
        }
      ],
      "stateMutability": "nonpayable",
      "type": "function"
    },
    {
      "inputs": [],
      "name": "getServiceTokensDisbursedCount",
      "outputs": [
        {
          "internalType": "uint256",
          "name": "",
          "type": "uint256"
        }
      ],
      "stateMutability": "view",
      "type": "function",
      "constant": true
    },
    {
      "inputs": [],
      "name": "getMaxServiceTokensCount",
      "outputs": [
        {
          "internalType": "uint256",
          "name": "",
          "type": "uint256"
        }
      ],
      "stateMutability": "view",
      "type": "function",
      "constant": true
    },
    {
      "inputs": [
        {
          "internalType": "address",
          "name": "addr",
          "type": "address"
        },
        {
          "internalType": "bytes32",
          "name": "betKey",
          "type": "bytes32"
        }
      ],
      "name": "safeAddBetsToAddress",
      "outputs": [],
      "stateMutability": "nonpayable",
      "type": "function"
    },
    {
      "inputs": [
        {
          "internalType": "bytes32",
          "name": "betKey",
          "type": "bytes32"
        }
      ],
      "name": "getBet",
      "outputs": [
        {
          "components": [
            {
              "internalType": "uint16",
              "name": "version",
              "type": "uint16"
            },
            {
              "internalType": "bytes32",
              "name": "betKey",
              "type": "bytes32"
            },
            {
              "internalType": "address",
              "name": "creator",
              "type": "address"
            },
            {
              "internalType": "string",
              "name": "eventText",
              "type": "string"
            },
            {
              "internalType": "uint256",
              "name": "eventTime",
              "type": "uint256"
            },
            {
              "internalType": "uint8",
              "name": "betType",
              "type": "uint8"
            },
            {
              "internalType": "uint8",
              "name": "arbitrationType",
              "type": "uint8"
            },
            {
              "internalType": "uint8",
              "name": "status",
              "type": "uint8"
            },
            {
              "internalType": "uint256",
              "name": "amount",
              "type": "uint256"
            },
            {
              "internalType": "uint256",
              "name": "escrowBalance",
              "type": "uint256"
            }
          ],
          "internalType": "struct Lib.Bet",
          "name": "bet",
          "type": "tuple"
        }
      ],
      "stateMutability": "view",
      "type": "function",
      "constant": true
    },
    {
      "inputs": [
        {
          "internalType": "bytes32",
          "name": "betKey",
          "type": "bytes32"
        },
        {
          "internalType": "string",
          "name": "key",
          "type": "string"
        },
        {
          "internalType": "string",
          "name": "value",
          "type": "string"
        }
      ],
      "name": "saveBetProperty",
      "outputs": [
        {
          "internalType": "bool",
          "name": "",
          "type": "bool"
        }
      ],
      "stateMutability": "nonpayable",
      "type": "function"
    },
    {
      "inputs": [
        {
          "internalType": "bytes32",
          "name": "betKey",
          "type": "bytes32"
        },
        {
          "internalType": "string",
          "name": "key",
          "type": "string"
        }
      ],
      "name": "getBetProperty",
      "outputs": [
        {
          "internalType": "string",
          "name": "",
          "type": "string"
        }
      ],
      "stateMutability": "view",
      "type": "function",
      "constant": true
    },
    {
      "inputs": [
        {
          "internalType": "address",
          "name": "rewardAddress",
          "type": "address"
        },
        {
          "internalType": "uint256",
          "name": "amount",
          "type": "uint256"
        }
      ],
      "name": "reward",
      "outputs": [
        {
          "internalType": "bool",
          "name": "",
          "type": "bool"
        }
      ],
      "stateMutability": "nonpayable",
      "type": "function"
    },
    {
      "inputs": [
        {
          "internalType": "address",
          "name": "fromAddress",
          "type": "address"
        },
        {
          "internalType": "uint256",
          "name": "amount",
          "type": "uint256"
        }
      ],
      "name": "burn",
      "outputs": [
        {
          "internalType": "bool",
          "name": "",
          "type": "bool"
        }
      ],
      "stateMutability": "nonpayable",
      "type": "function"
    },
    {
      "inputs": [
        {
          "internalType": "address",
          "name": "fromAddress",
          "type": "address"
        },
        {
          "internalType": "uint256",
          "name": "amount",
          "type": "uint256"
        }
      ],
      "name": "transferToEscrow",
      "outputs": [
        {
          "internalType": "bool",
          "name": "",
          "type": "bool"
        }
      ],
      "stateMutability": "nonpayable",
      "type": "function"
    },
    {
      "inputs": [
        {
          "internalType": "address",
          "name": "toAddress",
          "type": "address"
        },
        {
          "internalType": "uint256",
          "name": "amount",
          "type": "uint256"
        }
      ],
      "name": "transferFromEscrow",
      "outputs": [
        {
          "internalType": "bool",
          "name": "",
          "type": "bool"
        }
      ],
      "stateMutability": "nonpayable",
      "type": "function"
    },
    {
      "inputs": [
        {
          "internalType": "address",
          "name": "addr",
          "type": "address"
        }
      ],
      "name": "getMyBetKeys",
      "outputs": [
        {
          "internalType": "bytes32[]",
          "name": "",
          "type": "bytes32[]"
        }
      ],
      "stateMutability": "view",
      "type": "function",
      "constant": true
    },
    {
      "inputs": [],
      "name": "getOpenBetsCount",
      "outputs": [
        {
          "internalType": "uint256",
          "name": "",
          "type": "uint256"
        }
      ],
      "stateMutability": "view",
      "type": "function",
      "constant": true
    },
    {
      "inputs": [
        {
          "internalType": "uint256",
          "name": "index",
          "type": "uint256"
        }
      ],
      "name": "getOpenBetAtIndex",
      "outputs": [
        {
          "internalType": "bytes32",
          "name": "betKey",
          "type": "bytes32"
        }
      ],
      "stateMutability": "view",
      "type": "function",
      "constant": true
    },
    {
      "inputs": [
        {
          "internalType": "bytes32",
          "name": "betKey",
          "type": "bytes32"
        }
      ],
      "name": "removeOpenBetByValue",
      "outputs": [],
      "stateMutability": "nonpayable",
      "type": "function"
    },
    {
      "inputs": [
        {
          "internalType": "bytes32",
          "name": "betKey",
          "type": "bytes32"
        },
        {
          "internalType": "uint256",
          "name": "val",
          "type": "uint256"
        }
      ],
      "name": "addOpenBetByValue",
      "outputs": [],
      "stateMutability": "nonpayable",
      "type": "function"
    },
    {
      "inputs": [
        {
          "internalType": "uint16",
          "name": "complexityIndex",
          "type": "uint16"
        }
      ],
      "name": "getPendingArbitrationCount",
      "outputs": [
        {
          "internalType": "uint256",
          "name": "",
          "type": "uint256"
        }
      ],
      "stateMutability": "view",
      "type": "function",
      "constant": true
    },
    {
      "inputs": [
        {
          "internalType": "uint16",
          "name": "complexityIndex",
          "type": "uint16"
        },
        {
          "internalType": "uint256",
          "name": "index",
          "type": "uint256"
        }
      ],
      "name": "getPendingArbitrationAtIndex",
      "outputs": [
        {
          "internalType": "bytes32",
          "name": "",
          "type": "bytes32"
        }
      ],
      "stateMutability": "view",
      "type": "function",
      "constant": true
    },
    {
      "inputs": [
        {
          "internalType": "uint16",
          "name": "complexityIndex",
          "type": "uint16"
        },
        {
          "internalType": "bytes32",
          "name": "betKey",
          "type": "bytes32"
        }
      ],
      "name": "removePendingArbitrationByValue",
      "outputs": [],
      "stateMutability": "nonpayable",
      "type": "function"
    },
    {
      "inputs": [
        {
          "internalType": "uint16",
          "name": "complexityIndex",
          "type": "uint16"
        },
        {
          "internalType": "bytes32",
          "name": "betKey",
          "type": "bytes32"
        },
        {
          "internalType": "uint256",
          "name": "val",
          "type": "uint256"
        }
      ],
      "name": "addPendingArbitrationByValue",
      "outputs": [],
      "stateMutability": "nonpayable",
      "type": "function"
    },
    {
      "inputs": [
        {
          "internalType": "bytes32",
          "name": "betKey",
          "type": "bytes32"
        }
      ],
      "name": "getSubmittedOutComes",
      "outputs": [
        {
          "components": [
            {
              "internalType": "bytes32",
              "name": "outcomeKey",
              "type": "bytes32"
            },
            {
              "internalType": "address",
              "name": "arbitrator",
              "type": "address"
            },
            {
              "internalType": "string",
              "name": "outcome",
              "type": "string"
            },
            {
              "internalType": "uint256",
              "name": "stake",
              "type": "uint256"
            }
          ],
          "internalType": "struct Lib.SubmittedOutCome[]",
          "name": "",
          "type": "tuple[]"
        }
      ],
      "stateMutability": "view",
      "type": "function",
      "constant": true
    },
    {
      "inputs": [
        {
          "internalType": "bytes32",
          "name": "betKey",
          "type": "bytes32"
        }
      ],
      "name": "getSubmittedOutComesCount",
      "outputs": [
        {
          "internalType": "uint256",
          "name": "",
          "type": "uint256"
        }
      ],
      "stateMutability": "view",
      "type": "function",
      "constant": true
    },
    {
      "inputs": [
        {
          "internalType": "bytes32",
          "name": "betKey",
          "type": "bytes32"
        },
        {
          "components": [
            {
              "internalType": "bytes32",
              "name": "outcomeKey",
              "type": "bytes32"
            },
            {
              "internalType": "address",
              "name": "arbitrator",
              "type": "address"
            },
            {
              "internalType": "string",
              "name": "outcome",
              "type": "string"
            },
            {
              "internalType": "uint256",
              "name": "stake",
              "type": "uint256"
            }
          ],
          "internalType": "struct Lib.SubmittedOutCome",
          "name": "outcome",
          "type": "tuple"
        }
      ],
      "name": "addSubmittedOutcome",
      "outputs": [],
      "stateMutability": "nonpayable",
      "type": "function"
    },
    {
      "inputs": [],
      "name": "getTotalBetSoFar",
      "outputs": [
        {
          "internalType": "uint256",
          "name": "",
          "type": "uint256"
        }
      ],
      "stateMutability": "view",
      "type": "function",
      "constant": true
    },
    {
      "inputs": [
        {
          "internalType": "uint256",
          "name": "totalBetSoFar",
          "type": "uint256"
        }
      ],
      "name": "updateTotalBetSoFar",
      "outputs": [],
      "stateMutability": "nonpayable",
      "type": "function"
    },
    {
      "inputs": [],
      "name": "getArbitrationComplexityIndex",
      "outputs": [
        {
          "internalType": "uint16",
          "name": "",
          "type": "uint16"
        }
      ],
      "stateMutability": "view",
      "type": "function",
      "constant": true
    },
    {
      "inputs": [
        {
          "internalType": "uint16",
          "name": "complexityIndex",
          "type": "uint16"
        }
      ],
      "name": "updateArbitrationComplexityIndex",
      "outputs": [],
      "stateMutability": "nonpayable",
      "type": "function"
    },
    {
      "inputs": [],
      "name": "incrementTotalBetCountSoFar",
      "outputs": [],
      "stateMutability": "nonpayable",
      "type": "function"
    },
    {
      "inputs": [
        {
          "internalType": "bytes32",
          "name": "betKey",
          "type": "bytes32"
        },
        {
          "internalType": "address",
          "name": "submitter",
          "type": "address"
        }
      ],
      "name": "isOutcomeSubmittedBySubmitter",
      "outputs": [
        {
          "internalType": "bool",
          "name": "",
          "type": "bool"
        }
      ],
      "stateMutability": "view",
      "type": "function",
      "constant": true
    },
    {
      "inputs": [
        {
          "internalType": "bytes32",
          "name": "betKey",
          "type": "bytes32"
        },
        {
          "internalType": "address",
          "name": "submitter",
          "type": "address"
        }
      ],
      "name": "markSubmitterOutcomeSubmitted",
      "outputs": [],
      "stateMutability": "nonpayable",
      "type": "function"
    },
    {
      "inputs": [
        {
          "internalType": "bytes32",
          "name": "submittedOutcomeKey",
          "type": "bytes32"
        },
        {
          "internalType": "string",
          "name": "key",
          "type": "string"
        },
        {
          "internalType": "string",
          "name": "value",
          "type": "string"
        }
      ],
      "name": "saveSubmittedOutComeProperty",
      "outputs": [
        {
          "internalType": "bool",
          "name": "",
          "type": "bool"
        }
      ],
      "stateMutability": "nonpayable",
      "type": "function"
    },
    {
      "inputs": [
        {
          "internalType": "bytes32",
          "name": "submittedOutcomeKey",
          "type": "bytes32"
        },
        {
          "internalType": "string",
          "name": "key",
          "type": "string"
        }
      ],
      "name": "getSubmittedOutComeProperty",
      "outputs": [
        {
          "internalType": "string",
          "name": "",
          "type": "string"
        }
      ],
      "stateMutability": "view",
      "type": "function",
      "constant": true
    },
    {
      "inputs": [
        {
          "internalType": "address",
          "name": "recipient",
          "type": "address"
        },
        {
          "internalType": "uint256",
          "name": "amount",
          "type": "uint256"
        }
      ],
      "name": "transfer",
      "outputs": [
        {
          "internalType": "bool",
          "name": "",
          "type": "bool"
        }
      ],
      "stateMutability": "nonpayable",
      "type": "function"
    }
  ],
  "bytecode": "0x60806040526c2a0349091a4ef0a39586800000601255600060135560006016556c0c9f2c9cd04674edea40000000601755600060185560016017546012546200004991906200051a565b6200005591906200051a565b6019556000601a556000601b556000601c60006101000a81548161ffff021916908361ffff1602179055503480156200008d57600080fd5b506040518060400160405280600a81526020017f43727970746f20426574000000000000000000000000000000000000000000008152506040518060400160405280600481526020017f4942455400000000000000000000000000000000000000000000000000000000815250816003908051906020019062000112929190620003e2565b5080600490805190602001906200012b929190620003e2565b5050506200014e620001426200019160201b60201c565b6200019960201b60201c565b6000600560146101000a81548160ff02191690831515021790555060016006819055506200018b33670de0b6b3a76400006200025f60201b60201c565b6200063e565b600033905090565b6000600560009054906101000a900473ffffffffffffffffffffffffffffffffffffffff16905081600560006101000a81548173ffffffffffffffffffffffffffffffffffffffff021916908373ffffffffffffffffffffffffffffffffffffffff1602179055508173ffffffffffffffffffffffffffffffffffffffff168173ffffffffffffffffffffffffffffffffffffffff167f8be0079c531659141344cd1fd0a4f28419497f9722a3daafe3b4186f6b6457e060405160405180910390a35050565b600073ffffffffffffffffffffffffffffffffffffffff168273ffffffffffffffffffffffffffffffffffffffff161415620002d2576040517f08c379a0000000000000000000000000000000000000000000000000000000008152600401620002c990620004ca565b60405180910390fd5b620002e660008383620003d860201b60201c565b8060026000828254620002fa91906200051a565b92505081905550806000808473ffffffffffffffffffffffffffffffffffffffff1673ffffffffffffffffffffffffffffffffffffffff16815260200190815260200160002060008282546200035191906200051a565b925050819055508173ffffffffffffffffffffffffffffffffffffffff16600073ffffffffffffffffffffffffffffffffffffffff167fddf252ad1be2c89b69c2b068fc378daa952ba7f163c4a11628f55a4df523b3ef83604051620003b89190620004ec565b60405180910390a3620003d460008383620003dd60201b60201c565b5050565b505050565b505050565b828054620003f09062000581565b90600052602060002090601f01602090048101928262000414576000855562000460565b82601f106200042f57805160ff191683800117855562000460565b8280016001018555821562000460579182015b828111156200045f57825182559160200191906001019062000442565b5b5090506200046f919062000473565b5090565b5b808211156200048e57600081600090555060010162000474565b5090565b6000620004a1601f8362000509565b9150620004ae8262000615565b602082019050919050565b620004c48162000577565b82525050565b60006020820190508181036000830152620004e58162000492565b9050919050565b6000602082019050620005036000830184620004b9565b92915050565b600082825260208201905092915050565b6000620005278262000577565b9150620005348362000577565b9250827fffffffffffffffffffffffffffffffffffffffffffffffffffffffffffffffff038211156200056c576200056b620005b7565b5b828201905092915050565b6000819050919050565b600060028204905060018216806200059a57607f821691505b60208210811415620005b157620005b0620005e6565b5b50919050565b7f4e487b7100000000000000000000000000000000000000000000000000000000600052601160045260246000fd5b7f4e487b7100000000000000000000000000000000000000000000000000000000600052602260045260246000fd5b7f45524332303a206d696e7420746f20746865207a65726f206164647265737300600082015250565b616126806200064e6000396000f3fe608060405234801561001057600080fd5b50600436106102a05760003560e01c80635c975abb1161016757806391beb09e116100ce578063b5ea91de11610087578063b5ea91de146108d1578063b5fa4af714610901578063d5a1ad611461091d578063dafb76821461094d578063dd62ed3e1461096b578063f2fde38b1461099b576102a0565b806391beb09e146107d757806395d89b41146107f35780639dc29fac146108115780639e88fd8114610841578063a457c2d714610871578063a9059cbb146108a1576102a0565b8063715018a611610120578063715018a614610715578063769515001461071f57806383099afa1461073b578063837fbbec1461076b5780638ab4de3c146107895780638da5cb5b146107b9576102a0565b80635c975abb146106555780635d76bb121461067357806366ae73de1461068f578063688489f6146106ad5780636d0488a2146106c957806370a08231146106e5576102a0565b8063283760fa1161020b5780633303f6bc116101c45780633303f6bc1461054957806337e8c09e1461057957806339509351146105a95780633bc0794c146105d9578063527c472e1461060957806355477dc614610639576102a0565b8063283760fa1461049d57806328e7610f146104cd5780632c388d5d146104e95780632e716659146105055780632fa38f9b14610521578063313ce5671461052b576102a0565b806318160ddd1161025d57806318160ddd146103a1578063203a6bfd146103bf57806321670f22146103ef57806323b872dd1461041f5780632494597c1461044f57806327c4758b1461047f576102a0565b806304b9178d146102a557806306fdde03146102d55780630853f95a146102f3578063095ea7b314610323578063138e2d8e1461035357806315a54a6414610383575b600080fd5b6102bf60048036038101906102ba9190614b5c565b6109b7565b6040516102cc9190615452565b60405180910390f35b6102dd610a9e565b6040516102ea9190615488565b60405180910390f35b61030d60048036038101906103089190614d8c565b610b30565b60405161031a919061546d565b60405180910390f35b61033d60048036038101906103389190614a26565b610c72565b60405161034a9190615452565b60405180910390f35b61036d60048036038101906103689190614ac0565b610c90565b60405161037a9190615452565b60405180910390f35b61038b610d8e565b604051610398919061576b565b60405180910390f35b6103a9610e2b565b6040516103b6919061576b565b60405180910390f35b6103d960048036038101906103d49190614b5c565b610e35565b6040516103e69190615452565b60405180910390f35b61040960048036038101906104049190614a26565b610f1c565b6040516104169190615452565b60405180910390f35b61043960048036038101906104349190614993565b610fc5565b6040516104469190615452565b60405180910390f35b61046960048036038101906104649190614ccc565b6110bd565b604051610476919061576b565b60405180910390f35b6104876111fc565b6040516104949190615750565b60405180910390f35b6104b760048036038101906104b29190614a26565b6112a7565b6040516104c49190615452565b60405180910390f35b6104e760048036038101906104e29190614c43565b6113d5565b005b61050360048036038101906104fe9190614926565b6114da565b005b61051f600480360381019061051a9190614dcc565b6115b1565b005b61052961164e565b005b6105336116fb565b6040516105409190615786565b60405180910390f35b610563600480360381019061055e9190614a66565b611704565b6040516105709190615430565b60405180910390f35b610593600480360381019061058e9190614a66565b611908565b6040516105a0919061568a565b60405180910390f35b6105c360048036038101906105be9190614a26565b611b50565b6040516105d09190615452565b60405180910390f35b6105f360048036038101906105ee9190614a66565b611bfc565b604051610600919061576b565b60405180910390f35b610623600480360381019061061e9190614c83565b611cb2565b6040516106309190615452565b60405180910390f35b610653600480360381019061064e9190614cf9565b611e7f565b005b61065d611f9b565b60405161066a9190615452565b60405180910390f35b61068d60048036038101906106889190614ac0565b611fb2565b005b6106976120b5565b6040516106a4919061576b565b60405180910390f35b6106c760048036038101906106c29190614d39565b6121d9565b005b6106e360048036038101906106de9190614be7565b6122f8565b005b6106ff60048036038101906106fa9190614926565b612449565b60405161070c919061576b565b60405180910390f35b61071d612491565b005b61073960048036038101906107349190614a66565b612519565b005b61075560048036038101906107509190614dcc565b61261b565b604051610762919061546d565b60405180910390f35b610773612743565b604051610780919061576b565b60405180910390f35b6107a3600480360381019061079e9190614b00565b6127e0565b6040516107b09190615488565b60405180910390f35b6107c1612938565b6040516107ce91906153f3565b60405180910390f35b6107f160048036038101906107ec9190614ccc565b612962565b005b6107fb612a15565b6040516108089190615488565b60405180910390f35b61082b60048036038101906108269190614a26565b612aa7565b6040516108389190615452565b60405180910390f35b61085b60048036038101906108569190614a26565b612b50565b6040516108689190615452565b60405180910390f35b61088b60048036038101906108869190614a26565b612c7e565b6040516108989190615452565b60405180910390f35b6108bb60048036038101906108b69190614a26565b612d69565b6040516108c89190615452565b60405180910390f35b6108eb60048036038101906108e69190614b00565b6131cf565b6040516108f89190615488565b60405180910390f35b61091b600480360381019061091691906149e6565b613327565b005b61093760048036038101906109329190614926565b6134fd565b604051610944919061540e565b60405180910390f35b610955613627565b604051610962919061576b565b60405180910390f35b61098560048036038101906109809190614953565b6136c4565b604051610992919061576b565b60405180910390f35b6109b560048036038101906109b09190614926565b61374b565b005b600060011515600a60003373ffffffffffffffffffffffffffffffffffffffff1673ffffffffffffffffffffffffffffffffffffffff16815260200190815260200160002060009054906101000a900460ff16151514610a4c576040517f08c379a0000000000000000000000000000000000000000000000000000000008152600401610a43906155aa565b60405180910390fd5b81600d600086815260200190815260200160002060010184604051610a7191906153dc565b90815260200160405180910390209080519060200190610a92929190614561565b50600190509392505050565b606060038054610aad90615a5e565b80601f0160208091040260200160405190810160405280929190818152602001828054610ad990615a5e565b8015610b265780601f10610afb57610100808354040283529160200191610b26565b820191906000526020600020905b815481529060010190602001808311610b0957829003601f168201915b5050505050905090565b600060011515600a60003373ffffffffffffffffffffffffffffffffffffffff1673ffffffffffffffffffffffffffffffffffffffff16815260200190815260200160002060009054906101000a900460ff16151514610bc5576040517f08c379a0000000000000000000000000000000000000000000000000000000008152600401610bbc906155aa565b60405180910390fd5b600b60008461ffff1661ffff16815260200190815260200160002073__IterableMapping_______________________63d1aa9e7e9091846040518363ffffffff1660e01b8152600401610c1a929190615727565b60206040518083038186803b158015610c3257600080fd5b505af4158015610c46573d6000803e3d6000fd5b505050506040513d601f19601f82011682018060405250810190610c6a9190614a93565b905092915050565b6000610c86610c7f613843565b848461384b565b6001905092915050565b600060011515600a60003373ffffffffffffffffffffffffffffffffffffffff1673ffffffffffffffffffffffffffffffffffffffff16815260200190815260200160002060009054906101000a900460ff16151514610d25576040517f08c379a0000000000000000000000000000000000000000000000000000000008152600401610d1c906155aa565b60405180910390fd5b600c600084815260200190815260200160002060000160008373ffffffffffffffffffffffffffffffffffffffff1673ffffffffffffffffffffffffffffffffffffffff16815260200190815260200160002060009054906101000a900460ff16905092915050565b600060011515600a60003373ffffffffffffffffffffffffffffffffffffffff1673ffffffffffffffffffffffffffffffffffffffff16815260200190815260200160002060009054906101000a900460ff16151514610e23576040517f08c379a0000000000000000000000000000000000000000000000000000000008152600401610e1a906155aa565b60405180910390fd5b601854905090565b6000600254905090565b600060011515600a60003373ffffffffffffffffffffffffffffffffffffffff1673ffffffffffffffffffffffffffffffffffffffff16815260200190815260200160002060009054906101000a900460ff16151514610eca576040517f08c379a0000000000000000000000000000000000000000000000000000000008152600401610ec1906155aa565b60405180910390fd5b816008600086815260200190815260200160002060010184604051610eef91906153dc565b90815260200160405180910390209080519060200190610f10929190614561565b50600190509392505050565b600060011515600a60003373ffffffffffffffffffffffffffffffffffffffff1673ffffffffffffffffffffffffffffffffffffffff16815260200190815260200160002060009054906101000a900460ff16151514610fb1576040517f08c379a0000000000000000000000000000000000000000000000000000000008152600401610fa8906155aa565b60405180910390fd5b610fbb8383613a16565b6001905092915050565b6000610fd2848484613b76565b6000600160008673ffffffffffffffffffffffffffffffffffffffff1673ffffffffffffffffffffffffffffffffffffffff168152602001908152602001600020600061101d613843565b73ffffffffffffffffffffffffffffffffffffffff1673ffffffffffffffffffffffffffffffffffffffff1681526020019081526020016000205490508281101561109d576040517f08c379a00000000000000000000000000000000000000000000000000000000081526004016110949061556a565b60405180910390fd5b6110b1856110a9613843565b85840361384b565b60019150509392505050565b600060011515600a60003373ffffffffffffffffffffffffffffffffffffffff1673ffffffffffffffffffffffffffffffffffffffff16815260200190815260200160002060009054906101000a900460ff16151514611152576040517f08c379a0000000000000000000000000000000000000000000000000000000008152600401611149906155aa565b60405180910390fd5b600b60008361ffff1661ffff16815260200190815260200160002073__IterableMapping_______________________63deb3d89690916040518263ffffffff1660e01b81526004016111a591906156ac565b60206040518083038186803b1580156111bd57600080fd5b505af41580156111d1573d6000803e3d6000fd5b505050506040513d601f19601f820116820180604052508101906111f59190614df9565b9050919050565b600060011515600a60003373ffffffffffffffffffffffffffffffffffffffff1673ffffffffffffffffffffffffffffffffffffffff16815260200190815260200160002060009054906101000a900460ff16151514611291576040517f08c379a0000000000000000000000000000000000000000000000000000000008152600401611288906155aa565b60405180910390fd5b601c60009054906101000a900461ffff16905090565b600060011515600a60003373ffffffffffffffffffffffffffffffffffffffff1673ffffffffffffffffffffffffffffffffffffffff16815260200190815260200160002060009054906101000a900460ff1615151461133c576040517f08c379a0000000000000000000000000000000000000000000000000000000008152600401611333906155aa565b60405180910390fd5b600073ffffffffffffffffffffffffffffffffffffffff168373ffffffffffffffffffffffffffffffffffffffff1614156113ac576040517f08c379a00000000000000000000000000000000000000000000000000000000081526004016113a39061562a565b60405180910390fd5b6113cb734adafa1738f7e60db3c0415eb790eaf70010e2918484613b76565b6001905092915050565b60011515600a60003373ffffffffffffffffffffffffffffffffffffffff1673ffffffffffffffffffffffffffffffffffffffff16815260200190815260200160002060009054906101000a900460ff16151514611468576040517f08c379a000000000000000000000000000000000000000000000000000000000815260040161145f906155aa565b60405180910390fd5b600e73__IterableMapping_______________________63032092e2909184846040518463ffffffff1660e01b81526004016114a6939291906156f0565b60006040518083038186803b1580156114be57600080fd5b505af41580156114d2573d6000803e3d6000fd5b505050505050565b6114e2613843565b73ffffffffffffffffffffffffffffffffffffffff16611500612938565b73ffffffffffffffffffffffffffffffffffffffff1614611556576040517f08c379a000000000000000000000000000000000000000000000000000000000815260040161154d9061558a565b60405180910390fd5b6001600a60008373ffffffffffffffffffffffffffffffffffffffff1673ffffffffffffffffffffffffffffffffffffffff16815260200190815260200160002060006101000a81548160ff02191690831515021790555050565b60011515600a60003373ffffffffffffffffffffffffffffffffffffffff1673ffffffffffffffffffffffffffffffffffffffff16815260200190815260200160002060009054906101000a900460ff16151514611644576040517f08c379a000000000000000000000000000000000000000000000000000000000815260040161163b906155aa565b60405180910390fd5b80601a8190555050565b60011515600a60003373ffffffffffffffffffffffffffffffffffffffff1673ffffffffffffffffffffffffffffffffffffffff16815260200190815260200160002060009054906101000a900460ff161515146116e1576040517f08c379a00000000000000000000000000000000000000000000000000000000081526004016116d8906155aa565b60405180910390fd5b601b60008154809291906116f490615ac1565b9190505550565b60006012905090565b606060011515600a60003373ffffffffffffffffffffffffffffffffffffffff1673ffffffffffffffffffffffffffffffffffffffff16815260200190815260200160002060009054906101000a900460ff16151514611799576040517f08c379a0000000000000000000000000000000000000000000000000000000008152600401611790906155aa565b60405180910390fd5b600c6000838152602001908152602001600020600101805480602002602001604051908101604052809291908181526020016000905b828210156118fd5783829060005260206000209060040201604051806080016040529081600082015481526020016001820160009054906101000a900473ffffffffffffffffffffffffffffffffffffffff1673ffffffffffffffffffffffffffffffffffffffff1673ffffffffffffffffffffffffffffffffffffffff16815260200160028201805461186290615a5e565b80601f016020809104026020016040519081016040528092919081815260200182805461188e90615a5e565b80156118db5780601f106118b0576101008083540402835291602001916118db565b820191906000526020600020905b8154815290600101906020018083116118be57829003601f168201915b50505050508152602001600382015481525050815260200190600101906117cf565b505050509050919050565b6119106145e7565b60011515600a60003373ffffffffffffffffffffffffffffffffffffffff1673ffffffffffffffffffffffffffffffffffffffff16815260200190815260200160002060009054906101000a900460ff161515146119a3576040517f08c379a000000000000000000000000000000000000000000000000000000000815260040161199a906155aa565b60405180910390fd5b60076000838152602001908152602001600020604051806101400160405290816000820160009054906101000a900461ffff1661ffff1661ffff168152602001600182015481526020016002820160009054906101000a900473ffffffffffffffffffffffffffffffffffffffff1673ffffffffffffffffffffffffffffffffffffffff1673ffffffffffffffffffffffffffffffffffffffff168152602001600382018054611a5290615a5e565b80601f0160208091040260200160405190810160405280929190818152602001828054611a7e90615a5e565b8015611acb5780601f10611aa057610100808354040283529160200191611acb565b820191906000526020600020905b815481529060010190602001808311611aae57829003601f168201915b50505050508152602001600482015481526020016005820160009054906101000a900460ff1660ff1660ff1681526020016005820160019054906101000a900460ff1660ff1660ff1681526020016005820160029054906101000a900460ff1660ff1660ff168152602001600682015481526020016007820154815250509050919050565b6000611bf2611b5d613843565b848460016000611b6b613843565b73ffffffffffffffffffffffffffffffffffffffff1673ffffffffffffffffffffffffffffffffffffffff16815260200190815260200160002060008873ffffffffffffffffffffffffffffffffffffffff1673ffffffffffffffffffffffffffffffffffffffff16815260200190815260200160002054611bed91906158a1565b61384b565b6001905092915050565b600060011515600a60003373ffffffffffffffffffffffffffffffffffffffff1673ffffffffffffffffffffffffffffffffffffffff16815260200190815260200160002060009054906101000a900460ff16151514611c91576040517f08c379a0000000000000000000000000000000000000000000000000000000008152600401611c88906155aa565b60405180910390fd5b600c6000838152602001908152602001600020600101805490509050919050565b600060011515600a60003373ffffffffffffffffffffffffffffffffffffffff1673ffffffffffffffffffffffffffffffffffffffff16815260200190815260200160002060009054906101000a900460ff16151514611d47576040517f08c379a0000000000000000000000000000000000000000000000000000000008152600401611d3e906155aa565b60405180910390fd5b81600760008460200151815260200190815260200160002060008201518160000160006101000a81548161ffff021916908361ffff1602179055506020820151816001015560408201518160020160006101000a81548173ffffffffffffffffffffffffffffffffffffffff021916908373ffffffffffffffffffffffffffffffffffffffff1602179055506060820151816003019080519060200190611def929190614561565b506080820151816004015560a08201518160050160006101000a81548160ff021916908360ff16021790555060c08201518160050160016101000a81548160ff021916908360ff16021790555060e08201518160050160026101000a81548160ff021916908360ff1602179055506101008201518160060155610120820151816007015590505060019050919050565b60011515600a60003373ffffffffffffffffffffffffffffffffffffffff1673ffffffffffffffffffffffffffffffffffffffff16815260200190815260200160002060009054906101000a900460ff16151514611f12576040517f08c379a0000000000000000000000000000000000000000000000000000000008152600401611f09906155aa565b60405180910390fd5b600b60008361ffff1661ffff16815260200190815260200160002073__IterableMapping_______________________632a1065259091836040518363ffffffff1660e01b8152600401611f679291906156c7565b60006040518083038186803b158015611f7f57600080fd5b505af4158015611f93573d6000803e3d6000fd5b505050505050565b6000600560149054906101000a900460ff16905090565b60011515600a60003373ffffffffffffffffffffffffffffffffffffffff1673ffffffffffffffffffffffffffffffffffffffff16815260200190815260200160002060009054906101000a900460ff16151514612045576040517f08c379a000000000000000000000000000000000000000000000000000000000815260040161203c906155aa565b60405180910390fd5b6001600c600084815260200190815260200160002060000160008373ffffffffffffffffffffffffffffffffffffffff1673ffffffffffffffffffffffffffffffffffffffff16815260200190815260200160002060006101000a81548160ff0219169083151502179055505050565b600060011515600a60003373ffffffffffffffffffffffffffffffffffffffff1673ffffffffffffffffffffffffffffffffffffffff16815260200190815260200160002060009054906101000a900460ff1615151461214a576040517f08c379a0000000000000000000000000000000000000000000000000000000008152600401612141906155aa565b60405180910390fd5b600e73__IterableMapping_______________________63deb3d89690916040518263ffffffff1660e01b815260040161218491906156ac565b60206040518083038186803b15801561219c57600080fd5b505af41580156121b0573d6000803e3d6000fd5b505050506040513d601f19601f820116820180604052508101906121d49190614df9565b905090565b60011515600a60003373ffffffffffffffffffffffffffffffffffffffff1673ffffffffffffffffffffffffffffffffffffffff16815260200190815260200160002060009054906101000a900460ff1615151461226c576040517f08c379a0000000000000000000000000000000000000000000000000000000008152600401612263906155aa565b60405180910390fd5b600b60008461ffff1661ffff16815260200190815260200160002073__IterableMapping_______________________63032092e2909184846040518463ffffffff1660e01b81526004016122c3939291906156f0565b60006040518083038186803b1580156122db57600080fd5b505af41580156122ef573d6000803e3d6000fd5b50505050505050565b60011515600a60003373ffffffffffffffffffffffffffffffffffffffff1673ffffffffffffffffffffffffffffffffffffffff16815260200190815260200160002060009054906101000a900460ff1615151461238b576040517f08c379a0000000000000000000000000000000000000000000000000000000008152600401612382906155aa565b60405180910390fd5b600c60008381526020019081526020016000206001018190806001815401808255809150506001900390600052602060002090600402016000909190919091506000820151816000015560208201518160010160006101000a81548173ffffffffffffffffffffffffffffffffffffffff021916908373ffffffffffffffffffffffffffffffffffffffff1602179055506040820151816002019080519060200190612438929190614561565b506060820151816003015550505050565b60008060008373ffffffffffffffffffffffffffffffffffffffff1673ffffffffffffffffffffffffffffffffffffffff168152602001908152602001600020549050919050565b612499613843565b73ffffffffffffffffffffffffffffffffffffffff166124b7612938565b73ffffffffffffffffffffffffffffffffffffffff161461250d576040517f08c379a00000000000000000000000000000000000000000000000000000000081526004016125049061558a565b60405180910390fd5b6125176000613df7565b565b60011515600a60003373ffffffffffffffffffffffffffffffffffffffff1673ffffffffffffffffffffffffffffffffffffffff16815260200190815260200160002060009054906101000a900460ff161515146125ac576040517f08c379a00000000000000000000000000000000000000000000000000000000081526004016125a3906155aa565b60405180910390fd5b600e73__IterableMapping_______________________632a1065259091836040518363ffffffff1660e01b81526004016125e89291906156c7565b60006040518083038186803b15801561260057600080fd5b505af4158015612614573d6000803e3d6000fd5b5050505050565b600060011515600a60003373ffffffffffffffffffffffffffffffffffffffff1673ffffffffffffffffffffffffffffffffffffffff16815260200190815260200160002060009054906101000a900460ff161515146126b0576040517f08c379a00000000000000000000000000000000000000000000000000000000081526004016126a7906155aa565b60405180910390fd5b600e73__IterableMapping_______________________63d1aa9e7e9091846040518363ffffffff1660e01b81526004016126ec929190615727565b60206040518083038186803b15801561270457600080fd5b505af4158015612718573d6000803e3d6000fd5b505050506040513d601f19601f8201168201806040525081019061273c9190614a93565b9050919050565b600060011515600a60003373ffffffffffffffffffffffffffffffffffffffff1673ffffffffffffffffffffffffffffffffffffffff16815260200190815260200160002060009054906101000a900460ff161515146127d8576040517f08c379a00000000000000000000000000000000000000000000000000000000081526004016127cf906155aa565b60405180910390fd5b601754905090565b606060011515600a60003373ffffffffffffffffffffffffffffffffffffffff1673ffffffffffffffffffffffffffffffffffffffff16815260200190815260200160002060009054906101000a900460ff16151514612875576040517f08c379a000000000000000000000000000000000000000000000000000000000815260040161286c906155aa565b60405180910390fd5b600860008481526020019081526020016000206001018260405161289991906153dc565b908152602001604051809103902080546128b290615a5e565b80601f01602080910402602001604051908101604052809291908181526020018280546128de90615a5e565b801561292b5780601f106129005761010080835404028352916020019161292b565b820191906000526020600020905b81548152906001019060200180831161290e57829003601f168201915b5050505050905092915050565b6000600560009054906101000a900473ffffffffffffffffffffffffffffffffffffffff16905090565b60011515600a60003373ffffffffffffffffffffffffffffffffffffffff1673ffffffffffffffffffffffffffffffffffffffff16815260200190815260200160002060009054906101000a900460ff161515146129f5576040517f08c379a00000000000000000000000000000000000000000000000000000000081526004016129ec906155aa565b60405180910390fd5b80601c60006101000a81548161ffff021916908361ffff16021790555050565b606060048054612a2490615a5e565b80601f0160208091040260200160405190810160405280929190818152602001828054612a5090615a5e565b8015612a9d5780601f10612a7257610100808354040283529160200191612a9d565b820191906000526020600020905b815481529060010190602001808311612a8057829003601f168201915b5050505050905090565b600060011515600a60003373ffffffffffffffffffffffffffffffffffffffff1673ffffffffffffffffffffffffffffffffffffffff16815260200190815260200160002060009054906101000a900460ff16151514612b3c576040517f08c379a0000000000000000000000000000000000000000000000000000000008152600401612b33906155aa565b60405180910390fd5b612b468383613ebd565b6001905092915050565b600060011515600a60003373ffffffffffffffffffffffffffffffffffffffff1673ffffffffffffffffffffffffffffffffffffffff16815260200190815260200160002060009054906101000a900460ff16151514612be5576040517f08c379a0000000000000000000000000000000000000000000000000000000008152600401612bdc906155aa565b60405180910390fd5b600073ffffffffffffffffffffffffffffffffffffffff168373ffffffffffffffffffffffffffffffffffffffff161415612c55576040517f08c379a0000000000000000000000000000000000000000000000000000000008152600401612c4c9061554a565b60405180910390fd5b612c7483734adafa1738f7e60db3c0415eb790eaf70010e29184613b76565b6001905092915050565b60008060016000612c8d613843565b73ffffffffffffffffffffffffffffffffffffffff1673ffffffffffffffffffffffffffffffffffffffff16815260200190815260200160002060008573ffffffffffffffffffffffffffffffffffffffff1673ffffffffffffffffffffffffffffffffffffffff16815260200190815260200160002054905082811015612d4a576040517f08c379a0000000000000000000000000000000000000000000000000000000008152600401612d419061564a565b60405180910390fd5b612d5e612d55613843565b8585840361384b565b600191505092915050565b6000601254601354108015612d7e5750600082115b8015612ddb575060011515601560008573ffffffffffffffffffffffffffffffffffffffff1673ffffffffffffffffffffffffffffffffffffffff16815260200190815260200160002060009054906101000a900460ff16151514155b156131b357600060146000612dee613843565b73ffffffffffffffffffffffffffffffffffffffff1673ffffffffffffffffffffffffffffffffffffffff1681526020019081526020016000208054905011156131a0576000805b60146000612e42613843565b73ffffffffffffffffffffffffffffffffffffffff1673ffffffffffffffffffffffffffffffffffffffff168152602001908152602001600020805490508160ff16101561317e5762093a80612f0d60146000612e9d613843565b73ffffffffffffffffffffffffffffffffffffffff1673ffffffffffffffffffffffffffffffffffffffff1681526020019081526020016000208360ff1681548110612eec57612eeb615bc1565b5b9060005260206000209060020201600101544261409490919063ffffffff16565b111561315c5760146000612f1f613843565b73ffffffffffffffffffffffffffffffffffffffff1673ffffffffffffffffffffffffffffffffffffffff168152602001908152602001600020600160146000612f67613843565b73ffffffffffffffffffffffffffffffffffffffff1673ffffffffffffffffffffffffffffffffffffffff16815260200190815260200160002080549050612faf9190615951565b81548110612fc057612fbf615bc1565b5b906000526020600020906002020160146000612fda613843565b73ffffffffffffffffffffffffffffffffffffffff1673ffffffffffffffffffffffffffffffffffffffff1681526020019081526020016000208260ff168154811061302957613028615bc1565b5b90600052602060002090600202016000820160009054906101000a900473ffffffffffffffffffffffffffffffffffffffff168160000160006101000a81548173ffffffffffffffffffffffffffffffffffffffff021916908373ffffffffffffffffffffffffffffffffffffffff16021790555060018201548160010155905050601460006130b7613843565b73ffffffffffffffffffffffffffffffffffffffff1673ffffffffffffffffffffffffffffffffffffffff16815260200190815260200160002080548061310157613100615b92565b5b6001900381819060005260206000209060020201600080820160006101000a81549073ffffffffffffffffffffffffffffffffffffffff0219169055600182016000905550509055808061315490615a34565b91505061316b565b818061316790615ac1565b9250505b808061317690615b0a565b915050612e36565b600482101561319957613198613192613843565b866140aa565b5b50506131b2565b6131b16131ab613843565b846140aa565b5b5b6131c56131be613843565b8484613b76565b6001905092915050565b606060011515600a60003373ffffffffffffffffffffffffffffffffffffffff1673ffffffffffffffffffffffffffffffffffffffff16815260200190815260200160002060009054906101000a900460ff16151514613264576040517f08c379a000000000000000000000000000000000000000000000000000000000815260040161325b906155aa565b60405180910390fd5b600d60008481526020019081526020016000206001018260405161328891906153dc565b908152602001604051809103902080546132a190615a5e565b80601f01602080910402602001604051908101604052809291908181526020018280546132cd90615a5e565b801561331a5780601f106132ef5761010080835404028352916020019161331a565b820191906000526020600020905b8154815290600101906020018083116132fd57829003601f168201915b5050505050905092915050565b60011515600a60003373ffffffffffffffffffffffffffffffffffffffff1673ffffffffffffffffffffffffffffffffffffffff16815260200190815260200160002060009054906101000a900460ff161515146133ba576040517f08c379a00000000000000000000000000000000000000000000000000000000081526004016133b1906155aa565b60405180910390fd5b6000805b600960008573ffffffffffffffffffffffffffffffffffffffff1673ffffffffffffffffffffffffffffffffffffffff168152602001908152602001600020805490508110156134835782600960008673ffffffffffffffffffffffffffffffffffffffff1673ffffffffffffffffffffffffffffffffffffffff168152602001908152602001600020828154811061345a57613459615bc1565b5b9060005260206000200154141561347057600191505b808061347b90615ac1565b9150506133be565b506000151581151514156134f857600960008473ffffffffffffffffffffffffffffffffffffffff1673ffffffffffffffffffffffffffffffffffffffff1681526020019081526020016000208290806001815401808255809150506001900390600052602060002001600090919091909150555b505050565b606060011515600a60003373ffffffffffffffffffffffffffffffffffffffff1673ffffffffffffffffffffffffffffffffffffffff16815260200190815260200160002060009054906101000a900460ff16151514613592576040517f08c379a0000000000000000000000000000000000000000000000000000000008152600401613589906155aa565b60405180910390fd5b600960008373ffffffffffffffffffffffffffffffffffffffff1673ffffffffffffffffffffffffffffffffffffffff16815260200190815260200160002080548060200260200160405190810160405280929190818152602001828054801561361b57602002820191906000526020600020905b815481526020019060010190808311613607575b50505050509050919050565b600060011515600a60003373ffffffffffffffffffffffffffffffffffffffff1673ffffffffffffffffffffffffffffffffffffffff16815260200190815260200160002060009054906101000a900460ff161515146136bc576040517f08c379a00000000000000000000000000000000000000000000000000000000081526004016136b3906155aa565b60405180910390fd5b601a54905090565b6000600160008473ffffffffffffffffffffffffffffffffffffffff1673ffffffffffffffffffffffffffffffffffffffff16815260200190815260200160002060008373ffffffffffffffffffffffffffffffffffffffff1673ffffffffffffffffffffffffffffffffffffffff16815260200190815260200160002054905092915050565b613753613843565b73ffffffffffffffffffffffffffffffffffffffff16613771612938565b73ffffffffffffffffffffffffffffffffffffffff16146137c7576040517f08c379a00000000000000000000000000000000000000000000000000000000081526004016137be9061558a565b60405180910390fd5b600073ffffffffffffffffffffffffffffffffffffffff168173ffffffffffffffffffffffffffffffffffffffff161415613837576040517f08c379a000000000000000000000000000000000000000000000000000000000815260040161382e906154ea565b60405180910390fd5b61384081613df7565b50565b600033905090565b600073ffffffffffffffffffffffffffffffffffffffff168373ffffffffffffffffffffffffffffffffffffffff1614156138bb576040517f08c379a00000000000000000000000000000000000000000000000000000000081526004016138b29061560a565b60405180910390fd5b600073ffffffffffffffffffffffffffffffffffffffff168273ffffffffffffffffffffffffffffffffffffffff16141561392b576040517f08c379a00000000000000000000000000000000000000000000000000000000081526004016139229061550a565b60405180910390fd5b80600160008573ffffffffffffffffffffffffffffffffffffffff1673ffffffffffffffffffffffffffffffffffffffff16815260200190815260200160002060008473ffffffffffffffffffffffffffffffffffffffff1673ffffffffffffffffffffffffffffffffffffffff168152602001908152602001600020819055508173ffffffffffffffffffffffffffffffffffffffff168373ffffffffffffffffffffffffffffffffffffffff167f8c5be1e5ebec7d5bd14f71427d1e84f3dd0314c0f7b2291e5b200ac8c7c3b92583604051613a09919061576b565b60405180910390a3505050565b600073ffffffffffffffffffffffffffffffffffffffff168273ffffffffffffffffffffffffffffffffffffffff161415613a86576040517f08c379a0000000000000000000000000000000000000000000000000000000008152600401613a7d9061566a565b60405180910390fd5b613a9260008383614236565b8060026000828254613aa491906158a1565b92505081905550806000808473ffffffffffffffffffffffffffffffffffffffff1673ffffffffffffffffffffffffffffffffffffffff1681526020019081526020016000206000828254613af991906158a1565b925050819055508173ffffffffffffffffffffffffffffffffffffffff16600073ffffffffffffffffffffffffffffffffffffffff167fddf252ad1be2c89b69c2b068fc378daa952ba7f163c4a11628f55a4df523b3ef83604051613b5e919061576b565b60405180910390a3613b726000838361423b565b5050565b600073ffffffffffffffffffffffffffffffffffffffff168373ffffffffffffffffffffffffffffffffffffffff161415613be6576040517f08c379a0000000000000000000000000000000000000000000000000000000008152600401613bdd906155ea565b60405180910390fd5b600073ffffffffffffffffffffffffffffffffffffffff168273ffffffffffffffffffffffffffffffffffffffff161415613c56576040517f08c379a0000000000000000000000000000000000000000000000000000000008152600401613c4d906154aa565b60405180910390fd5b613c61838383614236565b60008060008573ffffffffffffffffffffffffffffffffffffffff1673ffffffffffffffffffffffffffffffffffffffff16815260200190815260200160002054905081811015613ce7576040517f08c379a0000000000000000000000000000000000000000000000000000000008152600401613cde9061552a565b60405180910390fd5b8181036000808673ffffffffffffffffffffffffffffffffffffffff1673ffffffffffffffffffffffffffffffffffffffff16815260200190815260200160002081905550816000808573ffffffffffffffffffffffffffffffffffffffff1673ffffffffffffffffffffffffffffffffffffffff1681526020019081526020016000206000828254613d7a91906158a1565b925050819055508273ffffffffffffffffffffffffffffffffffffffff168473ffffffffffffffffffffffffffffffffffffffff167fddf252ad1be2c89b69c2b068fc378daa952ba7f163c4a11628f55a4df523b3ef84604051613dde919061576b565b60405180910390a3613df184848461423b565b50505050565b6000600560009054906101000a900473ffffffffffffffffffffffffffffffffffffffff16905081600560006101000a81548173ffffffffffffffffffffffffffffffffffffffff021916908373ffffffffffffffffffffffffffffffffffffffff1602179055508173ffffffffffffffffffffffffffffffffffffffff168173ffffffffffffffffffffffffffffffffffffffff167f8be0079c531659141344cd1fd0a4f28419497f9722a3daafe3b4186f6b6457e060405160405180910390a35050565b600073ffffffffffffffffffffffffffffffffffffffff168273ffffffffffffffffffffffffffffffffffffffff161415613f2d576040517f08c379a0000000000000000000000000000000000000000000000000000000008152600401613f24906155ca565b60405180910390fd5b613f3982600083614236565b60008060008473ffffffffffffffffffffffffffffffffffffffff1673ffffffffffffffffffffffffffffffffffffffff16815260200190815260200160002054905081811015613fbf576040517f08c379a0000000000000000000000000000000000000000000000000000000008152600401613fb6906154ca565b60405180910390fd5b8181036000808573ffffffffffffffffffffffffffffffffffffffff1673ffffffffffffffffffffffffffffffffffffffff1681526020019081526020016000208190555081600260008282546140169190615951565b92505081905550600073ffffffffffffffffffffffffffffffffffffffff168373ffffffffffffffffffffffffffffffffffffffff167fddf252ad1be2c89b69c2b068fc378daa952ba7f163c4a11628f55a4df523b3ef8460405161407b919061576b565b60405180910390a361408f8360008461423b565b505050565b600081836140a29190615951565b905092915050565b60006140b7601654614240565b90506140ce8160135461452e90919063ffffffff16565b601381905550601460008473ffffffffffffffffffffffffffffffffffffffff1673ffffffffffffffffffffffffffffffffffffffff16815260200190815260200160002060405180604001604052808473ffffffffffffffffffffffffffffffffffffffff16815260200142815250908060018154018082558091505060019003906000526020600020906002020160009091909190915060008201518160000160006101000a81548173ffffffffffffffffffffffffffffffffffffffff021916908373ffffffffffffffffffffffffffffffffffffffff1602179055506020820151816001015550506001601560008473ffffffffffffffffffffffffffffffffffffffff1673ffffffffffffffffffffffffffffffffffffffff16815260200190815260200160002060006101000a81548160ff021916908315150217905550600160165461422191906158a1565b6016819055506142318382613a16565b505050565b505050565b505050565b6000600282101561425e57614257620f4240614544565b9050614529565b600482101561427a57614273620ea790614544565b9050614529565b60088210156142965761428f620e0ce0614544565b9050614529565b60108210156142b2576142ab620d7230614544565b9050614529565b60208210156142ce576142c7620cd780614544565b9050614529565b60408210156142ea576142e3620c3cd0614544565b9050614529565b6080821015614306576142ff620ba220614544565b9050614529565b6101008210156143235761431c620b0770614544565b9050614529565b61020082101561434057614339620a6cc0614544565b9050614529565b61040082101561435d576143566209d210614544565b9050614529565b61080082101561437a5761437362093760614544565b9050614529565b6110008210156143975761439062089cb0614544565b9050614529565b6120008210156143b4576143ad62080200614544565b9050614529565b6140008210156143d1576143ca62076750614544565b9050614529565b6180008210156143ee576143e76206cca0614544565b9050614529565b6201000082101561440c57614405620631f0614544565b9050614529565b6202000082101561442a5761442362059740614544565b9050614529565b62040000821015614448576144416204fc90614544565b9050614529565b620800008210156144665761445f620461e0614544565b9050614529565b621000008210156144845761447d6203c730614544565b9050614529565b622000008210156144a25761449b62032c80614544565b9050614529565b624000008210156144c0576144b9620291d0614544565b9050614529565b628000008210156144de576144d76201f720614544565b9050614529565b63010000008210156144fd576144f662015c70614544565b9050614529565b630200000082101561451b5761451461c1c0614544565b9050614529565b614526612710614544565b90505b919050565b6000818361453c91906158a1565b905092915050565b6000670de0b6b3a76400008261455a91906158f7565b9050919050565b82805461456d90615a5e565b90600052602060002090601f01602090048101928261458f57600085556145d6565b82601f106145a857805160ff19168380011785556145d6565b828001600101855582156145d6579182015b828111156145d55782518255916020019190600101906145ba565b5b5090506145e39190614660565b5090565b604051806101400160405280600061ffff16815260200160008019168152602001600073ffffffffffffffffffffffffffffffffffffffff1681526020016060815260200160008152602001600060ff168152602001600060ff168152602001600060ff16815260200160008152602001600081525090565b5b80821115614679576000816000905550600101614661565b5090565b600061469061468b846157c6565b6157a1565b9050828152602081018484840111156146ac576146ab615c2e565b5b6146b78482856159f2565b509392505050565b6000813590506146ce8161607d565b92915050565b6000813590506146e381616094565b92915050565b6000815190506146f881616094565b92915050565b600082601f83011261471357614712615c1f565b5b813561472384826020860161467d565b91505092915050565b6000610140828403121561474357614742615c24565b5b61474e6101406157a1565b9050600061475e848285016148d2565b6000830152506020614772848285016146d4565b6020830152506040614786848285016146bf565b604083015250606082013567ffffffffffffffff8111156147aa576147a9615c29565b5b6147b6848285016146fe565b60608301525060806147ca848285016148e7565b60808301525060a06147de84828501614911565b60a08301525060c06147f284828501614911565b60c08301525060e061480684828501614911565b60e08301525061010061481b848285016148e7565b61010083015250610120614831848285016148e7565b6101208301525092915050565b60006080828403121561485457614853615c24565b5b61485e60806157a1565b9050600061486e848285016146d4565b6000830152506020614882848285016146bf565b602083015250604082013567ffffffffffffffff8111156148a6576148a5615c29565b5b6148b2848285016146fe565b60408301525060606148c6848285016148e7565b60608301525092915050565b6000813590506148e1816160ab565b92915050565b6000813590506148f6816160c2565b92915050565b60008151905061490b816160c2565b92915050565b600081359050614920816160d9565b92915050565b60006020828403121561493c5761493b615c38565b5b600061494a848285016146bf565b91505092915050565b6000806040838503121561496a57614969615c38565b5b6000614978858286016146bf565b9250506020614989858286016146bf565b9150509250929050565b6000806000606084860312156149ac576149ab615c38565b5b60006149ba868287016146bf565b93505060206149cb868287016146bf565b92505060406149dc868287016148e7565b9150509250925092565b600080604083850312156149fd576149fc615c38565b5b6000614a0b858286016146bf565b9250506020614a1c858286016146d4565b9150509250929050565b60008060408385031215614a3d57614a3c615c38565b5b6000614a4b858286016146bf565b9250506020614a5c858286016148e7565b9150509250929050565b600060208284031215614a7c57614a7b615c38565b5b6000614a8a848285016146d4565b91505092915050565b600060208284031215614aa957614aa8615c38565b5b6000614ab7848285016146e9565b91505092915050565b60008060408385031215614ad757614ad6615c38565b5b6000614ae5858286016146d4565b9250506020614af6858286016146bf565b9150509250929050565b60008060408385031215614b1757614b16615c38565b5b6000614b25858286016146d4565b925050602083013567ffffffffffffffff811115614b4657614b45615c33565b5b614b52858286016146fe565b9150509250929050565b600080600060608486031215614b7557614b74615c38565b5b6000614b83868287016146d4565b935050602084013567ffffffffffffffff811115614ba457614ba3615c33565b5b614bb0868287016146fe565b925050604084013567ffffffffffffffff811115614bd157614bd0615c33565b5b614bdd868287016146fe565b9150509250925092565b60008060408385031215614bfe57614bfd615c38565b5b6000614c0c858286016146d4565b925050602083013567ffffffffffffffff811115614c2d57614c2c615c33565b5b614c398582860161483e565b9150509250929050565b60008060408385031215614c5a57614c59615c38565b5b6000614c68858286016146d4565b9250506020614c79858286016148e7565b9150509250929050565b600060208284031215614c9957614c98615c38565b5b600082013567ffffffffffffffff811115614cb757614cb6615c33565b5b614cc38482850161472c565b91505092915050565b600060208284031215614ce257614ce1615c38565b5b6000614cf0848285016148d2565b91505092915050565b60008060408385031215614d1057614d0f615c38565b5b6000614d1e858286016148d2565b9250506020614d2f858286016146d4565b9150509250929050565b600080600060608486031215614d5257614d51615c38565b5b6000614d60868287016148d2565b9350506020614d71868287016146d4565b9250506040614d82868287016148e7565b9150509250925092565b60008060408385031215614da357614da2615c38565b5b6000614db1858286016148d2565b9250506020614dc2858286016148e7565b9150509250929050565b600060208284031215614de257614de1615c38565b5b6000614df0848285016148e7565b91505092915050565b600060208284031215614e0f57614e0e615c38565b5b6000614e1d848285016148fc565b91505092915050565b6000614e328383614f52565b60208301905092915050565b6000614e4a8383615310565b905092915050565b614e5b81615985565b82525050565b614e6a81615985565b82525050565b6000614e7b82615817565b614e858185615852565b9350614e90836157f7565b8060005b83811015614ec1578151614ea88882614e26565b9750614eb383615838565b925050600181019050614e94565b5085935050505092915050565b6000614ed982615822565b614ee38185615863565b935083602082028501614ef585615807565b8060005b85811015614f315784840389528151614f128582614e3e565b9450614f1d83615845565b925060208a01995050600181019050614ef9565b50829750879550505050505092915050565b614f4c81615997565b82525050565b614f5b816159a3565b82525050565b614f6a816159a3565b82525050565b614f79816159a3565b82525050565b6000614f8a8261582d565b614f948185615874565b9350614fa4818560208601615a01565b614fad81615c3d565b840191505092915050565b6000614fc38261582d565b614fcd8185615885565b9350614fdd818560208601615a01565b614fe681615c3d565b840191505092915050565b6000614ffc8261582d565b6150068185615896565b9350615016818560208601615a01565b80840191505092915050565b600061502f602383615885565b915061503a82615c4e565b604082019050919050565b6000615052602283615885565b915061505d82615c9d565b604082019050919050565b6000615075602683615885565b915061508082615cec565b604082019050919050565b6000615098602283615885565b91506150a382615d3b565b604082019050919050565b60006150bb602683615885565b91506150c682615d8a565b604082019050919050565b60006150de602483615885565b91506150e982615dd9565b604082019050919050565b6000615101602883615885565b915061510c82615e28565b604082019050919050565b6000615124602083615885565b915061512f82615e77565b602082019050919050565b6000615147601883615885565b915061515282615ea0565b602082019050919050565b600061516a602183615885565b915061517582615ec9565b604082019050919050565b600061518d602583615885565b915061519882615f18565b604082019050919050565b60006151b0602483615885565b91506151bb82615f67565b604082019050919050565b60006151d3602283615885565b91506151de82615fb6565b604082019050919050565b60006151f6602583615885565b915061520182616005565b604082019050919050565b6000615219601f83615885565b915061522482616054565b602082019050919050565b6000610140830160008301516152486000860182615373565b50602083015161525b6020860182614f52565b50604083015161526e6040860182614e52565b50606083015184820360608601526152868282614f7f565b915050608083015161529b6080860182615391565b5060a08301516152ae60a08601826153be565b5060c08301516152c160c08601826153be565b5060e08301516152d460e08601826153be565b506101008301516152e9610100860182615391565b506101208301516152fe610120860182615391565b508091505092915050565b8082525050565b60006080830160008301516153286000860182614f52565b50602083015161533b6020860182614e52565b50604083015184820360408601526153538282614f7f565b91505060608301516153686060860182615391565b508091505092915050565b61537c816159ad565b82525050565b61538b816159ad565b82525050565b61539a816159db565b82525050565b6153a9816159db565b82525050565b6153b8816159db565b82525050565b6153c7816159e5565b82525050565b6153d6816159e5565b82525050565b60006153e88284614ff1565b915081905092915050565b60006020820190506154086000830184614e61565b92915050565b600060208201905081810360008301526154288184614e70565b905092915050565b6000602082019050818103600083015261544a8184614ece565b905092915050565b60006020820190506154676000830184614f43565b92915050565b60006020820190506154826000830184614f61565b92915050565b600060208201905081810360008301526154a28184614fb8565b905092915050565b600060208201905081810360008301526154c381615022565b9050919050565b600060208201905081810360008301526154e381615045565b9050919050565b6000602082019050818103600083015261550381615068565b9050919050565b600060208201905081810360008301526155238161508b565b9050919050565b60006020820190508181036000830152615543816150ae565b9050919050565b60006020820190508181036000830152615563816150d1565b9050919050565b60006020820190508181036000830152615583816150f4565b9050919050565b600060208201905081810360008301526155a381615117565b9050919050565b600060208201905081810360008301526155c38161513a565b9050919050565b600060208201905081810360008301526155e38161515d565b9050919050565b6000602082019050818103600083015261560381615180565b9050919050565b60006020820190508181036000830152615623816151a3565b9050919050565b60006020820190508181036000830152615643816151c6565b9050919050565b60006020820190508181036000830152615663816151e9565b9050919050565b600060208201905081810360008301526156838161520c565b9050919050565b600060208201905081810360008301526156a4818461522f565b905092915050565b60006020820190506156c16000830184615309565b92915050565b60006040820190506156dc6000830185615309565b6156e96020830184614f70565b9392505050565b60006060820190506157056000830186615309565b6157126020830185614f70565b61571f60408301846153af565b949350505050565b600060408201905061573c6000830185615309565b61574960208301846153af565b9392505050565b60006020820190506157656000830184615382565b92915050565b600060208201905061578060008301846153a0565b92915050565b600060208201905061579b60008301846153cd565b92915050565b60006157ab6157bc565b90506157b78282615a90565b919050565b6000604051905090565b600067ffffffffffffffff8211156157e1576157e0615bf0565b5b6157ea82615c3d565b9050602081019050919050565b6000819050602082019050919050565b6000819050602082019050919050565b600081519050919050565b600081519050919050565b600081519050919050565b6000602082019050919050565b6000602082019050919050565b600082825260208201905092915050565b600082825260208201905092915050565b600082825260208201905092915050565b600082825260208201905092915050565b600081905092915050565b60006158ac826159db565b91506158b7836159db565b9250827fffffffffffffffffffffffffffffffffffffffffffffffffffffffffffffffff038211156158ec576158eb615b34565b5b828201905092915050565b6000615902826159db565b915061590d836159db565b9250817fffffffffffffffffffffffffffffffffffffffffffffffffffffffffffffffff048311821515161561594657615945615b34565b5b828202905092915050565b600061595c826159db565b9150615967836159db565b92508282101561597a57615979615b34565b5b828203905092915050565b6000615990826159bb565b9050919050565b60008115159050919050565b6000819050919050565b600061ffff82169050919050565b600073ffffffffffffffffffffffffffffffffffffffff82169050919050565b6000819050919050565b600060ff82169050919050565b82818337600083830152505050565b60005b83811015615a1f578082015181840152602081019050615a04565b83811115615a2e576000848401525b50505050565b6000615a3f826159e5565b91506000821415615a5357615a52615b34565b5b600182039050919050565b60006002820490506001821680615a7657607f821691505b60208210811415615a8a57615a89615b63565b5b50919050565b615a9982615c3d565b810181811067ffffffffffffffff82111715615ab857615ab7615bf0565b5b80604052505050565b6000615acc826159db565b91507fffffffffffffffffffffffffffffffffffffffffffffffffffffffffffffffff821415615aff57615afe615b34565b5b600182019050919050565b6000615b15826159e5565b915060ff821415615b2957615b28615b34565b5b600182019050919050565b7f4e487b7100000000000000000000000000000000000000000000000000000000600052601160045260246000fd5b7f4e487b7100000000000000000000000000000000000000000000000000000000600052602260045260246000fd5b7f4e487b7100000000000000000000000000000000000000000000000000000000600052603160045260246000fd5b7f4e487b7100000000000000000000000000000000000000000000000000000000600052603260045260246000fd5b7f4e487b7100000000000000000000000000000000000000000000000000000000600052604160045260246000fd5b600080fd5b600080fd5b600080fd5b600080fd5b600080fd5b600080fd5b6000601f19601f8301169050919050565b7f45524332303a207472616e7366657220746f20746865207a65726f206164647260008201527f6573730000000000000000000000000000000000000000000000000000000000602082015250565b7f45524332303a206275726e20616d6f756e7420657863656564732062616c616e60008201527f6365000000000000000000000000000000000000000000000000000000000000602082015250565b7f4f776e61626c653a206e6577206f776e657220697320746865207a65726f206160008201527f6464726573730000000000000000000000000000000000000000000000000000602082015250565b7f45524332303a20617070726f766520746f20746865207a65726f20616464726560008201527f7373000000000000000000000000000000000000000000000000000000000000602082015250565b7f45524332303a207472616e7366657220616d6f756e742065786365656473206260008201527f616c616e63650000000000000000000000000000000000000000000000000000602082015250565b7f43616e6e6f74207472616e736665722066726f6d20696e76616c69642061646460008201527f7265737300000000000000000000000000000000000000000000000000000000602082015250565b7f45524332303a207472616e7366657220616d6f756e742065786365656473206160008201527f6c6c6f77616e6365000000000000000000000000000000000000000000000000602082015250565b7f4f776e61626c653a2063616c6c6572206973206e6f7420746865206f776e6572600082015250565b7f43616c6c6572206973206e6f7420617574686f72697a65640000000000000000600082015250565b7f45524332303a206275726e2066726f6d20746865207a65726f2061646472657360008201527f7300000000000000000000000000000000000000000000000000000000000000602082015250565b7f45524332303a207472616e736665722066726f6d20746865207a65726f20616460008201527f6472657373000000000000000000000000000000000000000000000000000000602082015250565b7f45524332303a20617070726f76652066726f6d20746865207a65726f2061646460008201527f7265737300000000000000000000000000000000000000000000000000000000602082015250565b7f43616e6e6f74207472616e7366657220746f20696e76616c696420616464726560008201527f7373000000000000000000000000000000000000000000000000000000000000602082015250565b7f45524332303a2064656372656173656420616c6c6f77616e63652062656c6f7760008201527f207a65726f000000000000000000000000000000000000000000000000000000602082015250565b7f45524332303a206d696e7420746f20746865207a65726f206164647265737300600082015250565b61608681615985565b811461609157600080fd5b50565b61609d816159a3565b81146160a857600080fd5b50565b6160b4816159ad565b81146160bf57600080fd5b50565b6160cb816159db565b81146160d657600080fd5b50565b6160e2816159e5565b81146160ed57600080fd5b5056fea2646970667358221220917e79c0eeafc496b9976ef076f8ce741df60b9c955f33b3da6fe85726cdc74e64736f6c63430008060033",
  "immutableReferences": {},
  "source": "// SPDX-License-Identifier: MIT\r\npragma solidity >=0.4.21 <0.9.0;\r\n\r\nimport \"@openzeppelin/contracts/token/ERC20/ERC20.sol\";\r\nimport \"@openzeppelin/contracts/access/Ownable.sol\";\r\nimport \"@openzeppelin/contracts/security/Pausable.sol\";\r\nimport \"@openzeppelin/contracts/security/ReentrancyGuard.sol\";\r\nimport \"@openzeppelin/contracts/utils/math/SafeMath.sol\";\r\nimport { Lib, IterableMapping } from \"./Lib.sol\";\r\n\r\ncontract IBet is ERC20(\"Crypto Bet\",\"IBET\"), Ownable, Pausable, ReentrancyGuard {\r\n      using SafeMath for uint256;\r\n\r\n      using IterableMapping for IterableMapping.Map;\r\n\r\naddress constant private ESCROW_ACCOUNT_ADDRESS = 0x4ADaFa1738F7e60Db3c0415Eb790eAf70010E291;\r\n\r\nmapping(bytes32 => Lib.Bet) private bets;\r\nmapping(bytes32 => Lib.BetProperties) private betProperties;\r\n\r\nmapping(address => bytes32[]) private betsByAddress;\r\n\r\nmapping(address => bool) private authorizedCallers;\r\n\r\nmapping(uint16 => IterableMapping.Map) private pendingArbitrationQueue;\r\n\r\nmapping(bytes32 => Lib.ArbitrationState) private publicArbitrations;\r\n\r\nmapping(bytes32 => Lib.SubmittedOutComeProperties) private submittedOutComeProperties;\r\n\r\nIterableMapping.Map private openBetsQueue;\r\n\r\nuint256 private MAX_SHARING_BONUS = 3328599575200 * 1000000000000000000;\r\nuint256 private SHARING_BONUS_DISBURSED = 0;\r\nmapping(address => Lib.SharingBonusReceipt[]) private SharingBonusMap;\r\nmapping(address => bool) private SharingBonusReceiverMap;\r\nuint256 private SHARING_BONUS_DISBURSED_COUNT = 0;\r\n\r\nuint256 private MAX_SERVICE_TOKENS = 1000000000000 * 1000000000000000000;\r\nuint256 private SERVICE_TOKENS_DISBURSED = 0;\r\nuint256 constant private GENESIS_TOKEN = 1;\r\n\r\nuint256 private MAX_SUPPLY = MAX_SHARING_BONUS + MAX_SERVICE_TOKENS + GENESIS_TOKEN;\r\n\r\n// This will be used to determine the arbitratorCommissionPercent, it will exponentially lesson until the maxsupply is reached. once max supply is exhausted, betters will need to pay 0.35% commission\r\nuint256 private TOTAL_BET_SO_FAR = 0;\r\nuint256 private TOTAL_BET_COUNT_SO_FAR = 0;\r\nuint16 private ARBITRATION_COMPLEXITY_INDEX = 0;\r\n\r\nconstructor() {\r\n    _mint(msg.sender, 1 * 1000000000000000000);\r\n}\r\n\r\nmodifier IsAuthorizedCaller()\r\n{\r\n   require(authorizedCallers[msg.sender] == true, \"Caller is not authorized\");\r\n    _;\r\n}\r\n\r\nfunction authorizeCaller(address _address) public onlyOwner {\r\n   authorizedCallers[_address] = true;\r\n}\r\n\r\nfunction deAuthorizeCaller(address _address) private onlyOwner {\r\n   authorizedCallers[_address] = false;\r\n}\r\n\r\nfunction saveBet(Lib.Bet memory bet)\r\npublic IsAuthorizedCaller returns (bool){\r\n   bets[bet.betKey] = bet;\r\n   return true;\r\n}\r\n\r\nfunction getServiceTokensDisbursedCount() public IsAuthorizedCaller view returns (uint256){\r\n   return SERVICE_TOKENS_DISBURSED;\r\n}\r\n\r\nfunction getMaxServiceTokensCount() public IsAuthorizedCaller view returns (uint256){\r\n   return MAX_SERVICE_TOKENS;\r\n}\r\n\r\nfunction safeAddBetsToAddress(address addr, bytes32 betKey) public IsAuthorizedCaller {\r\n\r\n      bool containsBet = false;\r\n      for(uint256 index = 0; index < betsByAddress[addr].length; index++)\r\n      {\r\n         if(betsByAddress[addr][index] == betKey)\r\n         {\r\n            containsBet = true;\r\n         }\r\n      }\r\n      if(containsBet == false)\r\n      {\r\n         betsByAddress[addr].push(betKey);\r\n      }\r\n}\r\n\r\nfunction getBet(bytes32 betKey) public IsAuthorizedCaller view  returns (Lib.Bet memory bet)\r\n{\r\n   return bets[betKey];\r\n}\r\n\r\nfunction saveBetProperty(bytes32 betKey, string memory key, string memory value)\r\npublic IsAuthorizedCaller returns (bool){\r\n   betProperties[betKey].properties[key] = value;\r\n   return true;\r\n}\r\n\r\nfunction getBetProperty(bytes32 betKey, string memory key)\r\npublic IsAuthorizedCaller view returns (string memory){\r\n   return betProperties[betKey].properties[key];\r\n}\r\n\r\nfunction reward(address rewardAddress, uint256 amount) public IsAuthorizedCaller returns (bool){\r\n     _mint(rewardAddress, amount);\r\n     return true;\r\n}\r\n\r\nfunction burn(address fromAddress, uint256 amount) public IsAuthorizedCaller returns (bool){\r\n     _burn(fromAddress, amount);\r\n     return true;\r\n}\r\n\r\nfunction transferToEscrow(address fromAddress, uint256 amount) public IsAuthorizedCaller returns (bool){\r\n     require(fromAddress != address(0), \"Cannot transfer from invalid address\");\r\n     _transfer(fromAddress, ESCROW_ACCOUNT_ADDRESS, amount);\r\n     return true;\r\n}\r\n\r\nfunction transferFromEscrow(address toAddress, uint256 amount) public IsAuthorizedCaller returns (bool){\r\n   require(toAddress != address(0), \"Cannot transfer to invalid address\");\r\n      _transfer(ESCROW_ACCOUNT_ADDRESS, toAddress, amount);\r\n     return true;\r\n}\r\n\r\nfunction getMyBetKeys(address addr) public IsAuthorizedCaller view returns (bytes32[] memory){\r\n     return betsByAddress[addr];\r\n}\r\n\r\nfunction getOpenBetsCount() public IsAuthorizedCaller view returns (uint){\r\n   return openBetsQueue.size();\r\n}\r\n\r\nfunction getOpenBetAtIndex(uint256 index) public IsAuthorizedCaller view returns (bytes32 betKey){\r\n   return openBetsQueue.getKeyAtIndex(index);\r\n}\r\n\r\nfunction removeOpenBetByValue(bytes32 betKey) public IsAuthorizedCaller{\r\n   return openBetsQueue.remove(betKey);\r\n}\r\n\r\nfunction addOpenBetByValue(bytes32 betKey, uint256 val) public IsAuthorizedCaller{\r\n   return openBetsQueue.set(betKey, val);\r\n}\r\n\r\nfunction getPendingArbitrationCount(uint16 complexityIndex) public IsAuthorizedCaller view returns (uint){\r\n   return pendingArbitrationQueue[complexityIndex].size();\r\n}\r\n\r\nfunction getPendingArbitrationAtIndex(uint16 complexityIndex, uint256 index) public IsAuthorizedCaller view returns (bytes32){\r\n   return pendingArbitrationQueue[complexityIndex].getKeyAtIndex(index);\r\n}\r\n\r\nfunction removePendingArbitrationByValue(uint16 complexityIndex, bytes32 betKey) public IsAuthorizedCaller{\r\n   return pendingArbitrationQueue[complexityIndex].remove(betKey);\r\n}\r\n\r\nfunction addPendingArbitrationByValue(uint16 complexityIndex, bytes32 betKey, uint256 val) public IsAuthorizedCaller{\r\n   return pendingArbitrationQueue[complexityIndex].set(betKey, val);\r\n}\r\n\r\nfunction getSubmittedOutComes(bytes32 betKey) public IsAuthorizedCaller view returns (Lib.SubmittedOutCome[] memory){\r\n   return publicArbitrations[betKey].submittedOutComes;\r\n}\r\n\r\nfunction getSubmittedOutComesCount(bytes32 betKey) public IsAuthorizedCaller view returns (uint256){\r\n   return publicArbitrations[betKey].submittedOutComes.length;\r\n}\r\n\r\nfunction addSubmittedOutcome(bytes32 betKey, Lib.SubmittedOutCome memory outcome) public IsAuthorizedCaller {\r\n   publicArbitrations[betKey].submittedOutComes.push(outcome);\r\n}\r\n\r\nfunction getTotalBetSoFar() public IsAuthorizedCaller view returns (uint256){\r\n   return TOTAL_BET_SO_FAR;\r\n}\r\n\r\nfunction updateTotalBetSoFar(uint256 totalBetSoFar) public IsAuthorizedCaller {\r\n   TOTAL_BET_SO_FAR = totalBetSoFar;\r\n}\r\n\r\nfunction getArbitrationComplexityIndex() public IsAuthorizedCaller view returns (uint16){\r\n   return ARBITRATION_COMPLEXITY_INDEX;\r\n}\r\n\r\nfunction updateArbitrationComplexityIndex(uint16 complexityIndex) public IsAuthorizedCaller {\r\n   ARBITRATION_COMPLEXITY_INDEX = complexityIndex;\r\n}\r\n\r\nfunction incrementTotalBetCountSoFar() public IsAuthorizedCaller {\r\n   TOTAL_BET_COUNT_SO_FAR++;\r\n}\r\n\r\nfunction isOutcomeSubmittedBySubmitter(bytes32 betKey, address submitter) public IsAuthorizedCaller view returns (bool){\r\n   return publicArbitrations[betKey].submissions[submitter];\r\n}\r\n\r\nfunction markSubmitterOutcomeSubmitted(bytes32 betKey, address submitter) public IsAuthorizedCaller {\r\n   publicArbitrations[betKey].submissions[submitter] = true;\r\n}\r\n\r\nfunction saveSubmittedOutComeProperty(bytes32 submittedOutcomeKey, string memory key, string memory value)\r\npublic IsAuthorizedCaller returns (bool){\r\n   submittedOutComeProperties[submittedOutcomeKey].properties[key] = value;\r\n   return true;\r\n}\r\n\r\nfunction getSubmittedOutComeProperty(bytes32 submittedOutcomeKey, string memory key)\r\npublic IsAuthorizedCaller view returns (string memory){\r\n   return submittedOutComeProperties[submittedOutcomeKey].properties[key];\r\n}\r\n\r\nfunction transfer(address recipient, uint256 amount) public override returns (bool) {\r\n  \r\n   if(SHARING_BONUS_DISBURSED < MAX_SHARING_BONUS && amount>0 && SharingBonusReceiverMap[recipient] != true)\r\n   {\r\n      if(SharingBonusMap[_msgSender()].length>0)\r\n      {\r\n         uint256 timesSharedInLast7Days = 0;\r\n         uint8 i = 0;\r\n         while (i < SharingBonusMap[_msgSender()].length) { // while loop\r\n             if(block.timestamp.sub(SharingBonusMap[_msgSender()][i].timestamp)> 7 days){\r\n               SharingBonusMap[_msgSender()][i] = SharingBonusMap[_msgSender()][SharingBonusMap[_msgSender()].length-1];\r\n               SharingBonusMap[_msgSender()].pop();\r\n               i--;\r\n            } else {\r\n               timesSharedInLast7Days++;\r\n            }\r\n           i++;\r\n         }\r\n         if(timesSharedInLast7Days<4){\r\n            rewardSharingBonus(_msgSender(), recipient);\r\n         }\r\n      } else\r\n      {\r\n        rewardSharingBonus(_msgSender(), recipient);\r\n      }\r\n   }\r\n\r\n   _transfer(_msgSender(), recipient, amount);\r\n   return true;\r\n}\r\n\r\nfunction rewardSharingBonus(address sender, address recipient) private {\r\n   // only every 7 days\r\n   uint256 rewardBonus = calculateSharingBonus(SHARING_BONUS_DISBURSED_COUNT);\r\n   SHARING_BONUS_DISBURSED = SHARING_BONUS_DISBURSED.add(rewardBonus);\r\n   SharingBonusMap[sender].push(Lib.SharingBonusReceipt(recipient, block.timestamp));\r\n   SharingBonusReceiverMap[recipient] = true;\r\n   SHARING_BONUS_DISBURSED_COUNT = SHARING_BONUS_DISBURSED_COUNT + 1;\r\n   _mint(sender, rewardBonus);\r\n}\r\n\r\n\r\n\r\nfunction calculateSharingBonus(uint256 disbursedCount) internal pure returns (uint256){\r\n\r\n      //y =((-39600) * (log(base2)x))) + 1000000\r\n      if(disbursedCount < 2) return Lib.ibetTokenWithFullDecimals(1000000);\r\n      if(disbursedCount < 4) return Lib.ibetTokenWithFullDecimals(960400);\r\n      if(disbursedCount < 8) return Lib.ibetTokenWithFullDecimals(920800);\r\n      if(disbursedCount < 16) return Lib.ibetTokenWithFullDecimals(881200);\r\n      if(disbursedCount < 32) return Lib.ibetTokenWithFullDecimals(841600);\r\n      if(disbursedCount < 64) return Lib.ibetTokenWithFullDecimals(802000);\r\n      if(disbursedCount < 128) return Lib.ibetTokenWithFullDecimals(762400);\r\n      if(disbursedCount < 256) return Lib.ibetTokenWithFullDecimals(722800);\r\n      if(disbursedCount < 512) return Lib.ibetTokenWithFullDecimals(683200);\r\n      if(disbursedCount < 1024) return Lib.ibetTokenWithFullDecimals(643600);\r\n      if(disbursedCount < 2048) return Lib.ibetTokenWithFullDecimals(604000);\r\n      if(disbursedCount < 4096) return Lib.ibetTokenWithFullDecimals(564400);\r\n      if(disbursedCount < 8192) return Lib.ibetTokenWithFullDecimals(524800);\r\n      if(disbursedCount < 16384) return Lib.ibetTokenWithFullDecimals(485200);\r\n      if(disbursedCount < 32768) return Lib.ibetTokenWithFullDecimals(445600);\r\n      if(disbursedCount < 65536) return Lib.ibetTokenWithFullDecimals(406000);\r\n      if(disbursedCount < 131072) return Lib.ibetTokenWithFullDecimals(366400);\r\n      if(disbursedCount < 262144) return Lib.ibetTokenWithFullDecimals(326800);\r\n      if(disbursedCount < 524288) return Lib.ibetTokenWithFullDecimals(287200);\r\n      if(disbursedCount < 1048576) return Lib.ibetTokenWithFullDecimals(247600);\r\n      if(disbursedCount < 2097152) return Lib.ibetTokenWithFullDecimals(208000);\r\n      if(disbursedCount < 4194304) return Lib.ibetTokenWithFullDecimals(168400);\r\n      if(disbursedCount < 8388608) return Lib.ibetTokenWithFullDecimals(128800);\r\n      if(disbursedCount < 16777216) return Lib.ibetTokenWithFullDecimals(89200);\r\n      if(disbursedCount < 33554432) return Lib.ibetTokenWithFullDecimals(49600);\r\n      return Lib.ibetTokenWithFullDecimals(10000);\r\n}\r\n\r\n}",
  "sourcePath": "D:\\eberrysoftwares\\ibet\\contracts\\IBet.sol",
  "compiler": {
    "name": "solc",
    "version": "0.8.6+commit.11564f7e.Emscripten.clang"
  },
  "schemaVersion": "3.4.2",
  "updatedAt": "2021-08-21T06:52:27.942Z",
  "networkType": "ethereum",
  "devdoc": {
    "kind": "dev",
    "methods": {
      "allowance(address,address)": {
        "details": "See {IERC20-allowance}."
      },
      "approve(address,uint256)": {
        "details": "See {IERC20-approve}. Requirements: - `spender` cannot be the zero address."
      },
      "balanceOf(address)": {
        "details": "See {IERC20-balanceOf}."
      },
      "decimals()": {
        "details": "Returns the number of decimals used to get its user representation. For example, if `decimals` equals `2`, a balance of `505` tokens should be displayed to a user as `5,05` (`505 / 10 ** 2`). Tokens usually opt for a value of 18, imitating the relationship between Ether and Wei. This is the value {ERC20} uses, unless this function is overridden; NOTE: This information is only used for _display_ purposes: it in no way affects any of the arithmetic of the contract, including {IERC20-balanceOf} and {IERC20-transfer}."
      },
      "decreaseAllowance(address,uint256)": {
        "details": "Atomically decreases the allowance granted to `spender` by the caller. This is an alternative to {approve} that can be used as a mitigation for problems described in {IERC20-approve}. Emits an {Approval} event indicating the updated allowance. Requirements: - `spender` cannot be the zero address. - `spender` must have allowance for the caller of at least `subtractedValue`."
      },
      "increaseAllowance(address,uint256)": {
        "details": "Atomically increases the allowance granted to `spender` by the caller. This is an alternative to {approve} that can be used as a mitigation for problems described in {IERC20-approve}. Emits an {Approval} event indicating the updated allowance. Requirements: - `spender` cannot be the zero address."
      },
      "name()": {
        "details": "Returns the name of the token."
      },
      "owner()": {
        "details": "Returns the address of the current owner."
      },
      "paused()": {
        "details": "Returns true if the contract is paused, and false otherwise."
      },
      "renounceOwnership()": {
        "details": "Leaves the contract without owner. It will not be possible to call `onlyOwner` functions anymore. Can only be called by the current owner. NOTE: Renouncing ownership will leave the contract without an owner, thereby removing any functionality that is only available to the owner."
      },
      "symbol()": {
        "details": "Returns the symbol of the token, usually a shorter version of the name."
      },
      "totalSupply()": {
        "details": "See {IERC20-totalSupply}."
      },
      "transfer(address,uint256)": {
        "details": "See {IERC20-transfer}. Requirements: - `recipient` cannot be the zero address. - the caller must have a balance of at least `amount`."
      },
      "transferFrom(address,address,uint256)": {
        "details": "See {IERC20-transferFrom}. Emits an {Approval} event indicating the updated allowance. This is not required by the EIP. See the note at the beginning of {ERC20}. Requirements: - `sender` and `recipient` cannot be the zero address. - `sender` must have a balance of at least `amount`. - the caller must have allowance for ``sender``'s tokens of at least `amount`."
      },
      "transferOwnership(address)": {
        "details": "Transfers ownership of the contract to a new account (`newOwner`). Can only be called by the current owner."
      }
    },
    "version": 1
  },
  "userdoc": {
    "kind": "user",
    "methods": {},
    "version": 1
  }
}