{
  "contractName": "IBetQueryV1",
  "abi": [
    {
      "inputs": [
        {
          "internalType": "address",
          "name": "sureBetDataContract",
          "type": "address"
        }
      ],
      "stateMutability": "nonpayable",
      "type": "constructor"
    },
    {
      "anonymous": false,
      "inputs": [
        {
          "indexed": true,
          "internalType": "address",
          "name": "previousOwner",
          "type": "address"
        },
        {
          "indexed": true,
          "internalType": "address",
          "name": "newOwner",
          "type": "address"
        }
      ],
      "name": "OwnershipTransferred",
      "type": "event"
    },
    {
      "anonymous": false,
      "inputs": [
        {
          "indexed": false,
          "internalType": "address",
          "name": "account",
          "type": "address"
        }
      ],
      "name": "Paused",
      "type": "event"
    },
    {
      "anonymous": false,
      "inputs": [
        {
          "indexed": false,
          "internalType": "address",
          "name": "account",
          "type": "address"
        }
      ],
      "name": "Unpaused",
      "type": "event"
    },
    {
      "inputs": [],
      "name": "owner",
      "outputs": [
        {
          "internalType": "address",
          "name": "",
          "type": "address"
        }
      ],
      "stateMutability": "view",
      "type": "function"
    },
    {
      "inputs": [],
      "name": "paused",
      "outputs": [
        {
          "internalType": "bool",
          "name": "",
          "type": "bool"
        }
      ],
      "stateMutability": "view",
      "type": "function"
    },
    {
      "inputs": [],
      "name": "renounceOwnership",
      "outputs": [],
      "stateMutability": "nonpayable",
      "type": "function"
    },
    {
      "inputs": [
        {
          "internalType": "address",
          "name": "newOwner",
          "type": "address"
        }
      ],
      "name": "transferOwnership",
      "outputs": [],
      "stateMutability": "nonpayable",
      "type": "function"
    },
    {
      "inputs": [
        {
          "internalType": "bytes32",
          "name": "betKey",
          "type": "bytes32"
        }
      ],
      "name": "getBetDetails",
      "outputs": [
        {
          "internalType": "string[]",
          "name": "",
          "type": "string[]"
        }
      ],
      "stateMutability": "view",
      "type": "function"
    },
    {
      "inputs": [],
      "name": "getMyBets",
      "outputs": [
        {
          "internalType": "string",
          "name": "",
          "type": "string"
        }
      ],
      "stateMutability": "view",
      "type": "function"
    },
    {
      "inputs": [
        {
          "internalType": "uint16",
          "name": "year",
          "type": "uint16"
        },
        {
          "internalType": "uint16",
          "name": "month",
          "type": "uint16"
        },
        {
          "internalType": "uint16",
          "name": "day",
          "type": "uint16"
        }
      ],
      "name": "getOpenBets",
      "outputs": [
        {
          "internalType": "string",
          "name": "",
          "type": "string"
        }
      ],
      "stateMutability": "view",
      "type": "function"
    },
    {
      "inputs": [],
      "name": "pause",
      "outputs": [],
      "stateMutability": "nonpayable",
      "type": "function"
    },
    {
      "inputs": [],
      "name": "unpause",
      "outputs": [],
      "stateMutability": "nonpayable",
      "type": "function"
    }
  ],
  "bytecode": "0x60806040523480156200001157600080fd5b5060405162003a0638038062003a068339818101604052810190620000379190620001ae565b6200006962000054620000cb640100000000026401000000009004565b620000d3640100000000026401000000009004565b60008060146101000a81548160ff02191690831515021790555080600160006101000a81548173ffffffffffffffffffffffffffffffffffffffff021916908373ffffffffffffffffffffffffffffffffffffffff1602179055505062000233565b600033905090565b60008060009054906101000a900473ffffffffffffffffffffffffffffffffffffffff169050816000806101000a81548173ffffffffffffffffffffffffffffffffffffffff021916908373ffffffffffffffffffffffffffffffffffffffff1602179055508173ffffffffffffffffffffffffffffffffffffffff168173ffffffffffffffffffffffffffffffffffffffff167f8be0079c531659141344cd1fd0a4f28419497f9722a3daafe3b4186f6b6457e060405160405180910390a35050565b600081519050620001a88162000219565b92915050565b600060208284031215620001c757620001c662000214565b5b6000620001d78482850162000197565b91505092915050565b6000620001ed82620001f4565b9050919050565b600073ffffffffffffffffffffffffffffffffffffffff82169050919050565b600080fd5b6200022481620001e0565b81146200023057600080fd5b50565b6137c380620002436000396000f3fe608060405234801561001057600080fd5b50600436106100b0576000357c0100000000000000000000000000000000000000000000000000000000900480638456cb59116100835780638456cb59146101175780638da5cb5b1461012157806399535bd71461013f5780639c11180d1461015d578063f2fde38b1461018d576100b0565b806319275d79146100b55780633f4ba83a146100e55780635c975abb146100ef578063715018a61461010d575b600080fd5b6100cf60048036038101906100ca91906128a0565b6101a9565b6040516100dc9190612ce0565b60405180910390f35b6100ed6105cc565b005b6100f7610652565b6040516101049190612c5f565b60405180910390f35b610115610668565b005b61011f6106f0565b005b610129610776565b6040516101369190612c22565b60405180910390f35b61014761079f565b6040516101549190612ce0565b60405180910390f35b610177600480360381019061017291906127b4565b611372565b6040516101849190612c3d565b60405180910390f35b6101a760048036038101906101a29190612711565b611f84565b005b60608060005b600160009054906101000a900473ffffffffffffffffffffffffffffffffffffffff1673ffffffffffffffffffffffffffffffffffffffff1663584603c987878760006040518563ffffffff167c010000000000000000000000000000000000000000000000000000000002815260040161022d94939291906130c9565b60206040518083038186803b15801561024557600080fd5b505afa158015610259573d6000803e3d6000fd5b505050506040513d601f19601f8201168201806040525081019061027d91906128f3565b8110156105c0576000600160009054906101000a900473ffffffffffffffffffffffffffffffffffffffff1673ffffffffffffffffffffffffffffffffffffffff1663dfca231c8888886000876040518663ffffffff167c010000000000000000000000000000000000000000000000000000000002815260040161030695949392919061310e565b60206040518083038186803b15801561031e57600080fd5b505afa158015610332573d6000803e3d6000fd5b505050506040513d601f19601f8201168201806040525081019061035691906127e1565b90506000600160009054906101000a900473ffffffffffffffffffffffffffffffffffffffff1673ffffffffffffffffffffffffffffffffffffffff166337e8c09e836040518263ffffffff167c01000000000000000000000000000000000000000000000000000000000281526004016103d19190612c95565b60006040518083038186803b1580156103e957600080fd5b505afa1580156103fd573d6000803e3d6000fd5b505050506040513d6000823e3d601f19601f820116820180604052508101906104269190612857565b905042816080015111156105ab5773__Lib___________________________________63dfbe0b1f8573__ConversionUtil________________________639201de55866040518263ffffffff167c01000000000000000000000000000000000000000000000000000000000281526004016104a29190612c7a565b60006040518083038186803b1580156104ba57600080fd5b505af41580156104ce573d6000803e3d6000fd5b505050506040513d6000823e3d601f19601f820116820180604052508101906104f7919061280e565b610504856080015161207c565b856060015161051787610100015161207c565b6040518663ffffffff167c0100000000000000000000000000000000000000000000000000000000028152600401610553959493929190612d39565b60006040518083038186803b15801561056b57600080fd5b505af415801561057f573d6000803e3d6000fd5b505050506040513d6000823e3d601f19601f820116820180604052508101906105a8919061280e565b93505b505080806105b890613433565b9150506101af565b50809150509392505050565b6105d4612224565b73ffffffffffffffffffffffffffffffffffffffff166105f2610776565b73ffffffffffffffffffffffffffffffffffffffff1614610648576040517f08c379a000000000000000000000000000000000000000000000000000000000815260040161063f906130a9565b60405180910390fd5b61065061222c565b565b60008060149054906101000a900460ff16905090565b610670612224565b73ffffffffffffffffffffffffffffffffffffffff1661068e610776565b73ffffffffffffffffffffffffffffffffffffffff16146106e4576040517f08c379a00000000000000000000000000000000000000000000000000000000081526004016106db906130a9565b60405180910390fd5b6106ee60006122cd565b565b6106f8612224565b73ffffffffffffffffffffffffffffffffffffffff16610716610776565b73ffffffffffffffffffffffffffffffffffffffff161461076c576040517f08c379a0000000000000000000000000000000000000000000000000000000008152600401610763906130a9565b60405180910390fd5b610774612391565b565b60008060009054906101000a900473ffffffffffffffffffffffffffffffffffffffff16905090565b60606000600160009054906101000a900473ffffffffffffffffffffffffffffffffffffffff1673ffffffffffffffffffffffffffffffffffffffff1663d5a1ad61336040518263ffffffff167c010000000000000000000000000000000000000000000000000000000002815260040161081a9190612c22565b60006040518083038186803b15801561083257600080fd5b505afa158015610846573d6000803e3d6000fd5b505050506040513d6000823e3d601f19601f8201168201806040525081019061086f919061273e565b9050606060008251111561136a5760005b825181101561136857600083828151811061089e5761089d6134da565b5b60200260200101519050600073__ConversionUtil________________________635e57966d336040518263ffffffff167c01000000000000000000000000000000000000000000000000000000000281526004016108fd9190612c07565b60006040518083038186803b15801561091557600080fd5b505af4158015610929573d6000803e3d6000fd5b505050506040513d6000823e3d601f19601f82011682018060405250810190610952919061280e565b90506000600160009054906101000a900473ffffffffffffffffffffffffffffffffffffffff1673ffffffffffffffffffffffffffffffffffffffff166337e8c09e846040518263ffffffff167c01000000000000000000000000000000000000000000000000000000000281526004016109cd9190612c95565b60006040518083038186803b1580156109e557600080fd5b505afa1580156109f9573d6000803e3d6000fd5b505050506040513d6000823e3d601f19601f82011682018060405250810190610a229190612857565b90506000600160009054906101000a900473ffffffffffffffffffffffffffffffffffffffff1673ffffffffffffffffffffffffffffffffffffffff16638ab4de3c856040518060400160405280600581526020017f42455445450000000000000000000000000000000000000000000000000000008152506040518363ffffffff167c0100000000000000000000000000000000000000000000000000000000028152600401610ad4929190612cb0565b60006040518083038186803b158015610aec57600080fd5b505afa158015610b00573d6000803e3d6000fd5b505050506040513d6000823e3d601f19601f82011682018060405250810190610b29919061280e565b90506000600160009054906101000a900473ffffffffffffffffffffffffffffffffffffffff1673ffffffffffffffffffffffffffffffffffffffff16638ab4de3c866040518060400160405280600a81526020017f41524249545241544f52000000000000000000000000000000000000000000008152506040518363ffffffff167c0100000000000000000000000000000000000000000000000000000000028152600401610bdb929190612cb0565b60006040518083038186803b158015610bf357600080fd5b505afa158015610c07573d6000803e3d6000fd5b505050506040513d6000823e3d601f19601f82011682018060405250810190610c30919061280e565b905073__Lib___________________________________63bed34bba73__ConversionUtil________________________635e57966d86604001516040518263ffffffff167c0100000000000000000000000000000000000000000000000000000000028152600401610ca39190612c07565b60006040518083038186803b158015610cbb57600080fd5b505af4158015610ccf573d6000803e3d6000fd5b505050506040513d6000823e3d601f19601f82011682018060405250810190610cf8919061280e565b866040518363ffffffff167c0100000000000000000000000000000000000000000000000000000000028152600401610d32929190612d02565b60206040518083038186803b158015610d4a57600080fd5b505af4158015610d5e573d6000803e3d6000fd5b505050506040513d601f19601f82011682018060405250810190610d829190612787565b15610f045773__Lib___________________________________63dfbe0b1f8873__ConversionUtil________________________639201de55896040518263ffffffff167c0100000000000000000000000000000000000000000000000000000000028152600401610df59190612c7a565b60006040518083038186803b158015610e0d57600080fd5b505af4158015610e21573d6000803e3d6000fd5b505050506040513d6000823e3d601f19601f82011682018060405250810190610e4a919061280e565b610e57876080015161207c565b8760600151610e6c8960e0015160ff1661207c565b6040518663ffffffff167c0100000000000000000000000000000000000000000000000000000000028152600401610ea8959493929190612dfd565b60006040518083038186803b158015610ec057600080fd5b505af4158015610ed4573d6000803e3d6000fd5b505050506040513d6000823e3d601f19601f82011682018060405250810190610efd919061280e565b9650611350565b73__Lib___________________________________63bed34bba83866040518363ffffffff167c0100000000000000000000000000000000000000000000000000000000028152600401610f59929190612d02565b60206040518083038186803b158015610f7157600080fd5b505af4158015610f85573d6000803e3d6000fd5b505050506040513d601f19601f82011682018060405250810190610fa99190612787565b1561112b5773__Lib___________________________________63dfbe0b1f8873__ConversionUtil________________________639201de55896040518263ffffffff167c010000000000000000000000000000000000000000000000000000000002815260040161101c9190612c7a565b60006040518083038186803b15801561103457600080fd5b505af4158015611048573d6000803e3d6000fd5b505050506040513d6000823e3d601f19601f82011682018060405250810190611071919061280e565b61107e876080015161207c565b87606001516110938960e0015160ff1661207c565b6040518663ffffffff167c01000000000000000000000000000000000000000000000000000000000281526004016110cf959493929190612ec1565b60006040518083038186803b1580156110e757600080fd5b505af41580156110fb573d6000803e3d6000fd5b505050506040513d6000823e3d601f19601f82011682018060405250810190611124919061280e565b965061134f565b73__Lib___________________________________63bed34bba82866040518363ffffffff167c0100000000000000000000000000000000000000000000000000000000028152600401611180929190612d02565b60206040518083038186803b15801561119857600080fd5b505af41580156111ac573d6000803e3d6000fd5b505050506040513d601f19601f820116820180604052508101906111d09190612787565b1561134e5773__Lib___________________________________63dfbe0b1f8873__ConversionUtil________________________639201de55896040518263ffffffff167c01000000000000000000000000000000000000000000000000000000000281526004016112439190612c7a565b60006040518083038186803b15801561125b57600080fd5b505af415801561126f573d6000803e3d6000fd5b505050506040513d6000823e3d601f19601f82011682018060405250810190611298919061280e565b6112a5876080015161207c565b87606001516112ba8960e0015160ff1661207c565b6040518663ffffffff167c01000000000000000000000000000000000000000000000000000000000281526004016112f6959493929190612f85565b60006040518083038186803b15801561130e57600080fd5b505af4158015611322573d6000803e3d6000fd5b505050506040513d6000823e3d601f19601f8201168201806040525081019061134b919061280e565b96505b5b5b5050505050808061136090613433565b915050610880565b505b809250505090565b60606000600f67ffffffffffffffff81111561139157611390613509565b5b6040519080825280602002602001820160405280156113c457816020015b60608152602001906001900390816113af5790505b5090506000600160009054906101000a900473ffffffffffffffffffffffffffffffffffffffff1673ffffffffffffffffffffffffffffffffffffffff166337e8c09e856040518263ffffffff167c01000000000000000000000000000000000000000000000000000000000281526004016114409190612c95565b60006040518083038186803b15801561145857600080fd5b505afa15801561146c573d6000803e3d6000fd5b505050506040513d6000823e3d601f19601f820116820180604052508101906114959190612857565b905073__ConversionUtil________________________635e57966d82604001516040518263ffffffff167c01000000000000000000000000000000000000000000000000000000000281526004016114ee9190612c07565b60006040518083038186803b15801561150657600080fd5b505af415801561151a573d6000803e3d6000fd5b505050506040513d6000823e3d601f19601f82011682018060405250810190611543919061280e565b82600081518110611557576115566134da565b5b602002602001018190525080606001518260018151811061157b5761157a6134da565b5b6020026020010181905250611593816080015161207c565b826002815181106115a7576115a66134da565b5b60200260200101819052506115c28160a0015160ff1661207c565b826003815181106115d6576115d56134da565b5b60200260200101819052506115f18160c0015160ff1661207c565b82600481518110611605576116046134da565b5b602002602001018190525061161e81610100015161207c565b82600581518110611632576116316134da565b5b602002602001018190525061164b81610120015161207c565b8260068151811061165f5761165e6134da565b5b6020026020010181905250600160009054906101000a900473ffffffffffffffffffffffffffffffffffffffff1673ffffffffffffffffffffffffffffffffffffffff16638ab4de3c856040518060400160405280600a81526020017f41524249545241544f52000000000000000000000000000000000000000000008152506040518363ffffffff167c0100000000000000000000000000000000000000000000000000000000028152600401611718929190612cb0565b60006040518083038186803b15801561173057600080fd5b505afa158015611744573d6000803e3d6000fd5b505050506040513d6000823e3d601f19601f8201168201806040525081019061176d919061280e565b82600781518110611781576117806134da565b5b6020026020010181905250600160009054906101000a900473ffffffffffffffffffffffffffffffffffffffff1673ffffffffffffffffffffffffffffffffffffffff16638ab4de3c856040518060400160405280600e81526020017f41524249545241544f524e414d450000000000000000000000000000000000008152506040518363ffffffff167c010000000000000000000000000000000000000000000000000000000002815260040161183a929190612cb0565b60006040518083038186803b15801561185257600080fd5b505afa158015611866573d6000803e3d6000fd5b505050506040513d6000823e3d601f19601f8201168201806040525081019061188f919061280e565b826008815181106118a3576118a26134da565b5b6020026020010181905250600160009054906101000a900473ffffffffffffffffffffffffffffffffffffffff1673ffffffffffffffffffffffffffffffffffffffff16638ab4de3c856040518060400160405280600b81526020017f57494e5343454e4152494f0000000000000000000000000000000000000000008152506040518363ffffffff167c010000000000000000000000000000000000000000000000000000000002815260040161195c929190612cb0565b60006040518083038186803b15801561197457600080fd5b505afa158015611988573d6000803e3d6000fd5b505050506040513d6000823e3d601f19601f820116820180604052508101906119b1919061280e565b826009815181106119c5576119c46134da565b5b6020026020010181905250600160009054906101000a900473ffffffffffffffffffffffffffffffffffffffff1673ffffffffffffffffffffffffffffffffffffffff16638ab4de3c856040518060400160405280600c81526020017f4c4f53455343454e4152494f00000000000000000000000000000000000000008152506040518363ffffffff167c0100000000000000000000000000000000000000000000000000000000028152600401611a7e929190612cb0565b60006040518083038186803b158015611a9657600080fd5b505afa158015611aaa573d6000803e3d6000fd5b505050506040513d6000823e3d601f19601f82011682018060405250810190611ad3919061280e565b82600a81518110611ae757611ae66134da565b5b6020026020010181905250600160009054906101000a900473ffffffffffffffffffffffffffffffffffffffff1673ffffffffffffffffffffffffffffffffffffffff16638ab4de3c856040518060400160405280600e81526020017f43414e43454c5343454e4152494f0000000000000000000000000000000000008152506040518363ffffffff167c0100000000000000000000000000000000000000000000000000000000028152600401611ba0929190612cb0565b60006040518083038186803b158015611bb857600080fd5b505afa158015611bcc573d6000803e3d6000fd5b505050506040513d6000823e3d601f19601f82011682018060405250810190611bf5919061280e565b82600b81518110611c0957611c086134da565b5b6020026020010181905250600160009054906101000a900473ffffffffffffffffffffffffffffffffffffffff1673ffffffffffffffffffffffffffffffffffffffff16638ab4de3c856040518060400160405280601481526020017f41524249545241544f52434f4d4d495353494f4e0000000000000000000000008152506040518363ffffffff167c0100000000000000000000000000000000000000000000000000000000028152600401611cc2929190612cb0565b60006040518083038186803b158015611cda57600080fd5b505afa158015611cee573d6000803e3d6000fd5b505050506040513d6000823e3d601f19601f82011682018060405250810190611d17919061280e565b82600c81518110611d2b57611d2a6134da565b5b6020026020010181905250600160009054906101000a900473ffffffffffffffffffffffffffffffffffffffff1673ffffffffffffffffffffffffffffffffffffffff16638ab4de3c856040518060400160405280601081526020017f424554414741494e5354414d4f554e54000000000000000000000000000000008152506040518363ffffffff167c0100000000000000000000000000000000000000000000000000000000028152600401611de4929190612cb0565b60006040518083038186803b158015611dfc57600080fd5b505afa158015611e10573d6000803e3d6000fd5b505050506040513d6000823e3d601f19601f82011682018060405250810190611e39919061280e565b82600d81518110611e4d57611e4c6134da565b5b6020026020010181905250600160009054906101000a900473ffffffffffffffffffffffffffffffffffffffff1673ffffffffffffffffffffffffffffffffffffffff16638ab4de3c856040518060400160405280601481526020017f5354414b4550455243454e5452455155495245440000000000000000000000008152506040518363ffffffff167c0100000000000000000000000000000000000000000000000000000000028152600401611f06929190612cb0565b60006040518083038186803b158015611f1e57600080fd5b505afa158015611f32573d6000803e3d6000fd5b505050506040513d6000823e3d601f19601f82011682018060405250810190611f5b919061280e565b82600e81518110611f6f57611f6e6134da565b5b60200260200101819052508192505050919050565b611f8c612224565b73ffffffffffffffffffffffffffffffffffffffff16611faa610776565b73ffffffffffffffffffffffffffffffffffffffff1614612000576040517f08c379a0000000000000000000000000000000000000000000000000000000008152600401611ff7906130a9565b60405180910390fd5b600073ffffffffffffffffffffffffffffffffffffffff168173ffffffffffffffffffffffffffffffffffffffff161415612070576040517f08c379a000000000000000000000000000000000000000000000000000000000815260040161206790613069565b60405180910390fd5b612079816122cd565b50565b606060008214156120c4576040518060400160405280600181526020017f3000000000000000000000000000000000000000000000000000000000000000815250905061221f565b600082905060005b600082146120f65780806120df90613433565b915050600a826120ef9190613291565b91506120cc565b60008167ffffffffffffffff81111561211257612111613509565b5b6040519080825280601f01601f1916602001820160405280156121445781602001600182028036833780820191505090505b50905060008290505b6000861461221757600181612162919061331c565b90506000600a80886121749190613291565b61217e91906132c2565b87612189919061331c565b6030612195919061325a565b90506000817f0100000000000000000000000000000000000000000000000000000000000000029050808484815181106121d2576121d16134da565b5b60200101907effffffffffffffffffffffffffffffffffffffffffffffffffffffffffffff1916908160001a905350600a8861220e9190613291565b9750505061214d565b819450505050505b919050565b600033905090565b612234610652565b612273576040517f08c379a000000000000000000000000000000000000000000000000000000000815260040161226a90613049565b60405180910390fd5b60008060146101000a81548160ff0219169083151502179055507f5db9ee0a495bf2e6ff9c91a7834c1ba4fdd244a5e8aa4e537bd38aeae4b073aa6122b6612224565b6040516122c39190612c22565b60405180910390a1565b60008060009054906101000a900473ffffffffffffffffffffffffffffffffffffffff169050816000806101000a81548173ffffffffffffffffffffffffffffffffffffffff021916908373ffffffffffffffffffffffffffffffffffffffff1602179055508173ffffffffffffffffffffffffffffffffffffffff168173ffffffffffffffffffffffffffffffffffffffff167f8be0079c531659141344cd1fd0a4f28419497f9722a3daafe3b4186f6b6457e060405160405180910390a35050565b612399610652565b156123d9576040517f08c379a00000000000000000000000000000000000000000000000000000000081526004016123d090613089565b60405180910390fd5b6001600060146101000a81548160ff0219169083151502179055507f62e78cea01bee320cd4e420270b5ea74000d11b0c9f74754ebdbfc544b05a25861241d612224565b60405161242a9190612c22565b60405180910390a1565b600061244761244284613186565b613161565b9050808382526020820190508285602086028201111561246a57612469613547565b5b60005b8581101561249a57816124808882612568565b84526020840193506020830192505060018101905061246d565b5050509392505050565b60006124b76124b2846131b2565b613161565b9050828152602081018484840111156124d3576124d261354c565b5b6124de8482856133cf565b509392505050565b6000813590506124f581613703565b92915050565b60008151905061250a81613703565b92915050565b600082601f83011261252557612524613538565b5b8151612535848260208601612434565b91505092915050565b60008151905061254d8161371a565b92915050565b60008135905061256281613731565b92915050565b60008151905061257781613731565b92915050565b600082601f83011261259257612591613538565b5b81516125a28482602086016124a4565b91505092915050565b600061014082840312156125c2576125c161353d565b5b6125cd610140613161565b905060006125dd848285016126d2565b60008301525060206125f184828501612568565b6020830152506040612605848285016124fb565b604083015250606082015167ffffffffffffffff81111561262957612628613542565b5b6126358482850161257d565b6060830152506080612649848285016126e7565b60808301525060a061265d848285016126fc565b60a08301525060c0612671848285016126fc565b60c08301525060e0612685848285016126fc565b60e08301525061010061269a848285016126e7565b610100830152506101206126b0848285016126e7565b6101208301525092915050565b6000813590506126cc81613748565b92915050565b6000815190506126e181613748565b92915050565b6000815190506126f68161375f565b92915050565b60008151905061270b81613776565b92915050565b60006020828403121561272757612726613556565b5b6000612735848285016124e6565b91505092915050565b60006020828403121561275457612753613556565b5b600082015167ffffffffffffffff81111561277257612771613551565b5b61277e84828501612510565b91505092915050565b60006020828403121561279d5761279c613556565b5b60006127ab8482850161253e565b91505092915050565b6000602082840312156127ca576127c9613556565b5b60006127d884828501612553565b91505092915050565b6000602082840312156127f7576127f6613556565b5b600061280584828501612568565b91505092915050565b60006020828403121561282457612823613556565b5b600082015167ffffffffffffffff81111561284257612841613551565b5b61284e8482850161257d565b91505092915050565b60006020828403121561286d5761286c613556565b5b600082015167ffffffffffffffff81111561288b5761288a613551565b5b612897848285016125ab565b91505092915050565b6000806000606084860312156128b9576128b8613556565b5b60006128c7868287016126bd565b93505060206128d8868287016126bd565b92505060406128e9868287016126bd565b9150509250925092565b60006020828403121561290957612908613556565b5b6000612917848285016126e7565b91505092915050565b600061292c8383612a03565b905092915050565b61293d81613350565b82525050565b61294c81613350565b82525050565b600061295d826131f3565b6129678185613216565b935083602082028501612979856131e3565b8060005b858110156129b557848403895281516129968582612920565b94506129a183613209565b925060208a0199505060018101905061297d565b50829750879550505050505092915050565b6129d081613362565b82525050565b6129df8161336e565b82525050565b6129ee8161336e565b82525050565b6129fd816133bd565b82525050565b6000612a0e826131fe565b612a188185613227565b9350612a288185602086016133cf565b612a318161355b565b840191505092915050565b6000612a47826131fe565b612a518185613238565b9350612a618185602086016133cf565b612a6a8161355b565b840191505092915050565b6000612a80826131fe565b612a8a8185613249565b9350612a9a8185602086016133cf565b612aa38161355b565b840191505092915050565b6000612abb601483613238565b9150612ac68261356c565b602082019050919050565b6000612ade602683613238565b9150612ae982613595565b604082019050919050565b6000612b01600183613249565b9150612b0c826135e4565b602082019050919050565b6000612b24600383613249565b9150612b2f8261360d565b602082019050919050565b6000612b47601083613238565b9150612b5282613636565b602082019050919050565b6000612b6a602083613238565b9150612b758261365f565b602082019050919050565b6000612b8d600383613249565b9150612b9882613688565b602082019050919050565b6000612bb0600383613249565b9150612bbb826136b1565b602082019050919050565b6000612bd3600183613249565b9150612bde826136da565b602082019050919050565b612bf281613378565b82525050565b612c01816133a6565b82525050565b6000602082019050612c1c6000830184612943565b92915050565b6000602082019050612c376000830184612934565b92915050565b60006020820190508181036000830152612c578184612952565b905092915050565b6000602082019050612c7460008301846129c7565b92915050565b6000602082019050612c8f60008301846129e5565b92915050565b6000602082019050612caa60008301846129d6565b92915050565b6000604082019050612cc560008301856129d6565b8181036020830152612cd78184612a3c565b90509392505050565b60006020820190508181036000830152612cfa8184612a3c565b905092915050565b60006040820190508181036000830152612d1c8185612a75565b90508181036020830152612d308184612a75565b90509392505050565b6000610120820190508181036000830152612d548188612a75565b90508181036020830152612d688187612a75565b90508181036040830152612d7b81612af4565b90508181036060830152612d8f8186612a75565b90508181036080830152612da281612af4565b905081810360a0830152612db68185612a75565b905081810360c0830152612dc981612af4565b905081810360e0830152612ddd8184612a75565b9050818103610100830152612df181612bc6565b90509695505050505050565b6000610120820190508181036000830152612e188188612a75565b90508181036020830152612e2c8187612a75565b90508181036040830152612e3f81612af4565b90508181036060830152612e538186612a75565b90508181036080830152612e6681612af4565b905081810360a0830152612e7a8185612a75565b905081810360c0830152612e8d81612b17565b905081810360e0830152612ea18184612a75565b9050818103610100830152612eb581612bc6565b90509695505050505050565b6000610120820190508181036000830152612edc8188612a75565b90508181036020830152612ef08187612a75565b90508181036040830152612f0381612af4565b90508181036060830152612f178186612a75565b90508181036080830152612f2a81612af4565b905081810360a0830152612f3e8185612a75565b905081810360c0830152612f5181612b80565b905081810360e0830152612f658184612a75565b9050818103610100830152612f7981612bc6565b90509695505050505050565b6000610120820190508181036000830152612fa08188612a75565b90508181036020830152612fb48187612a75565b90508181036040830152612fc781612af4565b90508181036060830152612fdb8186612a75565b90508181036080830152612fee81612af4565b905081810360a08301526130028185612a75565b905081810360c083015261301581612ba3565b905081810360e08301526130298184612a75565b905081810361010083015261303d81612bc6565b90509695505050505050565b6000602082019050818103600083015261306281612aae565b9050919050565b6000602082019050818103600083015261308281612ad1565b9050919050565b600060208201905081810360008301526130a281612b3a565b9050919050565b600060208201905081810360008301526130c281612b5d565b9050919050565b60006080820190506130de6000830187612be9565b6130eb6020830186612be9565b6130f86040830185612be9565b61310560608301846129f4565b95945050505050565b600060a0820190506131236000830188612be9565b6131306020830187612be9565b61313d6040830186612be9565b61314a60608301856129f4565b6131576080830184612bf8565b9695505050505050565b600061316b61317c565b90506131778282613402565b919050565b6000604051905090565b600067ffffffffffffffff8211156131a1576131a0613509565b5b602082029050602081019050919050565b600067ffffffffffffffff8211156131cd576131cc613509565b5b6131d68261355b565b9050602081019050919050565b6000819050602082019050919050565b600081519050919050565b600081519050919050565b6000602082019050919050565b600082825260208201905092915050565b600082825260208201905092915050565b600082825260208201905092915050565b600082825260208201905092915050565b6000613265826133b0565b9150613270836133b0565b92508260ff038211156132865761328561347c565b5b828201905092915050565b600061329c826133a6565b91506132a7836133a6565b9250826132b7576132b66134ab565b5b828204905092915050565b60006132cd826133a6565b91506132d8836133a6565b9250817fffffffffffffffffffffffffffffffffffffffffffffffffffffffffffffffff04831182151516156133115761331061347c565b5b828202905092915050565b6000613327826133a6565b9150613332836133a6565b9250828210156133455761334461347c565b5b828203905092915050565b600061335b82613386565b9050919050565b60008115159050919050565b6000819050919050565b600061ffff82169050919050565b600073ffffffffffffffffffffffffffffffffffffffff82169050919050565b6000819050919050565b600060ff82169050919050565b60006133c882613378565b9050919050565b60005b838110156133ed5780820151818401526020810190506133d2565b838111156133fc576000848401525b50505050565b61340b8261355b565b810181811067ffffffffffffffff8211171561342a57613429613509565b5b80604052505050565b600061343e826133a6565b91507fffffffffffffffffffffffffffffffffffffffffffffffffffffffffffffffff8214156134715761347061347c565b5b600182019050919050565b7f4e487b7100000000000000000000000000000000000000000000000000000000600052601160045260246000fd5b7f4e487b7100000000000000000000000000000000000000000000000000000000600052601260045260246000fd5b7f4e487b7100000000000000000000000000000000000000000000000000000000600052603260045260246000fd5b7f4e487b7100000000000000000000000000000000000000000000000000000000600052604160045260246000fd5b600080fd5b600080fd5b600080fd5b600080fd5b600080fd5b600080fd5b600080fd5b6000601f19601f8301169050919050565b7f5061757361626c653a206e6f7420706175736564000000000000000000000000600082015250565b7f4f776e61626c653a206e6577206f776e657220697320746865207a65726f206160008201527f6464726573730000000000000000000000000000000000000000000000000000602082015250565b7f2c00000000000000000000000000000000000000000000000000000000000000600082015250565b7f2c312c0000000000000000000000000000000000000000000000000000000000600082015250565b7f5061757361626c653a2070617573656400000000000000000000000000000000600082015250565b7f4f776e61626c653a2063616c6c6572206973206e6f7420746865206f776e6572600082015250565b7f2c322c0000000000000000000000000000000000000000000000000000000000600082015250565b7f2c342c0000000000000000000000000000000000000000000000000000000000600082015250565b7f7c00000000000000000000000000000000000000000000000000000000000000600082015250565b61370c81613350565b811461371757600080fd5b50565b61372381613362565b811461372e57600080fd5b50565b61373a8161336e565b811461374557600080fd5b50565b61375181613378565b811461375c57600080fd5b50565b613768816133a6565b811461377357600080fd5b50565b61377f816133b0565b811461378a57600080fd5b5056fea264697066735822122022e200fc1c9b2051d79f6f0c9d1b6dacc958b65a130b26bb01afe03ac52fb70d64736f6c63430008060033",
  "immutableReferences": {},
  "source": "// SPDX-License-Identifier: MIT\r\npragma solidity >=0.8.6 <0.9.0;\r\n\r\nimport \"@openzeppelin/contracts/access/Ownable.sol\";\r\nimport \"@openzeppelin/contracts/security/Pausable.sol\";\r\nimport \"@openzeppelin/contracts/utils/math/SafeMath.sol\";\r\nimport \"./IBetData.sol\";\r\nimport { Lib, ConversionUtil } from \"./Lib.sol\";\r\n\r\ncontract IBetQueryV1 is Ownable, Pausable {\r\n   using SafeMath for uint256;\r\n\r\n   IBetData private sureBetData;\r\n\r\n   constructor(address sureBetDataContract)\r\n   {\r\n      sureBetData = IBetData(sureBetDataContract);\r\n   }\r\n\r\n   function getBetDetails(bytes32 betKey) public view returns (string[] memory){\r\n      string[] memory betDetails = new string[](15);\r\n      Lib.Bet memory bet = sureBetData.getBet(betKey);\r\n      betDetails[0] = ConversionUtil.addressToString(bet.creator);\r\n      betDetails[1] = bet.eventText;\r\n      betDetails[2] = ConversionUtil.uintToString(bet.eventTime);\r\n      betDetails[3] = ConversionUtil.uintToString(bet.betType);\r\n      betDetails[4] = ConversionUtil.uintToString(bet.arbitrationType);\r\n      betDetails[5] = ConversionUtil.uintToString(bet.amount);\r\n      betDetails[6] = ConversionUtil.uintToString(bet.escrowBalance);\r\n      betDetails[7] = sureBetData.getBetProperty(betKey, Lib.PROPERTIES_ARBITRATOR);\r\n      betDetails[8] = sureBetData.getBetProperty(betKey, Lib.PROPERTIES_ARBITRATORNAME);\r\n      betDetails[9] = sureBetData.getBetProperty(betKey, Lib.PROPERTIES_WIN_SCENARIO);\r\n      betDetails[10] = sureBetData.getBetProperty(betKey, Lib.PROPERTIES_LOSE_SCENARIO);\r\n      betDetails[11] = sureBetData.getBetProperty(betKey, Lib.PROPERTIES_CANCEL_SCENARIO);\r\n      betDetails[12] = sureBetData.getBetProperty(betKey, Lib.PROPERTIES_ARBITRATOR_COMMISSION);\r\n      betDetails[13] = sureBetData.getBetProperty(betKey, Lib.PROPERTIES_BET_AGAINST_AMOUNT);\r\n      betDetails[14] = sureBetData.getBetProperty(betKey, Lib.PROPERTIES_STAKE_PERCENT_REQUIRED);\r\n      return betDetails;\r\n   }\r\n\r\n   function getMyBets() public view returns (string memory){\r\n      bytes32[] memory betsByAddress = sureBetData.getMyBetKeys(msg.sender);\r\n      string memory betsString;\r\n      if(betsByAddress.length>0)\r\n      {\r\n         for(uint256 index = 0; index < betsByAddress.length; index++){\r\n            bytes32 betKey = betsByAddress[index];\r\n            string memory addrString = ConversionUtil.addressToString(msg.sender);\r\n            Lib.Bet memory bet = sureBetData.getBet(betKey);\r\n            string memory betee = sureBetData.getBetProperty(betKey, Lib.PROPERTIES_BETEE);\r\n            string memory arbitrator = sureBetData.getBetProperty(betKey, Lib.PROPERTIES_ARBITRATOR);\r\n            if(Lib.compareStrings(ConversionUtil.addressToString(bet.creator),addrString))\r\n            {\r\n               betsString = Lib.strConcat(betsString, ConversionUtil.bytes32ToString(betKey), \",\",ConversionUtil.uintToString(bet.eventTime),\",\", bet.eventText, \",1,\", ConversionUtil.uintToString(bet.status),\"|\");\r\n            }else if (Lib.compareStrings(betee, addrString)){\r\n               betsString = Lib.strConcat(betsString, ConversionUtil.bytes32ToString(betKey), \",\",ConversionUtil.uintToString(bet.eventTime),\",\", bet.eventText, \",2,\", ConversionUtil.uintToString(bet.status),\"|\");\r\n            }else if (Lib.compareStrings(arbitrator, addrString)){\r\n               betsString = Lib.strConcat(betsString, ConversionUtil.bytes32ToString(betKey), \",\",ConversionUtil.uintToString(bet.eventTime),\",\", bet.eventText, \",4,\", ConversionUtil.uintToString(bet.status),\"|\");\r\n            }\r\n         }\r\n      }\r\n      return betsString;\r\n   }\r\n\r\n   function getOpenBets(uint16 year, uint16 month, uint16 day) public view returns (string memory){\r\n      string memory betsString;\r\n      for(uint256 index = 0; index < sureBetData.getOpenBetsCount(year,month, day, 0); index++){\r\n         bytes32 betKey = sureBetData.getOpenBetAtIndex(year,month, day, 0, index);\r\n         Lib.Bet memory bet = sureBetData.getBet(betKey);\r\n         if(bet.eventTime > block.timestamp)\r\n         {\r\n            betsString = Lib.strConcat(betsString, ConversionUtil.bytes32ToString(betKey), \",\",ConversionUtil.uintToString(bet.eventTime),\",\", bet.eventText, \",\", ConversionUtil.uintToString(bet.amount),\"|\");\r\n         }\r\n      }\r\n      return betsString;\r\n   }\r\n\r\n   \r\n\r\n   function pause() public onlyOwner {\r\n   _pause();\r\n}\r\n\r\n   function unpause() public onlyOwner {\r\n   _unpause();\r\n}\r\n\r\n}",
  "sourcePath": "D:\\eberrysoftwares\\ibettoken\\contracts\\IBetQueryV1.sol",
  "compiler": {
    "name": "solc",
    "version": "0.8.6+commit.11564f7e.Emscripten.clang"
  },
  "schemaVersion": "3.4.2",
  "updatedAt": "2021-08-26T22:14:42.480Z",
  "devdoc": {
    "kind": "dev",
    "methods": {
      "owner()": {
        "details": "Returns the address of the current owner."
      },
      "paused()": {
        "details": "Returns true if the contract is paused, and false otherwise."
      },
      "renounceOwnership()": {
        "details": "Leaves the contract without owner. It will not be possible to call `onlyOwner` functions anymore. Can only be called by the current owner. NOTE: Renouncing ownership will leave the contract without an owner, thereby removing any functionality that is only available to the owner."
      },
      "transferOwnership(address)": {
        "details": "Transfers ownership of the contract to a new account (`newOwner`). Can only be called by the current owner."
      }
    },
    "version": 1
  },
  "userdoc": {
    "kind": "user",
    "methods": {},
    "version": 1
  }
}