{
	"contracts/Lib.sol": {
		"Lib": {
			"abi": [
				{
					"inputs": [],
					"name": "OUTCOME_CANCELLED",
					"outputs": [
						{
							"internalType": "string",
							"name": "",
							"type": "string"
						}
					],
					"stateMutability": "view",
					"type": "function"
				},
				{
					"inputs": [],
					"name": "OUTCOME_CREATOR_LOST",
					"outputs": [
						{
							"internalType": "string",
							"name": "",
							"type": "string"
						}
					],
					"stateMutability": "view",
					"type": "function"
				},
				{
					"inputs": [],
					"name": "OUTCOME_CREATOR_WON",
					"outputs": [
						{
							"internalType": "string",
							"name": "",
							"type": "string"
						}
					],
					"stateMutability": "view",
					"type": "function"
				},
				{
					"inputs": [],
					"name": "PROPERTIES_ARBITRATOR",
					"outputs": [
						{
							"internalType": "string",
							"name": "",
							"type": "string"
						}
					],
					"stateMutability": "view",
					"type": "function"
				},
				{
					"inputs": [],
					"name": "PROPERTIES_ARBITRATORNAME",
					"outputs": [
						{
							"internalType": "string",
							"name": "",
							"type": "string"
						}
					],
					"stateMutability": "view",
					"type": "function"
				},
				{
					"inputs": [],
					"name": "PROPERTIES_ARBITRATOR_COMMISSION",
					"outputs": [
						{
							"internalType": "string",
							"name": "",
							"type": "string"
						}
					],
					"stateMutability": "view",
					"type": "function"
				},
				{
					"inputs": [],
					"name": "PROPERTIES_BETEE",
					"outputs": [
						{
							"internalType": "string",
							"name": "",
							"type": "string"
						}
					],
					"stateMutability": "view",
					"type": "function"
				},
				{
					"inputs": [],
					"name": "PROPERTIES_BET_AGAINST_AMOUNT",
					"outputs": [
						{
							"internalType": "string",
							"name": "",
							"type": "string"
						}
					],
					"stateMutability": "view",
					"type": "function"
				},
				{
					"inputs": [],
					"name": "PROPERTIES_CANCEL_SCENARIO",
					"outputs": [
						{
							"internalType": "string",
							"name": "",
							"type": "string"
						}
					],
					"stateMutability": "view",
					"type": "function"
				},
				{
					"inputs": [],
					"name": "PROPERTIES_LOSE_SCENARIO",
					"outputs": [
						{
							"internalType": "string",
							"name": "",
							"type": "string"
						}
					],
					"stateMutability": "view",
					"type": "function"
				},
				{
					"inputs": [],
					"name": "PROPERTIES_OUTCOME",
					"outputs": [
						{
							"internalType": "string",
							"name": "",
							"type": "string"
						}
					],
					"stateMutability": "view",
					"type": "function"
				},
				{
					"inputs": [],
					"name": "PROPERTIES_PENDING_QUEUE",
					"outputs": [
						{
							"internalType": "string",
							"name": "",
							"type": "string"
						}
					],
					"stateMutability": "view",
					"type": "function"
				},
				{
					"inputs": [],
					"name": "PROPERTIES_STAKE_PERCENT_REQUIRED",
					"outputs": [
						{
							"internalType": "string",
							"name": "",
							"type": "string"
						}
					],
					"stateMutability": "view",
					"type": "function"
				},
				{
					"inputs": [],
					"name": "PROPERTIES_WINNER",
					"outputs": [
						{
							"internalType": "string",
							"name": "",
							"type": "string"
						}
					],
					"stateMutability": "view",
					"type": "function"
				},
				{
					"inputs": [],
					"name": "PROPERTIES_WIN_SCENARIO",
					"outputs": [
						{
							"internalType": "string",
							"name": "",
							"type": "string"
						}
					],
					"stateMutability": "view",
					"type": "function"
				},
				{
					"inputs": [
						{
							"internalType": "string",
							"name": "a",
							"type": "string"
						},
						{
							"internalType": "string",
							"name": "b",
							"type": "string"
						},
						{
							"internalType": "string",
							"name": "c",
							"type": "string"
						}
					],
					"name": "compareStrings",
					"outputs": [
						{
							"internalType": "bool",
							"name": "",
							"type": "bool"
						}
					],
					"stateMutability": "pure",
					"type": "function"
				},
				{
					"inputs": [
						{
							"internalType": "string",
							"name": "a",
							"type": "string"
						},
						{
							"internalType": "string",
							"name": "b",
							"type": "string"
						}
					],
					"name": "compareStrings",
					"outputs": [
						{
							"internalType": "bool",
							"name": "",
							"type": "bool"
						}
					],
					"stateMutability": "pure",
					"type": "function"
				},
				{
					"inputs": [
						{
							"internalType": "string",
							"name": "_a",
							"type": "string"
						},
						{
							"internalType": "string",
							"name": "_b",
							"type": "string"
						},
						{
							"internalType": "string",
							"name": "_c",
							"type": "string"
						},
						{
							"internalType": "string",
							"name": "_d",
							"type": "string"
						},
						{
							"internalType": "string",
							"name": "_e",
							"type": "string"
						}
					],
					"name": "strConcat",
					"outputs": [
						{
							"internalType": "string",
							"name": "",
							"type": "string"
						}
					],
					"stateMutability": "pure",
					"type": "function"
				},
				{
					"inputs": [
						{
							"internalType": "string",
							"name": "_a",
							"type": "string"
						},
						{
							"internalType": "string",
							"name": "_b",
							"type": "string"
						},
						{
							"internalType": "string",
							"name": "_c",
							"type": "string"
						},
						{
							"internalType": "string",
							"name": "_d",
							"type": "string"
						},
						{
							"internalType": "string",
							"name": "_e",
							"type": "string"
						},
						{
							"internalType": "string",
							"name": "_f",
							"type": "string"
						},
						{
							"internalType": "string",
							"name": "_g",
							"type": "string"
						},
						{
							"internalType": "string",
							"name": "_h",
							"type": "string"
						},
						{
							"internalType": "string",
							"name": "_i",
							"type": "string"
						}
					],
					"name": "strConcat",
					"outputs": [
						{
							"internalType": "string",
							"name": "",
							"type": "string"
						}
					],
					"stateMutability": "pure",
					"type": "function"
				}
			],
			"devdoc": {
				"kind": "dev",
				"methods": {},
				"version": 1
			},
			"evm": {
				"assembly": "    /* \"contracts/Lib.sol\":68:5929  library Lib {... */\n  dataSize(sub_0)\n  dataOffset(sub_0)\n  0x0b\n  dup3\n  dup3\n  dup3\n  codecopy\n  dup1\n  mload\n  0x00\n  byte\n  0x73\n  eq\n  tag_1\n  jumpi\n  mstore(0x00, shl(0xe0, 0x4e487b71))\n  mstore(0x04, 0x00)\n  revert(0x00, 0x24)\ntag_1:\n  mstore(0x00, address)\n  0x73\n  dup2\n  mstore8\n  dup3\n  dup2\n  return\nstop\n\nsub_0: assembly {\n        /* \"contracts/Lib.sol\":68:5929  library Lib {... */\n      eq(address, deployTimeAddress())\n      mstore(0x40, 0x80)\n      jumpi(tag_1, lt(calldatasize, 0x04))\n      shr(0xe0, calldataload(0x00))\n      dup1\n      0x9b65c4f1\n      gt\n      tag_21\n      jumpi\n      dup1\n      0xc03c21ed\n      gt\n      tag_22\n      jumpi\n      dup1\n      0xc03c21ed\n      eq\n      tag_16\n      jumpi\n      dup1\n      0xc8db16ca\n      eq\n      tag_17\n      jumpi\n      dup1\n      0xda85bfb6\n      eq\n      tag_18\n      jumpi\n      dup1\n      0xdfbe0b1f\n      eq\n      tag_19\n      jumpi\n      dup1\n      0xe2998707\n      eq\n      tag_20\n      jumpi\n      0x00\n      dup1\n      revert\n    tag_22:\n      dup1\n      0x9b65c4f1\n      eq\n      tag_11\n      jumpi\n      dup1\n      0xb225a711\n      eq\n      tag_12\n      jumpi\n      dup1\n      0xb4fc54a4\n      eq\n      tag_4\n      jumpi\n      dup1\n      0xb7c8fcfb\n      eq\n      tag_14\n      jumpi\n      dup1\n      0xbed34bba\n      eq\n      tag_15\n      jumpi\n      0x00\n      dup1\n      revert\n    tag_21:\n      dup1\n      0x634c24d5\n      gt\n      tag_23\n      jumpi\n      dup1\n      0x634c24d5\n      eq\n      tag_6\n      jumpi\n      dup1\n      0x6bf6b233\n      eq\n      tag_7\n      jumpi\n      dup1\n      0x823f77e8\n      eq\n      tag_8\n      jumpi\n      dup1\n      0x95978868\n      eq\n      tag_9\n      jumpi\n      dup1\n      0x983f27d9\n      eq\n      tag_10\n      jumpi\n      0x00\n      dup1\n      revert\n    tag_23:\n      dup1\n      0x09a223f9\n      eq\n      tag_2\n      jumpi\n      dup1\n      0x15289f40\n      eq\n      tag_3\n      jumpi\n      dup1\n      0x27cb96e0\n      eq\n      tag_4\n      jumpi\n      dup1\n      0x2fc3a89d\n      eq\n      tag_5\n      jumpi\n    tag_1:\n      0x00\n      dup1\n      revert\n        /* \"contracts/Lib.sol\":3449:3718  function compareStrings(string memory a, string memory b, string memory c) public pure returns (bool) {... */\n    tag_2:\n      tag_24\n      tag_25\n      calldatasize\n      0x04\n      tag_26\n      jump\t// in\n    tag_25:\n      tag_27\n      jump\t// in\n    tag_24:\n      mload(0x40)\n        /* \"#utility.yul\":1791:1805   */\n      swap1\n      iszero\n        /* \"#utility.yul\":1784:1806   */\n      iszero\n        /* \"#utility.yul\":1766:1807   */\n      dup2\n      mstore\n        /* \"#utility.yul\":1754:1756   */\n      0x20\n        /* \"#utility.yul\":1739:1757   */\n      add\n        /* \"contracts/Lib.sol\":3449:3718  function compareStrings(string memory a, string memory b, string memory c) public pure returns (bool) {... */\n    tag_28:\n      mload(0x40)\n      dup1\n      swap2\n      sub\n      swap1\n      return\n        /* \"contracts/Lib.sol\":1848:1912  string public constant PROPERTIES_PENDING_QUEUE = \"PENDINGQUEUE\" */\n    tag_3:\n      tag_30\n      mload(0x40)\n      dup1\n      0x40\n      add\n      0x40\n      mstore\n      dup1\n      0x0c\n      dup2\n      mstore\n      0x20\n      add\n      shl(0xa0, 0x50454e44494e475155455545)\n      dup2\n      mstore\n      pop\n      dup2\n      jump\n    tag_30:\n      mload(0x40)\n      tag_28\n      swap2\n      swap1\n      tag_33\n      jump\t// in\n        /* \"contracts/Lib.sol\":1554:1622  string public constant PROPERTIES_CANCEL_SCENARIO = \"CANCELSCENARIO\" */\n    tag_4:\n      tag_30\n      mload(0x40)\n      dup1\n      0x40\n      add\n      0x40\n      mstore\n      dup1\n      0x0e\n      dup2\n      mstore\n      0x20\n      add\n      shl(0x90, 0x43414e43454c5343454e4152494f)\n      dup2\n      mstore\n      pop\n      dup2\n      jump\n        /* \"contracts/Lib.sol\":2035:2095  string public constant OUTCOME_CREATOR_LOST = \"CREATOR_LOST\" */\n    tag_5:\n      tag_30\n      mload(0x40)\n      dup1\n      0x40\n      add\n      0x40\n      mstore\n      dup1\n      0x0c\n      dup2\n      mstore\n      0x20\n      add\n      shl(0xa2, 0x10d491505513d497d313d4d5)\n      dup2\n      mstore\n      pop\n      dup2\n      jump\n        /* \"contracts/Lib.sol\":1207:1274  string public constant PROPERTIES_ARBITRATORNAME = \"ARBITRATORNAME\" */\n    tag_6:\n      tag_30\n      mload(0x40)\n      dup1\n      0x40\n      add\n      0x40\n      mstore\n      dup1\n      0x0e\n      dup2\n      mstore\n      0x20\n      add\n      shl(0x90, 0x41524249545241544f524e414d45)\n      dup2\n      mstore\n      pop\n      dup2\n      jump\n        /* \"contracts/Lib.sol\":1101:1152  string public constant PROPERTIES_WINNER = \"WINNER\" */\n    tag_7:\n      tag_30\n      mload(0x40)\n      dup1\n      0x40\n      add\n      0x40\n      mstore\n      dup1\n      0x06\n      dup2\n      mstore\n      0x20\n      add\n      shl(0xd1, 0x2ba4a72722a9)\n      dup2\n      mstore\n      pop\n      dup2\n      jump\n        /* \"contracts/Lib.sol\":1277:1336  string public constant PROPERTIES_ARBITRATOR = \"ARBITRATOR\" */\n    tag_8:\n      tag_30\n      mload(0x40)\n      dup1\n      0x40\n      add\n      0x40\n      mstore\n      dup1\n      0x0a\n      dup2\n      mstore\n      0x20\n      add\n      shl(0xb1, 0x20a92124aa2920aa27a9)\n      dup2\n      mstore\n      pop\n      dup2\n      jump\n        /* \"contracts/Lib.sol\":2100:2938  function strConcat(string memory _a, string memory _b, string memory _c,... */\n    tag_9:\n      tag_30\n      tag_50\n      calldatasize\n      0x04\n      tag_51\n      jump\t// in\n    tag_50:\n      tag_52\n      jump\t// in\n        /* \"contracts/Lib.sol\":1688:1761  string public constant PROPERTIES_BET_AGAINST_AMOUNT = \"BETAGAINSTAMOUNT\" */\n    tag_10:\n      tag_30\n      mload(0x40)\n      dup1\n      0x40\n      add\n      0x40\n      mstore\n      dup1\n      0x10\n      dup2\n      mstore\n      0x20\n      add\n      shl(0x82, 0x1091551051d0525394d5105353d55395)\n      dup2\n      mstore\n      pop\n      dup2\n      jump\n        /* \"contracts/Lib.sol\":1764:1845  string public constant PROPERTIES_STAKE_PERCENT_REQUIRED = \"STAKEPERCENTREQUIRED\" */\n    tag_11:\n      tag_30\n      mload(0x40)\n      dup1\n      0x40\n      add\n      0x40\n      mstore\n      dup1\n      0x14\n      dup2\n      mstore\n      0x20\n      add\n      shl(0x62, 0x14d51052d154115490d153951491545552549151)\n      dup2\n      mstore\n      pop\n      dup2\n      jump\n        /* \"contracts/Lib.sol\":1974:2032  string public constant OUTCOME_CREATOR_WON = \"CREATOR_WON\" */\n    tag_12:\n      tag_30\n      mload(0x40)\n      dup1\n      0x40\n      add\n      0x40\n      mstore\n      dup1\n      0x0b\n      dup2\n      mstore\n      0x20\n      add\n      shl(0xa9, 0x21a922a0aa27a92faba7a7)\n      dup2\n      mstore\n      pop\n      dup2\n      jump\n        /* \"contracts/Lib.sol\":1422:1484  string public constant PROPERTIES_WIN_SCENARIO = \"WINSCENARIO\" */\n    tag_14:\n      tag_30\n      mload(0x40)\n      dup1\n      0x40\n      add\n      0x40\n      mstore\n      dup1\n      0x0b\n      dup2\n      mstore\n      0x20\n      add\n      shl(0xa8, 0x57494e5343454e4152494f)\n      dup2\n      mstore\n      pop\n      dup2\n      jump\n        /* \"contracts/Lib.sol\":3272:3445  function compareStrings(string memory a, string memory b) public pure returns (bool) {... */\n    tag_15:\n      tag_24\n      tag_70\n      calldatasize\n      0x04\n      tag_71\n      jump\t// in\n    tag_70:\n      tag_72\n      jump\t// in\n        /* \"contracts/Lib.sol\":1487:1551  string public constant PROPERTIES_LOSE_SCENARIO = \"LOSESCENARIO\" */\n    tag_16:\n      tag_30\n      mload(0x40)\n      dup1\n      0x40\n      add\n      0x40\n      mstore\n      dup1\n      0x0c\n      dup2\n      mstore\n      0x20\n      add\n      shl(0xa0, 0x4c4f53455343454e4152494f)\n      dup2\n      mstore\n      pop\n      dup2\n      jump\n        /* \"contracts/Lib.sol\":1917:1971  string public constant OUTCOME_CANCELLED = \"CANCELLED\" */\n    tag_17:\n      tag_30\n      mload(0x40)\n      dup1\n      0x40\n      add\n      0x40\n      mstore\n      dup1\n      0x09\n      dup2\n      mstore\n      0x20\n      add\n      shl(0xba, 0x10d05390d153131151)\n      dup2\n      mstore\n      pop\n      dup2\n      jump\n        /* \"contracts/Lib.sol\":1339:1419  string public constant PROPERTIES_ARBITRATOR_COMMISSION = \"ARBITRATORCOMMISSION\" */\n    tag_18:\n      tag_30\n      mload(0x40)\n      dup1\n      0x40\n      add\n      0x40\n      mstore\n      dup1\n      0x14\n      dup2\n      mstore\n      0x20\n      add\n      shl(0x61, 0x20a92124aa2920aa27a921a7a6a6a4a9a9a4a7a7)\n      dup2\n      mstore\n      pop\n      dup2\n      jump\n        /* \"contracts/Lib.sol\":2942:3268  function strConcat(string memory _a, string memory _b, string memory _c,... */\n    tag_19:\n      tag_30\n      tag_84\n      calldatasize\n      0x04\n      tag_85\n      jump\t// in\n    tag_84:\n      tag_86\n      jump\t// in\n        /* \"contracts/Lib.sol\":1155:1204  string public constant PROPERTIES_BETEE = \"BETEE\" */\n    tag_20:\n      tag_30\n      mload(0x40)\n      dup1\n      0x40\n      add\n      0x40\n      mstore\n      dup1\n      0x05\n      dup2\n      mstore\n      0x20\n      add\n      shl(0xd8, 0x4245544545)\n      dup2\n      mstore\n      pop\n      dup2\n      jump\n        /* \"contracts/Lib.sol\":3449:3718  function compareStrings(string memory a, string memory b, string memory c) public pure returns (bool) {... */\n    tag_27:\n        /* \"contracts/Lib.sol\":3545:3549  bool */\n      0x00\n        /* \"contracts/Lib.sol\":3630:3631  b */\n      dup3\n        /* \"contracts/Lib.sol\":3612:3633  abi.encodePacked((b)) */\n      add(0x20, mload(0x40))\n      tag_92\n      swap2\n      swap1\n      tag_93\n      jump\t// in\n    tag_92:\n      mload(0x40)\n      0x20\n      dup2\n      dup4\n      sub\n      sub\n      dup2\n      mstore\n      swap1\n      0x40\n      mstore\n        /* \"contracts/Lib.sol\":3602:3634  keccak256(abi.encodePacked((b))) */\n      dup1\n      mload\n      swap1\n      0x20\n      add\n      keccak256\n        /* \"contracts/Lib.sol\":3594:3595  a */\n      dup5\n        /* \"contracts/Lib.sol\":3576:3597  abi.encodePacked((a)) */\n      add(0x20, mload(0x40))\n      tag_94\n      swap2\n      swap1\n      tag_93\n      jump\t// in\n    tag_94:\n      mload(0x40)\n      0x20\n      dup2\n      dup4\n      sub\n      sub\n      dup2\n      mstore\n      swap1\n      0x40\n      mstore\n        /* \"contracts/Lib.sol\":3566:3598  keccak256(abi.encodePacked((a))) */\n      dup1\n      mload\n      swap1\n      0x20\n      add\n      keccak256\n        /* \"contracts/Lib.sol\":3566:3634  keccak256(abi.encodePacked((a))) == keccak256(abi.encodePacked((b))) */\n      eq\n        /* \"contracts/Lib.sol\":3565:3714  (keccak256(abi.encodePacked((a))) == keccak256(abi.encodePacked((b)))) &&... */\n      dup1\n      iszero\n      tag_95\n      jumpi\n      pop\n        /* \"contracts/Lib.sol\":3709:3710  c */\n      dup2\n        /* \"contracts/Lib.sol\":3691:3712  abi.encodePacked((c)) */\n      add(0x20, mload(0x40))\n      tag_96\n      swap2\n      swap1\n      tag_93\n      jump\t// in\n    tag_96:\n      mload(0x40)\n      0x20\n      dup2\n      dup4\n      sub\n      sub\n      dup2\n      mstore\n      swap1\n      0x40\n      mstore\n        /* \"contracts/Lib.sol\":3681:3713  keccak256(abi.encodePacked((c))) */\n      dup1\n      mload\n      swap1\n      0x20\n      add\n      keccak256\n        /* \"contracts/Lib.sol\":3673:3674  b */\n      dup4\n        /* \"contracts/Lib.sol\":3655:3676  abi.encodePacked((b)) */\n      add(0x20, mload(0x40))\n      tag_97\n      swap2\n      swap1\n      tag_93\n      jump\t// in\n    tag_97:\n      mload(0x40)\n      0x20\n      dup2\n      dup4\n      sub\n      sub\n      dup2\n      mstore\n      swap1\n      0x40\n      mstore\n        /* \"contracts/Lib.sol\":3645:3677  keccak256(abi.encodePacked((b))) */\n      dup1\n      mload\n      swap1\n      0x20\n      add\n      keccak256\n        /* \"contracts/Lib.sol\":3645:3713  keccak256(abi.encodePacked((b))) == keccak256(abi.encodePacked((c))) */\n      eq\n        /* \"contracts/Lib.sol\":3565:3714  (keccak256(abi.encodePacked((a))) == keccak256(abi.encodePacked((b)))) &&... */\n    tag_95:\n        /* \"contracts/Lib.sol\":3558:3714  return (keccak256(abi.encodePacked((a))) == keccak256(abi.encodePacked((b)))) &&... */\n      swap5\n        /* \"contracts/Lib.sol\":3449:3718  function compareStrings(string memory a, string memory b, string memory c) public pure returns (bool) {... */\n      swap4\n      pop\n      pop\n      pop\n      pop\n      jump\t// out\n        /* \"contracts/Lib.sol\":2100:2938  function strConcat(string memory _a, string memory _b, string memory _c,... */\n    tag_52:\n        /* \"contracts/Lib.sol\":2512:2522  _be.length */\n      dup1\n      mload\n        /* \"contracts/Lib.sol\":2499:2509  _bd.length */\n      dup3\n      mload\n        /* \"contracts/Lib.sol\":2486:2496  _bc.length */\n      dup5\n      mload\n        /* \"contracts/Lib.sol\":2473:2483  _bb.length */\n      dup7\n      mload\n        /* \"contracts/Lib.sol\":2460:2470  _ba.length */\n      dup9\n      mload\n        /* \"contracts/Lib.sol\":2231:2244  string memory */\n      0x60\n      swap5\n        /* \"contracts/Lib.sol\":2277:2279  _a */\n      dup11\n      swap5\n        /* \"contracts/Lib.sol\":2312:2314  _b */\n      dup11\n      swap5\n        /* \"contracts/Lib.sol\":2347:2349  _c */\n      dup11\n      swap5\n        /* \"contracts/Lib.sol\":2382:2384  _d */\n      dup11\n      swap5\n        /* \"contracts/Lib.sol\":2417:2419  _e */\n      dup11\n      swap5\n        /* \"contracts/Lib.sol\":2252:2268  bytes memory _ba */\n      0x00\n      swap5\n        /* \"contracts/Lib.sol\":2512:2522  _be.length */\n      swap1\n      swap4\n        /* \"contracts/Lib.sol\":2499:2509  _bd.length */\n      swap1\n      swap3\n        /* \"contracts/Lib.sol\":2486:2496  _bc.length */\n      swap1\n      swap2\n        /* \"contracts/Lib.sol\":2460:2483  _ba.length + _bb.length */\n      tag_99\n      swap2\n        /* \"contracts/Lib.sol\":2473:2483  _bb.length */\n      swap1\n        /* \"contracts/Lib.sol\":2460:2483  _ba.length + _bb.length */\n      tag_100\n      jump\t// in\n    tag_99:\n        /* \"contracts/Lib.sol\":2460:2496  _ba.length + _bb.length + _bc.length */\n      tag_101\n      swap2\n      swap1\n      tag_100\n      jump\t// in\n    tag_101:\n        /* \"contracts/Lib.sol\":2460:2509  _ba.length + _bb.length + _bc.length + _bd.length */\n      tag_102\n      swap2\n      swap1\n      tag_100\n      jump\t// in\n    tag_102:\n        /* \"contracts/Lib.sol\":2460:2522  _ba.length + _bb.length + _bc.length + _bd.length + _be.length */\n      tag_103\n      swap2\n      swap1\n      tag_100\n      jump\t// in\n    tag_103:\n        /* \"contracts/Lib.sol\":2449:2523  new string(_ba.length + _bb.length + _bc.length + _bd.length + _be.length) */\n      0xffffffffffffffff\n      dup2\n      gt\n      iszero\n      tag_105\n      jumpi\n      tag_105\n      tag_106\n      jump\t// in\n    tag_105:\n      mload(0x40)\n      swap1\n      dup1\n      dup3\n      mstore\n      dup1\n      0x1f\n      add\n      not(0x1f)\n      and\n      0x20\n      add\n      dup3\n      add\n      0x40\n      mstore\n      dup1\n      iszero\n      tag_107\n      jumpi\n      0x20\n      dup3\n      add\n      dup2\n      dup1\n      calldatasize\n      dup4\n      calldatacopy\n      add\n      swap1\n      pop\n    tag_107:\n      pop\n        /* \"contracts/Lib.sol\":2427:2523  string memory abcde = new string(_ba.length + _bb.length + _bc.length + _bd.length + _be.length) */\n      swap1\n      pop\n      dup1\n        /* \"contracts/Lib.sol\":2530:2549  bytes memory babcde */\n      0x00\n      dup1\n        /* \"contracts/Lib.sol\":2588:2646  for (uint i = 0; i < _ba.length; i++) babcde[k++] = _ba[i] */\n    tag_108:\n        /* \"contracts/Lib.sol\":2609:2612  _ba */\n      dup9\n        /* \"contracts/Lib.sol\":2609:2619  _ba.length */\n      mload\n        /* \"contracts/Lib.sol\":2605:2606  i */\n      dup2\n        /* \"contracts/Lib.sol\":2605:2619  i < _ba.length */\n      lt\n        /* \"contracts/Lib.sol\":2588:2646  for (uint i = 0; i < _ba.length; i++) babcde[k++] = _ba[i] */\n      iszero\n      tag_109\n      jumpi\n        /* \"contracts/Lib.sol\":2640:2643  _ba */\n      dup9\n        /* \"contracts/Lib.sol\":2644:2645  i */\n      dup2\n        /* \"contracts/Lib.sol\":2640:2646  _ba[i] */\n      dup2\n      mload\n      dup2\n      lt\n      tag_112\n      jumpi\n      tag_112\n      tag_113\n      jump\t// in\n    tag_112:\n      add\n      0x20\n      add\n      mload\n      not(sub(shl(0xf8, 0x01), 0x01))\n      and\n        /* \"contracts/Lib.sol\":2626:2632  babcde */\n      dup4\n        /* \"contracts/Lib.sol\":2633:2636  k++ */\n      dup4\n      tag_114\n      dup2\n      tag_115\n      jump\t// in\n    tag_114:\n      swap5\n      pop\n        /* \"contracts/Lib.sol\":2626:2637  babcde[k++] */\n      dup2\n      mload\n      dup2\n      lt\n      tag_117\n      jumpi\n      tag_117\n      tag_113\n      jump\t// in\n    tag_117:\n      0x20\n      add\n      add\n        /* \"contracts/Lib.sol\":2626:2646  babcde[k++] = _ba[i] */\n      swap1\n      not(sub(shl(0xf8, 0x01), 0x01))\n      and\n      swap1\n      dup2\n      0x00\n      byte\n      swap1\n      mstore8\n      pop\n        /* \"contracts/Lib.sol\":2621:2624  i++ */\n      dup1\n      tag_118\n      dup2\n      tag_115\n      jump\t// in\n    tag_118:\n      swap2\n      pop\n      pop\n        /* \"contracts/Lib.sol\":2588:2646  for (uint i = 0; i < _ba.length; i++) babcde[k++] = _ba[i] */\n      jump(tag_108)\n    tag_109:\n      pop\n        /* \"contracts/Lib.sol\":2658:2664  uint i */\n      0x00\n        /* \"contracts/Lib.sol\":2653:2711  for (uint i = 0; i < _bb.length; i++) babcde[k++] = _bb[i] */\n    tag_119:\n        /* \"contracts/Lib.sol\":2674:2677  _bb */\n      dup8\n        /* \"contracts/Lib.sol\":2674:2684  _bb.length */\n      mload\n        /* \"contracts/Lib.sol\":2670:2671  i */\n      dup2\n        /* \"contracts/Lib.sol\":2670:2684  i < _bb.length */\n      lt\n        /* \"contracts/Lib.sol\":2653:2711  for (uint i = 0; i < _bb.length; i++) babcde[k++] = _bb[i] */\n      iszero\n      tag_120\n      jumpi\n        /* \"contracts/Lib.sol\":2705:2708  _bb */\n      dup8\n        /* \"contracts/Lib.sol\":2709:2710  i */\n      dup2\n        /* \"contracts/Lib.sol\":2705:2711  _bb[i] */\n      dup2\n      mload\n      dup2\n      lt\n      tag_123\n      jumpi\n      tag_123\n      tag_113\n      jump\t// in\n    tag_123:\n      add\n      0x20\n      add\n      mload\n      not(sub(shl(0xf8, 0x01), 0x01))\n      and\n        /* \"contracts/Lib.sol\":2691:2697  babcde */\n      dup4\n        /* \"contracts/Lib.sol\":2698:2701  k++ */\n      dup4\n      tag_124\n      dup2\n      tag_115\n      jump\t// in\n    tag_124:\n      swap5\n      pop\n        /* \"contracts/Lib.sol\":2691:2702  babcde[k++] */\n      dup2\n      mload\n      dup2\n      lt\n      tag_126\n      jumpi\n      tag_126\n      tag_113\n      jump\t// in\n    tag_126:\n      0x20\n      add\n      add\n        /* \"contracts/Lib.sol\":2691:2711  babcde[k++] = _bb[i] */\n      swap1\n      not(sub(shl(0xf8, 0x01), 0x01))\n      and\n      swap1\n      dup2\n      0x00\n      byte\n      swap1\n      mstore8\n      pop\n        /* \"contracts/Lib.sol\":2686:2689  i++ */\n      dup1\n      tag_127\n      dup2\n      tag_115\n      jump\t// in\n    tag_127:\n      swap2\n      pop\n      pop\n        /* \"contracts/Lib.sol\":2653:2711  for (uint i = 0; i < _bb.length; i++) babcde[k++] = _bb[i] */\n      jump(tag_119)\n    tag_120:\n      pop\n        /* \"contracts/Lib.sol\":2723:2729  uint i */\n      0x00\n        /* \"contracts/Lib.sol\":2718:2776  for (uint i = 0; i < _bc.length; i++) babcde[k++] = _bc[i] */\n    tag_128:\n        /* \"contracts/Lib.sol\":2739:2742  _bc */\n      dup7\n        /* \"contracts/Lib.sol\":2739:2749  _bc.length */\n      mload\n        /* \"contracts/Lib.sol\":2735:2736  i */\n      dup2\n        /* \"contracts/Lib.sol\":2735:2749  i < _bc.length */\n      lt\n        /* \"contracts/Lib.sol\":2718:2776  for (uint i = 0; i < _bc.length; i++) babcde[k++] = _bc[i] */\n      iszero\n      tag_129\n      jumpi\n        /* \"contracts/Lib.sol\":2770:2773  _bc */\n      dup7\n        /* \"contracts/Lib.sol\":2774:2775  i */\n      dup2\n        /* \"contracts/Lib.sol\":2770:2776  _bc[i] */\n      dup2\n      mload\n      dup2\n      lt\n      tag_132\n      jumpi\n      tag_132\n      tag_113\n      jump\t// in\n    tag_132:\n      add\n      0x20\n      add\n      mload\n      not(sub(shl(0xf8, 0x01), 0x01))\n      and\n        /* \"contracts/Lib.sol\":2756:2762  babcde */\n      dup4\n        /* \"contracts/Lib.sol\":2763:2766  k++ */\n      dup4\n      tag_133\n      dup2\n      tag_115\n      jump\t// in\n    tag_133:\n      swap5\n      pop\n        /* \"contracts/Lib.sol\":2756:2767  babcde[k++] */\n      dup2\n      mload\n      dup2\n      lt\n      tag_135\n      jumpi\n      tag_135\n      tag_113\n      jump\t// in\n    tag_135:\n      0x20\n      add\n      add\n        /* \"contracts/Lib.sol\":2756:2776  babcde[k++] = _bc[i] */\n      swap1\n      not(sub(shl(0xf8, 0x01), 0x01))\n      and\n      swap1\n      dup2\n      0x00\n      byte\n      swap1\n      mstore8\n      pop\n        /* \"contracts/Lib.sol\":2751:2754  i++ */\n      dup1\n      tag_136\n      dup2\n      tag_115\n      jump\t// in\n    tag_136:\n      swap2\n      pop\n      pop\n        /* \"contracts/Lib.sol\":2718:2776  for (uint i = 0; i < _bc.length; i++) babcde[k++] = _bc[i] */\n      jump(tag_128)\n    tag_129:\n      pop\n        /* \"contracts/Lib.sol\":2788:2794  uint i */\n      0x00\n        /* \"contracts/Lib.sol\":2783:2841  for (uint i = 0; i < _bd.length; i++) babcde[k++] = _bd[i] */\n    tag_137:\n        /* \"contracts/Lib.sol\":2804:2807  _bd */\n      dup6\n        /* \"contracts/Lib.sol\":2804:2814  _bd.length */\n      mload\n        /* \"contracts/Lib.sol\":2800:2801  i */\n      dup2\n        /* \"contracts/Lib.sol\":2800:2814  i < _bd.length */\n      lt\n        /* \"contracts/Lib.sol\":2783:2841  for (uint i = 0; i < _bd.length; i++) babcde[k++] = _bd[i] */\n      iszero\n      tag_138\n      jumpi\n        /* \"contracts/Lib.sol\":2835:2838  _bd */\n      dup6\n        /* \"contracts/Lib.sol\":2839:2840  i */\n      dup2\n        /* \"contracts/Lib.sol\":2835:2841  _bd[i] */\n      dup2\n      mload\n      dup2\n      lt\n      tag_141\n      jumpi\n      tag_141\n      tag_113\n      jump\t// in\n    tag_141:\n      add\n      0x20\n      add\n      mload\n      not(sub(shl(0xf8, 0x01), 0x01))\n      and\n        /* \"contracts/Lib.sol\":2821:2827  babcde */\n      dup4\n        /* \"contracts/Lib.sol\":2828:2831  k++ */\n      dup4\n      tag_142\n      dup2\n      tag_115\n      jump\t// in\n    tag_142:\n      swap5\n      pop\n        /* \"contracts/Lib.sol\":2821:2832  babcde[k++] */\n      dup2\n      mload\n      dup2\n      lt\n      tag_144\n      jumpi\n      tag_144\n      tag_113\n      jump\t// in\n    tag_144:\n      0x20\n      add\n      add\n        /* \"contracts/Lib.sol\":2821:2841  babcde[k++] = _bd[i] */\n      swap1\n      not(sub(shl(0xf8, 0x01), 0x01))\n      and\n      swap1\n      dup2\n      0x00\n      byte\n      swap1\n      mstore8\n      pop\n        /* \"contracts/Lib.sol\":2816:2819  i++ */\n      dup1\n      tag_145\n      dup2\n      tag_115\n      jump\t// in\n    tag_145:\n      swap2\n      pop\n      pop\n        /* \"contracts/Lib.sol\":2783:2841  for (uint i = 0; i < _bd.length; i++) babcde[k++] = _bd[i] */\n      jump(tag_137)\n    tag_138:\n      pop\n        /* \"contracts/Lib.sol\":2853:2859  uint i */\n      0x00\n        /* \"contracts/Lib.sol\":2848:2906  for (uint i = 0; i < _be.length; i++) babcde[k++] = _be[i] */\n    tag_146:\n        /* \"contracts/Lib.sol\":2869:2872  _be */\n      dup5\n        /* \"contracts/Lib.sol\":2869:2879  _be.length */\n      mload\n        /* \"contracts/Lib.sol\":2865:2866  i */\n      dup2\n        /* \"contracts/Lib.sol\":2865:2879  i < _be.length */\n      lt\n        /* \"contracts/Lib.sol\":2848:2906  for (uint i = 0; i < _be.length; i++) babcde[k++] = _be[i] */\n      iszero\n      tag_147\n      jumpi\n        /* \"contracts/Lib.sol\":2900:2903  _be */\n      dup5\n        /* \"contracts/Lib.sol\":2904:2905  i */\n      dup2\n        /* \"contracts/Lib.sol\":2900:2906  _be[i] */\n      dup2\n      mload\n      dup2\n      lt\n      tag_150\n      jumpi\n      tag_150\n      tag_113\n      jump\t// in\n    tag_150:\n      add\n      0x20\n      add\n      mload\n      not(sub(shl(0xf8, 0x01), 0x01))\n      and\n        /* \"contracts/Lib.sol\":2886:2892  babcde */\n      dup4\n        /* \"contracts/Lib.sol\":2893:2896  k++ */\n      dup4\n      tag_151\n      dup2\n      tag_115\n      jump\t// in\n    tag_151:\n      swap5\n      pop\n        /* \"contracts/Lib.sol\":2886:2897  babcde[k++] */\n      dup2\n      mload\n      dup2\n      lt\n      tag_153\n      jumpi\n      tag_153\n      tag_113\n      jump\t// in\n    tag_153:\n      0x20\n      add\n      add\n        /* \"contracts/Lib.sol\":2886:2906  babcde[k++] = _be[i] */\n      swap1\n      not(sub(shl(0xf8, 0x01), 0x01))\n      and\n      swap1\n      dup2\n      0x00\n      byte\n      swap1\n      mstore8\n      pop\n        /* \"contracts/Lib.sol\":2881:2884  i++ */\n      dup1\n      tag_154\n      dup2\n      tag_115\n      jump\t// in\n    tag_154:\n      swap2\n      pop\n      pop\n        /* \"contracts/Lib.sol\":2848:2906  for (uint i = 0; i < _be.length; i++) babcde[k++] = _be[i] */\n      jump(tag_146)\n    tag_147:\n      pop\n        /* \"contracts/Lib.sol\":2927:2933  babcde */\n      swap1\n      swap14\n        /* \"contracts/Lib.sol\":2100:2938  function strConcat(string memory _a, string memory _b, string memory _c,... */\n      swap13\n      pop\n      pop\n      pop\n      pop\n      pop\n      pop\n      pop\n      pop\n      pop\n      pop\n      pop\n      pop\n      pop\n      jump\t// out\n        /* \"contracts/Lib.sol\":3272:3445  function compareStrings(string memory a, string memory b) public pure returns (bool) {... */\n    tag_72:\n        /* \"contracts/Lib.sol\":3351:3355  bool */\n      0x00\n        /* \"contracts/Lib.sol\":3436:3437  b */\n      dup2\n        /* \"contracts/Lib.sol\":3418:3439  abi.encodePacked((b)) */\n      add(0x20, mload(0x40))\n      tag_156\n      swap2\n      swap1\n      tag_93\n      jump\t// in\n    tag_156:\n      mload(0x40)\n      0x20\n      dup2\n      dup4\n      sub\n      sub\n      dup2\n      mstore\n      swap1\n      0x40\n      mstore\n        /* \"contracts/Lib.sol\":3408:3440  keccak256(abi.encodePacked((b))) */\n      dup1\n      mload\n      swap1\n      0x20\n      add\n      keccak256\n        /* \"contracts/Lib.sol\":3400:3401  a */\n      dup4\n        /* \"contracts/Lib.sol\":3382:3403  abi.encodePacked((a)) */\n      add(0x20, mload(0x40))\n      tag_157\n      swap2\n      swap1\n      tag_93\n      jump\t// in\n    tag_157:\n      mload(0x40)\n      0x20\n      dup2\n      dup4\n      sub\n      sub\n      dup2\n      mstore\n      swap1\n      0x40\n      mstore\n        /* \"contracts/Lib.sol\":3372:3404  keccak256(abi.encodePacked((a))) */\n      dup1\n      mload\n      swap1\n      0x20\n      add\n      keccak256\n        /* \"contracts/Lib.sol\":3372:3440  keccak256(abi.encodePacked((a))) == keccak256(abi.encodePacked((b))) */\n      eq\n        /* \"contracts/Lib.sol\":3364:3441  return (keccak256(abi.encodePacked((a))) == keccak256(abi.encodePacked((b)))) */\n      swap1\n      pop\n        /* \"contracts/Lib.sol\":3272:3445  function compareStrings(string memory a, string memory b) public pure returns (bool) {... */\n    tag_155:\n      swap3\n      swap2\n      pop\n      pop\n      jump\t// out\n        /* \"contracts/Lib.sol\":2942:3268  function strConcat(string memory _a, string memory _b, string memory _c,... */\n    tag_86:\n        /* \"contracts/Lib.sol\":3146:3159  string memory */\n      0x60\n        /* \"contracts/Lib.sol\":3167:3186  string memory part1 */\n      0x00\n        /* \"contracts/Lib.sol\":3189:3218  strConcat(_a, _b, _c, _d, _e) */\n      tag_159\n        /* \"contracts/Lib.sol\":3199:3201  _a */\n      dup12\n        /* \"contracts/Lib.sol\":3203:3205  _b */\n      dup12\n        /* \"contracts/Lib.sol\":3207:3209  _c */\n      dup12\n        /* \"contracts/Lib.sol\":3211:3213  _d */\n      dup12\n        /* \"contracts/Lib.sol\":3215:3217  _e */\n      dup12\n        /* \"contracts/Lib.sol\":3189:3198  strConcat */\n      tag_52\n        /* \"contracts/Lib.sol\":3189:3218  strConcat(_a, _b, _c, _d, _e) */\n      jump\t// in\n    tag_159:\n        /* \"contracts/Lib.sol\":3167:3218  string memory part1 = strConcat(_a, _b, _c, _d, _e) */\n      swap1\n      pop\n        /* \"contracts/Lib.sol\":3232:3264  strConcat(part1, _f, _g, _h, _i) */\n      tag_160\n        /* \"contracts/Lib.sol\":3242:3247  part1 */\n      dup2\n        /* \"contracts/Lib.sol\":3249:3251  _f */\n      dup8\n        /* \"contracts/Lib.sol\":3253:3255  _g */\n      dup8\n        /* \"contracts/Lib.sol\":3257:3259  _h */\n      dup8\n        /* \"contracts/Lib.sol\":3261:3263  _i */\n      dup8\n        /* \"contracts/Lib.sol\":3232:3241  strConcat */\n      tag_52\n        /* \"contracts/Lib.sol\":3232:3264  strConcat(part1, _f, _g, _h, _i) */\n      jump\t// in\n    tag_160:\n        /* \"contracts/Lib.sol\":3225:3264  return strConcat(part1, _f, _g, _h, _i) */\n      swap12\n        /* \"contracts/Lib.sol\":2942:3268  function strConcat(string memory _a, string memory _b, string memory _c,... */\n      swap11\n      pop\n      pop\n      pop\n      pop\n      pop\n      pop\n      pop\n      pop\n      pop\n      pop\n      pop\n      jump\t// out\n        /* \"#utility.yul\":14:141   */\n    tag_106:\n        /* \"#utility.yul\":75:85   */\n      0x4e487b71\n        /* \"#utility.yul\":70:73   */\n      0xe0\n        /* \"#utility.yul\":66:86   */\n      shl\n        /* \"#utility.yul\":63:64   */\n      0x00\n        /* \"#utility.yul\":56:87   */\n      mstore\n        /* \"#utility.yul\":106:110   */\n      0x41\n        /* \"#utility.yul\":103:104   */\n      0x04\n        /* \"#utility.yul\":96:111   */\n      mstore\n        /* \"#utility.yul\":130:134   */\n      0x24\n        /* \"#utility.yul\":127:128   */\n      0x00\n        /* \"#utility.yul\":120:135   */\n      revert\n        /* \"#utility.yul\":146:865   */\n    tag_161:\n        /* \"#utility.yul\":189:194   */\n      0x00\n        /* \"#utility.yul\":242:245   */\n      dup3\n        /* \"#utility.yul\":235:239   */\n      0x1f\n        /* \"#utility.yul\":227:233   */\n      dup4\n        /* \"#utility.yul\":223:240   */\n      add\n        /* \"#utility.yul\":219:246   */\n      slt\n        /* \"#utility.yul\":209:264   */\n      tag_167\n      jumpi\n        /* \"#utility.yul\":260:261   */\n      0x00\n        /* \"#utility.yul\":257:258   */\n      dup1\n        /* \"#utility.yul\":250:262   */\n      revert\n        /* \"#utility.yul\":209:264   */\n    tag_167:\n        /* \"#utility.yul\":296:302   */\n      dup2\n        /* \"#utility.yul\":283:303   */\n      calldataload\n        /* \"#utility.yul\":322:340   */\n      0xffffffffffffffff\n        /* \"#utility.yul\":359:361   */\n      dup1\n        /* \"#utility.yul\":355:357   */\n      dup3\n        /* \"#utility.yul\":352:362   */\n      gt\n        /* \"#utility.yul\":349:385   */\n      iszero\n      tag_169\n      jumpi\n        /* \"#utility.yul\":365:383   */\n      tag_169\n      tag_106\n      jump\t// in\n    tag_169:\n        /* \"#utility.yul\":440:442   */\n      0x40\n        /* \"#utility.yul\":434:443   */\n      mload\n        /* \"#utility.yul\":408:410   */\n      0x1f\n        /* \"#utility.yul\":494:507   */\n      dup4\n      add\n      not(0x1f)\n        /* \"#utility.yul\":490:512   */\n      swap1\n      dup2\n      and\n        /* \"#utility.yul\":514:516   */\n      0x3f\n        /* \"#utility.yul\":486:517   */\n      add\n        /* \"#utility.yul\":482:522   */\n      and\n        /* \"#utility.yul\":470:523   */\n      dup2\n      add\n      swap1\n        /* \"#utility.yul\":538:556   */\n      dup3\n      dup3\n      gt\n        /* \"#utility.yul\":558:580   */\n      dup2\n      dup4\n      lt\n        /* \"#utility.yul\":535:581   */\n      or\n        /* \"#utility.yul\":532:604   */\n      iszero\n      tag_171\n      jumpi\n        /* \"#utility.yul\":584:602   */\n      tag_171\n      tag_106\n      jump\t// in\n    tag_171:\n        /* \"#utility.yul\":624:634   */\n      dup2\n        /* \"#utility.yul\":620:622   */\n      0x40\n        /* \"#utility.yul\":613:635   */\n      mstore\n        /* \"#utility.yul\":659:661   */\n      dup4\n        /* \"#utility.yul\":651:657   */\n      dup2\n        /* \"#utility.yul\":644:662   */\n      mstore\n        /* \"#utility.yul\":705:708   */\n      dup7\n        /* \"#utility.yul\":698:702   */\n      0x20\n        /* \"#utility.yul\":693:695   */\n      dup6\n        /* \"#utility.yul\":685:691   */\n      dup9\n        /* \"#utility.yul\":681:696   */\n      add\n        /* \"#utility.yul\":677:703   */\n      add\n        /* \"#utility.yul\":674:709   */\n      gt\n        /* \"#utility.yul\":671:726   */\n      iszero\n      tag_172\n      jumpi\n        /* \"#utility.yul\":722:723   */\n      0x00\n        /* \"#utility.yul\":719:720   */\n      dup1\n        /* \"#utility.yul\":712:724   */\n      revert\n        /* \"#utility.yul\":671:726   */\n    tag_172:\n        /* \"#utility.yul\":786:788   */\n      dup4\n        /* \"#utility.yul\":779:783   */\n      0x20\n        /* \"#utility.yul\":771:777   */\n      dup8\n        /* \"#utility.yul\":767:784   */\n      add\n        /* \"#utility.yul\":760:764   */\n      0x20\n        /* \"#utility.yul\":752:758   */\n      dup4\n        /* \"#utility.yul\":748:765   */\n      add\n        /* \"#utility.yul\":735:789   */\n      calldatacopy\n        /* \"#utility.yul\":833:834   */\n      0x00\n        /* \"#utility.yul\":826:830   */\n      0x20\n        /* \"#utility.yul\":821:823   */\n      dup6\n        /* \"#utility.yul\":813:819   */\n      dup4\n        /* \"#utility.yul\":809:824   */\n      add\n        /* \"#utility.yul\":805:831   */\n      add\n        /* \"#utility.yul\":798:835   */\n      mstore\n        /* \"#utility.yul\":853:859   */\n      dup1\n        /* \"#utility.yul\":844:859   */\n      swap5\n      pop\n      pop\n      pop\n      pop\n      pop\n        /* \"#utility.yul\":146:865   */\n      swap3\n      swap2\n      pop\n      pop\n      jump\t// out\n        /* \"#utility.yul\":870:1613   */\n    tag_26:\n        /* \"#utility.yul\":977:983   */\n      0x00\n        /* \"#utility.yul\":985:991   */\n      dup1\n        /* \"#utility.yul\":993:999   */\n      0x00\n        /* \"#utility.yul\":1046:1048   */\n      0x60\n        /* \"#utility.yul\":1034:1043   */\n      dup5\n        /* \"#utility.yul\":1025:1032   */\n      dup7\n        /* \"#utility.yul\":1021:1044   */\n      sub\n        /* \"#utility.yul\":1017:1049   */\n      slt\n        /* \"#utility.yul\":1014:1066   */\n      iszero\n      tag_174\n      jumpi\n        /* \"#utility.yul\":1062:1063   */\n      0x00\n        /* \"#utility.yul\":1059:1060   */\n      dup1\n        /* \"#utility.yul\":1052:1064   */\n      revert\n        /* \"#utility.yul\":1014:1066   */\n    tag_174:\n        /* \"#utility.yul\":1102:1111   */\n      dup4\n        /* \"#utility.yul\":1089:1112   */\n      calldataload\n        /* \"#utility.yul\":1131:1149   */\n      0xffffffffffffffff\n        /* \"#utility.yul\":1172:1174   */\n      dup1\n        /* \"#utility.yul\":1164:1170   */\n      dup3\n        /* \"#utility.yul\":1161:1175   */\n      gt\n        /* \"#utility.yul\":1158:1192   */\n      iszero\n      tag_175\n      jumpi\n        /* \"#utility.yul\":1188:1189   */\n      0x00\n        /* \"#utility.yul\":1185:1186   */\n      dup1\n        /* \"#utility.yul\":1178:1190   */\n      revert\n        /* \"#utility.yul\":1158:1192   */\n    tag_175:\n        /* \"#utility.yul\":1211:1261   */\n      tag_176\n        /* \"#utility.yul\":1253:1260   */\n      dup8\n        /* \"#utility.yul\":1244:1250   */\n      dup4\n        /* \"#utility.yul\":1233:1242   */\n      dup9\n        /* \"#utility.yul\":1229:1251   */\n      add\n        /* \"#utility.yul\":1211:1261   */\n      tag_161\n      jump\t// in\n    tag_176:\n        /* \"#utility.yul\":1201:1261   */\n      swap5\n      pop\n        /* \"#utility.yul\":1314:1316   */\n      0x20\n        /* \"#utility.yul\":1303:1312   */\n      dup7\n        /* \"#utility.yul\":1299:1317   */\n      add\n        /* \"#utility.yul\":1286:1318   */\n      calldataload\n        /* \"#utility.yul\":1270:1318   */\n      swap2\n      pop\n        /* \"#utility.yul\":1343:1345   */\n      dup1\n        /* \"#utility.yul\":1333:1341   */\n      dup3\n        /* \"#utility.yul\":1330:1346   */\n      gt\n        /* \"#utility.yul\":1327:1363   */\n      iszero\n      tag_177\n      jumpi\n        /* \"#utility.yul\":1359:1360   */\n      0x00\n        /* \"#utility.yul\":1356:1357   */\n      dup1\n        /* \"#utility.yul\":1349:1361   */\n      revert\n        /* \"#utility.yul\":1327:1363   */\n    tag_177:\n        /* \"#utility.yul\":1382:1434   */\n      tag_178\n        /* \"#utility.yul\":1426:1433   */\n      dup8\n        /* \"#utility.yul\":1415:1423   */\n      dup4\n        /* \"#utility.yul\":1404:1413   */\n      dup9\n        /* \"#utility.yul\":1400:1424   */\n      add\n        /* \"#utility.yul\":1382:1434   */\n      tag_161\n      jump\t// in\n    tag_178:\n        /* \"#utility.yul\":1372:1434   */\n      swap4\n      pop\n        /* \"#utility.yul\":1487:1489   */\n      0x40\n        /* \"#utility.yul\":1476:1485   */\n      dup7\n        /* \"#utility.yul\":1472:1490   */\n      add\n        /* \"#utility.yul\":1459:1491   */\n      calldataload\n        /* \"#utility.yul\":1443:1491   */\n      swap2\n      pop\n        /* \"#utility.yul\":1516:1518   */\n      dup1\n        /* \"#utility.yul\":1506:1514   */\n      dup3\n        /* \"#utility.yul\":1503:1519   */\n      gt\n        /* \"#utility.yul\":1500:1536   */\n      iszero\n      tag_179\n      jumpi\n        /* \"#utility.yul\":1532:1533   */\n      0x00\n        /* \"#utility.yul\":1529:1530   */\n      dup1\n        /* \"#utility.yul\":1522:1534   */\n      revert\n        /* \"#utility.yul\":1500:1536   */\n    tag_179:\n      pop\n        /* \"#utility.yul\":1555:1607   */\n      tag_180\n        /* \"#utility.yul\":1599:1606   */\n      dup7\n        /* \"#utility.yul\":1588:1596   */\n      dup3\n        /* \"#utility.yul\":1577:1586   */\n      dup8\n        /* \"#utility.yul\":1573:1597   */\n      add\n        /* \"#utility.yul\":1555:1607   */\n      tag_161\n      jump\t// in\n    tag_180:\n        /* \"#utility.yul\":1545:1607   */\n      swap2\n      pop\n      pop\n        /* \"#utility.yul\":870:1613   */\n      swap3\n      pop\n      swap3\n      pop\n      swap3\n      jump\t// out\n        /* \"#utility.yul\":1818:2068   */\n    tag_162:\n        /* \"#utility.yul\":1903:1904   */\n      0x00\n        /* \"#utility.yul\":1913:2026   */\n    tag_183:\n        /* \"#utility.yul\":1927:1933   */\n      dup4\n        /* \"#utility.yul\":1924:1925   */\n      dup2\n        /* \"#utility.yul\":1921:1934   */\n      lt\n        /* \"#utility.yul\":1913:2026   */\n      iszero\n      tag_185\n      jumpi\n        /* \"#utility.yul\":2003:2014   */\n      dup2\n      dup2\n      add\n        /* \"#utility.yul\":1997:2015   */\n      mload\n        /* \"#utility.yul\":1984:1995   */\n      dup4\n      dup3\n      add\n        /* \"#utility.yul\":1977:2016   */\n      mstore\n        /* \"#utility.yul\":1949:1951   */\n      0x20\n        /* \"#utility.yul\":1942:1952   */\n      add\n        /* \"#utility.yul\":1913:2026   */\n      jump(tag_183)\n    tag_185:\n      pop\n      pop\n        /* \"#utility.yul\":2060:2061   */\n      0x00\n        /* \"#utility.yul\":2042:2058   */\n      swap2\n      add\n        /* \"#utility.yul\":2035:2062   */\n      mstore\n        /* \"#utility.yul\":1818:2068   */\n      jump\t// out\n        /* \"#utility.yul\":2073:2477   */\n    tag_33:\n        /* \"#utility.yul\":2230:2232   */\n      0x20\n        /* \"#utility.yul\":2219:2228   */\n      dup2\n        /* \"#utility.yul\":2212:2233   */\n      mstore\n        /* \"#utility.yul\":2193:2197   */\n      0x00\n        /* \"#utility.yul\":2262:2268   */\n      dup3\n        /* \"#utility.yul\":2256:2269   */\n      mload\n        /* \"#utility.yul\":2305:2311   */\n      dup1\n        /* \"#utility.yul\":2300:2302   */\n      0x20\n        /* \"#utility.yul\":2289:2298   */\n      dup5\n        /* \"#utility.yul\":2285:2303   */\n      add\n        /* \"#utility.yul\":2278:2312   */\n      mstore\n        /* \"#utility.yul\":2321:2400   */\n      tag_187\n        /* \"#utility.yul\":2393:2399   */\n      dup2\n        /* \"#utility.yul\":2388:2390   */\n      0x40\n        /* \"#utility.yul\":2377:2386   */\n      dup6\n        /* \"#utility.yul\":2373:2391   */\n      add\n        /* \"#utility.yul\":2368:2370   */\n      0x20\n        /* \"#utility.yul\":2360:2366   */\n      dup8\n        /* \"#utility.yul\":2356:2371   */\n      add\n        /* \"#utility.yul\":2321:2400   */\n      tag_162\n      jump\t// in\n    tag_187:\n        /* \"#utility.yul\":2461:2463   */\n      0x1f\n        /* \"#utility.yul\":2440:2455   */\n      add\n      not(0x1f)\n        /* \"#utility.yul\":2436:2465   */\n      and\n        /* \"#utility.yul\":2421:2466   */\n      swap2\n      swap1\n      swap2\n      add\n        /* \"#utility.yul\":2468:2470   */\n      0x40\n        /* \"#utility.yul\":2417:2471   */\n      add\n      swap3\n        /* \"#utility.yul\":2073:2477   */\n      swap2\n      pop\n      pop\n      jump\t// out\n        /* \"#utility.yul\":2482:3627   */\n    tag_51:\n        /* \"#utility.yul\":2627:2633   */\n      0x00\n        /* \"#utility.yul\":2635:2641   */\n      dup1\n        /* \"#utility.yul\":2643:2649   */\n      0x00\n        /* \"#utility.yul\":2651:2657   */\n      dup1\n        /* \"#utility.yul\":2659:2665   */\n      0x00\n        /* \"#utility.yul\":2712:2715   */\n      0xa0\n        /* \"#utility.yul\":2700:2709   */\n      dup7\n        /* \"#utility.yul\":2691:2698   */\n      dup9\n        /* \"#utility.yul\":2687:2710   */\n      sub\n        /* \"#utility.yul\":2683:2716   */\n      slt\n        /* \"#utility.yul\":2680:2733   */\n      iszero\n      tag_189\n      jumpi\n        /* \"#utility.yul\":2729:2730   */\n      0x00\n        /* \"#utility.yul\":2726:2727   */\n      dup1\n        /* \"#utility.yul\":2719:2731   */\n      revert\n        /* \"#utility.yul\":2680:2733   */\n    tag_189:\n        /* \"#utility.yul\":2769:2778   */\n      dup6\n        /* \"#utility.yul\":2756:2779   */\n      calldataload\n        /* \"#utility.yul\":2798:2816   */\n      0xffffffffffffffff\n        /* \"#utility.yul\":2839:2841   */\n      dup1\n        /* \"#utility.yul\":2831:2837   */\n      dup3\n        /* \"#utility.yul\":2828:2842   */\n      gt\n        /* \"#utility.yul\":2825:2859   */\n      iszero\n      tag_190\n      jumpi\n        /* \"#utility.yul\":2855:2856   */\n      0x00\n        /* \"#utility.yul\":2852:2853   */\n      dup1\n        /* \"#utility.yul\":2845:2857   */\n      revert\n        /* \"#utility.yul\":2825:2859   */\n    tag_190:\n        /* \"#utility.yul\":2878:2928   */\n      tag_191\n        /* \"#utility.yul\":2920:2927   */\n      dup10\n        /* \"#utility.yul\":2911:2917   */\n      dup4\n        /* \"#utility.yul\":2900:2909   */\n      dup11\n        /* \"#utility.yul\":2896:2918   */\n      add\n        /* \"#utility.yul\":2878:2928   */\n      tag_161\n      jump\t// in\n    tag_191:\n        /* \"#utility.yul\":2868:2928   */\n      swap7\n      pop\n        /* \"#utility.yul\":2981:2983   */\n      0x20\n        /* \"#utility.yul\":2970:2979   */\n      dup9\n        /* \"#utility.yul\":2966:2984   */\n      add\n        /* \"#utility.yul\":2953:2985   */\n      calldataload\n        /* \"#utility.yul\":2937:2985   */\n      swap2\n      pop\n        /* \"#utility.yul\":3010:3012   */\n      dup1\n        /* \"#utility.yul\":3000:3008   */\n      dup3\n        /* \"#utility.yul\":2997:3013   */\n      gt\n        /* \"#utility.yul\":2994:3030   */\n      iszero\n      tag_192\n      jumpi\n        /* \"#utility.yul\":3026:3027   */\n      0x00\n        /* \"#utility.yul\":3023:3024   */\n      dup1\n        /* \"#utility.yul\":3016:3028   */\n      revert\n        /* \"#utility.yul\":2994:3030   */\n    tag_192:\n        /* \"#utility.yul\":3049:3101   */\n      tag_193\n        /* \"#utility.yul\":3093:3100   */\n      dup10\n        /* \"#utility.yul\":3082:3090   */\n      dup4\n        /* \"#utility.yul\":3071:3080   */\n      dup11\n        /* \"#utility.yul\":3067:3091   */\n      add\n        /* \"#utility.yul\":3049:3101   */\n      tag_161\n      jump\t// in\n    tag_193:\n        /* \"#utility.yul\":3039:3101   */\n      swap6\n      pop\n        /* \"#utility.yul\":3154:3156   */\n      0x40\n        /* \"#utility.yul\":3143:3152   */\n      dup9\n        /* \"#utility.yul\":3139:3157   */\n      add\n        /* \"#utility.yul\":3126:3158   */\n      calldataload\n        /* \"#utility.yul\":3110:3158   */\n      swap2\n      pop\n        /* \"#utility.yul\":3183:3185   */\n      dup1\n        /* \"#utility.yul\":3173:3181   */\n      dup3\n        /* \"#utility.yul\":3170:3186   */\n      gt\n        /* \"#utility.yul\":3167:3203   */\n      iszero\n      tag_194\n      jumpi\n        /* \"#utility.yul\":3199:3200   */\n      0x00\n        /* \"#utility.yul\":3196:3197   */\n      dup1\n        /* \"#utility.yul\":3189:3201   */\n      revert\n        /* \"#utility.yul\":3167:3203   */\n    tag_194:\n        /* \"#utility.yul\":3222:3274   */\n      tag_195\n        /* \"#utility.yul\":3266:3273   */\n      dup10\n        /* \"#utility.yul\":3255:3263   */\n      dup4\n        /* \"#utility.yul\":3244:3253   */\n      dup11\n        /* \"#utility.yul\":3240:3264   */\n      add\n        /* \"#utility.yul\":3222:3274   */\n      tag_161\n      jump\t// in\n    tag_195:\n        /* \"#utility.yul\":3212:3274   */\n      swap5\n      pop\n        /* \"#utility.yul\":3327:3329   */\n      0x60\n        /* \"#utility.yul\":3316:3325   */\n      dup9\n        /* \"#utility.yul\":3312:3330   */\n      add\n        /* \"#utility.yul\":3299:3331   */\n      calldataload\n        /* \"#utility.yul\":3283:3331   */\n      swap2\n      pop\n        /* \"#utility.yul\":3356:3358   */\n      dup1\n        /* \"#utility.yul\":3346:3354   */\n      dup3\n        /* \"#utility.yul\":3343:3359   */\n      gt\n        /* \"#utility.yul\":3340:3376   */\n      iszero\n      tag_196\n      jumpi\n        /* \"#utility.yul\":3372:3373   */\n      0x00\n        /* \"#utility.yul\":3369:3370   */\n      dup1\n        /* \"#utility.yul\":3362:3374   */\n      revert\n        /* \"#utility.yul\":3340:3376   */\n    tag_196:\n        /* \"#utility.yul\":3395:3447   */\n      tag_197\n        /* \"#utility.yul\":3439:3446   */\n      dup10\n        /* \"#utility.yul\":3428:3436   */\n      dup4\n        /* \"#utility.yul\":3417:3426   */\n      dup11\n        /* \"#utility.yul\":3413:3437   */\n      add\n        /* \"#utility.yul\":3395:3447   */\n      tag_161\n      jump\t// in\n    tag_197:\n        /* \"#utility.yul\":3385:3447   */\n      swap4\n      pop\n        /* \"#utility.yul\":3500:3503   */\n      0x80\n        /* \"#utility.yul\":3489:3498   */\n      dup9\n        /* \"#utility.yul\":3485:3504   */\n      add\n        /* \"#utility.yul\":3472:3505   */\n      calldataload\n        /* \"#utility.yul\":3456:3505   */\n      swap2\n      pop\n        /* \"#utility.yul\":3530:3532   */\n      dup1\n        /* \"#utility.yul\":3520:3528   */\n      dup3\n        /* \"#utility.yul\":3517:3533   */\n      gt\n        /* \"#utility.yul\":3514:3550   */\n      iszero\n      tag_198\n      jumpi\n        /* \"#utility.yul\":3546:3547   */\n      0x00\n        /* \"#utility.yul\":3543:3544   */\n      dup1\n        /* \"#utility.yul\":3536:3548   */\n      revert\n        /* \"#utility.yul\":3514:3550   */\n    tag_198:\n      pop\n        /* \"#utility.yul\":3569:3621   */\n      tag_199\n        /* \"#utility.yul\":3613:3620   */\n      dup9\n        /* \"#utility.yul\":3602:3610   */\n      dup3\n        /* \"#utility.yul\":3591:3600   */\n      dup10\n        /* \"#utility.yul\":3587:3611   */\n      add\n        /* \"#utility.yul\":3569:3621   */\n      tag_161\n      jump\t// in\n    tag_199:\n        /* \"#utility.yul\":3559:3621   */\n      swap2\n      pop\n      pop\n        /* \"#utility.yul\":2482:3627   */\n      swap3\n      swap6\n      pop\n      swap3\n      swap6\n      swap1\n      swap4\n      pop\n      jump\t// out\n        /* \"#utility.yul\":3632:4175   */\n    tag_71:\n        /* \"#utility.yul\":3720:3726   */\n      0x00\n        /* \"#utility.yul\":3728:3734   */\n      dup1\n        /* \"#utility.yul\":3781:3783   */\n      0x40\n        /* \"#utility.yul\":3769:3778   */\n      dup4\n        /* \"#utility.yul\":3760:3767   */\n      dup6\n        /* \"#utility.yul\":3756:3779   */\n      sub\n        /* \"#utility.yul\":3752:3784   */\n      slt\n        /* \"#utility.yul\":3749:3801   */\n      iszero\n      tag_201\n      jumpi\n        /* \"#utility.yul\":3797:3798   */\n      0x00\n        /* \"#utility.yul\":3794:3795   */\n      dup1\n        /* \"#utility.yul\":3787:3799   */\n      revert\n        /* \"#utility.yul\":3749:3801   */\n    tag_201:\n        /* \"#utility.yul\":3837:3846   */\n      dup3\n        /* \"#utility.yul\":3824:3847   */\n      calldataload\n        /* \"#utility.yul\":3866:3884   */\n      0xffffffffffffffff\n        /* \"#utility.yul\":3907:3909   */\n      dup1\n        /* \"#utility.yul\":3899:3905   */\n      dup3\n        /* \"#utility.yul\":3896:3910   */\n      gt\n        /* \"#utility.yul\":3893:3927   */\n      iszero\n      tag_202\n      jumpi\n        /* \"#utility.yul\":3923:3924   */\n      0x00\n        /* \"#utility.yul\":3920:3921   */\n      dup1\n        /* \"#utility.yul\":3913:3925   */\n      revert\n        /* \"#utility.yul\":3893:3927   */\n    tag_202:\n        /* \"#utility.yul\":3946:3996   */\n      tag_203\n        /* \"#utility.yul\":3988:3995   */\n      dup7\n        /* \"#utility.yul\":3979:3985   */\n      dup4\n        /* \"#utility.yul\":3968:3977   */\n      dup8\n        /* \"#utility.yul\":3964:3986   */\n      add\n        /* \"#utility.yul\":3946:3996   */\n      tag_161\n      jump\t// in\n    tag_203:\n        /* \"#utility.yul\":3936:3996   */\n      swap4\n      pop\n        /* \"#utility.yul\":4049:4051   */\n      0x20\n        /* \"#utility.yul\":4038:4047   */\n      dup6\n        /* \"#utility.yul\":4034:4052   */\n      add\n        /* \"#utility.yul\":4021:4053   */\n      calldataload\n        /* \"#utility.yul\":4005:4053   */\n      swap2\n      pop\n        /* \"#utility.yul\":4078:4080   */\n      dup1\n        /* \"#utility.yul\":4068:4076   */\n      dup3\n        /* \"#utility.yul\":4065:4081   */\n      gt\n        /* \"#utility.yul\":4062:4098   */\n      iszero\n      tag_204\n      jumpi\n        /* \"#utility.yul\":4094:4095   */\n      0x00\n        /* \"#utility.yul\":4091:4092   */\n      dup1\n        /* \"#utility.yul\":4084:4096   */\n      revert\n        /* \"#utility.yul\":4062:4098   */\n    tag_204:\n      pop\n        /* \"#utility.yul\":4117:4169   */\n      tag_205\n        /* \"#utility.yul\":4161:4168   */\n      dup6\n        /* \"#utility.yul\":4150:4158   */\n      dup3\n        /* \"#utility.yul\":4139:4148   */\n      dup7\n        /* \"#utility.yul\":4135:4159   */\n      add\n        /* \"#utility.yul\":4117:4169   */\n      tag_161\n      jump\t// in\n    tag_205:\n        /* \"#utility.yul\":4107:4169   */\n      swap2\n      pop\n      pop\n        /* \"#utility.yul\":3632:4175   */\n      swap3\n      pop\n      swap3\n      swap1\n      pop\n      jump\t// out\n        /* \"#utility.yul\":4180:6129   */\n    tag_85:\n        /* \"#utility.yul\":4401:4407   */\n      0x00\n        /* \"#utility.yul\":4409:4415   */\n      dup1\n        /* \"#utility.yul\":4417:4423   */\n      0x00\n        /* \"#utility.yul\":4425:4431   */\n      dup1\n        /* \"#utility.yul\":4433:4439   */\n      0x00\n        /* \"#utility.yul\":4441:4447   */\n      dup1\n        /* \"#utility.yul\":4449:4455   */\n      0x00\n        /* \"#utility.yul\":4457:4463   */\n      dup1\n        /* \"#utility.yul\":4465:4471   */\n      0x00\n        /* \"#utility.yul\":4518:4521   */\n      0x0120\n        /* \"#utility.yul\":4506:4515   */\n      dup11\n        /* \"#utility.yul\":4497:4504   */\n      dup13\n        /* \"#utility.yul\":4493:4516   */\n      sub\n        /* \"#utility.yul\":4489:4522   */\n      slt\n        /* \"#utility.yul\":4486:4539   */\n      iszero\n      tag_207\n      jumpi\n        /* \"#utility.yul\":4535:4536   */\n      0x00\n        /* \"#utility.yul\":4532:4533   */\n      dup1\n        /* \"#utility.yul\":4525:4537   */\n      revert\n        /* \"#utility.yul\":4486:4539   */\n    tag_207:\n        /* \"#utility.yul\":4575:4584   */\n      dup10\n        /* \"#utility.yul\":4562:4585   */\n      calldataload\n        /* \"#utility.yul\":4604:4622   */\n      0xffffffffffffffff\n        /* \"#utility.yul\":4645:4647   */\n      dup1\n        /* \"#utility.yul\":4637:4643   */\n      dup3\n        /* \"#utility.yul\":4634:4648   */\n      gt\n        /* \"#utility.yul\":4631:4665   */\n      iszero\n      tag_208\n      jumpi\n        /* \"#utility.yul\":4661:4662   */\n      0x00\n        /* \"#utility.yul\":4658:4659   */\n      dup1\n        /* \"#utility.yul\":4651:4663   */\n      revert\n        /* \"#utility.yul\":4631:4665   */\n    tag_208:\n        /* \"#utility.yul\":4684:4734   */\n      tag_209\n        /* \"#utility.yul\":4726:4733   */\n      dup14\n        /* \"#utility.yul\":4717:4723   */\n      dup4\n        /* \"#utility.yul\":4706:4715   */\n      dup15\n        /* \"#utility.yul\":4702:4724   */\n      add\n        /* \"#utility.yul\":4684:4734   */\n      tag_161\n      jump\t// in\n    tag_209:\n        /* \"#utility.yul\":4674:4734   */\n      swap11\n      pop\n        /* \"#utility.yul\":4787:4789   */\n      0x20\n        /* \"#utility.yul\":4776:4785   */\n      dup13\n        /* \"#utility.yul\":4772:4790   */\n      add\n        /* \"#utility.yul\":4759:4791   */\n      calldataload\n        /* \"#utility.yul\":4743:4791   */\n      swap2\n      pop\n        /* \"#utility.yul\":4816:4818   */\n      dup1\n        /* \"#utility.yul\":4806:4814   */\n      dup3\n        /* \"#utility.yul\":4803:4819   */\n      gt\n        /* \"#utility.yul\":4800:4836   */\n      iszero\n      tag_210\n      jumpi\n        /* \"#utility.yul\":4832:4833   */\n      0x00\n        /* \"#utility.yul\":4829:4830   */\n      dup1\n        /* \"#utility.yul\":4822:4834   */\n      revert\n        /* \"#utility.yul\":4800:4836   */\n    tag_210:\n        /* \"#utility.yul\":4855:4907   */\n      tag_211\n        /* \"#utility.yul\":4899:4906   */\n      dup14\n        /* \"#utility.yul\":4888:4896   */\n      dup4\n        /* \"#utility.yul\":4877:4886   */\n      dup15\n        /* \"#utility.yul\":4873:4897   */\n      add\n        /* \"#utility.yul\":4855:4907   */\n      tag_161\n      jump\t// in\n    tag_211:\n        /* \"#utility.yul\":4845:4907   */\n      swap10\n      pop\n        /* \"#utility.yul\":4960:4962   */\n      0x40\n        /* \"#utility.yul\":4949:4958   */\n      dup13\n        /* \"#utility.yul\":4945:4963   */\n      add\n        /* \"#utility.yul\":4932:4964   */\n      calldataload\n        /* \"#utility.yul\":4916:4964   */\n      swap2\n      pop\n        /* \"#utility.yul\":4989:4991   */\n      dup1\n        /* \"#utility.yul\":4979:4987   */\n      dup3\n        /* \"#utility.yul\":4976:4992   */\n      gt\n        /* \"#utility.yul\":4973:5009   */\n      iszero\n      tag_212\n      jumpi\n        /* \"#utility.yul\":5005:5006   */\n      0x00\n        /* \"#utility.yul\":5002:5003   */\n      dup1\n        /* \"#utility.yul\":4995:5007   */\n      revert\n        /* \"#utility.yul\":4973:5009   */\n    tag_212:\n        /* \"#utility.yul\":5028:5080   */\n      tag_213\n        /* \"#utility.yul\":5072:5079   */\n      dup14\n        /* \"#utility.yul\":5061:5069   */\n      dup4\n        /* \"#utility.yul\":5050:5059   */\n      dup15\n        /* \"#utility.yul\":5046:5070   */\n      add\n        /* \"#utility.yul\":5028:5080   */\n      tag_161\n      jump\t// in\n    tag_213:\n        /* \"#utility.yul\":5018:5080   */\n      swap9\n      pop\n        /* \"#utility.yul\":5133:5135   */\n      0x60\n        /* \"#utility.yul\":5122:5131   */\n      dup13\n        /* \"#utility.yul\":5118:5136   */\n      add\n        /* \"#utility.yul\":5105:5137   */\n      calldataload\n        /* \"#utility.yul\":5089:5137   */\n      swap2\n      pop\n        /* \"#utility.yul\":5162:5164   */\n      dup1\n        /* \"#utility.yul\":5152:5160   */\n      dup3\n        /* \"#utility.yul\":5149:5165   */\n      gt\n        /* \"#utility.yul\":5146:5182   */\n      iszero\n      tag_214\n      jumpi\n        /* \"#utility.yul\":5178:5179   */\n      0x00\n        /* \"#utility.yul\":5175:5176   */\n      dup1\n        /* \"#utility.yul\":5168:5180   */\n      revert\n        /* \"#utility.yul\":5146:5182   */\n    tag_214:\n        /* \"#utility.yul\":5201:5253   */\n      tag_215\n        /* \"#utility.yul\":5245:5252   */\n      dup14\n        /* \"#utility.yul\":5234:5242   */\n      dup4\n        /* \"#utility.yul\":5223:5232   */\n      dup15\n        /* \"#utility.yul\":5219:5243   */\n      add\n        /* \"#utility.yul\":5201:5253   */\n      tag_161\n      jump\t// in\n    tag_215:\n        /* \"#utility.yul\":5191:5253   */\n      swap8\n      pop\n        /* \"#utility.yul\":5306:5309   */\n      0x80\n        /* \"#utility.yul\":5295:5304   */\n      dup13\n        /* \"#utility.yul\":5291:5310   */\n      add\n        /* \"#utility.yul\":5278:5311   */\n      calldataload\n        /* \"#utility.yul\":5262:5311   */\n      swap2\n      pop\n        /* \"#utility.yul\":5336:5338   */\n      dup1\n        /* \"#utility.yul\":5326:5334   */\n      dup3\n        /* \"#utility.yul\":5323:5339   */\n      gt\n        /* \"#utility.yul\":5320:5356   */\n      iszero\n      tag_216\n      jumpi\n        /* \"#utility.yul\":5352:5353   */\n      0x00\n        /* \"#utility.yul\":5349:5350   */\n      dup1\n        /* \"#utility.yul\":5342:5354   */\n      revert\n        /* \"#utility.yul\":5320:5356   */\n    tag_216:\n        /* \"#utility.yul\":5375:5427   */\n      tag_217\n        /* \"#utility.yul\":5419:5426   */\n      dup14\n        /* \"#utility.yul\":5408:5416   */\n      dup4\n        /* \"#utility.yul\":5397:5406   */\n      dup15\n        /* \"#utility.yul\":5393:5417   */\n      add\n        /* \"#utility.yul\":5375:5427   */\n      tag_161\n      jump\t// in\n    tag_217:\n        /* \"#utility.yul\":5365:5427   */\n      swap7\n      pop\n        /* \"#utility.yul\":5480:5483   */\n      0xa0\n        /* \"#utility.yul\":5469:5478   */\n      dup13\n        /* \"#utility.yul\":5465:5484   */\n      add\n        /* \"#utility.yul\":5452:5485   */\n      calldataload\n        /* \"#utility.yul\":5436:5485   */\n      swap2\n      pop\n        /* \"#utility.yul\":5510:5512   */\n      dup1\n        /* \"#utility.yul\":5500:5508   */\n      dup3\n        /* \"#utility.yul\":5497:5513   */\n      gt\n        /* \"#utility.yul\":5494:5530   */\n      iszero\n      tag_218\n      jumpi\n        /* \"#utility.yul\":5526:5527   */\n      0x00\n        /* \"#utility.yul\":5523:5524   */\n      dup1\n        /* \"#utility.yul\":5516:5528   */\n      revert\n        /* \"#utility.yul\":5494:5530   */\n    tag_218:\n        /* \"#utility.yul\":5549:5601   */\n      tag_219\n        /* \"#utility.yul\":5593:5600   */\n      dup14\n        /* \"#utility.yul\":5582:5590   */\n      dup4\n        /* \"#utility.yul\":5571:5580   */\n      dup15\n        /* \"#utility.yul\":5567:5591   */\n      add\n        /* \"#utility.yul\":5549:5601   */\n      tag_161\n      jump\t// in\n    tag_219:\n        /* \"#utility.yul\":5539:5601   */\n      swap6\n      pop\n        /* \"#utility.yul\":5654:5657   */\n      0xc0\n        /* \"#utility.yul\":5643:5652   */\n      dup13\n        /* \"#utility.yul\":5639:5658   */\n      add\n        /* \"#utility.yul\":5626:5659   */\n      calldataload\n        /* \"#utility.yul\":5610:5659   */\n      swap2\n      pop\n        /* \"#utility.yul\":5684:5686   */\n      dup1\n        /* \"#utility.yul\":5674:5682   */\n      dup3\n        /* \"#utility.yul\":5671:5687   */\n      gt\n        /* \"#utility.yul\":5668:5704   */\n      iszero\n      tag_220\n      jumpi\n        /* \"#utility.yul\":5700:5701   */\n      0x00\n        /* \"#utility.yul\":5697:5698   */\n      dup1\n        /* \"#utility.yul\":5690:5702   */\n      revert\n        /* \"#utility.yul\":5668:5704   */\n    tag_220:\n        /* \"#utility.yul\":5723:5775   */\n      tag_221\n        /* \"#utility.yul\":5767:5774   */\n      dup14\n        /* \"#utility.yul\":5756:5764   */\n      dup4\n        /* \"#utility.yul\":5745:5754   */\n      dup15\n        /* \"#utility.yul\":5741:5765   */\n      add\n        /* \"#utility.yul\":5723:5775   */\n      tag_161\n      jump\t// in\n    tag_221:\n        /* \"#utility.yul\":5713:5775   */\n      swap5\n      pop\n        /* \"#utility.yul\":5828:5831   */\n      0xe0\n        /* \"#utility.yul\":5817:5826   */\n      dup13\n        /* \"#utility.yul\":5813:5832   */\n      add\n        /* \"#utility.yul\":5800:5833   */\n      calldataload\n        /* \"#utility.yul\":5784:5833   */\n      swap2\n      pop\n        /* \"#utility.yul\":5858:5860   */\n      dup1\n        /* \"#utility.yul\":5848:5856   */\n      dup3\n        /* \"#utility.yul\":5845:5861   */\n      gt\n        /* \"#utility.yul\":5842:5878   */\n      iszero\n      tag_222\n      jumpi\n        /* \"#utility.yul\":5874:5875   */\n      0x00\n        /* \"#utility.yul\":5871:5872   */\n      dup1\n        /* \"#utility.yul\":5864:5876   */\n      revert\n        /* \"#utility.yul\":5842:5878   */\n    tag_222:\n        /* \"#utility.yul\":5897:5949   */\n      tag_223\n        /* \"#utility.yul\":5941:5948   */\n      dup14\n        /* \"#utility.yul\":5930:5938   */\n      dup4\n        /* \"#utility.yul\":5919:5928   */\n      dup15\n        /* \"#utility.yul\":5915:5939   */\n      add\n        /* \"#utility.yul\":5897:5949   */\n      tag_161\n      jump\t// in\n    tag_223:\n        /* \"#utility.yul\":5887:5949   */\n      swap4\n      pop\n        /* \"#utility.yul\":6002:6005   */\n      0x0100\n        /* \"#utility.yul\":5991:6000   */\n      dup13\n        /* \"#utility.yul\":5987:6006   */\n      add\n        /* \"#utility.yul\":5974:6007   */\n      calldataload\n        /* \"#utility.yul\":5958:6007   */\n      swap2\n      pop\n        /* \"#utility.yul\":6032:6034   */\n      dup1\n        /* \"#utility.yul\":6022:6030   */\n      dup3\n        /* \"#utility.yul\":6019:6035   */\n      gt\n        /* \"#utility.yul\":6016:6052   */\n      iszero\n      tag_224\n      jumpi\n        /* \"#utility.yul\":6048:6049   */\n      0x00\n        /* \"#utility.yul\":6045:6046   */\n      dup1\n        /* \"#utility.yul\":6038:6050   */\n      revert\n        /* \"#utility.yul\":6016:6052   */\n    tag_224:\n      pop\n        /* \"#utility.yul\":6071:6123   */\n      tag_225\n        /* \"#utility.yul\":6115:6122   */\n      dup13\n        /* \"#utility.yul\":6104:6112   */\n      dup3\n        /* \"#utility.yul\":6093:6102   */\n      dup14\n        /* \"#utility.yul\":6089:6113   */\n      add\n        /* \"#utility.yul\":6071:6123   */\n      tag_161\n      jump\t// in\n    tag_225:\n        /* \"#utility.yul\":6061:6123   */\n      swap2\n      pop\n      pop\n        /* \"#utility.yul\":4180:6129   */\n      swap3\n      swap6\n      swap9\n      pop\n      swap3\n      swap6\n      swap9\n      pop\n      swap3\n      swap6\n      swap9\n      jump\t// out\n        /* \"#utility.yul\":6134:6423   */\n    tag_93:\n        /* \"#utility.yul\":6265:6268   */\n      0x00\n        /* \"#utility.yul\":6303:6309   */\n      dup3\n        /* \"#utility.yul\":6297:6310   */\n      mload\n        /* \"#utility.yul\":6319:6385   */\n      tag_227\n        /* \"#utility.yul\":6378:6384   */\n      dup2\n        /* \"#utility.yul\":6373:6376   */\n      dup5\n        /* \"#utility.yul\":6366:6370   */\n      0x20\n        /* \"#utility.yul\":6358:6364   */\n      dup8\n        /* \"#utility.yul\":6354:6371   */\n      add\n        /* \"#utility.yul\":6319:6385   */\n      tag_162\n      jump\t// in\n    tag_227:\n        /* \"#utility.yul\":6401:6417   */\n      swap2\n      swap1\n      swap2\n      add\n      swap3\n        /* \"#utility.yul\":6134:6423   */\n      swap2\n      pop\n      pop\n      jump\t// out\n        /* \"#utility.yul\":6428:6555   */\n    tag_163:\n        /* \"#utility.yul\":6489:6499   */\n      0x4e487b71\n        /* \"#utility.yul\":6484:6487   */\n      0xe0\n        /* \"#utility.yul\":6480:6500   */\n      shl\n        /* \"#utility.yul\":6477:6478   */\n      0x00\n        /* \"#utility.yul\":6470:6501   */\n      mstore\n        /* \"#utility.yul\":6520:6524   */\n      0x11\n        /* \"#utility.yul\":6517:6518   */\n      0x04\n        /* \"#utility.yul\":6510:6525   */\n      mstore\n        /* \"#utility.yul\":6544:6548   */\n      0x24\n        /* \"#utility.yul\":6541:6542   */\n      0x00\n        /* \"#utility.yul\":6534:6549   */\n      revert\n        /* \"#utility.yul\":6560:6685   */\n    tag_100:\n        /* \"#utility.yul\":6625:6634   */\n      dup1\n      dup3\n      add\n        /* \"#utility.yul\":6646:6656   */\n      dup1\n      dup3\n      gt\n        /* \"#utility.yul\":6643:6679   */\n      iszero\n      tag_155\n      jumpi\n        /* \"#utility.yul\":6659:6677   */\n      tag_155\n      tag_163\n      jump\t// in\n        /* \"#utility.yul\":6690:6817   */\n    tag_113:\n        /* \"#utility.yul\":6751:6761   */\n      0x4e487b71\n        /* \"#utility.yul\":6746:6749   */\n      0xe0\n        /* \"#utility.yul\":6742:6762   */\n      shl\n        /* \"#utility.yul\":6739:6740   */\n      0x00\n        /* \"#utility.yul\":6732:6763   */\n      mstore\n        /* \"#utility.yul\":6782:6786   */\n      0x32\n        /* \"#utility.yul\":6779:6780   */\n      0x04\n        /* \"#utility.yul\":6772:6787   */\n      mstore\n        /* \"#utility.yul\":6806:6810   */\n      0x24\n        /* \"#utility.yul\":6803:6804   */\n      0x00\n        /* \"#utility.yul\":6796:6811   */\n      revert\n        /* \"#utility.yul\":6822:6957   */\n    tag_115:\n        /* \"#utility.yul\":6861:6864   */\n      0x00\n        /* \"#utility.yul\":6882:6899   */\n      0x01\n      dup3\n      add\n        /* \"#utility.yul\":6879:6922   */\n      tag_235\n      jumpi\n        /* \"#utility.yul\":6902:6920   */\n      tag_235\n      tag_163\n      jump\t// in\n    tag_235:\n      pop\n        /* \"#utility.yul\":6949:6950   */\n      0x01\n        /* \"#utility.yul\":6938:6951   */\n      add\n      swap1\n        /* \"#utility.yul\":6822:6957   */\n      jump\t// out\n\n    auxdata: 0xa2646970667358221220a9b8e1ce8220f59569264e6def8b4e4a9671a44dc57ec65097e27265829739af64736f6c63430008110033\n}\n",
				"bytecode": {
					"linkReferences": {},
					"object": "610ce161003a600b82828239805160001a60731461002d57634e487b7160e01b600052600060045260246000fd5b30600052607381538281f3fe730000000000000000000000000000000000000000301460806040526004361061012b5760003560e01c80639b65c4f1116100b7578063c03c21ed1161007b578063c03c21ed1461033f578063c8db16ca1461036a578063da85bfb614610392578063dfbe0b1f146103c5578063e2998707146103d857600080fd5b80639b65c4f1146102a5578063b225a711146102d8578063b4fc54a414610190578063b7c8fcfb14610302578063bed34bba1461032c57600080fd5b8063634c24d5116100fe578063634c24d5146101e85780636bf6b23314610215578063823f77e81461023a5780639597886814610263578063983f27d91461027657600080fd5b806309a223f91461013057806315289f401461015857806327cb96e0146101905780632fc3a89d146101bd575b600080fd5b61014361013e3660046108bd565b6103fc565b60405190151581526020015b60405180910390f35b6101836040518060400160405280600c81526020016b50454e44494e47515545554560a01b81525081565b60405161014f9190610969565b6101836040518060400160405280600e81526020016d43414e43454c5343454e4152494f60901b81525081565b6101836040518060400160405280600c81526020016b10d491505513d497d313d4d560a21b81525081565b6101836040518060400160405280600e81526020016d41524249545241544f524e414d4560901b81525081565b610183604051806040016040528060068152602001652ba4a72722a960d11b81525081565b6101836040518060400160405280600a81526020016920a92124aa2920aa27a960b11b81525081565b61018361027136600461099c565b6104ac565b6101836040518060400160405280601081526020016f1091551051d0525394d5105353d5539560821b81525081565b6101836040518060400160405280601481526020017314d51052d154115490d15395149154555254915160621b81525081565b6101836040518060400160405280600b81526020016a21a922a0aa27a92faba7a760a91b81525081565b6101836040518060400160405280600b81526020016a57494e5343454e4152494f60a81b81525081565b61014361033a366004610a6e565b610791565b6101836040518060400160405280600c81526020016b4c4f53455343454e4152494f60a01b81525081565b6101836040518060400160405280600981526020016810d05390d15313115160ba1b81525081565b6101836040518060400160405280601481526020017320a92124aa2920aa27a921a7a6a6a4a9a9a4a7a760611b81525081565b6101836103d3366004610ad2565b6107eb565b61018360405180604001604052806005815260200164424554454560d81b81525081565b60008260405160200161040f9190610c37565b60405160208183030381529060405280519060200120846040516020016104369190610c37565b604051602081830303815290604052805190602001201480156104a45750816040516020016104659190610c37565b604051602081830303815290604052805190602001208360405160200161048c9190610c37565b60405160208183030381529060405280519060200120145b949350505050565b805182518451865188516060948a948a948a948a948a946000949093909290916104d69190610c69565b6104e09190610c69565b6104ea9190610c69565b6104f49190610c69565b67ffffffffffffffff81111561050c5761050c61081a565b6040519080825280601f01601f191660200182016040528015610536576020820181803683370190505b509050806000805b88518110156105ae5788818151811061055957610559610c7c565b01602001516001600160f81b031916838361057381610c92565b94508151811061058557610585610c7c565b60200101906001600160f81b031916908160001a905350806105a681610c92565b91505061053e565b5060005b8751811015610622578781815181106105cd576105cd610c7c565b01602001516001600160f81b03191683836105e781610c92565b9450815181106105f9576105f9610c7c565b60200101906001600160f81b031916908160001a9053508061061a81610c92565b9150506105b2565b5060005b86518110156106965786818151811061064157610641610c7c565b01602001516001600160f81b031916838361065b81610c92565b94508151811061066d5761066d610c7c565b60200101906001600160f81b031916908160001a9053508061068e81610c92565b915050610626565b5060005b855181101561070a578581815181106106b5576106b5610c7c565b01602001516001600160f81b03191683836106cf81610c92565b9450815181106106e1576106e1610c7c565b60200101906001600160f81b031916908160001a9053508061070281610c92565b91505061069a565b5060005b845181101561077e5784818151811061072957610729610c7c565b01602001516001600160f81b031916838361074381610c92565b94508151811061075557610755610c7c565b60200101906001600160f81b031916908160001a9053508061077681610c92565b91505061070e565b50909d9c50505050505050505050505050565b6000816040516020016107a49190610c37565b60405160208183030381529060405280519060200120836040516020016107cb9190610c37565b604051602081830303815290604052805190602001201490505b92915050565b606060006107fc8b8b8b8b8b6104ac565b905061080b81878787876104ac565b9b9a5050505050505050505050565b634e487b7160e01b600052604160045260246000fd5b600082601f83011261084157600080fd5b813567ffffffffffffffff8082111561085c5761085c61081a565b604051601f8301601f19908116603f011681019082821181831017156108845761088461081a565b8160405283815286602085880101111561089d57600080fd5b836020870160208301376000602085830101528094505050505092915050565b6000806000606084860312156108d257600080fd5b833567ffffffffffffffff808211156108ea57600080fd5b6108f687838801610830565b9450602086013591508082111561090c57600080fd5b61091887838801610830565b9350604086013591508082111561092e57600080fd5b5061093b86828701610830565b9150509250925092565b60005b83811015610960578181015183820152602001610948565b50506000910152565b6020815260008251806020840152610988816040850160208701610945565b601f01601f19169190910160400192915050565b600080600080600060a086880312156109b457600080fd5b853567ffffffffffffffff808211156109cc57600080fd5b6109d889838a01610830565b965060208801359150808211156109ee57600080fd5b6109fa89838a01610830565b95506040880135915080821115610a1057600080fd5b610a1c89838a01610830565b94506060880135915080821115610a3257600080fd5b610a3e89838a01610830565b93506080880135915080821115610a5457600080fd5b50610a6188828901610830565b9150509295509295909350565b60008060408385031215610a8157600080fd5b823567ffffffffffffffff80821115610a9957600080fd5b610aa586838701610830565b93506020850135915080821115610abb57600080fd5b50610ac885828601610830565b9150509250929050565b60008060008060008060008060006101208a8c031215610af157600080fd5b893567ffffffffffffffff80821115610b0957600080fd5b610b158d838e01610830565b9a5060208c0135915080821115610b2b57600080fd5b610b378d838e01610830565b995060408c0135915080821115610b4d57600080fd5b610b598d838e01610830565b985060608c0135915080821115610b6f57600080fd5b610b7b8d838e01610830565b975060808c0135915080821115610b9157600080fd5b610b9d8d838e01610830565b965060a08c0135915080821115610bb357600080fd5b610bbf8d838e01610830565b955060c08c0135915080821115610bd557600080fd5b610be18d838e01610830565b945060e08c0135915080821115610bf757600080fd5b610c038d838e01610830565b93506101008c0135915080821115610c1a57600080fd5b50610c278c828d01610830565b9150509295985092959850929598565b60008251610c49818460208701610945565b9190910192915050565b634e487b7160e01b600052601160045260246000fd5b808201808211156107e5576107e5610c53565b634e487b7160e01b600052603260045260246000fd5b600060018201610ca457610ca4610c53565b506001019056fea2646970667358221220a9b8e1ce8220f59569264e6def8b4e4a9671a44dc57ec65097e27265829739af64736f6c63430008110033",
					"opcodes": "PUSH2 0xCE1 PUSH2 0x3A PUSH1 0xB DUP3 DUP3 DUP3 CODECOPY DUP1 MLOAD PUSH1 0x0 BYTE PUSH1 0x73 EQ PUSH2 0x2D JUMPI PUSH4 0x4E487B71 PUSH1 0xE0 SHL PUSH1 0x0 MSTORE PUSH1 0x0 PUSH1 0x4 MSTORE PUSH1 0x24 PUSH1 0x0 REVERT JUMPDEST ADDRESS PUSH1 0x0 MSTORE PUSH1 0x73 DUP2 MSTORE8 DUP3 DUP2 RETURN INVALID PUSH20 0x0 ADDRESS EQ PUSH1 0x80 PUSH1 0x40 MSTORE PUSH1 0x4 CALLDATASIZE LT PUSH2 0x12B JUMPI PUSH1 0x0 CALLDATALOAD PUSH1 0xE0 SHR DUP1 PUSH4 0x9B65C4F1 GT PUSH2 0xB7 JUMPI DUP1 PUSH4 0xC03C21ED GT PUSH2 0x7B JUMPI DUP1 PUSH4 0xC03C21ED EQ PUSH2 0x33F JUMPI DUP1 PUSH4 0xC8DB16CA EQ PUSH2 0x36A JUMPI DUP1 PUSH4 0xDA85BFB6 EQ PUSH2 0x392 JUMPI DUP1 PUSH4 0xDFBE0B1F EQ PUSH2 0x3C5 JUMPI DUP1 PUSH4 0xE2998707 EQ PUSH2 0x3D8 JUMPI PUSH1 0x0 DUP1 REVERT JUMPDEST DUP1 PUSH4 0x9B65C4F1 EQ PUSH2 0x2A5 JUMPI DUP1 PUSH4 0xB225A711 EQ PUSH2 0x2D8 JUMPI DUP1 PUSH4 0xB4FC54A4 EQ PUSH2 0x190 JUMPI DUP1 PUSH4 0xB7C8FCFB EQ PUSH2 0x302 JUMPI DUP1 PUSH4 0xBED34BBA EQ PUSH2 0x32C JUMPI PUSH1 0x0 DUP1 REVERT JUMPDEST DUP1 PUSH4 0x634C24D5 GT PUSH2 0xFE JUMPI DUP1 PUSH4 0x634C24D5 EQ PUSH2 0x1E8 JUMPI DUP1 PUSH4 0x6BF6B233 EQ PUSH2 0x215 JUMPI DUP1 PUSH4 0x823F77E8 EQ PUSH2 0x23A JUMPI DUP1 PUSH4 0x95978868 EQ PUSH2 0x263 JUMPI DUP1 PUSH4 0x983F27D9 EQ PUSH2 0x276 JUMPI PUSH1 0x0 DUP1 REVERT JUMPDEST DUP1 PUSH4 0x9A223F9 EQ PUSH2 0x130 JUMPI DUP1 PUSH4 0x15289F40 EQ PUSH2 0x158 JUMPI DUP1 PUSH4 0x27CB96E0 EQ PUSH2 0x190 JUMPI DUP1 PUSH4 0x2FC3A89D EQ PUSH2 0x1BD JUMPI JUMPDEST PUSH1 0x0 DUP1 REVERT JUMPDEST PUSH2 0x143 PUSH2 0x13E CALLDATASIZE PUSH1 0x4 PUSH2 0x8BD JUMP JUMPDEST PUSH2 0x3FC JUMP JUMPDEST PUSH1 0x40 MLOAD SWAP1 ISZERO ISZERO DUP2 MSTORE PUSH1 0x20 ADD JUMPDEST PUSH1 0x40 MLOAD DUP1 SWAP2 SUB SWAP1 RETURN JUMPDEST PUSH2 0x183 PUSH1 0x40 MLOAD DUP1 PUSH1 0x40 ADD PUSH1 0x40 MSTORE DUP1 PUSH1 0xC DUP2 MSTORE PUSH1 0x20 ADD PUSH12 0x50454E44494E475155455545 PUSH1 0xA0 SHL DUP2 MSTORE POP DUP2 JUMP JUMPDEST PUSH1 0x40 MLOAD PUSH2 0x14F SWAP2 SWAP1 PUSH2 0x969 JUMP JUMPDEST PUSH2 0x183 PUSH1 0x40 MLOAD DUP1 PUSH1 0x40 ADD PUSH1 0x40 MSTORE DUP1 PUSH1 0xE DUP2 MSTORE PUSH1 0x20 ADD PUSH14 0x43414E43454C5343454E4152494F PUSH1 0x90 SHL DUP2 MSTORE POP DUP2 JUMP JUMPDEST PUSH2 0x183 PUSH1 0x40 MLOAD DUP1 PUSH1 0x40 ADD PUSH1 0x40 MSTORE DUP1 PUSH1 0xC DUP2 MSTORE PUSH1 0x20 ADD PUSH12 0x10D491505513D497D313D4D5 PUSH1 0xA2 SHL DUP2 MSTORE POP DUP2 JUMP JUMPDEST PUSH2 0x183 PUSH1 0x40 MLOAD DUP1 PUSH1 0x40 ADD PUSH1 0x40 MSTORE DUP1 PUSH1 0xE DUP2 MSTORE PUSH1 0x20 ADD PUSH14 0x41524249545241544F524E414D45 PUSH1 0x90 SHL DUP2 MSTORE POP DUP2 JUMP JUMPDEST PUSH2 0x183 PUSH1 0x40 MLOAD DUP1 PUSH1 0x40 ADD PUSH1 0x40 MSTORE DUP1 PUSH1 0x6 DUP2 MSTORE PUSH1 0x20 ADD PUSH6 0x2BA4A72722A9 PUSH1 0xD1 SHL DUP2 MSTORE POP DUP2 JUMP JUMPDEST PUSH2 0x183 PUSH1 0x40 MLOAD DUP1 PUSH1 0x40 ADD PUSH1 0x40 MSTORE DUP1 PUSH1 0xA DUP2 MSTORE PUSH1 0x20 ADD PUSH10 0x20A92124AA2920AA27A9 PUSH1 0xB1 SHL DUP2 MSTORE POP DUP2 JUMP JUMPDEST PUSH2 0x183 PUSH2 0x271 CALLDATASIZE PUSH1 0x4 PUSH2 0x99C JUMP JUMPDEST PUSH2 0x4AC JUMP JUMPDEST PUSH2 0x183 PUSH1 0x40 MLOAD DUP1 PUSH1 0x40 ADD PUSH1 0x40 MSTORE DUP1 PUSH1 0x10 DUP2 MSTORE PUSH1 0x20 ADD PUSH16 0x1091551051D0525394D5105353D55395 PUSH1 0x82 SHL DUP2 MSTORE POP DUP2 JUMP JUMPDEST PUSH2 0x183 PUSH1 0x40 MLOAD DUP1 PUSH1 0x40 ADD PUSH1 0x40 MSTORE DUP1 PUSH1 0x14 DUP2 MSTORE PUSH1 0x20 ADD PUSH20 0x14D51052D154115490D153951491545552549151 PUSH1 0x62 SHL DUP2 MSTORE POP DUP2 JUMP JUMPDEST PUSH2 0x183 PUSH1 0x40 MLOAD DUP1 PUSH1 0x40 ADD PUSH1 0x40 MSTORE DUP1 PUSH1 0xB DUP2 MSTORE PUSH1 0x20 ADD PUSH11 0x21A922A0AA27A92FABA7A7 PUSH1 0xA9 SHL DUP2 MSTORE POP DUP2 JUMP JUMPDEST PUSH2 0x183 PUSH1 0x40 MLOAD DUP1 PUSH1 0x40 ADD PUSH1 0x40 MSTORE DUP1 PUSH1 0xB DUP2 MSTORE PUSH1 0x20 ADD PUSH11 0x57494E5343454E4152494F PUSH1 0xA8 SHL DUP2 MSTORE POP DUP2 JUMP JUMPDEST PUSH2 0x143 PUSH2 0x33A CALLDATASIZE PUSH1 0x4 PUSH2 0xA6E JUMP JUMPDEST PUSH2 0x791 JUMP JUMPDEST PUSH2 0x183 PUSH1 0x40 MLOAD DUP1 PUSH1 0x40 ADD PUSH1 0x40 MSTORE DUP1 PUSH1 0xC DUP2 MSTORE PUSH1 0x20 ADD PUSH12 0x4C4F53455343454E4152494F PUSH1 0xA0 SHL DUP2 MSTORE POP DUP2 JUMP JUMPDEST PUSH2 0x183 PUSH1 0x40 MLOAD DUP1 PUSH1 0x40 ADD PUSH1 0x40 MSTORE DUP1 PUSH1 0x9 DUP2 MSTORE PUSH1 0x20 ADD PUSH9 0x10D05390D153131151 PUSH1 0xBA SHL DUP2 MSTORE POP DUP2 JUMP JUMPDEST PUSH2 0x183 PUSH1 0x40 MLOAD DUP1 PUSH1 0x40 ADD PUSH1 0x40 MSTORE DUP1 PUSH1 0x14 DUP2 MSTORE PUSH1 0x20 ADD PUSH20 0x20A92124AA2920AA27A921A7A6A6A4A9A9A4A7A7 PUSH1 0x61 SHL DUP2 MSTORE POP DUP2 JUMP JUMPDEST PUSH2 0x183 PUSH2 0x3D3 CALLDATASIZE PUSH1 0x4 PUSH2 0xAD2 JUMP JUMPDEST PUSH2 0x7EB JUMP JUMPDEST PUSH2 0x183 PUSH1 0x40 MLOAD DUP1 PUSH1 0x40 ADD PUSH1 0x40 MSTORE DUP1 PUSH1 0x5 DUP2 MSTORE PUSH1 0x20 ADD PUSH5 0x4245544545 PUSH1 0xD8 SHL DUP2 MSTORE POP DUP2 JUMP JUMPDEST PUSH1 0x0 DUP3 PUSH1 0x40 MLOAD PUSH1 0x20 ADD PUSH2 0x40F SWAP2 SWAP1 PUSH2 0xC37 JUMP JUMPDEST PUSH1 0x40 MLOAD PUSH1 0x20 DUP2 DUP4 SUB SUB DUP2 MSTORE SWAP1 PUSH1 0x40 MSTORE DUP1 MLOAD SWAP1 PUSH1 0x20 ADD KECCAK256 DUP5 PUSH1 0x40 MLOAD PUSH1 0x20 ADD PUSH2 0x436 SWAP2 SWAP1 PUSH2 0xC37 JUMP JUMPDEST PUSH1 0x40 MLOAD PUSH1 0x20 DUP2 DUP4 SUB SUB DUP2 MSTORE SWAP1 PUSH1 0x40 MSTORE DUP1 MLOAD SWAP1 PUSH1 0x20 ADD KECCAK256 EQ DUP1 ISZERO PUSH2 0x4A4 JUMPI POP DUP2 PUSH1 0x40 MLOAD PUSH1 0x20 ADD PUSH2 0x465 SWAP2 SWAP1 PUSH2 0xC37 JUMP JUMPDEST PUSH1 0x40 MLOAD PUSH1 0x20 DUP2 DUP4 SUB SUB DUP2 MSTORE SWAP1 PUSH1 0x40 MSTORE DUP1 MLOAD SWAP1 PUSH1 0x20 ADD KECCAK256 DUP4 PUSH1 0x40 MLOAD PUSH1 0x20 ADD PUSH2 0x48C SWAP2 SWAP1 PUSH2 0xC37 JUMP JUMPDEST PUSH1 0x40 MLOAD PUSH1 0x20 DUP2 DUP4 SUB SUB DUP2 MSTORE SWAP1 PUSH1 0x40 MSTORE DUP1 MLOAD SWAP1 PUSH1 0x20 ADD KECCAK256 EQ JUMPDEST SWAP5 SWAP4 POP POP POP POP JUMP JUMPDEST DUP1 MLOAD DUP3 MLOAD DUP5 MLOAD DUP7 MLOAD DUP9 MLOAD PUSH1 0x60 SWAP5 DUP11 SWAP5 DUP11 SWAP5 DUP11 SWAP5 DUP11 SWAP5 DUP11 SWAP5 PUSH1 0x0 SWAP5 SWAP1 SWAP4 SWAP1 SWAP3 SWAP1 SWAP2 PUSH2 0x4D6 SWAP2 SWAP1 PUSH2 0xC69 JUMP JUMPDEST PUSH2 0x4E0 SWAP2 SWAP1 PUSH2 0xC69 JUMP JUMPDEST PUSH2 0x4EA SWAP2 SWAP1 PUSH2 0xC69 JUMP JUMPDEST PUSH2 0x4F4 SWAP2 SWAP1 PUSH2 0xC69 JUMP JUMPDEST PUSH8 0xFFFFFFFFFFFFFFFF DUP2 GT ISZERO PUSH2 0x50C JUMPI PUSH2 0x50C PUSH2 0x81A JUMP JUMPDEST PUSH1 0x40 MLOAD SWAP1 DUP1 DUP3 MSTORE DUP1 PUSH1 0x1F ADD PUSH1 0x1F NOT AND PUSH1 0x20 ADD DUP3 ADD PUSH1 0x40 MSTORE DUP1 ISZERO PUSH2 0x536 JUMPI PUSH1 0x20 DUP3 ADD DUP2 DUP1 CALLDATASIZE DUP4 CALLDATACOPY ADD SWAP1 POP JUMPDEST POP SWAP1 POP DUP1 PUSH1 0x0 DUP1 JUMPDEST DUP9 MLOAD DUP2 LT ISZERO PUSH2 0x5AE JUMPI DUP9 DUP2 DUP2 MLOAD DUP2 LT PUSH2 0x559 JUMPI PUSH2 0x559 PUSH2 0xC7C JUMP JUMPDEST ADD PUSH1 0x20 ADD MLOAD PUSH1 0x1 PUSH1 0x1 PUSH1 0xF8 SHL SUB NOT AND DUP4 DUP4 PUSH2 0x573 DUP2 PUSH2 0xC92 JUMP JUMPDEST SWAP5 POP DUP2 MLOAD DUP2 LT PUSH2 0x585 JUMPI PUSH2 0x585 PUSH2 0xC7C JUMP JUMPDEST PUSH1 0x20 ADD ADD SWAP1 PUSH1 0x1 PUSH1 0x1 PUSH1 0xF8 SHL SUB NOT AND SWAP1 DUP2 PUSH1 0x0 BYTE SWAP1 MSTORE8 POP DUP1 PUSH2 0x5A6 DUP2 PUSH2 0xC92 JUMP JUMPDEST SWAP2 POP POP PUSH2 0x53E JUMP JUMPDEST POP PUSH1 0x0 JUMPDEST DUP8 MLOAD DUP2 LT ISZERO PUSH2 0x622 JUMPI DUP8 DUP2 DUP2 MLOAD DUP2 LT PUSH2 0x5CD JUMPI PUSH2 0x5CD PUSH2 0xC7C JUMP JUMPDEST ADD PUSH1 0x20 ADD MLOAD PUSH1 0x1 PUSH1 0x1 PUSH1 0xF8 SHL SUB NOT AND DUP4 DUP4 PUSH2 0x5E7 DUP2 PUSH2 0xC92 JUMP JUMPDEST SWAP5 POP DUP2 MLOAD DUP2 LT PUSH2 0x5F9 JUMPI PUSH2 0x5F9 PUSH2 0xC7C JUMP JUMPDEST PUSH1 0x20 ADD ADD SWAP1 PUSH1 0x1 PUSH1 0x1 PUSH1 0xF8 SHL SUB NOT AND SWAP1 DUP2 PUSH1 0x0 BYTE SWAP1 MSTORE8 POP DUP1 PUSH2 0x61A DUP2 PUSH2 0xC92 JUMP JUMPDEST SWAP2 POP POP PUSH2 0x5B2 JUMP JUMPDEST POP PUSH1 0x0 JUMPDEST DUP7 MLOAD DUP2 LT ISZERO PUSH2 0x696 JUMPI DUP7 DUP2 DUP2 MLOAD DUP2 LT PUSH2 0x641 JUMPI PUSH2 0x641 PUSH2 0xC7C JUMP JUMPDEST ADD PUSH1 0x20 ADD MLOAD PUSH1 0x1 PUSH1 0x1 PUSH1 0xF8 SHL SUB NOT AND DUP4 DUP4 PUSH2 0x65B DUP2 PUSH2 0xC92 JUMP JUMPDEST SWAP5 POP DUP2 MLOAD DUP2 LT PUSH2 0x66D JUMPI PUSH2 0x66D PUSH2 0xC7C JUMP JUMPDEST PUSH1 0x20 ADD ADD SWAP1 PUSH1 0x1 PUSH1 0x1 PUSH1 0xF8 SHL SUB NOT AND SWAP1 DUP2 PUSH1 0x0 BYTE SWAP1 MSTORE8 POP DUP1 PUSH2 0x68E DUP2 PUSH2 0xC92 JUMP JUMPDEST SWAP2 POP POP PUSH2 0x626 JUMP JUMPDEST POP PUSH1 0x0 JUMPDEST DUP6 MLOAD DUP2 LT ISZERO PUSH2 0x70A JUMPI DUP6 DUP2 DUP2 MLOAD DUP2 LT PUSH2 0x6B5 JUMPI PUSH2 0x6B5 PUSH2 0xC7C JUMP JUMPDEST ADD PUSH1 0x20 ADD MLOAD PUSH1 0x1 PUSH1 0x1 PUSH1 0xF8 SHL SUB NOT AND DUP4 DUP4 PUSH2 0x6CF DUP2 PUSH2 0xC92 JUMP JUMPDEST SWAP5 POP DUP2 MLOAD DUP2 LT PUSH2 0x6E1 JUMPI PUSH2 0x6E1 PUSH2 0xC7C JUMP JUMPDEST PUSH1 0x20 ADD ADD SWAP1 PUSH1 0x1 PUSH1 0x1 PUSH1 0xF8 SHL SUB NOT AND SWAP1 DUP2 PUSH1 0x0 BYTE SWAP1 MSTORE8 POP DUP1 PUSH2 0x702 DUP2 PUSH2 0xC92 JUMP JUMPDEST SWAP2 POP POP PUSH2 0x69A JUMP JUMPDEST POP PUSH1 0x0 JUMPDEST DUP5 MLOAD DUP2 LT ISZERO PUSH2 0x77E JUMPI DUP5 DUP2 DUP2 MLOAD DUP2 LT PUSH2 0x729 JUMPI PUSH2 0x729 PUSH2 0xC7C JUMP JUMPDEST ADD PUSH1 0x20 ADD MLOAD PUSH1 0x1 PUSH1 0x1 PUSH1 0xF8 SHL SUB NOT AND DUP4 DUP4 PUSH2 0x743 DUP2 PUSH2 0xC92 JUMP JUMPDEST SWAP5 POP DUP2 MLOAD DUP2 LT PUSH2 0x755 JUMPI PUSH2 0x755 PUSH2 0xC7C JUMP JUMPDEST PUSH1 0x20 ADD ADD SWAP1 PUSH1 0x1 PUSH1 0x1 PUSH1 0xF8 SHL SUB NOT AND SWAP1 DUP2 PUSH1 0x0 BYTE SWAP1 MSTORE8 POP DUP1 PUSH2 0x776 DUP2 PUSH2 0xC92 JUMP JUMPDEST SWAP2 POP POP PUSH2 0x70E JUMP JUMPDEST POP SWAP1 SWAP14 SWAP13 POP POP POP POP POP POP POP POP POP POP POP POP POP JUMP JUMPDEST PUSH1 0x0 DUP2 PUSH1 0x40 MLOAD PUSH1 0x20 ADD PUSH2 0x7A4 SWAP2 SWAP1 PUSH2 0xC37 JUMP JUMPDEST PUSH1 0x40 MLOAD PUSH1 0x20 DUP2 DUP4 SUB SUB DUP2 MSTORE SWAP1 PUSH1 0x40 MSTORE DUP1 MLOAD SWAP1 PUSH1 0x20 ADD KECCAK256 DUP4 PUSH1 0x40 MLOAD PUSH1 0x20 ADD PUSH2 0x7CB SWAP2 SWAP1 PUSH2 0xC37 JUMP JUMPDEST PUSH1 0x40 MLOAD PUSH1 0x20 DUP2 DUP4 SUB SUB DUP2 MSTORE SWAP1 PUSH1 0x40 MSTORE DUP1 MLOAD SWAP1 PUSH1 0x20 ADD KECCAK256 EQ SWAP1 POP JUMPDEST SWAP3 SWAP2 POP POP JUMP JUMPDEST PUSH1 0x60 PUSH1 0x0 PUSH2 0x7FC DUP12 DUP12 DUP12 DUP12 DUP12 PUSH2 0x4AC JUMP JUMPDEST SWAP1 POP PUSH2 0x80B DUP2 DUP8 DUP8 DUP8 DUP8 PUSH2 0x4AC JUMP JUMPDEST SWAP12 SWAP11 POP POP POP POP POP POP POP POP POP POP POP JUMP JUMPDEST PUSH4 0x4E487B71 PUSH1 0xE0 SHL PUSH1 0x0 MSTORE PUSH1 0x41 PUSH1 0x4 MSTORE PUSH1 0x24 PUSH1 0x0 REVERT JUMPDEST PUSH1 0x0 DUP3 PUSH1 0x1F DUP4 ADD SLT PUSH2 0x841 JUMPI PUSH1 0x0 DUP1 REVERT JUMPDEST DUP2 CALLDATALOAD PUSH8 0xFFFFFFFFFFFFFFFF DUP1 DUP3 GT ISZERO PUSH2 0x85C JUMPI PUSH2 0x85C PUSH2 0x81A JUMP JUMPDEST PUSH1 0x40 MLOAD PUSH1 0x1F DUP4 ADD PUSH1 0x1F NOT SWAP1 DUP2 AND PUSH1 0x3F ADD AND DUP2 ADD SWAP1 DUP3 DUP3 GT DUP2 DUP4 LT OR ISZERO PUSH2 0x884 JUMPI PUSH2 0x884 PUSH2 0x81A JUMP JUMPDEST DUP2 PUSH1 0x40 MSTORE DUP4 DUP2 MSTORE DUP7 PUSH1 0x20 DUP6 DUP9 ADD ADD GT ISZERO PUSH2 0x89D JUMPI PUSH1 0x0 DUP1 REVERT JUMPDEST DUP4 PUSH1 0x20 DUP8 ADD PUSH1 0x20 DUP4 ADD CALLDATACOPY PUSH1 0x0 PUSH1 0x20 DUP6 DUP4 ADD ADD MSTORE DUP1 SWAP5 POP POP POP POP POP SWAP3 SWAP2 POP POP JUMP JUMPDEST PUSH1 0x0 DUP1 PUSH1 0x0 PUSH1 0x60 DUP5 DUP7 SUB SLT ISZERO PUSH2 0x8D2 JUMPI PUSH1 0x0 DUP1 REVERT JUMPDEST DUP4 CALLDATALOAD PUSH8 0xFFFFFFFFFFFFFFFF DUP1 DUP3 GT ISZERO PUSH2 0x8EA JUMPI PUSH1 0x0 DUP1 REVERT JUMPDEST PUSH2 0x8F6 DUP8 DUP4 DUP9 ADD PUSH2 0x830 JUMP JUMPDEST SWAP5 POP PUSH1 0x20 DUP7 ADD CALLDATALOAD SWAP2 POP DUP1 DUP3 GT ISZERO PUSH2 0x90C JUMPI PUSH1 0x0 DUP1 REVERT JUMPDEST PUSH2 0x918 DUP8 DUP4 DUP9 ADD PUSH2 0x830 JUMP JUMPDEST SWAP4 POP PUSH1 0x40 DUP7 ADD CALLDATALOAD SWAP2 POP DUP1 DUP3 GT ISZERO PUSH2 0x92E JUMPI PUSH1 0x0 DUP1 REVERT JUMPDEST POP PUSH2 0x93B DUP7 DUP3 DUP8 ADD PUSH2 0x830 JUMP JUMPDEST SWAP2 POP POP SWAP3 POP SWAP3 POP SWAP3 JUMP JUMPDEST PUSH1 0x0 JUMPDEST DUP4 DUP2 LT ISZERO PUSH2 0x960 JUMPI DUP2 DUP2 ADD MLOAD DUP4 DUP3 ADD MSTORE PUSH1 0x20 ADD PUSH2 0x948 JUMP JUMPDEST POP POP PUSH1 0x0 SWAP2 ADD MSTORE JUMP JUMPDEST PUSH1 0x20 DUP2 MSTORE PUSH1 0x0 DUP3 MLOAD DUP1 PUSH1 0x20 DUP5 ADD MSTORE PUSH2 0x988 DUP2 PUSH1 0x40 DUP6 ADD PUSH1 0x20 DUP8 ADD PUSH2 0x945 JUMP JUMPDEST PUSH1 0x1F ADD PUSH1 0x1F NOT AND SWAP2 SWAP1 SWAP2 ADD PUSH1 0x40 ADD SWAP3 SWAP2 POP POP JUMP JUMPDEST PUSH1 0x0 DUP1 PUSH1 0x0 DUP1 PUSH1 0x0 PUSH1 0xA0 DUP7 DUP9 SUB SLT ISZERO PUSH2 0x9B4 JUMPI PUSH1 0x0 DUP1 REVERT JUMPDEST DUP6 CALLDATALOAD PUSH8 0xFFFFFFFFFFFFFFFF DUP1 DUP3 GT ISZERO PUSH2 0x9CC JUMPI PUSH1 0x0 DUP1 REVERT JUMPDEST PUSH2 0x9D8 DUP10 DUP4 DUP11 ADD PUSH2 0x830 JUMP JUMPDEST SWAP7 POP PUSH1 0x20 DUP9 ADD CALLDATALOAD SWAP2 POP DUP1 DUP3 GT ISZERO PUSH2 0x9EE JUMPI PUSH1 0x0 DUP1 REVERT JUMPDEST PUSH2 0x9FA DUP10 DUP4 DUP11 ADD PUSH2 0x830 JUMP JUMPDEST SWAP6 POP PUSH1 0x40 DUP9 ADD CALLDATALOAD SWAP2 POP DUP1 DUP3 GT ISZERO PUSH2 0xA10 JUMPI PUSH1 0x0 DUP1 REVERT JUMPDEST PUSH2 0xA1C DUP10 DUP4 DUP11 ADD PUSH2 0x830 JUMP JUMPDEST SWAP5 POP PUSH1 0x60 DUP9 ADD CALLDATALOAD SWAP2 POP DUP1 DUP3 GT ISZERO PUSH2 0xA32 JUMPI PUSH1 0x0 DUP1 REVERT JUMPDEST PUSH2 0xA3E DUP10 DUP4 DUP11 ADD PUSH2 0x830 JUMP JUMPDEST SWAP4 POP PUSH1 0x80 DUP9 ADD CALLDATALOAD SWAP2 POP DUP1 DUP3 GT ISZERO PUSH2 0xA54 JUMPI PUSH1 0x0 DUP1 REVERT JUMPDEST POP PUSH2 0xA61 DUP9 DUP3 DUP10 ADD PUSH2 0x830 JUMP JUMPDEST SWAP2 POP POP SWAP3 SWAP6 POP SWAP3 SWAP6 SWAP1 SWAP4 POP JUMP JUMPDEST PUSH1 0x0 DUP1 PUSH1 0x40 DUP4 DUP6 SUB SLT ISZERO PUSH2 0xA81 JUMPI PUSH1 0x0 DUP1 REVERT JUMPDEST DUP3 CALLDATALOAD PUSH8 0xFFFFFFFFFFFFFFFF DUP1 DUP3 GT ISZERO PUSH2 0xA99 JUMPI PUSH1 0x0 DUP1 REVERT JUMPDEST PUSH2 0xAA5 DUP7 DUP4 DUP8 ADD PUSH2 0x830 JUMP JUMPDEST SWAP4 POP PUSH1 0x20 DUP6 ADD CALLDATALOAD SWAP2 POP DUP1 DUP3 GT ISZERO PUSH2 0xABB JUMPI PUSH1 0x0 DUP1 REVERT JUMPDEST POP PUSH2 0xAC8 DUP6 DUP3 DUP7 ADD PUSH2 0x830 JUMP JUMPDEST SWAP2 POP POP SWAP3 POP SWAP3 SWAP1 POP JUMP JUMPDEST PUSH1 0x0 DUP1 PUSH1 0x0 DUP1 PUSH1 0x0 DUP1 PUSH1 0x0 DUP1 PUSH1 0x0 PUSH2 0x120 DUP11 DUP13 SUB SLT ISZERO PUSH2 0xAF1 JUMPI PUSH1 0x0 DUP1 REVERT JUMPDEST DUP10 CALLDATALOAD PUSH8 0xFFFFFFFFFFFFFFFF DUP1 DUP3 GT ISZERO PUSH2 0xB09 JUMPI PUSH1 0x0 DUP1 REVERT JUMPDEST PUSH2 0xB15 DUP14 DUP4 DUP15 ADD PUSH2 0x830 JUMP JUMPDEST SWAP11 POP PUSH1 0x20 DUP13 ADD CALLDATALOAD SWAP2 POP DUP1 DUP3 GT ISZERO PUSH2 0xB2B JUMPI PUSH1 0x0 DUP1 REVERT JUMPDEST PUSH2 0xB37 DUP14 DUP4 DUP15 ADD PUSH2 0x830 JUMP JUMPDEST SWAP10 POP PUSH1 0x40 DUP13 ADD CALLDATALOAD SWAP2 POP DUP1 DUP3 GT ISZERO PUSH2 0xB4D JUMPI PUSH1 0x0 DUP1 REVERT JUMPDEST PUSH2 0xB59 DUP14 DUP4 DUP15 ADD PUSH2 0x830 JUMP JUMPDEST SWAP9 POP PUSH1 0x60 DUP13 ADD CALLDATALOAD SWAP2 POP DUP1 DUP3 GT ISZERO PUSH2 0xB6F JUMPI PUSH1 0x0 DUP1 REVERT JUMPDEST PUSH2 0xB7B DUP14 DUP4 DUP15 ADD PUSH2 0x830 JUMP JUMPDEST SWAP8 POP PUSH1 0x80 DUP13 ADD CALLDATALOAD SWAP2 POP DUP1 DUP3 GT ISZERO PUSH2 0xB91 JUMPI PUSH1 0x0 DUP1 REVERT JUMPDEST PUSH2 0xB9D DUP14 DUP4 DUP15 ADD PUSH2 0x830 JUMP JUMPDEST SWAP7 POP PUSH1 0xA0 DUP13 ADD CALLDATALOAD SWAP2 POP DUP1 DUP3 GT ISZERO PUSH2 0xBB3 JUMPI PUSH1 0x0 DUP1 REVERT JUMPDEST PUSH2 0xBBF DUP14 DUP4 DUP15 ADD PUSH2 0x830 JUMP JUMPDEST SWAP6 POP PUSH1 0xC0 DUP13 ADD CALLDATALOAD SWAP2 POP DUP1 DUP3 GT ISZERO PUSH2 0xBD5 JUMPI PUSH1 0x0 DUP1 REVERT JUMPDEST PUSH2 0xBE1 DUP14 DUP4 DUP15 ADD PUSH2 0x830 JUMP JUMPDEST SWAP5 POP PUSH1 0xE0 DUP13 ADD CALLDATALOAD SWAP2 POP DUP1 DUP3 GT ISZERO PUSH2 0xBF7 JUMPI PUSH1 0x0 DUP1 REVERT JUMPDEST PUSH2 0xC03 DUP14 DUP4 DUP15 ADD PUSH2 0x830 JUMP JUMPDEST SWAP4 POP PUSH2 0x100 DUP13 ADD CALLDATALOAD SWAP2 POP DUP1 DUP3 GT ISZERO PUSH2 0xC1A JUMPI PUSH1 0x0 DUP1 REVERT JUMPDEST POP PUSH2 0xC27 DUP13 DUP3 DUP14 ADD PUSH2 0x830 JUMP JUMPDEST SWAP2 POP POP SWAP3 SWAP6 SWAP9 POP SWAP3 SWAP6 SWAP9 POP SWAP3 SWAP6 SWAP9 JUMP JUMPDEST PUSH1 0x0 DUP3 MLOAD PUSH2 0xC49 DUP2 DUP5 PUSH1 0x20 DUP8 ADD PUSH2 0x945 JUMP JUMPDEST SWAP2 SWAP1 SWAP2 ADD SWAP3 SWAP2 POP POP JUMP JUMPDEST PUSH4 0x4E487B71 PUSH1 0xE0 SHL PUSH1 0x0 MSTORE PUSH1 0x11 PUSH1 0x4 MSTORE PUSH1 0x24 PUSH1 0x0 REVERT JUMPDEST DUP1 DUP3 ADD DUP1 DUP3 GT ISZERO PUSH2 0x7E5 JUMPI PUSH2 0x7E5 PUSH2 0xC53 JUMP JUMPDEST PUSH4 0x4E487B71 PUSH1 0xE0 SHL PUSH1 0x0 MSTORE PUSH1 0x32 PUSH1 0x4 MSTORE PUSH1 0x24 PUSH1 0x0 REVERT JUMPDEST PUSH1 0x0 PUSH1 0x1 DUP3 ADD PUSH2 0xCA4 JUMPI PUSH2 0xCA4 PUSH2 0xC53 JUMP JUMPDEST POP PUSH1 0x1 ADD SWAP1 JUMP INVALID LOG2 PUSH5 0x6970667358 0x22 SLT KECCAK256 0xA9 0xB8 0xE1 0xCE DUP3 KECCAK256 CREATE2 SWAP6 PUSH10 0x264E6DEF8B4E4A9671A4 0x4D 0xC5 PUSH31 0xC65097E27265829739AF64736F6C6343000811003300000000000000000000 "
				},
				"gasEstimates": {
					"creation": {
						"codeDepositCost": "659400",
						"executionCost": "727",
						"totalCost": "660127"
					},
					"external": {
						"OUTCOME_CANCELLED()": "infinite",
						"OUTCOME_CREATOR_LOST()": "infinite",
						"OUTCOME_CREATOR_WON()": "infinite",
						"PROPERTIES_ARBITRATOR()": "infinite",
						"PROPERTIES_ARBITRATORNAME()": "infinite",
						"PROPERTIES_ARBITRATOR_COMMISSION()": "infinite",
						"PROPERTIES_BETEE()": "infinite",
						"PROPERTIES_BET_AGAINST_AMOUNT()": "infinite",
						"PROPERTIES_CANCEL_SCENARIO()": "infinite",
						"PROPERTIES_LOSE_SCENARIO()": "infinite",
						"PROPERTIES_OUTCOME()": "infinite",
						"PROPERTIES_PENDING_QUEUE()": "infinite",
						"PROPERTIES_STAKE_PERCENT_REQUIRED()": "infinite",
						"PROPERTIES_WINNER()": "infinite",
						"PROPERTIES_WIN_SCENARIO()": "infinite",
						"compareStrings(string,string)": "infinite",
						"compareStrings(string,string,string)": "infinite",
						"strConcat(string,string,string,string,string)": "infinite",
						"strConcat(string,string,string,string,string,string,string,string,string)": "infinite"
					},
					"internal": {
						"calculateSharingBonus(uint256)": "infinite",
						"ibetTokenWithFullDecimals(uint256)": "infinite"
					}
				},
				"methodIdentifiers": {
					"OUTCOME_CANCELLED()": "c8db16ca",
					"OUTCOME_CREATOR_LOST()": "2fc3a89d",
					"OUTCOME_CREATOR_WON()": "b225a711",
					"PROPERTIES_ARBITRATOR()": "823f77e8",
					"PROPERTIES_ARBITRATORNAME()": "634c24d5",
					"PROPERTIES_ARBITRATOR_COMMISSION()": "da85bfb6",
					"PROPERTIES_BETEE()": "e2998707",
					"PROPERTIES_BET_AGAINST_AMOUNT()": "983f27d9",
					"PROPERTIES_CANCEL_SCENARIO()": "27cb96e0",
					"PROPERTIES_LOSE_SCENARIO()": "c03c21ed",
					"PROPERTIES_OUTCOME()": "b4fc54a4",
					"PROPERTIES_PENDING_QUEUE()": "15289f40",
					"PROPERTIES_STAKE_PERCENT_REQUIRED()": "9b65c4f1",
					"PROPERTIES_WINNER()": "6bf6b233",
					"PROPERTIES_WIN_SCENARIO()": "b7c8fcfb",
					"compareStrings(string,string)": "bed34bba",
					"compareStrings(string,string,string)": "09a223f9",
					"strConcat(string,string,string,string,string)": "95978868",
					"strConcat(string,string,string,string,string,string,string,string,string)": "dfbe0b1f"
				}
			},
			"storageLayout": {
				"storage": [],
				"types": null
			},
			"userdoc": {
				"kind": "user",
				"methods": {},
				"version": 1
			}
		}
	}
}