{
	"contracts/Lib.sol": {
		"ConversionUtil": {
			"abi": [
				{
					"inputs": [
						{
							"internalType": "address",
							"name": "_addr",
							"type": "address"
						}
					],
					"name": "addressToString",
					"outputs": [
						{
							"internalType": "string",
							"name": "",
							"type": "string"
						}
					],
					"stateMutability": "pure",
					"type": "function"
				},
				{
					"inputs": [
						{
							"internalType": "bytes32",
							"name": "value",
							"type": "bytes32"
						}
					],
					"name": "bytes32ToString",
					"outputs": [
						{
							"internalType": "string",
							"name": "",
							"type": "string"
						}
					],
					"stateMutability": "pure",
					"type": "function"
				},
				{
					"inputs": [
						{
							"internalType": "string",
							"name": "s",
							"type": "string"
						}
					],
					"name": "stringToUint",
					"outputs": [
						{
							"internalType": "uint256",
							"name": "",
							"type": "uint256"
						}
					],
					"stateMutability": "pure",
					"type": "function"
				}
			],
			"devdoc": {
				"kind": "dev",
				"methods": {},
				"version": 1
			},
			"evm": {
				"assembly": "    /* \"contracts/Lib.sol\":5933:8924  library ConversionUtil {... */\n  dataSize(sub_0)\n  dataOffset(sub_0)\n  0x0b\n  dup3\n  dup3\n  dup3\n  codecopy\n  dup1\n  mload\n  0x00\n  byte\n  0x73\n  eq\n  tag_1\n  jumpi\n  mstore(0x00, shl(0xe0, 0x4e487b71))\n  mstore(0x04, 0x00)\n  revert(0x00, 0x24)\ntag_1:\n  mstore(0x00, address)\n  0x73\n  dup2\n  mstore8\n  dup3\n  dup2\n  return\nstop\n\nsub_0: assembly {\n        /* \"contracts/Lib.sol\":5933:8924  library ConversionUtil {... */\n      eq(address, deployTimeAddress())\n      mstore(0x40, 0x80)\n      jumpi(tag_1, lt(calldatasize, 0x04))\n      shr(0xe0, calldataload(0x00))\n      dup1\n      0x1bd95155\n      eq\n      tag_2\n      jumpi\n      dup1\n      0x5e57966d\n      eq\n      tag_3\n      jumpi\n      dup1\n      0x9201de55\n      eq\n      tag_4\n      jumpi\n    tag_1:\n      0x00\n      dup1\n      revert\n        /* \"contracts/Lib.sol\":6552:6975  function stringToUint(string memory s) public pure returns (uint) {... */\n    tag_2:\n      tag_5\n      tag_6\n      calldatasize\n      0x04\n      tag_7\n      jump\t// in\n    tag_6:\n      tag_8\n      jump\t// in\n    tag_5:\n      mload(0x40)\n        /* \"#utility.yul\":1227:1252   */\n      swap1\n      dup2\n      mstore\n        /* \"#utility.yul\":1215:1217   */\n      0x20\n        /* \"#utility.yul\":1200:1218   */\n      add\n        /* \"contracts/Lib.sol\":6552:6975  function stringToUint(string memory s) public pure returns (uint) {... */\n    tag_9:\n      mload(0x40)\n      dup1\n      swap2\n      sub\n      swap1\n      return\n        /* \"contracts/Lib.sol\":6979:7557  function addressToString(address _addr)... */\n    tag_3:\n      tag_11\n      tag_12\n      calldatasize\n      0x04\n      tag_13\n      jump\t// in\n    tag_12:\n      tag_14\n      jump\t// in\n    tag_11:\n      mload(0x40)\n      tag_9\n      swap2\n      swap1\n      tag_16\n      jump\t// in\n        /* \"contracts/Lib.sol\":8408:8921  function bytes32ToString(bytes32 value)... */\n    tag_4:\n      tag_11\n      tag_18\n      calldatasize\n      0x04\n      tag_19\n      jump\t// in\n    tag_18:\n      tag_20\n      jump\t// in\n        /* \"contracts/Lib.sol\":6552:6975  function stringToUint(string memory s) public pure returns (uint) {... */\n    tag_8:\n        /* \"contracts/Lib.sol\":6612:6616  uint */\n      0x00\n        /* \"contracts/Lib.sol\":6648:6649  s */\n      dup2\n        /* \"contracts/Lib.sol\":6612:6616  uint */\n      dup2\n      dup1\n        /* \"contracts/Lib.sol\":6682:6932  for (uint i = 0; i < b.length; i++) { // c = b[i] was not needed... */\n    tag_23:\n        /* \"contracts/Lib.sol\":6703:6704  b */\n      dup3\n        /* \"contracts/Lib.sol\":6703:6711  b.length */\n      mload\n        /* \"contracts/Lib.sol\":6699:6700  i */\n      dup2\n        /* \"contracts/Lib.sol\":6699:6711  i < b.length */\n      lt\n        /* \"contracts/Lib.sol\":6682:6932  for (uint i = 0; i < b.length; i++) { // c = b[i] was not needed... */\n      iszero\n      tag_24\n      jumpi\n        /* \"contracts/Lib.sol\":6775:6777  48 */\n      0x30\n        /* \"contracts/Lib.sol\":6766:6767  b */\n      dup4\n        /* \"contracts/Lib.sol\":6768:6769  i */\n      dup3\n        /* \"contracts/Lib.sol\":6766:6770  b[i] */\n      dup2\n      mload\n      dup2\n      lt\n      tag_27\n      jumpi\n      tag_27\n      tag_28\n      jump\t// in\n    tag_27:\n      add\n      0x20\n      add\n      mload\n      0xf8\n      shr\n        /* \"contracts/Lib.sol\":6760:6777  uint8(b[i]) >= 48 */\n      lt\n      dup1\n      iszero\n      swap1\n        /* \"contracts/Lib.sol\":6760:6798  uint8(b[i]) >= 48 && uint8(b[i]) <= 57 */\n      tag_29\n      jumpi\n      pop\n        /* \"contracts/Lib.sol\":6796:6798  57 */\n      0x39\n        /* \"contracts/Lib.sol\":6787:6788  b */\n      dup4\n        /* \"contracts/Lib.sol\":6789:6790  i */\n      dup3\n        /* \"contracts/Lib.sol\":6787:6791  b[i] */\n      dup2\n      mload\n      dup2\n      lt\n      tag_31\n      jumpi\n      tag_31\n      tag_28\n      jump\t// in\n    tag_31:\n      add\n      0x20\n      add\n      mload\n      0xf8\n      shr\n        /* \"contracts/Lib.sol\":6781:6798  uint8(b[i]) <= 57 */\n      gt\n      iszero\n        /* \"contracts/Lib.sol\":6760:6798  uint8(b[i]) >= 48 && uint8(b[i]) <= 57 */\n    tag_29:\n        /* \"contracts/Lib.sol\":6756:6925  if (uint8(b[i]) >= 48 && uint8(b[i]) <= 57) {... */\n      iszero\n      tag_32\n      jumpi\n        /* \"contracts/Lib.sol\":6853:6855  48 */\n      0x30\n        /* \"contracts/Lib.sol\":6845:6846  b */\n      dup4\n        /* \"contracts/Lib.sol\":6847:6848  i */\n      dup3\n        /* \"contracts/Lib.sol\":6845:6849  b[i] */\n      dup2\n      mload\n      dup2\n      lt\n      tag_34\n      jumpi\n      tag_34\n      tag_28\n      jump\t// in\n    tag_34:\n      add\n      0x20\n      add\n      mload\n        /* \"contracts/Lib.sol\":6839:6855  uint8(b[i]) - 48 */\n      tag_35\n      swap2\n      swap1\n        /* \"contracts/Lib.sol\":6845:6849  b[i] */\n      0xf8\n      shr\n        /* \"contracts/Lib.sol\":6839:6855  uint8(b[i]) - 48 */\n      tag_36\n      jump\t// in\n    tag_35:\n        /* \"contracts/Lib.sol\":6824:6856  result * 10 + (uint8(b[i]) - 48) */\n      0xff\n      and\n        /* \"contracts/Lib.sol\":6824:6835  result * 10 */\n      tag_37\n        /* \"contracts/Lib.sol\":6824:6830  result */\n      dup4\n        /* \"contracts/Lib.sol\":6833:6835  10 */\n      0x0a\n        /* \"contracts/Lib.sol\":6824:6835  result * 10 */\n      tag_38\n      jump\t// in\n    tag_37:\n        /* \"contracts/Lib.sol\":6824:6856  result * 10 + (uint8(b[i]) - 48) */\n      tag_39\n      swap2\n      swap1\n      tag_40\n      jump\t// in\n    tag_39:\n        /* \"contracts/Lib.sol\":6815:6856  result = result * 10 + (uint8(b[i]) - 48) */\n      swap2\n      pop\n        /* \"contracts/Lib.sol\":6756:6925  if (uint8(b[i]) >= 48 && uint8(b[i]) <= 57) {... */\n    tag_32:\n        /* \"contracts/Lib.sol\":6713:6716  i++ */\n      dup1\n      tag_41\n      dup2\n      tag_42\n      jump\t// in\n    tag_41:\n      swap2\n      pop\n      pop\n        /* \"contracts/Lib.sol\":6682:6932  for (uint i = 0; i < b.length; i++) { // c = b[i] was not needed... */\n      jump(tag_23)\n    tag_24:\n      pop\n        /* \"contracts/Lib.sol\":6945:6951  result */\n      swap4\n        /* \"contracts/Lib.sol\":6552:6975  function stringToUint(string memory s) public pure returns (uint) {... */\n      swap3\n      pop\n      pop\n      pop\n      jump\t// out\n        /* \"contracts/Lib.sol\":6979:7557  function addressToString(address _addr)... */\n    tag_14:\n        /* \"contracts/Lib.sol\":7204:7246  bytes memory alphabet = \"0123456789abcdef\" */\n      0x40\n      dup1\n      mload\n      dup1\n      dup3\n      add\n      dup3\n      mstore\n      0x10\n      dup2\n      mstore\n      shl(0x81, 0x181899199a1a9b1b9c1cb0b131b232b3)\n      0x20\n      dup3\n      add\n      mstore\n        /* \"contracts/Lib.sol\":7278:7291  new bytes(42) */\n      dup2\n      mload\n        /* \"contracts/Lib.sol\":7288:7290  42 */\n      0x2a\n        /* \"contracts/Lib.sol\":7278:7291  new bytes(42) */\n      dup1\n      dup3\n      mstore\n        /* \"contracts/Lib.sol\":7114:7127  string memory */\n      0x60\n        /* \"contracts/Lib.sol\":7278:7291  new bytes(42) */\n      dup3\n      dup2\n      add\n      swap1\n      swap5\n      mstore\n      sub(shl(0xa0, 0x01), 0x01)\n        /* \"contracts/Lib.sol\":7169:7192  uint256(uint160(_addr)) */\n      dup6\n      and\n      swap3\n        /* \"contracts/Lib.sol\":7204:7246  bytes memory alphabet = \"0123456789abcdef\" */\n      swap2\n      0x00\n      swap2\n        /* \"contracts/Lib.sol\":7278:7291  new bytes(42) */\n      0x20\n      dup3\n      add\n      dup2\n      dup1\n      calldatasize\n      dup4\n      calldatacopy\n      add\n      swap1\n      pop\n      pop\n        /* \"contracts/Lib.sol\":7259:7291  bytes memory str = new bytes(42) */\n      swap1\n      pop\n      shl(0xfc, 0x03)\n        /* \"contracts/Lib.sol\":7302:7305  str */\n      dup2\n        /* \"contracts/Lib.sol\":7306:7307  0 */\n      0x00\n        /* \"contracts/Lib.sol\":7302:7308  str[0] */\n      dup2\n      mload\n      dup2\n      lt\n      tag_49\n      jumpi\n      tag_49\n      tag_28\n      jump\t// in\n    tag_49:\n      0x20\n      add\n      add\n        /* \"contracts/Lib.sol\":7302:7314  str[0] = '0' */\n      swap1\n      not(sub(shl(0xf8, 0x01), 0x01))\n      and\n      swap1\n      dup2\n      0x00\n      byte\n      swap1\n      mstore8\n      pop\n      shl(0xfb, 0x0f)\n        /* \"contracts/Lib.sol\":7325:7328  str */\n      dup2\n        /* \"contracts/Lib.sol\":7329:7330  1 */\n      0x01\n        /* \"contracts/Lib.sol\":7325:7331  str[1] */\n      dup2\n      mload\n      dup2\n      lt\n      tag_51\n      jumpi\n      tag_51\n      tag_28\n      jump\t// in\n    tag_51:\n      0x20\n      add\n      add\n        /* \"contracts/Lib.sol\":7325:7337  str[1] = 'x' */\n      swap1\n      not(sub(shl(0xf8, 0x01), 0x01))\n      and\n      swap1\n      dup2\n      0x00\n      byte\n      swap1\n      mstore8\n      pop\n        /* \"contracts/Lib.sol\":7353:7362  uint256 i */\n      0x00\n        /* \"contracts/Lib.sol\":7348:7521  for (uint256 i = 0; i < 20; i++) {... */\n    tag_52:\n        /* \"contracts/Lib.sol\":7372:7374  20 */\n      0x14\n        /* \"contracts/Lib.sol\":7368:7369  i */\n      dup2\n        /* \"contracts/Lib.sol\":7368:7374  i < 20 */\n      lt\n        /* \"contracts/Lib.sol\":7348:7521  for (uint256 i = 0; i < 20; i++) {... */\n      iszero\n      tag_53\n      jumpi\n        /* \"contracts/Lib.sol\":7409:7417  alphabet */\n      dup3\n        /* \"contracts/Lib.sol\":7441:7442  4 */\n      0x04\n        /* \"contracts/Lib.sol\":7424:7429  value */\n      dup6\n        /* \"contracts/Lib.sol\":7430:7436  i + 12 */\n      tag_55\n        /* \"contracts/Lib.sol\":7430:7431  i */\n      dup5\n        /* \"contracts/Lib.sol\":7434:7436  12 */\n      0x0c\n        /* \"contracts/Lib.sol\":7430:7436  i + 12 */\n      tag_40\n      jump\t// in\n    tag_55:\n        /* \"contracts/Lib.sol\":7424:7437  value[i + 12] */\n      0x20\n      dup2\n      lt\n      tag_57\n      jumpi\n      tag_57\n      tag_28\n      jump\t// in\n    tag_57:\n      byte\n      0xf8\n      shl\n      sub(shl(0xf8, 0x01), 0x01)\n        /* \"contracts/Lib.sol\":7424:7442  value[i + 12] >> 4 */\n      not\n      and\n      swap1\n      shr\n        /* \"contracts/Lib.sol\":7418:7443  uint8(value[i + 12] >> 4) */\n      0xf8\n      shr\n        /* \"contracts/Lib.sol\":7409:7444  alphabet[uint8(value[i + 12] >> 4)] */\n      0xff\n      and\n      dup2\n      mload\n      dup2\n      lt\n      tag_59\n      jumpi\n      tag_59\n      tag_28\n      jump\t// in\n    tag_59:\n      add\n      0x20\n      add\n      mload\n      not(sub(shl(0xf8, 0x01), 0x01))\n      and\n        /* \"contracts/Lib.sol\":7396:7399  str */\n      dup3\n        /* \"contracts/Lib.sol\":7402:7405  i*2 */\n      tag_60\n        /* \"contracts/Lib.sol\":7402:7403  i */\n      dup4\n        /* \"contracts/Lib.sol\":7404:7405  2 */\n      0x02\n        /* \"contracts/Lib.sol\":7402:7405  i*2 */\n      tag_38\n      jump\t// in\n    tag_60:\n        /* \"contracts/Lib.sol\":7400:7405  2+i*2 */\n      tag_61\n      swap1\n        /* \"contracts/Lib.sol\":7400:7401  2 */\n      0x02\n        /* \"contracts/Lib.sol\":7400:7405  2+i*2 */\n      tag_40\n      jump\t// in\n    tag_61:\n        /* \"contracts/Lib.sol\":7396:7406  str[2+i*2] */\n      dup2\n      mload\n      dup2\n      lt\n      tag_63\n      jumpi\n      tag_63\n      tag_28\n      jump\t// in\n    tag_63:\n      0x20\n      add\n      add\n        /* \"contracts/Lib.sol\":7396:7444  str[2+i*2] = alphabet[uint8(value[i + 12] >> 4)] */\n      swap1\n      not(sub(shl(0xf8, 0x01), 0x01))\n      and\n      swap1\n      dup2\n      0x00\n      byte\n      swap1\n      mstore8\n      pop\n        /* \"contracts/Lib.sol\":7472:7480  alphabet */\n      dup3\n        /* \"contracts/Lib.sol\":7487:7492  value */\n      dup5\n        /* \"contracts/Lib.sol\":7493:7499  i + 12 */\n      tag_64\n        /* \"contracts/Lib.sol\":7493:7494  i */\n      dup4\n        /* \"contracts/Lib.sol\":7497:7499  12 */\n      0x0c\n        /* \"contracts/Lib.sol\":7493:7499  i + 12 */\n      tag_40\n      jump\t// in\n    tag_64:\n        /* \"contracts/Lib.sol\":7487:7500  value[i + 12] */\n      0x20\n      dup2\n      lt\n      tag_66\n      jumpi\n      tag_66\n      tag_28\n      jump\t// in\n    tag_66:\n        /* \"contracts/Lib.sol\":7472:7509  alphabet[uint8(value[i + 12] & 0x0f)] */\n      dup3\n      mload\n        /* \"contracts/Lib.sol\":7487:7500  value[i + 12] */\n      swap2\n      swap1\n      byte\n        /* \"contracts/Lib.sol\":7503:7507  0x0f */\n      0x0f\n        /* \"contracts/Lib.sol\":7481:7508  uint8(value[i + 12] & 0x0f) */\n      and\n      swap1\n        /* \"contracts/Lib.sol\":7472:7509  alphabet[uint8(value[i + 12] & 0x0f)] */\n      dup2\n      lt\n      tag_68\n      jumpi\n      tag_68\n      tag_28\n      jump\t// in\n    tag_68:\n      add\n      0x20\n      add\n      mload\n      not(sub(shl(0xf8, 0x01), 0x01))\n      and\n        /* \"contracts/Lib.sol\":7459:7462  str */\n      dup3\n        /* \"contracts/Lib.sol\":7465:7468  i*2 */\n      tag_69\n        /* \"contracts/Lib.sol\":7465:7466  i */\n      dup4\n        /* \"contracts/Lib.sol\":7467:7468  2 */\n      0x02\n        /* \"contracts/Lib.sol\":7465:7468  i*2 */\n      tag_38\n      jump\t// in\n    tag_69:\n        /* \"contracts/Lib.sol\":7463:7468  3+i*2 */\n      tag_70\n      swap1\n        /* \"contracts/Lib.sol\":7463:7464  3 */\n      0x03\n        /* \"contracts/Lib.sol\":7463:7468  3+i*2 */\n      tag_40\n      jump\t// in\n    tag_70:\n        /* \"contracts/Lib.sol\":7459:7469  str[3+i*2] */\n      dup2\n      mload\n      dup2\n      lt\n      tag_72\n      jumpi\n      tag_72\n      tag_28\n      jump\t// in\n    tag_72:\n      0x20\n      add\n      add\n        /* \"contracts/Lib.sol\":7459:7509  str[3+i*2] = alphabet[uint8(value[i + 12] & 0x0f)] */\n      swap1\n      not(sub(shl(0xf8, 0x01), 0x01))\n      and\n      swap1\n      dup2\n      0x00\n      byte\n      swap1\n      mstore8\n      pop\n        /* \"contracts/Lib.sol\":7376:7379  i++ */\n      dup1\n      tag_73\n      dup2\n      tag_42\n      jump\t// in\n    tag_73:\n      swap2\n      pop\n      pop\n        /* \"contracts/Lib.sol\":7348:7521  for (uint256 i = 0; i < 20; i++) {... */\n      jump(tag_52)\n    tag_53:\n      pop\n        /* \"contracts/Lib.sol\":7545:7548  str */\n      swap5\n        /* \"contracts/Lib.sol\":6979:7557  function addressToString(address _addr)... */\n      swap4\n      pop\n      pop\n      pop\n      pop\n      jump\t// out\n        /* \"contracts/Lib.sol\":8408:8921  function bytes32ToString(bytes32 value)... */\n    tag_20:\n        /* \"contracts/Lib.sol\":8582:8624  bytes memory alphabet = \"0123456789abcdef\" */\n      0x40\n      dup1\n      mload\n      dup1\n      dup3\n      add\n      dup3\n      mstore\n      0x10\n      dup2\n      mstore\n      shl(0x81, 0x181899199a1a9b1b9c1cb0b131b232b3)\n      0x20\n      dup3\n      add\n      mstore\n        /* \"contracts/Lib.sol\":8656:8669  new bytes(66) */\n      dup2\n      mload\n        /* \"contracts/Lib.sol\":8666:8668  66 */\n      0x42\n        /* \"contracts/Lib.sol\":8656:8669  new bytes(66) */\n      dup1\n      dup3\n      mstore\n      0x80\n      dup3\n      add\n      swap1\n      swap4\n      mstore\n        /* \"contracts/Lib.sol\":8555:8568  string memory */\n      0x60\n      swap3\n      0x00\n      swap2\n        /* \"contracts/Lib.sol\":8656:8669  new bytes(66) */\n      swap1\n      0x20\n      dup3\n      add\n      dup2\n      dup1\n      calldatasize\n      dup4\n      calldatacopy\n      add\n      swap1\n      pop\n      pop\n        /* \"contracts/Lib.sol\":8637:8669  bytes memory str = new bytes(66) */\n      swap1\n      pop\n      shl(0xfc, 0x03)\n        /* \"contracts/Lib.sol\":8680:8683  str */\n      dup2\n        /* \"contracts/Lib.sol\":8684:8685  0 */\n      0x00\n        /* \"contracts/Lib.sol\":8680:8686  str[0] */\n      dup2\n      mload\n      dup2\n      lt\n      tag_79\n      jumpi\n      tag_79\n      tag_28\n      jump\t// in\n    tag_79:\n      0x20\n      add\n      add\n        /* \"contracts/Lib.sol\":8680:8692  str[0] = '0' */\n      swap1\n      not(sub(shl(0xf8, 0x01), 0x01))\n      and\n      swap1\n      dup2\n      0x00\n      byte\n      swap1\n      mstore8\n      pop\n      shl(0xfb, 0x0f)\n        /* \"contracts/Lib.sol\":8703:8706  str */\n      dup2\n        /* \"contracts/Lib.sol\":8707:8708  1 */\n      0x01\n        /* \"contracts/Lib.sol\":8703:8709  str[1] */\n      dup2\n      mload\n      dup2\n      lt\n      tag_81\n      jumpi\n      tag_81\n      tag_28\n      jump\t// in\n    tag_81:\n      0x20\n      add\n      add\n        /* \"contracts/Lib.sol\":8703:8715  str[1] = 'x' */\n      swap1\n      not(sub(shl(0xf8, 0x01), 0x01))\n      and\n      swap1\n      dup2\n      0x00\n      byte\n      swap1\n      mstore8\n      pop\n        /* \"contracts/Lib.sol\":8731:8740  uint256 i */\n      0x00\n        /* \"contracts/Lib.sol\":8726:8889  for (uint256 i = 0; i < 32; i++) {... */\n    tag_82:\n        /* \"contracts/Lib.sol\":8750:8752  32 */\n      0x20\n        /* \"contracts/Lib.sol\":8746:8747  i */\n      dup2\n        /* \"contracts/Lib.sol\":8746:8752  i < 32 */\n      lt\n        /* \"contracts/Lib.sol\":8726:8889  for (uint256 i = 0; i < 32; i++) {... */\n      iszero\n      tag_24\n      jumpi\n        /* \"contracts/Lib.sol\":8787:8795  alphabet */\n      dup3\n        /* \"contracts/Lib.sol\":8814:8815  4 */\n      0x04\n        /* \"contracts/Lib.sol\":8802:8807  value */\n      dup7\n        /* \"contracts/Lib.sol\":8808:8809  i */\n      dup4\n        /* \"contracts/Lib.sol\":8802:8810  value[i] */\n      0x20\n      dup2\n      lt\n      tag_86\n      jumpi\n      tag_86\n      tag_28\n      jump\t// in\n    tag_86:\n      byte\n      0xf8\n      shl\n      sub(shl(0xf8, 0x01), 0x01)\n        /* \"contracts/Lib.sol\":8802:8815  value[i] >> 4 */\n      not\n      and\n      swap1\n      shr\n        /* \"contracts/Lib.sol\":8796:8816  uint8(value[i] >> 4) */\n      0xf8\n      shr\n        /* \"contracts/Lib.sol\":8787:8817  alphabet[uint8(value[i] >> 4)] */\n      0xff\n      and\n      dup2\n      mload\n      dup2\n      lt\n      tag_88\n      jumpi\n      tag_88\n      tag_28\n      jump\t// in\n    tag_88:\n      add\n      0x20\n      add\n      mload\n      not(sub(shl(0xf8, 0x01), 0x01))\n      and\n        /* \"contracts/Lib.sol\":8774:8777  str */\n      dup3\n        /* \"contracts/Lib.sol\":8780:8783  i*2 */\n      tag_89\n        /* \"contracts/Lib.sol\":8780:8781  i */\n      dup4\n        /* \"contracts/Lib.sol\":8782:8783  2 */\n      0x02\n        /* \"contracts/Lib.sol\":8780:8783  i*2 */\n      tag_38\n      jump\t// in\n    tag_89:\n        /* \"contracts/Lib.sol\":8778:8783  2+i*2 */\n      tag_90\n      swap1\n        /* \"contracts/Lib.sol\":8778:8779  2 */\n      0x02\n        /* \"contracts/Lib.sol\":8778:8783  2+i*2 */\n      tag_40\n      jump\t// in\n    tag_90:\n        /* \"contracts/Lib.sol\":8774:8784  str[2+i*2] */\n      dup2\n      mload\n      dup2\n      lt\n      tag_92\n      jumpi\n      tag_92\n      tag_28\n      jump\t// in\n    tag_92:\n      0x20\n      add\n      add\n        /* \"contracts/Lib.sol\":8774:8817  str[2+i*2] = alphabet[uint8(value[i] >> 4)] */\n      swap1\n      not(sub(shl(0xf8, 0x01), 0x01))\n      and\n      swap1\n      dup2\n      0x00\n      byte\n      swap1\n      mstore8\n      pop\n        /* \"contracts/Lib.sol\":8845:8853  alphabet */\n      dup3\n        /* \"contracts/Lib.sol\":8860:8865  value */\n      dup6\n        /* \"contracts/Lib.sol\":8866:8867  i */\n      dup3\n        /* \"contracts/Lib.sol\":8860:8868  value[i] */\n      0x20\n      dup2\n      lt\n      tag_94\n      jumpi\n      tag_94\n      tag_28\n      jump\t// in\n    tag_94:\n        /* \"contracts/Lib.sol\":8845:8877  alphabet[uint8(value[i] & 0x0f)] */\n      dup3\n      mload\n        /* \"contracts/Lib.sol\":8860:8868  value[i] */\n      swap2\n      swap1\n      byte\n        /* \"contracts/Lib.sol\":8871:8875  0x0f */\n      0x0f\n        /* \"contracts/Lib.sol\":8854:8876  uint8(value[i] & 0x0f) */\n      and\n      swap1\n        /* \"contracts/Lib.sol\":8845:8877  alphabet[uint8(value[i] & 0x0f)] */\n      dup2\n      lt\n      tag_96\n      jumpi\n      tag_96\n      tag_28\n      jump\t// in\n    tag_96:\n      add\n      0x20\n      add\n      mload\n      not(sub(shl(0xf8, 0x01), 0x01))\n      and\n        /* \"contracts/Lib.sol\":8832:8835  str */\n      dup3\n        /* \"contracts/Lib.sol\":8838:8841  i*2 */\n      tag_97\n        /* \"contracts/Lib.sol\":8838:8839  i */\n      dup4\n        /* \"contracts/Lib.sol\":8840:8841  2 */\n      0x02\n        /* \"contracts/Lib.sol\":8838:8841  i*2 */\n      tag_38\n      jump\t// in\n    tag_97:\n        /* \"contracts/Lib.sol\":8836:8841  3+i*2 */\n      tag_98\n      swap1\n        /* \"contracts/Lib.sol\":8836:8837  3 */\n      0x03\n        /* \"contracts/Lib.sol\":8836:8841  3+i*2 */\n      tag_40\n      jump\t// in\n    tag_98:\n        /* \"contracts/Lib.sol\":8832:8842  str[3+i*2] */\n      dup2\n      mload\n      dup2\n      lt\n      tag_100\n      jumpi\n      tag_100\n      tag_28\n      jump\t// in\n    tag_100:\n      0x20\n      add\n      add\n        /* \"contracts/Lib.sol\":8832:8877  str[3+i*2] = alphabet[uint8(value[i] & 0x0f)] */\n      swap1\n      not(sub(shl(0xf8, 0x01), 0x01))\n      and\n      swap1\n      dup2\n      0x00\n      byte\n      swap1\n      mstore8\n      pop\n        /* \"contracts/Lib.sol\":8754:8757  i++ */\n      dup1\n      tag_101\n      dup2\n      tag_42\n      jump\t// in\n    tag_101:\n      swap2\n      pop\n      pop\n        /* \"contracts/Lib.sol\":8726:8889  for (uint256 i = 0; i < 32; i++) {... */\n      jump(tag_82)\n        /* \"#utility.yul\":14:141   */\n    tag_46:\n        /* \"#utility.yul\":75:85   */\n      0x4e487b71\n        /* \"#utility.yul\":70:73   */\n      0xe0\n        /* \"#utility.yul\":66:86   */\n      shl\n        /* \"#utility.yul\":63:64   */\n      0x00\n        /* \"#utility.yul\":56:87   */\n      mstore\n        /* \"#utility.yul\":106:110   */\n      0x41\n        /* \"#utility.yul\":103:104   */\n      0x04\n        /* \"#utility.yul\":96:111   */\n      mstore\n        /* \"#utility.yul\":130:134   */\n      0x24\n        /* \"#utility.yul\":127:128   */\n      0x00\n        /* \"#utility.yul\":120:135   */\n      revert\n        /* \"#utility.yul\":146:1068   */\n    tag_7:\n        /* \"#utility.yul\":215:221   */\n      0x00\n        /* \"#utility.yul\":268:270   */\n      0x20\n        /* \"#utility.yul\":256:265   */\n      dup3\n        /* \"#utility.yul\":247:254   */\n      dup5\n        /* \"#utility.yul\":243:266   */\n      sub\n        /* \"#utility.yul\":239:271   */\n      slt\n        /* \"#utility.yul\":236:288   */\n      iszero\n      tag_106\n      jumpi\n        /* \"#utility.yul\":284:285   */\n      0x00\n        /* \"#utility.yul\":281:282   */\n      dup1\n        /* \"#utility.yul\":274:286   */\n      revert\n        /* \"#utility.yul\":236:288   */\n    tag_106:\n        /* \"#utility.yul\":324:333   */\n      dup2\n        /* \"#utility.yul\":311:334   */\n      calldataload\n        /* \"#utility.yul\":353:371   */\n      0xffffffffffffffff\n        /* \"#utility.yul\":394:396   */\n      dup1\n        /* \"#utility.yul\":386:392   */\n      dup3\n        /* \"#utility.yul\":383:397   */\n      gt\n        /* \"#utility.yul\":380:414   */\n      iszero\n      tag_107\n      jumpi\n        /* \"#utility.yul\":410:411   */\n      0x00\n        /* \"#utility.yul\":407:408   */\n      dup1\n        /* \"#utility.yul\":400:412   */\n      revert\n        /* \"#utility.yul\":380:414   */\n    tag_107:\n        /* \"#utility.yul\":448:454   */\n      dup2\n        /* \"#utility.yul\":437:446   */\n      dup5\n        /* \"#utility.yul\":433:455   */\n      add\n        /* \"#utility.yul\":423:455   */\n      swap2\n      pop\n        /* \"#utility.yul\":493:500   */\n      dup5\n        /* \"#utility.yul\":486:490   */\n      0x1f\n        /* \"#utility.yul\":482:484   */\n      dup4\n        /* \"#utility.yul\":478:491   */\n      add\n        /* \"#utility.yul\":474:501   */\n      slt\n        /* \"#utility.yul\":464:519   */\n      tag_108\n      jumpi\n        /* \"#utility.yul\":515:516   */\n      0x00\n        /* \"#utility.yul\":512:513   */\n      dup1\n        /* \"#utility.yul\":505:517   */\n      revert\n        /* \"#utility.yul\":464:519   */\n    tag_108:\n        /* \"#utility.yul\":551:553   */\n      dup2\n        /* \"#utility.yul\":538:554   */\n      calldataload\n        /* \"#utility.yul\":573:575   */\n      dup2\n        /* \"#utility.yul\":569:571   */\n      dup2\n        /* \"#utility.yul\":566:576   */\n      gt\n        /* \"#utility.yul\":563:599   */\n      iszero\n      tag_110\n      jumpi\n        /* \"#utility.yul\":579:597   */\n      tag_110\n      tag_46\n      jump\t// in\n    tag_110:\n        /* \"#utility.yul\":654:656   */\n      0x40\n        /* \"#utility.yul\":648:657   */\n      mload\n        /* \"#utility.yul\":622:624   */\n      0x1f\n        /* \"#utility.yul\":708:721   */\n      dup3\n      add\n      not(0x1f)\n        /* \"#utility.yul\":704:726   */\n      swap1\n      dup2\n      and\n        /* \"#utility.yul\":728:730   */\n      0x3f\n        /* \"#utility.yul\":700:731   */\n      add\n        /* \"#utility.yul\":696:736   */\n      and\n        /* \"#utility.yul\":684:737   */\n      dup2\n      add\n      swap1\n        /* \"#utility.yul\":752:770   */\n      dup4\n      dup3\n      gt\n        /* \"#utility.yul\":772:794   */\n      dup2\n      dup4\n      lt\n        /* \"#utility.yul\":749:795   */\n      or\n        /* \"#utility.yul\":746:818   */\n      iszero\n      tag_112\n      jumpi\n        /* \"#utility.yul\":798:816   */\n      tag_112\n      tag_46\n      jump\t// in\n    tag_112:\n        /* \"#utility.yul\":838:848   */\n      dup2\n        /* \"#utility.yul\":834:836   */\n      0x40\n        /* \"#utility.yul\":827:849   */\n      mstore\n        /* \"#utility.yul\":873:875   */\n      dup3\n        /* \"#utility.yul\":865:871   */\n      dup2\n        /* \"#utility.yul\":858:876   */\n      mstore\n        /* \"#utility.yul\":913:920   */\n      dup8\n        /* \"#utility.yul\":908:910   */\n      0x20\n        /* \"#utility.yul\":903:905   */\n      dup5\n        /* \"#utility.yul\":899:901   */\n      dup8\n        /* \"#utility.yul\":895:906   */\n      add\n        /* \"#utility.yul\":891:911   */\n      add\n        /* \"#utility.yul\":888:921   */\n      gt\n        /* \"#utility.yul\":885:938   */\n      iszero\n      tag_113\n      jumpi\n        /* \"#utility.yul\":934:935   */\n      0x00\n        /* \"#utility.yul\":931:932   */\n      dup1\n        /* \"#utility.yul\":924:936   */\n      revert\n        /* \"#utility.yul\":885:938   */\n    tag_113:\n        /* \"#utility.yul\":990:992   */\n      dup3\n        /* \"#utility.yul\":985:987   */\n      0x20\n        /* \"#utility.yul\":981:983   */\n      dup7\n        /* \"#utility.yul\":977:988   */\n      add\n        /* \"#utility.yul\":972:974   */\n      0x20\n        /* \"#utility.yul\":964:970   */\n      dup4\n        /* \"#utility.yul\":960:975   */\n      add\n        /* \"#utility.yul\":947:993   */\n      calldatacopy\n        /* \"#utility.yul\":1035:1036   */\n      0x00\n        /* \"#utility.yul\":1013:1028   */\n      swap3\n      dup2\n      add\n        /* \"#utility.yul\":1030:1032   */\n      0x20\n        /* \"#utility.yul\":1009:1033   */\n      add\n        /* \"#utility.yul\":1002:1037   */\n      swap3\n      swap1\n      swap3\n      mstore\n      pop\n        /* \"#utility.yul\":1017:1023   */\n      swap6\n        /* \"#utility.yul\":146:1068   */\n      swap5\n      pop\n      pop\n      pop\n      pop\n      pop\n      jump\t// out\n        /* \"#utility.yul\":1263:1549   */\n    tag_13:\n        /* \"#utility.yul\":1322:1328   */\n      0x00\n        /* \"#utility.yul\":1375:1377   */\n      0x20\n        /* \"#utility.yul\":1363:1372   */\n      dup3\n        /* \"#utility.yul\":1354:1361   */\n      dup5\n        /* \"#utility.yul\":1350:1373   */\n      sub\n        /* \"#utility.yul\":1346:1378   */\n      slt\n        /* \"#utility.yul\":1343:1395   */\n      iszero\n      tag_116\n      jumpi\n        /* \"#utility.yul\":1391:1392   */\n      0x00\n        /* \"#utility.yul\":1388:1389   */\n      dup1\n        /* \"#utility.yul\":1381:1393   */\n      revert\n        /* \"#utility.yul\":1343:1395   */\n    tag_116:\n        /* \"#utility.yul\":1417:1440   */\n      dup2\n      calldataload\n      sub(shl(0xa0, 0x01), 0x01)\n        /* \"#utility.yul\":1469:1500   */\n      dup2\n      and\n        /* \"#utility.yul\":1459:1501   */\n      dup2\n      eq\n        /* \"#utility.yul\":1449:1519   */\n      tag_117\n      jumpi\n        /* \"#utility.yul\":1515:1516   */\n      0x00\n        /* \"#utility.yul\":1512:1513   */\n      dup1\n        /* \"#utility.yul\":1505:1517   */\n      revert\n        /* \"#utility.yul\":1449:1519   */\n    tag_117:\n        /* \"#utility.yul\":1538:1543   */\n      swap4\n        /* \"#utility.yul\":1263:1549   */\n      swap3\n      pop\n      pop\n      pop\n      jump\t// out\n        /* \"#utility.yul\":1554:2110   */\n    tag_16:\n        /* \"#utility.yul\":1674:1678   */\n      0x00\n        /* \"#utility.yul\":1703:1705   */\n      0x20\n        /* \"#utility.yul\":1732:1734   */\n      dup1\n        /* \"#utility.yul\":1721:1730   */\n      dup4\n        /* \"#utility.yul\":1714:1735   */\n      mstore\n        /* \"#utility.yul\":1764:1770   */\n      dup4\n        /* \"#utility.yul\":1758:1771   */\n      mload\n        /* \"#utility.yul\":1807:1813   */\n      dup1\n        /* \"#utility.yul\":1802:1804   */\n      dup3\n        /* \"#utility.yul\":1791:1800   */\n      dup6\n        /* \"#utility.yul\":1787:1805   */\n      add\n        /* \"#utility.yul\":1780:1814   */\n      mstore\n        /* \"#utility.yul\":1832:1833   */\n      0x00\n        /* \"#utility.yul\":1842:1982   */\n    tag_119:\n        /* \"#utility.yul\":1856:1862   */\n      dup2\n        /* \"#utility.yul\":1853:1854   */\n      dup2\n        /* \"#utility.yul\":1850:1863   */\n      lt\n        /* \"#utility.yul\":1842:1982   */\n      iszero\n      tag_121\n      jumpi\n        /* \"#utility.yul\":1951:1965   */\n      dup6\n      dup2\n      add\n        /* \"#utility.yul\":1947:1970   */\n      dup4\n      add\n        /* \"#utility.yul\":1941:1971   */\n      mload\n        /* \"#utility.yul\":1917:1934   */\n      dup6\n      dup3\n      add\n        /* \"#utility.yul\":1936:1938   */\n      0x40\n        /* \"#utility.yul\":1913:1939   */\n      add\n        /* \"#utility.yul\":1906:1972   */\n      mstore\n        /* \"#utility.yul\":1871:1881   */\n      dup3\n      add\n        /* \"#utility.yul\":1842:1982   */\n      jump(tag_119)\n    tag_121:\n        /* \"#utility.yul\":1846:1849   */\n      pop\n        /* \"#utility.yul\":2031:2032   */\n      0x00\n        /* \"#utility.yul\":2026:2028   */\n      0x40\n        /* \"#utility.yul\":2017:2023   */\n      dup3\n        /* \"#utility.yul\":2006:2015   */\n      dup7\n        /* \"#utility.yul\":2002:2024   */\n      add\n        /* \"#utility.yul\":1998:2029   */\n      add\n        /* \"#utility.yul\":1991:2033   */\n      mstore\n        /* \"#utility.yul\":2101:2103   */\n      0x40\n        /* \"#utility.yul\":2094:2096   */\n      0x1f\n        /* \"#utility.yul\":2090:2097   */\n      not\n        /* \"#utility.yul\":2085:2087   */\n      0x1f\n        /* \"#utility.yul\":2077:2083   */\n      dup4\n        /* \"#utility.yul\":2073:2088   */\n      add\n        /* \"#utility.yul\":2069:2098   */\n      and\n        /* \"#utility.yul\":2058:2067   */\n      dup6\n        /* \"#utility.yul\":2054:2099   */\n      add\n        /* \"#utility.yul\":2050:2104   */\n      add\n        /* \"#utility.yul\":2042:2104   */\n      swap3\n      pop\n      pop\n      pop\n        /* \"#utility.yul\":1554:2110   */\n      swap3\n      swap2\n      pop\n      pop\n      jump\t// out\n        /* \"#utility.yul\":2115:2295   */\n    tag_19:\n        /* \"#utility.yul\":2174:2180   */\n      0x00\n        /* \"#utility.yul\":2227:2229   */\n      0x20\n        /* \"#utility.yul\":2215:2224   */\n      dup3\n        /* \"#utility.yul\":2206:2213   */\n      dup5\n        /* \"#utility.yul\":2202:2225   */\n      sub\n        /* \"#utility.yul\":2198:2230   */\n      slt\n        /* \"#utility.yul\":2195:2247   */\n      iszero\n      tag_123\n      jumpi\n        /* \"#utility.yul\":2243:2244   */\n      0x00\n        /* \"#utility.yul\":2240:2241   */\n      dup1\n        /* \"#utility.yul\":2233:2245   */\n      revert\n        /* \"#utility.yul\":2195:2247   */\n    tag_123:\n      pop\n        /* \"#utility.yul\":2266:2289   */\n      calldataload\n      swap2\n        /* \"#utility.yul\":2115:2295   */\n      swap1\n      pop\n      jump\t// out\n        /* \"#utility.yul\":2300:2427   */\n    tag_28:\n        /* \"#utility.yul\":2361:2371   */\n      0x4e487b71\n        /* \"#utility.yul\":2356:2359   */\n      0xe0\n        /* \"#utility.yul\":2352:2372   */\n      shl\n        /* \"#utility.yul\":2349:2350   */\n      0x00\n        /* \"#utility.yul\":2342:2373   */\n      mstore\n        /* \"#utility.yul\":2392:2396   */\n      0x32\n        /* \"#utility.yul\":2389:2390   */\n      0x04\n        /* \"#utility.yul\":2382:2397   */\n      mstore\n        /* \"#utility.yul\":2416:2420   */\n      0x24\n        /* \"#utility.yul\":2413:2414   */\n      0x00\n        /* \"#utility.yul\":2406:2421   */\n      revert\n        /* \"#utility.yul\":2432:2559   */\n    tag_102:\n        /* \"#utility.yul\":2493:2503   */\n      0x4e487b71\n        /* \"#utility.yul\":2488:2491   */\n      0xe0\n        /* \"#utility.yul\":2484:2504   */\n      shl\n        /* \"#utility.yul\":2481:2482   */\n      0x00\n        /* \"#utility.yul\":2474:2505   */\n      mstore\n        /* \"#utility.yul\":2524:2528   */\n      0x11\n        /* \"#utility.yul\":2521:2522   */\n      0x04\n        /* \"#utility.yul\":2514:2529   */\n      mstore\n        /* \"#utility.yul\":2548:2552   */\n      0x24\n        /* \"#utility.yul\":2545:2546   */\n      0x00\n        /* \"#utility.yul\":2538:2553   */\n      revert\n        /* \"#utility.yul\":2564:2715   */\n    tag_36:\n        /* \"#utility.yul\":2654:2658   */\n      0xff\n        /* \"#utility.yul\":2647:2659   */\n      dup3\n      dup2\n      and\n        /* \"#utility.yul\":2633:2645   */\n      dup3\n      dup3\n      and\n        /* \"#utility.yul\":2629:2660   */\n      sub\n      swap1\n        /* \"#utility.yul\":2672:2686   */\n      dup2\n      gt\n        /* \"#utility.yul\":2669:2709   */\n      iszero\n      tag_128\n      jumpi\n        /* \"#utility.yul\":2689:2707   */\n      tag_128\n      tag_102\n      jump\t// in\n    tag_128:\n        /* \"#utility.yul\":2564:2715   */\n      swap3\n      swap2\n      pop\n      pop\n      jump\t// out\n        /* \"#utility.yul\":2720:2888   */\n    tag_38:\n        /* \"#utility.yul\":2793:2802   */\n      dup1\n      dup3\n      mul\n        /* \"#utility.yul\":2824:2833   */\n      dup2\n      iszero\n        /* \"#utility.yul\":2841:2856   */\n      dup3\n      dup3\n      div\n        /* \"#utility.yul\":2835:2857   */\n      dup5\n      eq\n        /* \"#utility.yul\":2821:2858   */\n      or\n        /* \"#utility.yul\":2811:2882   */\n      tag_128\n      jumpi\n        /* \"#utility.yul\":2862:2880   */\n      tag_128\n      tag_102\n      jump\t// in\n        /* \"#utility.yul\":2893:3018   */\n    tag_40:\n        /* \"#utility.yul\":2958:2967   */\n      dup1\n      dup3\n      add\n        /* \"#utility.yul\":2979:2989   */\n      dup1\n      dup3\n      gt\n        /* \"#utility.yul\":2976:3012   */\n      iszero\n      tag_128\n      jumpi\n        /* \"#utility.yul\":2992:3010   */\n      tag_128\n      tag_102\n      jump\t// in\n        /* \"#utility.yul\":3023:3158   */\n    tag_42:\n        /* \"#utility.yul\":3062:3065   */\n      0x00\n        /* \"#utility.yul\":3083:3100   */\n      0x01\n      dup3\n      add\n        /* \"#utility.yul\":3080:3123   */\n      tag_137\n      jumpi\n        /* \"#utility.yul\":3103:3121   */\n      tag_137\n      tag_102\n      jump\t// in\n    tag_137:\n      pop\n        /* \"#utility.yul\":3150:3151   */\n      0x01\n        /* \"#utility.yul\":3139:3152   */\n      add\n      swap1\n        /* \"#utility.yul\":3023:3158   */\n      jump\t// out\n\n    auxdata: 0xa26469706673582212208508fff5befe666f276282b1d161d2e9756073ac88d51c61e88cd631d4d6a5a964736f6c63430008110033\n}\n",
				"bytecode": {
					"linkReferences": {},
					"object": "61072e61003a600b82828239805160001a60731461002d57634e487b7160e01b600052600060045260246000fd5b30600052607381538281f3fe730000000000000000000000000000000000000000301460806040526004361061004b5760003560e01c80631bd95155146100505780635e57966d146100765780639201de5514610096575b600080fd5b61006361005e366004610522565b6100a9565b6040519081526020015b60405180910390f35b6100896100843660046105d3565b61015c565b60405161006d9190610603565b6100896100a4366004610651565b610347565b60008181805b82518110156101545760308382815181106100cc576100cc61066a565b016020015160f81c108015906100fc575060398382815181106100f1576100f161066a565b016020015160f81c11155b156101425760308382815181106101155761011561066a565b0160200151610127919060f81c610696565b60ff1661013583600a6106b5565b61013f91906106cc565b91505b8061014c816106df565b9150506100af565b509392505050565b604080518082018252601081526f181899199a1a9b1b9c1cb0b131b232b360811b60208201528151602a80825260608281019094526001600160a01b0385169291600091602082018180368337019050509050600360fc1b816000815181106101c7576101c761066a565b60200101906001600160f81b031916908160001a905350600f60fb1b816001815181106101f6576101f661066a565b60200101906001600160f81b031916908160001a90535060005b601481101561033e578260048561022884600c6106cc565b602081106102385761023861066a565b1a60f81b6001600160f81b031916901c60f81c60ff168151811061025e5761025e61066a565b01602001516001600160f81b031916826102798360026106b5565b6102849060026106cc565b815181106102945761029461066a565b60200101906001600160f81b031916908160001a90535082846102b883600c6106cc565b602081106102c8576102c861066a565b825191901a600f169081106102df576102df61066a565b01602001516001600160f81b031916826102fa8360026106b5565b6103059060036106cc565b815181106103155761031561066a565b60200101906001600160f81b031916908160001a90535080610336816106df565b915050610210565b50949350505050565b604080518082018252601081526f181899199a1a9b1b9c1cb0b131b232b360811b6020820152815160428082526080820190935260609260009190602082018180368337019050509050600360fc1b816000815181106103a9576103a961066a565b60200101906001600160f81b031916908160001a905350600f60fb1b816001815181106103d8576103d861066a565b60200101906001600160f81b031916908160001a90535060005b6020811015610154578260048683602081106104105761041061066a565b1a60f81b6001600160f81b031916901c60f81c60ff16815181106104365761043661066a565b01602001516001600160f81b031916826104518360026106b5565b61045c9060026106cc565b8151811061046c5761046c61066a565b60200101906001600160f81b031916908160001a905350828582602081106104965761049661066a565b825191901a600f169081106104ad576104ad61066a565b01602001516001600160f81b031916826104c88360026106b5565b6104d39060036106cc565b815181106104e3576104e361066a565b60200101906001600160f81b031916908160001a90535080610504816106df565b9150506103f2565b634e487b7160e01b600052604160045260246000fd5b60006020828403121561053457600080fd5b813567ffffffffffffffff8082111561054c57600080fd5b818401915084601f83011261056057600080fd5b8135818111156105725761057261050c565b604051601f8201601f19908116603f0116810190838211818310171561059a5761059a61050c565b816040528281528760208487010111156105b357600080fd5b826020860160208301376000928101602001929092525095945050505050565b6000602082840312156105e557600080fd5b81356001600160a01b03811681146105fc57600080fd5b9392505050565b600060208083528351808285015260005b8181101561063057858101830151858201604001528201610614565b506000604082860101526040601f19601f8301168501019250505092915050565b60006020828403121561066357600080fd5b5035919050565b634e487b7160e01b600052603260045260246000fd5b634e487b7160e01b600052601160045260246000fd5b60ff82811682821603908111156106af576106af610680565b92915050565b80820281158282048414176106af576106af610680565b808201808211156106af576106af610680565b6000600182016106f1576106f1610680565b506001019056fea26469706673582212208508fff5befe666f276282b1d161d2e9756073ac88d51c61e88cd631d4d6a5a964736f6c63430008110033",
					"opcodes": "PUSH2 0x72E PUSH2 0x3A PUSH1 0xB DUP3 DUP3 DUP3 CODECOPY DUP1 MLOAD PUSH1 0x0 BYTE PUSH1 0x73 EQ PUSH2 0x2D JUMPI PUSH4 0x4E487B71 PUSH1 0xE0 SHL PUSH1 0x0 MSTORE PUSH1 0x0 PUSH1 0x4 MSTORE PUSH1 0x24 PUSH1 0x0 REVERT JUMPDEST ADDRESS PUSH1 0x0 MSTORE PUSH1 0x73 DUP2 MSTORE8 DUP3 DUP2 RETURN INVALID PUSH20 0x0 ADDRESS EQ PUSH1 0x80 PUSH1 0x40 MSTORE PUSH1 0x4 CALLDATASIZE LT PUSH2 0x4B JUMPI PUSH1 0x0 CALLDATALOAD PUSH1 0xE0 SHR DUP1 PUSH4 0x1BD95155 EQ PUSH2 0x50 JUMPI DUP1 PUSH4 0x5E57966D EQ PUSH2 0x76 JUMPI DUP1 PUSH4 0x9201DE55 EQ PUSH2 0x96 JUMPI JUMPDEST PUSH1 0x0 DUP1 REVERT JUMPDEST PUSH2 0x63 PUSH2 0x5E CALLDATASIZE PUSH1 0x4 PUSH2 0x522 JUMP JUMPDEST PUSH2 0xA9 JUMP JUMPDEST PUSH1 0x40 MLOAD SWAP1 DUP2 MSTORE PUSH1 0x20 ADD JUMPDEST PUSH1 0x40 MLOAD DUP1 SWAP2 SUB SWAP1 RETURN JUMPDEST PUSH2 0x89 PUSH2 0x84 CALLDATASIZE PUSH1 0x4 PUSH2 0x5D3 JUMP JUMPDEST PUSH2 0x15C JUMP JUMPDEST PUSH1 0x40 MLOAD PUSH2 0x6D SWAP2 SWAP1 PUSH2 0x603 JUMP JUMPDEST PUSH2 0x89 PUSH2 0xA4 CALLDATASIZE PUSH1 0x4 PUSH2 0x651 JUMP JUMPDEST PUSH2 0x347 JUMP JUMPDEST PUSH1 0x0 DUP2 DUP2 DUP1 JUMPDEST DUP3 MLOAD DUP2 LT ISZERO PUSH2 0x154 JUMPI PUSH1 0x30 DUP4 DUP3 DUP2 MLOAD DUP2 LT PUSH2 0xCC JUMPI PUSH2 0xCC PUSH2 0x66A JUMP JUMPDEST ADD PUSH1 0x20 ADD MLOAD PUSH1 0xF8 SHR LT DUP1 ISZERO SWAP1 PUSH2 0xFC JUMPI POP PUSH1 0x39 DUP4 DUP3 DUP2 MLOAD DUP2 LT PUSH2 0xF1 JUMPI PUSH2 0xF1 PUSH2 0x66A JUMP JUMPDEST ADD PUSH1 0x20 ADD MLOAD PUSH1 0xF8 SHR GT ISZERO JUMPDEST ISZERO PUSH2 0x142 JUMPI PUSH1 0x30 DUP4 DUP3 DUP2 MLOAD DUP2 LT PUSH2 0x115 JUMPI PUSH2 0x115 PUSH2 0x66A JUMP JUMPDEST ADD PUSH1 0x20 ADD MLOAD PUSH2 0x127 SWAP2 SWAP1 PUSH1 0xF8 SHR PUSH2 0x696 JUMP JUMPDEST PUSH1 0xFF AND PUSH2 0x135 DUP4 PUSH1 0xA PUSH2 0x6B5 JUMP JUMPDEST PUSH2 0x13F SWAP2 SWAP1 PUSH2 0x6CC JUMP JUMPDEST SWAP2 POP JUMPDEST DUP1 PUSH2 0x14C DUP2 PUSH2 0x6DF JUMP JUMPDEST SWAP2 POP POP PUSH2 0xAF JUMP JUMPDEST POP SWAP4 SWAP3 POP POP POP JUMP JUMPDEST PUSH1 0x40 DUP1 MLOAD DUP1 DUP3 ADD DUP3 MSTORE PUSH1 0x10 DUP2 MSTORE PUSH16 0x181899199A1A9B1B9C1CB0B131B232B3 PUSH1 0x81 SHL PUSH1 0x20 DUP3 ADD MSTORE DUP2 MLOAD PUSH1 0x2A DUP1 DUP3 MSTORE PUSH1 0x60 DUP3 DUP2 ADD SWAP1 SWAP5 MSTORE PUSH1 0x1 PUSH1 0x1 PUSH1 0xA0 SHL SUB DUP6 AND SWAP3 SWAP2 PUSH1 0x0 SWAP2 PUSH1 0x20 DUP3 ADD DUP2 DUP1 CALLDATASIZE DUP4 CALLDATACOPY ADD SWAP1 POP POP SWAP1 POP PUSH1 0x3 PUSH1 0xFC SHL DUP2 PUSH1 0x0 DUP2 MLOAD DUP2 LT PUSH2 0x1C7 JUMPI PUSH2 0x1C7 PUSH2 0x66A JUMP JUMPDEST PUSH1 0x20 ADD ADD SWAP1 PUSH1 0x1 PUSH1 0x1 PUSH1 0xF8 SHL SUB NOT AND SWAP1 DUP2 PUSH1 0x0 BYTE SWAP1 MSTORE8 POP PUSH1 0xF PUSH1 0xFB SHL DUP2 PUSH1 0x1 DUP2 MLOAD DUP2 LT PUSH2 0x1F6 JUMPI PUSH2 0x1F6 PUSH2 0x66A JUMP JUMPDEST PUSH1 0x20 ADD ADD SWAP1 PUSH1 0x1 PUSH1 0x1 PUSH1 0xF8 SHL SUB NOT AND SWAP1 DUP2 PUSH1 0x0 BYTE SWAP1 MSTORE8 POP PUSH1 0x0 JUMPDEST PUSH1 0x14 DUP2 LT ISZERO PUSH2 0x33E JUMPI DUP3 PUSH1 0x4 DUP6 PUSH2 0x228 DUP5 PUSH1 0xC PUSH2 0x6CC JUMP JUMPDEST PUSH1 0x20 DUP2 LT PUSH2 0x238 JUMPI PUSH2 0x238 PUSH2 0x66A JUMP JUMPDEST BYTE PUSH1 0xF8 SHL PUSH1 0x1 PUSH1 0x1 PUSH1 0xF8 SHL SUB NOT AND SWAP1 SHR PUSH1 0xF8 SHR PUSH1 0xFF AND DUP2 MLOAD DUP2 LT PUSH2 0x25E JUMPI PUSH2 0x25E PUSH2 0x66A JUMP JUMPDEST ADD PUSH1 0x20 ADD MLOAD PUSH1 0x1 PUSH1 0x1 PUSH1 0xF8 SHL SUB NOT AND DUP3 PUSH2 0x279 DUP4 PUSH1 0x2 PUSH2 0x6B5 JUMP JUMPDEST PUSH2 0x284 SWAP1 PUSH1 0x2 PUSH2 0x6CC JUMP JUMPDEST DUP2 MLOAD DUP2 LT PUSH2 0x294 JUMPI PUSH2 0x294 PUSH2 0x66A JUMP JUMPDEST PUSH1 0x20 ADD ADD SWAP1 PUSH1 0x1 PUSH1 0x1 PUSH1 0xF8 SHL SUB NOT AND SWAP1 DUP2 PUSH1 0x0 BYTE SWAP1 MSTORE8 POP DUP3 DUP5 PUSH2 0x2B8 DUP4 PUSH1 0xC PUSH2 0x6CC JUMP JUMPDEST PUSH1 0x20 DUP2 LT PUSH2 0x2C8 JUMPI PUSH2 0x2C8 PUSH2 0x66A JUMP JUMPDEST DUP3 MLOAD SWAP2 SWAP1 BYTE PUSH1 0xF AND SWAP1 DUP2 LT PUSH2 0x2DF JUMPI PUSH2 0x2DF PUSH2 0x66A JUMP JUMPDEST ADD PUSH1 0x20 ADD MLOAD PUSH1 0x1 PUSH1 0x1 PUSH1 0xF8 SHL SUB NOT AND DUP3 PUSH2 0x2FA DUP4 PUSH1 0x2 PUSH2 0x6B5 JUMP JUMPDEST PUSH2 0x305 SWAP1 PUSH1 0x3 PUSH2 0x6CC JUMP JUMPDEST DUP2 MLOAD DUP2 LT PUSH2 0x315 JUMPI PUSH2 0x315 PUSH2 0x66A JUMP JUMPDEST PUSH1 0x20 ADD ADD SWAP1 PUSH1 0x1 PUSH1 0x1 PUSH1 0xF8 SHL SUB NOT AND SWAP1 DUP2 PUSH1 0x0 BYTE SWAP1 MSTORE8 POP DUP1 PUSH2 0x336 DUP2 PUSH2 0x6DF JUMP JUMPDEST SWAP2 POP POP PUSH2 0x210 JUMP JUMPDEST POP SWAP5 SWAP4 POP POP POP POP JUMP JUMPDEST PUSH1 0x40 DUP1 MLOAD DUP1 DUP3 ADD DUP3 MSTORE PUSH1 0x10 DUP2 MSTORE PUSH16 0x181899199A1A9B1B9C1CB0B131B232B3 PUSH1 0x81 SHL PUSH1 0x20 DUP3 ADD MSTORE DUP2 MLOAD PUSH1 0x42 DUP1 DUP3 MSTORE PUSH1 0x80 DUP3 ADD SWAP1 SWAP4 MSTORE PUSH1 0x60 SWAP3 PUSH1 0x0 SWAP2 SWAP1 PUSH1 0x20 DUP3 ADD DUP2 DUP1 CALLDATASIZE DUP4 CALLDATACOPY ADD SWAP1 POP POP SWAP1 POP PUSH1 0x3 PUSH1 0xFC SHL DUP2 PUSH1 0x0 DUP2 MLOAD DUP2 LT PUSH2 0x3A9 JUMPI PUSH2 0x3A9 PUSH2 0x66A JUMP JUMPDEST PUSH1 0x20 ADD ADD SWAP1 PUSH1 0x1 PUSH1 0x1 PUSH1 0xF8 SHL SUB NOT AND SWAP1 DUP2 PUSH1 0x0 BYTE SWAP1 MSTORE8 POP PUSH1 0xF PUSH1 0xFB SHL DUP2 PUSH1 0x1 DUP2 MLOAD DUP2 LT PUSH2 0x3D8 JUMPI PUSH2 0x3D8 PUSH2 0x66A JUMP JUMPDEST PUSH1 0x20 ADD ADD SWAP1 PUSH1 0x1 PUSH1 0x1 PUSH1 0xF8 SHL SUB NOT AND SWAP1 DUP2 PUSH1 0x0 BYTE SWAP1 MSTORE8 POP PUSH1 0x0 JUMPDEST PUSH1 0x20 DUP2 LT ISZERO PUSH2 0x154 JUMPI DUP3 PUSH1 0x4 DUP7 DUP4 PUSH1 0x20 DUP2 LT PUSH2 0x410 JUMPI PUSH2 0x410 PUSH2 0x66A JUMP JUMPDEST BYTE PUSH1 0xF8 SHL PUSH1 0x1 PUSH1 0x1 PUSH1 0xF8 SHL SUB NOT AND SWAP1 SHR PUSH1 0xF8 SHR PUSH1 0xFF AND DUP2 MLOAD DUP2 LT PUSH2 0x436 JUMPI PUSH2 0x436 PUSH2 0x66A JUMP JUMPDEST ADD PUSH1 0x20 ADD MLOAD PUSH1 0x1 PUSH1 0x1 PUSH1 0xF8 SHL SUB NOT AND DUP3 PUSH2 0x451 DUP4 PUSH1 0x2 PUSH2 0x6B5 JUMP JUMPDEST PUSH2 0x45C SWAP1 PUSH1 0x2 PUSH2 0x6CC JUMP JUMPDEST DUP2 MLOAD DUP2 LT PUSH2 0x46C JUMPI PUSH2 0x46C PUSH2 0x66A JUMP JUMPDEST PUSH1 0x20 ADD ADD SWAP1 PUSH1 0x1 PUSH1 0x1 PUSH1 0xF8 SHL SUB NOT AND SWAP1 DUP2 PUSH1 0x0 BYTE SWAP1 MSTORE8 POP DUP3 DUP6 DUP3 PUSH1 0x20 DUP2 LT PUSH2 0x496 JUMPI PUSH2 0x496 PUSH2 0x66A JUMP JUMPDEST DUP3 MLOAD SWAP2 SWAP1 BYTE PUSH1 0xF AND SWAP1 DUP2 LT PUSH2 0x4AD JUMPI PUSH2 0x4AD PUSH2 0x66A JUMP JUMPDEST ADD PUSH1 0x20 ADD MLOAD PUSH1 0x1 PUSH1 0x1 PUSH1 0xF8 SHL SUB NOT AND DUP3 PUSH2 0x4C8 DUP4 PUSH1 0x2 PUSH2 0x6B5 JUMP JUMPDEST PUSH2 0x4D3 SWAP1 PUSH1 0x3 PUSH2 0x6CC JUMP JUMPDEST DUP2 MLOAD DUP2 LT PUSH2 0x4E3 JUMPI PUSH2 0x4E3 PUSH2 0x66A JUMP JUMPDEST PUSH1 0x20 ADD ADD SWAP1 PUSH1 0x1 PUSH1 0x1 PUSH1 0xF8 SHL SUB NOT AND SWAP1 DUP2 PUSH1 0x0 BYTE SWAP1 MSTORE8 POP DUP1 PUSH2 0x504 DUP2 PUSH2 0x6DF JUMP JUMPDEST SWAP2 POP POP PUSH2 0x3F2 JUMP JUMPDEST PUSH4 0x4E487B71 PUSH1 0xE0 SHL PUSH1 0x0 MSTORE PUSH1 0x41 PUSH1 0x4 MSTORE PUSH1 0x24 PUSH1 0x0 REVERT JUMPDEST PUSH1 0x0 PUSH1 0x20 DUP3 DUP5 SUB SLT ISZERO PUSH2 0x534 JUMPI PUSH1 0x0 DUP1 REVERT JUMPDEST DUP2 CALLDATALOAD PUSH8 0xFFFFFFFFFFFFFFFF DUP1 DUP3 GT ISZERO PUSH2 0x54C JUMPI PUSH1 0x0 DUP1 REVERT JUMPDEST DUP2 DUP5 ADD SWAP2 POP DUP5 PUSH1 0x1F DUP4 ADD SLT PUSH2 0x560 JUMPI PUSH1 0x0 DUP1 REVERT JUMPDEST DUP2 CALLDATALOAD DUP2 DUP2 GT ISZERO PUSH2 0x572 JUMPI PUSH2 0x572 PUSH2 0x50C JUMP JUMPDEST PUSH1 0x40 MLOAD PUSH1 0x1F DUP3 ADD PUSH1 0x1F NOT SWAP1 DUP2 AND PUSH1 0x3F ADD AND DUP2 ADD SWAP1 DUP4 DUP3 GT DUP2 DUP4 LT OR ISZERO PUSH2 0x59A JUMPI PUSH2 0x59A PUSH2 0x50C JUMP JUMPDEST DUP2 PUSH1 0x40 MSTORE DUP3 DUP2 MSTORE DUP8 PUSH1 0x20 DUP5 DUP8 ADD ADD GT ISZERO PUSH2 0x5B3 JUMPI PUSH1 0x0 DUP1 REVERT JUMPDEST DUP3 PUSH1 0x20 DUP7 ADD PUSH1 0x20 DUP4 ADD CALLDATACOPY PUSH1 0x0 SWAP3 DUP2 ADD PUSH1 0x20 ADD SWAP3 SWAP1 SWAP3 MSTORE POP SWAP6 SWAP5 POP POP POP POP POP JUMP JUMPDEST PUSH1 0x0 PUSH1 0x20 DUP3 DUP5 SUB SLT ISZERO PUSH2 0x5E5 JUMPI PUSH1 0x0 DUP1 REVERT JUMPDEST DUP2 CALLDATALOAD PUSH1 0x1 PUSH1 0x1 PUSH1 0xA0 SHL SUB DUP2 AND DUP2 EQ PUSH2 0x5FC JUMPI PUSH1 0x0 DUP1 REVERT JUMPDEST SWAP4 SWAP3 POP POP POP JUMP JUMPDEST PUSH1 0x0 PUSH1 0x20 DUP1 DUP4 MSTORE DUP4 MLOAD DUP1 DUP3 DUP6 ADD MSTORE PUSH1 0x0 JUMPDEST DUP2 DUP2 LT ISZERO PUSH2 0x630 JUMPI DUP6 DUP2 ADD DUP4 ADD MLOAD DUP6 DUP3 ADD PUSH1 0x40 ADD MSTORE DUP3 ADD PUSH2 0x614 JUMP JUMPDEST POP PUSH1 0x0 PUSH1 0x40 DUP3 DUP7 ADD ADD MSTORE PUSH1 0x40 PUSH1 0x1F NOT PUSH1 0x1F DUP4 ADD AND DUP6 ADD ADD SWAP3 POP POP POP SWAP3 SWAP2 POP POP JUMP JUMPDEST PUSH1 0x0 PUSH1 0x20 DUP3 DUP5 SUB SLT ISZERO PUSH2 0x663 JUMPI PUSH1 0x0 DUP1 REVERT JUMPDEST POP CALLDATALOAD SWAP2 SWAP1 POP JUMP JUMPDEST PUSH4 0x4E487B71 PUSH1 0xE0 SHL PUSH1 0x0 MSTORE PUSH1 0x32 PUSH1 0x4 MSTORE PUSH1 0x24 PUSH1 0x0 REVERT JUMPDEST PUSH4 0x4E487B71 PUSH1 0xE0 SHL PUSH1 0x0 MSTORE PUSH1 0x11 PUSH1 0x4 MSTORE PUSH1 0x24 PUSH1 0x0 REVERT JUMPDEST PUSH1 0xFF DUP3 DUP2 AND DUP3 DUP3 AND SUB SWAP1 DUP2 GT ISZERO PUSH2 0x6AF JUMPI PUSH2 0x6AF PUSH2 0x680 JUMP JUMPDEST SWAP3 SWAP2 POP POP JUMP JUMPDEST DUP1 DUP3 MUL DUP2 ISZERO DUP3 DUP3 DIV DUP5 EQ OR PUSH2 0x6AF JUMPI PUSH2 0x6AF PUSH2 0x680 JUMP JUMPDEST DUP1 DUP3 ADD DUP1 DUP3 GT ISZERO PUSH2 0x6AF JUMPI PUSH2 0x6AF PUSH2 0x680 JUMP JUMPDEST PUSH1 0x0 PUSH1 0x1 DUP3 ADD PUSH2 0x6F1 JUMPI PUSH2 0x6F1 PUSH2 0x680 JUMP JUMPDEST POP PUSH1 0x1 ADD SWAP1 JUMP INVALID LOG2 PUSH5 0x6970667358 0x22 SLT KECCAK256 DUP6 ADDMOD SELFDESTRUCT CREATE2 0xBE INVALID PUSH7 0x6F276282B1D161 0xD2 0xE9 PUSH22 0x6073AC88D51C61E88CD631D4D6A5A964736F6C634300 ADDMOD GT STOP CALLER "
				},
				"gasEstimates": {
					"creation": {
						"codeDepositCost": "367600",
						"executionCost": "436",
						"totalCost": "368036"
					},
					"external": {
						"addressToString(address)": "infinite",
						"bytes32ToString(bytes32)": "infinite",
						"stringToUint(string)": "infinite"
					},
					"internal": {
						"stringToAddress(string memory)": "infinite",
						"uintToString(uint256)": "infinite"
					}
				},
				"methodIdentifiers": {
					"addressToString(address)": "5e57966d",
					"bytes32ToString(bytes32)": "9201de55",
					"stringToUint(string)": "1bd95155"
				}
			},
			"storageLayout": {
				"storage": [],
				"types": null
			},
			"userdoc": {
				"kind": "user",
				"methods": {},
				"version": 1
			}
		}
	}
}