{
	"data": {
		"bytecode": {
			"linkReferences": {},
			"object": "61072e61003a600b82828239805160001a60731461002d57634e487b7160e01b600052600060045260246000fd5b30600052607381538281f3fe730000000000000000000000000000000000000000301460806040526004361061004b5760003560e01c80631bd95155146100505780635e57966d146100765780639201de5514610096575b600080fd5b61006361005e366004610522565b6100a9565b6040519081526020015b60405180910390f35b6100896100843660046105d3565b61015c565b60405161006d9190610603565b6100896100a4366004610651565b610347565b60008181805b82518110156101545760308382815181106100cc576100cc61066a565b016020015160f81c108015906100fc575060398382815181106100f1576100f161066a565b016020015160f81c11155b156101425760308382815181106101155761011561066a565b0160200151610127919060f81c610696565b60ff1661013583600a6106b5565b61013f91906106cc565b91505b8061014c816106df565b9150506100af565b509392505050565b604080518082018252601081526f181899199a1a9b1b9c1cb0b131b232b360811b60208201528151602a80825260608281019094526001600160a01b0385169291600091602082018180368337019050509050600360fc1b816000815181106101c7576101c761066a565b60200101906001600160f81b031916908160001a905350600f60fb1b816001815181106101f6576101f661066a565b60200101906001600160f81b031916908160001a90535060005b601481101561033e578260048561022884600c6106cc565b602081106102385761023861066a565b1a60f81b6001600160f81b031916901c60f81c60ff168151811061025e5761025e61066a565b01602001516001600160f81b031916826102798360026106b5565b6102849060026106cc565b815181106102945761029461066a565b60200101906001600160f81b031916908160001a90535082846102b883600c6106cc565b602081106102c8576102c861066a565b825191901a600f169081106102df576102df61066a565b01602001516001600160f81b031916826102fa8360026106b5565b6103059060036106cc565b815181106103155761031561066a565b60200101906001600160f81b031916908160001a90535080610336816106df565b915050610210565b50949350505050565b604080518082018252601081526f181899199a1a9b1b9c1cb0b131b232b360811b6020820152815160428082526080820190935260609260009190602082018180368337019050509050600360fc1b816000815181106103a9576103a961066a565b60200101906001600160f81b031916908160001a905350600f60fb1b816001815181106103d8576103d861066a565b60200101906001600160f81b031916908160001a90535060005b6020811015610154578260048683602081106104105761041061066a565b1a60f81b6001600160f81b031916901c60f81c60ff16815181106104365761043661066a565b01602001516001600160f81b031916826104518360026106b5565b61045c9060026106cc565b8151811061046c5761046c61066a565b60200101906001600160f81b031916908160001a905350828582602081106104965761049661066a565b825191901a600f169081106104ad576104ad61066a565b01602001516001600160f81b031916826104c88360026106b5565b6104d39060036106cc565b815181106104e3576104e361066a565b60200101906001600160f81b031916908160001a90535080610504816106df565b9150506103f2565b634e487b7160e01b600052604160045260246000fd5b60006020828403121561053457600080fd5b813567ffffffffffffffff8082111561054c57600080fd5b818401915084601f83011261056057600080fd5b8135818111156105725761057261050c565b604051601f8201601f19908116603f0116810190838211818310171561059a5761059a61050c565b816040528281528760208487010111156105b357600080fd5b826020860160208301376000928101602001929092525095945050505050565b6000602082840312156105e557600080fd5b81356001600160a01b03811681146105fc57600080fd5b9392505050565b600060208083528351808285015260005b8181101561063057858101830151858201604001528201610614565b506000604082860101526040601f19601f8301168501019250505092915050565b60006020828403121561066357600080fd5b5035919050565b634e487b7160e01b600052603260045260246000fd5b634e487b7160e01b600052601160045260246000fd5b60ff82811682821603908111156106af576106af610680565b92915050565b80820281158282048414176106af576106af610680565b808201808211156106af576106af610680565b6000600182016106f1576106f1610680565b506001019056fea26469706673582212208508fff5befe666f276282b1d161d2e9756073ac88d51c61e88cd631d4d6a5a964736f6c63430008110033",
			"opcodes": "PUSH2 0x72E PUSH2 0x3A PUSH1 0xB DUP3 DUP3 DUP3 CODECOPY DUP1 MLOAD PUSH1 0x0 BYTE PUSH1 0x73 EQ PUSH2 0x2D JUMPI PUSH4 0x4E487B71 PUSH1 0xE0 SHL PUSH1 0x0 MSTORE PUSH1 0x0 PUSH1 0x4 MSTORE PUSH1 0x24 PUSH1 0x0 REVERT JUMPDEST ADDRESS PUSH1 0x0 MSTORE PUSH1 0x73 DUP2 MSTORE8 DUP3 DUP2 RETURN INVALID PUSH20 0x0 ADDRESS EQ PUSH1 0x80 PUSH1 0x40 MSTORE PUSH1 0x4 CALLDATASIZE LT PUSH2 0x4B JUMPI PUSH1 0x0 CALLDATALOAD PUSH1 0xE0 SHR DUP1 PUSH4 0x1BD95155 EQ PUSH2 0x50 JUMPI DUP1 PUSH4 0x5E57966D EQ PUSH2 0x76 JUMPI DUP1 PUSH4 0x9201DE55 EQ PUSH2 0x96 JUMPI JUMPDEST PUSH1 0x0 DUP1 REVERT JUMPDEST PUSH2 0x63 PUSH2 0x5E CALLDATASIZE PUSH1 0x4 PUSH2 0x522 JUMP JUMPDEST PUSH2 0xA9 JUMP JUMPDEST PUSH1 0x40 MLOAD SWAP1 DUP2 MSTORE PUSH1 0x20 ADD JUMPDEST PUSH1 0x40 MLOAD DUP1 SWAP2 SUB SWAP1 RETURN JUMPDEST PUSH2 0x89 PUSH2 0x84 CALLDATASIZE PUSH1 0x4 PUSH2 0x5D3 JUMP JUMPDEST PUSH2 0x15C JUMP JUMPDEST PUSH1 0x40 MLOAD PUSH2 0x6D SWAP2 SWAP1 PUSH2 0x603 JUMP JUMPDEST PUSH2 0x89 PUSH2 0xA4 CALLDATASIZE PUSH1 0x4 PUSH2 0x651 JUMP JUMPDEST PUSH2 0x347 JUMP JUMPDEST PUSH1 0x0 DUP2 DUP2 DUP1 JUMPDEST DUP3 MLOAD DUP2 LT ISZERO PUSH2 0x154 JUMPI PUSH1 0x30 DUP4 DUP3 DUP2 MLOAD DUP2 LT PUSH2 0xCC JUMPI PUSH2 0xCC PUSH2 0x66A JUMP JUMPDEST ADD PUSH1 0x20 ADD MLOAD PUSH1 0xF8 SHR LT DUP1 ISZERO SWAP1 PUSH2 0xFC JUMPI POP PUSH1 0x39 DUP4 DUP3 DUP2 MLOAD DUP2 LT PUSH2 0xF1 JUMPI PUSH2 0xF1 PUSH2 0x66A JUMP JUMPDEST ADD PUSH1 0x20 ADD MLOAD PUSH1 0xF8 SHR GT ISZERO JUMPDEST ISZERO PUSH2 0x142 JUMPI PUSH1 0x30 DUP4 DUP3 DUP2 MLOAD DUP2 LT PUSH2 0x115 JUMPI PUSH2 0x115 PUSH2 0x66A JUMP JUMPDEST ADD PUSH1 0x20 ADD MLOAD PUSH2 0x127 SWAP2 SWAP1 PUSH1 0xF8 SHR PUSH2 0x696 JUMP JUMPDEST PUSH1 0xFF AND PUSH2 0x135 DUP4 PUSH1 0xA PUSH2 0x6B5 JUMP JUMPDEST PUSH2 0x13F SWAP2 SWAP1 PUSH2 0x6CC JUMP JUMPDEST SWAP2 POP JUMPDEST DUP1 PUSH2 0x14C DUP2 PUSH2 0x6DF JUMP JUMPDEST SWAP2 POP POP PUSH2 0xAF JUMP JUMPDEST POP SWAP4 SWAP3 POP POP POP JUMP JUMPDEST PUSH1 0x40 DUP1 MLOAD DUP1 DUP3 ADD DUP3 MSTORE PUSH1 0x10 DUP2 MSTORE PUSH16 0x181899199A1A9B1B9C1CB0B131B232B3 PUSH1 0x81 SHL PUSH1 0x20 DUP3 ADD MSTORE DUP2 MLOAD PUSH1 0x2A DUP1 DUP3 MSTORE PUSH1 0x60 DUP3 DUP2 ADD SWAP1 SWAP5 MSTORE PUSH1 0x1 PUSH1 0x1 PUSH1 0xA0 SHL SUB DUP6 AND SWAP3 SWAP2 PUSH1 0x0 SWAP2 PUSH1 0x20 DUP3 ADD DUP2 DUP1 CALLDATASIZE DUP4 CALLDATACOPY ADD SWAP1 POP POP SWAP1 POP PUSH1 0x3 PUSH1 0xFC SHL DUP2 PUSH1 0x0 DUP2 MLOAD DUP2 LT PUSH2 0x1C7 JUMPI PUSH2 0x1C7 PUSH2 0x66A JUMP JUMPDEST PUSH1 0x20 ADD ADD SWAP1 PUSH1 0x1 PUSH1 0x1 PUSH1 0xF8 SHL SUB NOT AND SWAP1 DUP2 PUSH1 0x0 BYTE SWAP1 MSTORE8 POP PUSH1 0xF PUSH1 0xFB SHL DUP2 PUSH1 0x1 DUP2 MLOAD DUP2 LT PUSH2 0x1F6 JUMPI PUSH2 0x1F6 PUSH2 0x66A JUMP JUMPDEST PUSH1 0x20 ADD ADD SWAP1 PUSH1 0x1 PUSH1 0x1 PUSH1 0xF8 SHL SUB NOT AND SWAP1 DUP2 PUSH1 0x0 BYTE SWAP1 MSTORE8 POP PUSH1 0x0 JUMPDEST PUSH1 0x14 DUP2 LT ISZERO PUSH2 0x33E JUMPI DUP3 PUSH1 0x4 DUP6 PUSH2 0x228 DUP5 PUSH1 0xC PUSH2 0x6CC JUMP JUMPDEST PUSH1 0x20 DUP2 LT PUSH2 0x238 JUMPI PUSH2 0x238 PUSH2 0x66A JUMP JUMPDEST BYTE PUSH1 0xF8 SHL PUSH1 0x1 PUSH1 0x1 PUSH1 0xF8 SHL SUB NOT AND SWAP1 SHR PUSH1 0xF8 SHR PUSH1 0xFF AND DUP2 MLOAD DUP2 LT PUSH2 0x25E JUMPI PUSH2 0x25E PUSH2 0x66A JUMP JUMPDEST ADD PUSH1 0x20 ADD MLOAD PUSH1 0x1 PUSH1 0x1 PUSH1 0xF8 SHL SUB NOT AND DUP3 PUSH2 0x279 DUP4 PUSH1 0x2 PUSH2 0x6B5 JUMP JUMPDEST PUSH2 0x284 SWAP1 PUSH1 0x2 PUSH2 0x6CC JUMP JUMPDEST DUP2 MLOAD DUP2 LT PUSH2 0x294 JUMPI PUSH2 0x294 PUSH2 0x66A JUMP JUMPDEST PUSH1 0x20 ADD ADD SWAP1 PUSH1 0x1 PUSH1 0x1 PUSH1 0xF8 SHL SUB NOT AND SWAP1 DUP2 PUSH1 0x0 BYTE SWAP1 MSTORE8 POP DUP3 DUP5 PUSH2 0x2B8 DUP4 PUSH1 0xC PUSH2 0x6CC JUMP JUMPDEST PUSH1 0x20 DUP2 LT PUSH2 0x2C8 JUMPI PUSH2 0x2C8 PUSH2 0x66A JUMP JUMPDEST DUP3 MLOAD SWAP2 SWAP1 BYTE PUSH1 0xF AND SWAP1 DUP2 LT PUSH2 0x2DF JUMPI PUSH2 0x2DF PUSH2 0x66A JUMP JUMPDEST ADD PUSH1 0x20 ADD MLOAD PUSH1 0x1 PUSH1 0x1 PUSH1 0xF8 SHL SUB NOT AND DUP3 PUSH2 0x2FA DUP4 PUSH1 0x2 PUSH2 0x6B5 JUMP JUMPDEST PUSH2 0x305 SWAP1 PUSH1 0x3 PUSH2 0x6CC JUMP JUMPDEST DUP2 MLOAD DUP2 LT PUSH2 0x315 JUMPI PUSH2 0x315 PUSH2 0x66A JUMP JUMPDEST PUSH1 0x20 ADD ADD SWAP1 PUSH1 0x1 PUSH1 0x1 PUSH1 0xF8 SHL SUB NOT AND SWAP1 DUP2 PUSH1 0x0 BYTE SWAP1 MSTORE8 POP DUP1 PUSH2 0x336 DUP2 PUSH2 0x6DF JUMP JUMPDEST SWAP2 POP POP PUSH2 0x210 JUMP JUMPDEST POP SWAP5 SWAP4 POP POP POP POP JUMP JUMPDEST PUSH1 0x40 DUP1 MLOAD DUP1 DUP3 ADD DUP3 MSTORE PUSH1 0x10 DUP2 MSTORE PUSH16 0x181899199A1A9B1B9C1CB0B131B232B3 PUSH1 0x81 SHL PUSH1 0x20 DUP3 ADD MSTORE DUP2 MLOAD PUSH1 0x42 DUP1 DUP3 MSTORE PUSH1 0x80 DUP3 ADD SWAP1 SWAP4 MSTORE PUSH1 0x60 SWAP3 PUSH1 0x0 SWAP2 SWAP1 PUSH1 0x20 DUP3 ADD DUP2 DUP1 CALLDATASIZE DUP4 CALLDATACOPY ADD SWAP1 POP POP SWAP1 POP PUSH1 0x3 PUSH1 0xFC SHL DUP2 PUSH1 0x0 DUP2 MLOAD DUP2 LT PUSH2 0x3A9 JUMPI PUSH2 0x3A9 PUSH2 0x66A JUMP JUMPDEST PUSH1 0x20 ADD ADD SWAP1 PUSH1 0x1 PUSH1 0x1 PUSH1 0xF8 SHL SUB NOT AND SWAP1 DUP2 PUSH1 0x0 BYTE SWAP1 MSTORE8 POP PUSH1 0xF PUSH1 0xFB SHL DUP2 PUSH1 0x1 DUP2 MLOAD DUP2 LT PUSH2 0x3D8 JUMPI PUSH2 0x3D8 PUSH2 0x66A JUMP JUMPDEST PUSH1 0x20 ADD ADD SWAP1 PUSH1 0x1 PUSH1 0x1 PUSH1 0xF8 SHL SUB NOT AND SWAP1 DUP2 PUSH1 0x0 BYTE SWAP1 MSTORE8 POP PUSH1 0x0 JUMPDEST PUSH1 0x20 DUP2 LT ISZERO PUSH2 0x154 JUMPI DUP3 PUSH1 0x4 DUP7 DUP4 PUSH1 0x20 DUP2 LT PUSH2 0x410 JUMPI PUSH2 0x410 PUSH2 0x66A JUMP JUMPDEST BYTE PUSH1 0xF8 SHL PUSH1 0x1 PUSH1 0x1 PUSH1 0xF8 SHL SUB NOT AND SWAP1 SHR PUSH1 0xF8 SHR PUSH1 0xFF AND DUP2 MLOAD DUP2 LT PUSH2 0x436 JUMPI PUSH2 0x436 PUSH2 0x66A JUMP JUMPDEST ADD PUSH1 0x20 ADD MLOAD PUSH1 0x1 PUSH1 0x1 PUSH1 0xF8 SHL SUB NOT AND DUP3 PUSH2 0x451 DUP4 PUSH1 0x2 PUSH2 0x6B5 JUMP JUMPDEST PUSH2 0x45C SWAP1 PUSH1 0x2 PUSH2 0x6CC JUMP JUMPDEST DUP2 MLOAD DUP2 LT PUSH2 0x46C JUMPI PUSH2 0x46C PUSH2 0x66A JUMP JUMPDEST PUSH1 0x20 ADD ADD SWAP1 PUSH1 0x1 PUSH1 0x1 PUSH1 0xF8 SHL SUB NOT AND SWAP1 DUP2 PUSH1 0x0 BYTE SWAP1 MSTORE8 POP DUP3 DUP6 DUP3 PUSH1 0x20 DUP2 LT PUSH2 0x496 JUMPI PUSH2 0x496 PUSH2 0x66A JUMP JUMPDEST DUP3 MLOAD SWAP2 SWAP1 BYTE PUSH1 0xF AND SWAP1 DUP2 LT PUSH2 0x4AD JUMPI PUSH2 0x4AD PUSH2 0x66A JUMP JUMPDEST ADD PUSH1 0x20 ADD MLOAD PUSH1 0x1 PUSH1 0x1 PUSH1 0xF8 SHL SUB NOT AND DUP3 PUSH2 0x4C8 DUP4 PUSH1 0x2 PUSH2 0x6B5 JUMP JUMPDEST PUSH2 0x4D3 SWAP1 PUSH1 0x3 PUSH2 0x6CC JUMP JUMPDEST DUP2 MLOAD DUP2 LT PUSH2 0x4E3 JUMPI PUSH2 0x4E3 PUSH2 0x66A JUMP JUMPDEST PUSH1 0x20 ADD ADD SWAP1 PUSH1 0x1 PUSH1 0x1 PUSH1 0xF8 SHL SUB NOT AND SWAP1 DUP2 PUSH1 0x0 BYTE SWAP1 MSTORE8 POP DUP1 PUSH2 0x504 DUP2 PUSH2 0x6DF JUMP JUMPDEST SWAP2 POP POP PUSH2 0x3F2 JUMP JUMPDEST PUSH4 0x4E487B71 PUSH1 0xE0 SHL PUSH1 0x0 MSTORE PUSH1 0x41 PUSH1 0x4 MSTORE PUSH1 0x24 PUSH1 0x0 REVERT JUMPDEST PUSH1 0x0 PUSH1 0x20 DUP3 DUP5 SUB SLT ISZERO PUSH2 0x534 JUMPI PUSH1 0x0 DUP1 REVERT JUMPDEST DUP2 CALLDATALOAD PUSH8 0xFFFFFFFFFFFFFFFF DUP1 DUP3 GT ISZERO PUSH2 0x54C JUMPI PUSH1 0x0 DUP1 REVERT JUMPDEST DUP2 DUP5 ADD SWAP2 POP DUP5 PUSH1 0x1F DUP4 ADD SLT PUSH2 0x560 JUMPI PUSH1 0x0 DUP1 REVERT JUMPDEST DUP2 CALLDATALOAD DUP2 DUP2 GT ISZERO PUSH2 0x572 JUMPI PUSH2 0x572 PUSH2 0x50C JUMP JUMPDEST PUSH1 0x40 MLOAD PUSH1 0x1F DUP3 ADD PUSH1 0x1F NOT SWAP1 DUP2 AND PUSH1 0x3F ADD AND DUP2 ADD SWAP1 DUP4 DUP3 GT DUP2 DUP4 LT OR ISZERO PUSH2 0x59A JUMPI PUSH2 0x59A PUSH2 0x50C JUMP JUMPDEST DUP2 PUSH1 0x40 MSTORE DUP3 DUP2 MSTORE DUP8 PUSH1 0x20 DUP5 DUP8 ADD ADD GT ISZERO PUSH2 0x5B3 JUMPI PUSH1 0x0 DUP1 REVERT JUMPDEST DUP3 PUSH1 0x20 DUP7 ADD PUSH1 0x20 DUP4 ADD CALLDATACOPY PUSH1 0x0 SWAP3 DUP2 ADD PUSH1 0x20 ADD SWAP3 SWAP1 SWAP3 MSTORE POP SWAP6 SWAP5 POP POP POP POP POP JUMP JUMPDEST PUSH1 0x0 PUSH1 0x20 DUP3 DUP5 SUB SLT ISZERO PUSH2 0x5E5 JUMPI PUSH1 0x0 DUP1 REVERT JUMPDEST DUP2 CALLDATALOAD PUSH1 0x1 PUSH1 0x1 PUSH1 0xA0 SHL SUB DUP2 AND DUP2 EQ PUSH2 0x5FC JUMPI PUSH1 0x0 DUP1 REVERT JUMPDEST SWAP4 SWAP3 POP POP POP JUMP JUMPDEST PUSH1 0x0 PUSH1 0x20 DUP1 DUP4 MSTORE DUP4 MLOAD DUP1 DUP3 DUP6 ADD MSTORE PUSH1 0x0 JUMPDEST DUP2 DUP2 LT ISZERO PUSH2 0x630 JUMPI DUP6 DUP2 ADD DUP4 ADD MLOAD DUP6 DUP3 ADD PUSH1 0x40 ADD MSTORE DUP3 ADD PUSH2 0x614 JUMP JUMPDEST POP PUSH1 0x0 PUSH1 0x40 DUP3 DUP7 ADD ADD MSTORE PUSH1 0x40 PUSH1 0x1F NOT PUSH1 0x1F DUP4 ADD AND DUP6 ADD ADD SWAP3 POP POP POP SWAP3 SWAP2 POP POP JUMP JUMPDEST PUSH1 0x0 PUSH1 0x20 DUP3 DUP5 SUB SLT ISZERO PUSH2 0x663 JUMPI PUSH1 0x0 DUP1 REVERT JUMPDEST POP CALLDATALOAD SWAP2 SWAP1 POP JUMP JUMPDEST PUSH4 0x4E487B71 PUSH1 0xE0 SHL PUSH1 0x0 MSTORE PUSH1 0x32 PUSH1 0x4 MSTORE PUSH1 0x24 PUSH1 0x0 REVERT JUMPDEST PUSH4 0x4E487B71 PUSH1 0xE0 SHL PUSH1 0x0 MSTORE PUSH1 0x11 PUSH1 0x4 MSTORE PUSH1 0x24 PUSH1 0x0 REVERT JUMPDEST PUSH1 0xFF DUP3 DUP2 AND DUP3 DUP3 AND SUB SWAP1 DUP2 GT ISZERO PUSH2 0x6AF JUMPI PUSH2 0x6AF PUSH2 0x680 JUMP JUMPDEST SWAP3 SWAP2 POP POP JUMP JUMPDEST DUP1 DUP3 MUL DUP2 ISZERO DUP3 DUP3 DIV DUP5 EQ OR PUSH2 0x6AF JUMPI PUSH2 0x6AF PUSH2 0x680 JUMP JUMPDEST DUP1 DUP3 ADD DUP1 DUP3 GT ISZERO PUSH2 0x6AF JUMPI PUSH2 0x6AF PUSH2 0x680 JUMP JUMPDEST PUSH1 0x0 PUSH1 0x1 DUP3 ADD PUSH2 0x6F1 JUMPI PUSH2 0x6F1 PUSH2 0x680 JUMP JUMPDEST POP PUSH1 0x1 ADD SWAP1 JUMP INVALID LOG2 PUSH5 0x6970667358 0x22 SLT KECCAK256 DUP6 ADDMOD SELFDESTRUCT CREATE2 0xBE INVALID PUSH7 0x6F276282B1D161 0xD2 0xE9 PUSH22 0x6073AC88D51C61E88CD631D4D6A5A964736F6C634300 ADDMOD GT STOP CALLER "
		},
		"gasEstimates": {
			"creation": {
				"codeDepositCost": "367600",
				"executionCost": "436",
				"totalCost": "368036"
			},
			"external": {
				"addressToString(address)": "infinite",
				"bytes32ToString(bytes32)": "infinite",
				"stringToUint(string)": "infinite"
			},
			"internal": {
				"stringToAddress(string memory)": "infinite",
				"uintToString(uint256)": "infinite"
			}
		},
		"methodIdentifiers": {
			"addressToString(address)": "5e57966d",
			"bytes32ToString(bytes32)": "9201de55",
			"stringToUint(string)": "1bd95155"
		}
	},
	"abi": [
		{
			"inputs": [
				{
					"internalType": "address",
					"name": "_addr",
					"type": "address"
				}
			],
			"name": "addressToString",
			"outputs": [
				{
					"internalType": "string",
					"name": "",
					"type": "string"
				}
			],
			"stateMutability": "pure",
			"type": "function"
		},
		{
			"inputs": [
				{
					"internalType": "bytes32",
					"name": "value",
					"type": "bytes32"
				}
			],
			"name": "bytes32ToString",
			"outputs": [
				{
					"internalType": "string",
					"name": "",
					"type": "string"
				}
			],
			"stateMutability": "pure",
			"type": "function"
		},
		{
			"inputs": [
				{
					"internalType": "string",
					"name": "s",
					"type": "string"
				}
			],
			"name": "stringToUint",
			"outputs": [
				{
					"internalType": "uint256",
					"name": "",
					"type": "uint256"
				}
			],
			"stateMutability": "pure",
			"type": "function"
		}
	]
}