{
	"data": {
		"bytecode": {
			"linkReferences": {
				"contracts/Lib.sol": {
					"ConversionUtil": [
						{
							"length": 20,
							"start": 5996
						},
						{
							"length": 20,
							"start": 7113
						}
					]
				}
			},
			"object": "60806040526207a1206002556188b86003553480156200001e57600080fd5b506040516200310c3803806200310c8339810160408190526200004191620000cf565b6200004c336200007f565b6000805460ff60a01b19169055600180546001600160a01b0319166001600160a01b039290921691909117905562000101565b600080546001600160a01b038381166001600160a01b0319831681178455604051919092169283917f8be0079c531659141344cd1fd0a4f28419497f9722a3daafe3b4186f6b6457e09190a35050565b600060208284031215620000e257600080fd5b81516001600160a01b0381168114620000fa57600080fd5b9392505050565b612ffb80620001116000396000f3fe608060405234801561001057600080fd5b50600436106100a95760003560e01c8063715018a611610071578063715018a6146101135780638456cb591461011b5780638da5cb5b14610123578063e4a7d11b1461013e578063f2fde38b14610151578063f65a5aca1461016457600080fd5b80631ed1ed76146100ae5780632940ff1e146100c35780633f4ba83a146100d6578063452b6abd146100de5780635c975abb146100f1575b600080fd5b6100c16100bc3660046127e8565b610177565b005b6100c16100d13660046127e8565b6101f1565b6100c161062f565b6100c16100ec36600461293e565b610663565b600054600160a01b900460ff1660405190151581526020015b60405180910390f35b6100c1611403565b6100c1611437565b6000546040516001600160a01b03909116815260200161010a565b6100c161014c3660046127e8565b611469565b6100c161015f3660046127a9565b611cc3565b6100c16101723660046127e8565b611d5e565b6000546001600160a01b031633146101aa5760405162461bcd60e51b81526004016101a190612b29565b60405180910390fd5b606481116101ec5760405162461bcd60e51b815260206004820152600f60248201526e5468697320697320746f6f206c6f7760881b60448201526064016101a1565b600355565b600154604051631bf4604f60e11b8152600481018390526000916001600160a01b0316906337e8c09e9060240160006040518083038186803b15801561023657600080fd5b505afa15801561024a573d6000803e3d6000fd5b505050506040513d6000823e601f3d908101601f191682016040526102729190810190612836565b60408101519091506001600160a01b031633146102df5760405162461bcd60e51b815260206004820152602560248201527f43726561746f722063616e6e6f74206f6e6c792063616e63656c207468656972604482015264103132ba1760d91b60648201526084016101a1565b60e081015160ff16156103495760405162461bcd60e51b815260206004820152602c60248201527f43726561746f722063616e6e6f74206f6e6c792063616e63656c206e6f74206160448201526b31b1b2b83a32b2103132ba1760a11b60648201526084016101a1565b610120810180516000909152600560e083015260015461010083015160408051636d7dbb4160e11b815290516001600160a01b0390931692632e716659926103f2929091859163dafb7682916004808301926020929190829003018186803b1580156103b457600080fd5b505afa1580156103c8573d6000803e3d6000fd5b505050506040513d601f19601f820116820180604052508101906103ec9190612925565b90611dcf565b6040518263ffffffff1660e01b815260040161041091815260200190565b600060405180830381600087803b15801561042a57600080fd5b505af115801561043e573d6000803e3d6000fd5b505060015460405163293e239760e11b81526001600160a01b03909116925063527c472e9150610472908590600401612b5e565b602060405180830381600087803b15801561048c57600080fd5b505af11580156104a0573d6000803e3d6000fd5b505050506040513d601f19601f820116820180604052508101906104c491906127c6565b5060a082015160ff16600114156105745760008060006104e78560800151611de2565b5050600154604051633302550f60e11b815261ffff808716600483015280861660248301528416604482015260006064820152608481018c9052949750929550909350506001600160a01b031690636604aa1e9060a401600060405180830381600087803b15801561055857600080fd5b505af115801561056c573d6000803e3d6000fd5b505050505050505b600154604051639e88fd8160e01b8152336004820152602481018390526001600160a01b0390911690639e88fd8190604401602060405180830381600087803b1580156105c057600080fd5b505af11580156105d4573d6000803e3d6000fd5b505050506040513d601f19601f820116820180604052508101906105f891906127c6565b5060208201516040513391907ff0f67a4c8ac0793cea2d284d87d6562b8ede76460a90455711f0aa2c6bd835d890600090a3505050565b6000546001600160a01b031633146106595760405162461bcd60e51b81526004016101a190612b29565b610661611e56565b565b600154604051634dcb776760e11b815233600482015286916001600160a01b031690639b96eece9060240160206040518083038186803b1580156106a657600080fd5b505afa1580156106ba573d6000803e3d6000fd5b505050506040513d601f19601f820116820180604052508101906106de9190612925565b101561073c5760405162461bcd60e51b815260206004820152602760248201527f496e73756666696369656e742062616c616e636520746f20706c61636520746860448201526634b9903132ba1760c91b60648201526084016101a1565b6040516bffffffffffffffffffffffff193360601b166020820152603481018690526054810187905260009060740160408051808303601f19018152908290528051602090910120600154639e88fd8160e01b8352336004840152602483018990529092506001600160a01b031690639e88fd8190604401602060405180830381600087803b1580156107ce57600080fd5b505af11580156107e2573d6000803e3d6000fd5b505050506040513d601f19601f8201168201806040525081019061080691906127c6565b50604080516101408101909152600090808261ffff168152602001838152602001336001600160a01b031681526020018460008151811061084957610849612f75565b602002602001015181526020018781526020018660ff1681526020018560ff1681526020016000600581111561088157610881612f5f565b60ff168152602081018990526040908101899052600154905163293e239760e11b81529192506001600160a01b03169063527c472e906108c5908490600401612b5e565b602060405180830381600087803b1580156108df57600080fd5b505af11580156108f3573d6000803e3d6000fd5b505050506040513d601f19601f8201168201806040525081019061091791906127c6565b506001805460408051808201909152600b81526a57494e5343454e4152494f60a81b602082015285516001600160a01b039092169263203a6bfd928692918891811061096557610965612f75565b60200260200101516040518463ffffffff1660e01b815260040161098b93929190612ae1565b602060405180830381600087803b1580156109a557600080fd5b505af11580156109b9573d6000803e3d6000fd5b505050506040513d601f19601f820116820180604052508101906109dd91906127c6565b5060015460408051808201909152600c81526b4c4f53455343454e4152494f60a01b602082015284516001600160a01b039092169163203a6bfd91859187906002908110610a2d57610a2d612f75565b60200260200101516040518463ffffffff1660e01b8152600401610a5393929190612ae1565b602060405180830381600087803b158015610a6d57600080fd5b505af1158015610a81573d6000803e3d6000fd5b505050506040513d601f19601f82011682018060405250810190610aa591906127c6565b5060015460408051808201909152600e81526d43414e43454c5343454e4152494f60901b602082015284516001600160a01b039092169163203a6bfd91859187906003908110610af757610af7612f75565b60200260200101516040518463ffffffff1660e01b8152600401610b1d93929190612ae1565b602060405180830381600087803b158015610b3757600080fd5b505af1158015610b4b573d6000803e3d6000fd5b505050506040513d601f19601f82011682018060405250810190610b6f91906127c6565b5060015460408051808201909152601081526f1091551051d0525394d5105353d5539560821b602082015284516001600160a01b039092169163203a6bfd91859187906005908110610bc357610bc3612f75565b60200260200101516040518463ffffffff1660e01b8152600401610be993929190612ae1565b602060405180830381600087803b158015610c0357600080fd5b505af1158015610c17573d6000803e3d6000fd5b505050506040513d601f19601f82011682018060405250810190610c3b91906127c6565b506001546040828101516020840151915163b5fa4af760e01b81526001600160a01b03918216600482015260248101929092529091169063b5fa4af790604401600060405180830381600087803b158015610c9557600080fd5b505af1158015610ca9573d6000803e3d6000fd5b505060015460408051636d7dbb4160e11b815290516001600160a01b039092169350632e7166599250610d3e918b91859163dafb768291600480820192602092909190829003018186803b158015610d0057600080fd5b505afa158015610d14573d6000803e3d6000fd5b505050506040513d601f19601f82011682018060405250810190610d389190612925565b90611ef3565b6040518263ffffffff1660e01b8152600401610d5c91815260200190565b600060405180830381600087803b158015610d7657600080fd5b505af1158015610d8a573d6000803e3d6000fd5b5060009250610d97915050565b60ff168460ff1614156110a35760015460408051808201909152600a81526920a92124aa2920aa27a960b11b602082015284516001600160a01b039092169163203a6bfd91859187906006908110610df157610df1612f75565b60200260200101516040518463ffffffff1660e01b8152600401610e1793929190612ae1565b602060405180830381600087803b158015610e3157600080fd5b505af1158015610e45573d6000803e3d6000fd5b505050506040513d601f19601f82011682018060405250810190610e6991906127c6565b5060015460408051808201909152600e81526d41524249545241544f524e414d4560901b602082015284516001600160a01b039092169163203a6bfd91859187906004908110610ebb57610ebb612f75565b60200260200101516040518463ffffffff1660e01b8152600401610ee193929190612ae1565b602060405180830381600087803b158015610efb57600080fd5b505af1158015610f0f573d6000803e3d6000fd5b505050506040513d601f19601f82011682018060405250810190610f3391906127c6565b5060015460408051808201909152601481527320a92124aa2920aa27a921a7a6a6a4a9a9a4a7a760611b602082015284516001600160a01b039092169163203a6bfd91859187906007908110610f8b57610f8b612f75565b60200260200101516040518463ffffffff1660e01b8152600401610fb193929190612ae1565b602060405180830381600087803b158015610fcb57600080fd5b505af1158015610fdf573d6000803e3d6000fd5b505050506040513d601f19601f8201168201806040525081019061100391906127c6565b5060015483516001600160a01b039091169063b5fa4af79061103f908690600690811061103257611032612f75565b6020026020010151611eff565b60208401516040516001600160e01b031960e085901b1681526001600160a01b0390921660048301526024820152604401600060405180830381600087803b15801561108a57600080fd5b505af115801561109e573d6000803e3d6000fd5b505050505b60ff8516600114156113b1576110b76120ec565b6111885760006110c56121f6565b60015460408051808201909152601481527320a92124aa2920aa27a921a7a6a6a4a9a9a4a7a760611b60208201529192506001600160a01b03169063203a6bfd9085906111118561239b565b6040518463ffffffff1660e01b815260040161112f93929190612ae1565b602060405180830381600087803b15801561114957600080fd5b505af115801561115d573d6000803e3d6000fd5b505050506040513d601f19601f8201168201806040525081019061118191906127c6565b5050611248565b60015460408051808201909152601481527320a92124aa2920aa27a921a7a6a6a4a9a9a4a7a760611b60208201526003546001600160a01b039092169163203a6bfd9185916111d69061239b565b6040518463ffffffff1660e01b81526004016111f493929190612ae1565b602060405180830381600087803b15801561120e57600080fd5b505af1158015611222573d6000803e3d6000fd5b505050506040513d601f19601f8201168201806040525081019061124691906127c6565b505b60015460408051808201909152601481527314d51052d154115490d15395149154555254915160621b60208201526002546001600160a01b039092169163203a6bfd9185916112969061239b565b6040518463ffffffff1660e01b81526004016112b493929190612ae1565b602060405180830381600087803b1580156112ce57600080fd5b505af11580156112e2573d6000803e3d6000fd5b505050506040513d601f19601f8201168201806040525081019061130691906127c6565b5060008060006113198460800151611de2565b50506001805460405163d9f8c20f60e01b815261ffff808816600483015280871660248301528516604482015260006064820152608481018c905260a4810192909252949750929550909350506001600160a01b039091169063d9f8c20f9060c401600060405180830381600087803b15801561139557600080fd5b505af11580156113a9573d6000803e3d6000fd5b505050505050505b336001600160a01b03168560ff16837f012561c0d87585938ef0f97d752154489c4d57935bcff732c5a8444d9e6ade968a6040516113f191815260200190565b60405180910390a45050505050505050565b6000546001600160a01b0316331461142d5760405162461bcd60e51b81526004016101a190612b29565b61066160006124c4565b6000546001600160a01b031633146114615760405162461bcd60e51b81526004016101a190612b29565b610661612514565b600154604051631bf4604f60e11b8152600481018390526000916001600160a01b0316906337e8c09e9060240160006040518083038186803b1580156114ae57600080fd5b505afa1580156114c2573d6000803e3d6000fd5b505050506040513d6000823e601f3d908101601f191682016040526114ea9190810190612836565b60e081015190915060ff161561154e5760405162461bcd60e51b815260206004820152602360248201527f5374617475732073686f756c6420626520696e206372656174656420737461746044820152623ab99760e91b60648201526084016101a1565b60408101516001600160a01b03163314156115b75760405162461bcd60e51b8152602060048201526024808201527f43726561746f722063616e6e6f7420616363657074207468656972206f776e206044820152633132ba1760e11b60648201526084016101a1565b806080015142106116215760405162461bcd60e51b815260206004820152602e60248201527f4576656e742074696d65206861732070617373656420746875732063616e6e6f60448201526d3a1031329030b1b1b2b83a32b21760911b60648201526084016101a1565b600154604080518082018252601081526f1091551051d0525394d5105353d5539560821b602082015290516322ad378f60e21b815260009273__$acd136b36b4fe61d8edff89239067e5de1$__92631bd95155926001600160a01b0390921691638ab4de3c9161169691899190600401612ac8565b60006040518083038186803b1580156116ae57600080fd5b505afa1580156116c2573d6000803e3d6000fd5b505050506040513d6000823e601f3d908101601f191682016040526116ea9190810190612801565b6040518263ffffffff1660e01b81526004016117069190612b16565b60206040518083038186803b15801561171e57600080fd5b505af4158015611732573d6000803e3d6000fd5b505050506040513d601f19601f820116820180604052508101906117569190612925565b600154604051634dcb776760e11b815233600482015291925082916001600160a01b0390911690639b96eece9060240160206040518083038186803b15801561179e57600080fd5b505afa1580156117b2573d6000803e3d6000fd5b505050506040513d601f19601f820116820180604052508101906117d69190612925565b10156118355760405162461bcd60e51b815260206004820152602860248201527f496e73756666696369656e742062616c616e636520746f2061636365707420746044820152673434b9903132ba1760c11b60648201526084016101a1565b6101208201516000906118489083611ef3565b600154604051639e88fd8160e01b8152336004820152602481018590529192506001600160a01b031690639e88fd8190604401602060405180830381600087803b15801561189557600080fd5b505af11580156118a9573d6000803e3d6000fd5b505050506040513d601f19601f820116820180604052508101906118cd91906127c6565b50610120830181905260208301516040513391907fba6fb042f08d319f9c2dc1a50c1fdf93db5ecb56590ed5d2ee87c2933d12947290600090a3600260e0840152602080840151608085015160405190815290917f753d21093098ac8652616bb7075372e7b26e940ae47204d3226b698bd5efa4a9910160405180910390a260015460408051636d7dbb4160e11b815290516001600160a01b0390921691632e7166599161199f918691859163dafb768291600480820192602092909190829003018186803b158015610d0057600080fd5b6040518263ffffffff1660e01b81526004016119bd91815260200190565b600060405180830381600087803b1580156119d757600080fd5b505af11580156119eb573d6000803e3d6000fd5b505060015460405163293e239760e11b81526001600160a01b03909116925063527c472e9150611a1f908690600401612b5e565b602060405180830381600087803b158015611a3957600080fd5b505af1158015611a4d573d6000803e3d6000fd5b505050506040513d601f19601f82011682018060405250810190611a7191906127c6565b506001546040805180820182526005815264424554454560d81b60208201529051635e57966d60e01b81523360048201526001600160a01b039092169163203a6bfd91879173__$acd136b36b4fe61d8edff89239067e5de1$__90635e57966d9060240160006040518083038186803b158015611aed57600080fd5b505af4158015611b01573d6000803e3d6000fd5b505050506040513d6000823e601f3d908101601f19168201604052611b299190810190612801565b6040518463ffffffff1660e01b8152600401611b4793929190612ae1565b602060405180830381600087803b158015611b6157600080fd5b505af1158015611b75573d6000803e3d6000fd5b505050506040513d601f19601f82011682018060405250810190611b9991906127c6565b50600154602084015160405163b5fa4af760e01b815233600482015260248101919091526001600160a01b039091169063b5fa4af790604401600060405180830381600087803b158015611bec57600080fd5b505af1158015611c00573d6000803e3d6000fd5b5060019250611c0d915050565b60ff168360a0015160ff161415611cbd576000806000611c308660800151611de2565b5050600154604051633302550f60e11b815261ffff808716600483015280861660248301528416604482015260006064820152608481018d9052949750929550909350506001600160a01b031690636604aa1e9060a401600060405180830381600087803b158015611ca157600080fd5b505af1158015611cb5573d6000803e3d6000fd5b505050505050505b50505050565b6000546001600160a01b03163314611ced5760405162461bcd60e51b81526004016101a190612b29565b6001600160a01b038116611d525760405162461bcd60e51b815260206004820152602660248201527f4f776e61626c653a206e6577206f776e657220697320746865207a65726f206160448201526564647265737360d01b60648201526084016101a1565b611d5b816124c4565b50565b6000546001600160a01b03163314611d885760405162461bcd60e51b81526004016101a190612b29565b60648111611dca5760405162461bcd60e51b815260206004820152600f60248201526e5468697320697320746f6f206c6f7760881b60448201526064016101a1565b600255565b6000611ddb8284612ec1565b9392505050565b60008080808080611dfe611df96201518089612d73565b61259c565b919750955093506000611e146201518089612f1f565b9050611e22610e1082612d73565b9350611e30610e1082612f1f565b9050611e3d603c82612d73565b9250611e4a603c82612f1f565b91505091939550919395565b600054600160a01b900460ff16611ea65760405162461bcd60e51b815260206004820152601460248201527314185d5cd8589b194e881b9bdd081c185d5cd95960621b60448201526064016101a1565b6000805460ff60a01b191690557f5db9ee0a495bf2e6ff9c91a7834c1ba4fdd244a5e8aa4e537bd38aeae4b073aa335b6040516001600160a01b03909116815260200160405180910390a1565b6000611ddb8284612d08565b60008181808060025b602a8110156120e157611f1d61010085612e0c565b9350848181518110611f3157611f31612f75565b016020015160f81c925084611f47826001612d08565b81518110611f5757611f57612f75565b016020015160f81c915060616001600160a01b03841610801590611f8557506066836001600160a01b031611155b15611f9c57611f95605784612e99565b9250612007565b6041836001600160a01b031610158015611fc057506046836001600160a01b031611155b15611fd057611f95603784612e99565b6030836001600160a01b031610158015611ff457506039836001600160a01b031611155b1561200757612004603084612e99565b92505b6061826001600160a01b03161015801561202b57506066826001600160a01b031611155b156120425761203b605783612e99565b91506120ad565b6041826001600160a01b03161015801561206657506046826001600160a01b031611155b156120765761203b603783612e99565b6030826001600160a01b03161015801561209a57506039826001600160a01b031611155b156120ad576120aa603083612e99565b91505b816120b9846010612e0c565b6120c39190612cdd565b6120cd9085612cdd565b93506120da600282612d08565b9050611f08565b509195945050505050565b600154604080516320dfeefb60e21b815290516000926001600160a01b03169163837fbbec916004808301926020929190829003018186803b15801561213157600080fd5b505afa158015612145573d6000803e3d6000fd5b505050506040513d601f19601f820116820180604052508101906121699190612925565b600160009054906101000a90046001600160a01b03166001600160a01b03166315a54a646040518163ffffffff1660e01b815260040160206040518083038186803b1580156121b757600080fd5b505afa1580156121cb573d6000803e3d6000fd5b505050506040513d601f19601f820116820180604052508101906121ef9190612925565b1015905090565b600080600160009054906101000a90046001600160a01b03166001600160a01b031663dafb76826040518163ffffffff1660e01b815260040160206040518083038186803b15801561224757600080fd5b505afa15801561225b573d6000803e3d6000fd5b505050506040513d601f19601f8201168201806040525081019061227f9190612925565b905061228c612710612710565b81101561229e576359682f0091505090565b6122aa620186a0612710565b8110156122bc57631bb7564091505090565b6122c8620f4240612710565b8110156122da576308978df091505090565b6122e662989680612710565b8110156122f8576302a9dab091505090565b6123056305f5e100612710565b8110156123165762d35d6091505090565b612323633b9aca00612710565b811015612334576241857091505090565b6123426402540be400612710565b8110156123535762144f3891505090565b61236164174876e800612710565b811015612372576206496091505090565b61238064e8d4a51000612710565b811015612391576201f01891505090565b620186a091505090565b6060816123bf5750506040805180820190915260018152600360fc1b602082015290565b8160005b81156123e957806123d381612f04565b91506123e29050600a83612d73565b91506123c3565b60008167ffffffffffffffff81111561240457612404612f8b565b6040519080825280601f01601f19166020018201604052801561242e576020820181803683370190505b509050815b85156124bb57612444600182612ec1565b90506000612453600a88612d73565b61245e90600a612e3b565b6124689088612ec1565b612473906030612d20565b905060008160f81b90508084848151811061249057612490612f75565b60200101906001600160f81b031916908160001a9053506124b2600a89612d73565b97505050612433565b50949350505050565b600080546001600160a01b038381166001600160a01b0319831681178455604051919092169283917f8be0079c531659141344cd1fd0a4f28419497f9722a3daafe3b4186f6b6457e09190a35050565b600054600160a01b900460ff16156125615760405162461bcd60e51b815260206004820152601060248201526f14185d5cd8589b194e881c185d5cd95960821b60448201526064016101a1565b6000805460ff60a01b1916600160a01b1790557f62e78cea01bee320cd4e420270b5ea74000d11b0c9f74754ebdbfc544b05a258611ed63390565b60008080838162253d8c6125b38362010bd9612c9c565b6125bd9190612c9c565b9050600062023ab16125d0836004612d87565b6125da9190612d45565b905060046125eb8262023ab1612d87565b6125f6906003612c9c565b6126009190612d45565b61260a9083612e5a565b9150600062164b0961261d846001612c9c565b61262990610fa0612d87565b6126339190612d45565b90506004612643826105b5612d87565b61264d9190612d45565b6126579084612e5a565b61266290601f612c9c565b9250600061098f612674856050612d87565b61267e9190612d45565b9050600060506126908361098f612d87565b61269a9190612d45565b6126a49086612e5a565b90506126b1600b83612d45565b94506126be85600c612d87565b6126c9836002612c9c565b6126d39190612e5a565b915084836126e2603187612e5a565b6126ed906064612d87565b6126f79190612c9c565b6127019190612c9c565b9a919950975095505050505050565b600061272482670de0b6b3a7640000612e3b565b92915050565b805161273581612fa1565b919050565b600082601f83011261274b57600080fd5b815161275e61275982612c74565b612c43565b81815284602083860101111561277357600080fd5b612784826020830160208701612ed8565b949350505050565b805161ffff8116811461273557600080fd5b805161273581612fb6565b6000602082840312156127bb57600080fd5b8135611ddb81612fa1565b6000602082840312156127d857600080fd5b81518015158114611ddb57600080fd5b6000602082840312156127fa57600080fd5b5035919050565b60006020828403121561281357600080fd5b815167ffffffffffffffff81111561282a57600080fd5b6127848482850161273a565b60006020828403121561284857600080fd5b815167ffffffffffffffff8082111561286057600080fd5b90830190610140828603121561287557600080fd5b61287d612c19565b6128868361278c565b81526020830151602082015261289e6040840161272a565b60408201526060830151828111156128b557600080fd5b6128c18782860161273a565b606083015250608083015160808201526128dd60a0840161279e565b60a08201526128ee60c0840161279e565b60c08201526128ff60e0840161279e565b60e082015261010083810151908201526101209283015192810192909252509392505050565b60006020828403121561293757600080fd5b5051919050565b60008060008060008060c0878903121561295757600080fd5b8635955060208701359450604087013593506129766060880135612fb6565b6060870135925061298a6080880135612fb6565b6080870135915067ffffffffffffffff8060a089013511156129ab57600080fd5b60a0880135880189601f8201126129c157600080fd5b81813511156129d2576129d2612f8b565b6129e26020823560051b01612c43565b8082358252602082019150602083018c6020853560051b8601011115612a0757600080fd5b60005b8435811015612a89578582351115612a2157600080fd5b8d603f833587010112612a3357600080fd5b6020823586010135612a4761275982612c74565b8181528f60408386358a0101011115612a5f57600080fd5b81604085358901016020830137600060209282018301528552938401939190910190600101612a0a565b5050809450505050509295509295509295565b60008151808452612ab4816020860160208601612ed8565b601f01601f19169290920160200192915050565b8281526040602082015260006127846040830184612a9c565b838152606060208201526000612afa6060830185612a9c565b8281036040840152612b0c8185612a9c565b9695505050505050565b602081526000611ddb6020830184612a9c565b6020808252818101527f4f776e61626c653a2063616c6c6572206973206e6f7420746865206f776e6572604082015260600190565b60208152612b7360208201835161ffff169052565b6020820151604082015260006040830151612b9960608401826001600160a01b03169052565b506060830151610140806080850152612bb6610160850183612a9c565b9150608085015160a085015260a0850151612bd660c086018260ff169052565b5060c085015160ff811660e08601525060e0850151610100612bfc8187018360ff169052565b860151610120868101919091529095015193019290925250919050565b604051610140810167ffffffffffffffff81118282101715612c3d57612c3d612f8b565b60405290565b604051601f8201601f1916810167ffffffffffffffff81118282101715612c6c57612c6c612f8b565b604052919050565b600067ffffffffffffffff821115612c8e57612c8e612f8b565b50601f01601f191660200190565b600080821280156001600160ff1b0384900385131615612cbe57612cbe612f33565b600160ff1b8390038412811615612cd757612cd7612f33565b50500190565b60006001600160a01b03828116848216808303821115612cff57612cff612f33565b01949350505050565b60008219821115612d1b57612d1b612f33565b500190565b600060ff821660ff84168060ff03821115612d3d57612d3d612f33565b019392505050565b600082612d5457612d54612f49565b600160ff1b821460001984141615612d6e57612d6e612f33565b500590565b600082612d8257612d82612f49565b500490565b60006001600160ff1b0381841382841380821686840486111615612dad57612dad612f33565b600160ff1b6000871282811687830589121615612dcc57612dcc612f33565b60008712925087820587128484161615612de857612de8612f33565b87850587128184161615612dfe57612dfe612f33565b505050929093029392505050565b60006001600160a01b0382811684821681151582840482111615612e3257612e32612f33565b02949350505050565b6000816000190483118215151615612e5557612e55612f33565b500290565b60008083128015600160ff1b850184121615612e7857612e78612f33565b6001600160ff1b0384018313811615612e9357612e93612f33565b50500390565b60006001600160a01b0383811690831681811015612eb957612eb9612f33565b039392505050565b600082821015612ed357612ed3612f33565b500390565b60005b83811015612ef3578181015183820152602001612edb565b83811115611cbd5750506000910152565b6000600019821415612f1857612f18612f33565b5060010190565b600082612f2e57612f2e612f49565b500690565b634e487b7160e01b600052601160045260246000fd5b634e487b7160e01b600052601260045260246000fd5b634e487b7160e01b600052602160045260246000fd5b634e487b7160e01b600052603260045260246000fd5b634e487b7160e01b600052604160045260246000fd5b6001600160a01b0381168114611d5b57600080fd5b60ff81168114611d5b57600080fdfea26469706673582212200a469bfa60f15cac95241595a388b0746dbebbe9995314bb852d77f5be4a37ed64736f6c63430008070033",
			"opcodes": "PUSH1 0x80 PUSH1 0x40 MSTORE PUSH3 0x7A120 PUSH1 0x2 SSTORE PUSH2 0x88B8 PUSH1 0x3 SSTORE CALLVALUE DUP1 ISZERO PUSH3 0x1E JUMPI PUSH1 0x0 DUP1 REVERT JUMPDEST POP PUSH1 0x40 MLOAD PUSH3 0x310C CODESIZE SUB DUP1 PUSH3 0x310C DUP4 CODECOPY DUP2 ADD PUSH1 0x40 DUP2 SWAP1 MSTORE PUSH3 0x41 SWAP2 PUSH3 0xCF JUMP JUMPDEST PUSH3 0x4C CALLER PUSH3 0x7F JUMP JUMPDEST PUSH1 0x0 DUP1 SLOAD PUSH1 0xFF PUSH1 0xA0 SHL NOT AND SWAP1 SSTORE PUSH1 0x1 DUP1 SLOAD PUSH1 0x1 PUSH1 0x1 PUSH1 0xA0 SHL SUB NOT AND PUSH1 0x1 PUSH1 0x1 PUSH1 0xA0 SHL SUB SWAP3 SWAP1 SWAP3 AND SWAP2 SWAP1 SWAP2 OR SWAP1 SSTORE PUSH3 0x101 JUMP JUMPDEST PUSH1 0x0 DUP1 SLOAD PUSH1 0x1 PUSH1 0x1 PUSH1 0xA0 SHL SUB DUP4 DUP2 AND PUSH1 0x1 PUSH1 0x1 PUSH1 0xA0 SHL SUB NOT DUP4 AND DUP2 OR DUP5 SSTORE PUSH1 0x40 MLOAD SWAP2 SWAP1 SWAP3 AND SWAP3 DUP4 SWAP2 PUSH32 0x8BE0079C531659141344CD1FD0A4F28419497F9722A3DAAFE3B4186F6B6457E0 SWAP2 SWAP1 LOG3 POP POP JUMP JUMPDEST PUSH1 0x0 PUSH1 0x20 DUP3 DUP5 SUB SLT ISZERO PUSH3 0xE2 JUMPI PUSH1 0x0 DUP1 REVERT JUMPDEST DUP2 MLOAD PUSH1 0x1 PUSH1 0x1 PUSH1 0xA0 SHL SUB DUP2 AND DUP2 EQ PUSH3 0xFA JUMPI PUSH1 0x0 DUP1 REVERT JUMPDEST SWAP4 SWAP3 POP POP POP JUMP JUMPDEST PUSH2 0x2FFB DUP1 PUSH3 0x111 PUSH1 0x0 CODECOPY PUSH1 0x0 RETURN INVALID PUSH1 0x80 PUSH1 0x40 MSTORE CALLVALUE DUP1 ISZERO PUSH2 0x10 JUMPI PUSH1 0x0 DUP1 REVERT JUMPDEST POP PUSH1 0x4 CALLDATASIZE LT PUSH2 0xA9 JUMPI PUSH1 0x0 CALLDATALOAD PUSH1 0xE0 SHR DUP1 PUSH4 0x715018A6 GT PUSH2 0x71 JUMPI DUP1 PUSH4 0x715018A6 EQ PUSH2 0x113 JUMPI DUP1 PUSH4 0x8456CB59 EQ PUSH2 0x11B JUMPI DUP1 PUSH4 0x8DA5CB5B EQ PUSH2 0x123 JUMPI DUP1 PUSH4 0xE4A7D11B EQ PUSH2 0x13E JUMPI DUP1 PUSH4 0xF2FDE38B EQ PUSH2 0x151 JUMPI DUP1 PUSH4 0xF65A5ACA EQ PUSH2 0x164 JUMPI PUSH1 0x0 DUP1 REVERT JUMPDEST DUP1 PUSH4 0x1ED1ED76 EQ PUSH2 0xAE JUMPI DUP1 PUSH4 0x2940FF1E EQ PUSH2 0xC3 JUMPI DUP1 PUSH4 0x3F4BA83A EQ PUSH2 0xD6 JUMPI DUP1 PUSH4 0x452B6ABD EQ PUSH2 0xDE JUMPI DUP1 PUSH4 0x5C975ABB EQ PUSH2 0xF1 JUMPI JUMPDEST PUSH1 0x0 DUP1 REVERT JUMPDEST PUSH2 0xC1 PUSH2 0xBC CALLDATASIZE PUSH1 0x4 PUSH2 0x27E8 JUMP JUMPDEST PUSH2 0x177 JUMP JUMPDEST STOP JUMPDEST PUSH2 0xC1 PUSH2 0xD1 CALLDATASIZE PUSH1 0x4 PUSH2 0x27E8 JUMP JUMPDEST PUSH2 0x1F1 JUMP JUMPDEST PUSH2 0xC1 PUSH2 0x62F JUMP JUMPDEST PUSH2 0xC1 PUSH2 0xEC CALLDATASIZE PUSH1 0x4 PUSH2 0x293E JUMP JUMPDEST PUSH2 0x663 JUMP JUMPDEST PUSH1 0x0 SLOAD PUSH1 0x1 PUSH1 0xA0 SHL SWAP1 DIV PUSH1 0xFF AND PUSH1 0x40 MLOAD SWAP1 ISZERO ISZERO DUP2 MSTORE PUSH1 0x20 ADD JUMPDEST PUSH1 0x40 MLOAD DUP1 SWAP2 SUB SWAP1 RETURN JUMPDEST PUSH2 0xC1 PUSH2 0x1403 JUMP JUMPDEST PUSH2 0xC1 PUSH2 0x1437 JUMP JUMPDEST PUSH1 0x0 SLOAD PUSH1 0x40 MLOAD PUSH1 0x1 PUSH1 0x1 PUSH1 0xA0 SHL SUB SWAP1 SWAP2 AND DUP2 MSTORE PUSH1 0x20 ADD PUSH2 0x10A JUMP JUMPDEST PUSH2 0xC1 PUSH2 0x14C CALLDATASIZE PUSH1 0x4 PUSH2 0x27E8 JUMP JUMPDEST PUSH2 0x1469 JUMP JUMPDEST PUSH2 0xC1 PUSH2 0x15F CALLDATASIZE PUSH1 0x4 PUSH2 0x27A9 JUMP JUMPDEST PUSH2 0x1CC3 JUMP JUMPDEST PUSH2 0xC1 PUSH2 0x172 CALLDATASIZE PUSH1 0x4 PUSH2 0x27E8 JUMP JUMPDEST PUSH2 0x1D5E JUMP JUMPDEST PUSH1 0x0 SLOAD PUSH1 0x1 PUSH1 0x1 PUSH1 0xA0 SHL SUB AND CALLER EQ PUSH2 0x1AA JUMPI PUSH1 0x40 MLOAD PUSH3 0x461BCD PUSH1 0xE5 SHL DUP2 MSTORE PUSH1 0x4 ADD PUSH2 0x1A1 SWAP1 PUSH2 0x2B29 JUMP JUMPDEST PUSH1 0x40 MLOAD DUP1 SWAP2 SUB SWAP1 REVERT JUMPDEST PUSH1 0x64 DUP2 GT PUSH2 0x1EC JUMPI PUSH1 0x40 MLOAD PUSH3 0x461BCD PUSH1 0xE5 SHL DUP2 MSTORE PUSH1 0x20 PUSH1 0x4 DUP3 ADD MSTORE PUSH1 0xF PUSH1 0x24 DUP3 ADD MSTORE PUSH15 0x5468697320697320746F6F206C6F77 PUSH1 0x88 SHL PUSH1 0x44 DUP3 ADD MSTORE PUSH1 0x64 ADD PUSH2 0x1A1 JUMP JUMPDEST PUSH1 0x3 SSTORE JUMP JUMPDEST PUSH1 0x1 SLOAD PUSH1 0x40 MLOAD PUSH4 0x1BF4604F PUSH1 0xE1 SHL DUP2 MSTORE PUSH1 0x4 DUP2 ADD DUP4 SWAP1 MSTORE PUSH1 0x0 SWAP2 PUSH1 0x1 PUSH1 0x1 PUSH1 0xA0 SHL SUB AND SWAP1 PUSH4 0x37E8C09E SWAP1 PUSH1 0x24 ADD PUSH1 0x0 PUSH1 0x40 MLOAD DUP1 DUP4 SUB DUP2 DUP7 DUP1 EXTCODESIZE ISZERO DUP1 ISZERO PUSH2 0x236 JUMPI PUSH1 0x0 DUP1 REVERT JUMPDEST POP GAS STATICCALL ISZERO DUP1 ISZERO PUSH2 0x24A JUMPI RETURNDATASIZE PUSH1 0x0 DUP1 RETURNDATACOPY RETURNDATASIZE PUSH1 0x0 REVERT JUMPDEST POP POP POP POP PUSH1 0x40 MLOAD RETURNDATASIZE PUSH1 0x0 DUP3 RETURNDATACOPY PUSH1 0x1F RETURNDATASIZE SWAP1 DUP2 ADD PUSH1 0x1F NOT AND DUP3 ADD PUSH1 0x40 MSTORE PUSH2 0x272 SWAP2 SWAP1 DUP2 ADD SWAP1 PUSH2 0x2836 JUMP JUMPDEST PUSH1 0x40 DUP2 ADD MLOAD SWAP1 SWAP2 POP PUSH1 0x1 PUSH1 0x1 PUSH1 0xA0 SHL SUB AND CALLER EQ PUSH2 0x2DF JUMPI PUSH1 0x40 MLOAD PUSH3 0x461BCD PUSH1 0xE5 SHL DUP2 MSTORE PUSH1 0x20 PUSH1 0x4 DUP3 ADD MSTORE PUSH1 0x25 PUSH1 0x24 DUP3 ADD MSTORE PUSH32 0x43726561746F722063616E6E6F74206F6E6C792063616E63656C207468656972 PUSH1 0x44 DUP3 ADD MSTORE PUSH5 0x103132BA17 PUSH1 0xD9 SHL PUSH1 0x64 DUP3 ADD MSTORE PUSH1 0x84 ADD PUSH2 0x1A1 JUMP JUMPDEST PUSH1 0xE0 DUP2 ADD MLOAD PUSH1 0xFF AND ISZERO PUSH2 0x349 JUMPI PUSH1 0x40 MLOAD PUSH3 0x461BCD PUSH1 0xE5 SHL DUP2 MSTORE PUSH1 0x20 PUSH1 0x4 DUP3 ADD MSTORE PUSH1 0x2C PUSH1 0x24 DUP3 ADD MSTORE PUSH32 0x43726561746F722063616E6E6F74206F6E6C792063616E63656C206E6F742061 PUSH1 0x44 DUP3 ADD MSTORE PUSH12 0x31B1B2B83A32B2103132BA17 PUSH1 0xA1 SHL PUSH1 0x64 DUP3 ADD MSTORE PUSH1 0x84 ADD PUSH2 0x1A1 JUMP JUMPDEST PUSH2 0x120 DUP2 ADD DUP1 MLOAD PUSH1 0x0 SWAP1 SWAP2 MSTORE PUSH1 0x5 PUSH1 0xE0 DUP4 ADD MSTORE PUSH1 0x1 SLOAD PUSH2 0x100 DUP4 ADD MLOAD PUSH1 0x40 DUP1 MLOAD PUSH4 0x6D7DBB41 PUSH1 0xE1 SHL DUP2 MSTORE SWAP1 MLOAD PUSH1 0x1 PUSH1 0x1 PUSH1 0xA0 SHL SUB SWAP1 SWAP4 AND SWAP3 PUSH4 0x2E716659 SWAP3 PUSH2 0x3F2 SWAP3 SWAP1 SWAP2 DUP6 SWAP2 PUSH4 0xDAFB7682 SWAP2 PUSH1 0x4 DUP1 DUP4 ADD SWAP3 PUSH1 0x20 SWAP3 SWAP2 SWAP1 DUP3 SWAP1 SUB ADD DUP2 DUP7 DUP1 EXTCODESIZE ISZERO DUP1 ISZERO PUSH2 0x3B4 JUMPI PUSH1 0x0 DUP1 REVERT JUMPDEST POP GAS STATICCALL ISZERO DUP1 ISZERO PUSH2 0x3C8 JUMPI RETURNDATASIZE PUSH1 0x0 DUP1 RETURNDATACOPY RETURNDATASIZE PUSH1 0x0 REVERT JUMPDEST POP POP POP POP PUSH1 0x40 MLOAD RETURNDATASIZE PUSH1 0x1F NOT PUSH1 0x1F DUP3 ADD AND DUP3 ADD DUP1 PUSH1 0x40 MSTORE POP DUP2 ADD SWAP1 PUSH2 0x3EC SWAP2 SWAP1 PUSH2 0x2925 JUMP JUMPDEST SWAP1 PUSH2 0x1DCF JUMP JUMPDEST PUSH1 0x40 MLOAD DUP3 PUSH4 0xFFFFFFFF AND PUSH1 0xE0 SHL DUP2 MSTORE PUSH1 0x4 ADD PUSH2 0x410 SWAP2 DUP2 MSTORE PUSH1 0x20 ADD SWAP1 JUMP JUMPDEST PUSH1 0x0 PUSH1 0x40 MLOAD DUP1 DUP4 SUB DUP2 PUSH1 0x0 DUP8 DUP1 EXTCODESIZE ISZERO DUP1 ISZERO PUSH2 0x42A JUMPI PUSH1 0x0 DUP1 REVERT JUMPDEST POP GAS CALL ISZERO DUP1 ISZERO PUSH2 0x43E JUMPI RETURNDATASIZE PUSH1 0x0 DUP1 RETURNDATACOPY RETURNDATASIZE PUSH1 0x0 REVERT JUMPDEST POP POP PUSH1 0x1 SLOAD PUSH1 0x40 MLOAD PUSH4 0x293E2397 PUSH1 0xE1 SHL DUP2 MSTORE PUSH1 0x1 PUSH1 0x1 PUSH1 0xA0 SHL SUB SWAP1 SWAP2 AND SWAP3 POP PUSH4 0x527C472E SWAP2 POP PUSH2 0x472 SWAP1 DUP6 SWAP1 PUSH1 0x4 ADD PUSH2 0x2B5E JUMP JUMPDEST PUSH1 0x20 PUSH1 0x40 MLOAD DUP1 DUP4 SUB DUP2 PUSH1 0x0 DUP8 DUP1 EXTCODESIZE ISZERO DUP1 ISZERO PUSH2 0x48C JUMPI PUSH1 0x0 DUP1 REVERT JUMPDEST POP GAS CALL ISZERO DUP1 ISZERO PUSH2 0x4A0 JUMPI RETURNDATASIZE PUSH1 0x0 DUP1 RETURNDATACOPY RETURNDATASIZE PUSH1 0x0 REVERT JUMPDEST POP POP POP POP PUSH1 0x40 MLOAD RETURNDATASIZE PUSH1 0x1F NOT PUSH1 0x1F DUP3 ADD AND DUP3 ADD DUP1 PUSH1 0x40 MSTORE POP DUP2 ADD SWAP1 PUSH2 0x4C4 SWAP2 SWAP1 PUSH2 0x27C6 JUMP JUMPDEST POP PUSH1 0xA0 DUP3 ADD MLOAD PUSH1 0xFF AND PUSH1 0x1 EQ ISZERO PUSH2 0x574 JUMPI PUSH1 0x0 DUP1 PUSH1 0x0 PUSH2 0x4E7 DUP6 PUSH1 0x80 ADD MLOAD PUSH2 0x1DE2 JUMP JUMPDEST POP POP PUSH1 0x1 SLOAD PUSH1 0x40 MLOAD PUSH4 0x3302550F PUSH1 0xE1 SHL DUP2 MSTORE PUSH2 0xFFFF DUP1 DUP8 AND PUSH1 0x4 DUP4 ADD MSTORE DUP1 DUP7 AND PUSH1 0x24 DUP4 ADD MSTORE DUP5 AND PUSH1 0x44 DUP3 ADD MSTORE PUSH1 0x0 PUSH1 0x64 DUP3 ADD MSTORE PUSH1 0x84 DUP2 ADD DUP13 SWAP1 MSTORE SWAP5 SWAP8 POP SWAP3 SWAP6 POP SWAP1 SWAP4 POP POP PUSH1 0x1 PUSH1 0x1 PUSH1 0xA0 SHL SUB AND SWAP1 PUSH4 0x6604AA1E SWAP1 PUSH1 0xA4 ADD PUSH1 0x0 PUSH1 0x40 MLOAD DUP1 DUP4 SUB DUP2 PUSH1 0x0 DUP8 DUP1 EXTCODESIZE ISZERO DUP1 ISZERO PUSH2 0x558 JUMPI PUSH1 0x0 DUP1 REVERT JUMPDEST POP GAS CALL ISZERO DUP1 ISZERO PUSH2 0x56C JUMPI RETURNDATASIZE PUSH1 0x0 DUP1 RETURNDATACOPY RETURNDATASIZE PUSH1 0x0 REVERT JUMPDEST POP POP POP POP POP POP POP JUMPDEST PUSH1 0x1 SLOAD PUSH1 0x40 MLOAD PUSH4 0x9E88FD81 PUSH1 0xE0 SHL DUP2 MSTORE CALLER PUSH1 0x4 DUP3 ADD MSTORE PUSH1 0x24 DUP2 ADD DUP4 SWAP1 MSTORE PUSH1 0x1 PUSH1 0x1 PUSH1 0xA0 SHL SUB SWAP1 SWAP2 AND SWAP1 PUSH4 0x9E88FD81 SWAP1 PUSH1 0x44 ADD PUSH1 0x20 PUSH1 0x40 MLOAD DUP1 DUP4 SUB DUP2 PUSH1 0x0 DUP8 DUP1 EXTCODESIZE ISZERO DUP1 ISZERO PUSH2 0x5C0 JUMPI PUSH1 0x0 DUP1 REVERT JUMPDEST POP GAS CALL ISZERO DUP1 ISZERO PUSH2 0x5D4 JUMPI RETURNDATASIZE PUSH1 0x0 DUP1 RETURNDATACOPY RETURNDATASIZE PUSH1 0x0 REVERT JUMPDEST POP POP POP POP PUSH1 0x40 MLOAD RETURNDATASIZE PUSH1 0x1F NOT PUSH1 0x1F DUP3 ADD AND DUP3 ADD DUP1 PUSH1 0x40 MSTORE POP DUP2 ADD SWAP1 PUSH2 0x5F8 SWAP2 SWAP1 PUSH2 0x27C6 JUMP JUMPDEST POP PUSH1 0x20 DUP3 ADD MLOAD PUSH1 0x40 MLOAD CALLER SWAP2 SWAP1 PUSH32 0xF0F67A4C8AC0793CEA2D284D87D6562B8EDE76460A90455711F0AA2C6BD835D8 SWAP1 PUSH1 0x0 SWAP1 LOG3 POP POP POP JUMP JUMPDEST PUSH1 0x0 SLOAD PUSH1 0x1 PUSH1 0x1 PUSH1 0xA0 SHL SUB AND CALLER EQ PUSH2 0x659 JUMPI PUSH1 0x40 MLOAD PUSH3 0x461BCD PUSH1 0xE5 SHL DUP2 MSTORE PUSH1 0x4 ADD PUSH2 0x1A1 SWAP1 PUSH2 0x2B29 JUMP JUMPDEST PUSH2 0x661 PUSH2 0x1E56 JUMP JUMPDEST JUMP JUMPDEST PUSH1 0x1 SLOAD PUSH1 0x40 MLOAD PUSH4 0x4DCB7767 PUSH1 0xE1 SHL DUP2 MSTORE CALLER PUSH1 0x4 DUP3 ADD MSTORE DUP7 SWAP2 PUSH1 0x1 PUSH1 0x1 PUSH1 0xA0 SHL SUB AND SWAP1 PUSH4 0x9B96EECE SWAP1 PUSH1 0x24 ADD PUSH1 0x20 PUSH1 0x40 MLOAD DUP1 DUP4 SUB DUP2 DUP7 DUP1 EXTCODESIZE ISZERO DUP1 ISZERO PUSH2 0x6A6 JUMPI PUSH1 0x0 DUP1 REVERT JUMPDEST POP GAS STATICCALL ISZERO DUP1 ISZERO PUSH2 0x6BA JUMPI RETURNDATASIZE PUSH1 0x0 DUP1 RETURNDATACOPY RETURNDATASIZE PUSH1 0x0 REVERT JUMPDEST POP POP POP POP PUSH1 0x40 MLOAD RETURNDATASIZE PUSH1 0x1F NOT PUSH1 0x1F DUP3 ADD AND DUP3 ADD DUP1 PUSH1 0x40 MSTORE POP DUP2 ADD SWAP1 PUSH2 0x6DE SWAP2 SWAP1 PUSH2 0x2925 JUMP JUMPDEST LT ISZERO PUSH2 0x73C JUMPI PUSH1 0x40 MLOAD PUSH3 0x461BCD PUSH1 0xE5 SHL DUP2 MSTORE PUSH1 0x20 PUSH1 0x4 DUP3 ADD MSTORE PUSH1 0x27 PUSH1 0x24 DUP3 ADD MSTORE PUSH32 0x496E73756666696369656E742062616C616E636520746F20706C616365207468 PUSH1 0x44 DUP3 ADD MSTORE PUSH7 0x34B9903132BA17 PUSH1 0xC9 SHL PUSH1 0x64 DUP3 ADD MSTORE PUSH1 0x84 ADD PUSH2 0x1A1 JUMP JUMPDEST PUSH1 0x40 MLOAD PUSH12 0xFFFFFFFFFFFFFFFFFFFFFFFF NOT CALLER PUSH1 0x60 SHL AND PUSH1 0x20 DUP3 ADD MSTORE PUSH1 0x34 DUP2 ADD DUP7 SWAP1 MSTORE PUSH1 0x54 DUP2 ADD DUP8 SWAP1 MSTORE PUSH1 0x0 SWAP1 PUSH1 0x74 ADD PUSH1 0x40 DUP1 MLOAD DUP1 DUP4 SUB PUSH1 0x1F NOT ADD DUP2 MSTORE SWAP1 DUP3 SWAP1 MSTORE DUP1 MLOAD PUSH1 0x20 SWAP1 SWAP2 ADD KECCAK256 PUSH1 0x1 SLOAD PUSH4 0x9E88FD81 PUSH1 0xE0 SHL DUP4 MSTORE CALLER PUSH1 0x4 DUP5 ADD MSTORE PUSH1 0x24 DUP4 ADD DUP10 SWAP1 MSTORE SWAP1 SWAP3 POP PUSH1 0x1 PUSH1 0x1 PUSH1 0xA0 SHL SUB AND SWAP1 PUSH4 0x9E88FD81 SWAP1 PUSH1 0x44 ADD PUSH1 0x20 PUSH1 0x40 MLOAD DUP1 DUP4 SUB DUP2 PUSH1 0x0 DUP8 DUP1 EXTCODESIZE ISZERO DUP1 ISZERO PUSH2 0x7CE JUMPI PUSH1 0x0 DUP1 REVERT JUMPDEST POP GAS CALL ISZERO DUP1 ISZERO PUSH2 0x7E2 JUMPI RETURNDATASIZE PUSH1 0x0 DUP1 RETURNDATACOPY RETURNDATASIZE PUSH1 0x0 REVERT JUMPDEST POP POP POP POP PUSH1 0x40 MLOAD RETURNDATASIZE PUSH1 0x1F NOT PUSH1 0x1F DUP3 ADD AND DUP3 ADD DUP1 PUSH1 0x40 MSTORE POP DUP2 ADD SWAP1 PUSH2 0x806 SWAP2 SWAP1 PUSH2 0x27C6 JUMP JUMPDEST POP PUSH1 0x40 DUP1 MLOAD PUSH2 0x140 DUP2 ADD SWAP1 SWAP2 MSTORE PUSH1 0x0 SWAP1 DUP1 DUP3 PUSH2 0xFFFF AND DUP2 MSTORE PUSH1 0x20 ADD DUP4 DUP2 MSTORE PUSH1 0x20 ADD CALLER PUSH1 0x1 PUSH1 0x1 PUSH1 0xA0 SHL SUB AND DUP2 MSTORE PUSH1 0x20 ADD DUP5 PUSH1 0x0 DUP2 MLOAD DUP2 LT PUSH2 0x849 JUMPI PUSH2 0x849 PUSH2 0x2F75 JUMP JUMPDEST PUSH1 0x20 MUL PUSH1 0x20 ADD ADD MLOAD DUP2 MSTORE PUSH1 0x20 ADD DUP8 DUP2 MSTORE PUSH1 0x20 ADD DUP7 PUSH1 0xFF AND DUP2 MSTORE PUSH1 0x20 ADD DUP6 PUSH1 0xFF AND DUP2 MSTORE PUSH1 0x20 ADD PUSH1 0x0 PUSH1 0x5 DUP2 GT ISZERO PUSH2 0x881 JUMPI PUSH2 0x881 PUSH2 0x2F5F JUMP JUMPDEST PUSH1 0xFF AND DUP2 MSTORE PUSH1 0x20 DUP2 ADD DUP10 SWAP1 MSTORE PUSH1 0x40 SWAP1 DUP2 ADD DUP10 SWAP1 MSTORE PUSH1 0x1 SLOAD SWAP1 MLOAD PUSH4 0x293E2397 PUSH1 0xE1 SHL DUP2 MSTORE SWAP2 SWAP3 POP PUSH1 0x1 PUSH1 0x1 PUSH1 0xA0 SHL SUB AND SWAP1 PUSH4 0x527C472E SWAP1 PUSH2 0x8C5 SWAP1 DUP5 SWAP1 PUSH1 0x4 ADD PUSH2 0x2B5E JUMP JUMPDEST PUSH1 0x20 PUSH1 0x40 MLOAD DUP1 DUP4 SUB DUP2 PUSH1 0x0 DUP8 DUP1 EXTCODESIZE ISZERO DUP1 ISZERO PUSH2 0x8DF JUMPI PUSH1 0x0 DUP1 REVERT JUMPDEST POP GAS CALL ISZERO DUP1 ISZERO PUSH2 0x8F3 JUMPI RETURNDATASIZE PUSH1 0x0 DUP1 RETURNDATACOPY RETURNDATASIZE PUSH1 0x0 REVERT JUMPDEST POP POP POP POP PUSH1 0x40 MLOAD RETURNDATASIZE PUSH1 0x1F NOT PUSH1 0x1F DUP3 ADD AND DUP3 ADD DUP1 PUSH1 0x40 MSTORE POP DUP2 ADD SWAP1 PUSH2 0x917 SWAP2 SWAP1 PUSH2 0x27C6 JUMP JUMPDEST POP PUSH1 0x1 DUP1 SLOAD PUSH1 0x40 DUP1 MLOAD DUP1 DUP3 ADD SWAP1 SWAP2 MSTORE PUSH1 0xB DUP2 MSTORE PUSH11 0x57494E5343454E4152494F PUSH1 0xA8 SHL PUSH1 0x20 DUP3 ADD MSTORE DUP6 MLOAD PUSH1 0x1 PUSH1 0x1 PUSH1 0xA0 SHL SUB SWAP1 SWAP3 AND SWAP3 PUSH4 0x203A6BFD SWAP3 DUP7 SWAP3 SWAP2 DUP9 SWAP2 DUP2 LT PUSH2 0x965 JUMPI PUSH2 0x965 PUSH2 0x2F75 JUMP JUMPDEST PUSH1 0x20 MUL PUSH1 0x20 ADD ADD MLOAD PUSH1 0x40 MLOAD DUP5 PUSH4 0xFFFFFFFF AND PUSH1 0xE0 SHL DUP2 MSTORE PUSH1 0x4 ADD PUSH2 0x98B SWAP4 SWAP3 SWAP2 SWAP1 PUSH2 0x2AE1 JUMP JUMPDEST PUSH1 0x20 PUSH1 0x40 MLOAD DUP1 DUP4 SUB DUP2 PUSH1 0x0 DUP8 DUP1 EXTCODESIZE ISZERO DUP1 ISZERO PUSH2 0x9A5 JUMPI PUSH1 0x0 DUP1 REVERT JUMPDEST POP GAS CALL ISZERO DUP1 ISZERO PUSH2 0x9B9 JUMPI RETURNDATASIZE PUSH1 0x0 DUP1 RETURNDATACOPY RETURNDATASIZE PUSH1 0x0 REVERT JUMPDEST POP POP POP POP PUSH1 0x40 MLOAD RETURNDATASIZE PUSH1 0x1F NOT PUSH1 0x1F DUP3 ADD AND DUP3 ADD DUP1 PUSH1 0x40 MSTORE POP DUP2 ADD SWAP1 PUSH2 0x9DD SWAP2 SWAP1 PUSH2 0x27C6 JUMP JUMPDEST POP PUSH1 0x1 SLOAD PUSH1 0x40 DUP1 MLOAD DUP1 DUP3 ADD SWAP1 SWAP2 MSTORE PUSH1 0xC DUP2 MSTORE PUSH12 0x4C4F53455343454E4152494F PUSH1 0xA0 SHL PUSH1 0x20 DUP3 ADD MSTORE DUP5 MLOAD PUSH1 0x1 PUSH1 0x1 PUSH1 0xA0 SHL SUB SWAP1 SWAP3 AND SWAP2 PUSH4 0x203A6BFD SWAP2 DUP6 SWAP2 DUP8 SWAP1 PUSH1 0x2 SWAP1 DUP2 LT PUSH2 0xA2D JUMPI PUSH2 0xA2D PUSH2 0x2F75 JUMP JUMPDEST PUSH1 0x20 MUL PUSH1 0x20 ADD ADD MLOAD PUSH1 0x40 MLOAD DUP5 PUSH4 0xFFFFFFFF AND PUSH1 0xE0 SHL DUP2 MSTORE PUSH1 0x4 ADD PUSH2 0xA53 SWAP4 SWAP3 SWAP2 SWAP1 PUSH2 0x2AE1 JUMP JUMPDEST PUSH1 0x20 PUSH1 0x40 MLOAD DUP1 DUP4 SUB DUP2 PUSH1 0x0 DUP8 DUP1 EXTCODESIZE ISZERO DUP1 ISZERO PUSH2 0xA6D JUMPI PUSH1 0x0 DUP1 REVERT JUMPDEST POP GAS CALL ISZERO DUP1 ISZERO PUSH2 0xA81 JUMPI RETURNDATASIZE PUSH1 0x0 DUP1 RETURNDATACOPY RETURNDATASIZE PUSH1 0x0 REVERT JUMPDEST POP POP POP POP PUSH1 0x40 MLOAD RETURNDATASIZE PUSH1 0x1F NOT PUSH1 0x1F DUP3 ADD AND DUP3 ADD DUP1 PUSH1 0x40 MSTORE POP DUP2 ADD SWAP1 PUSH2 0xAA5 SWAP2 SWAP1 PUSH2 0x27C6 JUMP JUMPDEST POP PUSH1 0x1 SLOAD PUSH1 0x40 DUP1 MLOAD DUP1 DUP3 ADD SWAP1 SWAP2 MSTORE PUSH1 0xE DUP2 MSTORE PUSH14 0x43414E43454C5343454E4152494F PUSH1 0x90 SHL PUSH1 0x20 DUP3 ADD MSTORE DUP5 MLOAD PUSH1 0x1 PUSH1 0x1 PUSH1 0xA0 SHL SUB SWAP1 SWAP3 AND SWAP2 PUSH4 0x203A6BFD SWAP2 DUP6 SWAP2 DUP8 SWAP1 PUSH1 0x3 SWAP1 DUP2 LT PUSH2 0xAF7 JUMPI PUSH2 0xAF7 PUSH2 0x2F75 JUMP JUMPDEST PUSH1 0x20 MUL PUSH1 0x20 ADD ADD MLOAD PUSH1 0x40 MLOAD DUP5 PUSH4 0xFFFFFFFF AND PUSH1 0xE0 SHL DUP2 MSTORE PUSH1 0x4 ADD PUSH2 0xB1D SWAP4 SWAP3 SWAP2 SWAP1 PUSH2 0x2AE1 JUMP JUMPDEST PUSH1 0x20 PUSH1 0x40 MLOAD DUP1 DUP4 SUB DUP2 PUSH1 0x0 DUP8 DUP1 EXTCODESIZE ISZERO DUP1 ISZERO PUSH2 0xB37 JUMPI PUSH1 0x0 DUP1 REVERT JUMPDEST POP GAS CALL ISZERO DUP1 ISZERO PUSH2 0xB4B JUMPI RETURNDATASIZE PUSH1 0x0 DUP1 RETURNDATACOPY RETURNDATASIZE PUSH1 0x0 REVERT JUMPDEST POP POP POP POP PUSH1 0x40 MLOAD RETURNDATASIZE PUSH1 0x1F NOT PUSH1 0x1F DUP3 ADD AND DUP3 ADD DUP1 PUSH1 0x40 MSTORE POP DUP2 ADD SWAP1 PUSH2 0xB6F SWAP2 SWAP1 PUSH2 0x27C6 JUMP JUMPDEST POP PUSH1 0x1 SLOAD PUSH1 0x40 DUP1 MLOAD DUP1 DUP3 ADD SWAP1 SWAP2 MSTORE PUSH1 0x10 DUP2 MSTORE PUSH16 0x1091551051D0525394D5105353D55395 PUSH1 0x82 SHL PUSH1 0x20 DUP3 ADD MSTORE DUP5 MLOAD PUSH1 0x1 PUSH1 0x1 PUSH1 0xA0 SHL SUB SWAP1 SWAP3 AND SWAP2 PUSH4 0x203A6BFD SWAP2 DUP6 SWAP2 DUP8 SWAP1 PUSH1 0x5 SWAP1 DUP2 LT PUSH2 0xBC3 JUMPI PUSH2 0xBC3 PUSH2 0x2F75 JUMP JUMPDEST PUSH1 0x20 MUL PUSH1 0x20 ADD ADD MLOAD PUSH1 0x40 MLOAD DUP5 PUSH4 0xFFFFFFFF AND PUSH1 0xE0 SHL DUP2 MSTORE PUSH1 0x4 ADD PUSH2 0xBE9 SWAP4 SWAP3 SWAP2 SWAP1 PUSH2 0x2AE1 JUMP JUMPDEST PUSH1 0x20 PUSH1 0x40 MLOAD DUP1 DUP4 SUB DUP2 PUSH1 0x0 DUP8 DUP1 EXTCODESIZE ISZERO DUP1 ISZERO PUSH2 0xC03 JUMPI PUSH1 0x0 DUP1 REVERT JUMPDEST POP GAS CALL ISZERO DUP1 ISZERO PUSH2 0xC17 JUMPI RETURNDATASIZE PUSH1 0x0 DUP1 RETURNDATACOPY RETURNDATASIZE PUSH1 0x0 REVERT JUMPDEST POP POP POP POP PUSH1 0x40 MLOAD RETURNDATASIZE PUSH1 0x1F NOT PUSH1 0x1F DUP3 ADD AND DUP3 ADD DUP1 PUSH1 0x40 MSTORE POP DUP2 ADD SWAP1 PUSH2 0xC3B SWAP2 SWAP1 PUSH2 0x27C6 JUMP JUMPDEST POP PUSH1 0x1 SLOAD PUSH1 0x40 DUP3 DUP2 ADD MLOAD PUSH1 0x20 DUP5 ADD MLOAD SWAP2 MLOAD PUSH4 0xB5FA4AF7 PUSH1 0xE0 SHL DUP2 MSTORE PUSH1 0x1 PUSH1 0x1 PUSH1 0xA0 SHL SUB SWAP2 DUP3 AND PUSH1 0x4 DUP3 ADD MSTORE PUSH1 0x24 DUP2 ADD SWAP3 SWAP1 SWAP3 MSTORE SWAP1 SWAP2 AND SWAP1 PUSH4 0xB5FA4AF7 SWAP1 PUSH1 0x44 ADD PUSH1 0x0 PUSH1 0x40 MLOAD DUP1 DUP4 SUB DUP2 PUSH1 0x0 DUP8 DUP1 EXTCODESIZE ISZERO DUP1 ISZERO PUSH2 0xC95 JUMPI PUSH1 0x0 DUP1 REVERT JUMPDEST POP GAS CALL ISZERO DUP1 ISZERO PUSH2 0xCA9 JUMPI RETURNDATASIZE PUSH1 0x0 DUP1 RETURNDATACOPY RETURNDATASIZE PUSH1 0x0 REVERT JUMPDEST POP POP PUSH1 0x1 SLOAD PUSH1 0x40 DUP1 MLOAD PUSH4 0x6D7DBB41 PUSH1 0xE1 SHL DUP2 MSTORE SWAP1 MLOAD PUSH1 0x1 PUSH1 0x1 PUSH1 0xA0 SHL SUB SWAP1 SWAP3 AND SWAP4 POP PUSH4 0x2E716659 SWAP3 POP PUSH2 0xD3E SWAP2 DUP12 SWAP2 DUP6 SWAP2 PUSH4 0xDAFB7682 SWAP2 PUSH1 0x4 DUP1 DUP3 ADD SWAP3 PUSH1 0x20 SWAP3 SWAP1 SWAP2 SWAP1 DUP3 SWAP1 SUB ADD DUP2 DUP7 DUP1 EXTCODESIZE ISZERO DUP1 ISZERO PUSH2 0xD00 JUMPI PUSH1 0x0 DUP1 REVERT JUMPDEST POP GAS STATICCALL ISZERO DUP1 ISZERO PUSH2 0xD14 JUMPI RETURNDATASIZE PUSH1 0x0 DUP1 RETURNDATACOPY RETURNDATASIZE PUSH1 0x0 REVERT JUMPDEST POP POP POP POP PUSH1 0x40 MLOAD RETURNDATASIZE PUSH1 0x1F NOT PUSH1 0x1F DUP3 ADD AND DUP3 ADD DUP1 PUSH1 0x40 MSTORE POP DUP2 ADD SWAP1 PUSH2 0xD38 SWAP2 SWAP1 PUSH2 0x2925 JUMP JUMPDEST SWAP1 PUSH2 0x1EF3 JUMP JUMPDEST PUSH1 0x40 MLOAD DUP3 PUSH4 0xFFFFFFFF AND PUSH1 0xE0 SHL DUP2 MSTORE PUSH1 0x4 ADD PUSH2 0xD5C SWAP2 DUP2 MSTORE PUSH1 0x20 ADD SWAP1 JUMP JUMPDEST PUSH1 0x0 PUSH1 0x40 MLOAD DUP1 DUP4 SUB DUP2 PUSH1 0x0 DUP8 DUP1 EXTCODESIZE ISZERO DUP1 ISZERO PUSH2 0xD76 JUMPI PUSH1 0x0 DUP1 REVERT JUMPDEST POP GAS CALL ISZERO DUP1 ISZERO PUSH2 0xD8A JUMPI RETURNDATASIZE PUSH1 0x0 DUP1 RETURNDATACOPY RETURNDATASIZE PUSH1 0x0 REVERT JUMPDEST POP PUSH1 0x0 SWAP3 POP PUSH2 0xD97 SWAP2 POP POP JUMP JUMPDEST PUSH1 0xFF AND DUP5 PUSH1 0xFF AND EQ ISZERO PUSH2 0x10A3 JUMPI PUSH1 0x1 SLOAD PUSH1 0x40 DUP1 MLOAD DUP1 DUP3 ADD SWAP1 SWAP2 MSTORE PUSH1 0xA DUP2 MSTORE PUSH10 0x20A92124AA2920AA27A9 PUSH1 0xB1 SHL PUSH1 0x20 DUP3 ADD MSTORE DUP5 MLOAD PUSH1 0x1 PUSH1 0x1 PUSH1 0xA0 SHL SUB SWAP1 SWAP3 AND SWAP2 PUSH4 0x203A6BFD SWAP2 DUP6 SWAP2 DUP8 SWAP1 PUSH1 0x6 SWAP1 DUP2 LT PUSH2 0xDF1 JUMPI PUSH2 0xDF1 PUSH2 0x2F75 JUMP JUMPDEST PUSH1 0x20 MUL PUSH1 0x20 ADD ADD MLOAD PUSH1 0x40 MLOAD DUP5 PUSH4 0xFFFFFFFF AND PUSH1 0xE0 SHL DUP2 MSTORE PUSH1 0x4 ADD PUSH2 0xE17 SWAP4 SWAP3 SWAP2 SWAP1 PUSH2 0x2AE1 JUMP JUMPDEST PUSH1 0x20 PUSH1 0x40 MLOAD DUP1 DUP4 SUB DUP2 PUSH1 0x0 DUP8 DUP1 EXTCODESIZE ISZERO DUP1 ISZERO PUSH2 0xE31 JUMPI PUSH1 0x0 DUP1 REVERT JUMPDEST POP GAS CALL ISZERO DUP1 ISZERO PUSH2 0xE45 JUMPI RETURNDATASIZE PUSH1 0x0 DUP1 RETURNDATACOPY RETURNDATASIZE PUSH1 0x0 REVERT JUMPDEST POP POP POP POP PUSH1 0x40 MLOAD RETURNDATASIZE PUSH1 0x1F NOT PUSH1 0x1F DUP3 ADD AND DUP3 ADD DUP1 PUSH1 0x40 MSTORE POP DUP2 ADD SWAP1 PUSH2 0xE69 SWAP2 SWAP1 PUSH2 0x27C6 JUMP JUMPDEST POP PUSH1 0x1 SLOAD PUSH1 0x40 DUP1 MLOAD DUP1 DUP3 ADD SWAP1 SWAP2 MSTORE PUSH1 0xE DUP2 MSTORE PUSH14 0x41524249545241544F524E414D45 PUSH1 0x90 SHL PUSH1 0x20 DUP3 ADD MSTORE DUP5 MLOAD PUSH1 0x1 PUSH1 0x1 PUSH1 0xA0 SHL SUB SWAP1 SWAP3 AND SWAP2 PUSH4 0x203A6BFD SWAP2 DUP6 SWAP2 DUP8 SWAP1 PUSH1 0x4 SWAP1 DUP2 LT PUSH2 0xEBB JUMPI PUSH2 0xEBB PUSH2 0x2F75 JUMP JUMPDEST PUSH1 0x20 MUL PUSH1 0x20 ADD ADD MLOAD PUSH1 0x40 MLOAD DUP5 PUSH4 0xFFFFFFFF AND PUSH1 0xE0 SHL DUP2 MSTORE PUSH1 0x4 ADD PUSH2 0xEE1 SWAP4 SWAP3 SWAP2 SWAP1 PUSH2 0x2AE1 JUMP JUMPDEST PUSH1 0x20 PUSH1 0x40 MLOAD DUP1 DUP4 SUB DUP2 PUSH1 0x0 DUP8 DUP1 EXTCODESIZE ISZERO DUP1 ISZERO PUSH2 0xEFB JUMPI PUSH1 0x0 DUP1 REVERT JUMPDEST POP GAS CALL ISZERO DUP1 ISZERO PUSH2 0xF0F JUMPI RETURNDATASIZE PUSH1 0x0 DUP1 RETURNDATACOPY RETURNDATASIZE PUSH1 0x0 REVERT JUMPDEST POP POP POP POP PUSH1 0x40 MLOAD RETURNDATASIZE PUSH1 0x1F NOT PUSH1 0x1F DUP3 ADD AND DUP3 ADD DUP1 PUSH1 0x40 MSTORE POP DUP2 ADD SWAP1 PUSH2 0xF33 SWAP2 SWAP1 PUSH2 0x27C6 JUMP JUMPDEST POP PUSH1 0x1 SLOAD PUSH1 0x40 DUP1 MLOAD DUP1 DUP3 ADD SWAP1 SWAP2 MSTORE PUSH1 0x14 DUP2 MSTORE PUSH20 0x20A92124AA2920AA27A921A7A6A6A4A9A9A4A7A7 PUSH1 0x61 SHL PUSH1 0x20 DUP3 ADD MSTORE DUP5 MLOAD PUSH1 0x1 PUSH1 0x1 PUSH1 0xA0 SHL SUB SWAP1 SWAP3 AND SWAP2 PUSH4 0x203A6BFD SWAP2 DUP6 SWAP2 DUP8 SWAP1 PUSH1 0x7 SWAP1 DUP2 LT PUSH2 0xF8B JUMPI PUSH2 0xF8B PUSH2 0x2F75 JUMP JUMPDEST PUSH1 0x20 MUL PUSH1 0x20 ADD ADD MLOAD PUSH1 0x40 MLOAD DUP5 PUSH4 0xFFFFFFFF AND PUSH1 0xE0 SHL DUP2 MSTORE PUSH1 0x4 ADD PUSH2 0xFB1 SWAP4 SWAP3 SWAP2 SWAP1 PUSH2 0x2AE1 JUMP JUMPDEST PUSH1 0x20 PUSH1 0x40 MLOAD DUP1 DUP4 SUB DUP2 PUSH1 0x0 DUP8 DUP1 EXTCODESIZE ISZERO DUP1 ISZERO PUSH2 0xFCB JUMPI PUSH1 0x0 DUP1 REVERT JUMPDEST POP GAS CALL ISZERO DUP1 ISZERO PUSH2 0xFDF JUMPI RETURNDATASIZE PUSH1 0x0 DUP1 RETURNDATACOPY RETURNDATASIZE PUSH1 0x0 REVERT JUMPDEST POP POP POP POP PUSH1 0x40 MLOAD RETURNDATASIZE PUSH1 0x1F NOT PUSH1 0x1F DUP3 ADD AND DUP3 ADD DUP1 PUSH1 0x40 MSTORE POP DUP2 ADD SWAP1 PUSH2 0x1003 SWAP2 SWAP1 PUSH2 0x27C6 JUMP JUMPDEST POP PUSH1 0x1 SLOAD DUP4 MLOAD PUSH1 0x1 PUSH1 0x1 PUSH1 0xA0 SHL SUB SWAP1 SWAP2 AND SWAP1 PUSH4 0xB5FA4AF7 SWAP1 PUSH2 0x103F SWAP1 DUP7 SWAP1 PUSH1 0x6 SWAP1 DUP2 LT PUSH2 0x1032 JUMPI PUSH2 0x1032 PUSH2 0x2F75 JUMP JUMPDEST PUSH1 0x20 MUL PUSH1 0x20 ADD ADD MLOAD PUSH2 0x1EFF JUMP JUMPDEST PUSH1 0x20 DUP5 ADD MLOAD PUSH1 0x40 MLOAD PUSH1 0x1 PUSH1 0x1 PUSH1 0xE0 SHL SUB NOT PUSH1 0xE0 DUP6 SWAP1 SHL AND DUP2 MSTORE PUSH1 0x1 PUSH1 0x1 PUSH1 0xA0 SHL SUB SWAP1 SWAP3 AND PUSH1 0x4 DUP4 ADD MSTORE PUSH1 0x24 DUP3 ADD MSTORE PUSH1 0x44 ADD PUSH1 0x0 PUSH1 0x40 MLOAD DUP1 DUP4 SUB DUP2 PUSH1 0x0 DUP8 DUP1 EXTCODESIZE ISZERO DUP1 ISZERO PUSH2 0x108A JUMPI PUSH1 0x0 DUP1 REVERT JUMPDEST POP GAS CALL ISZERO DUP1 ISZERO PUSH2 0x109E JUMPI RETURNDATASIZE PUSH1 0x0 DUP1 RETURNDATACOPY RETURNDATASIZE PUSH1 0x0 REVERT JUMPDEST POP POP POP POP JUMPDEST PUSH1 0xFF DUP6 AND PUSH1 0x1 EQ ISZERO PUSH2 0x13B1 JUMPI PUSH2 0x10B7 PUSH2 0x20EC JUMP JUMPDEST PUSH2 0x1188 JUMPI PUSH1 0x0 PUSH2 0x10C5 PUSH2 0x21F6 JUMP JUMPDEST PUSH1 0x1 SLOAD PUSH1 0x40 DUP1 MLOAD DUP1 DUP3 ADD SWAP1 SWAP2 MSTORE PUSH1 0x14 DUP2 MSTORE PUSH20 0x20A92124AA2920AA27A921A7A6A6A4A9A9A4A7A7 PUSH1 0x61 SHL PUSH1 0x20 DUP3 ADD MSTORE SWAP2 SWAP3 POP PUSH1 0x1 PUSH1 0x1 PUSH1 0xA0 SHL SUB AND SWAP1 PUSH4 0x203A6BFD SWAP1 DUP6 SWAP1 PUSH2 0x1111 DUP6 PUSH2 0x239B JUMP JUMPDEST PUSH1 0x40 MLOAD DUP5 PUSH4 0xFFFFFFFF AND PUSH1 0xE0 SHL DUP2 MSTORE PUSH1 0x4 ADD PUSH2 0x112F SWAP4 SWAP3 SWAP2 SWAP1 PUSH2 0x2AE1 JUMP JUMPDEST PUSH1 0x20 PUSH1 0x40 MLOAD DUP1 DUP4 SUB DUP2 PUSH1 0x0 DUP8 DUP1 EXTCODESIZE ISZERO DUP1 ISZERO PUSH2 0x1149 JUMPI PUSH1 0x0 DUP1 REVERT JUMPDEST POP GAS CALL ISZERO DUP1 ISZERO PUSH2 0x115D JUMPI RETURNDATASIZE PUSH1 0x0 DUP1 RETURNDATACOPY RETURNDATASIZE PUSH1 0x0 REVERT JUMPDEST POP POP POP POP PUSH1 0x40 MLOAD RETURNDATASIZE PUSH1 0x1F NOT PUSH1 0x1F DUP3 ADD AND DUP3 ADD DUP1 PUSH1 0x40 MSTORE POP DUP2 ADD SWAP1 PUSH2 0x1181 SWAP2 SWAP1 PUSH2 0x27C6 JUMP JUMPDEST POP POP PUSH2 0x1248 JUMP JUMPDEST PUSH1 0x1 SLOAD PUSH1 0x40 DUP1 MLOAD DUP1 DUP3 ADD SWAP1 SWAP2 MSTORE PUSH1 0x14 DUP2 MSTORE PUSH20 0x20A92124AA2920AA27A921A7A6A6A4A9A9A4A7A7 PUSH1 0x61 SHL PUSH1 0x20 DUP3 ADD MSTORE PUSH1 0x3 SLOAD PUSH1 0x1 PUSH1 0x1 PUSH1 0xA0 SHL SUB SWAP1 SWAP3 AND SWAP2 PUSH4 0x203A6BFD SWAP2 DUP6 SWAP2 PUSH2 0x11D6 SWAP1 PUSH2 0x239B JUMP JUMPDEST PUSH1 0x40 MLOAD DUP5 PUSH4 0xFFFFFFFF AND PUSH1 0xE0 SHL DUP2 MSTORE PUSH1 0x4 ADD PUSH2 0x11F4 SWAP4 SWAP3 SWAP2 SWAP1 PUSH2 0x2AE1 JUMP JUMPDEST PUSH1 0x20 PUSH1 0x40 MLOAD DUP1 DUP4 SUB DUP2 PUSH1 0x0 DUP8 DUP1 EXTCODESIZE ISZERO DUP1 ISZERO PUSH2 0x120E JUMPI PUSH1 0x0 DUP1 REVERT JUMPDEST POP GAS CALL ISZERO DUP1 ISZERO PUSH2 0x1222 JUMPI RETURNDATASIZE PUSH1 0x0 DUP1 RETURNDATACOPY RETURNDATASIZE PUSH1 0x0 REVERT JUMPDEST POP POP POP POP PUSH1 0x40 MLOAD RETURNDATASIZE PUSH1 0x1F NOT PUSH1 0x1F DUP3 ADD AND DUP3 ADD DUP1 PUSH1 0x40 MSTORE POP DUP2 ADD SWAP1 PUSH2 0x1246 SWAP2 SWAP1 PUSH2 0x27C6 JUMP JUMPDEST POP JUMPDEST PUSH1 0x1 SLOAD PUSH1 0x40 DUP1 MLOAD DUP1 DUP3 ADD SWAP1 SWAP2 MSTORE PUSH1 0x14 DUP2 MSTORE PUSH20 0x14D51052D154115490D153951491545552549151 PUSH1 0x62 SHL PUSH1 0x20 DUP3 ADD MSTORE PUSH1 0x2 SLOAD PUSH1 0x1 PUSH1 0x1 PUSH1 0xA0 SHL SUB SWAP1 SWAP3 AND SWAP2 PUSH4 0x203A6BFD SWAP2 DUP6 SWAP2 PUSH2 0x1296 SWAP1 PUSH2 0x239B JUMP JUMPDEST PUSH1 0x40 MLOAD DUP5 PUSH4 0xFFFFFFFF AND PUSH1 0xE0 SHL DUP2 MSTORE PUSH1 0x4 ADD PUSH2 0x12B4 SWAP4 SWAP3 SWAP2 SWAP1 PUSH2 0x2AE1 JUMP JUMPDEST PUSH1 0x20 PUSH1 0x40 MLOAD DUP1 DUP4 SUB DUP2 PUSH1 0x0 DUP8 DUP1 EXTCODESIZE ISZERO DUP1 ISZERO PUSH2 0x12CE JUMPI PUSH1 0x0 DUP1 REVERT JUMPDEST POP GAS CALL ISZERO DUP1 ISZERO PUSH2 0x12E2 JUMPI RETURNDATASIZE PUSH1 0x0 DUP1 RETURNDATACOPY RETURNDATASIZE PUSH1 0x0 REVERT JUMPDEST POP POP POP POP PUSH1 0x40 MLOAD RETURNDATASIZE PUSH1 0x1F NOT PUSH1 0x1F DUP3 ADD AND DUP3 ADD DUP1 PUSH1 0x40 MSTORE POP DUP2 ADD SWAP1 PUSH2 0x1306 SWAP2 SWAP1 PUSH2 0x27C6 JUMP JUMPDEST POP PUSH1 0x0 DUP1 PUSH1 0x0 PUSH2 0x1319 DUP5 PUSH1 0x80 ADD MLOAD PUSH2 0x1DE2 JUMP JUMPDEST POP POP PUSH1 0x1 DUP1 SLOAD PUSH1 0x40 MLOAD PUSH4 0xD9F8C20F PUSH1 0xE0 SHL DUP2 MSTORE PUSH2 0xFFFF DUP1 DUP9 AND PUSH1 0x4 DUP4 ADD MSTORE DUP1 DUP8 AND PUSH1 0x24 DUP4 ADD MSTORE DUP6 AND PUSH1 0x44 DUP3 ADD MSTORE PUSH1 0x0 PUSH1 0x64 DUP3 ADD MSTORE PUSH1 0x84 DUP2 ADD DUP13 SWAP1 MSTORE PUSH1 0xA4 DUP2 ADD SWAP3 SWAP1 SWAP3 MSTORE SWAP5 SWAP8 POP SWAP3 SWAP6 POP SWAP1 SWAP4 POP POP PUSH1 0x1 PUSH1 0x1 PUSH1 0xA0 SHL SUB SWAP1 SWAP2 AND SWAP1 PUSH4 0xD9F8C20F SWAP1 PUSH1 0xC4 ADD PUSH1 0x0 PUSH1 0x40 MLOAD DUP1 DUP4 SUB DUP2 PUSH1 0x0 DUP8 DUP1 EXTCODESIZE ISZERO DUP1 ISZERO PUSH2 0x1395 JUMPI PUSH1 0x0 DUP1 REVERT JUMPDEST POP GAS CALL ISZERO DUP1 ISZERO PUSH2 0x13A9 JUMPI RETURNDATASIZE PUSH1 0x0 DUP1 RETURNDATACOPY RETURNDATASIZE PUSH1 0x0 REVERT JUMPDEST POP POP POP POP POP POP POP JUMPDEST CALLER PUSH1 0x1 PUSH1 0x1 PUSH1 0xA0 SHL SUB AND DUP6 PUSH1 0xFF AND DUP4 PUSH32 0x12561C0D87585938EF0F97D752154489C4D57935BCFF732C5A8444D9E6ADE96 DUP11 PUSH1 0x40 MLOAD PUSH2 0x13F1 SWAP2 DUP2 MSTORE PUSH1 0x20 ADD SWAP1 JUMP JUMPDEST PUSH1 0x40 MLOAD DUP1 SWAP2 SUB SWAP1 LOG4 POP POP POP POP POP POP POP POP JUMP JUMPDEST PUSH1 0x0 SLOAD PUSH1 0x1 PUSH1 0x1 PUSH1 0xA0 SHL SUB AND CALLER EQ PUSH2 0x142D JUMPI PUSH1 0x40 MLOAD PUSH3 0x461BCD PUSH1 0xE5 SHL DUP2 MSTORE PUSH1 0x4 ADD PUSH2 0x1A1 SWAP1 PUSH2 0x2B29 JUMP JUMPDEST PUSH2 0x661 PUSH1 0x0 PUSH2 0x24C4 JUMP JUMPDEST PUSH1 0x0 SLOAD PUSH1 0x1 PUSH1 0x1 PUSH1 0xA0 SHL SUB AND CALLER EQ PUSH2 0x1461 JUMPI PUSH1 0x40 MLOAD PUSH3 0x461BCD PUSH1 0xE5 SHL DUP2 MSTORE PUSH1 0x4 ADD PUSH2 0x1A1 SWAP1 PUSH2 0x2B29 JUMP JUMPDEST PUSH2 0x661 PUSH2 0x2514 JUMP JUMPDEST PUSH1 0x1 SLOAD PUSH1 0x40 MLOAD PUSH4 0x1BF4604F PUSH1 0xE1 SHL DUP2 MSTORE PUSH1 0x4 DUP2 ADD DUP4 SWAP1 MSTORE PUSH1 0x0 SWAP2 PUSH1 0x1 PUSH1 0x1 PUSH1 0xA0 SHL SUB AND SWAP1 PUSH4 0x37E8C09E SWAP1 PUSH1 0x24 ADD PUSH1 0x0 PUSH1 0x40 MLOAD DUP1 DUP4 SUB DUP2 DUP7 DUP1 EXTCODESIZE ISZERO DUP1 ISZERO PUSH2 0x14AE JUMPI PUSH1 0x0 DUP1 REVERT JUMPDEST POP GAS STATICCALL ISZERO DUP1 ISZERO PUSH2 0x14C2 JUMPI RETURNDATASIZE PUSH1 0x0 DUP1 RETURNDATACOPY RETURNDATASIZE PUSH1 0x0 REVERT JUMPDEST POP POP POP POP PUSH1 0x40 MLOAD RETURNDATASIZE PUSH1 0x0 DUP3 RETURNDATACOPY PUSH1 0x1F RETURNDATASIZE SWAP1 DUP2 ADD PUSH1 0x1F NOT AND DUP3 ADD PUSH1 0x40 MSTORE PUSH2 0x14EA SWAP2 SWAP1 DUP2 ADD SWAP1 PUSH2 0x2836 JUMP JUMPDEST PUSH1 0xE0 DUP2 ADD MLOAD SWAP1 SWAP2 POP PUSH1 0xFF AND ISZERO PUSH2 0x154E JUMPI PUSH1 0x40 MLOAD PUSH3 0x461BCD PUSH1 0xE5 SHL DUP2 MSTORE PUSH1 0x20 PUSH1 0x4 DUP3 ADD MSTORE PUSH1 0x23 PUSH1 0x24 DUP3 ADD MSTORE PUSH32 0x5374617475732073686F756C6420626520696E20637265617465642073746174 PUSH1 0x44 DUP3 ADD MSTORE PUSH3 0x3AB997 PUSH1 0xE9 SHL PUSH1 0x64 DUP3 ADD MSTORE PUSH1 0x84 ADD PUSH2 0x1A1 JUMP JUMPDEST PUSH1 0x40 DUP2 ADD MLOAD PUSH1 0x1 PUSH1 0x1 PUSH1 0xA0 SHL SUB AND CALLER EQ ISZERO PUSH2 0x15B7 JUMPI PUSH1 0x40 MLOAD PUSH3 0x461BCD PUSH1 0xE5 SHL DUP2 MSTORE PUSH1 0x20 PUSH1 0x4 DUP3 ADD MSTORE PUSH1 0x24 DUP1 DUP3 ADD MSTORE PUSH32 0x43726561746F722063616E6E6F7420616363657074207468656972206F776E20 PUSH1 0x44 DUP3 ADD MSTORE PUSH4 0x3132BA17 PUSH1 0xE1 SHL PUSH1 0x64 DUP3 ADD MSTORE PUSH1 0x84 ADD PUSH2 0x1A1 JUMP JUMPDEST DUP1 PUSH1 0x80 ADD MLOAD TIMESTAMP LT PUSH2 0x1621 JUMPI PUSH1 0x40 MLOAD PUSH3 0x461BCD PUSH1 0xE5 SHL DUP2 MSTORE PUSH1 0x20 PUSH1 0x4 DUP3 ADD MSTORE PUSH1 0x2E PUSH1 0x24 DUP3 ADD MSTORE PUSH32 0x4576656E742074696D65206861732070617373656420746875732063616E6E6F PUSH1 0x44 DUP3 ADD MSTORE PUSH14 0x3A1031329030B1B1B2B83A32B217 PUSH1 0x91 SHL PUSH1 0x64 DUP3 ADD MSTORE PUSH1 0x84 ADD PUSH2 0x1A1 JUMP JUMPDEST PUSH1 0x1 SLOAD PUSH1 0x40 DUP1 MLOAD DUP1 DUP3 ADD DUP3 MSTORE PUSH1 0x10 DUP2 MSTORE PUSH16 0x1091551051D0525394D5105353D55395 PUSH1 0x82 SHL PUSH1 0x20 DUP3 ADD MSTORE SWAP1 MLOAD PUSH4 0x22AD378F PUSH1 0xE2 SHL DUP2 MSTORE PUSH1 0x0 SWAP3 PUSH20 0x0 SWAP3 PUSH4 0x1BD95155 SWAP3 PUSH1 0x1 PUSH1 0x1 PUSH1 0xA0 SHL SUB SWAP1 SWAP3 AND SWAP2 PUSH4 0x8AB4DE3C SWAP2 PUSH2 0x1696 SWAP2 DUP10 SWAP2 SWAP1 PUSH1 0x4 ADD PUSH2 0x2AC8 JUMP JUMPDEST PUSH1 0x0 PUSH1 0x40 MLOAD DUP1 DUP4 SUB DUP2 DUP7 DUP1 EXTCODESIZE ISZERO DUP1 ISZERO PUSH2 0x16AE JUMPI PUSH1 0x0 DUP1 REVERT JUMPDEST POP GAS STATICCALL ISZERO DUP1 ISZERO PUSH2 0x16C2 JUMPI RETURNDATASIZE PUSH1 0x0 DUP1 RETURNDATACOPY RETURNDATASIZE PUSH1 0x0 REVERT JUMPDEST POP POP POP POP PUSH1 0x40 MLOAD RETURNDATASIZE PUSH1 0x0 DUP3 RETURNDATACOPY PUSH1 0x1F RETURNDATASIZE SWAP1 DUP2 ADD PUSH1 0x1F NOT AND DUP3 ADD PUSH1 0x40 MSTORE PUSH2 0x16EA SWAP2 SWAP1 DUP2 ADD SWAP1 PUSH2 0x2801 JUMP JUMPDEST PUSH1 0x40 MLOAD DUP3 PUSH4 0xFFFFFFFF AND PUSH1 0xE0 SHL DUP2 MSTORE PUSH1 0x4 ADD PUSH2 0x1706 SWAP2 SWAP1 PUSH2 0x2B16 JUMP JUMPDEST PUSH1 0x20 PUSH1 0x40 MLOAD DUP1 DUP4 SUB DUP2 DUP7 DUP1 EXTCODESIZE ISZERO DUP1 ISZERO PUSH2 0x171E JUMPI PUSH1 0x0 DUP1 REVERT JUMPDEST POP GAS DELEGATECALL ISZERO DUP1 ISZERO PUSH2 0x1732 JUMPI RETURNDATASIZE PUSH1 0x0 DUP1 RETURNDATACOPY RETURNDATASIZE PUSH1 0x0 REVERT JUMPDEST POP POP POP POP PUSH1 0x40 MLOAD RETURNDATASIZE PUSH1 0x1F NOT PUSH1 0x1F DUP3 ADD AND DUP3 ADD DUP1 PUSH1 0x40 MSTORE POP DUP2 ADD SWAP1 PUSH2 0x1756 SWAP2 SWAP1 PUSH2 0x2925 JUMP JUMPDEST PUSH1 0x1 SLOAD PUSH1 0x40 MLOAD PUSH4 0x4DCB7767 PUSH1 0xE1 SHL DUP2 MSTORE CALLER PUSH1 0x4 DUP3 ADD MSTORE SWAP2 SWAP3 POP DUP3 SWAP2 PUSH1 0x1 PUSH1 0x1 PUSH1 0xA0 SHL SUB SWAP1 SWAP2 AND SWAP1 PUSH4 0x9B96EECE SWAP1 PUSH1 0x24 ADD PUSH1 0x20 PUSH1 0x40 MLOAD DUP1 DUP4 SUB DUP2 DUP7 DUP1 EXTCODESIZE ISZERO DUP1 ISZERO PUSH2 0x179E JUMPI PUSH1 0x0 DUP1 REVERT JUMPDEST POP GAS STATICCALL ISZERO DUP1 ISZERO PUSH2 0x17B2 JUMPI RETURNDATASIZE PUSH1 0x0 DUP1 RETURNDATACOPY RETURNDATASIZE PUSH1 0x0 REVERT JUMPDEST POP POP POP POP PUSH1 0x40 MLOAD RETURNDATASIZE PUSH1 0x1F NOT PUSH1 0x1F DUP3 ADD AND DUP3 ADD DUP1 PUSH1 0x40 MSTORE POP DUP2 ADD SWAP1 PUSH2 0x17D6 SWAP2 SWAP1 PUSH2 0x2925 JUMP JUMPDEST LT ISZERO PUSH2 0x1835 JUMPI PUSH1 0x40 MLOAD PUSH3 0x461BCD PUSH1 0xE5 SHL DUP2 MSTORE PUSH1 0x20 PUSH1 0x4 DUP3 ADD MSTORE PUSH1 0x28 PUSH1 0x24 DUP3 ADD MSTORE PUSH32 0x496E73756666696369656E742062616C616E636520746F206163636570742074 PUSH1 0x44 DUP3 ADD MSTORE PUSH8 0x3434B9903132BA17 PUSH1 0xC1 SHL PUSH1 0x64 DUP3 ADD MSTORE PUSH1 0x84 ADD PUSH2 0x1A1 JUMP JUMPDEST PUSH2 0x120 DUP3 ADD MLOAD PUSH1 0x0 SWAP1 PUSH2 0x1848 SWAP1 DUP4 PUSH2 0x1EF3 JUMP JUMPDEST PUSH1 0x1 SLOAD PUSH1 0x40 MLOAD PUSH4 0x9E88FD81 PUSH1 0xE0 SHL DUP2 MSTORE CALLER PUSH1 0x4 DUP3 ADD MSTORE PUSH1 0x24 DUP2 ADD DUP6 SWAP1 MSTORE SWAP2 SWAP3 POP PUSH1 0x1 PUSH1 0x1 PUSH1 0xA0 SHL SUB AND SWAP1 PUSH4 0x9E88FD81 SWAP1 PUSH1 0x44 ADD PUSH1 0x20 PUSH1 0x40 MLOAD DUP1 DUP4 SUB DUP2 PUSH1 0x0 DUP8 DUP1 EXTCODESIZE ISZERO DUP1 ISZERO PUSH2 0x1895 JUMPI PUSH1 0x0 DUP1 REVERT JUMPDEST POP GAS CALL ISZERO DUP1 ISZERO PUSH2 0x18A9 JUMPI RETURNDATASIZE PUSH1 0x0 DUP1 RETURNDATACOPY RETURNDATASIZE PUSH1 0x0 REVERT JUMPDEST POP POP POP POP PUSH1 0x40 MLOAD RETURNDATASIZE PUSH1 0x1F NOT PUSH1 0x1F DUP3 ADD AND DUP3 ADD DUP1 PUSH1 0x40 MSTORE POP DUP2 ADD SWAP1 PUSH2 0x18CD SWAP2 SWAP1 PUSH2 0x27C6 JUMP JUMPDEST POP PUSH2 0x120 DUP4 ADD DUP2 SWAP1 MSTORE PUSH1 0x20 DUP4 ADD MLOAD PUSH1 0x40 MLOAD CALLER SWAP2 SWAP1 PUSH32 0xBA6FB042F08D319F9C2DC1A50C1FDF93DB5ECB56590ED5D2EE87C2933D129472 SWAP1 PUSH1 0x0 SWAP1 LOG3 PUSH1 0x2 PUSH1 0xE0 DUP5 ADD MSTORE PUSH1 0x20 DUP1 DUP5 ADD MLOAD PUSH1 0x80 DUP6 ADD MLOAD PUSH1 0x40 MLOAD SWAP1 DUP2 MSTORE SWAP1 SWAP2 PUSH32 0x753D21093098AC8652616BB7075372E7B26E940AE47204D3226B698BD5EFA4A9 SWAP2 ADD PUSH1 0x40 MLOAD DUP1 SWAP2 SUB SWAP1 LOG2 PUSH1 0x1 SLOAD PUSH1 0x40 DUP1 MLOAD PUSH4 0x6D7DBB41 PUSH1 0xE1 SHL DUP2 MSTORE SWAP1 MLOAD PUSH1 0x1 PUSH1 0x1 PUSH1 0xA0 SHL SUB SWAP1 SWAP3 AND SWAP2 PUSH4 0x2E716659 SWAP2 PUSH2 0x199F SWAP2 DUP7 SWAP2 DUP6 SWAP2 PUSH4 0xDAFB7682 SWAP2 PUSH1 0x4 DUP1 DUP3 ADD SWAP3 PUSH1 0x20 SWAP3 SWAP1 SWAP2 SWAP1 DUP3 SWAP1 SUB ADD DUP2 DUP7 DUP1 EXTCODESIZE ISZERO DUP1 ISZERO PUSH2 0xD00 JUMPI PUSH1 0x0 DUP1 REVERT JUMPDEST PUSH1 0x40 MLOAD DUP3 PUSH4 0xFFFFFFFF AND PUSH1 0xE0 SHL DUP2 MSTORE PUSH1 0x4 ADD PUSH2 0x19BD SWAP2 DUP2 MSTORE PUSH1 0x20 ADD SWAP1 JUMP JUMPDEST PUSH1 0x0 PUSH1 0x40 MLOAD DUP1 DUP4 SUB DUP2 PUSH1 0x0 DUP8 DUP1 EXTCODESIZE ISZERO DUP1 ISZERO PUSH2 0x19D7 JUMPI PUSH1 0x0 DUP1 REVERT JUMPDEST POP GAS CALL ISZERO DUP1 ISZERO PUSH2 0x19EB JUMPI RETURNDATASIZE PUSH1 0x0 DUP1 RETURNDATACOPY RETURNDATASIZE PUSH1 0x0 REVERT JUMPDEST POP POP PUSH1 0x1 SLOAD PUSH1 0x40 MLOAD PUSH4 0x293E2397 PUSH1 0xE1 SHL DUP2 MSTORE PUSH1 0x1 PUSH1 0x1 PUSH1 0xA0 SHL SUB SWAP1 SWAP2 AND SWAP3 POP PUSH4 0x527C472E SWAP2 POP PUSH2 0x1A1F SWAP1 DUP7 SWAP1 PUSH1 0x4 ADD PUSH2 0x2B5E JUMP JUMPDEST PUSH1 0x20 PUSH1 0x40 MLOAD DUP1 DUP4 SUB DUP2 PUSH1 0x0 DUP8 DUP1 EXTCODESIZE ISZERO DUP1 ISZERO PUSH2 0x1A39 JUMPI PUSH1 0x0 DUP1 REVERT JUMPDEST POP GAS CALL ISZERO DUP1 ISZERO PUSH2 0x1A4D JUMPI RETURNDATASIZE PUSH1 0x0 DUP1 RETURNDATACOPY RETURNDATASIZE PUSH1 0x0 REVERT JUMPDEST POP POP POP POP PUSH1 0x40 MLOAD RETURNDATASIZE PUSH1 0x1F NOT PUSH1 0x1F DUP3 ADD AND DUP3 ADD DUP1 PUSH1 0x40 MSTORE POP DUP2 ADD SWAP1 PUSH2 0x1A71 SWAP2 SWAP1 PUSH2 0x27C6 JUMP JUMPDEST POP PUSH1 0x1 SLOAD PUSH1 0x40 DUP1 MLOAD DUP1 DUP3 ADD DUP3 MSTORE PUSH1 0x5 DUP2 MSTORE PUSH5 0x4245544545 PUSH1 0xD8 SHL PUSH1 0x20 DUP3 ADD MSTORE SWAP1 MLOAD PUSH4 0x5E57966D PUSH1 0xE0 SHL DUP2 MSTORE CALLER PUSH1 0x4 DUP3 ADD MSTORE PUSH1 0x1 PUSH1 0x1 PUSH1 0xA0 SHL SUB SWAP1 SWAP3 AND SWAP2 PUSH4 0x203A6BFD SWAP2 DUP8 SWAP2 PUSH20 0x0 SWAP1 PUSH4 0x5E57966D SWAP1 PUSH1 0x24 ADD PUSH1 0x0 PUSH1 0x40 MLOAD DUP1 DUP4 SUB DUP2 DUP7 DUP1 EXTCODESIZE ISZERO DUP1 ISZERO PUSH2 0x1AED JUMPI PUSH1 0x0 DUP1 REVERT JUMPDEST POP GAS DELEGATECALL ISZERO DUP1 ISZERO PUSH2 0x1B01 JUMPI RETURNDATASIZE PUSH1 0x0 DUP1 RETURNDATACOPY RETURNDATASIZE PUSH1 0x0 REVERT JUMPDEST POP POP POP POP PUSH1 0x40 MLOAD RETURNDATASIZE PUSH1 0x0 DUP3 RETURNDATACOPY PUSH1 0x1F RETURNDATASIZE SWAP1 DUP2 ADD PUSH1 0x1F NOT AND DUP3 ADD PUSH1 0x40 MSTORE PUSH2 0x1B29 SWAP2 SWAP1 DUP2 ADD SWAP1 PUSH2 0x2801 JUMP JUMPDEST PUSH1 0x40 MLOAD DUP5 PUSH4 0xFFFFFFFF AND PUSH1 0xE0 SHL DUP2 MSTORE PUSH1 0x4 ADD PUSH2 0x1B47 SWAP4 SWAP3 SWAP2 SWAP1 PUSH2 0x2AE1 JUMP JUMPDEST PUSH1 0x20 PUSH1 0x40 MLOAD DUP1 DUP4 SUB DUP2 PUSH1 0x0 DUP8 DUP1 EXTCODESIZE ISZERO DUP1 ISZERO PUSH2 0x1B61 JUMPI PUSH1 0x0 DUP1 REVERT JUMPDEST POP GAS CALL ISZERO DUP1 ISZERO PUSH2 0x1B75 JUMPI RETURNDATASIZE PUSH1 0x0 DUP1 RETURNDATACOPY RETURNDATASIZE PUSH1 0x0 REVERT JUMPDEST POP POP POP POP PUSH1 0x40 MLOAD RETURNDATASIZE PUSH1 0x1F NOT PUSH1 0x1F DUP3 ADD AND DUP3 ADD DUP1 PUSH1 0x40 MSTORE POP DUP2 ADD SWAP1 PUSH2 0x1B99 SWAP2 SWAP1 PUSH2 0x27C6 JUMP JUMPDEST POP PUSH1 0x1 SLOAD PUSH1 0x20 DUP5 ADD MLOAD PUSH1 0x40 MLOAD PUSH4 0xB5FA4AF7 PUSH1 0xE0 SHL DUP2 MSTORE CALLER PUSH1 0x4 DUP3 ADD MSTORE PUSH1 0x24 DUP2 ADD SWAP2 SWAP1 SWAP2 MSTORE PUSH1 0x1 PUSH1 0x1 PUSH1 0xA0 SHL SUB SWAP1 SWAP2 AND SWAP1 PUSH4 0xB5FA4AF7 SWAP1 PUSH1 0x44 ADD PUSH1 0x0 PUSH1 0x40 MLOAD DUP1 DUP4 SUB DUP2 PUSH1 0x0 DUP8 DUP1 EXTCODESIZE ISZERO DUP1 ISZERO PUSH2 0x1BEC JUMPI PUSH1 0x0 DUP1 REVERT JUMPDEST POP GAS CALL ISZERO DUP1 ISZERO PUSH2 0x1C00 JUMPI RETURNDATASIZE PUSH1 0x0 DUP1 RETURNDATACOPY RETURNDATASIZE PUSH1 0x0 REVERT JUMPDEST POP PUSH1 0x1 SWAP3 POP PUSH2 0x1C0D SWAP2 POP POP JUMP JUMPDEST PUSH1 0xFF AND DUP4 PUSH1 0xA0 ADD MLOAD PUSH1 0xFF AND EQ ISZERO PUSH2 0x1CBD JUMPI PUSH1 0x0 DUP1 PUSH1 0x0 PUSH2 0x1C30 DUP7 PUSH1 0x80 ADD MLOAD PUSH2 0x1DE2 JUMP JUMPDEST POP POP PUSH1 0x1 SLOAD PUSH1 0x40 MLOAD PUSH4 0x3302550F PUSH1 0xE1 SHL DUP2 MSTORE PUSH2 0xFFFF DUP1 DUP8 AND PUSH1 0x4 DUP4 ADD MSTORE DUP1 DUP7 AND PUSH1 0x24 DUP4 ADD MSTORE DUP5 AND PUSH1 0x44 DUP3 ADD MSTORE PUSH1 0x0 PUSH1 0x64 DUP3 ADD MSTORE PUSH1 0x84 DUP2 ADD DUP14 SWAP1 MSTORE SWAP5 SWAP8 POP SWAP3 SWAP6 POP SWAP1 SWAP4 POP POP PUSH1 0x1 PUSH1 0x1 PUSH1 0xA0 SHL SUB AND SWAP1 PUSH4 0x6604AA1E SWAP1 PUSH1 0xA4 ADD PUSH1 0x0 PUSH1 0x40 MLOAD DUP1 DUP4 SUB DUP2 PUSH1 0x0 DUP8 DUP1 EXTCODESIZE ISZERO DUP1 ISZERO PUSH2 0x1CA1 JUMPI PUSH1 0x0 DUP1 REVERT JUMPDEST POP GAS CALL ISZERO DUP1 ISZERO PUSH2 0x1CB5 JUMPI RETURNDATASIZE PUSH1 0x0 DUP1 RETURNDATACOPY RETURNDATASIZE PUSH1 0x0 REVERT JUMPDEST POP POP POP POP POP POP POP JUMPDEST POP POP POP POP JUMP JUMPDEST PUSH1 0x0 SLOAD PUSH1 0x1 PUSH1 0x1 PUSH1 0xA0 SHL SUB AND CALLER EQ PUSH2 0x1CED JUMPI PUSH1 0x40 MLOAD PUSH3 0x461BCD PUSH1 0xE5 SHL DUP2 MSTORE PUSH1 0x4 ADD PUSH2 0x1A1 SWAP1 PUSH2 0x2B29 JUMP JUMPDEST PUSH1 0x1 PUSH1 0x1 PUSH1 0xA0 SHL SUB DUP2 AND PUSH2 0x1D52 JUMPI PUSH1 0x40 MLOAD PUSH3 0x461BCD PUSH1 0xE5 SHL DUP2 MSTORE PUSH1 0x20 PUSH1 0x4 DUP3 ADD MSTORE PUSH1 0x26 PUSH1 0x24 DUP3 ADD MSTORE PUSH32 0x4F776E61626C653A206E6577206F776E657220697320746865207A65726F2061 PUSH1 0x44 DUP3 ADD MSTORE PUSH6 0x646472657373 PUSH1 0xD0 SHL PUSH1 0x64 DUP3 ADD MSTORE PUSH1 0x84 ADD PUSH2 0x1A1 JUMP JUMPDEST PUSH2 0x1D5B DUP2 PUSH2 0x24C4 JUMP JUMPDEST POP JUMP JUMPDEST PUSH1 0x0 SLOAD PUSH1 0x1 PUSH1 0x1 PUSH1 0xA0 SHL SUB AND CALLER EQ PUSH2 0x1D88 JUMPI PUSH1 0x40 MLOAD PUSH3 0x461BCD PUSH1 0xE5 SHL DUP2 MSTORE PUSH1 0x4 ADD PUSH2 0x1A1 SWAP1 PUSH2 0x2B29 JUMP JUMPDEST PUSH1 0x64 DUP2 GT PUSH2 0x1DCA JUMPI PUSH1 0x40 MLOAD PUSH3 0x461BCD PUSH1 0xE5 SHL DUP2 MSTORE PUSH1 0x20 PUSH1 0x4 DUP3 ADD MSTORE PUSH1 0xF PUSH1 0x24 DUP3 ADD MSTORE PUSH15 0x5468697320697320746F6F206C6F77 PUSH1 0x88 SHL PUSH1 0x44 DUP3 ADD MSTORE PUSH1 0x64 ADD PUSH2 0x1A1 JUMP JUMPDEST PUSH1 0x2 SSTORE JUMP JUMPDEST PUSH1 0x0 PUSH2 0x1DDB DUP3 DUP5 PUSH2 0x2EC1 JUMP JUMPDEST SWAP4 SWAP3 POP POP POP JUMP JUMPDEST PUSH1 0x0 DUP1 DUP1 DUP1 DUP1 DUP1 PUSH2 0x1DFE PUSH2 0x1DF9 PUSH3 0x15180 DUP10 PUSH2 0x2D73 JUMP JUMPDEST PUSH2 0x259C JUMP JUMPDEST SWAP2 SWAP8 POP SWAP6 POP SWAP4 POP PUSH1 0x0 PUSH2 0x1E14 PUSH3 0x15180 DUP10 PUSH2 0x2F1F JUMP JUMPDEST SWAP1 POP PUSH2 0x1E22 PUSH2 0xE10 DUP3 PUSH2 0x2D73 JUMP JUMPDEST SWAP4 POP PUSH2 0x1E30 PUSH2 0xE10 DUP3 PUSH2 0x2F1F JUMP JUMPDEST SWAP1 POP PUSH2 0x1E3D PUSH1 0x3C DUP3 PUSH2 0x2D73 JUMP JUMPDEST SWAP3 POP PUSH2 0x1E4A PUSH1 0x3C DUP3 PUSH2 0x2F1F JUMP JUMPDEST SWAP2 POP POP SWAP2 SWAP4 SWAP6 POP SWAP2 SWAP4 SWAP6 JUMP JUMPDEST PUSH1 0x0 SLOAD PUSH1 0x1 PUSH1 0xA0 SHL SWAP1 DIV PUSH1 0xFF AND PUSH2 0x1EA6 JUMPI PUSH1 0x40 MLOAD PUSH3 0x461BCD PUSH1 0xE5 SHL DUP2 MSTORE PUSH1 0x20 PUSH1 0x4 DUP3 ADD MSTORE PUSH1 0x14 PUSH1 0x24 DUP3 ADD MSTORE PUSH20 0x14185D5CD8589B194E881B9BDD081C185D5CD959 PUSH1 0x62 SHL PUSH1 0x44 DUP3 ADD MSTORE PUSH1 0x64 ADD PUSH2 0x1A1 JUMP JUMPDEST PUSH1 0x0 DUP1 SLOAD PUSH1 0xFF PUSH1 0xA0 SHL NOT AND SWAP1 SSTORE PUSH32 0x5DB9EE0A495BF2E6FF9C91A7834C1BA4FDD244A5E8AA4E537BD38AEAE4B073AA CALLER JUMPDEST PUSH1 0x40 MLOAD PUSH1 0x1 PUSH1 0x1 PUSH1 0xA0 SHL SUB SWAP1 SWAP2 AND DUP2 MSTORE PUSH1 0x20 ADD PUSH1 0x40 MLOAD DUP1 SWAP2 SUB SWAP1 LOG1 JUMP JUMPDEST PUSH1 0x0 PUSH2 0x1DDB DUP3 DUP5 PUSH2 0x2D08 JUMP JUMPDEST PUSH1 0x0 DUP2 DUP2 DUP1 DUP1 PUSH1 0x2 JUMPDEST PUSH1 0x2A DUP2 LT ISZERO PUSH2 0x20E1 JUMPI PUSH2 0x1F1D PUSH2 0x100 DUP6 PUSH2 0x2E0C JUMP JUMPDEST SWAP4 POP DUP5 DUP2 DUP2 MLOAD DUP2 LT PUSH2 0x1F31 JUMPI PUSH2 0x1F31 PUSH2 0x2F75 JUMP JUMPDEST ADD PUSH1 0x20 ADD MLOAD PUSH1 0xF8 SHR SWAP3 POP DUP5 PUSH2 0x1F47 DUP3 PUSH1 0x1 PUSH2 0x2D08 JUMP JUMPDEST DUP2 MLOAD DUP2 LT PUSH2 0x1F57 JUMPI PUSH2 0x1F57 PUSH2 0x2F75 JUMP JUMPDEST ADD PUSH1 0x20 ADD MLOAD PUSH1 0xF8 SHR SWAP2 POP PUSH1 0x61 PUSH1 0x1 PUSH1 0x1 PUSH1 0xA0 SHL SUB DUP5 AND LT DUP1 ISZERO SWAP1 PUSH2 0x1F85 JUMPI POP PUSH1 0x66 DUP4 PUSH1 0x1 PUSH1 0x1 PUSH1 0xA0 SHL SUB AND GT ISZERO JUMPDEST ISZERO PUSH2 0x1F9C JUMPI PUSH2 0x1F95 PUSH1 0x57 DUP5 PUSH2 0x2E99 JUMP JUMPDEST SWAP3 POP PUSH2 0x2007 JUMP JUMPDEST PUSH1 0x41 DUP4 PUSH1 0x1 PUSH1 0x1 PUSH1 0xA0 SHL SUB AND LT ISZERO DUP1 ISZERO PUSH2 0x1FC0 JUMPI POP PUSH1 0x46 DUP4 PUSH1 0x1 PUSH1 0x1 PUSH1 0xA0 SHL SUB AND GT ISZERO JUMPDEST ISZERO PUSH2 0x1FD0 JUMPI PUSH2 0x1F95 PUSH1 0x37 DUP5 PUSH2 0x2E99 JUMP JUMPDEST PUSH1 0x30 DUP4 PUSH1 0x1 PUSH1 0x1 PUSH1 0xA0 SHL SUB AND LT ISZERO DUP1 ISZERO PUSH2 0x1FF4 JUMPI POP PUSH1 0x39 DUP4 PUSH1 0x1 PUSH1 0x1 PUSH1 0xA0 SHL SUB AND GT ISZERO JUMPDEST ISZERO PUSH2 0x2007 JUMPI PUSH2 0x2004 PUSH1 0x30 DUP5 PUSH2 0x2E99 JUMP JUMPDEST SWAP3 POP JUMPDEST PUSH1 0x61 DUP3 PUSH1 0x1 PUSH1 0x1 PUSH1 0xA0 SHL SUB AND LT ISZERO DUP1 ISZERO PUSH2 0x202B JUMPI POP PUSH1 0x66 DUP3 PUSH1 0x1 PUSH1 0x1 PUSH1 0xA0 SHL SUB AND GT ISZERO JUMPDEST ISZERO PUSH2 0x2042 JUMPI PUSH2 0x203B PUSH1 0x57 DUP4 PUSH2 0x2E99 JUMP JUMPDEST SWAP2 POP PUSH2 0x20AD JUMP JUMPDEST PUSH1 0x41 DUP3 PUSH1 0x1 PUSH1 0x1 PUSH1 0xA0 SHL SUB AND LT ISZERO DUP1 ISZERO PUSH2 0x2066 JUMPI POP PUSH1 0x46 DUP3 PUSH1 0x1 PUSH1 0x1 PUSH1 0xA0 SHL SUB AND GT ISZERO JUMPDEST ISZERO PUSH2 0x2076 JUMPI PUSH2 0x203B PUSH1 0x37 DUP4 PUSH2 0x2E99 JUMP JUMPDEST PUSH1 0x30 DUP3 PUSH1 0x1 PUSH1 0x1 PUSH1 0xA0 SHL SUB AND LT ISZERO DUP1 ISZERO PUSH2 0x209A JUMPI POP PUSH1 0x39 DUP3 PUSH1 0x1 PUSH1 0x1 PUSH1 0xA0 SHL SUB AND GT ISZERO JUMPDEST ISZERO PUSH2 0x20AD JUMPI PUSH2 0x20AA PUSH1 0x30 DUP4 PUSH2 0x2E99 JUMP JUMPDEST SWAP2 POP JUMPDEST DUP2 PUSH2 0x20B9 DUP5 PUSH1 0x10 PUSH2 0x2E0C JUMP JUMPDEST PUSH2 0x20C3 SWAP2 SWAP1 PUSH2 0x2CDD JUMP JUMPDEST PUSH2 0x20CD SWAP1 DUP6 PUSH2 0x2CDD JUMP JUMPDEST SWAP4 POP PUSH2 0x20DA PUSH1 0x2 DUP3 PUSH2 0x2D08 JUMP JUMPDEST SWAP1 POP PUSH2 0x1F08 JUMP JUMPDEST POP SWAP2 SWAP6 SWAP5 POP POP POP POP POP JUMP JUMPDEST PUSH1 0x1 SLOAD PUSH1 0x40 DUP1 MLOAD PUSH4 0x20DFEEFB PUSH1 0xE2 SHL DUP2 MSTORE SWAP1 MLOAD PUSH1 0x0 SWAP3 PUSH1 0x1 PUSH1 0x1 PUSH1 0xA0 SHL SUB AND SWAP2 PUSH4 0x837FBBEC SWAP2 PUSH1 0x4 DUP1 DUP4 ADD SWAP3 PUSH1 0x20 SWAP3 SWAP2 SWAP1 DUP3 SWAP1 SUB ADD DUP2 DUP7 DUP1 EXTCODESIZE ISZERO DUP1 ISZERO PUSH2 0x2131 JUMPI PUSH1 0x0 DUP1 REVERT JUMPDEST POP GAS STATICCALL ISZERO DUP1 ISZERO PUSH2 0x2145 JUMPI RETURNDATASIZE PUSH1 0x0 DUP1 RETURNDATACOPY RETURNDATASIZE PUSH1 0x0 REVERT JUMPDEST POP POP POP POP PUSH1 0x40 MLOAD RETURNDATASIZE PUSH1 0x1F NOT PUSH1 0x1F DUP3 ADD AND DUP3 ADD DUP1 PUSH1 0x40 MSTORE POP DUP2 ADD SWAP1 PUSH2 0x2169 SWAP2 SWAP1 PUSH2 0x2925 JUMP JUMPDEST PUSH1 0x1 PUSH1 0x0 SWAP1 SLOAD SWAP1 PUSH2 0x100 EXP SWAP1 DIV PUSH1 0x1 PUSH1 0x1 PUSH1 0xA0 SHL SUB AND PUSH1 0x1 PUSH1 0x1 PUSH1 0xA0 SHL SUB AND PUSH4 0x15A54A64 PUSH1 0x40 MLOAD DUP2 PUSH4 0xFFFFFFFF AND PUSH1 0xE0 SHL DUP2 MSTORE PUSH1 0x4 ADD PUSH1 0x20 PUSH1 0x40 MLOAD DUP1 DUP4 SUB DUP2 DUP7 DUP1 EXTCODESIZE ISZERO DUP1 ISZERO PUSH2 0x21B7 JUMPI PUSH1 0x0 DUP1 REVERT JUMPDEST POP GAS STATICCALL ISZERO DUP1 ISZERO PUSH2 0x21CB JUMPI RETURNDATASIZE PUSH1 0x0 DUP1 RETURNDATACOPY RETURNDATASIZE PUSH1 0x0 REVERT JUMPDEST POP POP POP POP PUSH1 0x40 MLOAD RETURNDATASIZE PUSH1 0x1F NOT PUSH1 0x1F DUP3 ADD AND DUP3 ADD DUP1 PUSH1 0x40 MSTORE POP DUP2 ADD SWAP1 PUSH2 0x21EF SWAP2 SWAP1 PUSH2 0x2925 JUMP JUMPDEST LT ISZERO SWAP1 POP SWAP1 JUMP JUMPDEST PUSH1 0x0 DUP1 PUSH1 0x1 PUSH1 0x0 SWAP1 SLOAD SWAP1 PUSH2 0x100 EXP SWAP1 DIV PUSH1 0x1 PUSH1 0x1 PUSH1 0xA0 SHL SUB AND PUSH1 0x1 PUSH1 0x1 PUSH1 0xA0 SHL SUB AND PUSH4 0xDAFB7682 PUSH1 0x40 MLOAD DUP2 PUSH4 0xFFFFFFFF AND PUSH1 0xE0 SHL DUP2 MSTORE PUSH1 0x4 ADD PUSH1 0x20 PUSH1 0x40 MLOAD DUP1 DUP4 SUB DUP2 DUP7 DUP1 EXTCODESIZE ISZERO DUP1 ISZERO PUSH2 0x2247 JUMPI PUSH1 0x0 DUP1 REVERT JUMPDEST POP GAS STATICCALL ISZERO DUP1 ISZERO PUSH2 0x225B JUMPI RETURNDATASIZE PUSH1 0x0 DUP1 RETURNDATACOPY RETURNDATASIZE PUSH1 0x0 REVERT JUMPDEST POP POP POP POP PUSH1 0x40 MLOAD RETURNDATASIZE PUSH1 0x1F NOT PUSH1 0x1F DUP3 ADD AND DUP3 ADD DUP1 PUSH1 0x40 MSTORE POP DUP2 ADD SWAP1 PUSH2 0x227F SWAP2 SWAP1 PUSH2 0x2925 JUMP JUMPDEST SWAP1 POP PUSH2 0x228C PUSH2 0x2710 PUSH2 0x2710 JUMP JUMPDEST DUP2 LT ISZERO PUSH2 0x229E JUMPI PUSH4 0x59682F00 SWAP2 POP POP SWAP1 JUMP JUMPDEST PUSH2 0x22AA PUSH3 0x186A0 PUSH2 0x2710 JUMP JUMPDEST DUP2 LT ISZERO PUSH2 0x22BC JUMPI PUSH4 0x1BB75640 SWAP2 POP POP SWAP1 JUMP JUMPDEST PUSH2 0x22C8 PUSH3 0xF4240 PUSH2 0x2710 JUMP JUMPDEST DUP2 LT ISZERO PUSH2 0x22DA JUMPI PUSH4 0x8978DF0 SWAP2 POP POP SWAP1 JUMP JUMPDEST PUSH2 0x22E6 PUSH3 0x989680 PUSH2 0x2710 JUMP JUMPDEST DUP2 LT ISZERO PUSH2 0x22F8 JUMPI PUSH4 0x2A9DAB0 SWAP2 POP POP SWAP1 JUMP JUMPDEST PUSH2 0x2305 PUSH4 0x5F5E100 PUSH2 0x2710 JUMP JUMPDEST DUP2 LT ISZERO PUSH2 0x2316 JUMPI PUSH3 0xD35D60 SWAP2 POP POP SWAP1 JUMP JUMPDEST PUSH2 0x2323 PUSH4 0x3B9ACA00 PUSH2 0x2710 JUMP JUMPDEST DUP2 LT ISZERO PUSH2 0x2334 JUMPI PUSH3 0x418570 SWAP2 POP POP SWAP1 JUMP JUMPDEST PUSH2 0x2342 PUSH5 0x2540BE400 PUSH2 0x2710 JUMP JUMPDEST DUP2 LT ISZERO PUSH2 0x2353 JUMPI PUSH3 0x144F38 SWAP2 POP POP SWAP1 JUMP JUMPDEST PUSH2 0x2361 PUSH5 0x174876E800 PUSH2 0x2710 JUMP JUMPDEST DUP2 LT ISZERO PUSH2 0x2372 JUMPI PUSH3 0x64960 SWAP2 POP POP SWAP1 JUMP JUMPDEST PUSH2 0x2380 PUSH5 0xE8D4A51000 PUSH2 0x2710 JUMP JUMPDEST DUP2 LT ISZERO PUSH2 0x2391 JUMPI PUSH3 0x1F018 SWAP2 POP POP SWAP1 JUMP JUMPDEST PUSH3 0x186A0 SWAP2 POP POP SWAP1 JUMP JUMPDEST PUSH1 0x60 DUP2 PUSH2 0x23BF JUMPI POP POP PUSH1 0x40 DUP1 MLOAD DUP1 DUP3 ADD SWAP1 SWAP2 MSTORE PUSH1 0x1 DUP2 MSTORE PUSH1 0x3 PUSH1 0xFC SHL PUSH1 0x20 DUP3 ADD MSTORE SWAP1 JUMP JUMPDEST DUP2 PUSH1 0x0 JUMPDEST DUP2 ISZERO PUSH2 0x23E9 JUMPI DUP1 PUSH2 0x23D3 DUP2 PUSH2 0x2F04 JUMP JUMPDEST SWAP2 POP PUSH2 0x23E2 SWAP1 POP PUSH1 0xA DUP4 PUSH2 0x2D73 JUMP JUMPDEST SWAP2 POP PUSH2 0x23C3 JUMP JUMPDEST PUSH1 0x0 DUP2 PUSH8 0xFFFFFFFFFFFFFFFF DUP2 GT ISZERO PUSH2 0x2404 JUMPI PUSH2 0x2404 PUSH2 0x2F8B JUMP JUMPDEST PUSH1 0x40 MLOAD SWAP1 DUP1 DUP3 MSTORE DUP1 PUSH1 0x1F ADD PUSH1 0x1F NOT AND PUSH1 0x20 ADD DUP3 ADD PUSH1 0x40 MSTORE DUP1 ISZERO PUSH2 0x242E JUMPI PUSH1 0x20 DUP3 ADD DUP2 DUP1 CALLDATASIZE DUP4 CALLDATACOPY ADD SWAP1 POP JUMPDEST POP SWAP1 POP DUP2 JUMPDEST DUP6 ISZERO PUSH2 0x24BB JUMPI PUSH2 0x2444 PUSH1 0x1 DUP3 PUSH2 0x2EC1 JUMP JUMPDEST SWAP1 POP PUSH1 0x0 PUSH2 0x2453 PUSH1 0xA DUP9 PUSH2 0x2D73 JUMP JUMPDEST PUSH2 0x245E SWAP1 PUSH1 0xA PUSH2 0x2E3B JUMP JUMPDEST PUSH2 0x2468 SWAP1 DUP9 PUSH2 0x2EC1 JUMP JUMPDEST PUSH2 0x2473 SWAP1 PUSH1 0x30 PUSH2 0x2D20 JUMP JUMPDEST SWAP1 POP PUSH1 0x0 DUP2 PUSH1 0xF8 SHL SWAP1 POP DUP1 DUP5 DUP5 DUP2 MLOAD DUP2 LT PUSH2 0x2490 JUMPI PUSH2 0x2490 PUSH2 0x2F75 JUMP JUMPDEST PUSH1 0x20 ADD ADD SWAP1 PUSH1 0x1 PUSH1 0x1 PUSH1 0xF8 SHL SUB NOT AND SWAP1 DUP2 PUSH1 0x0 BYTE SWAP1 MSTORE8 POP PUSH2 0x24B2 PUSH1 0xA DUP10 PUSH2 0x2D73 JUMP JUMPDEST SWAP8 POP POP POP PUSH2 0x2433 JUMP JUMPDEST POP SWAP5 SWAP4 POP POP POP POP JUMP JUMPDEST PUSH1 0x0 DUP1 SLOAD PUSH1 0x1 PUSH1 0x1 PUSH1 0xA0 SHL SUB DUP4 DUP2 AND PUSH1 0x1 PUSH1 0x1 PUSH1 0xA0 SHL SUB NOT DUP4 AND DUP2 OR DUP5 SSTORE PUSH1 0x40 MLOAD SWAP2 SWAP1 SWAP3 AND SWAP3 DUP4 SWAP2 PUSH32 0x8BE0079C531659141344CD1FD0A4F28419497F9722A3DAAFE3B4186F6B6457E0 SWAP2 SWAP1 LOG3 POP POP JUMP JUMPDEST PUSH1 0x0 SLOAD PUSH1 0x1 PUSH1 0xA0 SHL SWAP1 DIV PUSH1 0xFF AND ISZERO PUSH2 0x2561 JUMPI PUSH1 0x40 MLOAD PUSH3 0x461BCD PUSH1 0xE5 SHL DUP2 MSTORE PUSH1 0x20 PUSH1 0x4 DUP3 ADD MSTORE PUSH1 0x10 PUSH1 0x24 DUP3 ADD MSTORE PUSH16 0x14185D5CD8589B194E881C185D5CD959 PUSH1 0x82 SHL PUSH1 0x44 DUP3 ADD MSTORE PUSH1 0x64 ADD PUSH2 0x1A1 JUMP JUMPDEST PUSH1 0x0 DUP1 SLOAD PUSH1 0xFF PUSH1 0xA0 SHL NOT AND PUSH1 0x1 PUSH1 0xA0 SHL OR SWAP1 SSTORE PUSH32 0x62E78CEA01BEE320CD4E420270B5EA74000D11B0C9F74754EBDBFC544B05A258 PUSH2 0x1ED6 CALLER SWAP1 JUMP JUMPDEST PUSH1 0x0 DUP1 DUP1 DUP4 DUP2 PUSH3 0x253D8C PUSH2 0x25B3 DUP4 PUSH3 0x10BD9 PUSH2 0x2C9C JUMP JUMPDEST PUSH2 0x25BD SWAP2 SWAP1 PUSH2 0x2C9C JUMP JUMPDEST SWAP1 POP PUSH1 0x0 PUSH3 0x23AB1 PUSH2 0x25D0 DUP4 PUSH1 0x4 PUSH2 0x2D87 JUMP JUMPDEST PUSH2 0x25DA SWAP2 SWAP1 PUSH2 0x2D45 JUMP JUMPDEST SWAP1 POP PUSH1 0x4 PUSH2 0x25EB DUP3 PUSH3 0x23AB1 PUSH2 0x2D87 JUMP JUMPDEST PUSH2 0x25F6 SWAP1 PUSH1 0x3 PUSH2 0x2C9C JUMP JUMPDEST PUSH2 0x2600 SWAP2 SWAP1 PUSH2 0x2D45 JUMP JUMPDEST PUSH2 0x260A SWAP1 DUP4 PUSH2 0x2E5A JUMP JUMPDEST SWAP2 POP PUSH1 0x0 PUSH3 0x164B09 PUSH2 0x261D DUP5 PUSH1 0x1 PUSH2 0x2C9C JUMP JUMPDEST PUSH2 0x2629 SWAP1 PUSH2 0xFA0 PUSH2 0x2D87 JUMP JUMPDEST PUSH2 0x2633 SWAP2 SWAP1 PUSH2 0x2D45 JUMP JUMPDEST SWAP1 POP PUSH1 0x4 PUSH2 0x2643 DUP3 PUSH2 0x5B5 PUSH2 0x2D87 JUMP JUMPDEST PUSH2 0x264D SWAP2 SWAP1 PUSH2 0x2D45 JUMP JUMPDEST PUSH2 0x2657 SWAP1 DUP5 PUSH2 0x2E5A JUMP JUMPDEST PUSH2 0x2662 SWAP1 PUSH1 0x1F PUSH2 0x2C9C JUMP JUMPDEST SWAP3 POP PUSH1 0x0 PUSH2 0x98F PUSH2 0x2674 DUP6 PUSH1 0x50 PUSH2 0x2D87 JUMP JUMPDEST PUSH2 0x267E SWAP2 SWAP1 PUSH2 0x2D45 JUMP JUMPDEST SWAP1 POP PUSH1 0x0 PUSH1 0x50 PUSH2 0x2690 DUP4 PUSH2 0x98F PUSH2 0x2D87 JUMP JUMPDEST PUSH2 0x269A SWAP2 SWAP1 PUSH2 0x2D45 JUMP JUMPDEST PUSH2 0x26A4 SWAP1 DUP7 PUSH2 0x2E5A JUMP JUMPDEST SWAP1 POP PUSH2 0x26B1 PUSH1 0xB DUP4 PUSH2 0x2D45 JUMP JUMPDEST SWAP5 POP PUSH2 0x26BE DUP6 PUSH1 0xC PUSH2 0x2D87 JUMP JUMPDEST PUSH2 0x26C9 DUP4 PUSH1 0x2 PUSH2 0x2C9C JUMP JUMPDEST PUSH2 0x26D3 SWAP2 SWAP1 PUSH2 0x2E5A JUMP JUMPDEST SWAP2 POP DUP5 DUP4 PUSH2 0x26E2 PUSH1 0x31 DUP8 PUSH2 0x2E5A JUMP JUMPDEST PUSH2 0x26ED SWAP1 PUSH1 0x64 PUSH2 0x2D87 JUMP JUMPDEST PUSH2 0x26F7 SWAP2 SWAP1 PUSH2 0x2C9C JUMP JUMPDEST PUSH2 0x2701 SWAP2 SWAP1 PUSH2 0x2C9C JUMP JUMPDEST SWAP11 SWAP2 SWAP10 POP SWAP8 POP SWAP6 POP POP POP POP POP POP JUMP JUMPDEST PUSH1 0x0 PUSH2 0x2724 DUP3 PUSH8 0xDE0B6B3A7640000 PUSH2 0x2E3B JUMP JUMPDEST SWAP3 SWAP2 POP POP JUMP JUMPDEST DUP1 MLOAD PUSH2 0x2735 DUP2 PUSH2 0x2FA1 JUMP JUMPDEST SWAP2 SWAP1 POP JUMP JUMPDEST PUSH1 0x0 DUP3 PUSH1 0x1F DUP4 ADD SLT PUSH2 0x274B JUMPI PUSH1 0x0 DUP1 REVERT JUMPDEST DUP2 MLOAD PUSH2 0x275E PUSH2 0x2759 DUP3 PUSH2 0x2C74 JUMP JUMPDEST PUSH2 0x2C43 JUMP JUMPDEST DUP2 DUP2 MSTORE DUP5 PUSH1 0x20 DUP4 DUP7 ADD ADD GT ISZERO PUSH2 0x2773 JUMPI PUSH1 0x0 DUP1 REVERT JUMPDEST PUSH2 0x2784 DUP3 PUSH1 0x20 DUP4 ADD PUSH1 0x20 DUP8 ADD PUSH2 0x2ED8 JUMP JUMPDEST SWAP5 SWAP4 POP POP POP POP JUMP JUMPDEST DUP1 MLOAD PUSH2 0xFFFF DUP2 AND DUP2 EQ PUSH2 0x2735 JUMPI PUSH1 0x0 DUP1 REVERT JUMPDEST DUP1 MLOAD PUSH2 0x2735 DUP2 PUSH2 0x2FB6 JUMP JUMPDEST PUSH1 0x0 PUSH1 0x20 DUP3 DUP5 SUB SLT ISZERO PUSH2 0x27BB JUMPI PUSH1 0x0 DUP1 REVERT JUMPDEST DUP2 CALLDATALOAD PUSH2 0x1DDB DUP2 PUSH2 0x2FA1 JUMP JUMPDEST PUSH1 0x0 PUSH1 0x20 DUP3 DUP5 SUB SLT ISZERO PUSH2 0x27D8 JUMPI PUSH1 0x0 DUP1 REVERT JUMPDEST DUP2 MLOAD DUP1 ISZERO ISZERO DUP2 EQ PUSH2 0x1DDB JUMPI PUSH1 0x0 DUP1 REVERT JUMPDEST PUSH1 0x0 PUSH1 0x20 DUP3 DUP5 SUB SLT ISZERO PUSH2 0x27FA JUMPI PUSH1 0x0 DUP1 REVERT JUMPDEST POP CALLDATALOAD SWAP2 SWAP1 POP JUMP JUMPDEST PUSH1 0x0 PUSH1 0x20 DUP3 DUP5 SUB SLT ISZERO PUSH2 0x2813 JUMPI PUSH1 0x0 DUP1 REVERT JUMPDEST DUP2 MLOAD PUSH8 0xFFFFFFFFFFFFFFFF DUP2 GT ISZERO PUSH2 0x282A JUMPI PUSH1 0x0 DUP1 REVERT JUMPDEST PUSH2 0x2784 DUP5 DUP3 DUP6 ADD PUSH2 0x273A JUMP JUMPDEST PUSH1 0x0 PUSH1 0x20 DUP3 DUP5 SUB SLT ISZERO PUSH2 0x2848 JUMPI PUSH1 0x0 DUP1 REVERT JUMPDEST DUP2 MLOAD PUSH8 0xFFFFFFFFFFFFFFFF DUP1 DUP3 GT ISZERO PUSH2 0x2860 JUMPI PUSH1 0x0 DUP1 REVERT JUMPDEST SWAP1 DUP4 ADD SWAP1 PUSH2 0x140 DUP3 DUP7 SUB SLT ISZERO PUSH2 0x2875 JUMPI PUSH1 0x0 DUP1 REVERT JUMPDEST PUSH2 0x287D PUSH2 0x2C19 JUMP JUMPDEST PUSH2 0x2886 DUP4 PUSH2 0x278C JUMP JUMPDEST DUP2 MSTORE PUSH1 0x20 DUP4 ADD MLOAD PUSH1 0x20 DUP3 ADD MSTORE PUSH2 0x289E PUSH1 0x40 DUP5 ADD PUSH2 0x272A JUMP JUMPDEST PUSH1 0x40 DUP3 ADD MSTORE PUSH1 0x60 DUP4 ADD MLOAD DUP3 DUP2 GT ISZERO PUSH2 0x28B5 JUMPI PUSH1 0x0 DUP1 REVERT JUMPDEST PUSH2 0x28C1 DUP8 DUP3 DUP7 ADD PUSH2 0x273A JUMP JUMPDEST PUSH1 0x60 DUP4 ADD MSTORE POP PUSH1 0x80 DUP4 ADD MLOAD PUSH1 0x80 DUP3 ADD MSTORE PUSH2 0x28DD PUSH1 0xA0 DUP5 ADD PUSH2 0x279E JUMP JUMPDEST PUSH1 0xA0 DUP3 ADD MSTORE PUSH2 0x28EE PUSH1 0xC0 DUP5 ADD PUSH2 0x279E JUMP JUMPDEST PUSH1 0xC0 DUP3 ADD MSTORE PUSH2 0x28FF PUSH1 0xE0 DUP5 ADD PUSH2 0x279E JUMP JUMPDEST PUSH1 0xE0 DUP3 ADD MSTORE PUSH2 0x100 DUP4 DUP2 ADD MLOAD SWAP1 DUP3 ADD MSTORE PUSH2 0x120 SWAP3 DUP4 ADD MLOAD SWAP3 DUP2 ADD SWAP3 SWAP1 SWAP3 MSTORE POP SWAP4 SWAP3 POP POP POP JUMP JUMPDEST PUSH1 0x0 PUSH1 0x20 DUP3 DUP5 SUB SLT ISZERO PUSH2 0x2937 JUMPI PUSH1 0x0 DUP1 REVERT JUMPDEST POP MLOAD SWAP2 SWAP1 POP JUMP JUMPDEST PUSH1 0x0 DUP1 PUSH1 0x0 DUP1 PUSH1 0x0 DUP1 PUSH1 0xC0 DUP8 DUP10 SUB SLT ISZERO PUSH2 0x2957 JUMPI PUSH1 0x0 DUP1 REVERT JUMPDEST DUP7 CALLDATALOAD SWAP6 POP PUSH1 0x20 DUP8 ADD CALLDATALOAD SWAP5 POP PUSH1 0x40 DUP8 ADD CALLDATALOAD SWAP4 POP PUSH2 0x2976 PUSH1 0x60 DUP9 ADD CALLDATALOAD PUSH2 0x2FB6 JUMP JUMPDEST PUSH1 0x60 DUP8 ADD CALLDATALOAD SWAP3 POP PUSH2 0x298A PUSH1 0x80 DUP9 ADD CALLDATALOAD PUSH2 0x2FB6 JUMP JUMPDEST PUSH1 0x80 DUP8 ADD CALLDATALOAD SWAP2 POP PUSH8 0xFFFFFFFFFFFFFFFF DUP1 PUSH1 0xA0 DUP10 ADD CALLDATALOAD GT ISZERO PUSH2 0x29AB JUMPI PUSH1 0x0 DUP1 REVERT JUMPDEST PUSH1 0xA0 DUP9 ADD CALLDATALOAD DUP9 ADD DUP10 PUSH1 0x1F DUP3 ADD SLT PUSH2 0x29C1 JUMPI PUSH1 0x0 DUP1 REVERT JUMPDEST DUP2 DUP2 CALLDATALOAD GT ISZERO PUSH2 0x29D2 JUMPI PUSH2 0x29D2 PUSH2 0x2F8B JUMP JUMPDEST PUSH2 0x29E2 PUSH1 0x20 DUP3 CALLDATALOAD PUSH1 0x5 SHL ADD PUSH2 0x2C43 JUMP JUMPDEST DUP1 DUP3 CALLDATALOAD DUP3 MSTORE PUSH1 0x20 DUP3 ADD SWAP2 POP PUSH1 0x20 DUP4 ADD DUP13 PUSH1 0x20 DUP6 CALLDATALOAD PUSH1 0x5 SHL DUP7 ADD ADD GT ISZERO PUSH2 0x2A07 JUMPI PUSH1 0x0 DUP1 REVERT JUMPDEST PUSH1 0x0 JUMPDEST DUP5 CALLDATALOAD DUP2 LT ISZERO PUSH2 0x2A89 JUMPI DUP6 DUP3 CALLDATALOAD GT ISZERO PUSH2 0x2A21 JUMPI PUSH1 0x0 DUP1 REVERT JUMPDEST DUP14 PUSH1 0x3F DUP4 CALLDATALOAD DUP8 ADD ADD SLT PUSH2 0x2A33 JUMPI PUSH1 0x0 DUP1 REVERT JUMPDEST PUSH1 0x20 DUP3 CALLDATALOAD DUP7 ADD ADD CALLDATALOAD PUSH2 0x2A47 PUSH2 0x2759 DUP3 PUSH2 0x2C74 JUMP JUMPDEST DUP2 DUP2 MSTORE DUP16 PUSH1 0x40 DUP4 DUP7 CALLDATALOAD DUP11 ADD ADD ADD GT ISZERO PUSH2 0x2A5F JUMPI PUSH1 0x0 DUP1 REVERT JUMPDEST DUP2 PUSH1 0x40 DUP6 CALLDATALOAD DUP10 ADD ADD PUSH1 0x20 DUP4 ADD CALLDATACOPY PUSH1 0x0 PUSH1 0x20 SWAP3 DUP3 ADD DUP4 ADD MSTORE DUP6 MSTORE SWAP4 DUP5 ADD SWAP4 SWAP2 SWAP1 SWAP2 ADD SWAP1 PUSH1 0x1 ADD PUSH2 0x2A0A JUMP JUMPDEST POP POP DUP1 SWAP5 POP POP POP POP POP SWAP3 SWAP6 POP SWAP3 SWAP6 POP SWAP3 SWAP6 JUMP JUMPDEST PUSH1 0x0 DUP2 MLOAD DUP1 DUP5 MSTORE PUSH2 0x2AB4 DUP2 PUSH1 0x20 DUP7 ADD PUSH1 0x20 DUP7 ADD PUSH2 0x2ED8 JUMP JUMPDEST PUSH1 0x1F ADD PUSH1 0x1F NOT AND SWAP3 SWAP1 SWAP3 ADD PUSH1 0x20 ADD SWAP3 SWAP2 POP POP JUMP JUMPDEST DUP3 DUP2 MSTORE PUSH1 0x40 PUSH1 0x20 DUP3 ADD MSTORE PUSH1 0x0 PUSH2 0x2784 PUSH1 0x40 DUP4 ADD DUP5 PUSH2 0x2A9C JUMP JUMPDEST DUP4 DUP2 MSTORE PUSH1 0x60 PUSH1 0x20 DUP3 ADD MSTORE PUSH1 0x0 PUSH2 0x2AFA PUSH1 0x60 DUP4 ADD DUP6 PUSH2 0x2A9C JUMP JUMPDEST DUP3 DUP2 SUB PUSH1 0x40 DUP5 ADD MSTORE PUSH2 0x2B0C DUP2 DUP6 PUSH2 0x2A9C JUMP JUMPDEST SWAP7 SWAP6 POP POP POP POP POP POP JUMP JUMPDEST PUSH1 0x20 DUP2 MSTORE PUSH1 0x0 PUSH2 0x1DDB PUSH1 0x20 DUP4 ADD DUP5 PUSH2 0x2A9C JUMP JUMPDEST PUSH1 0x20 DUP1 DUP3 MSTORE DUP2 DUP2 ADD MSTORE PUSH32 0x4F776E61626C653A2063616C6C6572206973206E6F7420746865206F776E6572 PUSH1 0x40 DUP3 ADD MSTORE PUSH1 0x60 ADD SWAP1 JUMP JUMPDEST PUSH1 0x20 DUP2 MSTORE PUSH2 0x2B73 PUSH1 0x20 DUP3 ADD DUP4 MLOAD PUSH2 0xFFFF AND SWAP1 MSTORE JUMP JUMPDEST PUSH1 0x20 DUP3 ADD MLOAD PUSH1 0x40 DUP3 ADD MSTORE PUSH1 0x0 PUSH1 0x40 DUP4 ADD MLOAD PUSH2 0x2B99 PUSH1 0x60 DUP5 ADD DUP3 PUSH1 0x1 PUSH1 0x1 PUSH1 0xA0 SHL SUB AND SWAP1 MSTORE JUMP JUMPDEST POP PUSH1 0x60 DUP4 ADD MLOAD PUSH2 0x140 DUP1 PUSH1 0x80 DUP6 ADD MSTORE PUSH2 0x2BB6 PUSH2 0x160 DUP6 ADD DUP4 PUSH2 0x2A9C JUMP JUMPDEST SWAP2 POP PUSH1 0x80 DUP6 ADD MLOAD PUSH1 0xA0 DUP6 ADD MSTORE PUSH1 0xA0 DUP6 ADD MLOAD PUSH2 0x2BD6 PUSH1 0xC0 DUP7 ADD DUP3 PUSH1 0xFF AND SWAP1 MSTORE JUMP JUMPDEST POP PUSH1 0xC0 DUP6 ADD MLOAD PUSH1 0xFF DUP2 AND PUSH1 0xE0 DUP7 ADD MSTORE POP PUSH1 0xE0 DUP6 ADD MLOAD PUSH2 0x100 PUSH2 0x2BFC DUP2 DUP8 ADD DUP4 PUSH1 0xFF AND SWAP1 MSTORE JUMP JUMPDEST DUP7 ADD MLOAD PUSH2 0x120 DUP7 DUP2 ADD SWAP2 SWAP1 SWAP2 MSTORE SWAP1 SWAP6 ADD MLOAD SWAP4 ADD SWAP3 SWAP1 SWAP3 MSTORE POP SWAP2 SWAP1 POP JUMP JUMPDEST PUSH1 0x40 MLOAD PUSH2 0x140 DUP2 ADD PUSH8 0xFFFFFFFFFFFFFFFF DUP2 GT DUP3 DUP3 LT OR ISZERO PUSH2 0x2C3D JUMPI PUSH2 0x2C3D PUSH2 0x2F8B JUMP JUMPDEST PUSH1 0x40 MSTORE SWAP1 JUMP JUMPDEST PUSH1 0x40 MLOAD PUSH1 0x1F DUP3 ADD PUSH1 0x1F NOT AND DUP2 ADD PUSH8 0xFFFFFFFFFFFFFFFF DUP2 GT DUP3 DUP3 LT OR ISZERO PUSH2 0x2C6C JUMPI PUSH2 0x2C6C PUSH2 0x2F8B JUMP JUMPDEST PUSH1 0x40 MSTORE SWAP2 SWAP1 POP JUMP JUMPDEST PUSH1 0x0 PUSH8 0xFFFFFFFFFFFFFFFF DUP3 GT ISZERO PUSH2 0x2C8E JUMPI PUSH2 0x2C8E PUSH2 0x2F8B JUMP JUMPDEST POP PUSH1 0x1F ADD PUSH1 0x1F NOT AND PUSH1 0x20 ADD SWAP1 JUMP JUMPDEST PUSH1 0x0 DUP1 DUP3 SLT DUP1 ISZERO PUSH1 0x1 PUSH1 0x1 PUSH1 0xFF SHL SUB DUP5 SWAP1 SUB DUP6 SGT AND ISZERO PUSH2 0x2CBE JUMPI PUSH2 0x2CBE PUSH2 0x2F33 JUMP JUMPDEST PUSH1 0x1 PUSH1 0xFF SHL DUP4 SWAP1 SUB DUP5 SLT DUP2 AND ISZERO PUSH2 0x2CD7 JUMPI PUSH2 0x2CD7 PUSH2 0x2F33 JUMP JUMPDEST POP POP ADD SWAP1 JUMP JUMPDEST PUSH1 0x0 PUSH1 0x1 PUSH1 0x1 PUSH1 0xA0 SHL SUB DUP3 DUP2 AND DUP5 DUP3 AND DUP1 DUP4 SUB DUP3 GT ISZERO PUSH2 0x2CFF JUMPI PUSH2 0x2CFF PUSH2 0x2F33 JUMP JUMPDEST ADD SWAP5 SWAP4 POP POP POP POP JUMP JUMPDEST PUSH1 0x0 DUP3 NOT DUP3 GT ISZERO PUSH2 0x2D1B JUMPI PUSH2 0x2D1B PUSH2 0x2F33 JUMP JUMPDEST POP ADD SWAP1 JUMP JUMPDEST PUSH1 0x0 PUSH1 0xFF DUP3 AND PUSH1 0xFF DUP5 AND DUP1 PUSH1 0xFF SUB DUP3 GT ISZERO PUSH2 0x2D3D JUMPI PUSH2 0x2D3D PUSH2 0x2F33 JUMP JUMPDEST ADD SWAP4 SWAP3 POP POP POP JUMP JUMPDEST PUSH1 0x0 DUP3 PUSH2 0x2D54 JUMPI PUSH2 0x2D54 PUSH2 0x2F49 JUMP JUMPDEST PUSH1 0x1 PUSH1 0xFF SHL DUP3 EQ PUSH1 0x0 NOT DUP5 EQ AND ISZERO PUSH2 0x2D6E JUMPI PUSH2 0x2D6E PUSH2 0x2F33 JUMP JUMPDEST POP SDIV SWAP1 JUMP JUMPDEST PUSH1 0x0 DUP3 PUSH2 0x2D82 JUMPI PUSH2 0x2D82 PUSH2 0x2F49 JUMP JUMPDEST POP DIV SWAP1 JUMP JUMPDEST PUSH1 0x0 PUSH1 0x1 PUSH1 0x1 PUSH1 0xFF SHL SUB DUP2 DUP5 SGT DUP3 DUP5 SGT DUP1 DUP3 AND DUP7 DUP5 DIV DUP7 GT AND ISZERO PUSH2 0x2DAD JUMPI PUSH2 0x2DAD PUSH2 0x2F33 JUMP JUMPDEST PUSH1 0x1 PUSH1 0xFF SHL PUSH1 0x0 DUP8 SLT DUP3 DUP2 AND DUP8 DUP4 SDIV DUP10 SLT AND ISZERO PUSH2 0x2DCC JUMPI PUSH2 0x2DCC PUSH2 0x2F33 JUMP JUMPDEST PUSH1 0x0 DUP8 SLT SWAP3 POP DUP8 DUP3 SDIV DUP8 SLT DUP5 DUP5 AND AND ISZERO PUSH2 0x2DE8 JUMPI PUSH2 0x2DE8 PUSH2 0x2F33 JUMP JUMPDEST DUP8 DUP6 SDIV DUP8 SLT DUP2 DUP5 AND AND ISZERO PUSH2 0x2DFE JUMPI PUSH2 0x2DFE PUSH2 0x2F33 JUMP JUMPDEST POP POP POP SWAP3 SWAP1 SWAP4 MUL SWAP4 SWAP3 POP POP POP JUMP JUMPDEST PUSH1 0x0 PUSH1 0x1 PUSH1 0x1 PUSH1 0xA0 SHL SUB DUP3 DUP2 AND DUP5 DUP3 AND DUP2 ISZERO ISZERO DUP3 DUP5 DIV DUP3 GT AND ISZERO PUSH2 0x2E32 JUMPI PUSH2 0x2E32 PUSH2 0x2F33 JUMP JUMPDEST MUL SWAP5 SWAP4 POP POP POP POP JUMP JUMPDEST PUSH1 0x0 DUP2 PUSH1 0x0 NOT DIV DUP4 GT DUP3 ISZERO ISZERO AND ISZERO PUSH2 0x2E55 JUMPI PUSH2 0x2E55 PUSH2 0x2F33 JUMP JUMPDEST POP MUL SWAP1 JUMP JUMPDEST PUSH1 0x0 DUP1 DUP4 SLT DUP1 ISZERO PUSH1 0x1 PUSH1 0xFF SHL DUP6 ADD DUP5 SLT AND ISZERO PUSH2 0x2E78 JUMPI PUSH2 0x2E78 PUSH2 0x2F33 JUMP JUMPDEST PUSH1 0x1 PUSH1 0x1 PUSH1 0xFF SHL SUB DUP5 ADD DUP4 SGT DUP2 AND ISZERO PUSH2 0x2E93 JUMPI PUSH2 0x2E93 PUSH2 0x2F33 JUMP JUMPDEST POP POP SUB SWAP1 JUMP JUMPDEST PUSH1 0x0 PUSH1 0x1 PUSH1 0x1 PUSH1 0xA0 SHL SUB DUP4 DUP2 AND SWAP1 DUP4 AND DUP2 DUP2 LT ISZERO PUSH2 0x2EB9 JUMPI PUSH2 0x2EB9 PUSH2 0x2F33 JUMP JUMPDEST SUB SWAP4 SWAP3 POP POP POP JUMP JUMPDEST PUSH1 0x0 DUP3 DUP3 LT ISZERO PUSH2 0x2ED3 JUMPI PUSH2 0x2ED3 PUSH2 0x2F33 JUMP JUMPDEST POP SUB SWAP1 JUMP JUMPDEST PUSH1 0x0 JUMPDEST DUP4 DUP2 LT ISZERO PUSH2 0x2EF3 JUMPI DUP2 DUP2 ADD MLOAD DUP4 DUP3 ADD MSTORE PUSH1 0x20 ADD PUSH2 0x2EDB JUMP JUMPDEST DUP4 DUP2 GT ISZERO PUSH2 0x1CBD JUMPI POP POP PUSH1 0x0 SWAP2 ADD MSTORE JUMP JUMPDEST PUSH1 0x0 PUSH1 0x0 NOT DUP3 EQ ISZERO PUSH2 0x2F18 JUMPI PUSH2 0x2F18 PUSH2 0x2F33 JUMP JUMPDEST POP PUSH1 0x1 ADD SWAP1 JUMP JUMPDEST PUSH1 0x0 DUP3 PUSH2 0x2F2E JUMPI PUSH2 0x2F2E PUSH2 0x2F49 JUMP JUMPDEST POP MOD SWAP1 JUMP JUMPDEST PUSH4 0x4E487B71 PUSH1 0xE0 SHL PUSH1 0x0 MSTORE PUSH1 0x11 PUSH1 0x4 MSTORE PUSH1 0x24 PUSH1 0x0 REVERT JUMPDEST PUSH4 0x4E487B71 PUSH1 0xE0 SHL PUSH1 0x0 MSTORE PUSH1 0x12 PUSH1 0x4 MSTORE PUSH1 0x24 PUSH1 0x0 REVERT JUMPDEST PUSH4 0x4E487B71 PUSH1 0xE0 SHL PUSH1 0x0 MSTORE PUSH1 0x21 PUSH1 0x4 MSTORE PUSH1 0x24 PUSH1 0x0 REVERT JUMPDEST PUSH4 0x4E487B71 PUSH1 0xE0 SHL PUSH1 0x0 MSTORE PUSH1 0x32 PUSH1 0x4 MSTORE PUSH1 0x24 PUSH1 0x0 REVERT JUMPDEST PUSH4 0x4E487B71 PUSH1 0xE0 SHL PUSH1 0x0 MSTORE PUSH1 0x41 PUSH1 0x4 MSTORE PUSH1 0x24 PUSH1 0x0 REVERT JUMPDEST PUSH1 0x1 PUSH1 0x1 PUSH1 0xA0 SHL SUB DUP2 AND DUP2 EQ PUSH2 0x1D5B JUMPI PUSH1 0x0 DUP1 REVERT JUMPDEST PUSH1 0xFF DUP2 AND DUP2 EQ PUSH2 0x1D5B JUMPI PUSH1 0x0 DUP1 REVERT INVALID LOG2 PUSH5 0x6970667358 0x22 SLT KECCAK256 EXP CHAINID SWAP12 STATICCALL PUSH1 0xF1 0x5C 0xAC SWAP6 0x24 ISZERO SWAP6 LOG3 DUP9 0xB0 PUSH21 0x6DBEBBE9995314BB852D77F5BE4A37ED64736F6C63 NUMBER STOP ADDMOD SMOD STOP CALLER "
		},
		"gasEstimates": {
			"creation": {
				"codeDepositCost": "2456600",
				"executionCost": "infinite",
				"totalCost": "infinite"
			},
			"external": {
				"UpdateArbitratorCommissionPercent(uint256)": "24488",
				"UpdateStakePercentRequired(uint256)": "24597",
				"acceptBet(bytes32)": "infinite",
				"cancelBet(bytes32)": "infinite",
				"createBet(uint256,uint256,uint256,uint8,uint8,string[])": "infinite",
				"owner()": "2345",
				"pause()": "29801",
				"paused()": "2387",
				"renounceOwnership()": "28114",
				"transferOwnership(address)": "infinite",
				"unpause()": "29795"
			},
			"internal": {
				"calculatePublicArbitrationCommissionPercent()": "infinite",
				"isServiceTokensExhausted()": "infinite"
			}
		},
		"methodIdentifiers": {
			"UpdateArbitratorCommissionPercent(uint256)": "1ed1ed76",
			"UpdateStakePercentRequired(uint256)": "f65a5aca",
			"acceptBet(bytes32)": "e4a7d11b",
			"cancelBet(bytes32)": "2940ff1e",
			"createBet(uint256,uint256,uint256,uint8,uint8,string[])": "452b6abd",
			"owner()": "8da5cb5b",
			"pause()": "8456cb59",
			"paused()": "5c975abb",
			"renounceOwnership()": "715018a6",
			"transferOwnership(address)": "f2fde38b",
			"unpause()": "3f4ba83a"
		}
	},
	"abi": [
		{
			"inputs": [
				{
					"internalType": "address",
					"name": "sureBetDataContract",
					"type": "address"
				}
			],
			"stateMutability": "nonpayable",
			"type": "constructor"
		},
		{
			"anonymous": false,
			"inputs": [
				{
					"indexed": true,
					"internalType": "bytes32",
					"name": "betKey",
					"type": "bytes32"
				},
				{
					"indexed": true,
					"internalType": "address",
					"name": "acceptor",
					"type": "address"
				}
			],
			"name": "BetAccepted",
			"type": "event"
		},
		{
			"anonymous": false,
			"inputs": [
				{
					"indexed": true,
					"internalType": "bytes32",
					"name": "betKey",
					"type": "bytes32"
				},
				{
					"indexed": false,
					"internalType": "uint256",
					"name": "eventTime",
					"type": "uint256"
				}
			],
			"name": "BetAwaitingArbitration",
			"type": "event"
		},
		{
			"anonymous": false,
			"inputs": [
				{
					"indexed": true,
					"internalType": "bytes32",
					"name": "betKey",
					"type": "bytes32"
				},
				{
					"indexed": true,
					"internalType": "address",
					"name": "sender",
					"type": "address"
				}
			],
			"name": "BetCancelled",
			"type": "event"
		},
		{
			"anonymous": false,
			"inputs": [
				{
					"indexed": true,
					"internalType": "bytes32",
					"name": "betKey",
					"type": "bytes32"
				},
				{
					"indexed": true,
					"internalType": "uint256",
					"name": "betType",
					"type": "uint256"
				},
				{
					"indexed": true,
					"internalType": "address",
					"name": "betor",
					"type": "address"
				},
				{
					"indexed": false,
					"internalType": "uint256",
					"name": "amount",
					"type": "uint256"
				}
			],
			"name": "BetCreated",
			"type": "event"
		},
		{
			"anonymous": false,
			"inputs": [
				{
					"indexed": true,
					"internalType": "address",
					"name": "previousOwner",
					"type": "address"
				},
				{
					"indexed": true,
					"internalType": "address",
					"name": "newOwner",
					"type": "address"
				}
			],
			"name": "OwnershipTransferred",
			"type": "event"
		},
		{
			"anonymous": false,
			"inputs": [
				{
					"indexed": false,
					"internalType": "address",
					"name": "account",
					"type": "address"
				}
			],
			"name": "Paused",
			"type": "event"
		},
		{
			"anonymous": false,
			"inputs": [
				{
					"indexed": false,
					"internalType": "address",
					"name": "account",
					"type": "address"
				}
			],
			"name": "Unpaused",
			"type": "event"
		},
		{
			"inputs": [
				{
					"internalType": "uint256",
					"name": "inputArbitratorCommissionPercent",
					"type": "uint256"
				}
			],
			"name": "UpdateArbitratorCommissionPercent",
			"outputs": [],
			"stateMutability": "nonpayable",
			"type": "function"
		},
		{
			"inputs": [
				{
					"internalType": "uint256",
					"name": "inputStakePercentRequired",
					"type": "uint256"
				}
			],
			"name": "UpdateStakePercentRequired",
			"outputs": [],
			"stateMutability": "nonpayable",
			"type": "function"
		},
		{
			"inputs": [
				{
					"internalType": "bytes32",
					"name": "betKey",
					"type": "bytes32"
				}
			],
			"name": "acceptBet",
			"outputs": [],
			"stateMutability": "nonpayable",
			"type": "function"
		},
		{
			"inputs": [
				{
					"internalType": "bytes32",
					"name": "betKey",
					"type": "bytes32"
				}
			],
			"name": "cancelBet",
			"outputs": [],
			"stateMutability": "nonpayable",
			"type": "function"
		},
		{
			"inputs": [
				{
					"internalType": "uint256",
					"name": "timestamp",
					"type": "uint256"
				},
				{
					"internalType": "uint256",
					"name": "amount",
					"type": "uint256"
				},
				{
					"internalType": "uint256",
					"name": "eventTime",
					"type": "uint256"
				},
				{
					"internalType": "uint8",
					"name": "betType",
					"type": "uint8"
				},
				{
					"internalType": "uint8",
					"name": "arbitrationType",
					"type": "uint8"
				},
				{
					"internalType": "string[]",
					"name": "properties",
					"type": "string[]"
				}
			],
			"name": "createBet",
			"outputs": [],
			"stateMutability": "nonpayable",
			"type": "function"
		},
		{
			"inputs": [],
			"name": "owner",
			"outputs": [
				{
					"internalType": "address",
					"name": "",
					"type": "address"
				}
			],
			"stateMutability": "view",
			"type": "function"
		},
		{
			"inputs": [],
			"name": "pause",
			"outputs": [],
			"stateMutability": "nonpayable",
			"type": "function"
		},
		{
			"inputs": [],
			"name": "paused",
			"outputs": [
				{
					"internalType": "bool",
					"name": "",
					"type": "bool"
				}
			],
			"stateMutability": "view",
			"type": "function"
		},
		{
			"inputs": [],
			"name": "renounceOwnership",
			"outputs": [],
			"stateMutability": "nonpayable",
			"type": "function"
		},
		{
			"inputs": [
				{
					"internalType": "address",
					"name": "newOwner",
					"type": "address"
				}
			],
			"name": "transferOwnership",
			"outputs": [],
			"stateMutability": "nonpayable",
			"type": "function"
		},
		{
			"inputs": [],
			"name": "unpause",
			"outputs": [],
			"stateMutability": "nonpayable",
			"type": "function"
		}
	]
}