{
	"data": {
		"bytecode": {
			"linkReferences": {},
			"object": "608060405260006008556000600b556000600c553480156200002057600080fd5b50604080518082018252600a81526910dc9e5c1d1bc810995d60b21b6020808301918252835180850190945260048452631250915560e21b9084015281519192916200006f916003916200021b565b508051620000859060049060208401906200021b565b505050620000a26200009c620000dd60201b60201c565b620000e1565b6005805460ff60a01b1916905560016006819055620000d7903390620000d190670de0b6b3a7640000620002dc565b62000133565b62000351565b3390565b600580546001600160a01b038381166001600160a01b0319831681179093556040519116919082907f8be0079c531659141344cd1fd0a4f28419497f9722a3daafe3b4186f6b6457e090600090a35050565b6001600160a01b0382166200018e5760405162461bcd60e51b815260206004820152601f60248201527f45524332303a206d696e7420746f20746865207a65726f206164647265737300604482015260640160405180910390fd5b8060026000828254620001a29190620002c1565b90915550506001600160a01b03821660009081526020819052604081208054839290620001d1908490620002c1565b90915550506040518181526001600160a01b038316906000907fddf252ad1be2c89b69c2b068fc378daa952ba7f163c4a11628f55a4df523b3ef9060200160405180910390a35050565b8280546200022990620002fe565b90600052602060002090601f0160209004810192826200024d576000855562000298565b82601f106200026857805160ff191683800117855562000298565b8280016001018555821562000298579182015b82811115620002985782518255916020019190600101906200027b565b50620002a6929150620002aa565b5090565b5b80821115620002a65760008155600101620002ab565b60008219821115620002d757620002d76200033b565b500190565b6000816000190483118215151615620002f957620002f96200033b565b500290565b600181811c908216806200031357607f821691505b602082108114156200033557634e487b7160e01b600052602260045260246000fd5b50919050565b634e487b7160e01b600052601160045260246000fd5b6116b780620003616000396000f3fe608060405234801561001057600080fd5b50600436106101585760003560e01c80635c975abb116100c357806396a449b21161007c57806396a449b2146102b25780639dc29fac146102c6578063a457c2d7146102d9578063a9059cbb146102ec578063dd62ed3e146102ff578063f2fde38b1461033857600080fd5b80635c975abb1461024457806370a0823114610256578063715018a61461027f578063837fbbec146102875780638da5cb5b1461028f57806395d89b41146102aa57600080fd5b806323b872dd1161011557806323b872dd146101de5780632c388d5d146101f1578063313ce5671461020657806332cb6b0c14610215578063395093511461021d57806341506b051461023057600080fd5b8063055c04671461015d57806306fdde0314610185578063095ea7b31461019a57806315a54a64146101ad57806318160ddd146101c357806321670f22146101cb575b600080fd5b61017061016b366004611437565b61034b565b60405190151581526020015b60405180910390f35b61018d610460565b60405161017c919061149d565b6101706101a8366004611473565b6104f2565b6101b5610508565b60405190815260200161017c565b6002546101b5565b6101706101d9366004611473565b610543565b6101706101ec366004611437565b610591565b6102046101ff3660046113e9565b61063b565b005b6040516012815260200161017c565b6101b5610689565b61017061022b366004611473565b6106b0565b6101b56c0c9f2c9cd04674edea4000000081565b600554600160a01b900460ff16610170565b6101b56102643660046113e9565b6001600160a01b031660009081526020819052604090205490565b6102046106ec565b6101b5610722565b6005546040516001600160a01b03909116815260200161017c565b61018d610768565b6101b56c2a0349091a4ef0a3958680000081565b6101706102d4366004611473565b610777565b6101706102e7366004611473565b6107c5565b6101706102fa366004611473565b610854565b6101b561030d366004611404565b6001600160a01b03918216600090815260016020908152604080832093909416825291909152205490565b6102046103463660046113e9565b610aa1565b3360009081526007602052604081205460ff1615156001146103885760405162461bcd60e51b815260040161037f90611527565b60405180910390fd5b6001600160a01b0384166103ea5760405162461bcd60e51b8152602060048201526024808201527f43616e6e6f74207472616e736665722066726f6d20696e76616c6964206164646044820152637265737360e01b606482015260840161037f565b6001600160a01b03831661044b5760405162461bcd60e51b815260206004820152602260248201527f43616e6e6f74207472616e7366657220746f20696e76616c6964206164647265604482015261737360f01b606482015260840161037f565b610456848484610b3c565b5060019392505050565b60606003805461046f906115c9565b80601f016020809104026020016040519081016040528092919081815260200182805461049b906115c9565b80156104e85780601f106104bd576101008083540402835291602001916104e8565b820191906000526020600020905b8154815290600101906020018083116104cb57829003601f168201915b5050505050905090565b60006104ff338484610d0b565b50600192915050565b3360009081526007602052604081205460ff16151560011461053c5760405162461bcd60e51b815260040161037f90611527565b50600c5490565b3360009081526007602052604081205460ff1615156001146105775760405162461bcd60e51b815260040161037f90611527565b600c546105849083610e30565b600c556104ff8383610e43565b600061059e848484610b3c565b6001600160a01b0384166000908152600160209081526040808320338452909152902054828110156106235760405162461bcd60e51b815260206004820152602860248201527f45524332303a207472616e7366657220616d6f756e74206578636565647320616044820152676c6c6f77616e636560c01b606482015260840161037f565b6106308533858403610d0b565b506001949350505050565b6005546001600160a01b031633146106655760405162461bcd60e51b815260040161037f906114f2565b6001600160a01b03166000908152600760205260409020805460ff19166001179055565b6106ad6c0c9f2c9cd04674edea400000006c2a0349091a4ef0a3958680000061155e565b81565b3360008181526001602090815260408083206001600160a01b038716845290915281205490916104ff9185906106e790869061155e565b610d0b565b6005546001600160a01b031633146107165760405162461bcd60e51b815260040161037f906114f2565b6107206000610f22565b565b3360009081526007602052604081205460ff1615156001146107565760405162461bcd60e51b815260040161037f90611527565b506c0c9f2c9cd04674edea4000000090565b60606004805461046f906115c9565b3360009081526007602052604081205460ff1615156001146107ab5760405162461bcd60e51b815260040161037f90611527565b600c546107b89083610f74565b600c556104ff8383610f80565b3360009081526001602090815260408083206001600160a01b0386168452909152812054828110156108475760405162461bcd60e51b815260206004820152602560248201527f45524332303a2064656372656173656420616c6c6f77616e63652062656c6f77604482015264207a65726f60d81b606482015260840161037f565b6104563385858403610d0b565b60006c2a0349091a4ef0a395868000006008541080156108745750600082115b801561089e57506001600160a01b0383166000908152600a602052604090205460ff161515600114155b15610a96573360009081526009602052604090205415610a8c576000805b3360009081526009602052604090205460ff82161015610a7257336000908152600960205260409020805462093a80916109249160ff85169081106109035761090361166b565b90600052602060002090600202016001015442610f7490919063ffffffff16565b1115610a5257336000908152600960205260409020805461094790600190611595565b815481106109575761095761166b565b9060005260206000209060020201600960006109703390565b6001600160a01b03166001600160a01b031681526020019081526020016000208260ff16815481106109a4576109a461166b565b600091825260208220835460029092020180546001600160a01b0319166001600160a01b039092169190911781556001928301549201919091556009906109e83390565b6001600160a01b03166001600160a01b03168152602001908152602001600020805480610a1757610a17611655565b60008281526020812060026000199093019283020180546001600160a01b031916815560010155905580610a4a816115ac565b915050610a60565b81610a5c81611604565b9250505b80610a6a8161161f565b9150506108bc565b6004821015610a8557610a8533866110cb565b5050610a96565b610a9633846110cb565b6104ff338484610b3c565b6005546001600160a01b03163314610acb5760405162461bcd60e51b815260040161037f906114f2565b6001600160a01b038116610b305760405162461bcd60e51b815260206004820152602660248201527f4f776e61626c653a206e6577206f776e657220697320746865207a65726f206160448201526564647265737360d01b606482015260840161037f565b610b3981610f22565b50565b6001600160a01b038316610ba05760405162461bcd60e51b815260206004820152602560248201527f45524332303a207472616e736665722066726f6d20746865207a65726f206164604482015264647265737360d81b606482015260840161037f565b6001600160a01b038216610c025760405162461bcd60e51b815260206004820152602360248201527f45524332303a207472616e7366657220746f20746865207a65726f206164647260448201526265737360e81b606482015260840161037f565b6001600160a01b03831660009081526020819052604090205481811015610c7a5760405162461bcd60e51b815260206004820152602660248201527f45524332303a207472616e7366657220616d6f756e7420657863656564732062604482015265616c616e636560d01b606482015260840161037f565b6001600160a01b03808516600090815260208190526040808220858503905591851681529081208054849290610cb190849061155e565b92505081905550826001600160a01b0316846001600160a01b03167fddf252ad1be2c89b69c2b068fc378daa952ba7f163c4a11628f55a4df523b3ef84604051610cfd91815260200190565b60405180910390a350505050565b6001600160a01b038316610d6d5760405162461bcd60e51b8152602060048201526024808201527f45524332303a20617070726f76652066726f6d20746865207a65726f206164646044820152637265737360e01b606482015260840161037f565b6001600160a01b038216610dce5760405162461bcd60e51b815260206004820152602260248201527f45524332303a20617070726f766520746f20746865207a65726f206164647265604482015261737360f01b606482015260840161037f565b6001600160a01b0383811660008181526001602090815260408083209487168084529482529182902085905590518481527f8c5be1e5ebec7d5bd14f71427d1e84f3dd0314c0f7b2291e5b200ac8c7c3b92591015b60405180910390a3505050565b6000610e3c828461155e565b9392505050565b6001600160a01b038216610e995760405162461bcd60e51b815260206004820152601f60248201527f45524332303a206d696e7420746f20746865207a65726f206164647265737300604482015260640161037f565b8060026000828254610eab919061155e565b90915550506001600160a01b03821660009081526020819052604081208054839290610ed890849061155e565b90915550506040518181526001600160a01b038316906000907fddf252ad1be2c89b69c2b068fc378daa952ba7f163c4a11628f55a4df523b3ef9060200160405180910390a35050565b600580546001600160a01b038381166001600160a01b0319831681179093556040519116919082907f8be0079c531659141344cd1fd0a4f28419497f9722a3daafe3b4186f6b6457e090600090a35050565b6000610e3c8284611595565b6001600160a01b038216610fe05760405162461bcd60e51b815260206004820152602160248201527f45524332303a206275726e2066726f6d20746865207a65726f206164647265736044820152607360f81b606482015260840161037f565b6001600160a01b038216600090815260208190526040902054818110156110545760405162461bcd60e51b815260206004820152602260248201527f45524332303a206275726e20616d6f756e7420657863656564732062616c616e604482015261636560f01b606482015260840161037f565b6001600160a01b0383166000908152602081905260408120838303905560028054849290611083908490611595565b90915550506040518281526000906001600160a01b038516907fddf252ad1be2c89b69c2b068fc378daa952ba7f163c4a11628f55a4df523b3ef90602001610e23565b505050565b60006110d8600b54611180565b6008549091506110e89082610e30565b6008556001600160a01b03838116600090815260096020908152604080832081518083018352878616808252428286019081528354600180820186559488528688209351600290910290930180546001600160a01b03191693909816929092178755905195820195909555938352600a9091529020805460ff191682179055600b546111739161155e565b600b556110c68382610e43565b6000600282101561119d57611197620f42406113b9565b92915050565b60048210156111b257611197620ea7906113b9565b60088210156111c757611197620e0ce06113b9565b60108210156111dc57611197620d72306113b9565b60208210156111f157611197620cd7806113b9565b604082101561120657611197620c3cd06113b9565b608082101561121b57611197620ba2206113b9565b61010082101561123157611197620b07706113b9565b61020082101561124757611197620a6cc06113b9565b61040082101561125d576111976209d2106113b9565b61080082101561127357611197620937606113b9565b6110008210156112895761119762089cb06113b9565b61200082101561129f57611197620802006113b9565b6140008210156112b557611197620767506113b9565b6180008210156112cb576111976206cca06113b9565b620100008210156112e257611197620631f06113b9565b620200008210156112f957611197620597406113b9565b62040000821015611310576111976204fc906113b9565b6208000082101561132757611197620461e06113b9565b6210000082101561133e576111976203c7306113b9565b622000008210156113555761119762032c806113b9565b6240000082101561136c57611197620291d06113b9565b62800000821015611383576111976201f7206113b9565b630100000082101561139b5761119762015c706113b9565b63020000008210156113b25761119761c1c06113b9565b6111976127105b600061119782670de0b6b3a7640000611576565b80356001600160a01b03811681146113e457600080fd5b919050565b6000602082840312156113fb57600080fd5b610e3c826113cd565b6000806040838503121561141757600080fd5b611420836113cd565b915061142e602084016113cd565b90509250929050565b60008060006060848603121561144c57600080fd5b611455846113cd565b9250611463602085016113cd565b9150604084013590509250925092565b6000806040838503121561148657600080fd5b61148f836113cd565b946020939093013593505050565b600060208083528351808285015260005b818110156114ca578581018301518582016040015282016114ae565b818111156114dc576000604083870101525b50601f01601f1916929092016040019392505050565b6020808252818101527f4f776e61626c653a2063616c6c6572206973206e6f7420746865206f776e6572604082015260600190565b60208082526018908201527f43616c6c6572206973206e6f7420617574686f72697a65640000000000000000604082015260600190565b600082198211156115715761157161163f565b500190565b60008160001904831182151516156115905761159061163f565b500290565b6000828210156115a7576115a761163f565b500390565b600060ff8216806115bf576115bf61163f565b6000190192915050565b600181811c908216806115dd57607f821691505b602082108114156115fe57634e487b7160e01b600052602260045260246000fd5b50919050565b60006000198214156116185761161861163f565b5060010190565b600060ff821660ff8114156116365761163661163f565b60010192915050565b634e487b7160e01b600052601160045260246000fd5b634e487b7160e01b600052603160045260246000fd5b634e487b7160e01b600052603260045260246000fdfea264697066735822122071580404e7eace9f67198a4a747898802d18c992bdb4da84fee99276126d207664736f6c63430008070033",
			"opcodes": "PUSH1 0x80 PUSH1 0x40 MSTORE PUSH1 0x0 PUSH1 0x8 SSTORE PUSH1 0x0 PUSH1 0xB SSTORE PUSH1 0x0 PUSH1 0xC SSTORE CALLVALUE DUP1 ISZERO PUSH3 0x20 JUMPI PUSH1 0x0 DUP1 REVERT JUMPDEST POP PUSH1 0x40 DUP1 MLOAD DUP1 DUP3 ADD DUP3 MSTORE PUSH1 0xA DUP2 MSTORE PUSH10 0x10DC9E5C1D1BC810995D PUSH1 0xB2 SHL PUSH1 0x20 DUP1 DUP4 ADD SWAP2 DUP3 MSTORE DUP4 MLOAD DUP1 DUP6 ADD SWAP1 SWAP5 MSTORE PUSH1 0x4 DUP5 MSTORE PUSH4 0x12509155 PUSH1 0xE2 SHL SWAP1 DUP5 ADD MSTORE DUP2 MLOAD SWAP2 SWAP3 SWAP2 PUSH3 0x6F SWAP2 PUSH1 0x3 SWAP2 PUSH3 0x21B JUMP JUMPDEST POP DUP1 MLOAD PUSH3 0x85 SWAP1 PUSH1 0x4 SWAP1 PUSH1 0x20 DUP5 ADD SWAP1 PUSH3 0x21B JUMP JUMPDEST POP POP POP PUSH3 0xA2 PUSH3 0x9C PUSH3 0xDD PUSH1 0x20 SHL PUSH1 0x20 SHR JUMP JUMPDEST PUSH3 0xE1 JUMP JUMPDEST PUSH1 0x5 DUP1 SLOAD PUSH1 0xFF PUSH1 0xA0 SHL NOT AND SWAP1 SSTORE PUSH1 0x1 PUSH1 0x6 DUP2 SWAP1 SSTORE PUSH3 0xD7 SWAP1 CALLER SWAP1 PUSH3 0xD1 SWAP1 PUSH8 0xDE0B6B3A7640000 PUSH3 0x2DC JUMP JUMPDEST PUSH3 0x133 JUMP JUMPDEST PUSH3 0x351 JUMP JUMPDEST CALLER SWAP1 JUMP JUMPDEST PUSH1 0x5 DUP1 SLOAD PUSH1 0x1 PUSH1 0x1 PUSH1 0xA0 SHL SUB DUP4 DUP2 AND PUSH1 0x1 PUSH1 0x1 PUSH1 0xA0 SHL SUB NOT DUP4 AND DUP2 OR SWAP1 SWAP4 SSTORE PUSH1 0x40 MLOAD SWAP2 AND SWAP2 SWAP1 DUP3 SWAP1 PUSH32 0x8BE0079C531659141344CD1FD0A4F28419497F9722A3DAAFE3B4186F6B6457E0 SWAP1 PUSH1 0x0 SWAP1 LOG3 POP POP JUMP JUMPDEST PUSH1 0x1 PUSH1 0x1 PUSH1 0xA0 SHL SUB DUP3 AND PUSH3 0x18E JUMPI PUSH1 0x40 MLOAD PUSH3 0x461BCD PUSH1 0xE5 SHL DUP2 MSTORE PUSH1 0x20 PUSH1 0x4 DUP3 ADD MSTORE PUSH1 0x1F PUSH1 0x24 DUP3 ADD MSTORE PUSH32 0x45524332303A206D696E7420746F20746865207A65726F206164647265737300 PUSH1 0x44 DUP3 ADD MSTORE PUSH1 0x64 ADD PUSH1 0x40 MLOAD DUP1 SWAP2 SUB SWAP1 REVERT JUMPDEST DUP1 PUSH1 0x2 PUSH1 0x0 DUP3 DUP3 SLOAD PUSH3 0x1A2 SWAP2 SWAP1 PUSH3 0x2C1 JUMP JUMPDEST SWAP1 SWAP2 SSTORE POP POP PUSH1 0x1 PUSH1 0x1 PUSH1 0xA0 SHL SUB DUP3 AND PUSH1 0x0 SWAP1 DUP2 MSTORE PUSH1 0x20 DUP2 SWAP1 MSTORE PUSH1 0x40 DUP2 KECCAK256 DUP1 SLOAD DUP4 SWAP3 SWAP1 PUSH3 0x1D1 SWAP1 DUP5 SWAP1 PUSH3 0x2C1 JUMP JUMPDEST SWAP1 SWAP2 SSTORE POP POP PUSH1 0x40 MLOAD DUP2 DUP2 MSTORE PUSH1 0x1 PUSH1 0x1 PUSH1 0xA0 SHL SUB DUP4 AND SWAP1 PUSH1 0x0 SWAP1 PUSH32 0xDDF252AD1BE2C89B69C2B068FC378DAA952BA7F163C4A11628F55A4DF523B3EF SWAP1 PUSH1 0x20 ADD PUSH1 0x40 MLOAD DUP1 SWAP2 SUB SWAP1 LOG3 POP POP JUMP JUMPDEST DUP3 DUP1 SLOAD PUSH3 0x229 SWAP1 PUSH3 0x2FE JUMP JUMPDEST SWAP1 PUSH1 0x0 MSTORE PUSH1 0x20 PUSH1 0x0 KECCAK256 SWAP1 PUSH1 0x1F ADD PUSH1 0x20 SWAP1 DIV DUP2 ADD SWAP3 DUP3 PUSH3 0x24D JUMPI PUSH1 0x0 DUP6 SSTORE PUSH3 0x298 JUMP JUMPDEST DUP3 PUSH1 0x1F LT PUSH3 0x268 JUMPI DUP1 MLOAD PUSH1 0xFF NOT AND DUP4 DUP1 ADD OR DUP6 SSTORE PUSH3 0x298 JUMP JUMPDEST DUP3 DUP1 ADD PUSH1 0x1 ADD DUP6 SSTORE DUP3 ISZERO PUSH3 0x298 JUMPI SWAP2 DUP3 ADD JUMPDEST DUP3 DUP2 GT ISZERO PUSH3 0x298 JUMPI DUP3 MLOAD DUP3 SSTORE SWAP2 PUSH1 0x20 ADD SWAP2 SWAP1 PUSH1 0x1 ADD SWAP1 PUSH3 0x27B JUMP JUMPDEST POP PUSH3 0x2A6 SWAP3 SWAP2 POP PUSH3 0x2AA JUMP JUMPDEST POP SWAP1 JUMP JUMPDEST JUMPDEST DUP1 DUP3 GT ISZERO PUSH3 0x2A6 JUMPI PUSH1 0x0 DUP2 SSTORE PUSH1 0x1 ADD PUSH3 0x2AB JUMP JUMPDEST PUSH1 0x0 DUP3 NOT DUP3 GT ISZERO PUSH3 0x2D7 JUMPI PUSH3 0x2D7 PUSH3 0x33B JUMP JUMPDEST POP ADD SWAP1 JUMP JUMPDEST PUSH1 0x0 DUP2 PUSH1 0x0 NOT DIV DUP4 GT DUP3 ISZERO ISZERO AND ISZERO PUSH3 0x2F9 JUMPI PUSH3 0x2F9 PUSH3 0x33B JUMP JUMPDEST POP MUL SWAP1 JUMP JUMPDEST PUSH1 0x1 DUP2 DUP2 SHR SWAP1 DUP3 AND DUP1 PUSH3 0x313 JUMPI PUSH1 0x7F DUP3 AND SWAP2 POP JUMPDEST PUSH1 0x20 DUP3 LT DUP2 EQ ISZERO PUSH3 0x335 JUMPI PUSH4 0x4E487B71 PUSH1 0xE0 SHL PUSH1 0x0 MSTORE PUSH1 0x22 PUSH1 0x4 MSTORE PUSH1 0x24 PUSH1 0x0 REVERT JUMPDEST POP SWAP2 SWAP1 POP JUMP JUMPDEST PUSH4 0x4E487B71 PUSH1 0xE0 SHL PUSH1 0x0 MSTORE PUSH1 0x11 PUSH1 0x4 MSTORE PUSH1 0x24 PUSH1 0x0 REVERT JUMPDEST PUSH2 0x16B7 DUP1 PUSH3 0x361 PUSH1 0x0 CODECOPY PUSH1 0x0 RETURN INVALID PUSH1 0x80 PUSH1 0x40 MSTORE CALLVALUE DUP1 ISZERO PUSH2 0x10 JUMPI PUSH1 0x0 DUP1 REVERT JUMPDEST POP PUSH1 0x4 CALLDATASIZE LT PUSH2 0x158 JUMPI PUSH1 0x0 CALLDATALOAD PUSH1 0xE0 SHR DUP1 PUSH4 0x5C975ABB GT PUSH2 0xC3 JUMPI DUP1 PUSH4 0x96A449B2 GT PUSH2 0x7C JUMPI DUP1 PUSH4 0x96A449B2 EQ PUSH2 0x2B2 JUMPI DUP1 PUSH4 0x9DC29FAC EQ PUSH2 0x2C6 JUMPI DUP1 PUSH4 0xA457C2D7 EQ PUSH2 0x2D9 JUMPI DUP1 PUSH4 0xA9059CBB EQ PUSH2 0x2EC JUMPI DUP1 PUSH4 0xDD62ED3E EQ PUSH2 0x2FF JUMPI DUP1 PUSH4 0xF2FDE38B EQ PUSH2 0x338 JUMPI PUSH1 0x0 DUP1 REVERT JUMPDEST DUP1 PUSH4 0x5C975ABB EQ PUSH2 0x244 JUMPI DUP1 PUSH4 0x70A08231 EQ PUSH2 0x256 JUMPI DUP1 PUSH4 0x715018A6 EQ PUSH2 0x27F JUMPI DUP1 PUSH4 0x837FBBEC EQ PUSH2 0x287 JUMPI DUP1 PUSH4 0x8DA5CB5B EQ PUSH2 0x28F JUMPI DUP1 PUSH4 0x95D89B41 EQ PUSH2 0x2AA JUMPI PUSH1 0x0 DUP1 REVERT JUMPDEST DUP1 PUSH4 0x23B872DD GT PUSH2 0x115 JUMPI DUP1 PUSH4 0x23B872DD EQ PUSH2 0x1DE JUMPI DUP1 PUSH4 0x2C388D5D EQ PUSH2 0x1F1 JUMPI DUP1 PUSH4 0x313CE567 EQ PUSH2 0x206 JUMPI DUP1 PUSH4 0x32CB6B0C EQ PUSH2 0x215 JUMPI DUP1 PUSH4 0x39509351 EQ PUSH2 0x21D JUMPI DUP1 PUSH4 0x41506B05 EQ PUSH2 0x230 JUMPI PUSH1 0x0 DUP1 REVERT JUMPDEST DUP1 PUSH4 0x55C0467 EQ PUSH2 0x15D JUMPI DUP1 PUSH4 0x6FDDE03 EQ PUSH2 0x185 JUMPI DUP1 PUSH4 0x95EA7B3 EQ PUSH2 0x19A JUMPI DUP1 PUSH4 0x15A54A64 EQ PUSH2 0x1AD JUMPI DUP1 PUSH4 0x18160DDD EQ PUSH2 0x1C3 JUMPI DUP1 PUSH4 0x21670F22 EQ PUSH2 0x1CB JUMPI JUMPDEST PUSH1 0x0 DUP1 REVERT JUMPDEST PUSH2 0x170 PUSH2 0x16B CALLDATASIZE PUSH1 0x4 PUSH2 0x1437 JUMP JUMPDEST PUSH2 0x34B JUMP JUMPDEST PUSH1 0x40 MLOAD SWAP1 ISZERO ISZERO DUP2 MSTORE PUSH1 0x20 ADD JUMPDEST PUSH1 0x40 MLOAD DUP1 SWAP2 SUB SWAP1 RETURN JUMPDEST PUSH2 0x18D PUSH2 0x460 JUMP JUMPDEST PUSH1 0x40 MLOAD PUSH2 0x17C SWAP2 SWAP1 PUSH2 0x149D JUMP JUMPDEST PUSH2 0x170 PUSH2 0x1A8 CALLDATASIZE PUSH1 0x4 PUSH2 0x1473 JUMP JUMPDEST PUSH2 0x4F2 JUMP JUMPDEST PUSH2 0x1B5 PUSH2 0x508 JUMP JUMPDEST PUSH1 0x40 MLOAD SWAP1 DUP2 MSTORE PUSH1 0x20 ADD PUSH2 0x17C JUMP JUMPDEST PUSH1 0x2 SLOAD PUSH2 0x1B5 JUMP JUMPDEST PUSH2 0x170 PUSH2 0x1D9 CALLDATASIZE PUSH1 0x4 PUSH2 0x1473 JUMP JUMPDEST PUSH2 0x543 JUMP JUMPDEST PUSH2 0x170 PUSH2 0x1EC CALLDATASIZE PUSH1 0x4 PUSH2 0x1437 JUMP JUMPDEST PUSH2 0x591 JUMP JUMPDEST PUSH2 0x204 PUSH2 0x1FF CALLDATASIZE PUSH1 0x4 PUSH2 0x13E9 JUMP JUMPDEST PUSH2 0x63B JUMP JUMPDEST STOP JUMPDEST PUSH1 0x40 MLOAD PUSH1 0x12 DUP2 MSTORE PUSH1 0x20 ADD PUSH2 0x17C JUMP JUMPDEST PUSH2 0x1B5 PUSH2 0x689 JUMP JUMPDEST PUSH2 0x170 PUSH2 0x22B CALLDATASIZE PUSH1 0x4 PUSH2 0x1473 JUMP JUMPDEST PUSH2 0x6B0 JUMP JUMPDEST PUSH2 0x1B5 PUSH13 0xC9F2C9CD04674EDEA40000000 DUP2 JUMP JUMPDEST PUSH1 0x5 SLOAD PUSH1 0x1 PUSH1 0xA0 SHL SWAP1 DIV PUSH1 0xFF AND PUSH2 0x170 JUMP JUMPDEST PUSH2 0x1B5 PUSH2 0x264 CALLDATASIZE PUSH1 0x4 PUSH2 0x13E9 JUMP JUMPDEST PUSH1 0x1 PUSH1 0x1 PUSH1 0xA0 SHL SUB AND PUSH1 0x0 SWAP1 DUP2 MSTORE PUSH1 0x20 DUP2 SWAP1 MSTORE PUSH1 0x40 SWAP1 KECCAK256 SLOAD SWAP1 JUMP JUMPDEST PUSH2 0x204 PUSH2 0x6EC JUMP JUMPDEST PUSH2 0x1B5 PUSH2 0x722 JUMP JUMPDEST PUSH1 0x5 SLOAD PUSH1 0x40 MLOAD PUSH1 0x1 PUSH1 0x1 PUSH1 0xA0 SHL SUB SWAP1 SWAP2 AND DUP2 MSTORE PUSH1 0x20 ADD PUSH2 0x17C JUMP JUMPDEST PUSH2 0x18D PUSH2 0x768 JUMP JUMPDEST PUSH2 0x1B5 PUSH13 0x2A0349091A4EF0A39586800000 DUP2 JUMP JUMPDEST PUSH2 0x170 PUSH2 0x2D4 CALLDATASIZE PUSH1 0x4 PUSH2 0x1473 JUMP JUMPDEST PUSH2 0x777 JUMP JUMPDEST PUSH2 0x170 PUSH2 0x2E7 CALLDATASIZE PUSH1 0x4 PUSH2 0x1473 JUMP JUMPDEST PUSH2 0x7C5 JUMP JUMPDEST PUSH2 0x170 PUSH2 0x2FA CALLDATASIZE PUSH1 0x4 PUSH2 0x1473 JUMP JUMPDEST PUSH2 0x854 JUMP JUMPDEST PUSH2 0x1B5 PUSH2 0x30D CALLDATASIZE PUSH1 0x4 PUSH2 0x1404 JUMP JUMPDEST PUSH1 0x1 PUSH1 0x1 PUSH1 0xA0 SHL SUB SWAP2 DUP3 AND PUSH1 0x0 SWAP1 DUP2 MSTORE PUSH1 0x1 PUSH1 0x20 SWAP1 DUP2 MSTORE PUSH1 0x40 DUP1 DUP4 KECCAK256 SWAP4 SWAP1 SWAP5 AND DUP3 MSTORE SWAP2 SWAP1 SWAP2 MSTORE KECCAK256 SLOAD SWAP1 JUMP JUMPDEST PUSH2 0x204 PUSH2 0x346 CALLDATASIZE PUSH1 0x4 PUSH2 0x13E9 JUMP JUMPDEST PUSH2 0xAA1 JUMP JUMPDEST CALLER PUSH1 0x0 SWAP1 DUP2 MSTORE PUSH1 0x7 PUSH1 0x20 MSTORE PUSH1 0x40 DUP2 KECCAK256 SLOAD PUSH1 0xFF AND ISZERO ISZERO PUSH1 0x1 EQ PUSH2 0x388 JUMPI PUSH1 0x40 MLOAD PUSH3 0x461BCD PUSH1 0xE5 SHL DUP2 MSTORE PUSH1 0x4 ADD PUSH2 0x37F SWAP1 PUSH2 0x1527 JUMP JUMPDEST PUSH1 0x40 MLOAD DUP1 SWAP2 SUB SWAP1 REVERT JUMPDEST PUSH1 0x1 PUSH1 0x1 PUSH1 0xA0 SHL SUB DUP5 AND PUSH2 0x3EA JUMPI PUSH1 0x40 MLOAD PUSH3 0x461BCD PUSH1 0xE5 SHL DUP2 MSTORE PUSH1 0x20 PUSH1 0x4 DUP3 ADD MSTORE PUSH1 0x24 DUP1 DUP3 ADD MSTORE PUSH32 0x43616E6E6F74207472616E736665722066726F6D20696E76616C696420616464 PUSH1 0x44 DUP3 ADD MSTORE PUSH4 0x72657373 PUSH1 0xE0 SHL PUSH1 0x64 DUP3 ADD MSTORE PUSH1 0x84 ADD PUSH2 0x37F JUMP JUMPDEST PUSH1 0x1 PUSH1 0x1 PUSH1 0xA0 SHL SUB DUP4 AND PUSH2 0x44B JUMPI PUSH1 0x40 MLOAD PUSH3 0x461BCD PUSH1 0xE5 SHL DUP2 MSTORE PUSH1 0x20 PUSH1 0x4 DUP3 ADD MSTORE PUSH1 0x22 PUSH1 0x24 DUP3 ADD MSTORE PUSH32 0x43616E6E6F74207472616E7366657220746F20696E76616C6964206164647265 PUSH1 0x44 DUP3 ADD MSTORE PUSH2 0x7373 PUSH1 0xF0 SHL PUSH1 0x64 DUP3 ADD MSTORE PUSH1 0x84 ADD PUSH2 0x37F JUMP JUMPDEST PUSH2 0x456 DUP5 DUP5 DUP5 PUSH2 0xB3C JUMP JUMPDEST POP PUSH1 0x1 SWAP4 SWAP3 POP POP POP JUMP JUMPDEST PUSH1 0x60 PUSH1 0x3 DUP1 SLOAD PUSH2 0x46F SWAP1 PUSH2 0x15C9 JUMP JUMPDEST DUP1 PUSH1 0x1F ADD PUSH1 0x20 DUP1 SWAP2 DIV MUL PUSH1 0x20 ADD PUSH1 0x40 MLOAD SWAP1 DUP2 ADD PUSH1 0x40 MSTORE DUP1 SWAP3 SWAP2 SWAP1 DUP2 DUP2 MSTORE PUSH1 0x20 ADD DUP3 DUP1 SLOAD PUSH2 0x49B SWAP1 PUSH2 0x15C9 JUMP JUMPDEST DUP1 ISZERO PUSH2 0x4E8 JUMPI DUP1 PUSH1 0x1F LT PUSH2 0x4BD JUMPI PUSH2 0x100 DUP1 DUP4 SLOAD DIV MUL DUP4 MSTORE SWAP2 PUSH1 0x20 ADD SWAP2 PUSH2 0x4E8 JUMP JUMPDEST DUP3 ADD SWAP2 SWAP1 PUSH1 0x0 MSTORE PUSH1 0x20 PUSH1 0x0 KECCAK256 SWAP1 JUMPDEST DUP2 SLOAD DUP2 MSTORE SWAP1 PUSH1 0x1 ADD SWAP1 PUSH1 0x20 ADD DUP1 DUP4 GT PUSH2 0x4CB JUMPI DUP3 SWAP1 SUB PUSH1 0x1F AND DUP3 ADD SWAP2 JUMPDEST POP POP POP POP POP SWAP1 POP SWAP1 JUMP JUMPDEST PUSH1 0x0 PUSH2 0x4FF CALLER DUP5 DUP5 PUSH2 0xD0B JUMP JUMPDEST POP PUSH1 0x1 SWAP3 SWAP2 POP POP JUMP JUMPDEST CALLER PUSH1 0x0 SWAP1 DUP2 MSTORE PUSH1 0x7 PUSH1 0x20 MSTORE PUSH1 0x40 DUP2 KECCAK256 SLOAD PUSH1 0xFF AND ISZERO ISZERO PUSH1 0x1 EQ PUSH2 0x53C JUMPI PUSH1 0x40 MLOAD PUSH3 0x461BCD PUSH1 0xE5 SHL DUP2 MSTORE PUSH1 0x4 ADD PUSH2 0x37F SWAP1 PUSH2 0x1527 JUMP JUMPDEST POP PUSH1 0xC SLOAD SWAP1 JUMP JUMPDEST CALLER PUSH1 0x0 SWAP1 DUP2 MSTORE PUSH1 0x7 PUSH1 0x20 MSTORE PUSH1 0x40 DUP2 KECCAK256 SLOAD PUSH1 0xFF AND ISZERO ISZERO PUSH1 0x1 EQ PUSH2 0x577 JUMPI PUSH1 0x40 MLOAD PUSH3 0x461BCD PUSH1 0xE5 SHL DUP2 MSTORE PUSH1 0x4 ADD PUSH2 0x37F SWAP1 PUSH2 0x1527 JUMP JUMPDEST PUSH1 0xC SLOAD PUSH2 0x584 SWAP1 DUP4 PUSH2 0xE30 JUMP JUMPDEST PUSH1 0xC SSTORE PUSH2 0x4FF DUP4 DUP4 PUSH2 0xE43 JUMP JUMPDEST PUSH1 0x0 PUSH2 0x59E DUP5 DUP5 DUP5 PUSH2 0xB3C JUMP JUMPDEST PUSH1 0x1 PUSH1 0x1 PUSH1 0xA0 SHL SUB DUP5 AND PUSH1 0x0 SWAP1 DUP2 MSTORE PUSH1 0x1 PUSH1 0x20 SWAP1 DUP2 MSTORE PUSH1 0x40 DUP1 DUP4 KECCAK256 CALLER DUP5 MSTORE SWAP1 SWAP2 MSTORE SWAP1 KECCAK256 SLOAD DUP3 DUP2 LT ISZERO PUSH2 0x623 JUMPI PUSH1 0x40 MLOAD PUSH3 0x461BCD PUSH1 0xE5 SHL DUP2 MSTORE PUSH1 0x20 PUSH1 0x4 DUP3 ADD MSTORE PUSH1 0x28 PUSH1 0x24 DUP3 ADD MSTORE PUSH32 0x45524332303A207472616E7366657220616D6F756E7420657863656564732061 PUSH1 0x44 DUP3 ADD MSTORE PUSH8 0x6C6C6F77616E6365 PUSH1 0xC0 SHL PUSH1 0x64 DUP3 ADD MSTORE PUSH1 0x84 ADD PUSH2 0x37F JUMP JUMPDEST PUSH2 0x630 DUP6 CALLER DUP6 DUP5 SUB PUSH2 0xD0B JUMP JUMPDEST POP PUSH1 0x1 SWAP5 SWAP4 POP POP POP POP JUMP JUMPDEST PUSH1 0x5 SLOAD PUSH1 0x1 PUSH1 0x1 PUSH1 0xA0 SHL SUB AND CALLER EQ PUSH2 0x665 JUMPI PUSH1 0x40 MLOAD PUSH3 0x461BCD PUSH1 0xE5 SHL DUP2 MSTORE PUSH1 0x4 ADD PUSH2 0x37F SWAP1 PUSH2 0x14F2 JUMP JUMPDEST PUSH1 0x1 PUSH1 0x1 PUSH1 0xA0 SHL SUB AND PUSH1 0x0 SWAP1 DUP2 MSTORE PUSH1 0x7 PUSH1 0x20 MSTORE PUSH1 0x40 SWAP1 KECCAK256 DUP1 SLOAD PUSH1 0xFF NOT AND PUSH1 0x1 OR SWAP1 SSTORE JUMP JUMPDEST PUSH2 0x6AD PUSH13 0xC9F2C9CD04674EDEA40000000 PUSH13 0x2A0349091A4EF0A39586800000 PUSH2 0x155E JUMP JUMPDEST DUP2 JUMP JUMPDEST CALLER PUSH1 0x0 DUP2 DUP2 MSTORE PUSH1 0x1 PUSH1 0x20 SWAP1 DUP2 MSTORE PUSH1 0x40 DUP1 DUP4 KECCAK256 PUSH1 0x1 PUSH1 0x1 PUSH1 0xA0 SHL SUB DUP8 AND DUP5 MSTORE SWAP1 SWAP2 MSTORE DUP2 KECCAK256 SLOAD SWAP1 SWAP2 PUSH2 0x4FF SWAP2 DUP6 SWAP1 PUSH2 0x6E7 SWAP1 DUP7 SWAP1 PUSH2 0x155E JUMP JUMPDEST PUSH2 0xD0B JUMP JUMPDEST PUSH1 0x5 SLOAD PUSH1 0x1 PUSH1 0x1 PUSH1 0xA0 SHL SUB AND CALLER EQ PUSH2 0x716 JUMPI PUSH1 0x40 MLOAD PUSH3 0x461BCD PUSH1 0xE5 SHL DUP2 MSTORE PUSH1 0x4 ADD PUSH2 0x37F SWAP1 PUSH2 0x14F2 JUMP JUMPDEST PUSH2 0x720 PUSH1 0x0 PUSH2 0xF22 JUMP JUMPDEST JUMP JUMPDEST CALLER PUSH1 0x0 SWAP1 DUP2 MSTORE PUSH1 0x7 PUSH1 0x20 MSTORE PUSH1 0x40 DUP2 KECCAK256 SLOAD PUSH1 0xFF AND ISZERO ISZERO PUSH1 0x1 EQ PUSH2 0x756 JUMPI PUSH1 0x40 MLOAD PUSH3 0x461BCD PUSH1 0xE5 SHL DUP2 MSTORE PUSH1 0x4 ADD PUSH2 0x37F SWAP1 PUSH2 0x1527 JUMP JUMPDEST POP PUSH13 0xC9F2C9CD04674EDEA40000000 SWAP1 JUMP JUMPDEST PUSH1 0x60 PUSH1 0x4 DUP1 SLOAD PUSH2 0x46F SWAP1 PUSH2 0x15C9 JUMP JUMPDEST CALLER PUSH1 0x0 SWAP1 DUP2 MSTORE PUSH1 0x7 PUSH1 0x20 MSTORE PUSH1 0x40 DUP2 KECCAK256 SLOAD PUSH1 0xFF AND ISZERO ISZERO PUSH1 0x1 EQ PUSH2 0x7AB JUMPI PUSH1 0x40 MLOAD PUSH3 0x461BCD PUSH1 0xE5 SHL DUP2 MSTORE PUSH1 0x4 ADD PUSH2 0x37F SWAP1 PUSH2 0x1527 JUMP JUMPDEST PUSH1 0xC SLOAD PUSH2 0x7B8 SWAP1 DUP4 PUSH2 0xF74 JUMP JUMPDEST PUSH1 0xC SSTORE PUSH2 0x4FF DUP4 DUP4 PUSH2 0xF80 JUMP JUMPDEST CALLER PUSH1 0x0 SWAP1 DUP2 MSTORE PUSH1 0x1 PUSH1 0x20 SWAP1 DUP2 MSTORE PUSH1 0x40 DUP1 DUP4 KECCAK256 PUSH1 0x1 PUSH1 0x1 PUSH1 0xA0 SHL SUB DUP7 AND DUP5 MSTORE SWAP1 SWAP2 MSTORE DUP2 KECCAK256 SLOAD DUP3 DUP2 LT ISZERO PUSH2 0x847 JUMPI PUSH1 0x40 MLOAD PUSH3 0x461BCD PUSH1 0xE5 SHL DUP2 MSTORE PUSH1 0x20 PUSH1 0x4 DUP3 ADD MSTORE PUSH1 0x25 PUSH1 0x24 DUP3 ADD MSTORE PUSH32 0x45524332303A2064656372656173656420616C6C6F77616E63652062656C6F77 PUSH1 0x44 DUP3 ADD MSTORE PUSH5 0x207A65726F PUSH1 0xD8 SHL PUSH1 0x64 DUP3 ADD MSTORE PUSH1 0x84 ADD PUSH2 0x37F JUMP JUMPDEST PUSH2 0x456 CALLER DUP6 DUP6 DUP5 SUB PUSH2 0xD0B JUMP JUMPDEST PUSH1 0x0 PUSH13 0x2A0349091A4EF0A39586800000 PUSH1 0x8 SLOAD LT DUP1 ISZERO PUSH2 0x874 JUMPI POP PUSH1 0x0 DUP3 GT JUMPDEST DUP1 ISZERO PUSH2 0x89E JUMPI POP PUSH1 0x1 PUSH1 0x1 PUSH1 0xA0 SHL SUB DUP4 AND PUSH1 0x0 SWAP1 DUP2 MSTORE PUSH1 0xA PUSH1 0x20 MSTORE PUSH1 0x40 SWAP1 KECCAK256 SLOAD PUSH1 0xFF AND ISZERO ISZERO PUSH1 0x1 EQ ISZERO JUMPDEST ISZERO PUSH2 0xA96 JUMPI CALLER PUSH1 0x0 SWAP1 DUP2 MSTORE PUSH1 0x9 PUSH1 0x20 MSTORE PUSH1 0x40 SWAP1 KECCAK256 SLOAD ISZERO PUSH2 0xA8C JUMPI PUSH1 0x0 DUP1 JUMPDEST CALLER PUSH1 0x0 SWAP1 DUP2 MSTORE PUSH1 0x9 PUSH1 0x20 MSTORE PUSH1 0x40 SWAP1 KECCAK256 SLOAD PUSH1 0xFF DUP3 AND LT ISZERO PUSH2 0xA72 JUMPI CALLER PUSH1 0x0 SWAP1 DUP2 MSTORE PUSH1 0x9 PUSH1 0x20 MSTORE PUSH1 0x40 SWAP1 KECCAK256 DUP1 SLOAD PUSH3 0x93A80 SWAP2 PUSH2 0x924 SWAP2 PUSH1 0xFF DUP6 AND SWAP1 DUP2 LT PUSH2 0x903 JUMPI PUSH2 0x903 PUSH2 0x166B JUMP JUMPDEST SWAP1 PUSH1 0x0 MSTORE PUSH1 0x20 PUSH1 0x0 KECCAK256 SWAP1 PUSH1 0x2 MUL ADD PUSH1 0x1 ADD SLOAD TIMESTAMP PUSH2 0xF74 SWAP1 SWAP2 SWAP1 PUSH4 0xFFFFFFFF AND JUMP JUMPDEST GT ISZERO PUSH2 0xA52 JUMPI CALLER PUSH1 0x0 SWAP1 DUP2 MSTORE PUSH1 0x9 PUSH1 0x20 MSTORE PUSH1 0x40 SWAP1 KECCAK256 DUP1 SLOAD PUSH2 0x947 SWAP1 PUSH1 0x1 SWAP1 PUSH2 0x1595 JUMP JUMPDEST DUP2 SLOAD DUP2 LT PUSH2 0x957 JUMPI PUSH2 0x957 PUSH2 0x166B JUMP JUMPDEST SWAP1 PUSH1 0x0 MSTORE PUSH1 0x20 PUSH1 0x0 KECCAK256 SWAP1 PUSH1 0x2 MUL ADD PUSH1 0x9 PUSH1 0x0 PUSH2 0x970 CALLER SWAP1 JUMP JUMPDEST PUSH1 0x1 PUSH1 0x1 PUSH1 0xA0 SHL SUB AND PUSH1 0x1 PUSH1 0x1 PUSH1 0xA0 SHL SUB AND DUP2 MSTORE PUSH1 0x20 ADD SWAP1 DUP2 MSTORE PUSH1 0x20 ADD PUSH1 0x0 KECCAK256 DUP3 PUSH1 0xFF AND DUP2 SLOAD DUP2 LT PUSH2 0x9A4 JUMPI PUSH2 0x9A4 PUSH2 0x166B JUMP JUMPDEST PUSH1 0x0 SWAP2 DUP3 MSTORE PUSH1 0x20 DUP3 KECCAK256 DUP4 SLOAD PUSH1 0x2 SWAP1 SWAP3 MUL ADD DUP1 SLOAD PUSH1 0x1 PUSH1 0x1 PUSH1 0xA0 SHL SUB NOT AND PUSH1 0x1 PUSH1 0x1 PUSH1 0xA0 SHL SUB SWAP1 SWAP3 AND SWAP2 SWAP1 SWAP2 OR DUP2 SSTORE PUSH1 0x1 SWAP3 DUP4 ADD SLOAD SWAP3 ADD SWAP2 SWAP1 SWAP2 SSTORE PUSH1 0x9 SWAP1 PUSH2 0x9E8 CALLER SWAP1 JUMP JUMPDEST PUSH1 0x1 PUSH1 0x1 PUSH1 0xA0 SHL SUB AND PUSH1 0x1 PUSH1 0x1 PUSH1 0xA0 SHL SUB AND DUP2 MSTORE PUSH1 0x20 ADD SWAP1 DUP2 MSTORE PUSH1 0x20 ADD PUSH1 0x0 KECCAK256 DUP1 SLOAD DUP1 PUSH2 0xA17 JUMPI PUSH2 0xA17 PUSH2 0x1655 JUMP JUMPDEST PUSH1 0x0 DUP3 DUP2 MSTORE PUSH1 0x20 DUP2 KECCAK256 PUSH1 0x2 PUSH1 0x0 NOT SWAP1 SWAP4 ADD SWAP3 DUP4 MUL ADD DUP1 SLOAD PUSH1 0x1 PUSH1 0x1 PUSH1 0xA0 SHL SUB NOT AND DUP2 SSTORE PUSH1 0x1 ADD SSTORE SWAP1 SSTORE DUP1 PUSH2 0xA4A DUP2 PUSH2 0x15AC JUMP JUMPDEST SWAP2 POP POP PUSH2 0xA60 JUMP JUMPDEST DUP2 PUSH2 0xA5C DUP2 PUSH2 0x1604 JUMP JUMPDEST SWAP3 POP POP JUMPDEST DUP1 PUSH2 0xA6A DUP2 PUSH2 0x161F JUMP JUMPDEST SWAP2 POP POP PUSH2 0x8BC JUMP JUMPDEST PUSH1 0x4 DUP3 LT ISZERO PUSH2 0xA85 JUMPI PUSH2 0xA85 CALLER DUP7 PUSH2 0x10CB JUMP JUMPDEST POP POP PUSH2 0xA96 JUMP JUMPDEST PUSH2 0xA96 CALLER DUP5 PUSH2 0x10CB JUMP JUMPDEST PUSH2 0x4FF CALLER DUP5 DUP5 PUSH2 0xB3C JUMP JUMPDEST PUSH1 0x5 SLOAD PUSH1 0x1 PUSH1 0x1 PUSH1 0xA0 SHL SUB AND CALLER EQ PUSH2 0xACB JUMPI PUSH1 0x40 MLOAD PUSH3 0x461BCD PUSH1 0xE5 SHL DUP2 MSTORE PUSH1 0x4 ADD PUSH2 0x37F SWAP1 PUSH2 0x14F2 JUMP JUMPDEST PUSH1 0x1 PUSH1 0x1 PUSH1 0xA0 SHL SUB DUP2 AND PUSH2 0xB30 JUMPI PUSH1 0x40 MLOAD PUSH3 0x461BCD PUSH1 0xE5 SHL DUP2 MSTORE PUSH1 0x20 PUSH1 0x4 DUP3 ADD MSTORE PUSH1 0x26 PUSH1 0x24 DUP3 ADD MSTORE PUSH32 0x4F776E61626C653A206E6577206F776E657220697320746865207A65726F2061 PUSH1 0x44 DUP3 ADD MSTORE PUSH6 0x646472657373 PUSH1 0xD0 SHL PUSH1 0x64 DUP3 ADD MSTORE PUSH1 0x84 ADD PUSH2 0x37F JUMP JUMPDEST PUSH2 0xB39 DUP2 PUSH2 0xF22 JUMP JUMPDEST POP JUMP JUMPDEST PUSH1 0x1 PUSH1 0x1 PUSH1 0xA0 SHL SUB DUP4 AND PUSH2 0xBA0 JUMPI PUSH1 0x40 MLOAD PUSH3 0x461BCD PUSH1 0xE5 SHL DUP2 MSTORE PUSH1 0x20 PUSH1 0x4 DUP3 ADD MSTORE PUSH1 0x25 PUSH1 0x24 DUP3 ADD MSTORE PUSH32 0x45524332303A207472616E736665722066726F6D20746865207A65726F206164 PUSH1 0x44 DUP3 ADD MSTORE PUSH5 0x6472657373 PUSH1 0xD8 SHL PUSH1 0x64 DUP3 ADD MSTORE PUSH1 0x84 ADD PUSH2 0x37F JUMP JUMPDEST PUSH1 0x1 PUSH1 0x1 PUSH1 0xA0 SHL SUB DUP3 AND PUSH2 0xC02 JUMPI PUSH1 0x40 MLOAD PUSH3 0x461BCD PUSH1 0xE5 SHL DUP2 MSTORE PUSH1 0x20 PUSH1 0x4 DUP3 ADD MSTORE PUSH1 0x23 PUSH1 0x24 DUP3 ADD MSTORE PUSH32 0x45524332303A207472616E7366657220746F20746865207A65726F2061646472 PUSH1 0x44 DUP3 ADD MSTORE PUSH3 0x657373 PUSH1 0xE8 SHL PUSH1 0x64 DUP3 ADD MSTORE PUSH1 0x84 ADD PUSH2 0x37F JUMP JUMPDEST PUSH1 0x1 PUSH1 0x1 PUSH1 0xA0 SHL SUB DUP4 AND PUSH1 0x0 SWAP1 DUP2 MSTORE PUSH1 0x20 DUP2 SWAP1 MSTORE PUSH1 0x40 SWAP1 KECCAK256 SLOAD DUP2 DUP2 LT ISZERO PUSH2 0xC7A JUMPI PUSH1 0x40 MLOAD PUSH3 0x461BCD PUSH1 0xE5 SHL DUP2 MSTORE PUSH1 0x20 PUSH1 0x4 DUP3 ADD MSTORE PUSH1 0x26 PUSH1 0x24 DUP3 ADD MSTORE PUSH32 0x45524332303A207472616E7366657220616D6F756E7420657863656564732062 PUSH1 0x44 DUP3 ADD MSTORE PUSH6 0x616C616E6365 PUSH1 0xD0 SHL PUSH1 0x64 DUP3 ADD MSTORE PUSH1 0x84 ADD PUSH2 0x37F JUMP JUMPDEST PUSH1 0x1 PUSH1 0x1 PUSH1 0xA0 SHL SUB DUP1 DUP6 AND PUSH1 0x0 SWAP1 DUP2 MSTORE PUSH1 0x20 DUP2 SWAP1 MSTORE PUSH1 0x40 DUP1 DUP3 KECCAK256 DUP6 DUP6 SUB SWAP1 SSTORE SWAP2 DUP6 AND DUP2 MSTORE SWAP1 DUP2 KECCAK256 DUP1 SLOAD DUP5 SWAP3 SWAP1 PUSH2 0xCB1 SWAP1 DUP5 SWAP1 PUSH2 0x155E JUMP JUMPDEST SWAP3 POP POP DUP2 SWAP1 SSTORE POP DUP3 PUSH1 0x1 PUSH1 0x1 PUSH1 0xA0 SHL SUB AND DUP5 PUSH1 0x1 PUSH1 0x1 PUSH1 0xA0 SHL SUB AND PUSH32 0xDDF252AD1BE2C89B69C2B068FC378DAA952BA7F163C4A11628F55A4DF523B3EF DUP5 PUSH1 0x40 MLOAD PUSH2 0xCFD SWAP2 DUP2 MSTORE PUSH1 0x20 ADD SWAP1 JUMP JUMPDEST PUSH1 0x40 MLOAD DUP1 SWAP2 SUB SWAP1 LOG3 POP POP POP POP JUMP JUMPDEST PUSH1 0x1 PUSH1 0x1 PUSH1 0xA0 SHL SUB DUP4 AND PUSH2 0xD6D JUMPI PUSH1 0x40 MLOAD PUSH3 0x461BCD PUSH1 0xE5 SHL DUP2 MSTORE PUSH1 0x20 PUSH1 0x4 DUP3 ADD MSTORE PUSH1 0x24 DUP1 DUP3 ADD MSTORE PUSH32 0x45524332303A20617070726F76652066726F6D20746865207A65726F20616464 PUSH1 0x44 DUP3 ADD MSTORE PUSH4 0x72657373 PUSH1 0xE0 SHL PUSH1 0x64 DUP3 ADD MSTORE PUSH1 0x84 ADD PUSH2 0x37F JUMP JUMPDEST PUSH1 0x1 PUSH1 0x1 PUSH1 0xA0 SHL SUB DUP3 AND PUSH2 0xDCE JUMPI PUSH1 0x40 MLOAD PUSH3 0x461BCD PUSH1 0xE5 SHL DUP2 MSTORE PUSH1 0x20 PUSH1 0x4 DUP3 ADD MSTORE PUSH1 0x22 PUSH1 0x24 DUP3 ADD MSTORE PUSH32 0x45524332303A20617070726F766520746F20746865207A65726F206164647265 PUSH1 0x44 DUP3 ADD MSTORE PUSH2 0x7373 PUSH1 0xF0 SHL PUSH1 0x64 DUP3 ADD MSTORE PUSH1 0x84 ADD PUSH2 0x37F JUMP JUMPDEST PUSH1 0x1 PUSH1 0x1 PUSH1 0xA0 SHL SUB DUP4 DUP2 AND PUSH1 0x0 DUP2 DUP2 MSTORE PUSH1 0x1 PUSH1 0x20 SWAP1 DUP2 MSTORE PUSH1 0x40 DUP1 DUP4 KECCAK256 SWAP5 DUP8 AND DUP1 DUP5 MSTORE SWAP5 DUP3 MSTORE SWAP2 DUP3 SWAP1 KECCAK256 DUP6 SWAP1 SSTORE SWAP1 MLOAD DUP5 DUP2 MSTORE PUSH32 0x8C5BE1E5EBEC7D5BD14F71427D1E84F3DD0314C0F7B2291E5B200AC8C7C3B925 SWAP2 ADD JUMPDEST PUSH1 0x40 MLOAD DUP1 SWAP2 SUB SWAP1 LOG3 POP POP POP JUMP JUMPDEST PUSH1 0x0 PUSH2 0xE3C DUP3 DUP5 PUSH2 0x155E JUMP JUMPDEST SWAP4 SWAP3 POP POP POP JUMP JUMPDEST PUSH1 0x1 PUSH1 0x1 PUSH1 0xA0 SHL SUB DUP3 AND PUSH2 0xE99 JUMPI PUSH1 0x40 MLOAD PUSH3 0x461BCD PUSH1 0xE5 SHL DUP2 MSTORE PUSH1 0x20 PUSH1 0x4 DUP3 ADD MSTORE PUSH1 0x1F PUSH1 0x24 DUP3 ADD MSTORE PUSH32 0x45524332303A206D696E7420746F20746865207A65726F206164647265737300 PUSH1 0x44 DUP3 ADD MSTORE PUSH1 0x64 ADD PUSH2 0x37F JUMP JUMPDEST DUP1 PUSH1 0x2 PUSH1 0x0 DUP3 DUP3 SLOAD PUSH2 0xEAB SWAP2 SWAP1 PUSH2 0x155E JUMP JUMPDEST SWAP1 SWAP2 SSTORE POP POP PUSH1 0x1 PUSH1 0x1 PUSH1 0xA0 SHL SUB DUP3 AND PUSH1 0x0 SWAP1 DUP2 MSTORE PUSH1 0x20 DUP2 SWAP1 MSTORE PUSH1 0x40 DUP2 KECCAK256 DUP1 SLOAD DUP4 SWAP3 SWAP1 PUSH2 0xED8 SWAP1 DUP5 SWAP1 PUSH2 0x155E JUMP JUMPDEST SWAP1 SWAP2 SSTORE POP POP PUSH1 0x40 MLOAD DUP2 DUP2 MSTORE PUSH1 0x1 PUSH1 0x1 PUSH1 0xA0 SHL SUB DUP4 AND SWAP1 PUSH1 0x0 SWAP1 PUSH32 0xDDF252AD1BE2C89B69C2B068FC378DAA952BA7F163C4A11628F55A4DF523B3EF SWAP1 PUSH1 0x20 ADD PUSH1 0x40 MLOAD DUP1 SWAP2 SUB SWAP1 LOG3 POP POP JUMP JUMPDEST PUSH1 0x5 DUP1 SLOAD PUSH1 0x1 PUSH1 0x1 PUSH1 0xA0 SHL SUB DUP4 DUP2 AND PUSH1 0x1 PUSH1 0x1 PUSH1 0xA0 SHL SUB NOT DUP4 AND DUP2 OR SWAP1 SWAP4 SSTORE PUSH1 0x40 MLOAD SWAP2 AND SWAP2 SWAP1 DUP3 SWAP1 PUSH32 0x8BE0079C531659141344CD1FD0A4F28419497F9722A3DAAFE3B4186F6B6457E0 SWAP1 PUSH1 0x0 SWAP1 LOG3 POP POP JUMP JUMPDEST PUSH1 0x0 PUSH2 0xE3C DUP3 DUP5 PUSH2 0x1595 JUMP JUMPDEST PUSH1 0x1 PUSH1 0x1 PUSH1 0xA0 SHL SUB DUP3 AND PUSH2 0xFE0 JUMPI PUSH1 0x40 MLOAD PUSH3 0x461BCD PUSH1 0xE5 SHL DUP2 MSTORE PUSH1 0x20 PUSH1 0x4 DUP3 ADD MSTORE PUSH1 0x21 PUSH1 0x24 DUP3 ADD MSTORE PUSH32 0x45524332303A206275726E2066726F6D20746865207A65726F20616464726573 PUSH1 0x44 DUP3 ADD MSTORE PUSH1 0x73 PUSH1 0xF8 SHL PUSH1 0x64 DUP3 ADD MSTORE PUSH1 0x84 ADD PUSH2 0x37F JUMP JUMPDEST PUSH1 0x1 PUSH1 0x1 PUSH1 0xA0 SHL SUB DUP3 AND PUSH1 0x0 SWAP1 DUP2 MSTORE PUSH1 0x20 DUP2 SWAP1 MSTORE PUSH1 0x40 SWAP1 KECCAK256 SLOAD DUP2 DUP2 LT ISZERO PUSH2 0x1054 JUMPI PUSH1 0x40 MLOAD PUSH3 0x461BCD PUSH1 0xE5 SHL DUP2 MSTORE PUSH1 0x20 PUSH1 0x4 DUP3 ADD MSTORE PUSH1 0x22 PUSH1 0x24 DUP3 ADD MSTORE PUSH32 0x45524332303A206275726E20616D6F756E7420657863656564732062616C616E PUSH1 0x44 DUP3 ADD MSTORE PUSH2 0x6365 PUSH1 0xF0 SHL PUSH1 0x64 DUP3 ADD MSTORE PUSH1 0x84 ADD PUSH2 0x37F JUMP JUMPDEST PUSH1 0x1 PUSH1 0x1 PUSH1 0xA0 SHL SUB DUP4 AND PUSH1 0x0 SWAP1 DUP2 MSTORE PUSH1 0x20 DUP2 SWAP1 MSTORE PUSH1 0x40 DUP2 KECCAK256 DUP4 DUP4 SUB SWAP1 SSTORE PUSH1 0x2 DUP1 SLOAD DUP5 SWAP3 SWAP1 PUSH2 0x1083 SWAP1 DUP5 SWAP1 PUSH2 0x1595 JUMP JUMPDEST SWAP1 SWAP2 SSTORE POP POP PUSH1 0x40 MLOAD DUP3 DUP2 MSTORE PUSH1 0x0 SWAP1 PUSH1 0x1 PUSH1 0x1 PUSH1 0xA0 SHL SUB DUP6 AND SWAP1 PUSH32 0xDDF252AD1BE2C89B69C2B068FC378DAA952BA7F163C4A11628F55A4DF523B3EF SWAP1 PUSH1 0x20 ADD PUSH2 0xE23 JUMP JUMPDEST POP POP POP JUMP JUMPDEST PUSH1 0x0 PUSH2 0x10D8 PUSH1 0xB SLOAD PUSH2 0x1180 JUMP JUMPDEST PUSH1 0x8 SLOAD SWAP1 SWAP2 POP PUSH2 0x10E8 SWAP1 DUP3 PUSH2 0xE30 JUMP JUMPDEST PUSH1 0x8 SSTORE PUSH1 0x1 PUSH1 0x1 PUSH1 0xA0 SHL SUB DUP4 DUP2 AND PUSH1 0x0 SWAP1 DUP2 MSTORE PUSH1 0x9 PUSH1 0x20 SWAP1 DUP2 MSTORE PUSH1 0x40 DUP1 DUP4 KECCAK256 DUP2 MLOAD DUP1 DUP4 ADD DUP4 MSTORE DUP8 DUP7 AND DUP1 DUP3 MSTORE TIMESTAMP DUP3 DUP7 ADD SWAP1 DUP2 MSTORE DUP4 SLOAD PUSH1 0x1 DUP1 DUP3 ADD DUP7 SSTORE SWAP5 DUP9 MSTORE DUP7 DUP9 KECCAK256 SWAP4 MLOAD PUSH1 0x2 SWAP1 SWAP2 MUL SWAP1 SWAP4 ADD DUP1 SLOAD PUSH1 0x1 PUSH1 0x1 PUSH1 0xA0 SHL SUB NOT AND SWAP4 SWAP1 SWAP9 AND SWAP3 SWAP1 SWAP3 OR DUP8 SSTORE SWAP1 MLOAD SWAP6 DUP3 ADD SWAP6 SWAP1 SWAP6 SSTORE SWAP4 DUP4 MSTORE PUSH1 0xA SWAP1 SWAP2 MSTORE SWAP1 KECCAK256 DUP1 SLOAD PUSH1 0xFF NOT AND DUP3 OR SWAP1 SSTORE PUSH1 0xB SLOAD PUSH2 0x1173 SWAP2 PUSH2 0x155E JUMP JUMPDEST PUSH1 0xB SSTORE PUSH2 0x10C6 DUP4 DUP3 PUSH2 0xE43 JUMP JUMPDEST PUSH1 0x0 PUSH1 0x2 DUP3 LT ISZERO PUSH2 0x119D JUMPI PUSH2 0x1197 PUSH3 0xF4240 PUSH2 0x13B9 JUMP JUMPDEST SWAP3 SWAP2 POP POP JUMP JUMPDEST PUSH1 0x4 DUP3 LT ISZERO PUSH2 0x11B2 JUMPI PUSH2 0x1197 PUSH3 0xEA790 PUSH2 0x13B9 JUMP JUMPDEST PUSH1 0x8 DUP3 LT ISZERO PUSH2 0x11C7 JUMPI PUSH2 0x1197 PUSH3 0xE0CE0 PUSH2 0x13B9 JUMP JUMPDEST PUSH1 0x10 DUP3 LT ISZERO PUSH2 0x11DC JUMPI PUSH2 0x1197 PUSH3 0xD7230 PUSH2 0x13B9 JUMP JUMPDEST PUSH1 0x20 DUP3 LT ISZERO PUSH2 0x11F1 JUMPI PUSH2 0x1197 PUSH3 0xCD780 PUSH2 0x13B9 JUMP JUMPDEST PUSH1 0x40 DUP3 LT ISZERO PUSH2 0x1206 JUMPI PUSH2 0x1197 PUSH3 0xC3CD0 PUSH2 0x13B9 JUMP JUMPDEST PUSH1 0x80 DUP3 LT ISZERO PUSH2 0x121B JUMPI PUSH2 0x1197 PUSH3 0xBA220 PUSH2 0x13B9 JUMP JUMPDEST PUSH2 0x100 DUP3 LT ISZERO PUSH2 0x1231 JUMPI PUSH2 0x1197 PUSH3 0xB0770 PUSH2 0x13B9 JUMP JUMPDEST PUSH2 0x200 DUP3 LT ISZERO PUSH2 0x1247 JUMPI PUSH2 0x1197 PUSH3 0xA6CC0 PUSH2 0x13B9 JUMP JUMPDEST PUSH2 0x400 DUP3 LT ISZERO PUSH2 0x125D JUMPI PUSH2 0x1197 PUSH3 0x9D210 PUSH2 0x13B9 JUMP JUMPDEST PUSH2 0x800 DUP3 LT ISZERO PUSH2 0x1273 JUMPI PUSH2 0x1197 PUSH3 0x93760 PUSH2 0x13B9 JUMP JUMPDEST PUSH2 0x1000 DUP3 LT ISZERO PUSH2 0x1289 JUMPI PUSH2 0x1197 PUSH3 0x89CB0 PUSH2 0x13B9 JUMP JUMPDEST PUSH2 0x2000 DUP3 LT ISZERO PUSH2 0x129F JUMPI PUSH2 0x1197 PUSH3 0x80200 PUSH2 0x13B9 JUMP JUMPDEST PUSH2 0x4000 DUP3 LT ISZERO PUSH2 0x12B5 JUMPI PUSH2 0x1197 PUSH3 0x76750 PUSH2 0x13B9 JUMP JUMPDEST PUSH2 0x8000 DUP3 LT ISZERO PUSH2 0x12CB JUMPI PUSH2 0x1197 PUSH3 0x6CCA0 PUSH2 0x13B9 JUMP JUMPDEST PUSH3 0x10000 DUP3 LT ISZERO PUSH2 0x12E2 JUMPI PUSH2 0x1197 PUSH3 0x631F0 PUSH2 0x13B9 JUMP JUMPDEST PUSH3 0x20000 DUP3 LT ISZERO PUSH2 0x12F9 JUMPI PUSH2 0x1197 PUSH3 0x59740 PUSH2 0x13B9 JUMP JUMPDEST PUSH3 0x40000 DUP3 LT ISZERO PUSH2 0x1310 JUMPI PUSH2 0x1197 PUSH3 0x4FC90 PUSH2 0x13B9 JUMP JUMPDEST PUSH3 0x80000 DUP3 LT ISZERO PUSH2 0x1327 JUMPI PUSH2 0x1197 PUSH3 0x461E0 PUSH2 0x13B9 JUMP JUMPDEST PUSH3 0x100000 DUP3 LT ISZERO PUSH2 0x133E JUMPI PUSH2 0x1197 PUSH3 0x3C730 PUSH2 0x13B9 JUMP JUMPDEST PUSH3 0x200000 DUP3 LT ISZERO PUSH2 0x1355 JUMPI PUSH2 0x1197 PUSH3 0x32C80 PUSH2 0x13B9 JUMP JUMPDEST PUSH3 0x400000 DUP3 LT ISZERO PUSH2 0x136C JUMPI PUSH2 0x1197 PUSH3 0x291D0 PUSH2 0x13B9 JUMP JUMPDEST PUSH3 0x800000 DUP3 LT ISZERO PUSH2 0x1383 JUMPI PUSH2 0x1197 PUSH3 0x1F720 PUSH2 0x13B9 JUMP JUMPDEST PUSH4 0x1000000 DUP3 LT ISZERO PUSH2 0x139B JUMPI PUSH2 0x1197 PUSH3 0x15C70 PUSH2 0x13B9 JUMP JUMPDEST PUSH4 0x2000000 DUP3 LT ISZERO PUSH2 0x13B2 JUMPI PUSH2 0x1197 PUSH2 0xC1C0 PUSH2 0x13B9 JUMP JUMPDEST PUSH2 0x1197 PUSH2 0x2710 JUMPDEST PUSH1 0x0 PUSH2 0x1197 DUP3 PUSH8 0xDE0B6B3A7640000 PUSH2 0x1576 JUMP JUMPDEST DUP1 CALLDATALOAD PUSH1 0x1 PUSH1 0x1 PUSH1 0xA0 SHL SUB DUP2 AND DUP2 EQ PUSH2 0x13E4 JUMPI PUSH1 0x0 DUP1 REVERT JUMPDEST SWAP2 SWAP1 POP JUMP JUMPDEST PUSH1 0x0 PUSH1 0x20 DUP3 DUP5 SUB SLT ISZERO PUSH2 0x13FB JUMPI PUSH1 0x0 DUP1 REVERT JUMPDEST PUSH2 0xE3C DUP3 PUSH2 0x13CD JUMP JUMPDEST PUSH1 0x0 DUP1 PUSH1 0x40 DUP4 DUP6 SUB SLT ISZERO PUSH2 0x1417 JUMPI PUSH1 0x0 DUP1 REVERT JUMPDEST PUSH2 0x1420 DUP4 PUSH2 0x13CD JUMP JUMPDEST SWAP2 POP PUSH2 0x142E PUSH1 0x20 DUP5 ADD PUSH2 0x13CD JUMP JUMPDEST SWAP1 POP SWAP3 POP SWAP3 SWAP1 POP JUMP JUMPDEST PUSH1 0x0 DUP1 PUSH1 0x0 PUSH1 0x60 DUP5 DUP7 SUB SLT ISZERO PUSH2 0x144C JUMPI PUSH1 0x0 DUP1 REVERT JUMPDEST PUSH2 0x1455 DUP5 PUSH2 0x13CD JUMP JUMPDEST SWAP3 POP PUSH2 0x1463 PUSH1 0x20 DUP6 ADD PUSH2 0x13CD JUMP JUMPDEST SWAP2 POP PUSH1 0x40 DUP5 ADD CALLDATALOAD SWAP1 POP SWAP3 POP SWAP3 POP SWAP3 JUMP JUMPDEST PUSH1 0x0 DUP1 PUSH1 0x40 DUP4 DUP6 SUB SLT ISZERO PUSH2 0x1486 JUMPI PUSH1 0x0 DUP1 REVERT JUMPDEST PUSH2 0x148F DUP4 PUSH2 0x13CD JUMP JUMPDEST SWAP5 PUSH1 0x20 SWAP4 SWAP1 SWAP4 ADD CALLDATALOAD SWAP4 POP POP POP JUMP JUMPDEST PUSH1 0x0 PUSH1 0x20 DUP1 DUP4 MSTORE DUP4 MLOAD DUP1 DUP3 DUP6 ADD MSTORE PUSH1 0x0 JUMPDEST DUP2 DUP2 LT ISZERO PUSH2 0x14CA JUMPI DUP6 DUP2 ADD DUP4 ADD MLOAD DUP6 DUP3 ADD PUSH1 0x40 ADD MSTORE DUP3 ADD PUSH2 0x14AE JUMP JUMPDEST DUP2 DUP2 GT ISZERO PUSH2 0x14DC JUMPI PUSH1 0x0 PUSH1 0x40 DUP4 DUP8 ADD ADD MSTORE JUMPDEST POP PUSH1 0x1F ADD PUSH1 0x1F NOT AND SWAP3 SWAP1 SWAP3 ADD PUSH1 0x40 ADD SWAP4 SWAP3 POP POP POP JUMP JUMPDEST PUSH1 0x20 DUP1 DUP3 MSTORE DUP2 DUP2 ADD MSTORE PUSH32 0x4F776E61626C653A2063616C6C6572206973206E6F7420746865206F776E6572 PUSH1 0x40 DUP3 ADD MSTORE PUSH1 0x60 ADD SWAP1 JUMP JUMPDEST PUSH1 0x20 DUP1 DUP3 MSTORE PUSH1 0x18 SWAP1 DUP3 ADD MSTORE PUSH32 0x43616C6C6572206973206E6F7420617574686F72697A65640000000000000000 PUSH1 0x40 DUP3 ADD MSTORE PUSH1 0x60 ADD SWAP1 JUMP JUMPDEST PUSH1 0x0 DUP3 NOT DUP3 GT ISZERO PUSH2 0x1571 JUMPI PUSH2 0x1571 PUSH2 0x163F JUMP JUMPDEST POP ADD SWAP1 JUMP JUMPDEST PUSH1 0x0 DUP2 PUSH1 0x0 NOT DIV DUP4 GT DUP3 ISZERO ISZERO AND ISZERO PUSH2 0x1590 JUMPI PUSH2 0x1590 PUSH2 0x163F JUMP JUMPDEST POP MUL SWAP1 JUMP JUMPDEST PUSH1 0x0 DUP3 DUP3 LT ISZERO PUSH2 0x15A7 JUMPI PUSH2 0x15A7 PUSH2 0x163F JUMP JUMPDEST POP SUB SWAP1 JUMP JUMPDEST PUSH1 0x0 PUSH1 0xFF DUP3 AND DUP1 PUSH2 0x15BF JUMPI PUSH2 0x15BF PUSH2 0x163F JUMP JUMPDEST PUSH1 0x0 NOT ADD SWAP3 SWAP2 POP POP JUMP JUMPDEST PUSH1 0x1 DUP2 DUP2 SHR SWAP1 DUP3 AND DUP1 PUSH2 0x15DD JUMPI PUSH1 0x7F DUP3 AND SWAP2 POP JUMPDEST PUSH1 0x20 DUP3 LT DUP2 EQ ISZERO PUSH2 0x15FE JUMPI PUSH4 0x4E487B71 PUSH1 0xE0 SHL PUSH1 0x0 MSTORE PUSH1 0x22 PUSH1 0x4 MSTORE PUSH1 0x24 PUSH1 0x0 REVERT JUMPDEST POP SWAP2 SWAP1 POP JUMP JUMPDEST PUSH1 0x0 PUSH1 0x0 NOT DUP3 EQ ISZERO PUSH2 0x1618 JUMPI PUSH2 0x1618 PUSH2 0x163F JUMP JUMPDEST POP PUSH1 0x1 ADD SWAP1 JUMP JUMPDEST PUSH1 0x0 PUSH1 0xFF DUP3 AND PUSH1 0xFF DUP2 EQ ISZERO PUSH2 0x1636 JUMPI PUSH2 0x1636 PUSH2 0x163F JUMP JUMPDEST PUSH1 0x1 ADD SWAP3 SWAP2 POP POP JUMP JUMPDEST PUSH4 0x4E487B71 PUSH1 0xE0 SHL PUSH1 0x0 MSTORE PUSH1 0x11 PUSH1 0x4 MSTORE PUSH1 0x24 PUSH1 0x0 REVERT JUMPDEST PUSH4 0x4E487B71 PUSH1 0xE0 SHL PUSH1 0x0 MSTORE PUSH1 0x31 PUSH1 0x4 MSTORE PUSH1 0x24 PUSH1 0x0 REVERT JUMPDEST PUSH4 0x4E487B71 PUSH1 0xE0 SHL PUSH1 0x0 MSTORE PUSH1 0x32 PUSH1 0x4 MSTORE PUSH1 0x24 PUSH1 0x0 REVERT INVALID LOG2 PUSH5 0x6970667358 0x22 SLT KECCAK256 PUSH18 0x580404E7EACE9F67198A4A747898802D18C9 SWAP3 0xBD 0xB4 0xDA DUP5 INVALID 0xE9 SWAP3 PUSH23 0x126D207664736F6C634300080700330000000000000000 "
		},
		"gasEstimates": {
			"creation": {
				"codeDepositCost": "1163000",
				"executionCost": "infinite",
				"totalCost": "infinite"
			},
			"external": {
				"MAX_SERVICE_TOKENS()": "328",
				"MAX_SHARING_BONUS()": "217",
				"MAX_SUPPLY()": "363",
				"allowance(address,address)": "infinite",
				"approve(address,uint256)": "24654",
				"authorizeCaller(address)": "26795",
				"balanceOf(address)": "2585",
				"burn(address,uint256)": "infinite",
				"decimals()": "244",
				"decreaseAllowance(address,uint256)": "26944",
				"getMaxServiceTokensCount()": "2564",
				"getServiceTokensDisbursedCount()": "4602",
				"increaseAllowance(address,uint256)": "27035",
				"name()": "infinite",
				"owner()": "2412",
				"paused()": "2333",
				"renounceOwnership()": "28184",
				"reward(address,uint256)": "infinite",
				"symbol()": "infinite",
				"totalSupply()": "2404",
				"transfer(address,uint256)": "infinite",
				"transferBetweenAccounts(address,address,uint256)": "infinite",
				"transferFrom(address,address,uint256)": "infinite",
				"transferOwnership(address)": "28444"
			},
			"internal": {
				"deAuthorizeCaller(address)": "infinite",
				"rewardSharingBonus(address,address)": "infinite"
			}
		},
		"methodIdentifiers": {
			"MAX_SERVICE_TOKENS()": "41506b05",
			"MAX_SHARING_BONUS()": "96a449b2",
			"MAX_SUPPLY()": "32cb6b0c",
			"allowance(address,address)": "dd62ed3e",
			"approve(address,uint256)": "095ea7b3",
			"authorizeCaller(address)": "2c388d5d",
			"balanceOf(address)": "70a08231",
			"burn(address,uint256)": "9dc29fac",
			"decimals()": "313ce567",
			"decreaseAllowance(address,uint256)": "a457c2d7",
			"getMaxServiceTokensCount()": "837fbbec",
			"getServiceTokensDisbursedCount()": "15a54a64",
			"increaseAllowance(address,uint256)": "39509351",
			"name()": "06fdde03",
			"owner()": "8da5cb5b",
			"paused()": "5c975abb",
			"renounceOwnership()": "715018a6",
			"reward(address,uint256)": "21670f22",
			"symbol()": "95d89b41",
			"totalSupply()": "18160ddd",
			"transfer(address,uint256)": "a9059cbb",
			"transferBetweenAccounts(address,address,uint256)": "055c0467",
			"transferFrom(address,address,uint256)": "23b872dd",
			"transferOwnership(address)": "f2fde38b"
		}
	},
	"abi": [
		{
			"inputs": [],
			"stateMutability": "nonpayable",
			"type": "constructor"
		},
		{
			"anonymous": false,
			"inputs": [
				{
					"indexed": true,
					"internalType": "address",
					"name": "owner",
					"type": "address"
				},
				{
					"indexed": true,
					"internalType": "address",
					"name": "spender",
					"type": "address"
				},
				{
					"indexed": false,
					"internalType": "uint256",
					"name": "value",
					"type": "uint256"
				}
			],
			"name": "Approval",
			"type": "event"
		},
		{
			"anonymous": false,
			"inputs": [
				{
					"indexed": true,
					"internalType": "address",
					"name": "previousOwner",
					"type": "address"
				},
				{
					"indexed": true,
					"internalType": "address",
					"name": "newOwner",
					"type": "address"
				}
			],
			"name": "OwnershipTransferred",
			"type": "event"
		},
		{
			"anonymous": false,
			"inputs": [
				{
					"indexed": false,
					"internalType": "address",
					"name": "account",
					"type": "address"
				}
			],
			"name": "Paused",
			"type": "event"
		},
		{
			"anonymous": false,
			"inputs": [
				{
					"indexed": true,
					"internalType": "address",
					"name": "from",
					"type": "address"
				},
				{
					"indexed": true,
					"internalType": "address",
					"name": "to",
					"type": "address"
				},
				{
					"indexed": false,
					"internalType": "uint256",
					"name": "value",
					"type": "uint256"
				}
			],
			"name": "Transfer",
			"type": "event"
		},
		{
			"anonymous": false,
			"inputs": [
				{
					"indexed": false,
					"internalType": "address",
					"name": "account",
					"type": "address"
				}
			],
			"name": "Unpaused",
			"type": "event"
		},
		{
			"inputs": [],
			"name": "MAX_SERVICE_TOKENS",
			"outputs": [
				{
					"internalType": "uint256",
					"name": "",
					"type": "uint256"
				}
			],
			"stateMutability": "view",
			"type": "function"
		},
		{
			"inputs": [],
			"name": "MAX_SHARING_BONUS",
			"outputs": [
				{
					"internalType": "uint256",
					"name": "",
					"type": "uint256"
				}
			],
			"stateMutability": "view",
			"type": "function"
		},
		{
			"inputs": [],
			"name": "MAX_SUPPLY",
			"outputs": [
				{
					"internalType": "uint256",
					"name": "",
					"type": "uint256"
				}
			],
			"stateMutability": "view",
			"type": "function"
		},
		{
			"inputs": [
				{
					"internalType": "address",
					"name": "owner",
					"type": "address"
				},
				{
					"internalType": "address",
					"name": "spender",
					"type": "address"
				}
			],
			"name": "allowance",
			"outputs": [
				{
					"internalType": "uint256",
					"name": "",
					"type": "uint256"
				}
			],
			"stateMutability": "view",
			"type": "function"
		},
		{
			"inputs": [
				{
					"internalType": "address",
					"name": "spender",
					"type": "address"
				},
				{
					"internalType": "uint256",
					"name": "amount",
					"type": "uint256"
				}
			],
			"name": "approve",
			"outputs": [
				{
					"internalType": "bool",
					"name": "",
					"type": "bool"
				}
			],
			"stateMutability": "nonpayable",
			"type": "function"
		},
		{
			"inputs": [
				{
					"internalType": "address",
					"name": "_address",
					"type": "address"
				}
			],
			"name": "authorizeCaller",
			"outputs": [],
			"stateMutability": "nonpayable",
			"type": "function"
		},
		{
			"inputs": [
				{
					"internalType": "address",
					"name": "account",
					"type": "address"
				}
			],
			"name": "balanceOf",
			"outputs": [
				{
					"internalType": "uint256",
					"name": "",
					"type": "uint256"
				}
			],
			"stateMutability": "view",
			"type": "function"
		},
		{
			"inputs": [
				{
					"internalType": "address",
					"name": "fromAddress",
					"type": "address"
				},
				{
					"internalType": "uint256",
					"name": "amount",
					"type": "uint256"
				}
			],
			"name": "burn",
			"outputs": [
				{
					"internalType": "bool",
					"name": "",
					"type": "bool"
				}
			],
			"stateMutability": "nonpayable",
			"type": "function"
		},
		{
			"inputs": [],
			"name": "decimals",
			"outputs": [
				{
					"internalType": "uint8",
					"name": "",
					"type": "uint8"
				}
			],
			"stateMutability": "view",
			"type": "function"
		},
		{
			"inputs": [
				{
					"internalType": "address",
					"name": "spender",
					"type": "address"
				},
				{
					"internalType": "uint256",
					"name": "subtractedValue",
					"type": "uint256"
				}
			],
			"name": "decreaseAllowance",
			"outputs": [
				{
					"internalType": "bool",
					"name": "",
					"type": "bool"
				}
			],
			"stateMutability": "nonpayable",
			"type": "function"
		},
		{
			"inputs": [],
			"name": "getMaxServiceTokensCount",
			"outputs": [
				{
					"internalType": "uint256",
					"name": "",
					"type": "uint256"
				}
			],
			"stateMutability": "view",
			"type": "function"
		},
		{
			"inputs": [],
			"name": "getServiceTokensDisbursedCount",
			"outputs": [
				{
					"internalType": "uint256",
					"name": "",
					"type": "uint256"
				}
			],
			"stateMutability": "view",
			"type": "function"
		},
		{
			"inputs": [
				{
					"internalType": "address",
					"name": "spender",
					"type": "address"
				},
				{
					"internalType": "uint256",
					"name": "addedValue",
					"type": "uint256"
				}
			],
			"name": "increaseAllowance",
			"outputs": [
				{
					"internalType": "bool",
					"name": "",
					"type": "bool"
				}
			],
			"stateMutability": "nonpayable",
			"type": "function"
		},
		{
			"inputs": [],
			"name": "name",
			"outputs": [
				{
					"internalType": "string",
					"name": "",
					"type": "string"
				}
			],
			"stateMutability": "view",
			"type": "function"
		},
		{
			"inputs": [],
			"name": "owner",
			"outputs": [
				{
					"internalType": "address",
					"name": "",
					"type": "address"
				}
			],
			"stateMutability": "view",
			"type": "function"
		},
		{
			"inputs": [],
			"name": "paused",
			"outputs": [
				{
					"internalType": "bool",
					"name": "",
					"type": "bool"
				}
			],
			"stateMutability": "view",
			"type": "function"
		},
		{
			"inputs": [],
			"name": "renounceOwnership",
			"outputs": [],
			"stateMutability": "nonpayable",
			"type": "function"
		},
		{
			"inputs": [
				{
					"internalType": "address",
					"name": "rewardAddress",
					"type": "address"
				},
				{
					"internalType": "uint256",
					"name": "amount",
					"type": "uint256"
				}
			],
			"name": "reward",
			"outputs": [
				{
					"internalType": "bool",
					"name": "",
					"type": "bool"
				}
			],
			"stateMutability": "nonpayable",
			"type": "function"
		},
		{
			"inputs": [],
			"name": "symbol",
			"outputs": [
				{
					"internalType": "string",
					"name": "",
					"type": "string"
				}
			],
			"stateMutability": "view",
			"type": "function"
		},
		{
			"inputs": [],
			"name": "totalSupply",
			"outputs": [
				{
					"internalType": "uint256",
					"name": "",
					"type": "uint256"
				}
			],
			"stateMutability": "view",
			"type": "function"
		},
		{
			"inputs": [
				{
					"internalType": "address",
					"name": "recipient",
					"type": "address"
				},
				{
					"internalType": "uint256",
					"name": "amount",
					"type": "uint256"
				}
			],
			"name": "transfer",
			"outputs": [
				{
					"internalType": "bool",
					"name": "",
					"type": "bool"
				}
			],
			"stateMutability": "nonpayable",
			"type": "function"
		},
		{
			"inputs": [
				{
					"internalType": "address",
					"name": "fromAddress",
					"type": "address"
				},
				{
					"internalType": "address",
					"name": "toAddress",
					"type": "address"
				},
				{
					"internalType": "uint256",
					"name": "amount",
					"type": "uint256"
				}
			],
			"name": "transferBetweenAccounts",
			"outputs": [
				{
					"internalType": "bool",
					"name": "",
					"type": "bool"
				}
			],
			"stateMutability": "nonpayable",
			"type": "function"
		},
		{
			"inputs": [
				{
					"internalType": "address",
					"name": "sender",
					"type": "address"
				},
				{
					"internalType": "address",
					"name": "recipient",
					"type": "address"
				},
				{
					"internalType": "uint256",
					"name": "amount",
					"type": "uint256"
				}
			],
			"name": "transferFrom",
			"outputs": [
				{
					"internalType": "bool",
					"name": "",
					"type": "bool"
				}
			],
			"stateMutability": "nonpayable",
			"type": "function"
		},
		{
			"inputs": [
				{
					"internalType": "address",
					"name": "newOwner",
					"type": "address"
				}
			],
			"name": "transferOwnership",
			"outputs": [],
			"stateMutability": "nonpayable",
			"type": "function"
		}
	]
}