{
	"data": {
		"bytecode": {
			"linkReferences": {
				"contracts/Lib.sol": {
					"ConversionUtil": [
						{
							"length": 20,
							"start": 1077
						},
						{
							"length": 20,
							"start": 2016
						},
						{
							"length": 20,
							"start": 2538
						},
						{
							"length": 20,
							"start": 3127
						},
						{
							"length": 20,
							"start": 3354
						},
						{
							"length": 20,
							"start": 3776
						},
						{
							"length": 20,
							"start": 4122
						},
						{
							"length": 20,
							"start": 4623
						}
					],
					"Lib": [
						{
							"length": 20,
							"start": 1050
						},
						{
							"length": 20,
							"start": 1989
						},
						{
							"length": 20,
							"start": 3099
						},
						{
							"length": 20,
							"start": 3327
						},
						{
							"length": 20,
							"start": 3635
						},
						{
							"length": 20,
							"start": 3749
						},
						{
							"length": 20,
							"start": 3981
						},
						{
							"length": 20,
							"start": 4095
						}
					]
				}
			},
			"object": "60806040523480156200001157600080fd5b50604051620027c8380380620027c88339810160408190526200003491620000c2565b6200003f3362000072565b6000805460ff60a01b19169055600180546001600160a01b0319166001600160a01b0392909216919091179055620000f4565b600080546001600160a01b038381166001600160a01b0319831681178455604051919092169283917f8be0079c531659141344cd1fd0a4f28419497f9722a3daafe3b4186f6b6457e09190a35050565b600060208284031215620000d557600080fd5b81516001600160a01b0381168114620000ed57600080fd5b9392505050565b6126c480620001046000396000f3fe608060405234801561001057600080fd5b506004361061009e5760003560e01c80638bcbc129116100665780638bcbc129146101035780638da5cb5b1461011657806399535bd7146101315780639c11180d14610139578063f2fde38b1461015957600080fd5b806319275d79146100a35780633f4ba83a146100cc5780635c975abb146100d6578063715018a6146100f35780638456cb59146100fb575b600080fd5b6100b66100b1366004611d4e565b61016c565b6040516100c39190611de9565b60405180910390f35b6100d4610453565b005b600054600160a01b900460ff1660405190151581526020016100c3565b6100d4610490565b6100d46104c4565b6100b6610111366004611e03565b6104f6565b6000546040516001600160a01b0390911681526020016100c3565b6100b661081c565b61014c610147366004611e25565b61103b565b6040516100c39190611e3e565b6100d4610167366004611eb5565b611871565b60608060005b60015460405163584603c960e01b815261ffff8089166004830152808816602483015286166044820152600060648201526001600160a01b039091169063584603c990608401602060405180830381865afa1580156101d5573d6000803e3d6000fd5b505050506040513d601f19601f820116820180604052508101906101f99190611ed2565b81101561044a576001546040516337f288c760e21b815261ffff808916600483015280881660248301528616604482015260006064820181905260848201849052916001600160a01b03169063dfca231c9060a401602060405180830381865afa15801561026b573d6000803e3d6000fd5b505050506040513d601f19601f8201168201806040525081019061028f9190611ed2565b600154604051631bf4604f60e11b8152600481018390529192506000916001600160a01b03909116906337e8c09e90602401600060405180830381865afa1580156102de573d6000803e3d6000fd5b505050506040513d6000823e601f3d908101601f191682016040526103069190810190611ff4565b905042816080015111156104355773__$6cf167dfb7c5c94c9fb5276b5691085b47$__63dfbe0b1f8573__$acd136b36b4fe61d8edff89239067e5de1$__639201de55866040518263ffffffff1660e01b815260040161036891815260200190565b600060405180830381865af4158015610385573d6000803e3d6000fd5b505050506040513d6000823e601f3d908101601f191682016040526103ad91908101906120e3565b6103ba856080015161190c565b85606001516103cd87610100015161190c565b6040518663ffffffff1660e01b81526004016103ed95949392919061212c565b600060405180830381865af415801561040a573d6000803e3d6000fd5b505050506040513d6000823e601f3d908101601f1916820160405261043291908101906120e3565b93505b5050808061044290612209565b915050610172565b50949350505050565b6000546001600160a01b031633146104865760405162461bcd60e51b815260040161047d90612222565b60405180910390fd5b61048e611a2f565b565b6000546001600160a01b031633146104ba5760405162461bcd60e51b815260040161047d90612222565b61048e6000611acc565b6000546001600160a01b031633146104ee5760405162461bcd60e51b815260040161047d90612222565b61048e611b1c565b606080835b83811161081257600080600061051084611ba4565b9194509250905082828260005b60015460405163584603c960e01b815261ffff8087166004830152808616602483015284166044820152600060648201526001600160a01b039091169063584603c990608401602060405180830381865afa158015610580573d6000803e3d6000fd5b505050506040513d601f19601f820116820180604052508101906105a49190611ed2565b8110156107f5576001546040516337f288c760e21b815261ffff808716600483015280861660248301528416604482015260006064820181905260848201849052916001600160a01b03169063dfca231c9060a401602060405180830381865afa158015610616573d6000803e3d6000fd5b505050506040513d601f19601f8201168201806040525081019061063a9190611ed2565b600154604051631bf4604f60e11b8152600481018390529192506000916001600160a01b03909116906337e8c09e90602401600060405180830381865afa158015610689573d6000803e3d6000fd5b505050506040513d6000823e601f3d908101601f191682016040526106b19190810190611ff4565b905042816080015111156107e05773__$6cf167dfb7c5c94c9fb5276b5691085b47$__63dfbe0b1f8c73__$acd136b36b4fe61d8edff89239067e5de1$__639201de55866040518263ffffffff1660e01b815260040161071391815260200190565b600060405180830381865af4158015610730573d6000803e3d6000fd5b505050506040513d6000823e601f3d908101601f1916820160405261075891908101906120e3565b610765856080015161190c565b856060015161077887610100015161190c565b6040518663ffffffff1660e01b815260040161079895949392919061212c565b600060405180830381865af41580156107b5573d6000803e3d6000fd5b505050506040513d6000823e601f3d908101601f191682016040526107dd91908101906120e3565b9a505b505080806107ed90612209565b91505061051d565b50505050505050806201518061080b9190612257565b90506104fb565b5090505b92915050565b60015460405163d5a1ad6160e01b81523360048201526060916000916001600160a01b039091169063d5a1ad6190602401600060405180830381865afa15801561086a573d6000803e3d6000fd5b505050506040513d6000823e601f3d908101601f19168201604052610892919081019061226a565b905060606000825111156108165760005b82518110156110345760008382815181106108c0576108c0612304565b6020908102919091010151604051635e57966d60e01b815233600482015290915060009073__$acd136b36b4fe61d8edff89239067e5de1$__90635e57966d90602401600060405180830381865af4158015610920573d6000803e3d6000fd5b505050506040513d6000823e601f3d908101601f1916820160405261094891908101906120e3565b600154604051631bf4604f60e11b8152600481018590529192506000916001600160a01b03909116906337e8c09e90602401600060405180830381865afa158015610997573d6000803e3d6000fd5b505050506040513d6000823e601f3d908101601f191682016040526109bf9190810190611ff4565b6001546040805180820182526005815264424554454560d81b602082015290516322ad378f60e21b81529293506000926001600160a01b0390921691638ab4de3c91610a109188919060040161231a565b600060405180830381865afa158015610a2d573d6000803e3d6000fd5b505050506040513d6000823e601f3d908101601f19168201604052610a5591908101906120e3565b600154604080518082018252600a81526920a92124aa2920aa27a960b11b602082015290516322ad378f60e21b81529293506000926001600160a01b0390921691638ab4de3c91610aab9189919060040161231a565b600060405180830381865afa158015610ac8573d6000803e3d6000fd5b505050506040513d6000823e601f3d908101601f19168201604052610af091908101906120e3565b6040808501519051635e57966d60e01b81526001600160a01b03909116600482015290915073__$6cf167dfb7c5c94c9fb5276b5691085b47$__9063bed34bba9073__$acd136b36b4fe61d8edff89239067e5de1$__90635e57966d90602401600060405180830381865af4158015610b6d573d6000803e3d6000fd5b505050506040513d6000823e601f3d908101601f19168201604052610b9591908101906120e3565b866040518363ffffffff1660e01b8152600401610bb3929190612333565b602060405180830381865af4158015610bd0573d6000803e3d6000fd5b505050506040513d601f19601f82011682018060405250810190610bf49190612361565b15610d205773__$6cf167dfb7c5c94c9fb5276b5691085b47$__63dfbe0b1f8873__$acd136b36b4fe61d8edff89239067e5de1$__639201de55896040518263ffffffff1660e01b8152600401610c4d91815260200190565b600060405180830381865af4158015610c6a573d6000803e3d6000fd5b505050506040513d6000823e601f3d908101601f19168201604052610c9291908101906120e3565b610c9f876080015161190c565b8760600151610cb48960e0015160ff1661190c565b6040518663ffffffff1660e01b8152600401610cd4959493929190612383565b600060405180830381865af4158015610cf1573d6000803e3d6000fd5b505050506040513d6000823e601f3d908101601f19168201604052610d1991908101906120e3565b965061101c565b604051635f69a5dd60e11b815273__$6cf167dfb7c5c94c9fb5276b5691085b47$__9063bed34bba90610d599085908890600401612333565b602060405180830381865af4158015610d76573d6000803e3d6000fd5b505050506040513d601f19601f82011682018060405250810190610d9a9190612361565b15610e7a5773__$6cf167dfb7c5c94c9fb5276b5691085b47$__63dfbe0b1f8873__$acd136b36b4fe61d8edff89239067e5de1$__639201de55896040518263ffffffff1660e01b8152600401610df391815260200190565b600060405180830381865af4158015610e10573d6000803e3d6000fd5b505050506040513d6000823e601f3d908101601f19168201604052610e3891908101906120e3565b610e45876080015161190c565b8760600151610e5a8960e0015160ff1661190c565b6040518663ffffffff1660e01b8152600401610cd495949392919061242b565b604051635f69a5dd60e11b815273__$6cf167dfb7c5c94c9fb5276b5691085b47$__9063bed34bba90610eb39084908890600401612333565b602060405180830381865af4158015610ed0573d6000803e3d6000fd5b505050506040513d601f19601f82011682018060405250810190610ef49190612361565b1561101c5773__$6cf167dfb7c5c94c9fb5276b5691085b47$__63dfbe0b1f8873__$acd136b36b4fe61d8edff89239067e5de1$__639201de55896040518263ffffffff1660e01b8152600401610f4d91815260200190565b600060405180830381865af4158015610f6a573d6000803e3d6000fd5b505050506040513d6000823e601f3d908101601f19168201604052610f9291908101906120e3565b610f9f876080015161190c565b8760600151610fb48960e0015160ff1661190c565b6040518663ffffffff1660e01b8152600401610fd49594939291906124d3565b600060405180830381865af4158015610ff1573d6000803e3d6000fd5b505050506040513d6000823e601f3d908101601f1916820160405261101991908101906120e3565b96505b5050505050808061102c90612209565b9150506108a3565b5092915050565b60408051600f808252610200820190925260609160009190816020015b606081526020019060019003908161105857905050600154604051631bf4604f60e11b8152600481018690529192506000916001600160a01b03909116906337e8c09e90602401600060405180830381865afa1580156110bc573d6000803e3d6000fd5b505050506040513d6000823e601f3d908101601f191682016040526110e49190810190611ff4565b6040818101519051635e57966d60e01b81526001600160a01b03909116600482015290915073__$acd136b36b4fe61d8edff89239067e5de1$__90635e57966d90602401600060405180830381865af4158015611145573d6000803e3d6000fd5b505050506040513d6000823e601f3d908101601f1916820160405261116d91908101906120e3565b8260008151811061118057611180612304565b60200260200101819052508060600151826001815181106111a3576111a3612304565b60200260200101819052506111bb816080015161190c565b826002815181106111ce576111ce612304565b60200260200101819052506111e98160a0015160ff1661190c565b826003815181106111fc576111fc612304565b60200260200101819052506112178160c0015160ff1661190c565b8260048151811061122a5761122a612304565b602002602001018190525061124381610100015161190c565b8260058151811061125657611256612304565b602002602001018190525061126f81610120015161190c565b8260068151811061128257611282612304565b602090810291909101810191909152600154604080518082018252600a81526920a92124aa2920aa27a960b11b93810193909352516322ad378f60e21b81526001600160a01b0390911691638ab4de3c916112e191889160040161231a565b600060405180830381865afa1580156112fe573d6000803e3d6000fd5b505050506040513d6000823e601f3d908101601f1916820160405261132691908101906120e3565b8260078151811061133957611339612304565b602090810291909101810191909152600154604080518082018252600e81526d41524249545241544f524e414d4560901b93810193909352516322ad378f60e21b81526001600160a01b0390911691638ab4de3c9161139c91889160040161231a565b600060405180830381865afa1580156113b9573d6000803e3d6000fd5b505050506040513d6000823e601f3d908101601f191682016040526113e191908101906120e3565b826008815181106113f4576113f4612304565b602090810291909101810191909152600154604080518082018252600b81526a57494e5343454e4152494f60a81b93810193909352516322ad378f60e21b81526001600160a01b0390911691638ab4de3c9161145491889160040161231a565b600060405180830381865afa158015611471573d6000803e3d6000fd5b505050506040513d6000823e601f3d908101601f1916820160405261149991908101906120e3565b826009815181106114ac576114ac612304565b602090810291909101810191909152600154604080518082018252600c81526b4c4f53455343454e4152494f60a01b93810193909352516322ad378f60e21b81526001600160a01b0390911691638ab4de3c9161150d91889160040161231a565b600060405180830381865afa15801561152a573d6000803e3d6000fd5b505050506040513d6000823e601f3d908101601f1916820160405261155291908101906120e3565b82600a8151811061156557611565612304565b602090810291909101810191909152600154604080518082018252600e81526d43414e43454c5343454e4152494f60901b93810193909352516322ad378f60e21b81526001600160a01b0390911691638ab4de3c916115c891889160040161231a565b600060405180830381865afa1580156115e5573d6000803e3d6000fd5b505050506040513d6000823e601f3d908101601f1916820160405261160d91908101906120e3565b82600b8151811061162057611620612304565b602090810291909101810191909152600154604080518082018252601481527320a92124aa2920aa27a921a7a6a6a4a9a9a4a7a760611b93810193909352516322ad378f60e21b81526001600160a01b0390911691638ab4de3c9161168991889160040161231a565b600060405180830381865afa1580156116a6573d6000803e3d6000fd5b505050506040513d6000823e601f3d908101601f191682016040526116ce91908101906120e3565b82600c815181106116e1576116e1612304565b602090810291909101810191909152600154604080518082018252601081526f1091551051d0525394d5105353d5539560821b93810193909352516322ad378f60e21b81526001600160a01b0390911691638ab4de3c9161174691889160040161231a565b600060405180830381865afa158015611763573d6000803e3d6000fd5b505050506040513d6000823e601f3d908101601f1916820160405261178b91908101906120e3565b82600d8151811061179e5761179e612304565b602090810291909101810191909152600154604080518082018252601481527314d51052d154115490d15395149154555254915160621b93810193909352516322ad378f60e21b81526001600160a01b0390911691638ab4de3c9161180791889160040161231a565b600060405180830381865afa158015611824573d6000803e3d6000fd5b505050506040513d6000823e601f3d908101601f1916820160405261184c91908101906120e3565b82600e8151811061185f5761185f612304565b60209081029190910101525092915050565b6000546001600160a01b0316331461189b5760405162461bcd60e51b815260040161047d90612222565b6001600160a01b0381166119005760405162461bcd60e51b815260206004820152602660248201527f4f776e61626c653a206e6577206f776e657220697320746865207a65726f206160448201526564647265737360d01b606482015260840161047d565b61190981611acc565b50565b6060816000036119335750506040805180820190915260018152600360fc1b602082015290565b8160005b811561195d578061194781612209565b91506119569050600a83612591565b9150611937565b60008167ffffffffffffffff81111561197857611978611eeb565b6040519080825280601f01601f1916602001820160405280156119a2576020820181803683370190505b509050815b851561044a576119b86001826125a5565b905060006119c7600a88612591565b6119d290600a6125b8565b6119dc90886125a5565b6119e79060306125cf565b905060008160f81b905080848481518110611a0457611a04612304565b60200101906001600160f81b031916908160001a905350611a26600a89612591565b975050506119a7565b600054600160a01b900460ff16611a7f5760405162461bcd60e51b815260206004820152601460248201527314185d5cd8589b194e881b9bdd081c185d5cd95960621b604482015260640161047d565b6000805460ff60a01b191690557f5db9ee0a495bf2e6ff9c91a7834c1ba4fdd244a5e8aa4e537bd38aeae4b073aa335b6040516001600160a01b03909116815260200160405180910390a1565b600080546001600160a01b038381166001600160a01b0319831681178455604051919092169283917f8be0079c531659141344cd1fd0a4f28419497f9722a3daafe3b4186f6b6457e09190a35050565b600054600160a01b900460ff1615611b695760405162461bcd60e51b815260206004820152601060248201526f14185d5cd8589b194e881c185d5cd95960821b604482015260640161047d565b6000805460ff60a01b1916600160a01b1790557f62e78cea01bee320cd4e420270b5ea74000d11b0c9f74754ebdbfc544b05a258611aaf3390565b60008080611bbd611bb86201518086612591565b611bca565b9196909550909350915050565b60008080838162253d8c611be18362010bd96125e8565b611beb91906125e8565b9050600062023ab1611bfe836004612610565b611c089190612640565b90506004611c198262023ab1612610565b611c249060036125e8565b611c2e9190612640565b611c38908361266e565b9150600062164b09611c4b8460016125e8565b611c5790610fa0612610565b611c619190612640565b90506004611c71826105b5612610565b611c7b9190612640565b611c85908461266e565b611c9090601f6125e8565b9250600061098f611ca2856050612610565b611cac9190612640565b905060006050611cbe8361098f612610565b611cc89190612640565b611cd2908661266e565b9050611cdf600b83612640565b9450611cec85600c612610565b611cf78360026125e8565b611d01919061266e565b91508483611d1060318761266e565b611d1b906064612610565b611d2591906125e8565b611d2f91906125e8565b9a919950975095505050505050565b61ffff8116811461190957600080fd5b600080600060608486031215611d6357600080fd5b8335611d6e81611d3e565b92506020840135611d7e81611d3e565b91506040840135611d8e81611d3e565b809150509250925092565b60005b83811015611db4578181015183820152602001611d9c565b50506000910152565b60008151808452611dd5816020860160208601611d99565b601f01601f19169290920160200192915050565b602081526000611dfc6020830184611dbd565b9392505050565b60008060408385031215611e1657600080fd5b50508035926020909101359150565b600060208284031215611e3757600080fd5b5035919050565b6000602080830181845280855180835260408601915060408160051b870101925083870160005b82811015611e9357603f19888603018452611e81858351611dbd565b94509285019290850190600101611e65565b5092979650505050505050565b6001600160a01b038116811461190957600080fd5b600060208284031215611ec757600080fd5b8135611dfc81611ea0565b600060208284031215611ee457600080fd5b5051919050565b634e487b7160e01b600052604160045260246000fd5b604051610140810167ffffffffffffffff81118282101715611f2557611f25611eeb565b60405290565b604051601f8201601f1916810167ffffffffffffffff81118282101715611f5457611f54611eeb565b604052919050565b8051611f6781611d3e565b919050565b8051611f6781611ea0565b600082601f830112611f8857600080fd5b815167ffffffffffffffff811115611fa257611fa2611eeb565b611fb5601f8201601f1916602001611f2b565b818152846020838601011115611fca57600080fd5b611fdb826020830160208701611d99565b949350505050565b805160ff81168114611f6757600080fd5b60006020828403121561200657600080fd5b815167ffffffffffffffff8082111561201e57600080fd5b90830190610140828603121561203357600080fd5b61203b611f01565b61204483611f5c565b81526020830151602082015261205c60408401611f6c565b604082015260608301518281111561207357600080fd5b61207f87828601611f77565b6060830152506080830151608082015261209b60a08401611fe3565b60a08201526120ac60c08401611fe3565b60c08201526120bd60e08401611fe3565b60e082015261010083810151908201526101209283015192810192909252509392505050565b6000602082840312156120f557600080fd5b815167ffffffffffffffff81111561210c57600080fd5b611fdb84828501611f77565b60018152600b60fa1b602082015260400190565b600061012080835261214081840189611dbd565b905082810360208401526121548188611dbd565b9050828103604084015261216781612118565b9050828103606084015261217b8187611dbd565b9050828103608084015261218e81612118565b905082810360a08401526121a28186611dbd565b905082810360c08401526121b581612118565b905082810360e08401526121c98185611dbd565b83810361010085015260018152601f60fa1b60208201529050604081015b98975050505050505050565b634e487b7160e01b600052601160045260246000fd5b60006001820161221b5761221b6121f3565b5060010190565b6020808252818101527f4f776e61626c653a2063616c6c6572206973206e6f7420746865206f776e6572604082015260600190565b80820180821115610816576108166121f3565b6000602080838503121561227d57600080fd5b825167ffffffffffffffff8082111561229557600080fd5b818501915085601f8301126122a957600080fd5b8151818111156122bb576122bb611eeb565b8060051b91506122cc848301611f2b565b81815291830184019184810190888411156122e657600080fd5b938501935b838510156121e7578451825293850193908501906122eb565b634e487b7160e01b600052603260045260246000fd5b828152604060208201526000611fdb6040830184611dbd565b6040815260006123466040830185611dbd565b82810360208401526123588185611dbd565b95945050505050565b60006020828403121561237357600080fd5b81518015158114611dfc57600080fd5b600061012080835261239781840189611dbd565b905082810360208401526123ab8188611dbd565b905082810360408401526123be81612118565b905082810360608401526123d28187611dbd565b905082810360808401526123e581612118565b905082810360a08401526123f98186611dbd565b90508281038060c085015260038252620b0c4b60ea1b60208301526040810160e0850152506121c96040820185611dbd565b600061012080835261243f81840189611dbd565b905082810360208401526124538188611dbd565b9050828103604084015261246681612118565b9050828103606084015261247a8187611dbd565b9050828103608084015261248d81612118565b905082810360a08401526124a18186611dbd565b90508281038060c085015260038252620b0c8b60ea1b60208301526040810160e0850152506121c96040820185611dbd565b60006101208083526124e781840189611dbd565b905082810360208401526124fb8188611dbd565b9050828103604084015261250e81612118565b905082810360608401526125228187611dbd565b9050828103608084015261253581612118565b905082810360a08401526125498186611dbd565b90508281038060c085015260038252620b0d0b60ea1b60208301526040810160e0850152506121c96040820185611dbd565b634e487b7160e01b600052601260045260246000fd5b6000826125a0576125a061257b565b500490565b81810381811115610816576108166121f3565b8082028115828204841417610816576108166121f3565b60ff8181168382160190811115610816576108166121f3565b8082018281126000831280158216821582161715612608576126086121f3565b505092915050565b80820260008212600160ff1b8414161561262c5761262c6121f3565b8181058314821517610816576108166121f3565b60008261264f5761264f61257b565b600160ff1b821460001984141615612669576126696121f3565b500590565b8181036000831280158383131683831282161715611034576110346121f356fea26469706673582212202fcaeea5d7b29248b9d679e722073a0abfa45f931002aceea07d06fdff654c1164736f6c63430008110033",
			"opcodes": "PUSH1 0x80 PUSH1 0x40 MSTORE CALLVALUE DUP1 ISZERO PUSH3 0x11 JUMPI PUSH1 0x0 DUP1 REVERT JUMPDEST POP PUSH1 0x40 MLOAD PUSH3 0x27C8 CODESIZE SUB DUP1 PUSH3 0x27C8 DUP4 CODECOPY DUP2 ADD PUSH1 0x40 DUP2 SWAP1 MSTORE PUSH3 0x34 SWAP2 PUSH3 0xC2 JUMP JUMPDEST PUSH3 0x3F CALLER PUSH3 0x72 JUMP JUMPDEST PUSH1 0x0 DUP1 SLOAD PUSH1 0xFF PUSH1 0xA0 SHL NOT AND SWAP1 SSTORE PUSH1 0x1 DUP1 SLOAD PUSH1 0x1 PUSH1 0x1 PUSH1 0xA0 SHL SUB NOT AND PUSH1 0x1 PUSH1 0x1 PUSH1 0xA0 SHL SUB SWAP3 SWAP1 SWAP3 AND SWAP2 SWAP1 SWAP2 OR SWAP1 SSTORE PUSH3 0xF4 JUMP JUMPDEST PUSH1 0x0 DUP1 SLOAD PUSH1 0x1 PUSH1 0x1 PUSH1 0xA0 SHL SUB DUP4 DUP2 AND PUSH1 0x1 PUSH1 0x1 PUSH1 0xA0 SHL SUB NOT DUP4 AND DUP2 OR DUP5 SSTORE PUSH1 0x40 MLOAD SWAP2 SWAP1 SWAP3 AND SWAP3 DUP4 SWAP2 PUSH32 0x8BE0079C531659141344CD1FD0A4F28419497F9722A3DAAFE3B4186F6B6457E0 SWAP2 SWAP1 LOG3 POP POP JUMP JUMPDEST PUSH1 0x0 PUSH1 0x20 DUP3 DUP5 SUB SLT ISZERO PUSH3 0xD5 JUMPI PUSH1 0x0 DUP1 REVERT JUMPDEST DUP2 MLOAD PUSH1 0x1 PUSH1 0x1 PUSH1 0xA0 SHL SUB DUP2 AND DUP2 EQ PUSH3 0xED JUMPI PUSH1 0x0 DUP1 REVERT JUMPDEST SWAP4 SWAP3 POP POP POP JUMP JUMPDEST PUSH2 0x26C4 DUP1 PUSH3 0x104 PUSH1 0x0 CODECOPY PUSH1 0x0 RETURN INVALID PUSH1 0x80 PUSH1 0x40 MSTORE CALLVALUE DUP1 ISZERO PUSH2 0x10 JUMPI PUSH1 0x0 DUP1 REVERT JUMPDEST POP PUSH1 0x4 CALLDATASIZE LT PUSH2 0x9E JUMPI PUSH1 0x0 CALLDATALOAD PUSH1 0xE0 SHR DUP1 PUSH4 0x8BCBC129 GT PUSH2 0x66 JUMPI DUP1 PUSH4 0x8BCBC129 EQ PUSH2 0x103 JUMPI DUP1 PUSH4 0x8DA5CB5B EQ PUSH2 0x116 JUMPI DUP1 PUSH4 0x99535BD7 EQ PUSH2 0x131 JUMPI DUP1 PUSH4 0x9C11180D EQ PUSH2 0x139 JUMPI DUP1 PUSH4 0xF2FDE38B EQ PUSH2 0x159 JUMPI PUSH1 0x0 DUP1 REVERT JUMPDEST DUP1 PUSH4 0x19275D79 EQ PUSH2 0xA3 JUMPI DUP1 PUSH4 0x3F4BA83A EQ PUSH2 0xCC JUMPI DUP1 PUSH4 0x5C975ABB EQ PUSH2 0xD6 JUMPI DUP1 PUSH4 0x715018A6 EQ PUSH2 0xF3 JUMPI DUP1 PUSH4 0x8456CB59 EQ PUSH2 0xFB JUMPI JUMPDEST PUSH1 0x0 DUP1 REVERT JUMPDEST PUSH2 0xB6 PUSH2 0xB1 CALLDATASIZE PUSH1 0x4 PUSH2 0x1D4E JUMP JUMPDEST PUSH2 0x16C JUMP JUMPDEST PUSH1 0x40 MLOAD PUSH2 0xC3 SWAP2 SWAP1 PUSH2 0x1DE9 JUMP JUMPDEST PUSH1 0x40 MLOAD DUP1 SWAP2 SUB SWAP1 RETURN JUMPDEST PUSH2 0xD4 PUSH2 0x453 JUMP JUMPDEST STOP JUMPDEST PUSH1 0x0 SLOAD PUSH1 0x1 PUSH1 0xA0 SHL SWAP1 DIV PUSH1 0xFF AND PUSH1 0x40 MLOAD SWAP1 ISZERO ISZERO DUP2 MSTORE PUSH1 0x20 ADD PUSH2 0xC3 JUMP JUMPDEST PUSH2 0xD4 PUSH2 0x490 JUMP JUMPDEST PUSH2 0xD4 PUSH2 0x4C4 JUMP JUMPDEST PUSH2 0xB6 PUSH2 0x111 CALLDATASIZE PUSH1 0x4 PUSH2 0x1E03 JUMP JUMPDEST PUSH2 0x4F6 JUMP JUMPDEST PUSH1 0x0 SLOAD PUSH1 0x40 MLOAD PUSH1 0x1 PUSH1 0x1 PUSH1 0xA0 SHL SUB SWAP1 SWAP2 AND DUP2 MSTORE PUSH1 0x20 ADD PUSH2 0xC3 JUMP JUMPDEST PUSH2 0xB6 PUSH2 0x81C JUMP JUMPDEST PUSH2 0x14C PUSH2 0x147 CALLDATASIZE PUSH1 0x4 PUSH2 0x1E25 JUMP JUMPDEST PUSH2 0x103B JUMP JUMPDEST PUSH1 0x40 MLOAD PUSH2 0xC3 SWAP2 SWAP1 PUSH2 0x1E3E JUMP JUMPDEST PUSH2 0xD4 PUSH2 0x167 CALLDATASIZE PUSH1 0x4 PUSH2 0x1EB5 JUMP JUMPDEST PUSH2 0x1871 JUMP JUMPDEST PUSH1 0x60 DUP1 PUSH1 0x0 JUMPDEST PUSH1 0x1 SLOAD PUSH1 0x40 MLOAD PUSH4 0x584603C9 PUSH1 0xE0 SHL DUP2 MSTORE PUSH2 0xFFFF DUP1 DUP10 AND PUSH1 0x4 DUP4 ADD MSTORE DUP1 DUP9 AND PUSH1 0x24 DUP4 ADD MSTORE DUP7 AND PUSH1 0x44 DUP3 ADD MSTORE PUSH1 0x0 PUSH1 0x64 DUP3 ADD MSTORE PUSH1 0x1 PUSH1 0x1 PUSH1 0xA0 SHL SUB SWAP1 SWAP2 AND SWAP1 PUSH4 0x584603C9 SWAP1 PUSH1 0x84 ADD PUSH1 0x20 PUSH1 0x40 MLOAD DUP1 DUP4 SUB DUP2 DUP7 GAS STATICCALL ISZERO DUP1 ISZERO PUSH2 0x1D5 JUMPI RETURNDATASIZE PUSH1 0x0 DUP1 RETURNDATACOPY RETURNDATASIZE PUSH1 0x0 REVERT JUMPDEST POP POP POP POP PUSH1 0x40 MLOAD RETURNDATASIZE PUSH1 0x1F NOT PUSH1 0x1F DUP3 ADD AND DUP3 ADD DUP1 PUSH1 0x40 MSTORE POP DUP2 ADD SWAP1 PUSH2 0x1F9 SWAP2 SWAP1 PUSH2 0x1ED2 JUMP JUMPDEST DUP2 LT ISZERO PUSH2 0x44A JUMPI PUSH1 0x1 SLOAD PUSH1 0x40 MLOAD PUSH4 0x37F288C7 PUSH1 0xE2 SHL DUP2 MSTORE PUSH2 0xFFFF DUP1 DUP10 AND PUSH1 0x4 DUP4 ADD MSTORE DUP1 DUP9 AND PUSH1 0x24 DUP4 ADD MSTORE DUP7 AND PUSH1 0x44 DUP3 ADD MSTORE PUSH1 0x0 PUSH1 0x64 DUP3 ADD DUP2 SWAP1 MSTORE PUSH1 0x84 DUP3 ADD DUP5 SWAP1 MSTORE SWAP2 PUSH1 0x1 PUSH1 0x1 PUSH1 0xA0 SHL SUB AND SWAP1 PUSH4 0xDFCA231C SWAP1 PUSH1 0xA4 ADD PUSH1 0x20 PUSH1 0x40 MLOAD DUP1 DUP4 SUB DUP2 DUP7 GAS STATICCALL ISZERO DUP1 ISZERO PUSH2 0x26B JUMPI RETURNDATASIZE PUSH1 0x0 DUP1 RETURNDATACOPY RETURNDATASIZE PUSH1 0x0 REVERT JUMPDEST POP POP POP POP PUSH1 0x40 MLOAD RETURNDATASIZE PUSH1 0x1F NOT PUSH1 0x1F DUP3 ADD AND DUP3 ADD DUP1 PUSH1 0x40 MSTORE POP DUP2 ADD SWAP1 PUSH2 0x28F SWAP2 SWAP1 PUSH2 0x1ED2 JUMP JUMPDEST PUSH1 0x1 SLOAD PUSH1 0x40 MLOAD PUSH4 0x1BF4604F PUSH1 0xE1 SHL DUP2 MSTORE PUSH1 0x4 DUP2 ADD DUP4 SWAP1 MSTORE SWAP2 SWAP3 POP PUSH1 0x0 SWAP2 PUSH1 0x1 PUSH1 0x1 PUSH1 0xA0 SHL SUB SWAP1 SWAP2 AND SWAP1 PUSH4 0x37E8C09E SWAP1 PUSH1 0x24 ADD PUSH1 0x0 PUSH1 0x40 MLOAD DUP1 DUP4 SUB DUP2 DUP7 GAS STATICCALL ISZERO DUP1 ISZERO PUSH2 0x2DE JUMPI RETURNDATASIZE PUSH1 0x0 DUP1 RETURNDATACOPY RETURNDATASIZE PUSH1 0x0 REVERT JUMPDEST POP POP POP POP PUSH1 0x40 MLOAD RETURNDATASIZE PUSH1 0x0 DUP3 RETURNDATACOPY PUSH1 0x1F RETURNDATASIZE SWAP1 DUP2 ADD PUSH1 0x1F NOT AND DUP3 ADD PUSH1 0x40 MSTORE PUSH2 0x306 SWAP2 SWAP1 DUP2 ADD SWAP1 PUSH2 0x1FF4 JUMP JUMPDEST SWAP1 POP TIMESTAMP DUP2 PUSH1 0x80 ADD MLOAD GT ISZERO PUSH2 0x435 JUMPI PUSH20 0x0 PUSH4 0xDFBE0B1F DUP6 PUSH20 0x0 PUSH4 0x9201DE55 DUP7 PUSH1 0x40 MLOAD DUP3 PUSH4 0xFFFFFFFF AND PUSH1 0xE0 SHL DUP2 MSTORE PUSH1 0x4 ADD PUSH2 0x368 SWAP2 DUP2 MSTORE PUSH1 0x20 ADD SWAP1 JUMP JUMPDEST PUSH1 0x0 PUSH1 0x40 MLOAD DUP1 DUP4 SUB DUP2 DUP7 GAS DELEGATECALL ISZERO DUP1 ISZERO PUSH2 0x385 JUMPI RETURNDATASIZE PUSH1 0x0 DUP1 RETURNDATACOPY RETURNDATASIZE PUSH1 0x0 REVERT JUMPDEST POP POP POP POP PUSH1 0x40 MLOAD RETURNDATASIZE PUSH1 0x0 DUP3 RETURNDATACOPY PUSH1 0x1F RETURNDATASIZE SWAP1 DUP2 ADD PUSH1 0x1F NOT AND DUP3 ADD PUSH1 0x40 MSTORE PUSH2 0x3AD SWAP2 SWAP1 DUP2 ADD SWAP1 PUSH2 0x20E3 JUMP JUMPDEST PUSH2 0x3BA DUP6 PUSH1 0x80 ADD MLOAD PUSH2 0x190C JUMP JUMPDEST DUP6 PUSH1 0x60 ADD MLOAD PUSH2 0x3CD DUP8 PUSH2 0x100 ADD MLOAD PUSH2 0x190C JUMP JUMPDEST PUSH1 0x40 MLOAD DUP7 PUSH4 0xFFFFFFFF AND PUSH1 0xE0 SHL DUP2 MSTORE PUSH1 0x4 ADD PUSH2 0x3ED SWAP6 SWAP5 SWAP4 SWAP3 SWAP2 SWAP1 PUSH2 0x212C JUMP JUMPDEST PUSH1 0x0 PUSH1 0x40 MLOAD DUP1 DUP4 SUB DUP2 DUP7 GAS DELEGATECALL ISZERO DUP1 ISZERO PUSH2 0x40A JUMPI RETURNDATASIZE PUSH1 0x0 DUP1 RETURNDATACOPY RETURNDATASIZE PUSH1 0x0 REVERT JUMPDEST POP POP POP POP PUSH1 0x40 MLOAD RETURNDATASIZE PUSH1 0x0 DUP3 RETURNDATACOPY PUSH1 0x1F RETURNDATASIZE SWAP1 DUP2 ADD PUSH1 0x1F NOT AND DUP3 ADD PUSH1 0x40 MSTORE PUSH2 0x432 SWAP2 SWAP1 DUP2 ADD SWAP1 PUSH2 0x20E3 JUMP JUMPDEST SWAP4 POP JUMPDEST POP POP DUP1 DUP1 PUSH2 0x442 SWAP1 PUSH2 0x2209 JUMP JUMPDEST SWAP2 POP POP PUSH2 0x172 JUMP JUMPDEST POP SWAP5 SWAP4 POP POP POP POP JUMP JUMPDEST PUSH1 0x0 SLOAD PUSH1 0x1 PUSH1 0x1 PUSH1 0xA0 SHL SUB AND CALLER EQ PUSH2 0x486 JUMPI PUSH1 0x40 MLOAD PUSH3 0x461BCD PUSH1 0xE5 SHL DUP2 MSTORE PUSH1 0x4 ADD PUSH2 0x47D SWAP1 PUSH2 0x2222 JUMP JUMPDEST PUSH1 0x40 MLOAD DUP1 SWAP2 SUB SWAP1 REVERT JUMPDEST PUSH2 0x48E PUSH2 0x1A2F JUMP JUMPDEST JUMP JUMPDEST PUSH1 0x0 SLOAD PUSH1 0x1 PUSH1 0x1 PUSH1 0xA0 SHL SUB AND CALLER EQ PUSH2 0x4BA JUMPI PUSH1 0x40 MLOAD PUSH3 0x461BCD PUSH1 0xE5 SHL DUP2 MSTORE PUSH1 0x4 ADD PUSH2 0x47D SWAP1 PUSH2 0x2222 JUMP JUMPDEST PUSH2 0x48E PUSH1 0x0 PUSH2 0x1ACC JUMP JUMPDEST PUSH1 0x0 SLOAD PUSH1 0x1 PUSH1 0x1 PUSH1 0xA0 SHL SUB AND CALLER EQ PUSH2 0x4EE JUMPI PUSH1 0x40 MLOAD PUSH3 0x461BCD PUSH1 0xE5 SHL DUP2 MSTORE PUSH1 0x4 ADD PUSH2 0x47D SWAP1 PUSH2 0x2222 JUMP JUMPDEST PUSH2 0x48E PUSH2 0x1B1C JUMP JUMPDEST PUSH1 0x60 DUP1 DUP4 JUMPDEST DUP4 DUP2 GT PUSH2 0x812 JUMPI PUSH1 0x0 DUP1 PUSH1 0x0 PUSH2 0x510 DUP5 PUSH2 0x1BA4 JUMP JUMPDEST SWAP2 SWAP5 POP SWAP3 POP SWAP1 POP DUP3 DUP3 DUP3 PUSH1 0x0 JUMPDEST PUSH1 0x1 SLOAD PUSH1 0x40 MLOAD PUSH4 0x584603C9 PUSH1 0xE0 SHL DUP2 MSTORE PUSH2 0xFFFF DUP1 DUP8 AND PUSH1 0x4 DUP4 ADD MSTORE DUP1 DUP7 AND PUSH1 0x24 DUP4 ADD MSTORE DUP5 AND PUSH1 0x44 DUP3 ADD MSTORE PUSH1 0x0 PUSH1 0x64 DUP3 ADD MSTORE PUSH1 0x1 PUSH1 0x1 PUSH1 0xA0 SHL SUB SWAP1 SWAP2 AND SWAP1 PUSH4 0x584603C9 SWAP1 PUSH1 0x84 ADD PUSH1 0x20 PUSH1 0x40 MLOAD DUP1 DUP4 SUB DUP2 DUP7 GAS STATICCALL ISZERO DUP1 ISZERO PUSH2 0x580 JUMPI RETURNDATASIZE PUSH1 0x0 DUP1 RETURNDATACOPY RETURNDATASIZE PUSH1 0x0 REVERT JUMPDEST POP POP POP POP PUSH1 0x40 MLOAD RETURNDATASIZE PUSH1 0x1F NOT PUSH1 0x1F DUP3 ADD AND DUP3 ADD DUP1 PUSH1 0x40 MSTORE POP DUP2 ADD SWAP1 PUSH2 0x5A4 SWAP2 SWAP1 PUSH2 0x1ED2 JUMP JUMPDEST DUP2 LT ISZERO PUSH2 0x7F5 JUMPI PUSH1 0x1 SLOAD PUSH1 0x40 MLOAD PUSH4 0x37F288C7 PUSH1 0xE2 SHL DUP2 MSTORE PUSH2 0xFFFF DUP1 DUP8 AND PUSH1 0x4 DUP4 ADD MSTORE DUP1 DUP7 AND PUSH1 0x24 DUP4 ADD MSTORE DUP5 AND PUSH1 0x44 DUP3 ADD MSTORE PUSH1 0x0 PUSH1 0x64 DUP3 ADD DUP2 SWAP1 MSTORE PUSH1 0x84 DUP3 ADD DUP5 SWAP1 MSTORE SWAP2 PUSH1 0x1 PUSH1 0x1 PUSH1 0xA0 SHL SUB AND SWAP1 PUSH4 0xDFCA231C SWAP1 PUSH1 0xA4 ADD PUSH1 0x20 PUSH1 0x40 MLOAD DUP1 DUP4 SUB DUP2 DUP7 GAS STATICCALL ISZERO DUP1 ISZERO PUSH2 0x616 JUMPI RETURNDATASIZE PUSH1 0x0 DUP1 RETURNDATACOPY RETURNDATASIZE PUSH1 0x0 REVERT JUMPDEST POP POP POP POP PUSH1 0x40 MLOAD RETURNDATASIZE PUSH1 0x1F NOT PUSH1 0x1F DUP3 ADD AND DUP3 ADD DUP1 PUSH1 0x40 MSTORE POP DUP2 ADD SWAP1 PUSH2 0x63A SWAP2 SWAP1 PUSH2 0x1ED2 JUMP JUMPDEST PUSH1 0x1 SLOAD PUSH1 0x40 MLOAD PUSH4 0x1BF4604F PUSH1 0xE1 SHL DUP2 MSTORE PUSH1 0x4 DUP2 ADD DUP4 SWAP1 MSTORE SWAP2 SWAP3 POP PUSH1 0x0 SWAP2 PUSH1 0x1 PUSH1 0x1 PUSH1 0xA0 SHL SUB SWAP1 SWAP2 AND SWAP1 PUSH4 0x37E8C09E SWAP1 PUSH1 0x24 ADD PUSH1 0x0 PUSH1 0x40 MLOAD DUP1 DUP4 SUB DUP2 DUP7 GAS STATICCALL ISZERO DUP1 ISZERO PUSH2 0x689 JUMPI RETURNDATASIZE PUSH1 0x0 DUP1 RETURNDATACOPY RETURNDATASIZE PUSH1 0x0 REVERT JUMPDEST POP POP POP POP PUSH1 0x40 MLOAD RETURNDATASIZE PUSH1 0x0 DUP3 RETURNDATACOPY PUSH1 0x1F RETURNDATASIZE SWAP1 DUP2 ADD PUSH1 0x1F NOT AND DUP3 ADD PUSH1 0x40 MSTORE PUSH2 0x6B1 SWAP2 SWAP1 DUP2 ADD SWAP1 PUSH2 0x1FF4 JUMP JUMPDEST SWAP1 POP TIMESTAMP DUP2 PUSH1 0x80 ADD MLOAD GT ISZERO PUSH2 0x7E0 JUMPI PUSH20 0x0 PUSH4 0xDFBE0B1F DUP13 PUSH20 0x0 PUSH4 0x9201DE55 DUP7 PUSH1 0x40 MLOAD DUP3 PUSH4 0xFFFFFFFF AND PUSH1 0xE0 SHL DUP2 MSTORE PUSH1 0x4 ADD PUSH2 0x713 SWAP2 DUP2 MSTORE PUSH1 0x20 ADD SWAP1 JUMP JUMPDEST PUSH1 0x0 PUSH1 0x40 MLOAD DUP1 DUP4 SUB DUP2 DUP7 GAS DELEGATECALL ISZERO DUP1 ISZERO PUSH2 0x730 JUMPI RETURNDATASIZE PUSH1 0x0 DUP1 RETURNDATACOPY RETURNDATASIZE PUSH1 0x0 REVERT JUMPDEST POP POP POP POP PUSH1 0x40 MLOAD RETURNDATASIZE PUSH1 0x0 DUP3 RETURNDATACOPY PUSH1 0x1F RETURNDATASIZE SWAP1 DUP2 ADD PUSH1 0x1F NOT AND DUP3 ADD PUSH1 0x40 MSTORE PUSH2 0x758 SWAP2 SWAP1 DUP2 ADD SWAP1 PUSH2 0x20E3 JUMP JUMPDEST PUSH2 0x765 DUP6 PUSH1 0x80 ADD MLOAD PUSH2 0x190C JUMP JUMPDEST DUP6 PUSH1 0x60 ADD MLOAD PUSH2 0x778 DUP8 PUSH2 0x100 ADD MLOAD PUSH2 0x190C JUMP JUMPDEST PUSH1 0x40 MLOAD DUP7 PUSH4 0xFFFFFFFF AND PUSH1 0xE0 SHL DUP2 MSTORE PUSH1 0x4 ADD PUSH2 0x798 SWAP6 SWAP5 SWAP4 SWAP3 SWAP2 SWAP1 PUSH2 0x212C JUMP JUMPDEST PUSH1 0x0 PUSH1 0x40 MLOAD DUP1 DUP4 SUB DUP2 DUP7 GAS DELEGATECALL ISZERO DUP1 ISZERO PUSH2 0x7B5 JUMPI RETURNDATASIZE PUSH1 0x0 DUP1 RETURNDATACOPY RETURNDATASIZE PUSH1 0x0 REVERT JUMPDEST POP POP POP POP PUSH1 0x40 MLOAD RETURNDATASIZE PUSH1 0x0 DUP3 RETURNDATACOPY PUSH1 0x1F RETURNDATASIZE SWAP1 DUP2 ADD PUSH1 0x1F NOT AND DUP3 ADD PUSH1 0x40 MSTORE PUSH2 0x7DD SWAP2 SWAP1 DUP2 ADD SWAP1 PUSH2 0x20E3 JUMP JUMPDEST SWAP11 POP JUMPDEST POP POP DUP1 DUP1 PUSH2 0x7ED SWAP1 PUSH2 0x2209 JUMP JUMPDEST SWAP2 POP POP PUSH2 0x51D JUMP JUMPDEST POP POP POP POP POP POP POP DUP1 PUSH3 0x15180 PUSH2 0x80B SWAP2 SWAP1 PUSH2 0x2257 JUMP JUMPDEST SWAP1 POP PUSH2 0x4FB JUMP JUMPDEST POP SWAP1 POP JUMPDEST SWAP3 SWAP2 POP POP JUMP JUMPDEST PUSH1 0x1 SLOAD PUSH1 0x40 MLOAD PUSH4 0xD5A1AD61 PUSH1 0xE0 SHL DUP2 MSTORE CALLER PUSH1 0x4 DUP3 ADD MSTORE PUSH1 0x60 SWAP2 PUSH1 0x0 SWAP2 PUSH1 0x1 PUSH1 0x1 PUSH1 0xA0 SHL SUB SWAP1 SWAP2 AND SWAP1 PUSH4 0xD5A1AD61 SWAP1 PUSH1 0x24 ADD PUSH1 0x0 PUSH1 0x40 MLOAD DUP1 DUP4 SUB DUP2 DUP7 GAS STATICCALL ISZERO DUP1 ISZERO PUSH2 0x86A JUMPI RETURNDATASIZE PUSH1 0x0 DUP1 RETURNDATACOPY RETURNDATASIZE PUSH1 0x0 REVERT JUMPDEST POP POP POP POP PUSH1 0x40 MLOAD RETURNDATASIZE PUSH1 0x0 DUP3 RETURNDATACOPY PUSH1 0x1F RETURNDATASIZE SWAP1 DUP2 ADD PUSH1 0x1F NOT AND DUP3 ADD PUSH1 0x40 MSTORE PUSH2 0x892 SWAP2 SWAP1 DUP2 ADD SWAP1 PUSH2 0x226A JUMP JUMPDEST SWAP1 POP PUSH1 0x60 PUSH1 0x0 DUP3 MLOAD GT ISZERO PUSH2 0x816 JUMPI PUSH1 0x0 JUMPDEST DUP3 MLOAD DUP2 LT ISZERO PUSH2 0x1034 JUMPI PUSH1 0x0 DUP4 DUP3 DUP2 MLOAD DUP2 LT PUSH2 0x8C0 JUMPI PUSH2 0x8C0 PUSH2 0x2304 JUMP JUMPDEST PUSH1 0x20 SWAP1 DUP2 MUL SWAP2 SWAP1 SWAP2 ADD ADD MLOAD PUSH1 0x40 MLOAD PUSH4 0x5E57966D PUSH1 0xE0 SHL DUP2 MSTORE CALLER PUSH1 0x4 DUP3 ADD MSTORE SWAP1 SWAP2 POP PUSH1 0x0 SWAP1 PUSH20 0x0 SWAP1 PUSH4 0x5E57966D SWAP1 PUSH1 0x24 ADD PUSH1 0x0 PUSH1 0x40 MLOAD DUP1 DUP4 SUB DUP2 DUP7 GAS DELEGATECALL ISZERO DUP1 ISZERO PUSH2 0x920 JUMPI RETURNDATASIZE PUSH1 0x0 DUP1 RETURNDATACOPY RETURNDATASIZE PUSH1 0x0 REVERT JUMPDEST POP POP POP POP PUSH1 0x40 MLOAD RETURNDATASIZE PUSH1 0x0 DUP3 RETURNDATACOPY PUSH1 0x1F RETURNDATASIZE SWAP1 DUP2 ADD PUSH1 0x1F NOT AND DUP3 ADD PUSH1 0x40 MSTORE PUSH2 0x948 SWAP2 SWAP1 DUP2 ADD SWAP1 PUSH2 0x20E3 JUMP JUMPDEST PUSH1 0x1 SLOAD PUSH1 0x40 MLOAD PUSH4 0x1BF4604F PUSH1 0xE1 SHL DUP2 MSTORE PUSH1 0x4 DUP2 ADD DUP6 SWAP1 MSTORE SWAP2 SWAP3 POP PUSH1 0x0 SWAP2 PUSH1 0x1 PUSH1 0x1 PUSH1 0xA0 SHL SUB SWAP1 SWAP2 AND SWAP1 PUSH4 0x37E8C09E SWAP1 PUSH1 0x24 ADD PUSH1 0x0 PUSH1 0x40 MLOAD DUP1 DUP4 SUB DUP2 DUP7 GAS STATICCALL ISZERO DUP1 ISZERO PUSH2 0x997 JUMPI RETURNDATASIZE PUSH1 0x0 DUP1 RETURNDATACOPY RETURNDATASIZE PUSH1 0x0 REVERT JUMPDEST POP POP POP POP PUSH1 0x40 MLOAD RETURNDATASIZE PUSH1 0x0 DUP3 RETURNDATACOPY PUSH1 0x1F RETURNDATASIZE SWAP1 DUP2 ADD PUSH1 0x1F NOT AND DUP3 ADD PUSH1 0x40 MSTORE PUSH2 0x9BF SWAP2 SWAP1 DUP2 ADD SWAP1 PUSH2 0x1FF4 JUMP JUMPDEST PUSH1 0x1 SLOAD PUSH1 0x40 DUP1 MLOAD DUP1 DUP3 ADD DUP3 MSTORE PUSH1 0x5 DUP2 MSTORE PUSH5 0x4245544545 PUSH1 0xD8 SHL PUSH1 0x20 DUP3 ADD MSTORE SWAP1 MLOAD PUSH4 0x22AD378F PUSH1 0xE2 SHL DUP2 MSTORE SWAP3 SWAP4 POP PUSH1 0x0 SWAP3 PUSH1 0x1 PUSH1 0x1 PUSH1 0xA0 SHL SUB SWAP1 SWAP3 AND SWAP2 PUSH4 0x8AB4DE3C SWAP2 PUSH2 0xA10 SWAP2 DUP9 SWAP2 SWAP1 PUSH1 0x4 ADD PUSH2 0x231A JUMP JUMPDEST PUSH1 0x0 PUSH1 0x40 MLOAD DUP1 DUP4 SUB DUP2 DUP7 GAS STATICCALL ISZERO DUP1 ISZERO PUSH2 0xA2D JUMPI RETURNDATASIZE PUSH1 0x0 DUP1 RETURNDATACOPY RETURNDATASIZE PUSH1 0x0 REVERT JUMPDEST POP POP POP POP PUSH1 0x40 MLOAD RETURNDATASIZE PUSH1 0x0 DUP3 RETURNDATACOPY PUSH1 0x1F RETURNDATASIZE SWAP1 DUP2 ADD PUSH1 0x1F NOT AND DUP3 ADD PUSH1 0x40 MSTORE PUSH2 0xA55 SWAP2 SWAP1 DUP2 ADD SWAP1 PUSH2 0x20E3 JUMP JUMPDEST PUSH1 0x1 SLOAD PUSH1 0x40 DUP1 MLOAD DUP1 DUP3 ADD DUP3 MSTORE PUSH1 0xA DUP2 MSTORE PUSH10 0x20A92124AA2920AA27A9 PUSH1 0xB1 SHL PUSH1 0x20 DUP3 ADD MSTORE SWAP1 MLOAD PUSH4 0x22AD378F PUSH1 0xE2 SHL DUP2 MSTORE SWAP3 SWAP4 POP PUSH1 0x0 SWAP3 PUSH1 0x1 PUSH1 0x1 PUSH1 0xA0 SHL SUB SWAP1 SWAP3 AND SWAP2 PUSH4 0x8AB4DE3C SWAP2 PUSH2 0xAAB SWAP2 DUP10 SWAP2 SWAP1 PUSH1 0x4 ADD PUSH2 0x231A JUMP JUMPDEST PUSH1 0x0 PUSH1 0x40 MLOAD DUP1 DUP4 SUB DUP2 DUP7 GAS STATICCALL ISZERO DUP1 ISZERO PUSH2 0xAC8 JUMPI RETURNDATASIZE PUSH1 0x0 DUP1 RETURNDATACOPY RETURNDATASIZE PUSH1 0x0 REVERT JUMPDEST POP POP POP POP PUSH1 0x40 MLOAD RETURNDATASIZE PUSH1 0x0 DUP3 RETURNDATACOPY PUSH1 0x1F RETURNDATASIZE SWAP1 DUP2 ADD PUSH1 0x1F NOT AND DUP3 ADD PUSH1 0x40 MSTORE PUSH2 0xAF0 SWAP2 SWAP1 DUP2 ADD SWAP1 PUSH2 0x20E3 JUMP JUMPDEST PUSH1 0x40 DUP1 DUP6 ADD MLOAD SWAP1 MLOAD PUSH4 0x5E57966D PUSH1 0xE0 SHL DUP2 MSTORE PUSH1 0x1 PUSH1 0x1 PUSH1 0xA0 SHL SUB SWAP1 SWAP2 AND PUSH1 0x4 DUP3 ADD MSTORE SWAP1 SWAP2 POP PUSH20 0x0 SWAP1 PUSH4 0xBED34BBA SWAP1 PUSH20 0x0 SWAP1 PUSH4 0x5E57966D SWAP1 PUSH1 0x24 ADD PUSH1 0x0 PUSH1 0x40 MLOAD DUP1 DUP4 SUB DUP2 DUP7 GAS DELEGATECALL ISZERO DUP1 ISZERO PUSH2 0xB6D JUMPI RETURNDATASIZE PUSH1 0x0 DUP1 RETURNDATACOPY RETURNDATASIZE PUSH1 0x0 REVERT JUMPDEST POP POP POP POP PUSH1 0x40 MLOAD RETURNDATASIZE PUSH1 0x0 DUP3 RETURNDATACOPY PUSH1 0x1F RETURNDATASIZE SWAP1 DUP2 ADD PUSH1 0x1F NOT AND DUP3 ADD PUSH1 0x40 MSTORE PUSH2 0xB95 SWAP2 SWAP1 DUP2 ADD SWAP1 PUSH2 0x20E3 JUMP JUMPDEST DUP7 PUSH1 0x40 MLOAD DUP4 PUSH4 0xFFFFFFFF AND PUSH1 0xE0 SHL DUP2 MSTORE PUSH1 0x4 ADD PUSH2 0xBB3 SWAP3 SWAP2 SWAP1 PUSH2 0x2333 JUMP JUMPDEST PUSH1 0x20 PUSH1 0x40 MLOAD DUP1 DUP4 SUB DUP2 DUP7 GAS DELEGATECALL ISZERO DUP1 ISZERO PUSH2 0xBD0 JUMPI RETURNDATASIZE PUSH1 0x0 DUP1 RETURNDATACOPY RETURNDATASIZE PUSH1 0x0 REVERT JUMPDEST POP POP POP POP PUSH1 0x40 MLOAD RETURNDATASIZE PUSH1 0x1F NOT PUSH1 0x1F DUP3 ADD AND DUP3 ADD DUP1 PUSH1 0x40 MSTORE POP DUP2 ADD SWAP1 PUSH2 0xBF4 SWAP2 SWAP1 PUSH2 0x2361 JUMP JUMPDEST ISZERO PUSH2 0xD20 JUMPI PUSH20 0x0 PUSH4 0xDFBE0B1F DUP9 PUSH20 0x0 PUSH4 0x9201DE55 DUP10 PUSH1 0x40 MLOAD DUP3 PUSH4 0xFFFFFFFF AND PUSH1 0xE0 SHL DUP2 MSTORE PUSH1 0x4 ADD PUSH2 0xC4D SWAP2 DUP2 MSTORE PUSH1 0x20 ADD SWAP1 JUMP JUMPDEST PUSH1 0x0 PUSH1 0x40 MLOAD DUP1 DUP4 SUB DUP2 DUP7 GAS DELEGATECALL ISZERO DUP1 ISZERO PUSH2 0xC6A JUMPI RETURNDATASIZE PUSH1 0x0 DUP1 RETURNDATACOPY RETURNDATASIZE PUSH1 0x0 REVERT JUMPDEST POP POP POP POP PUSH1 0x40 MLOAD RETURNDATASIZE PUSH1 0x0 DUP3 RETURNDATACOPY PUSH1 0x1F RETURNDATASIZE SWAP1 DUP2 ADD PUSH1 0x1F NOT AND DUP3 ADD PUSH1 0x40 MSTORE PUSH2 0xC92 SWAP2 SWAP1 DUP2 ADD SWAP1 PUSH2 0x20E3 JUMP JUMPDEST PUSH2 0xC9F DUP8 PUSH1 0x80 ADD MLOAD PUSH2 0x190C JUMP JUMPDEST DUP8 PUSH1 0x60 ADD MLOAD PUSH2 0xCB4 DUP10 PUSH1 0xE0 ADD MLOAD PUSH1 0xFF AND PUSH2 0x190C JUMP JUMPDEST PUSH1 0x40 MLOAD DUP7 PUSH4 0xFFFFFFFF AND PUSH1 0xE0 SHL DUP2 MSTORE PUSH1 0x4 ADD PUSH2 0xCD4 SWAP6 SWAP5 SWAP4 SWAP3 SWAP2 SWAP1 PUSH2 0x2383 JUMP JUMPDEST PUSH1 0x0 PUSH1 0x40 MLOAD DUP1 DUP4 SUB DUP2 DUP7 GAS DELEGATECALL ISZERO DUP1 ISZERO PUSH2 0xCF1 JUMPI RETURNDATASIZE PUSH1 0x0 DUP1 RETURNDATACOPY RETURNDATASIZE PUSH1 0x0 REVERT JUMPDEST POP POP POP POP PUSH1 0x40 MLOAD RETURNDATASIZE PUSH1 0x0 DUP3 RETURNDATACOPY PUSH1 0x1F RETURNDATASIZE SWAP1 DUP2 ADD PUSH1 0x1F NOT AND DUP3 ADD PUSH1 0x40 MSTORE PUSH2 0xD19 SWAP2 SWAP1 DUP2 ADD SWAP1 PUSH2 0x20E3 JUMP JUMPDEST SWAP7 POP PUSH2 0x101C JUMP JUMPDEST PUSH1 0x40 MLOAD PUSH4 0x5F69A5DD PUSH1 0xE1 SHL DUP2 MSTORE PUSH20 0x0 SWAP1 PUSH4 0xBED34BBA SWAP1 PUSH2 0xD59 SWAP1 DUP6 SWAP1 DUP9 SWAP1 PUSH1 0x4 ADD PUSH2 0x2333 JUMP JUMPDEST PUSH1 0x20 PUSH1 0x40 MLOAD DUP1 DUP4 SUB DUP2 DUP7 GAS DELEGATECALL ISZERO DUP1 ISZERO PUSH2 0xD76 JUMPI RETURNDATASIZE PUSH1 0x0 DUP1 RETURNDATACOPY RETURNDATASIZE PUSH1 0x0 REVERT JUMPDEST POP POP POP POP PUSH1 0x40 MLOAD RETURNDATASIZE PUSH1 0x1F NOT PUSH1 0x1F DUP3 ADD AND DUP3 ADD DUP1 PUSH1 0x40 MSTORE POP DUP2 ADD SWAP1 PUSH2 0xD9A SWAP2 SWAP1 PUSH2 0x2361 JUMP JUMPDEST ISZERO PUSH2 0xE7A JUMPI PUSH20 0x0 PUSH4 0xDFBE0B1F DUP9 PUSH20 0x0 PUSH4 0x9201DE55 DUP10 PUSH1 0x40 MLOAD DUP3 PUSH4 0xFFFFFFFF AND PUSH1 0xE0 SHL DUP2 MSTORE PUSH1 0x4 ADD PUSH2 0xDF3 SWAP2 DUP2 MSTORE PUSH1 0x20 ADD SWAP1 JUMP JUMPDEST PUSH1 0x0 PUSH1 0x40 MLOAD DUP1 DUP4 SUB DUP2 DUP7 GAS DELEGATECALL ISZERO DUP1 ISZERO PUSH2 0xE10 JUMPI RETURNDATASIZE PUSH1 0x0 DUP1 RETURNDATACOPY RETURNDATASIZE PUSH1 0x0 REVERT JUMPDEST POP POP POP POP PUSH1 0x40 MLOAD RETURNDATASIZE PUSH1 0x0 DUP3 RETURNDATACOPY PUSH1 0x1F RETURNDATASIZE SWAP1 DUP2 ADD PUSH1 0x1F NOT AND DUP3 ADD PUSH1 0x40 MSTORE PUSH2 0xE38 SWAP2 SWAP1 DUP2 ADD SWAP1 PUSH2 0x20E3 JUMP JUMPDEST PUSH2 0xE45 DUP8 PUSH1 0x80 ADD MLOAD PUSH2 0x190C JUMP JUMPDEST DUP8 PUSH1 0x60 ADD MLOAD PUSH2 0xE5A DUP10 PUSH1 0xE0 ADD MLOAD PUSH1 0xFF AND PUSH2 0x190C JUMP JUMPDEST PUSH1 0x40 MLOAD DUP7 PUSH4 0xFFFFFFFF AND PUSH1 0xE0 SHL DUP2 MSTORE PUSH1 0x4 ADD PUSH2 0xCD4 SWAP6 SWAP5 SWAP4 SWAP3 SWAP2 SWAP1 PUSH2 0x242B JUMP JUMPDEST PUSH1 0x40 MLOAD PUSH4 0x5F69A5DD PUSH1 0xE1 SHL DUP2 MSTORE PUSH20 0x0 SWAP1 PUSH4 0xBED34BBA SWAP1 PUSH2 0xEB3 SWAP1 DUP5 SWAP1 DUP9 SWAP1 PUSH1 0x4 ADD PUSH2 0x2333 JUMP JUMPDEST PUSH1 0x20 PUSH1 0x40 MLOAD DUP1 DUP4 SUB DUP2 DUP7 GAS DELEGATECALL ISZERO DUP1 ISZERO PUSH2 0xED0 JUMPI RETURNDATASIZE PUSH1 0x0 DUP1 RETURNDATACOPY RETURNDATASIZE PUSH1 0x0 REVERT JUMPDEST POP POP POP POP PUSH1 0x40 MLOAD RETURNDATASIZE PUSH1 0x1F NOT PUSH1 0x1F DUP3 ADD AND DUP3 ADD DUP1 PUSH1 0x40 MSTORE POP DUP2 ADD SWAP1 PUSH2 0xEF4 SWAP2 SWAP1 PUSH2 0x2361 JUMP JUMPDEST ISZERO PUSH2 0x101C JUMPI PUSH20 0x0 PUSH4 0xDFBE0B1F DUP9 PUSH20 0x0 PUSH4 0x9201DE55 DUP10 PUSH1 0x40 MLOAD DUP3 PUSH4 0xFFFFFFFF AND PUSH1 0xE0 SHL DUP2 MSTORE PUSH1 0x4 ADD PUSH2 0xF4D SWAP2 DUP2 MSTORE PUSH1 0x20 ADD SWAP1 JUMP JUMPDEST PUSH1 0x0 PUSH1 0x40 MLOAD DUP1 DUP4 SUB DUP2 DUP7 GAS DELEGATECALL ISZERO DUP1 ISZERO PUSH2 0xF6A JUMPI RETURNDATASIZE PUSH1 0x0 DUP1 RETURNDATACOPY RETURNDATASIZE PUSH1 0x0 REVERT JUMPDEST POP POP POP POP PUSH1 0x40 MLOAD RETURNDATASIZE PUSH1 0x0 DUP3 RETURNDATACOPY PUSH1 0x1F RETURNDATASIZE SWAP1 DUP2 ADD PUSH1 0x1F NOT AND DUP3 ADD PUSH1 0x40 MSTORE PUSH2 0xF92 SWAP2 SWAP1 DUP2 ADD SWAP1 PUSH2 0x20E3 JUMP JUMPDEST PUSH2 0xF9F DUP8 PUSH1 0x80 ADD MLOAD PUSH2 0x190C JUMP JUMPDEST DUP8 PUSH1 0x60 ADD MLOAD PUSH2 0xFB4 DUP10 PUSH1 0xE0 ADD MLOAD PUSH1 0xFF AND PUSH2 0x190C JUMP JUMPDEST PUSH1 0x40 MLOAD DUP7 PUSH4 0xFFFFFFFF AND PUSH1 0xE0 SHL DUP2 MSTORE PUSH1 0x4 ADD PUSH2 0xFD4 SWAP6 SWAP5 SWAP4 SWAP3 SWAP2 SWAP1 PUSH2 0x24D3 JUMP JUMPDEST PUSH1 0x0 PUSH1 0x40 MLOAD DUP1 DUP4 SUB DUP2 DUP7 GAS DELEGATECALL ISZERO DUP1 ISZERO PUSH2 0xFF1 JUMPI RETURNDATASIZE PUSH1 0x0 DUP1 RETURNDATACOPY RETURNDATASIZE PUSH1 0x0 REVERT JUMPDEST POP POP POP POP PUSH1 0x40 MLOAD RETURNDATASIZE PUSH1 0x0 DUP3 RETURNDATACOPY PUSH1 0x1F RETURNDATASIZE SWAP1 DUP2 ADD PUSH1 0x1F NOT AND DUP3 ADD PUSH1 0x40 MSTORE PUSH2 0x1019 SWAP2 SWAP1 DUP2 ADD SWAP1 PUSH2 0x20E3 JUMP JUMPDEST SWAP7 POP JUMPDEST POP POP POP POP POP DUP1 DUP1 PUSH2 0x102C SWAP1 PUSH2 0x2209 JUMP JUMPDEST SWAP2 POP POP PUSH2 0x8A3 JUMP JUMPDEST POP SWAP3 SWAP2 POP POP JUMP JUMPDEST PUSH1 0x40 DUP1 MLOAD PUSH1 0xF DUP1 DUP3 MSTORE PUSH2 0x200 DUP3 ADD SWAP1 SWAP3 MSTORE PUSH1 0x60 SWAP2 PUSH1 0x0 SWAP2 SWAP1 DUP2 PUSH1 0x20 ADD JUMPDEST PUSH1 0x60 DUP2 MSTORE PUSH1 0x20 ADD SWAP1 PUSH1 0x1 SWAP1 SUB SWAP1 DUP2 PUSH2 0x1058 JUMPI SWAP1 POP POP PUSH1 0x1 SLOAD PUSH1 0x40 MLOAD PUSH4 0x1BF4604F PUSH1 0xE1 SHL DUP2 MSTORE PUSH1 0x4 DUP2 ADD DUP7 SWAP1 MSTORE SWAP2 SWAP3 POP PUSH1 0x0 SWAP2 PUSH1 0x1 PUSH1 0x1 PUSH1 0xA0 SHL SUB SWAP1 SWAP2 AND SWAP1 PUSH4 0x37E8C09E SWAP1 PUSH1 0x24 ADD PUSH1 0x0 PUSH1 0x40 MLOAD DUP1 DUP4 SUB DUP2 DUP7 GAS STATICCALL ISZERO DUP1 ISZERO PUSH2 0x10BC JUMPI RETURNDATASIZE PUSH1 0x0 DUP1 RETURNDATACOPY RETURNDATASIZE PUSH1 0x0 REVERT JUMPDEST POP POP POP POP PUSH1 0x40 MLOAD RETURNDATASIZE PUSH1 0x0 DUP3 RETURNDATACOPY PUSH1 0x1F RETURNDATASIZE SWAP1 DUP2 ADD PUSH1 0x1F NOT AND DUP3 ADD PUSH1 0x40 MSTORE PUSH2 0x10E4 SWAP2 SWAP1 DUP2 ADD SWAP1 PUSH2 0x1FF4 JUMP JUMPDEST PUSH1 0x40 DUP2 DUP2 ADD MLOAD SWAP1 MLOAD PUSH4 0x5E57966D PUSH1 0xE0 SHL DUP2 MSTORE PUSH1 0x1 PUSH1 0x1 PUSH1 0xA0 SHL SUB SWAP1 SWAP2 AND PUSH1 0x4 DUP3 ADD MSTORE SWAP1 SWAP2 POP PUSH20 0x0 SWAP1 PUSH4 0x5E57966D SWAP1 PUSH1 0x24 ADD PUSH1 0x0 PUSH1 0x40 MLOAD DUP1 DUP4 SUB DUP2 DUP7 GAS DELEGATECALL ISZERO DUP1 ISZERO PUSH2 0x1145 JUMPI RETURNDATASIZE PUSH1 0x0 DUP1 RETURNDATACOPY RETURNDATASIZE PUSH1 0x0 REVERT JUMPDEST POP POP POP POP PUSH1 0x40 MLOAD RETURNDATASIZE PUSH1 0x0 DUP3 RETURNDATACOPY PUSH1 0x1F RETURNDATASIZE SWAP1 DUP2 ADD PUSH1 0x1F NOT AND DUP3 ADD PUSH1 0x40 MSTORE PUSH2 0x116D SWAP2 SWAP1 DUP2 ADD SWAP1 PUSH2 0x20E3 JUMP JUMPDEST DUP3 PUSH1 0x0 DUP2 MLOAD DUP2 LT PUSH2 0x1180 JUMPI PUSH2 0x1180 PUSH2 0x2304 JUMP JUMPDEST PUSH1 0x20 MUL PUSH1 0x20 ADD ADD DUP2 SWAP1 MSTORE POP DUP1 PUSH1 0x60 ADD MLOAD DUP3 PUSH1 0x1 DUP2 MLOAD DUP2 LT PUSH2 0x11A3 JUMPI PUSH2 0x11A3 PUSH2 0x2304 JUMP JUMPDEST PUSH1 0x20 MUL PUSH1 0x20 ADD ADD DUP2 SWAP1 MSTORE POP PUSH2 0x11BB DUP2 PUSH1 0x80 ADD MLOAD PUSH2 0x190C JUMP JUMPDEST DUP3 PUSH1 0x2 DUP2 MLOAD DUP2 LT PUSH2 0x11CE JUMPI PUSH2 0x11CE PUSH2 0x2304 JUMP JUMPDEST PUSH1 0x20 MUL PUSH1 0x20 ADD ADD DUP2 SWAP1 MSTORE POP PUSH2 0x11E9 DUP2 PUSH1 0xA0 ADD MLOAD PUSH1 0xFF AND PUSH2 0x190C JUMP JUMPDEST DUP3 PUSH1 0x3 DUP2 MLOAD DUP2 LT PUSH2 0x11FC JUMPI PUSH2 0x11FC PUSH2 0x2304 JUMP JUMPDEST PUSH1 0x20 MUL PUSH1 0x20 ADD ADD DUP2 SWAP1 MSTORE POP PUSH2 0x1217 DUP2 PUSH1 0xC0 ADD MLOAD PUSH1 0xFF AND PUSH2 0x190C JUMP JUMPDEST DUP3 PUSH1 0x4 DUP2 MLOAD DUP2 LT PUSH2 0x122A JUMPI PUSH2 0x122A PUSH2 0x2304 JUMP JUMPDEST PUSH1 0x20 MUL PUSH1 0x20 ADD ADD DUP2 SWAP1 MSTORE POP PUSH2 0x1243 DUP2 PUSH2 0x100 ADD MLOAD PUSH2 0x190C JUMP JUMPDEST DUP3 PUSH1 0x5 DUP2 MLOAD DUP2 LT PUSH2 0x1256 JUMPI PUSH2 0x1256 PUSH2 0x2304 JUMP JUMPDEST PUSH1 0x20 MUL PUSH1 0x20 ADD ADD DUP2 SWAP1 MSTORE POP PUSH2 0x126F DUP2 PUSH2 0x120 ADD MLOAD PUSH2 0x190C JUMP JUMPDEST DUP3 PUSH1 0x6 DUP2 MLOAD DUP2 LT PUSH2 0x1282 JUMPI PUSH2 0x1282 PUSH2 0x2304 JUMP JUMPDEST PUSH1 0x20 SWAP1 DUP2 MUL SWAP2 SWAP1 SWAP2 ADD DUP2 ADD SWAP2 SWAP1 SWAP2 MSTORE PUSH1 0x1 SLOAD PUSH1 0x40 DUP1 MLOAD DUP1 DUP3 ADD DUP3 MSTORE PUSH1 0xA DUP2 MSTORE PUSH10 0x20A92124AA2920AA27A9 PUSH1 0xB1 SHL SWAP4 DUP2 ADD SWAP4 SWAP1 SWAP4 MSTORE MLOAD PUSH4 0x22AD378F PUSH1 0xE2 SHL DUP2 MSTORE PUSH1 0x1 PUSH1 0x1 PUSH1 0xA0 SHL SUB SWAP1 SWAP2 AND SWAP2 PUSH4 0x8AB4DE3C SWAP2 PUSH2 0x12E1 SWAP2 DUP9 SWAP2 PUSH1 0x4 ADD PUSH2 0x231A JUMP JUMPDEST PUSH1 0x0 PUSH1 0x40 MLOAD DUP1 DUP4 SUB DUP2 DUP7 GAS STATICCALL ISZERO DUP1 ISZERO PUSH2 0x12FE JUMPI RETURNDATASIZE PUSH1 0x0 DUP1 RETURNDATACOPY RETURNDATASIZE PUSH1 0x0 REVERT JUMPDEST POP POP POP POP PUSH1 0x40 MLOAD RETURNDATASIZE PUSH1 0x0 DUP3 RETURNDATACOPY PUSH1 0x1F RETURNDATASIZE SWAP1 DUP2 ADD PUSH1 0x1F NOT AND DUP3 ADD PUSH1 0x40 MSTORE PUSH2 0x1326 SWAP2 SWAP1 DUP2 ADD SWAP1 PUSH2 0x20E3 JUMP JUMPDEST DUP3 PUSH1 0x7 DUP2 MLOAD DUP2 LT PUSH2 0x1339 JUMPI PUSH2 0x1339 PUSH2 0x2304 JUMP JUMPDEST PUSH1 0x20 SWAP1 DUP2 MUL SWAP2 SWAP1 SWAP2 ADD DUP2 ADD SWAP2 SWAP1 SWAP2 MSTORE PUSH1 0x1 SLOAD PUSH1 0x40 DUP1 MLOAD DUP1 DUP3 ADD DUP3 MSTORE PUSH1 0xE DUP2 MSTORE PUSH14 0x41524249545241544F524E414D45 PUSH1 0x90 SHL SWAP4 DUP2 ADD SWAP4 SWAP1 SWAP4 MSTORE MLOAD PUSH4 0x22AD378F PUSH1 0xE2 SHL DUP2 MSTORE PUSH1 0x1 PUSH1 0x1 PUSH1 0xA0 SHL SUB SWAP1 SWAP2 AND SWAP2 PUSH4 0x8AB4DE3C SWAP2 PUSH2 0x139C SWAP2 DUP9 SWAP2 PUSH1 0x4 ADD PUSH2 0x231A JUMP JUMPDEST PUSH1 0x0 PUSH1 0x40 MLOAD DUP1 DUP4 SUB DUP2 DUP7 GAS STATICCALL ISZERO DUP1 ISZERO PUSH2 0x13B9 JUMPI RETURNDATASIZE PUSH1 0x0 DUP1 RETURNDATACOPY RETURNDATASIZE PUSH1 0x0 REVERT JUMPDEST POP POP POP POP PUSH1 0x40 MLOAD RETURNDATASIZE PUSH1 0x0 DUP3 RETURNDATACOPY PUSH1 0x1F RETURNDATASIZE SWAP1 DUP2 ADD PUSH1 0x1F NOT AND DUP3 ADD PUSH1 0x40 MSTORE PUSH2 0x13E1 SWAP2 SWAP1 DUP2 ADD SWAP1 PUSH2 0x20E3 JUMP JUMPDEST DUP3 PUSH1 0x8 DUP2 MLOAD DUP2 LT PUSH2 0x13F4 JUMPI PUSH2 0x13F4 PUSH2 0x2304 JUMP JUMPDEST PUSH1 0x20 SWAP1 DUP2 MUL SWAP2 SWAP1 SWAP2 ADD DUP2 ADD SWAP2 SWAP1 SWAP2 MSTORE PUSH1 0x1 SLOAD PUSH1 0x40 DUP1 MLOAD DUP1 DUP3 ADD DUP3 MSTORE PUSH1 0xB DUP2 MSTORE PUSH11 0x57494E5343454E4152494F PUSH1 0xA8 SHL SWAP4 DUP2 ADD SWAP4 SWAP1 SWAP4 MSTORE MLOAD PUSH4 0x22AD378F PUSH1 0xE2 SHL DUP2 MSTORE PUSH1 0x1 PUSH1 0x1 PUSH1 0xA0 SHL SUB SWAP1 SWAP2 AND SWAP2 PUSH4 0x8AB4DE3C SWAP2 PUSH2 0x1454 SWAP2 DUP9 SWAP2 PUSH1 0x4 ADD PUSH2 0x231A JUMP JUMPDEST PUSH1 0x0 PUSH1 0x40 MLOAD DUP1 DUP4 SUB DUP2 DUP7 GAS STATICCALL ISZERO DUP1 ISZERO PUSH2 0x1471 JUMPI RETURNDATASIZE PUSH1 0x0 DUP1 RETURNDATACOPY RETURNDATASIZE PUSH1 0x0 REVERT JUMPDEST POP POP POP POP PUSH1 0x40 MLOAD RETURNDATASIZE PUSH1 0x0 DUP3 RETURNDATACOPY PUSH1 0x1F RETURNDATASIZE SWAP1 DUP2 ADD PUSH1 0x1F NOT AND DUP3 ADD PUSH1 0x40 MSTORE PUSH2 0x1499 SWAP2 SWAP1 DUP2 ADD SWAP1 PUSH2 0x20E3 JUMP JUMPDEST DUP3 PUSH1 0x9 DUP2 MLOAD DUP2 LT PUSH2 0x14AC JUMPI PUSH2 0x14AC PUSH2 0x2304 JUMP JUMPDEST PUSH1 0x20 SWAP1 DUP2 MUL SWAP2 SWAP1 SWAP2 ADD DUP2 ADD SWAP2 SWAP1 SWAP2 MSTORE PUSH1 0x1 SLOAD PUSH1 0x40 DUP1 MLOAD DUP1 DUP3 ADD DUP3 MSTORE PUSH1 0xC DUP2 MSTORE PUSH12 0x4C4F53455343454E4152494F PUSH1 0xA0 SHL SWAP4 DUP2 ADD SWAP4 SWAP1 SWAP4 MSTORE MLOAD PUSH4 0x22AD378F PUSH1 0xE2 SHL DUP2 MSTORE PUSH1 0x1 PUSH1 0x1 PUSH1 0xA0 SHL SUB SWAP1 SWAP2 AND SWAP2 PUSH4 0x8AB4DE3C SWAP2 PUSH2 0x150D SWAP2 DUP9 SWAP2 PUSH1 0x4 ADD PUSH2 0x231A JUMP JUMPDEST PUSH1 0x0 PUSH1 0x40 MLOAD DUP1 DUP4 SUB DUP2 DUP7 GAS STATICCALL ISZERO DUP1 ISZERO PUSH2 0x152A JUMPI RETURNDATASIZE PUSH1 0x0 DUP1 RETURNDATACOPY RETURNDATASIZE PUSH1 0x0 REVERT JUMPDEST POP POP POP POP PUSH1 0x40 MLOAD RETURNDATASIZE PUSH1 0x0 DUP3 RETURNDATACOPY PUSH1 0x1F RETURNDATASIZE SWAP1 DUP2 ADD PUSH1 0x1F NOT AND DUP3 ADD PUSH1 0x40 MSTORE PUSH2 0x1552 SWAP2 SWAP1 DUP2 ADD SWAP1 PUSH2 0x20E3 JUMP JUMPDEST DUP3 PUSH1 0xA DUP2 MLOAD DUP2 LT PUSH2 0x1565 JUMPI PUSH2 0x1565 PUSH2 0x2304 JUMP JUMPDEST PUSH1 0x20 SWAP1 DUP2 MUL SWAP2 SWAP1 SWAP2 ADD DUP2 ADD SWAP2 SWAP1 SWAP2 MSTORE PUSH1 0x1 SLOAD PUSH1 0x40 DUP1 MLOAD DUP1 DUP3 ADD DUP3 MSTORE PUSH1 0xE DUP2 MSTORE PUSH14 0x43414E43454C5343454E4152494F PUSH1 0x90 SHL SWAP4 DUP2 ADD SWAP4 SWAP1 SWAP4 MSTORE MLOAD PUSH4 0x22AD378F PUSH1 0xE2 SHL DUP2 MSTORE PUSH1 0x1 PUSH1 0x1 PUSH1 0xA0 SHL SUB SWAP1 SWAP2 AND SWAP2 PUSH4 0x8AB4DE3C SWAP2 PUSH2 0x15C8 SWAP2 DUP9 SWAP2 PUSH1 0x4 ADD PUSH2 0x231A JUMP JUMPDEST PUSH1 0x0 PUSH1 0x40 MLOAD DUP1 DUP4 SUB DUP2 DUP7 GAS STATICCALL ISZERO DUP1 ISZERO PUSH2 0x15E5 JUMPI RETURNDATASIZE PUSH1 0x0 DUP1 RETURNDATACOPY RETURNDATASIZE PUSH1 0x0 REVERT JUMPDEST POP POP POP POP PUSH1 0x40 MLOAD RETURNDATASIZE PUSH1 0x0 DUP3 RETURNDATACOPY PUSH1 0x1F RETURNDATASIZE SWAP1 DUP2 ADD PUSH1 0x1F NOT AND DUP3 ADD PUSH1 0x40 MSTORE PUSH2 0x160D SWAP2 SWAP1 DUP2 ADD SWAP1 PUSH2 0x20E3 JUMP JUMPDEST DUP3 PUSH1 0xB DUP2 MLOAD DUP2 LT PUSH2 0x1620 JUMPI PUSH2 0x1620 PUSH2 0x2304 JUMP JUMPDEST PUSH1 0x20 SWAP1 DUP2 MUL SWAP2 SWAP1 SWAP2 ADD DUP2 ADD SWAP2 SWAP1 SWAP2 MSTORE PUSH1 0x1 SLOAD PUSH1 0x40 DUP1 MLOAD DUP1 DUP3 ADD DUP3 MSTORE PUSH1 0x14 DUP2 MSTORE PUSH20 0x20A92124AA2920AA27A921A7A6A6A4A9A9A4A7A7 PUSH1 0x61 SHL SWAP4 DUP2 ADD SWAP4 SWAP1 SWAP4 MSTORE MLOAD PUSH4 0x22AD378F PUSH1 0xE2 SHL DUP2 MSTORE PUSH1 0x1 PUSH1 0x1 PUSH1 0xA0 SHL SUB SWAP1 SWAP2 AND SWAP2 PUSH4 0x8AB4DE3C SWAP2 PUSH2 0x1689 SWAP2 DUP9 SWAP2 PUSH1 0x4 ADD PUSH2 0x231A JUMP JUMPDEST PUSH1 0x0 PUSH1 0x40 MLOAD DUP1 DUP4 SUB DUP2 DUP7 GAS STATICCALL ISZERO DUP1 ISZERO PUSH2 0x16A6 JUMPI RETURNDATASIZE PUSH1 0x0 DUP1 RETURNDATACOPY RETURNDATASIZE PUSH1 0x0 REVERT JUMPDEST POP POP POP POP PUSH1 0x40 MLOAD RETURNDATASIZE PUSH1 0x0 DUP3 RETURNDATACOPY PUSH1 0x1F RETURNDATASIZE SWAP1 DUP2 ADD PUSH1 0x1F NOT AND DUP3 ADD PUSH1 0x40 MSTORE PUSH2 0x16CE SWAP2 SWAP1 DUP2 ADD SWAP1 PUSH2 0x20E3 JUMP JUMPDEST DUP3 PUSH1 0xC DUP2 MLOAD DUP2 LT PUSH2 0x16E1 JUMPI PUSH2 0x16E1 PUSH2 0x2304 JUMP JUMPDEST PUSH1 0x20 SWAP1 DUP2 MUL SWAP2 SWAP1 SWAP2 ADD DUP2 ADD SWAP2 SWAP1 SWAP2 MSTORE PUSH1 0x1 SLOAD PUSH1 0x40 DUP1 MLOAD DUP1 DUP3 ADD DUP3 MSTORE PUSH1 0x10 DUP2 MSTORE PUSH16 0x1091551051D0525394D5105353D55395 PUSH1 0x82 SHL SWAP4 DUP2 ADD SWAP4 SWAP1 SWAP4 MSTORE MLOAD PUSH4 0x22AD378F PUSH1 0xE2 SHL DUP2 MSTORE PUSH1 0x1 PUSH1 0x1 PUSH1 0xA0 SHL SUB SWAP1 SWAP2 AND SWAP2 PUSH4 0x8AB4DE3C SWAP2 PUSH2 0x1746 SWAP2 DUP9 SWAP2 PUSH1 0x4 ADD PUSH2 0x231A JUMP JUMPDEST PUSH1 0x0 PUSH1 0x40 MLOAD DUP1 DUP4 SUB DUP2 DUP7 GAS STATICCALL ISZERO DUP1 ISZERO PUSH2 0x1763 JUMPI RETURNDATASIZE PUSH1 0x0 DUP1 RETURNDATACOPY RETURNDATASIZE PUSH1 0x0 REVERT JUMPDEST POP POP POP POP PUSH1 0x40 MLOAD RETURNDATASIZE PUSH1 0x0 DUP3 RETURNDATACOPY PUSH1 0x1F RETURNDATASIZE SWAP1 DUP2 ADD PUSH1 0x1F NOT AND DUP3 ADD PUSH1 0x40 MSTORE PUSH2 0x178B SWAP2 SWAP1 DUP2 ADD SWAP1 PUSH2 0x20E3 JUMP JUMPDEST DUP3 PUSH1 0xD DUP2 MLOAD DUP2 LT PUSH2 0x179E JUMPI PUSH2 0x179E PUSH2 0x2304 JUMP JUMPDEST PUSH1 0x20 SWAP1 DUP2 MUL SWAP2 SWAP1 SWAP2 ADD DUP2 ADD SWAP2 SWAP1 SWAP2 MSTORE PUSH1 0x1 SLOAD PUSH1 0x40 DUP1 MLOAD DUP1 DUP3 ADD DUP3 MSTORE PUSH1 0x14 DUP2 MSTORE PUSH20 0x14D51052D154115490D153951491545552549151 PUSH1 0x62 SHL SWAP4 DUP2 ADD SWAP4 SWAP1 SWAP4 MSTORE MLOAD PUSH4 0x22AD378F PUSH1 0xE2 SHL DUP2 MSTORE PUSH1 0x1 PUSH1 0x1 PUSH1 0xA0 SHL SUB SWAP1 SWAP2 AND SWAP2 PUSH4 0x8AB4DE3C SWAP2 PUSH2 0x1807 SWAP2 DUP9 SWAP2 PUSH1 0x4 ADD PUSH2 0x231A JUMP JUMPDEST PUSH1 0x0 PUSH1 0x40 MLOAD DUP1 DUP4 SUB DUP2 DUP7 GAS STATICCALL ISZERO DUP1 ISZERO PUSH2 0x1824 JUMPI RETURNDATASIZE PUSH1 0x0 DUP1 RETURNDATACOPY RETURNDATASIZE PUSH1 0x0 REVERT JUMPDEST POP POP POP POP PUSH1 0x40 MLOAD RETURNDATASIZE PUSH1 0x0 DUP3 RETURNDATACOPY PUSH1 0x1F RETURNDATASIZE SWAP1 DUP2 ADD PUSH1 0x1F NOT AND DUP3 ADD PUSH1 0x40 MSTORE PUSH2 0x184C SWAP2 SWAP1 DUP2 ADD SWAP1 PUSH2 0x20E3 JUMP JUMPDEST DUP3 PUSH1 0xE DUP2 MLOAD DUP2 LT PUSH2 0x185F JUMPI PUSH2 0x185F PUSH2 0x2304 JUMP JUMPDEST PUSH1 0x20 SWAP1 DUP2 MUL SWAP2 SWAP1 SWAP2 ADD ADD MSTORE POP SWAP3 SWAP2 POP POP JUMP JUMPDEST PUSH1 0x0 SLOAD PUSH1 0x1 PUSH1 0x1 PUSH1 0xA0 SHL SUB AND CALLER EQ PUSH2 0x189B JUMPI PUSH1 0x40 MLOAD PUSH3 0x461BCD PUSH1 0xE5 SHL DUP2 MSTORE PUSH1 0x4 ADD PUSH2 0x47D SWAP1 PUSH2 0x2222 JUMP JUMPDEST PUSH1 0x1 PUSH1 0x1 PUSH1 0xA0 SHL SUB DUP2 AND PUSH2 0x1900 JUMPI PUSH1 0x40 MLOAD PUSH3 0x461BCD PUSH1 0xE5 SHL DUP2 MSTORE PUSH1 0x20 PUSH1 0x4 DUP3 ADD MSTORE PUSH1 0x26 PUSH1 0x24 DUP3 ADD MSTORE PUSH32 0x4F776E61626C653A206E6577206F776E657220697320746865207A65726F2061 PUSH1 0x44 DUP3 ADD MSTORE PUSH6 0x646472657373 PUSH1 0xD0 SHL PUSH1 0x64 DUP3 ADD MSTORE PUSH1 0x84 ADD PUSH2 0x47D JUMP JUMPDEST PUSH2 0x1909 DUP2 PUSH2 0x1ACC JUMP JUMPDEST POP JUMP JUMPDEST PUSH1 0x60 DUP2 PUSH1 0x0 SUB PUSH2 0x1933 JUMPI POP POP PUSH1 0x40 DUP1 MLOAD DUP1 DUP3 ADD SWAP1 SWAP2 MSTORE PUSH1 0x1 DUP2 MSTORE PUSH1 0x3 PUSH1 0xFC SHL PUSH1 0x20 DUP3 ADD MSTORE SWAP1 JUMP JUMPDEST DUP2 PUSH1 0x0 JUMPDEST DUP2 ISZERO PUSH2 0x195D JUMPI DUP1 PUSH2 0x1947 DUP2 PUSH2 0x2209 JUMP JUMPDEST SWAP2 POP PUSH2 0x1956 SWAP1 POP PUSH1 0xA DUP4 PUSH2 0x2591 JUMP JUMPDEST SWAP2 POP PUSH2 0x1937 JUMP JUMPDEST PUSH1 0x0 DUP2 PUSH8 0xFFFFFFFFFFFFFFFF DUP2 GT ISZERO PUSH2 0x1978 JUMPI PUSH2 0x1978 PUSH2 0x1EEB JUMP JUMPDEST PUSH1 0x40 MLOAD SWAP1 DUP1 DUP3 MSTORE DUP1 PUSH1 0x1F ADD PUSH1 0x1F NOT AND PUSH1 0x20 ADD DUP3 ADD PUSH1 0x40 MSTORE DUP1 ISZERO PUSH2 0x19A2 JUMPI PUSH1 0x20 DUP3 ADD DUP2 DUP1 CALLDATASIZE DUP4 CALLDATACOPY ADD SWAP1 POP JUMPDEST POP SWAP1 POP DUP2 JUMPDEST DUP6 ISZERO PUSH2 0x44A JUMPI PUSH2 0x19B8 PUSH1 0x1 DUP3 PUSH2 0x25A5 JUMP JUMPDEST SWAP1 POP PUSH1 0x0 PUSH2 0x19C7 PUSH1 0xA DUP9 PUSH2 0x2591 JUMP JUMPDEST PUSH2 0x19D2 SWAP1 PUSH1 0xA PUSH2 0x25B8 JUMP JUMPDEST PUSH2 0x19DC SWAP1 DUP9 PUSH2 0x25A5 JUMP JUMPDEST PUSH2 0x19E7 SWAP1 PUSH1 0x30 PUSH2 0x25CF JUMP JUMPDEST SWAP1 POP PUSH1 0x0 DUP2 PUSH1 0xF8 SHL SWAP1 POP DUP1 DUP5 DUP5 DUP2 MLOAD DUP2 LT PUSH2 0x1A04 JUMPI PUSH2 0x1A04 PUSH2 0x2304 JUMP JUMPDEST PUSH1 0x20 ADD ADD SWAP1 PUSH1 0x1 PUSH1 0x1 PUSH1 0xF8 SHL SUB NOT AND SWAP1 DUP2 PUSH1 0x0 BYTE SWAP1 MSTORE8 POP PUSH2 0x1A26 PUSH1 0xA DUP10 PUSH2 0x2591 JUMP JUMPDEST SWAP8 POP POP POP PUSH2 0x19A7 JUMP JUMPDEST PUSH1 0x0 SLOAD PUSH1 0x1 PUSH1 0xA0 SHL SWAP1 DIV PUSH1 0xFF AND PUSH2 0x1A7F JUMPI PUSH1 0x40 MLOAD PUSH3 0x461BCD PUSH1 0xE5 SHL DUP2 MSTORE PUSH1 0x20 PUSH1 0x4 DUP3 ADD MSTORE PUSH1 0x14 PUSH1 0x24 DUP3 ADD MSTORE PUSH20 0x14185D5CD8589B194E881B9BDD081C185D5CD959 PUSH1 0x62 SHL PUSH1 0x44 DUP3 ADD MSTORE PUSH1 0x64 ADD PUSH2 0x47D JUMP JUMPDEST PUSH1 0x0 DUP1 SLOAD PUSH1 0xFF PUSH1 0xA0 SHL NOT AND SWAP1 SSTORE PUSH32 0x5DB9EE0A495BF2E6FF9C91A7834C1BA4FDD244A5E8AA4E537BD38AEAE4B073AA CALLER JUMPDEST PUSH1 0x40 MLOAD PUSH1 0x1 PUSH1 0x1 PUSH1 0xA0 SHL SUB SWAP1 SWAP2 AND DUP2 MSTORE PUSH1 0x20 ADD PUSH1 0x40 MLOAD DUP1 SWAP2 SUB SWAP1 LOG1 JUMP JUMPDEST PUSH1 0x0 DUP1 SLOAD PUSH1 0x1 PUSH1 0x1 PUSH1 0xA0 SHL SUB DUP4 DUP2 AND PUSH1 0x1 PUSH1 0x1 PUSH1 0xA0 SHL SUB NOT DUP4 AND DUP2 OR DUP5 SSTORE PUSH1 0x40 MLOAD SWAP2 SWAP1 SWAP3 AND SWAP3 DUP4 SWAP2 PUSH32 0x8BE0079C531659141344CD1FD0A4F28419497F9722A3DAAFE3B4186F6B6457E0 SWAP2 SWAP1 LOG3 POP POP JUMP JUMPDEST PUSH1 0x0 SLOAD PUSH1 0x1 PUSH1 0xA0 SHL SWAP1 DIV PUSH1 0xFF AND ISZERO PUSH2 0x1B69 JUMPI PUSH1 0x40 MLOAD PUSH3 0x461BCD PUSH1 0xE5 SHL DUP2 MSTORE PUSH1 0x20 PUSH1 0x4 DUP3 ADD MSTORE PUSH1 0x10 PUSH1 0x24 DUP3 ADD MSTORE PUSH16 0x14185D5CD8589B194E881C185D5CD959 PUSH1 0x82 SHL PUSH1 0x44 DUP3 ADD MSTORE PUSH1 0x64 ADD PUSH2 0x47D JUMP JUMPDEST PUSH1 0x0 DUP1 SLOAD PUSH1 0xFF PUSH1 0xA0 SHL NOT AND PUSH1 0x1 PUSH1 0xA0 SHL OR SWAP1 SSTORE PUSH32 0x62E78CEA01BEE320CD4E420270B5EA74000D11B0C9F74754EBDBFC544B05A258 PUSH2 0x1AAF CALLER SWAP1 JUMP JUMPDEST PUSH1 0x0 DUP1 DUP1 PUSH2 0x1BBD PUSH2 0x1BB8 PUSH3 0x15180 DUP7 PUSH2 0x2591 JUMP JUMPDEST PUSH2 0x1BCA JUMP JUMPDEST SWAP2 SWAP7 SWAP1 SWAP6 POP SWAP1 SWAP4 POP SWAP2 POP POP JUMP JUMPDEST PUSH1 0x0 DUP1 DUP1 DUP4 DUP2 PUSH3 0x253D8C PUSH2 0x1BE1 DUP4 PUSH3 0x10BD9 PUSH2 0x25E8 JUMP JUMPDEST PUSH2 0x1BEB SWAP2 SWAP1 PUSH2 0x25E8 JUMP JUMPDEST SWAP1 POP PUSH1 0x0 PUSH3 0x23AB1 PUSH2 0x1BFE DUP4 PUSH1 0x4 PUSH2 0x2610 JUMP JUMPDEST PUSH2 0x1C08 SWAP2 SWAP1 PUSH2 0x2640 JUMP JUMPDEST SWAP1 POP PUSH1 0x4 PUSH2 0x1C19 DUP3 PUSH3 0x23AB1 PUSH2 0x2610 JUMP JUMPDEST PUSH2 0x1C24 SWAP1 PUSH1 0x3 PUSH2 0x25E8 JUMP JUMPDEST PUSH2 0x1C2E SWAP2 SWAP1 PUSH2 0x2640 JUMP JUMPDEST PUSH2 0x1C38 SWAP1 DUP4 PUSH2 0x266E JUMP JUMPDEST SWAP2 POP PUSH1 0x0 PUSH3 0x164B09 PUSH2 0x1C4B DUP5 PUSH1 0x1 PUSH2 0x25E8 JUMP JUMPDEST PUSH2 0x1C57 SWAP1 PUSH2 0xFA0 PUSH2 0x2610 JUMP JUMPDEST PUSH2 0x1C61 SWAP2 SWAP1 PUSH2 0x2640 JUMP JUMPDEST SWAP1 POP PUSH1 0x4 PUSH2 0x1C71 DUP3 PUSH2 0x5B5 PUSH2 0x2610 JUMP JUMPDEST PUSH2 0x1C7B SWAP2 SWAP1 PUSH2 0x2640 JUMP JUMPDEST PUSH2 0x1C85 SWAP1 DUP5 PUSH2 0x266E JUMP JUMPDEST PUSH2 0x1C90 SWAP1 PUSH1 0x1F PUSH2 0x25E8 JUMP JUMPDEST SWAP3 POP PUSH1 0x0 PUSH2 0x98F PUSH2 0x1CA2 DUP6 PUSH1 0x50 PUSH2 0x2610 JUMP JUMPDEST PUSH2 0x1CAC SWAP2 SWAP1 PUSH2 0x2640 JUMP JUMPDEST SWAP1 POP PUSH1 0x0 PUSH1 0x50 PUSH2 0x1CBE DUP4 PUSH2 0x98F PUSH2 0x2610 JUMP JUMPDEST PUSH2 0x1CC8 SWAP2 SWAP1 PUSH2 0x2640 JUMP JUMPDEST PUSH2 0x1CD2 SWAP1 DUP7 PUSH2 0x266E JUMP JUMPDEST SWAP1 POP PUSH2 0x1CDF PUSH1 0xB DUP4 PUSH2 0x2640 JUMP JUMPDEST SWAP5 POP PUSH2 0x1CEC DUP6 PUSH1 0xC PUSH2 0x2610 JUMP JUMPDEST PUSH2 0x1CF7 DUP4 PUSH1 0x2 PUSH2 0x25E8 JUMP JUMPDEST PUSH2 0x1D01 SWAP2 SWAP1 PUSH2 0x266E JUMP JUMPDEST SWAP2 POP DUP5 DUP4 PUSH2 0x1D10 PUSH1 0x31 DUP8 PUSH2 0x266E JUMP JUMPDEST PUSH2 0x1D1B SWAP1 PUSH1 0x64 PUSH2 0x2610 JUMP JUMPDEST PUSH2 0x1D25 SWAP2 SWAP1 PUSH2 0x25E8 JUMP JUMPDEST PUSH2 0x1D2F SWAP2 SWAP1 PUSH2 0x25E8 JUMP JUMPDEST SWAP11 SWAP2 SWAP10 POP SWAP8 POP SWAP6 POP POP POP POP POP POP JUMP JUMPDEST PUSH2 0xFFFF DUP2 AND DUP2 EQ PUSH2 0x1909 JUMPI PUSH1 0x0 DUP1 REVERT JUMPDEST PUSH1 0x0 DUP1 PUSH1 0x0 PUSH1 0x60 DUP5 DUP7 SUB SLT ISZERO PUSH2 0x1D63 JUMPI PUSH1 0x0 DUP1 REVERT JUMPDEST DUP4 CALLDATALOAD PUSH2 0x1D6E DUP2 PUSH2 0x1D3E JUMP JUMPDEST SWAP3 POP PUSH1 0x20 DUP5 ADD CALLDATALOAD PUSH2 0x1D7E DUP2 PUSH2 0x1D3E JUMP JUMPDEST SWAP2 POP PUSH1 0x40 DUP5 ADD CALLDATALOAD PUSH2 0x1D8E DUP2 PUSH2 0x1D3E JUMP JUMPDEST DUP1 SWAP2 POP POP SWAP3 POP SWAP3 POP SWAP3 JUMP JUMPDEST PUSH1 0x0 JUMPDEST DUP4 DUP2 LT ISZERO PUSH2 0x1DB4 JUMPI DUP2 DUP2 ADD MLOAD DUP4 DUP3 ADD MSTORE PUSH1 0x20 ADD PUSH2 0x1D9C JUMP JUMPDEST POP POP PUSH1 0x0 SWAP2 ADD MSTORE JUMP JUMPDEST PUSH1 0x0 DUP2 MLOAD DUP1 DUP5 MSTORE PUSH2 0x1DD5 DUP2 PUSH1 0x20 DUP7 ADD PUSH1 0x20 DUP7 ADD PUSH2 0x1D99 JUMP JUMPDEST PUSH1 0x1F ADD PUSH1 0x1F NOT AND SWAP3 SWAP1 SWAP3 ADD PUSH1 0x20 ADD SWAP3 SWAP2 POP POP JUMP JUMPDEST PUSH1 0x20 DUP2 MSTORE PUSH1 0x0 PUSH2 0x1DFC PUSH1 0x20 DUP4 ADD DUP5 PUSH2 0x1DBD JUMP JUMPDEST SWAP4 SWAP3 POP POP POP JUMP JUMPDEST PUSH1 0x0 DUP1 PUSH1 0x40 DUP4 DUP6 SUB SLT ISZERO PUSH2 0x1E16 JUMPI PUSH1 0x0 DUP1 REVERT JUMPDEST POP POP DUP1 CALLDATALOAD SWAP3 PUSH1 0x20 SWAP1 SWAP2 ADD CALLDATALOAD SWAP2 POP JUMP JUMPDEST PUSH1 0x0 PUSH1 0x20 DUP3 DUP5 SUB SLT ISZERO PUSH2 0x1E37 JUMPI PUSH1 0x0 DUP1 REVERT JUMPDEST POP CALLDATALOAD SWAP2 SWAP1 POP JUMP JUMPDEST PUSH1 0x0 PUSH1 0x20 DUP1 DUP4 ADD DUP2 DUP5 MSTORE DUP1 DUP6 MLOAD DUP1 DUP4 MSTORE PUSH1 0x40 DUP7 ADD SWAP2 POP PUSH1 0x40 DUP2 PUSH1 0x5 SHL DUP8 ADD ADD SWAP3 POP DUP4 DUP8 ADD PUSH1 0x0 JUMPDEST DUP3 DUP2 LT ISZERO PUSH2 0x1E93 JUMPI PUSH1 0x3F NOT DUP9 DUP7 SUB ADD DUP5 MSTORE PUSH2 0x1E81 DUP6 DUP4 MLOAD PUSH2 0x1DBD JUMP JUMPDEST SWAP5 POP SWAP3 DUP6 ADD SWAP3 SWAP1 DUP6 ADD SWAP1 PUSH1 0x1 ADD PUSH2 0x1E65 JUMP JUMPDEST POP SWAP3 SWAP8 SWAP7 POP POP POP POP POP POP POP JUMP JUMPDEST PUSH1 0x1 PUSH1 0x1 PUSH1 0xA0 SHL SUB DUP2 AND DUP2 EQ PUSH2 0x1909 JUMPI PUSH1 0x0 DUP1 REVERT JUMPDEST PUSH1 0x0 PUSH1 0x20 DUP3 DUP5 SUB SLT ISZERO PUSH2 0x1EC7 JUMPI PUSH1 0x0 DUP1 REVERT JUMPDEST DUP2 CALLDATALOAD PUSH2 0x1DFC DUP2 PUSH2 0x1EA0 JUMP JUMPDEST PUSH1 0x0 PUSH1 0x20 DUP3 DUP5 SUB SLT ISZERO PUSH2 0x1EE4 JUMPI PUSH1 0x0 DUP1 REVERT JUMPDEST POP MLOAD SWAP2 SWAP1 POP JUMP JUMPDEST PUSH4 0x4E487B71 PUSH1 0xE0 SHL PUSH1 0x0 MSTORE PUSH1 0x41 PUSH1 0x4 MSTORE PUSH1 0x24 PUSH1 0x0 REVERT JUMPDEST PUSH1 0x40 MLOAD PUSH2 0x140 DUP2 ADD PUSH8 0xFFFFFFFFFFFFFFFF DUP2 GT DUP3 DUP3 LT OR ISZERO PUSH2 0x1F25 JUMPI PUSH2 0x1F25 PUSH2 0x1EEB JUMP JUMPDEST PUSH1 0x40 MSTORE SWAP1 JUMP JUMPDEST PUSH1 0x40 MLOAD PUSH1 0x1F DUP3 ADD PUSH1 0x1F NOT AND DUP2 ADD PUSH8 0xFFFFFFFFFFFFFFFF DUP2 GT DUP3 DUP3 LT OR ISZERO PUSH2 0x1F54 JUMPI PUSH2 0x1F54 PUSH2 0x1EEB JUMP JUMPDEST PUSH1 0x40 MSTORE SWAP2 SWAP1 POP JUMP JUMPDEST DUP1 MLOAD PUSH2 0x1F67 DUP2 PUSH2 0x1D3E JUMP JUMPDEST SWAP2 SWAP1 POP JUMP JUMPDEST DUP1 MLOAD PUSH2 0x1F67 DUP2 PUSH2 0x1EA0 JUMP JUMPDEST PUSH1 0x0 DUP3 PUSH1 0x1F DUP4 ADD SLT PUSH2 0x1F88 JUMPI PUSH1 0x0 DUP1 REVERT JUMPDEST DUP2 MLOAD PUSH8 0xFFFFFFFFFFFFFFFF DUP2 GT ISZERO PUSH2 0x1FA2 JUMPI PUSH2 0x1FA2 PUSH2 0x1EEB JUMP JUMPDEST PUSH2 0x1FB5 PUSH1 0x1F DUP3 ADD PUSH1 0x1F NOT AND PUSH1 0x20 ADD PUSH2 0x1F2B JUMP JUMPDEST DUP2 DUP2 MSTORE DUP5 PUSH1 0x20 DUP4 DUP7 ADD ADD GT ISZERO PUSH2 0x1FCA JUMPI PUSH1 0x0 DUP1 REVERT JUMPDEST PUSH2 0x1FDB DUP3 PUSH1 0x20 DUP4 ADD PUSH1 0x20 DUP8 ADD PUSH2 0x1D99 JUMP JUMPDEST SWAP5 SWAP4 POP POP POP POP JUMP JUMPDEST DUP1 MLOAD PUSH1 0xFF DUP2 AND DUP2 EQ PUSH2 0x1F67 JUMPI PUSH1 0x0 DUP1 REVERT JUMPDEST PUSH1 0x0 PUSH1 0x20 DUP3 DUP5 SUB SLT ISZERO PUSH2 0x2006 JUMPI PUSH1 0x0 DUP1 REVERT JUMPDEST DUP2 MLOAD PUSH8 0xFFFFFFFFFFFFFFFF DUP1 DUP3 GT ISZERO PUSH2 0x201E JUMPI PUSH1 0x0 DUP1 REVERT JUMPDEST SWAP1 DUP4 ADD SWAP1 PUSH2 0x140 DUP3 DUP7 SUB SLT ISZERO PUSH2 0x2033 JUMPI PUSH1 0x0 DUP1 REVERT JUMPDEST PUSH2 0x203B PUSH2 0x1F01 JUMP JUMPDEST PUSH2 0x2044 DUP4 PUSH2 0x1F5C JUMP JUMPDEST DUP2 MSTORE PUSH1 0x20 DUP4 ADD MLOAD PUSH1 0x20 DUP3 ADD MSTORE PUSH2 0x205C PUSH1 0x40 DUP5 ADD PUSH2 0x1F6C JUMP JUMPDEST PUSH1 0x40 DUP3 ADD MSTORE PUSH1 0x60 DUP4 ADD MLOAD DUP3 DUP2 GT ISZERO PUSH2 0x2073 JUMPI PUSH1 0x0 DUP1 REVERT JUMPDEST PUSH2 0x207F DUP8 DUP3 DUP7 ADD PUSH2 0x1F77 JUMP JUMPDEST PUSH1 0x60 DUP4 ADD MSTORE POP PUSH1 0x80 DUP4 ADD MLOAD PUSH1 0x80 DUP3 ADD MSTORE PUSH2 0x209B PUSH1 0xA0 DUP5 ADD PUSH2 0x1FE3 JUMP JUMPDEST PUSH1 0xA0 DUP3 ADD MSTORE PUSH2 0x20AC PUSH1 0xC0 DUP5 ADD PUSH2 0x1FE3 JUMP JUMPDEST PUSH1 0xC0 DUP3 ADD MSTORE PUSH2 0x20BD PUSH1 0xE0 DUP5 ADD PUSH2 0x1FE3 JUMP JUMPDEST PUSH1 0xE0 DUP3 ADD MSTORE PUSH2 0x100 DUP4 DUP2 ADD MLOAD SWAP1 DUP3 ADD MSTORE PUSH2 0x120 SWAP3 DUP4 ADD MLOAD SWAP3 DUP2 ADD SWAP3 SWAP1 SWAP3 MSTORE POP SWAP4 SWAP3 POP POP POP JUMP JUMPDEST PUSH1 0x0 PUSH1 0x20 DUP3 DUP5 SUB SLT ISZERO PUSH2 0x20F5 JUMPI PUSH1 0x0 DUP1 REVERT JUMPDEST DUP2 MLOAD PUSH8 0xFFFFFFFFFFFFFFFF DUP2 GT ISZERO PUSH2 0x210C JUMPI PUSH1 0x0 DUP1 REVERT JUMPDEST PUSH2 0x1FDB DUP5 DUP3 DUP6 ADD PUSH2 0x1F77 JUMP JUMPDEST PUSH1 0x1 DUP2 MSTORE PUSH1 0xB PUSH1 0xFA SHL PUSH1 0x20 DUP3 ADD MSTORE PUSH1 0x40 ADD SWAP1 JUMP JUMPDEST PUSH1 0x0 PUSH2 0x120 DUP1 DUP4 MSTORE PUSH2 0x2140 DUP2 DUP5 ADD DUP10 PUSH2 0x1DBD JUMP JUMPDEST SWAP1 POP DUP3 DUP2 SUB PUSH1 0x20 DUP5 ADD MSTORE PUSH2 0x2154 DUP2 DUP9 PUSH2 0x1DBD JUMP JUMPDEST SWAP1 POP DUP3 DUP2 SUB PUSH1 0x40 DUP5 ADD MSTORE PUSH2 0x2167 DUP2 PUSH2 0x2118 JUMP JUMPDEST SWAP1 POP DUP3 DUP2 SUB PUSH1 0x60 DUP5 ADD MSTORE PUSH2 0x217B DUP2 DUP8 PUSH2 0x1DBD JUMP JUMPDEST SWAP1 POP DUP3 DUP2 SUB PUSH1 0x80 DUP5 ADD MSTORE PUSH2 0x218E DUP2 PUSH2 0x2118 JUMP JUMPDEST SWAP1 POP DUP3 DUP2 SUB PUSH1 0xA0 DUP5 ADD MSTORE PUSH2 0x21A2 DUP2 DUP7 PUSH2 0x1DBD JUMP JUMPDEST SWAP1 POP DUP3 DUP2 SUB PUSH1 0xC0 DUP5 ADD MSTORE PUSH2 0x21B5 DUP2 PUSH2 0x2118 JUMP JUMPDEST SWAP1 POP DUP3 DUP2 SUB PUSH1 0xE0 DUP5 ADD MSTORE PUSH2 0x21C9 DUP2 DUP6 PUSH2 0x1DBD JUMP JUMPDEST DUP4 DUP2 SUB PUSH2 0x100 DUP6 ADD MSTORE PUSH1 0x1 DUP2 MSTORE PUSH1 0x1F PUSH1 0xFA SHL PUSH1 0x20 DUP3 ADD MSTORE SWAP1 POP PUSH1 0x40 DUP2 ADD JUMPDEST SWAP9 SWAP8 POP POP POP POP POP POP POP POP JUMP JUMPDEST PUSH4 0x4E487B71 PUSH1 0xE0 SHL PUSH1 0x0 MSTORE PUSH1 0x11 PUSH1 0x4 MSTORE PUSH1 0x24 PUSH1 0x0 REVERT JUMPDEST PUSH1 0x0 PUSH1 0x1 DUP3 ADD PUSH2 0x221B JUMPI PUSH2 0x221B PUSH2 0x21F3 JUMP JUMPDEST POP PUSH1 0x1 ADD SWAP1 JUMP JUMPDEST PUSH1 0x20 DUP1 DUP3 MSTORE DUP2 DUP2 ADD MSTORE PUSH32 0x4F776E61626C653A2063616C6C6572206973206E6F7420746865206F776E6572 PUSH1 0x40 DUP3 ADD MSTORE PUSH1 0x60 ADD SWAP1 JUMP JUMPDEST DUP1 DUP3 ADD DUP1 DUP3 GT ISZERO PUSH2 0x816 JUMPI PUSH2 0x816 PUSH2 0x21F3 JUMP JUMPDEST PUSH1 0x0 PUSH1 0x20 DUP1 DUP4 DUP6 SUB SLT ISZERO PUSH2 0x227D JUMPI PUSH1 0x0 DUP1 REVERT JUMPDEST DUP3 MLOAD PUSH8 0xFFFFFFFFFFFFFFFF DUP1 DUP3 GT ISZERO PUSH2 0x2295 JUMPI PUSH1 0x0 DUP1 REVERT JUMPDEST DUP2 DUP6 ADD SWAP2 POP DUP6 PUSH1 0x1F DUP4 ADD SLT PUSH2 0x22A9 JUMPI PUSH1 0x0 DUP1 REVERT JUMPDEST DUP2 MLOAD DUP2 DUP2 GT ISZERO PUSH2 0x22BB JUMPI PUSH2 0x22BB PUSH2 0x1EEB JUMP JUMPDEST DUP1 PUSH1 0x5 SHL SWAP2 POP PUSH2 0x22CC DUP5 DUP4 ADD PUSH2 0x1F2B JUMP JUMPDEST DUP2 DUP2 MSTORE SWAP2 DUP4 ADD DUP5 ADD SWAP2 DUP5 DUP2 ADD SWAP1 DUP9 DUP5 GT ISZERO PUSH2 0x22E6 JUMPI PUSH1 0x0 DUP1 REVERT JUMPDEST SWAP4 DUP6 ADD SWAP4 JUMPDEST DUP4 DUP6 LT ISZERO PUSH2 0x21E7 JUMPI DUP5 MLOAD DUP3 MSTORE SWAP4 DUP6 ADD SWAP4 SWAP1 DUP6 ADD SWAP1 PUSH2 0x22EB JUMP JUMPDEST PUSH4 0x4E487B71 PUSH1 0xE0 SHL PUSH1 0x0 MSTORE PUSH1 0x32 PUSH1 0x4 MSTORE PUSH1 0x24 PUSH1 0x0 REVERT JUMPDEST DUP3 DUP2 MSTORE PUSH1 0x40 PUSH1 0x20 DUP3 ADD MSTORE PUSH1 0x0 PUSH2 0x1FDB PUSH1 0x40 DUP4 ADD DUP5 PUSH2 0x1DBD JUMP JUMPDEST PUSH1 0x40 DUP2 MSTORE PUSH1 0x0 PUSH2 0x2346 PUSH1 0x40 DUP4 ADD DUP6 PUSH2 0x1DBD JUMP JUMPDEST DUP3 DUP2 SUB PUSH1 0x20 DUP5 ADD MSTORE PUSH2 0x2358 DUP2 DUP6 PUSH2 0x1DBD JUMP JUMPDEST SWAP6 SWAP5 POP POP POP POP POP JUMP JUMPDEST PUSH1 0x0 PUSH1 0x20 DUP3 DUP5 SUB SLT ISZERO PUSH2 0x2373 JUMPI PUSH1 0x0 DUP1 REVERT JUMPDEST DUP2 MLOAD DUP1 ISZERO ISZERO DUP2 EQ PUSH2 0x1DFC JUMPI PUSH1 0x0 DUP1 REVERT JUMPDEST PUSH1 0x0 PUSH2 0x120 DUP1 DUP4 MSTORE PUSH2 0x2397 DUP2 DUP5 ADD DUP10 PUSH2 0x1DBD JUMP JUMPDEST SWAP1 POP DUP3 DUP2 SUB PUSH1 0x20 DUP5 ADD MSTORE PUSH2 0x23AB DUP2 DUP9 PUSH2 0x1DBD JUMP JUMPDEST SWAP1 POP DUP3 DUP2 SUB PUSH1 0x40 DUP5 ADD MSTORE PUSH2 0x23BE DUP2 PUSH2 0x2118 JUMP JUMPDEST SWAP1 POP DUP3 DUP2 SUB PUSH1 0x60 DUP5 ADD MSTORE PUSH2 0x23D2 DUP2 DUP8 PUSH2 0x1DBD JUMP JUMPDEST SWAP1 POP DUP3 DUP2 SUB PUSH1 0x80 DUP5 ADD MSTORE PUSH2 0x23E5 DUP2 PUSH2 0x2118 JUMP JUMPDEST SWAP1 POP DUP3 DUP2 SUB PUSH1 0xA0 DUP5 ADD MSTORE PUSH2 0x23F9 DUP2 DUP7 PUSH2 0x1DBD JUMP JUMPDEST SWAP1 POP DUP3 DUP2 SUB DUP1 PUSH1 0xC0 DUP6 ADD MSTORE PUSH1 0x3 DUP3 MSTORE PUSH3 0xB0C4B PUSH1 0xEA SHL PUSH1 0x20 DUP4 ADD MSTORE PUSH1 0x40 DUP2 ADD PUSH1 0xE0 DUP6 ADD MSTORE POP PUSH2 0x21C9 PUSH1 0x40 DUP3 ADD DUP6 PUSH2 0x1DBD JUMP JUMPDEST PUSH1 0x0 PUSH2 0x120 DUP1 DUP4 MSTORE PUSH2 0x243F DUP2 DUP5 ADD DUP10 PUSH2 0x1DBD JUMP JUMPDEST SWAP1 POP DUP3 DUP2 SUB PUSH1 0x20 DUP5 ADD MSTORE PUSH2 0x2453 DUP2 DUP9 PUSH2 0x1DBD JUMP JUMPDEST SWAP1 POP DUP3 DUP2 SUB PUSH1 0x40 DUP5 ADD MSTORE PUSH2 0x2466 DUP2 PUSH2 0x2118 JUMP JUMPDEST SWAP1 POP DUP3 DUP2 SUB PUSH1 0x60 DUP5 ADD MSTORE PUSH2 0x247A DUP2 DUP8 PUSH2 0x1DBD JUMP JUMPDEST SWAP1 POP DUP3 DUP2 SUB PUSH1 0x80 DUP5 ADD MSTORE PUSH2 0x248D DUP2 PUSH2 0x2118 JUMP JUMPDEST SWAP1 POP DUP3 DUP2 SUB PUSH1 0xA0 DUP5 ADD MSTORE PUSH2 0x24A1 DUP2 DUP7 PUSH2 0x1DBD JUMP JUMPDEST SWAP1 POP DUP3 DUP2 SUB DUP1 PUSH1 0xC0 DUP6 ADD MSTORE PUSH1 0x3 DUP3 MSTORE PUSH3 0xB0C8B PUSH1 0xEA SHL PUSH1 0x20 DUP4 ADD MSTORE PUSH1 0x40 DUP2 ADD PUSH1 0xE0 DUP6 ADD MSTORE POP PUSH2 0x21C9 PUSH1 0x40 DUP3 ADD DUP6 PUSH2 0x1DBD JUMP JUMPDEST PUSH1 0x0 PUSH2 0x120 DUP1 DUP4 MSTORE PUSH2 0x24E7 DUP2 DUP5 ADD DUP10 PUSH2 0x1DBD JUMP JUMPDEST SWAP1 POP DUP3 DUP2 SUB PUSH1 0x20 DUP5 ADD MSTORE PUSH2 0x24FB DUP2 DUP9 PUSH2 0x1DBD JUMP JUMPDEST SWAP1 POP DUP3 DUP2 SUB PUSH1 0x40 DUP5 ADD MSTORE PUSH2 0x250E DUP2 PUSH2 0x2118 JUMP JUMPDEST SWAP1 POP DUP3 DUP2 SUB PUSH1 0x60 DUP5 ADD MSTORE PUSH2 0x2522 DUP2 DUP8 PUSH2 0x1DBD JUMP JUMPDEST SWAP1 POP DUP3 DUP2 SUB PUSH1 0x80 DUP5 ADD MSTORE PUSH2 0x2535 DUP2 PUSH2 0x2118 JUMP JUMPDEST SWAP1 POP DUP3 DUP2 SUB PUSH1 0xA0 DUP5 ADD MSTORE PUSH2 0x2549 DUP2 DUP7 PUSH2 0x1DBD JUMP JUMPDEST SWAP1 POP DUP3 DUP2 SUB DUP1 PUSH1 0xC0 DUP6 ADD MSTORE PUSH1 0x3 DUP3 MSTORE PUSH3 0xB0D0B PUSH1 0xEA SHL PUSH1 0x20 DUP4 ADD MSTORE PUSH1 0x40 DUP2 ADD PUSH1 0xE0 DUP6 ADD MSTORE POP PUSH2 0x21C9 PUSH1 0x40 DUP3 ADD DUP6 PUSH2 0x1DBD JUMP JUMPDEST PUSH4 0x4E487B71 PUSH1 0xE0 SHL PUSH1 0x0 MSTORE PUSH1 0x12 PUSH1 0x4 MSTORE PUSH1 0x24 PUSH1 0x0 REVERT JUMPDEST PUSH1 0x0 DUP3 PUSH2 0x25A0 JUMPI PUSH2 0x25A0 PUSH2 0x257B JUMP JUMPDEST POP DIV SWAP1 JUMP JUMPDEST DUP2 DUP2 SUB DUP2 DUP2 GT ISZERO PUSH2 0x816 JUMPI PUSH2 0x816 PUSH2 0x21F3 JUMP JUMPDEST DUP1 DUP3 MUL DUP2 ISZERO DUP3 DUP3 DIV DUP5 EQ OR PUSH2 0x816 JUMPI PUSH2 0x816 PUSH2 0x21F3 JUMP JUMPDEST PUSH1 0xFF DUP2 DUP2 AND DUP4 DUP3 AND ADD SWAP1 DUP2 GT ISZERO PUSH2 0x816 JUMPI PUSH2 0x816 PUSH2 0x21F3 JUMP JUMPDEST DUP1 DUP3 ADD DUP3 DUP2 SLT PUSH1 0x0 DUP4 SLT DUP1 ISZERO DUP3 AND DUP3 ISZERO DUP3 AND OR ISZERO PUSH2 0x2608 JUMPI PUSH2 0x2608 PUSH2 0x21F3 JUMP JUMPDEST POP POP SWAP3 SWAP2 POP POP JUMP JUMPDEST DUP1 DUP3 MUL PUSH1 0x0 DUP3 SLT PUSH1 0x1 PUSH1 0xFF SHL DUP5 EQ AND ISZERO PUSH2 0x262C JUMPI PUSH2 0x262C PUSH2 0x21F3 JUMP JUMPDEST DUP2 DUP2 SDIV DUP4 EQ DUP3 ISZERO OR PUSH2 0x816 JUMPI PUSH2 0x816 PUSH2 0x21F3 JUMP JUMPDEST PUSH1 0x0 DUP3 PUSH2 0x264F JUMPI PUSH2 0x264F PUSH2 0x257B JUMP JUMPDEST PUSH1 0x1 PUSH1 0xFF SHL DUP3 EQ PUSH1 0x0 NOT DUP5 EQ AND ISZERO PUSH2 0x2669 JUMPI PUSH2 0x2669 PUSH2 0x21F3 JUMP JUMPDEST POP SDIV SWAP1 JUMP JUMPDEST DUP2 DUP2 SUB PUSH1 0x0 DUP4 SLT DUP1 ISZERO DUP4 DUP4 SGT AND DUP4 DUP4 SLT DUP3 AND OR ISZERO PUSH2 0x1034 JUMPI PUSH2 0x1034 PUSH2 0x21F3 JUMP INVALID LOG2 PUSH5 0x6970667358 0x22 SLT KECCAK256 0x2F 0xCA 0xEE 0xA5 0xD7 0xB2 SWAP3 BASEFEE 0xB9 0xD6 PUSH26 0xE722073A0ABFA45F931002ACEEA07D06FDFF654C1164736F6C63 NUMBER STOP ADDMOD GT STOP CALLER "
		},
		"gasEstimates": {
			"creation": {
				"codeDepositCost": "1984800",
				"executionCost": "infinite",
				"totalCost": "infinite"
			},
			"external": {
				"getBetDetails(bytes32)": "infinite",
				"getMyBets()": "infinite",
				"getOpenBets(uint16,uint16,uint16)": "infinite",
				"getOpenBetsWithTimeStamp(uint256,uint256)": "infinite",
				"owner()": "2323",
				"pause()": "29868",
				"paused()": "2354",
				"renounceOwnership()": "28181",
				"transferOwnership(address)": "infinite",
				"unpause()": "29773"
			}
		},
		"methodIdentifiers": {
			"getBetDetails(bytes32)": "9c11180d",
			"getMyBets()": "99535bd7",
			"getOpenBets(uint16,uint16,uint16)": "19275d79",
			"getOpenBetsWithTimeStamp(uint256,uint256)": "8bcbc129",
			"owner()": "8da5cb5b",
			"pause()": "8456cb59",
			"paused()": "5c975abb",
			"renounceOwnership()": "715018a6",
			"transferOwnership(address)": "f2fde38b",
			"unpause()": "3f4ba83a"
		}
	},
	"abi": [
		{
			"inputs": [
				{
					"internalType": "address",
					"name": "sureBetDataContract",
					"type": "address"
				}
			],
			"stateMutability": "nonpayable",
			"type": "constructor"
		},
		{
			"anonymous": false,
			"inputs": [
				{
					"indexed": true,
					"internalType": "address",
					"name": "previousOwner",
					"type": "address"
				},
				{
					"indexed": true,
					"internalType": "address",
					"name": "newOwner",
					"type": "address"
				}
			],
			"name": "OwnershipTransferred",
			"type": "event"
		},
		{
			"anonymous": false,
			"inputs": [
				{
					"indexed": false,
					"internalType": "address",
					"name": "account",
					"type": "address"
				}
			],
			"name": "Paused",
			"type": "event"
		},
		{
			"anonymous": false,
			"inputs": [
				{
					"indexed": false,
					"internalType": "address",
					"name": "account",
					"type": "address"
				}
			],
			"name": "Unpaused",
			"type": "event"
		},
		{
			"inputs": [
				{
					"internalType": "bytes32",
					"name": "betKey",
					"type": "bytes32"
				}
			],
			"name": "getBetDetails",
			"outputs": [
				{
					"internalType": "string[]",
					"name": "",
					"type": "string[]"
				}
			],
			"stateMutability": "view",
			"type": "function"
		},
		{
			"inputs": [],
			"name": "getMyBets",
			"outputs": [
				{
					"internalType": "string",
					"name": "",
					"type": "string"
				}
			],
			"stateMutability": "view",
			"type": "function"
		},
		{
			"inputs": [
				{
					"internalType": "uint16",
					"name": "year",
					"type": "uint16"
				},
				{
					"internalType": "uint16",
					"name": "month",
					"type": "uint16"
				},
				{
					"internalType": "uint16",
					"name": "day",
					"type": "uint16"
				}
			],
			"name": "getOpenBets",
			"outputs": [
				{
					"internalType": "string",
					"name": "",
					"type": "string"
				}
			],
			"stateMutability": "view",
			"type": "function"
		},
		{
			"inputs": [
				{
					"internalType": "uint256",
					"name": "fromTimeStamp",
					"type": "uint256"
				},
				{
					"internalType": "uint256",
					"name": "toTimeStamp",
					"type": "uint256"
				}
			],
			"name": "getOpenBetsWithTimeStamp",
			"outputs": [
				{
					"internalType": "string",
					"name": "",
					"type": "string"
				}
			],
			"stateMutability": "view",
			"type": "function"
		},
		{
			"inputs": [],
			"name": "owner",
			"outputs": [
				{
					"internalType": "address",
					"name": "",
					"type": "address"
				}
			],
			"stateMutability": "view",
			"type": "function"
		},
		{
			"inputs": [],
			"name": "pause",
			"outputs": [],
			"stateMutability": "nonpayable",
			"type": "function"
		},
		{
			"inputs": [],
			"name": "paused",
			"outputs": [
				{
					"internalType": "bool",
					"name": "",
					"type": "bool"
				}
			],
			"stateMutability": "view",
			"type": "function"
		},
		{
			"inputs": [],
			"name": "renounceOwnership",
			"outputs": [],
			"stateMutability": "nonpayable",
			"type": "function"
		},
		{
			"inputs": [
				{
					"internalType": "address",
					"name": "newOwner",
					"type": "address"
				}
			],
			"name": "transferOwnership",
			"outputs": [],
			"stateMutability": "nonpayable",
			"type": "function"
		},
		{
			"inputs": [],
			"name": "unpause",
			"outputs": [],
			"stateMutability": "nonpayable",
			"type": "function"
		}
	]
}