{
	"data": {
		"bytecode": {
			"linkReferences": {
				"contracts/Lib.sol": {
					"ConversionUtil": [
						{
							"length": 20,
							"start": 1379
						},
						{
							"length": 20,
							"start": 2581
						},
						{
							"length": 20,
							"start": 3989
						},
						{
							"length": 20,
							"start": 4517
						},
						{
							"length": 20,
							"start": 5319
						},
						{
							"length": 20,
							"start": 6895
						},
						{
							"length": 20,
							"start": 8313
						},
						{
							"length": 20,
							"start": 9808
						}
					],
					"Lib": [
						{
							"length": 20,
							"start": 696
						},
						{
							"length": 20,
							"start": 822
						},
						{
							"length": 20,
							"start": 948
						},
						{
							"length": 20,
							"start": 1351
						},
						{
							"length": 20,
							"start": 2152
						},
						{
							"length": 20,
							"start": 4260
						},
						{
							"length": 20,
							"start": 4490
						},
						{
							"length": 20,
							"start": 5292
						},
						{
							"length": 20,
							"start": 7131
						},
						{
							"length": 20,
							"start": 10294
						},
						{
							"length": 20,
							"start": 10874
						},
						{
							"length": 20,
							"start": 11158
						},
						{
							"length": 20,
							"start": 12281
						}
					]
				}
			},
			"object": "60806040526003805460ff191690553480156200001b57600080fd5b5060405162004244380380620042448339810160408190526200003e91620000cc565b62000049336200007c565b6000805460ff60a01b19169055600180546001600160a01b0319166001600160a01b0392909216919091179055620000fe565b600080546001600160a01b038381166001600160a01b0319831681178455604051919092169283917f8be0079c531659141344cd1fd0a4f28419497f9722a3daafe3b4186f6b6457e09190a35050565b600060208284031215620000df57600080fd5b81516001600160a01b0381168114620000f757600080fd5b9392505050565b614136806200010e6000396000f3fe608060405234801561001057600080fd5b50600436106100935760003560e01c80638456cb59116100665780638456cb59146100df5780638da5cb5b146100e7578063908a037514610102578063ebc8c50014610117578063f2fde38b1461011f57600080fd5b80630fd6b7ff146100985780633f4ba83a146100ad5780635c975abb146100b5578063715018a6146100d7575b600080fd5b6100ab6100a63660046135e2565b610132565b005b6100ab610cdf565b600054600160a01b900460ff1660405190151581526020015b60405180910390f35b6100ab610d13565b6100ab610d47565b6000546040516001600160a01b0390911681526020016100ce565b61010a610d79565b6040516100ce91906136bc565b6100ab6114cd565b6100ab61012d3660046136e4565b61179d565b3360009081526002602052604090205460ff16151560011461019b5760405162461bcd60e51b815260206004820152601d60248201527f41726269747261746f72206973206e6f7420526567697374657265642e00000060448201526064015b60405180910390fd5b604051635f69a5dd60e11b815273__$6cf167dfb7c5c94c9fb5276b5691085b47$__9063bed34bba906101d2908490600401613701565b602060405180830381865af41580156101ef573d6000803e3d6000fd5b505050506040513d601f19601f820116820180604052508101906102139190613742565b806102915750604051635f69a5dd60e11b815273__$6cf167dfb7c5c94c9fb5276b5691085b47$__9063bed34bba90610250908490600401613764565b602060405180830381865af415801561026d573d6000803e3d6000fd5b505050506040513d601f19601f820116820180604052508101906102919190613742565b8061030f5750604051635f69a5dd60e11b815273__$6cf167dfb7c5c94c9fb5276b5691085b47$__9063bed34bba906102ce9084906004016137a4565b602060405180830381865af41580156102eb573d6000803e3d6000fd5b505050506040513d601f19601f8201168201806040525081019061030f9190613742565b61034d5760405162461bcd60e51b815260206004820152600f60248201526e496e76616c6964204f7574636f6d6560881b6044820152606401610192565b600154604051631bf4604f60e11b8152600481018490526000916001600160a01b0316906337e8c09e90602401600060405180830381865afa158015610397573d6000803e3d6000fd5b505050506040513d6000823e601f3d908101601f191682016040526103bf9190810190613862565b905060038160e0015160ff16146104185760405162461bcd60e51b815260206004820152601a60248201527f4e6f7420526561647920666f72204172626974726174696f6e2e0000000000006044820152606401610192565b60c081015160ff166105e657604051635e57966d60e01b815233600482015273__$6cf167dfb7c5c94c9fb5276b5691085b47$__9063bed34bba9073__$acd136b36b4fe61d8edff89239067e5de1$__90635e57966d90602401600060405180830381865af415801561048f573d6000803e3d6000fd5b505050506040513d6000823e601f3d908101601f191682016040526104b79190810190613951565b600154604080518082018252600a81526920a92124aa2920aa27a960b11b602082015290516322ad378f60e21b81526001600160a01b0390921691638ab4de3c91610507918a9190600401613986565b600060405180830381865afa158015610524573d6000803e3d6000fd5b505050506040513d6000823e601f3d908101601f1916820160405261054c9190810190613951565b6040518363ffffffff1660e01b815260040161056992919061399f565b602060405180830381865af4158015610586573d6000803e3d6000fd5b505050506040513d601f19601f820116820180604052508101906105aa9190613742565b6105e65760405162461bcd60e51b815260206004820152600d60248201526c2ab720baba3437b934bd32b21760991b6044820152606401610192565b336001600160a01b031681604001516001600160a01b03160361064b5760405162461bcd60e51b815260206004820152601960248201527f43726561746f722063616e6e6f74206172626974726174652e000000000000006044820152606401610192565b60c081015160ff1661069357604051339084907f268b6c0f0f2c83ef3aa7262fb543e78fa631907ef82e731b2ccbba7d6ec3b87f90600090a361068e8383611838565b505050565b6001546040516309c716c760e11b8152600481018590523360248201526001600160a01b039091169063138e2d8e90604401602060405180830381865afa1580156106e2573d6000803e3d6000fd5b505050506040513d601f19601f820116820180604052508101906107069190613742565b156107485760405162461bcd60e51b8152602060048201526012602482015271223ab83634b1b0ba32902932b8bab2b9ba1760711b6044820152606401610192565b3360009081526002602052604090205473__$6cf167dfb7c5c94c9fb5276b5691085b47$__9063bed34bba9061078890610100900463ffffffff16612caf565b600154604080518082018252600c81526b50454e44494e47515545554560a01b602082015290516322ad378f60e21b81526001600160a01b0390921691638ab4de3c916107da918a9190600401613986565b600060405180830381865afa1580156107f7573d6000803e3d6000fd5b505050506040513d6000823e601f3d908101601f1916820160405261081f9190810190613951565b6040518363ffffffff1660e01b815260040161083c92919061399f565b602060405180830381865af4158015610859573d6000803e3d6000fd5b505050506040513d601f19601f8201168201806040525081019061087d9190613742565b6108c95760405162461bcd60e51b815260206004820152601b60248201527f57726f6e672051756575652e20506c65617365205265667265736800000000006044820152606401610192565b600154604080518082018252601481527314d51052d154115490d15395149154555254915160621b602082015290516322ad378f60e21b815260009273__$acd136b36b4fe61d8edff89239067e5de1$__92631bd95155926001600160a01b0390921691638ab4de3c91610942918a9190600401613986565b600060405180830381865afa15801561095f573d6000803e3d6000fd5b505050506040513d6000823e601f3d908101601f191682016040526109879190810190613951565b6040518263ffffffff1660e01b81526004016109a391906136bc565b602060405180830381865af41580156109c0573d6000803e3d6000fd5b505050506040513d601f19601f820116820180604052508101906109e491906139cd565b90506000610a12620186a0610a0c6064610a0c87610100015187612ddb90919063ffffffff16565b90612df0565b600154604051634dcb776760e11b815233600482015291925082916001600160a01b0390911690639b96eece90602401602060405180830381865afa158015610a5f573d6000803e3d6000fd5b505050506040513d601f19601f82011682018060405250810190610a8391906139cd565b1015610ad15760405162461bcd60e51b815260206004820152601f60248201527f42616c616e636520496e73756666696369656e7420666f72205374616b652e006044820152606401610192565b60015460408051630569529960e21b8152905183926001600160a01b0316916315a54a649160048083019260209291908290030181865afa158015610b1a573d6000803e3d6000fd5b505050506040513d601f19601f82011682018060405250810190610b3e91906139cd565b1115610bbb57600154604051632770a7eb60e21b81526001600160a01b0390911690639dc29fac90610b7690339085906004016139e6565b6020604051808303816000875af1158015610b95573d6000803e3d6000fd5b505050506040513d601f19601f82011682018060405250810190610bb99190613742565b505b600154604051632ebb5d8960e11b8152600481018790523360248201526001600160a01b0390911690635d76bb1290604401600060405180830381600087803b158015610c0757600080fd5b505af1158015610c1b573d6000803e3d6000fd5b505050506000853386604051602001610c36939291906139ff565b60408051601f1981840301815282825280516020918201206001546080850184528185523392850192909252838301899052606084018690529151633682445160e11b81529193506001600160a01b031691636d0488a291610c9c918a91600401613a3e565b600060405180830381600087803b158015610cb657600080fd5b505af1158015610cca573d6000803e3d6000fd5b50505050610cd786612dfc565b505050505050565b6000546001600160a01b03163314610d095760405162461bcd60e51b815260040161019290613a92565b610d11613018565b565b6000546001600160a01b03163314610d3d5760405162461bcd60e51b815260040161019290613a92565b610d1160006130b5565b6000546001600160a01b03163314610d715760405162461bcd60e51b815260040161019290613a92565b610d11613105565b3360009081526002602052604081205460609160ff90911615159003610dc1575060408051808201909152600d81526c1393d5149151d254d511549151609a1b602082015290565b60015460405163d5a1ad6160e01b81523360048201526060916000916001600160a01b039091169063d5a1ad6190602401600060405180830381865afa158015610e0f573d6000803e3d6000fd5b505050506040513d6000823e601f3d908101601f19168201604052610e379190810190613aeb565b8051909150156111a55760005b81518110156111a3576000828281518110610e6157610e61613b7c565b6020908102919091010151604051635e57966d60e01b815233600482015290915060009073__$acd136b36b4fe61d8edff89239067e5de1$__90635e57966d90602401600060405180830381865af4158015610ec1573d6000803e3d6000fd5b505050506040513d6000823e601f3d908101601f19168201604052610ee99190810190613951565b600154604080518082018252600a81526920a92124aa2920aa27a960b11b602082015290516322ad378f60e21b81529293506000926001600160a01b0390921691638ab4de3c91610f3f91879190600401613986565b600060405180830381865afa158015610f5c573d6000803e3d6000fd5b505050506040513d6000823e601f3d908101601f19168201604052610f849190810190613951565b604051635f69a5dd60e11b815290915073__$6cf167dfb7c5c94c9fb5276b5691085b47$__9063bed34bba90610fc0908490869060040161399f565b602060405180830381865af4158015610fdd573d6000803e3d6000fd5b505050506040513d601f19601f820116820180604052508101906110019190613742565b1561118d57600154604051631bf4604f60e11b8152600481018590526000916001600160a01b0316906337e8c09e90602401600060405180830381865afa158015611050573d6000803e3d6000fd5b505050506040513d6000823e601f3d908101601f191682016040526110789190810190613862565b905073__$6cf167dfb7c5c94c9fb5276b5691085b47$__63dfbe0b1f8873__$acd136b36b4fe61d8edff89239067e5de1$__639201de55886040518263ffffffff1660e01b81526004016110ce91815260200190565b600060405180830381865af41580156110eb573d6000803e3d6000fd5b505050506040513d6000823e601f3d908101601f191682016040526111139190810190613951565b6111208560800151612caf565b85606001516040518563ffffffff1660e01b81526004016111449493929190613ba6565b600060405180830381865af4158015611161573d6000803e3d6000fd5b505050506040513d6000823e601f3d908101601f191682016040526111899190810190613951565b9650505b505050808061119b90613c89565b915050610e44565b505b3360009081526002602052604080822054600154915163616e229d60e11b815261010090910463ffffffff166004820181905292916001600160a01b03169063c2dc453a90602401602060405180830381865afa15801561120a573d6000803e3d6000fd5b505050506040513d601f19601f8201168201806040525081019061122e91906139cd565b600154604051631740a32160e11b8152600481018390529192506000916001600160a01b0390911690632e81464290602401602060405180830381865afa15801561127d573d6000803e3d6000fd5b505050506040513d601f19601f820116820180604052508101906112a191906139cd565b905060005b818110156114c25760015460405163f3c55a9160e01b815260048101859052602481018390526000916001600160a01b03169063f3c55a9190604401602060405180830381865afa1580156112ff573d6000803e3d6000fd5b505050506040513d601f19601f8201168201806040525081019061132391906139cd565b600154604051631bf4604f60e11b8152600481018390529192506000916001600160a01b03909116906337e8c09e90602401600060405180830381865afa158015611372573d6000803e3d6000fd5b505050506040513d6000823e601f3d908101601f1916820160405261139a9190810190613862565b905073__$6cf167dfb7c5c94c9fb5276b5691085b47$__63dfbe0b1f8973__$acd136b36b4fe61d8edff89239067e5de1$__639201de55866040518263ffffffff1660e01b81526004016113f091815260200190565b600060405180830381865af415801561140d573d6000803e3d6000fd5b505050506040513d6000823e601f3d908101601f191682016040526114359190810190613951565b6114428560800151612caf565b85606001516040518563ffffffff1660e01b81526004016114669493929190613ca2565b600060405180830381865af4158015611483573d6000803e3d6000fd5b505050506040513d6000823e601f3d908101601f191682016040526114ab9190810190613951565b9750505080806114ba90613c89565b9150506112a6565b509395945050505050565b3360009081526002602052604081205460ff161515900361166b57600061156a33600160009054906101000a90046001600160a01b03166001600160a01b03166327c4758b6040518163ffffffff1660e01b8152600401602060405180830381865afa158015611541573d6000803e3d6000fd5b505050506040513d601f19601f820116820180604052508101906115659190613d57565b61318d565b336000908152600260209081526040918290208054600164ffffffffff1990911661010063ffffffff87160260ff191617811790915554825163f4c47b1760e01b815292519394506001600160a01b0316926322a6efd792849263f4c47b17926004808401938290030181865afa1580156115e9573d6000803e3d6000fd5b505050506040513d601f19601f8201168201806040525081019061160d91906139cd565b611618906001613d7d565b6040518263ffffffff1660e01b815260040161163691815260200190565b600060405180830381600087803b15801561165057600080fd5b505af1158015611664573d6000803e3d6000fd5b5050505050565b60018060009054906101000a90046001600160a01b03166001600160a01b03166327c4758b6040518163ffffffff1660e01b8152600401602060405180830381865afa1580156116bf573d6000803e3d6000fd5b505050506040513d601f19601f820116820180604052508101906116e39190613d57565b6116ed9190613d90565b3360009081526002602052604090205463ffffffff9182166101009091049091161115610d1157600061176d33600160009054906101000a90046001600160a01b03166001600160a01b03166327c4758b6040518163ffffffff1660e01b8152600401602060405180830381865afa158015611541573d6000803e3d6000fd5b336000908152600260205260409020805463ffffffff9092166101000264ffffffff001990921691909117905550565b6000546001600160a01b031633146117c75760405162461bcd60e51b815260040161019290613a92565b6001600160a01b03811661182c5760405162461bcd60e51b815260206004820152602660248201527f4f776e61626c653a206e6577206f776e657220697320746865207a65726f206160448201526564647265737360d01b6064820152608401610192565b611835816130b5565b50565b600154604051631bf4604f60e11b8152600481018490526000916001600160a01b0316906337e8c09e90602401600060405180830381865afa158015611882573d6000803e3d6000fd5b505050506040513d6000823e601f3d908101601f191682016040526118aa9190810190613862565b905060018160c0015160ff1603611f2d57600154604051630ef01e5360e21b8152600481018590526000916001600160a01b031690633bc0794c90602401602060405180830381865afa158015611905573d6000803e3d6000fd5b505050506040513d601f19601f8201168201806040525081019061192991906139cd565b600154604051630cc0fdaf60e21b8152600481018790529192506000916001600160a01b0390911690633303f6bc90602401600060405180830381865afa158015611978573d6000803e3d6000fd5b505050506040513d6000823e601f3d908101601f191682016040526119a09190810190613db4565b600154604080518082018252601481527320a92124aa2920aa27a921a7a6a6a4a9a9a4a7a760611b602082015290516322ad378f60e21b815292935060009273__$acd136b36b4fe61d8edff89239067e5de1$__92631bd95155926001600160a01b0390911691638ab4de3c91611a1c918c9190600401613986565b600060405180830381865afa158015611a39573d6000803e3d6000fd5b505050506040513d6000823e601f3d908101601f19168201604052611a619190810190613951565b6040518263ffffffff1660e01b8152600401611a7d91906136bc565b602060405180830381865af4158015611a9a573d6000803e3d6000fd5b505050506040513d601f19601f82011682018060405250810190611abe91906139cd565b905060005b83811015611dbd5773__$6cf167dfb7c5c94c9fb5276b5691085b47$__63bed34bba848381518110611af757611af7613b7c565b602002602001015160400151886040518363ffffffff1660e01b8152600401611b2192919061399f565b602060405180830381865af4158015611b3e573d6000803e3d6000fd5b505050506040513d601f19601f82011682018060405250810190611b629190613742565b15611dab576000611b9d620186a0610a0c6064610a0c6064610a0c6020611b978b8f6101000151612ddb90919063ffffffff16565b90612ddb565b60015485519192506001600160a01b0316906321670f2290869085908110611bc757611bc7613b7c565b602002602001015160200151868581518110611be557611be5613b7c565b6020026020010151606001516040518363ffffffff1660e01b8152600401611c0e9291906139e6565b6020604051808303816000875af1158015611c2d573d6000803e3d6000fd5b505050506040513d601f19601f82011682018060405250810190611c519190613742565b50611c5a613241565b15611d115760015484516001600160a01b039091169063283760fa90869085908110611c8857611c88613b7c565b602002602001015160200151836040518363ffffffff1660e01b8152600401611cb29291906139e6565b6020604051808303816000875af1158015611cd1573d6000803e3d6000fd5b505050506040513d601f19601f82011682018060405250810190611cf59190613742565b50610120860151611d06908261332d565b610120870152611da9565b60015484516001600160a01b03909116906321670f2290869085908110611d3a57611d3a613b7c565b602002602001015160200151836040518363ffffffff1660e01b8152600401611d649291906139e6565b6020604051808303816000875af1158015611d83573d6000803e3d6000fd5b505050506040513d601f19601f82011682018060405250810190611da79190613742565b505b505b80611db581613c89565b915050611ac3565b506000611def620186a0610a0c6064610a0c6103e8610a0c6023611b978a8e6101000151612ddb90919063ffffffff16565b9050611df9613241565b15611e9e576001546001600160a01b031663283760fa611e216000546001600160a01b031690565b836040518363ffffffff1660e01b8152600401611e3f9291906139e6565b6020604051808303816000875af1158015611e5e573d6000803e3d6000fd5b505050506040513d601f19601f82011682018060405250810190611e829190613742565b50610120850151611e93908261332d565b610120860152611f24565b6001546001600160a01b03166321670f22611ec16000546001600160a01b031690565b836040518363ffffffff1660e01b8152600401611edf9291906139e6565b6020604051808303816000875af1158015611efe573d6000803e3d6000fd5b505050506040513d601f19601f82011682018060405250810190611f229190613742565b505b505050506123eb565b600154604080518082018252601481527320a92124aa2920aa27a921a7a6a6a4a9a9a4a7a760611b602082015290516322ad378f60e21b815260009273__$acd136b36b4fe61d8edff89239067e5de1$__92631bd95155926001600160a01b0390921691638ab4de3c91611fa6918a9190600401613986565b600060405180830381865afa158015611fc3573d6000803e3d6000fd5b505050506040513d6000823e601f3d908101601f19168201604052611feb9190810190613951565b6040518263ffffffff1660e01b815260040161200791906136bc565b602060405180830381865af4158015612024573d6000803e3d6000fd5b505050506040513d601f19601f8201168201806040525081019061204891906139cd565b600154604080518082018252600a81526920a92124aa2920aa27a960b11b602082015290516322ad378f60e21b81529293506000926120e9926001600160a01b031691638ab4de3c9161209f918a91600401613986565b600060405180830381865afa1580156120bc573d6000803e3d6000fd5b505050506040513d6000823e601f3d908101601f191682016040526120e49190810190613951565b613339565b9050600061211c620186a0610a0c6064610a0c6103e8610a0c6023611b978b8d6101000151612ddb90919063ffffffff16565b905060008311801561213657506001600160a01b03821615155b1561229757600061216b620186a0610a0c6064610a0c6064610a0c6060611b978c8e6101000151612ddb90919063ffffffff16565b61012086015190915061217e908261332d565b61012086015260015460405163141bb07d60e11b81526001600160a01b039091169063283760fa906121b690869085906004016139e6565b6020604051808303816000875af11580156121d5573d6000803e3d6000fd5b505050506040513d601f19601f820116820180604052508101906121f99190613742565b506001546001600160a01b031663283760fa61221d6000546001600160a01b031690565b846040518363ffffffff1660e01b815260040161223b9291906139e6565b6020604051808303816000875af115801561225a573d6000803e3d6000fd5b505050506040513d601f19601f8201168201806040525081019061227e9190613742565b5061012085015161228f908361332d565b610120860152505b61229f613241565b1580156122b457506001600160a01b03821615155b156123625760006122e9620186a0610a0c6064610a0c6064610a0c6020611b978c8e6101000151612ddb90919063ffffffff16565b6001546040516310b3879160e11b81529192506001600160a01b0316906321670f229061231c90869085906004016139e6565b6020604051808303816000875af115801561233b573d6000803e3d6000fd5b505050506040513d601f19601f8201168201806040525081019061235f9190613742565b50505b6001546001600160a01b03166321670f226123856000546001600160a01b031690565b836040518363ffffffff1660e01b81526004016123a39291906139e6565b6020604051808303816000875af11580156123c2573d6000803e3d6000fd5b505050506040513d601f19601f820116820180604052508101906123e69190613742565b505050505b610120810180516000909152600460e0830181905260015460405163293e239760e11b81526001600160a01b039091169163527c472e9161242e91869101613ec5565b6020604051808303816000875af115801561244d573d6000803e3d6000fd5b505050506040513d601f19601f820116820180604052508101906124719190613742565b50600154604080518082018252600e81526d43414e43454c5343454e4152494f60901b6020820152905163203a6bfd60e01b81526001600160a01b039092169163203a6bfd916124c8918891908890600401613f80565b6020604051808303816000875af11580156124e7573d6000803e3d6000fd5b505050506040513d601f19601f8201168201806040525081019061250b9190613742565b50600154604080518082018252600c81526b50454e44494e47515545554560a01b602082015290516322ad378f60e21b815260009273__$acd136b36b4fe61d8edff89239067e5de1$__92631bd95155926001600160a01b0390921691638ab4de3c9161257d918b9190600401613986565b600060405180830381865afa15801561259a573d6000803e3d6000fd5b505050506040513d6000823e601f3d908101601f191682016040526125c29190810190613951565b6040518263ffffffff1660e01b81526004016125de91906136bc565b602060405180830381865af41580156125fb573d6000803e3d6000fd5b505050506040513d601f19601f8201168201806040525081019061261f91906139cd565b60015460405163616e229d60e11b815263ffffffff831660048201529192506000916001600160a01b039091169063c2dc453a90602401602060405180830381865afa158015612673573d6000803e3d6000fd5b505050506040513d601f19601f8201168201806040525081019061269791906139cd565b60015460405163ca5d5b5760e01b815260048101839052602481018990529192506001600160a01b03169063ca5d5b5790604401600060405180830381600087803b1580156126e557600080fd5b505af11580156126f9573d6000803e3d6000fd5b5050604080518082018252600981526810d05390d15313115160ba1b60208201529051635f69a5dd60e11b815273__$6cf167dfb7c5c94c9fb5276b5691085b47$__935063bed34bba925061275291899160040161399f565b602060405180830381865af415801561276f573d6000803e3d6000fd5b505050506040513d601f19601f820116820180604052508101906127939190613742565b1561293d576001546040805180820182526005815264424554454560d81b602082015290516322ad378f60e21b81526000926001600160a01b031691638ab4de3c916127e3918b91600401613986565b600060405180830381865afa158015612800573d6000803e3d6000fd5b505050506040513d6000823e601f3d908101601f191682016040526128289190810190613951565b6001549091506001600160a01b031663283760fa61284583613339565b612850876002612df0565b6040518363ffffffff1660e01b815260040161286d9291906139e6565b6020604051808303816000875af115801561288c573d6000803e3d6000fd5b505050506040513d601f19601f820116820180604052508101906128b09190613742565b5060015460408601516001600160a01b039091169063283760fa906128d6876002612df0565b6040518363ffffffff1660e01b81526004016128f39291906139e6565b6020604051808303816000875af1158015612912573d6000803e3d6000fd5b505050506040513d601f19601f820116820180604052508101906129369190613742565b5050612c07565b604080518082018252600b81526a21a922a0aa27a92faba7a760a91b60208201529051635f69a5dd60e11b815273__$6cf167dfb7c5c94c9fb5276b5691085b47$__9163bed34bba9161299491899160040161399f565b602060405180830381865af41580156129b1573d6000803e3d6000fd5b505050506040513d601f19601f820116820180604052508101906129d59190613742565b15612a5857600154604080860151905163141bb07d60e11b81526001600160a01b039092169163283760fa91612a0f9187906004016139e6565b6020604051808303816000875af1158015612a2e573d6000803e3d6000fd5b505050506040513d601f19601f82011682018060405250810190612a529190613742565b50612c07565b604080518082018252600c81526b10d491505513d497d313d4d560a21b60208201529051635f69a5dd60e11b815273__$6cf167dfb7c5c94c9fb5276b5691085b47$__9163bed34bba91612ab091899160040161399f565b602060405180830381865af4158015612acd573d6000803e3d6000fd5b505050506040513d601f19601f82011682018060405250810190612af19190613742565b15612c07576001546040805180820182526005815264424554454560d81b602082015290516322ad378f60e21b81526000926001600160a01b031691638ab4de3c91612b41918b91600401613986565b600060405180830381865afa158015612b5e573d6000803e3d6000fd5b505050506040513d6000823e601f3d908101601f19168201604052612b869190810190613951565b6001549091506001600160a01b031663283760fa612ba383613339565b866040518363ffffffff1660e01b8152600401612bc19291906139e6565b6020604051808303816000875af1158015612be0573d6000803e3d6000fd5b505050506040513d601f19601f82011682018060405250810190612c049190613742565b50505b600160009054906101000a90046001600160a01b03166001600160a01b0316632fa38f9b6040518163ffffffff1660e01b8152600401600060405180830381600087803b158015612c5757600080fd5b505af1158015612c6b573d6000803e3d6000fd5b50505050857f8edf4ded3a58729c2d2cf8c1497ddf8ab171b4136977db72eebe37c3da0e65d786604051612c9f91906136bc565b60405180910390a2505050505050565b606081600003612cd65750506040805180820190915260018152600360fc1b602082015290565b8160005b8115612d005780612cea81613c89565b9150612cf99050600a83613fcb565b9150612cda565b60008167ffffffffffffffff811115612d1b57612d1b613526565b6040519080825280601f01601f191660200182016040528015612d45576020820181803683370190505b509050815b8515612dd257612d5b600182613fdf565b90506000612d6a600a88613fcb565b612d7590600a613ff2565b612d7f9088613fdf565b612d8a906030614009565b905060008160f81b905080848481518110612da757612da7613b7c565b60200101906001600160f81b031916908160001a905350612dc9600a89613fcb565b97505050612d4a565b50949350505050565b6000612de78284613ff2565b90505b92915050565b6000612de78284613fcb565b600154604051630ef01e5360e21b8152600481018390526000916001600160a01b031690633bc0794c90602401602060405180830381865afa158015612e46573d6000803e3d6000fd5b505050506040513d601f19601f82011682018060405250810190612e6a91906139cd565b9050600281111561301457600154604051630cc0fdaf60e21b8152600481018490526000916001600160a01b031690633303f6bc90602401600060405180830381865afa158015612ebf573d6000803e3d6000fd5b505050506040513d6000823e601f3d908101601f19168201604052612ee79190810190613db4565b905073__$6cf167dfb7c5c94c9fb5276b5691085b47$__6309a223f982612f0f600286613fdf565b81518110612f1f57612f1f613b7c565b60200260200101516040015183600186612f399190613fdf565b81518110612f4957612f49613b7c565b60200260200101516040015184600387612f639190613fdf565b81518110612f7357612f73613b7c565b6020026020010151604001516040518463ffffffff1660e01b8152600401612f9d93929190614022565b602060405180830381865af4158015612fba573d6000803e3d6000fd5b505050506040513d601f19601f82011682018060405250810190612fde9190613742565b1561068e5761068e8382612ff3600186613fdf565b8151811061300357613003613b7c565b602002602001015160400151611838565b5050565b600054600160a01b900460ff166130685760405162461bcd60e51b815260206004820152601460248201527314185d5cd8589b194e881b9bdd081c185d5cd95960621b6044820152606401610192565b6000805460ff60a01b191690557f5db9ee0a495bf2e6ff9c91a7834c1ba4fdd244a5e8aa4e537bd38aeae4b073aa335b6040516001600160a01b03909116815260200160405180910390a1565b600080546001600160a01b038381166001600160a01b0319831681178455604051919092169283917f8be0079c531659141344cd1fd0a4f28419497f9722a3daafe3b4186f6b6457e09190a35050565b600054600160a01b900460ff16156131525760405162461bcd60e51b815260206004820152601060248201526f14185d5cd8589b194e881c185d5cd95960821b6044820152606401610192565b6000805460ff60a01b1916600160a01b1790557f62e78cea01bee320cd4e420270b5ea74000d11b0c9f74754ebdbfc544b05a2586130983390565b60038054600091829163ffffffff85169160ff90911690836131ae8361405b565b91906101000a81548160ff021916908360ff16021790555060ff16436131d49190613fdf565b60408051914060208301526bffffffffffffffffffffffff19606088901b16908201526054016040516020818303038152906040528051906020012060001c61321d919061407a565b60035490915060fa60ff9091161115612de7576003805460ff191690559392505050565b600154604080516320dfeefb60e21b815290516000926001600160a01b03169163837fbbec9160048083019260209291908290030181865afa15801561328b573d6000803e3d6000fd5b505050506040513d601f19601f820116820180604052508101906132af91906139cd565b600160009054906101000a90046001600160a01b03166001600160a01b03166315a54a646040518163ffffffff1660e01b8152600401602060405180830381865afa158015613302573d6000803e3d6000fd5b505050506040513d601f19601f8201168201806040525081019061332691906139cd565b1015905090565b6000612de78284613fdf565b60008181808060025b602a81101561351b576133576101008561408e565b935084818151811061336b5761336b613b7c565b016020015160f81c925084613381826001613d7d565b8151811061339157613391613b7c565b016020015160f81c915060616001600160a01b038416108015906133bf57506066836001600160a01b031611155b156133d6576133cf6057846140c0565b9250613441565b6041836001600160a01b0316101580156133fa57506046836001600160a01b031611155b1561340a576133cf6037846140c0565b6030836001600160a01b03161015801561342e57506039836001600160a01b031611155b156134415761343e6030846140c0565b92505b6061826001600160a01b03161015801561346557506066826001600160a01b031611155b1561347c576134756057836140c0565b91506134e7565b6041826001600160a01b0316101580156134a057506046826001600160a01b031611155b156134b0576134756037836140c0565b6030826001600160a01b0316101580156134d457506039826001600160a01b031611155b156134e7576134e46030836140c0565b91505b816134f384601061408e565b6134fd91906140e0565b61350790856140e0565b9350613514600282613d7d565b9050613342565b509195945050505050565b634e487b7160e01b600052604160045260246000fd5b604051610140810167ffffffffffffffff8111828210171561356057613560613526565b60405290565b6040516080810167ffffffffffffffff8111828210171561356057613560613526565b604051601f8201601f1916810167ffffffffffffffff811182821017156135b2576135b2613526565b604052919050565b600067ffffffffffffffff8211156135d4576135d4613526565b50601f01601f191660200190565b600080604083850312156135f557600080fd5b82359150602083013567ffffffffffffffff81111561361357600080fd5b8301601f8101851361362457600080fd5b8035613637613632826135ba565b613589565b81815286602083850101111561364c57600080fd5b816020840160208301376000602083830101528093505050509250929050565b60005b8381101561368757818101518382015260200161366f565b50506000910152565b600081518084526136a881602086016020860161366c565b601f01601f19169290920160200192915050565b602081526000612de76020830184613690565b6001600160a01b038116811461183557600080fd5b6000602082840312156136f657600080fd5b8135612de7816136cf565b6040815260006137146040830184613690565b8281036020840152600c81526b10d491505513d497d313d4d560a21b60208201526040810191505092915050565b60006020828403121561375457600080fd5b81518015158114612de757600080fd5b6040815260006137776040830184613690565b8281036020840152600b81526a21a922a0aa27a92faba7a760a91b60208201526040810191505092915050565b6040815260006137b76040830184613690565b8281036020840152600981526810d05390d15313115160ba1b60208201526040810191505092915050565b805161ffff811681146137f457600080fd5b919050565b80516137f4816136cf565b600082601f83011261381557600080fd5b8151613823613632826135ba565b81815284602083860101111561383857600080fd5b61384982602083016020870161366c565b949350505050565b805160ff811681146137f457600080fd5b60006020828403121561387457600080fd5b815167ffffffffffffffff8082111561388c57600080fd5b9083019061014082860312156138a157600080fd5b6138a961353c565b6138b2836137e2565b8152602083015160208201526138ca604084016137f9565b60408201526060830151828111156138e157600080fd5b6138ed87828601613804565b6060830152506080830151608082015261390960a08401613851565b60a082015261391a60c08401613851565b60c082015261392b60e08401613851565b60e082015261010083810151908201526101209283015192810192909252509392505050565b60006020828403121561396357600080fd5b815167ffffffffffffffff81111561397a57600080fd5b61384984828501613804565b8281526040602082015260006138496040830184613690565b6040815260006139b26040830185613690565b82810360208401526139c48185613690565b95945050505050565b6000602082840312156139df57600080fd5b5051919050565b6001600160a01b03929092168252602082015260400190565b8381526bffffffffffffffffffffffff198360601b16602082015260008251613a2f81603485016020870161366c565b91909101603401949350505050565b828152604060208083018290528351828401528301516001600160a01b03166060830152820151608080830152600090613a7b60c0840182613690565b9050606084015160a0840152809150509392505050565b6020808252818101527f4f776e61626c653a2063616c6c6572206973206e6f7420746865206f776e6572604082015260600190565b600067ffffffffffffffff821115613ae157613ae1613526565b5060051b60200190565b60006020808385031215613afe57600080fd5b825167ffffffffffffffff811115613b1557600080fd5b8301601f81018513613b2657600080fd5b8051613b3461363282613ac7565b81815260059190911b82018301908381019087831115613b5357600080fd5b928401925b82841015613b7157835182529284019290840190613b58565b979650505050505050565b634e487b7160e01b600052603260045260246000fd5b60018152600b60fa1b602082015260400190565b6000610120808352613bba81840188613690565b90508281036020840152613bce8187613690565b90508281036040840152613be181613b92565b90508281036060840152613bf58186613690565b90508281036080840152613c0881613b92565b905082810360a0840152613c1c8185613690565b90508281038060c085015260028252612c3160f01b60208301526040810160e085015250613c5b6040820160018152601f60fa1b602082015260400190565b83810361010085015260008152905060208101613b71565b634e487b7160e01b600052601160045260246000fd5b600060018201613c9b57613c9b613c73565b5060010190565b6000610120808352613cb681840188613690565b90508281036020840152613cca8187613690565b90508281036040840152613cdd81613b92565b90508281036060840152613cf18186613690565b90508281036080840152613d0481613b92565b905082810360a0840152613d188185613690565b90508281038060c08501526002825261161960f11b60208301526040810160e085015250613c5b6040820160018152601f60fa1b602082015260400190565b600060208284031215613d6957600080fd5b815163ffffffff81168114612de757600080fd5b80820180821115612dea57612dea613c73565b63ffffffff828116828216039080821115613dad57613dad613c73565b5092915050565b60006020808385031215613dc757600080fd5b825167ffffffffffffffff80821115613ddf57600080fd5b818501915085601f830112613df357600080fd5b8151613e0161363282613ac7565b81815260059190911b83018401908481019088831115613e2057600080fd5b8585015b83811015613eb857805185811115613e3b57600080fd5b86016080818c03601f19011215613e525760008081fd5b613e5a613566565b888201518152604080830151613e6f816136cf565b828b015260608381015189811115613e875760008081fd5b613e958f8d83880101613804565b928401929092526080939093015192820192909252845250918601918601613e24565b5098975050505050505050565b60208152613eda60208201835161ffff169052565b6020820151604082015260006040830151613f0060608401826001600160a01b03169052565b506060830151610140806080850152613f1d610160850183613690565b9150608085015160a085015260a0850151613f3d60c086018260ff169052565b5060c085015160ff811660e08601525060e0850151610100613f638187018360ff169052565b860151610120868101919091529095015193019290925250919050565b838152606060208201526000613f996060830185613690565b8281036040840152613fab8185613690565b9695505050505050565b634e487b7160e01b600052601260045260246000fd5b600082613fda57613fda613fb5565b500490565b81810381811115612dea57612dea613c73565b8082028115828204841417612dea57612dea613c73565b60ff8181168382160190811115612dea57612dea613c73565b6060815260006140356060830186613690565b82810360208401526140478186613690565b90508281036040840152613fab8185613690565b600060ff821660ff810361407157614071613c73565b60010192915050565b60008261408957614089613fb5565b500690565b6001600160a01b038281168282168181028316929181158285048214176140b7576140b7613c73565b50505092915050565b6001600160a01b03828116828216039080821115613dad57613dad613c73565b6001600160a01b03818116838216019080821115613dad57613dad613c7356fea2646970667358221220069f84892e00cf61537272d2786e9a1e0888cf9b1313c034439d240d57295a1764736f6c63430008110033",
			"opcodes": "PUSH1 0x80 PUSH1 0x40 MSTORE PUSH1 0x3 DUP1 SLOAD PUSH1 0xFF NOT AND SWAP1 SSTORE CALLVALUE DUP1 ISZERO PUSH3 0x1B JUMPI PUSH1 0x0 DUP1 REVERT JUMPDEST POP PUSH1 0x40 MLOAD PUSH3 0x4244 CODESIZE SUB DUP1 PUSH3 0x4244 DUP4 CODECOPY DUP2 ADD PUSH1 0x40 DUP2 SWAP1 MSTORE PUSH3 0x3E SWAP2 PUSH3 0xCC JUMP JUMPDEST PUSH3 0x49 CALLER PUSH3 0x7C JUMP JUMPDEST PUSH1 0x0 DUP1 SLOAD PUSH1 0xFF PUSH1 0xA0 SHL NOT AND SWAP1 SSTORE PUSH1 0x1 DUP1 SLOAD PUSH1 0x1 PUSH1 0x1 PUSH1 0xA0 SHL SUB NOT AND PUSH1 0x1 PUSH1 0x1 PUSH1 0xA0 SHL SUB SWAP3 SWAP1 SWAP3 AND SWAP2 SWAP1 SWAP2 OR SWAP1 SSTORE PUSH3 0xFE JUMP JUMPDEST PUSH1 0x0 DUP1 SLOAD PUSH1 0x1 PUSH1 0x1 PUSH1 0xA0 SHL SUB DUP4 DUP2 AND PUSH1 0x1 PUSH1 0x1 PUSH1 0xA0 SHL SUB NOT DUP4 AND DUP2 OR DUP5 SSTORE PUSH1 0x40 MLOAD SWAP2 SWAP1 SWAP3 AND SWAP3 DUP4 SWAP2 PUSH32 0x8BE0079C531659141344CD1FD0A4F28419497F9722A3DAAFE3B4186F6B6457E0 SWAP2 SWAP1 LOG3 POP POP JUMP JUMPDEST PUSH1 0x0 PUSH1 0x20 DUP3 DUP5 SUB SLT ISZERO PUSH3 0xDF JUMPI PUSH1 0x0 DUP1 REVERT JUMPDEST DUP2 MLOAD PUSH1 0x1 PUSH1 0x1 PUSH1 0xA0 SHL SUB DUP2 AND DUP2 EQ PUSH3 0xF7 JUMPI PUSH1 0x0 DUP1 REVERT JUMPDEST SWAP4 SWAP3 POP POP POP JUMP JUMPDEST PUSH2 0x4136 DUP1 PUSH3 0x10E PUSH1 0x0 CODECOPY PUSH1 0x0 RETURN INVALID PUSH1 0x80 PUSH1 0x40 MSTORE CALLVALUE DUP1 ISZERO PUSH2 0x10 JUMPI PUSH1 0x0 DUP1 REVERT JUMPDEST POP PUSH1 0x4 CALLDATASIZE LT PUSH2 0x93 JUMPI PUSH1 0x0 CALLDATALOAD PUSH1 0xE0 SHR DUP1 PUSH4 0x8456CB59 GT PUSH2 0x66 JUMPI DUP1 PUSH4 0x8456CB59 EQ PUSH2 0xDF JUMPI DUP1 PUSH4 0x8DA5CB5B EQ PUSH2 0xE7 JUMPI DUP1 PUSH4 0x908A0375 EQ PUSH2 0x102 JUMPI DUP1 PUSH4 0xEBC8C500 EQ PUSH2 0x117 JUMPI DUP1 PUSH4 0xF2FDE38B EQ PUSH2 0x11F JUMPI PUSH1 0x0 DUP1 REVERT JUMPDEST DUP1 PUSH4 0xFD6B7FF EQ PUSH2 0x98 JUMPI DUP1 PUSH4 0x3F4BA83A EQ PUSH2 0xAD JUMPI DUP1 PUSH4 0x5C975ABB EQ PUSH2 0xB5 JUMPI DUP1 PUSH4 0x715018A6 EQ PUSH2 0xD7 JUMPI JUMPDEST PUSH1 0x0 DUP1 REVERT JUMPDEST PUSH2 0xAB PUSH2 0xA6 CALLDATASIZE PUSH1 0x4 PUSH2 0x35E2 JUMP JUMPDEST PUSH2 0x132 JUMP JUMPDEST STOP JUMPDEST PUSH2 0xAB PUSH2 0xCDF JUMP JUMPDEST PUSH1 0x0 SLOAD PUSH1 0x1 PUSH1 0xA0 SHL SWAP1 DIV PUSH1 0xFF AND PUSH1 0x40 MLOAD SWAP1 ISZERO ISZERO DUP2 MSTORE PUSH1 0x20 ADD JUMPDEST PUSH1 0x40 MLOAD DUP1 SWAP2 SUB SWAP1 RETURN JUMPDEST PUSH2 0xAB PUSH2 0xD13 JUMP JUMPDEST PUSH2 0xAB PUSH2 0xD47 JUMP JUMPDEST PUSH1 0x0 SLOAD PUSH1 0x40 MLOAD PUSH1 0x1 PUSH1 0x1 PUSH1 0xA0 SHL SUB SWAP1 SWAP2 AND DUP2 MSTORE PUSH1 0x20 ADD PUSH2 0xCE JUMP JUMPDEST PUSH2 0x10A PUSH2 0xD79 JUMP JUMPDEST PUSH1 0x40 MLOAD PUSH2 0xCE SWAP2 SWAP1 PUSH2 0x36BC JUMP JUMPDEST PUSH2 0xAB PUSH2 0x14CD JUMP JUMPDEST PUSH2 0xAB PUSH2 0x12D CALLDATASIZE PUSH1 0x4 PUSH2 0x36E4 JUMP JUMPDEST PUSH2 0x179D JUMP JUMPDEST CALLER PUSH1 0x0 SWAP1 DUP2 MSTORE PUSH1 0x2 PUSH1 0x20 MSTORE PUSH1 0x40 SWAP1 KECCAK256 SLOAD PUSH1 0xFF AND ISZERO ISZERO PUSH1 0x1 EQ PUSH2 0x19B JUMPI PUSH1 0x40 MLOAD PUSH3 0x461BCD PUSH1 0xE5 SHL DUP2 MSTORE PUSH1 0x20 PUSH1 0x4 DUP3 ADD MSTORE PUSH1 0x1D PUSH1 0x24 DUP3 ADD MSTORE PUSH32 0x41726269747261746F72206973206E6F7420526567697374657265642E000000 PUSH1 0x44 DUP3 ADD MSTORE PUSH1 0x64 ADD JUMPDEST PUSH1 0x40 MLOAD DUP1 SWAP2 SUB SWAP1 REVERT JUMPDEST PUSH1 0x40 MLOAD PUSH4 0x5F69A5DD PUSH1 0xE1 SHL DUP2 MSTORE PUSH20 0x0 SWAP1 PUSH4 0xBED34BBA SWAP1 PUSH2 0x1D2 SWAP1 DUP5 SWAP1 PUSH1 0x4 ADD PUSH2 0x3701 JUMP JUMPDEST PUSH1 0x20 PUSH1 0x40 MLOAD DUP1 DUP4 SUB DUP2 DUP7 GAS DELEGATECALL ISZERO DUP1 ISZERO PUSH2 0x1EF JUMPI RETURNDATASIZE PUSH1 0x0 DUP1 RETURNDATACOPY RETURNDATASIZE PUSH1 0x0 REVERT JUMPDEST POP POP POP POP PUSH1 0x40 MLOAD RETURNDATASIZE PUSH1 0x1F NOT PUSH1 0x1F DUP3 ADD AND DUP3 ADD DUP1 PUSH1 0x40 MSTORE POP DUP2 ADD SWAP1 PUSH2 0x213 SWAP2 SWAP1 PUSH2 0x3742 JUMP JUMPDEST DUP1 PUSH2 0x291 JUMPI POP PUSH1 0x40 MLOAD PUSH4 0x5F69A5DD PUSH1 0xE1 SHL DUP2 MSTORE PUSH20 0x0 SWAP1 PUSH4 0xBED34BBA SWAP1 PUSH2 0x250 SWAP1 DUP5 SWAP1 PUSH1 0x4 ADD PUSH2 0x3764 JUMP JUMPDEST PUSH1 0x20 PUSH1 0x40 MLOAD DUP1 DUP4 SUB DUP2 DUP7 GAS DELEGATECALL ISZERO DUP1 ISZERO PUSH2 0x26D JUMPI RETURNDATASIZE PUSH1 0x0 DUP1 RETURNDATACOPY RETURNDATASIZE PUSH1 0x0 REVERT JUMPDEST POP POP POP POP PUSH1 0x40 MLOAD RETURNDATASIZE PUSH1 0x1F NOT PUSH1 0x1F DUP3 ADD AND DUP3 ADD DUP1 PUSH1 0x40 MSTORE POP DUP2 ADD SWAP1 PUSH2 0x291 SWAP2 SWAP1 PUSH2 0x3742 JUMP JUMPDEST DUP1 PUSH2 0x30F JUMPI POP PUSH1 0x40 MLOAD PUSH4 0x5F69A5DD PUSH1 0xE1 SHL DUP2 MSTORE PUSH20 0x0 SWAP1 PUSH4 0xBED34BBA SWAP1 PUSH2 0x2CE SWAP1 DUP5 SWAP1 PUSH1 0x4 ADD PUSH2 0x37A4 JUMP JUMPDEST PUSH1 0x20 PUSH1 0x40 MLOAD DUP1 DUP4 SUB DUP2 DUP7 GAS DELEGATECALL ISZERO DUP1 ISZERO PUSH2 0x2EB JUMPI RETURNDATASIZE PUSH1 0x0 DUP1 RETURNDATACOPY RETURNDATASIZE PUSH1 0x0 REVERT JUMPDEST POP POP POP POP PUSH1 0x40 MLOAD RETURNDATASIZE PUSH1 0x1F NOT PUSH1 0x1F DUP3 ADD AND DUP3 ADD DUP1 PUSH1 0x40 MSTORE POP DUP2 ADD SWAP1 PUSH2 0x30F SWAP2 SWAP1 PUSH2 0x3742 JUMP JUMPDEST PUSH2 0x34D JUMPI PUSH1 0x40 MLOAD PUSH3 0x461BCD PUSH1 0xE5 SHL DUP2 MSTORE PUSH1 0x20 PUSH1 0x4 DUP3 ADD MSTORE PUSH1 0xF PUSH1 0x24 DUP3 ADD MSTORE PUSH15 0x496E76616C6964204F7574636F6D65 PUSH1 0x88 SHL PUSH1 0x44 DUP3 ADD MSTORE PUSH1 0x64 ADD PUSH2 0x192 JUMP JUMPDEST PUSH1 0x1 SLOAD PUSH1 0x40 MLOAD PUSH4 0x1BF4604F PUSH1 0xE1 SHL DUP2 MSTORE PUSH1 0x4 DUP2 ADD DUP5 SWAP1 MSTORE PUSH1 0x0 SWAP2 PUSH1 0x1 PUSH1 0x1 PUSH1 0xA0 SHL SUB AND SWAP1 PUSH4 0x37E8C09E SWAP1 PUSH1 0x24 ADD PUSH1 0x0 PUSH1 0x40 MLOAD DUP1 DUP4 SUB DUP2 DUP7 GAS STATICCALL ISZERO DUP1 ISZERO PUSH2 0x397 JUMPI RETURNDATASIZE PUSH1 0x0 DUP1 RETURNDATACOPY RETURNDATASIZE PUSH1 0x0 REVERT JUMPDEST POP POP POP POP PUSH1 0x40 MLOAD RETURNDATASIZE PUSH1 0x0 DUP3 RETURNDATACOPY PUSH1 0x1F RETURNDATASIZE SWAP1 DUP2 ADD PUSH1 0x1F NOT AND DUP3 ADD PUSH1 0x40 MSTORE PUSH2 0x3BF SWAP2 SWAP1 DUP2 ADD SWAP1 PUSH2 0x3862 JUMP JUMPDEST SWAP1 POP PUSH1 0x3 DUP2 PUSH1 0xE0 ADD MLOAD PUSH1 0xFF AND EQ PUSH2 0x418 JUMPI PUSH1 0x40 MLOAD PUSH3 0x461BCD PUSH1 0xE5 SHL DUP2 MSTORE PUSH1 0x20 PUSH1 0x4 DUP3 ADD MSTORE PUSH1 0x1A PUSH1 0x24 DUP3 ADD MSTORE PUSH32 0x4E6F7420526561647920666F72204172626974726174696F6E2E000000000000 PUSH1 0x44 DUP3 ADD MSTORE PUSH1 0x64 ADD PUSH2 0x192 JUMP JUMPDEST PUSH1 0xC0 DUP2 ADD MLOAD PUSH1 0xFF AND PUSH2 0x5E6 JUMPI PUSH1 0x40 MLOAD PUSH4 0x5E57966D PUSH1 0xE0 SHL DUP2 MSTORE CALLER PUSH1 0x4 DUP3 ADD MSTORE PUSH20 0x0 SWAP1 PUSH4 0xBED34BBA SWAP1 PUSH20 0x0 SWAP1 PUSH4 0x5E57966D SWAP1 PUSH1 0x24 ADD PUSH1 0x0 PUSH1 0x40 MLOAD DUP1 DUP4 SUB DUP2 DUP7 GAS DELEGATECALL ISZERO DUP1 ISZERO PUSH2 0x48F JUMPI RETURNDATASIZE PUSH1 0x0 DUP1 RETURNDATACOPY RETURNDATASIZE PUSH1 0x0 REVERT JUMPDEST POP POP POP POP PUSH1 0x40 MLOAD RETURNDATASIZE PUSH1 0x0 DUP3 RETURNDATACOPY PUSH1 0x1F RETURNDATASIZE SWAP1 DUP2 ADD PUSH1 0x1F NOT AND DUP3 ADD PUSH1 0x40 MSTORE PUSH2 0x4B7 SWAP2 SWAP1 DUP2 ADD SWAP1 PUSH2 0x3951 JUMP JUMPDEST PUSH1 0x1 SLOAD PUSH1 0x40 DUP1 MLOAD DUP1 DUP3 ADD DUP3 MSTORE PUSH1 0xA DUP2 MSTORE PUSH10 0x20A92124AA2920AA27A9 PUSH1 0xB1 SHL PUSH1 0x20 DUP3 ADD MSTORE SWAP1 MLOAD PUSH4 0x22AD378F PUSH1 0xE2 SHL DUP2 MSTORE PUSH1 0x1 PUSH1 0x1 PUSH1 0xA0 SHL SUB SWAP1 SWAP3 AND SWAP2 PUSH4 0x8AB4DE3C SWAP2 PUSH2 0x507 SWAP2 DUP11 SWAP2 SWAP1 PUSH1 0x4 ADD PUSH2 0x3986 JUMP JUMPDEST PUSH1 0x0 PUSH1 0x40 MLOAD DUP1 DUP4 SUB DUP2 DUP7 GAS STATICCALL ISZERO DUP1 ISZERO PUSH2 0x524 JUMPI RETURNDATASIZE PUSH1 0x0 DUP1 RETURNDATACOPY RETURNDATASIZE PUSH1 0x0 REVERT JUMPDEST POP POP POP POP PUSH1 0x40 MLOAD RETURNDATASIZE PUSH1 0x0 DUP3 RETURNDATACOPY PUSH1 0x1F RETURNDATASIZE SWAP1 DUP2 ADD PUSH1 0x1F NOT AND DUP3 ADD PUSH1 0x40 MSTORE PUSH2 0x54C SWAP2 SWAP1 DUP2 ADD SWAP1 PUSH2 0x3951 JUMP JUMPDEST PUSH1 0x40 MLOAD DUP4 PUSH4 0xFFFFFFFF AND PUSH1 0xE0 SHL DUP2 MSTORE PUSH1 0x4 ADD PUSH2 0x569 SWAP3 SWAP2 SWAP1 PUSH2 0x399F JUMP JUMPDEST PUSH1 0x20 PUSH1 0x40 MLOAD DUP1 DUP4 SUB DUP2 DUP7 GAS DELEGATECALL ISZERO DUP1 ISZERO PUSH2 0x586 JUMPI RETURNDATASIZE PUSH1 0x0 DUP1 RETURNDATACOPY RETURNDATASIZE PUSH1 0x0 REVERT JUMPDEST POP POP POP POP PUSH1 0x40 MLOAD RETURNDATASIZE PUSH1 0x1F NOT PUSH1 0x1F DUP3 ADD AND DUP3 ADD DUP1 PUSH1 0x40 MSTORE POP DUP2 ADD SWAP1 PUSH2 0x5AA SWAP2 SWAP1 PUSH2 0x3742 JUMP JUMPDEST PUSH2 0x5E6 JUMPI PUSH1 0x40 MLOAD PUSH3 0x461BCD PUSH1 0xE5 SHL DUP2 MSTORE PUSH1 0x20 PUSH1 0x4 DUP3 ADD MSTORE PUSH1 0xD PUSH1 0x24 DUP3 ADD MSTORE PUSH13 0x2AB720BABA3437B934BD32B217 PUSH1 0x99 SHL PUSH1 0x44 DUP3 ADD MSTORE PUSH1 0x64 ADD PUSH2 0x192 JUMP JUMPDEST CALLER PUSH1 0x1 PUSH1 0x1 PUSH1 0xA0 SHL SUB AND DUP2 PUSH1 0x40 ADD MLOAD PUSH1 0x1 PUSH1 0x1 PUSH1 0xA0 SHL SUB AND SUB PUSH2 0x64B JUMPI PUSH1 0x40 MLOAD PUSH3 0x461BCD PUSH1 0xE5 SHL DUP2 MSTORE PUSH1 0x20 PUSH1 0x4 DUP3 ADD MSTORE PUSH1 0x19 PUSH1 0x24 DUP3 ADD MSTORE PUSH32 0x43726561746F722063616E6E6F74206172626974726174652E00000000000000 PUSH1 0x44 DUP3 ADD MSTORE PUSH1 0x64 ADD PUSH2 0x192 JUMP JUMPDEST PUSH1 0xC0 DUP2 ADD MLOAD PUSH1 0xFF AND PUSH2 0x693 JUMPI PUSH1 0x40 MLOAD CALLER SWAP1 DUP5 SWAP1 PUSH32 0x268B6C0F0F2C83EF3AA7262FB543E78FA631907EF82E731B2CCBBA7D6EC3B87F SWAP1 PUSH1 0x0 SWAP1 LOG3 PUSH2 0x68E DUP4 DUP4 PUSH2 0x1838 JUMP JUMPDEST POP POP POP JUMP JUMPDEST PUSH1 0x1 SLOAD PUSH1 0x40 MLOAD PUSH4 0x9C716C7 PUSH1 0xE1 SHL DUP2 MSTORE PUSH1 0x4 DUP2 ADD DUP6 SWAP1 MSTORE CALLER PUSH1 0x24 DUP3 ADD MSTORE PUSH1 0x1 PUSH1 0x1 PUSH1 0xA0 SHL SUB SWAP1 SWAP2 AND SWAP1 PUSH4 0x138E2D8E SWAP1 PUSH1 0x44 ADD PUSH1 0x20 PUSH1 0x40 MLOAD DUP1 DUP4 SUB DUP2 DUP7 GAS STATICCALL ISZERO DUP1 ISZERO PUSH2 0x6E2 JUMPI RETURNDATASIZE PUSH1 0x0 DUP1 RETURNDATACOPY RETURNDATASIZE PUSH1 0x0 REVERT JUMPDEST POP POP POP POP PUSH1 0x40 MLOAD RETURNDATASIZE PUSH1 0x1F NOT PUSH1 0x1F DUP3 ADD AND DUP3 ADD DUP1 PUSH1 0x40 MSTORE POP DUP2 ADD SWAP1 PUSH2 0x706 SWAP2 SWAP1 PUSH2 0x3742 JUMP JUMPDEST ISZERO PUSH2 0x748 JUMPI PUSH1 0x40 MLOAD PUSH3 0x461BCD PUSH1 0xE5 SHL DUP2 MSTORE PUSH1 0x20 PUSH1 0x4 DUP3 ADD MSTORE PUSH1 0x12 PUSH1 0x24 DUP3 ADD MSTORE PUSH18 0x223AB83634B1B0BA32902932B8BAB2B9BA17 PUSH1 0x71 SHL PUSH1 0x44 DUP3 ADD MSTORE PUSH1 0x64 ADD PUSH2 0x192 JUMP JUMPDEST CALLER PUSH1 0x0 SWAP1 DUP2 MSTORE PUSH1 0x2 PUSH1 0x20 MSTORE PUSH1 0x40 SWAP1 KECCAK256 SLOAD PUSH20 0x0 SWAP1 PUSH4 0xBED34BBA SWAP1 PUSH2 0x788 SWAP1 PUSH2 0x100 SWAP1 DIV PUSH4 0xFFFFFFFF AND PUSH2 0x2CAF JUMP JUMPDEST PUSH1 0x1 SLOAD PUSH1 0x40 DUP1 MLOAD DUP1 DUP3 ADD DUP3 MSTORE PUSH1 0xC DUP2 MSTORE PUSH12 0x50454E44494E475155455545 PUSH1 0xA0 SHL PUSH1 0x20 DUP3 ADD MSTORE SWAP1 MLOAD PUSH4 0x22AD378F PUSH1 0xE2 SHL DUP2 MSTORE PUSH1 0x1 PUSH1 0x1 PUSH1 0xA0 SHL SUB SWAP1 SWAP3 AND SWAP2 PUSH4 0x8AB4DE3C SWAP2 PUSH2 0x7DA SWAP2 DUP11 SWAP2 SWAP1 PUSH1 0x4 ADD PUSH2 0x3986 JUMP JUMPDEST PUSH1 0x0 PUSH1 0x40 MLOAD DUP1 DUP4 SUB DUP2 DUP7 GAS STATICCALL ISZERO DUP1 ISZERO PUSH2 0x7F7 JUMPI RETURNDATASIZE PUSH1 0x0 DUP1 RETURNDATACOPY RETURNDATASIZE PUSH1 0x0 REVERT JUMPDEST POP POP POP POP PUSH1 0x40 MLOAD RETURNDATASIZE PUSH1 0x0 DUP3 RETURNDATACOPY PUSH1 0x1F RETURNDATASIZE SWAP1 DUP2 ADD PUSH1 0x1F NOT AND DUP3 ADD PUSH1 0x40 MSTORE PUSH2 0x81F SWAP2 SWAP1 DUP2 ADD SWAP1 PUSH2 0x3951 JUMP JUMPDEST PUSH1 0x40 MLOAD DUP4 PUSH4 0xFFFFFFFF AND PUSH1 0xE0 SHL DUP2 MSTORE PUSH1 0x4 ADD PUSH2 0x83C SWAP3 SWAP2 SWAP1 PUSH2 0x399F JUMP JUMPDEST PUSH1 0x20 PUSH1 0x40 MLOAD DUP1 DUP4 SUB DUP2 DUP7 GAS DELEGATECALL ISZERO DUP1 ISZERO PUSH2 0x859 JUMPI RETURNDATASIZE PUSH1 0x0 DUP1 RETURNDATACOPY RETURNDATASIZE PUSH1 0x0 REVERT JUMPDEST POP POP POP POP PUSH1 0x40 MLOAD RETURNDATASIZE PUSH1 0x1F NOT PUSH1 0x1F DUP3 ADD AND DUP3 ADD DUP1 PUSH1 0x40 MSTORE POP DUP2 ADD SWAP1 PUSH2 0x87D SWAP2 SWAP1 PUSH2 0x3742 JUMP JUMPDEST PUSH2 0x8C9 JUMPI PUSH1 0x40 MLOAD PUSH3 0x461BCD PUSH1 0xE5 SHL DUP2 MSTORE PUSH1 0x20 PUSH1 0x4 DUP3 ADD MSTORE PUSH1 0x1B PUSH1 0x24 DUP3 ADD MSTORE PUSH32 0x57726F6E672051756575652E20506C6561736520526566726573680000000000 PUSH1 0x44 DUP3 ADD MSTORE PUSH1 0x64 ADD PUSH2 0x192 JUMP JUMPDEST PUSH1 0x1 SLOAD PUSH1 0x40 DUP1 MLOAD DUP1 DUP3 ADD DUP3 MSTORE PUSH1 0x14 DUP2 MSTORE PUSH20 0x14D51052D154115490D153951491545552549151 PUSH1 0x62 SHL PUSH1 0x20 DUP3 ADD MSTORE SWAP1 MLOAD PUSH4 0x22AD378F PUSH1 0xE2 SHL DUP2 MSTORE PUSH1 0x0 SWAP3 PUSH20 0x0 SWAP3 PUSH4 0x1BD95155 SWAP3 PUSH1 0x1 PUSH1 0x1 PUSH1 0xA0 SHL SUB SWAP1 SWAP3 AND SWAP2 PUSH4 0x8AB4DE3C SWAP2 PUSH2 0x942 SWAP2 DUP11 SWAP2 SWAP1 PUSH1 0x4 ADD PUSH2 0x3986 JUMP JUMPDEST PUSH1 0x0 PUSH1 0x40 MLOAD DUP1 DUP4 SUB DUP2 DUP7 GAS STATICCALL ISZERO DUP1 ISZERO PUSH2 0x95F JUMPI RETURNDATASIZE PUSH1 0x0 DUP1 RETURNDATACOPY RETURNDATASIZE PUSH1 0x0 REVERT JUMPDEST POP POP POP POP PUSH1 0x40 MLOAD RETURNDATASIZE PUSH1 0x0 DUP3 RETURNDATACOPY PUSH1 0x1F RETURNDATASIZE SWAP1 DUP2 ADD PUSH1 0x1F NOT AND DUP3 ADD PUSH1 0x40 MSTORE PUSH2 0x987 SWAP2 SWAP1 DUP2 ADD SWAP1 PUSH2 0x3951 JUMP JUMPDEST PUSH1 0x40 MLOAD DUP3 PUSH4 0xFFFFFFFF AND PUSH1 0xE0 SHL DUP2 MSTORE PUSH1 0x4 ADD PUSH2 0x9A3 SWAP2 SWAP1 PUSH2 0x36BC JUMP JUMPDEST PUSH1 0x20 PUSH1 0x40 MLOAD DUP1 DUP4 SUB DUP2 DUP7 GAS DELEGATECALL ISZERO DUP1 ISZERO PUSH2 0x9C0 JUMPI RETURNDATASIZE PUSH1 0x0 DUP1 RETURNDATACOPY RETURNDATASIZE PUSH1 0x0 REVERT JUMPDEST POP POP POP POP PUSH1 0x40 MLOAD RETURNDATASIZE PUSH1 0x1F NOT PUSH1 0x1F DUP3 ADD AND DUP3 ADD DUP1 PUSH1 0x40 MSTORE POP DUP2 ADD SWAP1 PUSH2 0x9E4 SWAP2 SWAP1 PUSH2 0x39CD JUMP JUMPDEST SWAP1 POP PUSH1 0x0 PUSH2 0xA12 PUSH3 0x186A0 PUSH2 0xA0C PUSH1 0x64 PUSH2 0xA0C DUP8 PUSH2 0x100 ADD MLOAD DUP8 PUSH2 0x2DDB SWAP1 SWAP2 SWAP1 PUSH4 0xFFFFFFFF AND JUMP JUMPDEST SWAP1 PUSH2 0x2DF0 JUMP JUMPDEST PUSH1 0x1 SLOAD PUSH1 0x40 MLOAD PUSH4 0x4DCB7767 PUSH1 0xE1 SHL DUP2 MSTORE CALLER PUSH1 0x4 DUP3 ADD MSTORE SWAP2 SWAP3 POP DUP3 SWAP2 PUSH1 0x1 PUSH1 0x1 PUSH1 0xA0 SHL SUB SWAP1 SWAP2 AND SWAP1 PUSH4 0x9B96EECE SWAP1 PUSH1 0x24 ADD PUSH1 0x20 PUSH1 0x40 MLOAD DUP1 DUP4 SUB DUP2 DUP7 GAS STATICCALL ISZERO DUP1 ISZERO PUSH2 0xA5F JUMPI RETURNDATASIZE PUSH1 0x0 DUP1 RETURNDATACOPY RETURNDATASIZE PUSH1 0x0 REVERT JUMPDEST POP POP POP POP PUSH1 0x40 MLOAD RETURNDATASIZE PUSH1 0x1F NOT PUSH1 0x1F DUP3 ADD AND DUP3 ADD DUP1 PUSH1 0x40 MSTORE POP DUP2 ADD SWAP1 PUSH2 0xA83 SWAP2 SWAP1 PUSH2 0x39CD JUMP JUMPDEST LT ISZERO PUSH2 0xAD1 JUMPI PUSH1 0x40 MLOAD PUSH3 0x461BCD PUSH1 0xE5 SHL DUP2 MSTORE PUSH1 0x20 PUSH1 0x4 DUP3 ADD MSTORE PUSH1 0x1F PUSH1 0x24 DUP3 ADD MSTORE PUSH32 0x42616C616E636520496E73756666696369656E7420666F72205374616B652E00 PUSH1 0x44 DUP3 ADD MSTORE PUSH1 0x64 ADD PUSH2 0x192 JUMP JUMPDEST PUSH1 0x1 SLOAD PUSH1 0x40 DUP1 MLOAD PUSH4 0x5695299 PUSH1 0xE2 SHL DUP2 MSTORE SWAP1 MLOAD DUP4 SWAP3 PUSH1 0x1 PUSH1 0x1 PUSH1 0xA0 SHL SUB AND SWAP2 PUSH4 0x15A54A64 SWAP2 PUSH1 0x4 DUP1 DUP4 ADD SWAP3 PUSH1 0x20 SWAP3 SWAP2 SWAP1 DUP3 SWAP1 SUB ADD DUP2 DUP7 GAS STATICCALL ISZERO DUP1 ISZERO PUSH2 0xB1A JUMPI RETURNDATASIZE PUSH1 0x0 DUP1 RETURNDATACOPY RETURNDATASIZE PUSH1 0x0 REVERT JUMPDEST POP POP POP POP PUSH1 0x40 MLOAD RETURNDATASIZE PUSH1 0x1F NOT PUSH1 0x1F DUP3 ADD AND DUP3 ADD DUP1 PUSH1 0x40 MSTORE POP DUP2 ADD SWAP1 PUSH2 0xB3E SWAP2 SWAP1 PUSH2 0x39CD JUMP JUMPDEST GT ISZERO PUSH2 0xBBB JUMPI PUSH1 0x1 SLOAD PUSH1 0x40 MLOAD PUSH4 0x2770A7EB PUSH1 0xE2 SHL DUP2 MSTORE PUSH1 0x1 PUSH1 0x1 PUSH1 0xA0 SHL SUB SWAP1 SWAP2 AND SWAP1 PUSH4 0x9DC29FAC SWAP1 PUSH2 0xB76 SWAP1 CALLER SWAP1 DUP6 SWAP1 PUSH1 0x4 ADD PUSH2 0x39E6 JUMP JUMPDEST PUSH1 0x20 PUSH1 0x40 MLOAD DUP1 DUP4 SUB DUP2 PUSH1 0x0 DUP8 GAS CALL ISZERO DUP1 ISZERO PUSH2 0xB95 JUMPI RETURNDATASIZE PUSH1 0x0 DUP1 RETURNDATACOPY RETURNDATASIZE PUSH1 0x0 REVERT JUMPDEST POP POP POP POP PUSH1 0x40 MLOAD RETURNDATASIZE PUSH1 0x1F NOT PUSH1 0x1F DUP3 ADD AND DUP3 ADD DUP1 PUSH1 0x40 MSTORE POP DUP2 ADD SWAP1 PUSH2 0xBB9 SWAP2 SWAP1 PUSH2 0x3742 JUMP JUMPDEST POP JUMPDEST PUSH1 0x1 SLOAD PUSH1 0x40 MLOAD PUSH4 0x2EBB5D89 PUSH1 0xE1 SHL DUP2 MSTORE PUSH1 0x4 DUP2 ADD DUP8 SWAP1 MSTORE CALLER PUSH1 0x24 DUP3 ADD MSTORE PUSH1 0x1 PUSH1 0x1 PUSH1 0xA0 SHL SUB SWAP1 SWAP2 AND SWAP1 PUSH4 0x5D76BB12 SWAP1 PUSH1 0x44 ADD PUSH1 0x0 PUSH1 0x40 MLOAD DUP1 DUP4 SUB DUP2 PUSH1 0x0 DUP8 DUP1 EXTCODESIZE ISZERO DUP1 ISZERO PUSH2 0xC07 JUMPI PUSH1 0x0 DUP1 REVERT JUMPDEST POP GAS CALL ISZERO DUP1 ISZERO PUSH2 0xC1B JUMPI RETURNDATASIZE PUSH1 0x0 DUP1 RETURNDATACOPY RETURNDATASIZE PUSH1 0x0 REVERT JUMPDEST POP POP POP POP PUSH1 0x0 DUP6 CALLER DUP7 PUSH1 0x40 MLOAD PUSH1 0x20 ADD PUSH2 0xC36 SWAP4 SWAP3 SWAP2 SWAP1 PUSH2 0x39FF JUMP JUMPDEST PUSH1 0x40 DUP1 MLOAD PUSH1 0x1F NOT DUP2 DUP5 SUB ADD DUP2 MSTORE DUP3 DUP3 MSTORE DUP1 MLOAD PUSH1 0x20 SWAP2 DUP3 ADD KECCAK256 PUSH1 0x1 SLOAD PUSH1 0x80 DUP6 ADD DUP5 MSTORE DUP2 DUP6 MSTORE CALLER SWAP3 DUP6 ADD SWAP3 SWAP1 SWAP3 MSTORE DUP4 DUP4 ADD DUP10 SWAP1 MSTORE PUSH1 0x60 DUP5 ADD DUP7 SWAP1 MSTORE SWAP2 MLOAD PUSH4 0x36824451 PUSH1 0xE1 SHL DUP2 MSTORE SWAP2 SWAP4 POP PUSH1 0x1 PUSH1 0x1 PUSH1 0xA0 SHL SUB AND SWAP2 PUSH4 0x6D0488A2 SWAP2 PUSH2 0xC9C SWAP2 DUP11 SWAP2 PUSH1 0x4 ADD PUSH2 0x3A3E JUMP JUMPDEST PUSH1 0x0 PUSH1 0x40 MLOAD DUP1 DUP4 SUB DUP2 PUSH1 0x0 DUP8 DUP1 EXTCODESIZE ISZERO DUP1 ISZERO PUSH2 0xCB6 JUMPI PUSH1 0x0 DUP1 REVERT JUMPDEST POP GAS CALL ISZERO DUP1 ISZERO PUSH2 0xCCA JUMPI RETURNDATASIZE PUSH1 0x0 DUP1 RETURNDATACOPY RETURNDATASIZE PUSH1 0x0 REVERT JUMPDEST POP POP POP POP PUSH2 0xCD7 DUP7 PUSH2 0x2DFC JUMP JUMPDEST POP POP POP POP POP POP JUMP JUMPDEST PUSH1 0x0 SLOAD PUSH1 0x1 PUSH1 0x1 PUSH1 0xA0 SHL SUB AND CALLER EQ PUSH2 0xD09 JUMPI PUSH1 0x40 MLOAD PUSH3 0x461BCD PUSH1 0xE5 SHL DUP2 MSTORE PUSH1 0x4 ADD PUSH2 0x192 SWAP1 PUSH2 0x3A92 JUMP JUMPDEST PUSH2 0xD11 PUSH2 0x3018 JUMP JUMPDEST JUMP JUMPDEST PUSH1 0x0 SLOAD PUSH1 0x1 PUSH1 0x1 PUSH1 0xA0 SHL SUB AND CALLER EQ PUSH2 0xD3D JUMPI PUSH1 0x40 MLOAD PUSH3 0x461BCD PUSH1 0xE5 SHL DUP2 MSTORE PUSH1 0x4 ADD PUSH2 0x192 SWAP1 PUSH2 0x3A92 JUMP JUMPDEST PUSH2 0xD11 PUSH1 0x0 PUSH2 0x30B5 JUMP JUMPDEST PUSH1 0x0 SLOAD PUSH1 0x1 PUSH1 0x1 PUSH1 0xA0 SHL SUB AND CALLER EQ PUSH2 0xD71 JUMPI PUSH1 0x40 MLOAD PUSH3 0x461BCD PUSH1 0xE5 SHL DUP2 MSTORE PUSH1 0x4 ADD PUSH2 0x192 SWAP1 PUSH2 0x3A92 JUMP JUMPDEST PUSH2 0xD11 PUSH2 0x3105 JUMP JUMPDEST CALLER PUSH1 0x0 SWAP1 DUP2 MSTORE PUSH1 0x2 PUSH1 0x20 MSTORE PUSH1 0x40 DUP2 KECCAK256 SLOAD PUSH1 0x60 SWAP2 PUSH1 0xFF SWAP1 SWAP2 AND ISZERO ISZERO SWAP1 SUB PUSH2 0xDC1 JUMPI POP PUSH1 0x40 DUP1 MLOAD DUP1 DUP3 ADD SWAP1 SWAP2 MSTORE PUSH1 0xD DUP2 MSTORE PUSH13 0x1393D5149151D254D511549151 PUSH1 0x9A SHL PUSH1 0x20 DUP3 ADD MSTORE SWAP1 JUMP JUMPDEST PUSH1 0x1 SLOAD PUSH1 0x40 MLOAD PUSH4 0xD5A1AD61 PUSH1 0xE0 SHL DUP2 MSTORE CALLER PUSH1 0x4 DUP3 ADD MSTORE PUSH1 0x60 SWAP2 PUSH1 0x0 SWAP2 PUSH1 0x1 PUSH1 0x1 PUSH1 0xA0 SHL SUB SWAP1 SWAP2 AND SWAP1 PUSH4 0xD5A1AD61 SWAP1 PUSH1 0x24 ADD PUSH1 0x0 PUSH1 0x40 MLOAD DUP1 DUP4 SUB DUP2 DUP7 GAS STATICCALL ISZERO DUP1 ISZERO PUSH2 0xE0F JUMPI RETURNDATASIZE PUSH1 0x0 DUP1 RETURNDATACOPY RETURNDATASIZE PUSH1 0x0 REVERT JUMPDEST POP POP POP POP PUSH1 0x40 MLOAD RETURNDATASIZE PUSH1 0x0 DUP3 RETURNDATACOPY PUSH1 0x1F RETURNDATASIZE SWAP1 DUP2 ADD PUSH1 0x1F NOT AND DUP3 ADD PUSH1 0x40 MSTORE PUSH2 0xE37 SWAP2 SWAP1 DUP2 ADD SWAP1 PUSH2 0x3AEB JUMP JUMPDEST DUP1 MLOAD SWAP1 SWAP2 POP ISZERO PUSH2 0x11A5 JUMPI PUSH1 0x0 JUMPDEST DUP2 MLOAD DUP2 LT ISZERO PUSH2 0x11A3 JUMPI PUSH1 0x0 DUP3 DUP3 DUP2 MLOAD DUP2 LT PUSH2 0xE61 JUMPI PUSH2 0xE61 PUSH2 0x3B7C JUMP JUMPDEST PUSH1 0x20 SWAP1 DUP2 MUL SWAP2 SWAP1 SWAP2 ADD ADD MLOAD PUSH1 0x40 MLOAD PUSH4 0x5E57966D PUSH1 0xE0 SHL DUP2 MSTORE CALLER PUSH1 0x4 DUP3 ADD MSTORE SWAP1 SWAP2 POP PUSH1 0x0 SWAP1 PUSH20 0x0 SWAP1 PUSH4 0x5E57966D SWAP1 PUSH1 0x24 ADD PUSH1 0x0 PUSH1 0x40 MLOAD DUP1 DUP4 SUB DUP2 DUP7 GAS DELEGATECALL ISZERO DUP1 ISZERO PUSH2 0xEC1 JUMPI RETURNDATASIZE PUSH1 0x0 DUP1 RETURNDATACOPY RETURNDATASIZE PUSH1 0x0 REVERT JUMPDEST POP POP POP POP PUSH1 0x40 MLOAD RETURNDATASIZE PUSH1 0x0 DUP3 RETURNDATACOPY PUSH1 0x1F RETURNDATASIZE SWAP1 DUP2 ADD PUSH1 0x1F NOT AND DUP3 ADD PUSH1 0x40 MSTORE PUSH2 0xEE9 SWAP2 SWAP1 DUP2 ADD SWAP1 PUSH2 0x3951 JUMP JUMPDEST PUSH1 0x1 SLOAD PUSH1 0x40 DUP1 MLOAD DUP1 DUP3 ADD DUP3 MSTORE PUSH1 0xA DUP2 MSTORE PUSH10 0x20A92124AA2920AA27A9 PUSH1 0xB1 SHL PUSH1 0x20 DUP3 ADD MSTORE SWAP1 MLOAD PUSH4 0x22AD378F PUSH1 0xE2 SHL DUP2 MSTORE SWAP3 SWAP4 POP PUSH1 0x0 SWAP3 PUSH1 0x1 PUSH1 0x1 PUSH1 0xA0 SHL SUB SWAP1 SWAP3 AND SWAP2 PUSH4 0x8AB4DE3C SWAP2 PUSH2 0xF3F SWAP2 DUP8 SWAP2 SWAP1 PUSH1 0x4 ADD PUSH2 0x3986 JUMP JUMPDEST PUSH1 0x0 PUSH1 0x40 MLOAD DUP1 DUP4 SUB DUP2 DUP7 GAS STATICCALL ISZERO DUP1 ISZERO PUSH2 0xF5C JUMPI RETURNDATASIZE PUSH1 0x0 DUP1 RETURNDATACOPY RETURNDATASIZE PUSH1 0x0 REVERT JUMPDEST POP POP POP POP PUSH1 0x40 MLOAD RETURNDATASIZE PUSH1 0x0 DUP3 RETURNDATACOPY PUSH1 0x1F RETURNDATASIZE SWAP1 DUP2 ADD PUSH1 0x1F NOT AND DUP3 ADD PUSH1 0x40 MSTORE PUSH2 0xF84 SWAP2 SWAP1 DUP2 ADD SWAP1 PUSH2 0x3951 JUMP JUMPDEST PUSH1 0x40 MLOAD PUSH4 0x5F69A5DD PUSH1 0xE1 SHL DUP2 MSTORE SWAP1 SWAP2 POP PUSH20 0x0 SWAP1 PUSH4 0xBED34BBA SWAP1 PUSH2 0xFC0 SWAP1 DUP5 SWAP1 DUP7 SWAP1 PUSH1 0x4 ADD PUSH2 0x399F JUMP JUMPDEST PUSH1 0x20 PUSH1 0x40 MLOAD DUP1 DUP4 SUB DUP2 DUP7 GAS DELEGATECALL ISZERO DUP1 ISZERO PUSH2 0xFDD JUMPI RETURNDATASIZE PUSH1 0x0 DUP1 RETURNDATACOPY RETURNDATASIZE PUSH1 0x0 REVERT JUMPDEST POP POP POP POP PUSH1 0x40 MLOAD RETURNDATASIZE PUSH1 0x1F NOT PUSH1 0x1F DUP3 ADD AND DUP3 ADD DUP1 PUSH1 0x40 MSTORE POP DUP2 ADD SWAP1 PUSH2 0x1001 SWAP2 SWAP1 PUSH2 0x3742 JUMP JUMPDEST ISZERO PUSH2 0x118D JUMPI PUSH1 0x1 SLOAD PUSH1 0x40 MLOAD PUSH4 0x1BF4604F PUSH1 0xE1 SHL DUP2 MSTORE PUSH1 0x4 DUP2 ADD DUP6 SWAP1 MSTORE PUSH1 0x0 SWAP2 PUSH1 0x1 PUSH1 0x1 PUSH1 0xA0 SHL SUB AND SWAP1 PUSH4 0x37E8C09E SWAP1 PUSH1 0x24 ADD PUSH1 0x0 PUSH1 0x40 MLOAD DUP1 DUP4 SUB DUP2 DUP7 GAS STATICCALL ISZERO DUP1 ISZERO PUSH2 0x1050 JUMPI RETURNDATASIZE PUSH1 0x0 DUP1 RETURNDATACOPY RETURNDATASIZE PUSH1 0x0 REVERT JUMPDEST POP POP POP POP PUSH1 0x40 MLOAD RETURNDATASIZE PUSH1 0x0 DUP3 RETURNDATACOPY PUSH1 0x1F RETURNDATASIZE SWAP1 DUP2 ADD PUSH1 0x1F NOT AND DUP3 ADD PUSH1 0x40 MSTORE PUSH2 0x1078 SWAP2 SWAP1 DUP2 ADD SWAP1 PUSH2 0x3862 JUMP JUMPDEST SWAP1 POP PUSH20 0x0 PUSH4 0xDFBE0B1F DUP9 PUSH20 0x0 PUSH4 0x9201DE55 DUP9 PUSH1 0x40 MLOAD DUP3 PUSH4 0xFFFFFFFF AND PUSH1 0xE0 SHL DUP2 MSTORE PUSH1 0x4 ADD PUSH2 0x10CE SWAP2 DUP2 MSTORE PUSH1 0x20 ADD SWAP1 JUMP JUMPDEST PUSH1 0x0 PUSH1 0x40 MLOAD DUP1 DUP4 SUB DUP2 DUP7 GAS DELEGATECALL ISZERO DUP1 ISZERO PUSH2 0x10EB JUMPI RETURNDATASIZE PUSH1 0x0 DUP1 RETURNDATACOPY RETURNDATASIZE PUSH1 0x0 REVERT JUMPDEST POP POP POP POP PUSH1 0x40 MLOAD RETURNDATASIZE PUSH1 0x0 DUP3 RETURNDATACOPY PUSH1 0x1F RETURNDATASIZE SWAP1 DUP2 ADD PUSH1 0x1F NOT AND DUP3 ADD PUSH1 0x40 MSTORE PUSH2 0x1113 SWAP2 SWAP1 DUP2 ADD SWAP1 PUSH2 0x3951 JUMP JUMPDEST PUSH2 0x1120 DUP6 PUSH1 0x80 ADD MLOAD PUSH2 0x2CAF JUMP JUMPDEST DUP6 PUSH1 0x60 ADD MLOAD PUSH1 0x40 MLOAD DUP6 PUSH4 0xFFFFFFFF AND PUSH1 0xE0 SHL DUP2 MSTORE PUSH1 0x4 ADD PUSH2 0x1144 SWAP5 SWAP4 SWAP3 SWAP2 SWAP1 PUSH2 0x3BA6 JUMP JUMPDEST PUSH1 0x0 PUSH1 0x40 MLOAD DUP1 DUP4 SUB DUP2 DUP7 GAS DELEGATECALL ISZERO DUP1 ISZERO PUSH2 0x1161 JUMPI RETURNDATASIZE PUSH1 0x0 DUP1 RETURNDATACOPY RETURNDATASIZE PUSH1 0x0 REVERT JUMPDEST POP POP POP POP PUSH1 0x40 MLOAD RETURNDATASIZE PUSH1 0x0 DUP3 RETURNDATACOPY PUSH1 0x1F RETURNDATASIZE SWAP1 DUP2 ADD PUSH1 0x1F NOT AND DUP3 ADD PUSH1 0x40 MSTORE PUSH2 0x1189 SWAP2 SWAP1 DUP2 ADD SWAP1 PUSH2 0x3951 JUMP JUMPDEST SWAP7 POP POP JUMPDEST POP POP POP DUP1 DUP1 PUSH2 0x119B SWAP1 PUSH2 0x3C89 JUMP JUMPDEST SWAP2 POP POP PUSH2 0xE44 JUMP JUMPDEST POP JUMPDEST CALLER PUSH1 0x0 SWAP1 DUP2 MSTORE PUSH1 0x2 PUSH1 0x20 MSTORE PUSH1 0x40 DUP1 DUP3 KECCAK256 SLOAD PUSH1 0x1 SLOAD SWAP2 MLOAD PUSH4 0x616E229D PUSH1 0xE1 SHL DUP2 MSTORE PUSH2 0x100 SWAP1 SWAP2 DIV PUSH4 0xFFFFFFFF AND PUSH1 0x4 DUP3 ADD DUP2 SWAP1 MSTORE SWAP3 SWAP2 PUSH1 0x1 PUSH1 0x1 PUSH1 0xA0 SHL SUB AND SWAP1 PUSH4 0xC2DC453A SWAP1 PUSH1 0x24 ADD PUSH1 0x20 PUSH1 0x40 MLOAD DUP1 DUP4 SUB DUP2 DUP7 GAS STATICCALL ISZERO DUP1 ISZERO PUSH2 0x120A JUMPI RETURNDATASIZE PUSH1 0x0 DUP1 RETURNDATACOPY RETURNDATASIZE PUSH1 0x0 REVERT JUMPDEST POP POP POP POP PUSH1 0x40 MLOAD RETURNDATASIZE PUSH1 0x1F NOT PUSH1 0x1F DUP3 ADD AND DUP3 ADD DUP1 PUSH1 0x40 MSTORE POP DUP2 ADD SWAP1 PUSH2 0x122E SWAP2 SWAP1 PUSH2 0x39CD JUMP JUMPDEST PUSH1 0x1 SLOAD PUSH1 0x40 MLOAD PUSH4 0x1740A321 PUSH1 0xE1 SHL DUP2 MSTORE PUSH1 0x4 DUP2 ADD DUP4 SWAP1 MSTORE SWAP2 SWAP3 POP PUSH1 0x0 SWAP2 PUSH1 0x1 PUSH1 0x1 PUSH1 0xA0 SHL SUB SWAP1 SWAP2 AND SWAP1 PUSH4 0x2E814642 SWAP1 PUSH1 0x24 ADD PUSH1 0x20 PUSH1 0x40 MLOAD DUP1 DUP4 SUB DUP2 DUP7 GAS STATICCALL ISZERO DUP1 ISZERO PUSH2 0x127D JUMPI RETURNDATASIZE PUSH1 0x0 DUP1 RETURNDATACOPY RETURNDATASIZE PUSH1 0x0 REVERT JUMPDEST POP POP POP POP PUSH1 0x40 MLOAD RETURNDATASIZE PUSH1 0x1F NOT PUSH1 0x1F DUP3 ADD AND DUP3 ADD DUP1 PUSH1 0x40 MSTORE POP DUP2 ADD SWAP1 PUSH2 0x12A1 SWAP2 SWAP1 PUSH2 0x39CD JUMP JUMPDEST SWAP1 POP PUSH1 0x0 JUMPDEST DUP2 DUP2 LT ISZERO PUSH2 0x14C2 JUMPI PUSH1 0x1 SLOAD PUSH1 0x40 MLOAD PUSH4 0xF3C55A91 PUSH1 0xE0 SHL DUP2 MSTORE PUSH1 0x4 DUP2 ADD DUP6 SWAP1 MSTORE PUSH1 0x24 DUP2 ADD DUP4 SWAP1 MSTORE PUSH1 0x0 SWAP2 PUSH1 0x1 PUSH1 0x1 PUSH1 0xA0 SHL SUB AND SWAP1 PUSH4 0xF3C55A91 SWAP1 PUSH1 0x44 ADD PUSH1 0x20 PUSH1 0x40 MLOAD DUP1 DUP4 SUB DUP2 DUP7 GAS STATICCALL ISZERO DUP1 ISZERO PUSH2 0x12FF JUMPI RETURNDATASIZE PUSH1 0x0 DUP1 RETURNDATACOPY RETURNDATASIZE PUSH1 0x0 REVERT JUMPDEST POP POP POP POP PUSH1 0x40 MLOAD RETURNDATASIZE PUSH1 0x1F NOT PUSH1 0x1F DUP3 ADD AND DUP3 ADD DUP1 PUSH1 0x40 MSTORE POP DUP2 ADD SWAP1 PUSH2 0x1323 SWAP2 SWAP1 PUSH2 0x39CD JUMP JUMPDEST PUSH1 0x1 SLOAD PUSH1 0x40 MLOAD PUSH4 0x1BF4604F PUSH1 0xE1 SHL DUP2 MSTORE PUSH1 0x4 DUP2 ADD DUP4 SWAP1 MSTORE SWAP2 SWAP3 POP PUSH1 0x0 SWAP2 PUSH1 0x1 PUSH1 0x1 PUSH1 0xA0 SHL SUB SWAP1 SWAP2 AND SWAP1 PUSH4 0x37E8C09E SWAP1 PUSH1 0x24 ADD PUSH1 0x0 PUSH1 0x40 MLOAD DUP1 DUP4 SUB DUP2 DUP7 GAS STATICCALL ISZERO DUP1 ISZERO PUSH2 0x1372 JUMPI RETURNDATASIZE PUSH1 0x0 DUP1 RETURNDATACOPY RETURNDATASIZE PUSH1 0x0 REVERT JUMPDEST POP POP POP POP PUSH1 0x40 MLOAD RETURNDATASIZE PUSH1 0x0 DUP3 RETURNDATACOPY PUSH1 0x1F RETURNDATASIZE SWAP1 DUP2 ADD PUSH1 0x1F NOT AND DUP3 ADD PUSH1 0x40 MSTORE PUSH2 0x139A SWAP2 SWAP1 DUP2 ADD SWAP1 PUSH2 0x3862 JUMP JUMPDEST SWAP1 POP PUSH20 0x0 PUSH4 0xDFBE0B1F DUP10 PUSH20 0x0 PUSH4 0x9201DE55 DUP7 PUSH1 0x40 MLOAD DUP3 PUSH4 0xFFFFFFFF AND PUSH1 0xE0 SHL DUP2 MSTORE PUSH1 0x4 ADD PUSH2 0x13F0 SWAP2 DUP2 MSTORE PUSH1 0x20 ADD SWAP1 JUMP JUMPDEST PUSH1 0x0 PUSH1 0x40 MLOAD DUP1 DUP4 SUB DUP2 DUP7 GAS DELEGATECALL ISZERO DUP1 ISZERO PUSH2 0x140D JUMPI RETURNDATASIZE PUSH1 0x0 DUP1 RETURNDATACOPY RETURNDATASIZE PUSH1 0x0 REVERT JUMPDEST POP POP POP POP PUSH1 0x40 MLOAD RETURNDATASIZE PUSH1 0x0 DUP3 RETURNDATACOPY PUSH1 0x1F RETURNDATASIZE SWAP1 DUP2 ADD PUSH1 0x1F NOT AND DUP3 ADD PUSH1 0x40 MSTORE PUSH2 0x1435 SWAP2 SWAP1 DUP2 ADD SWAP1 PUSH2 0x3951 JUMP JUMPDEST PUSH2 0x1442 DUP6 PUSH1 0x80 ADD MLOAD PUSH2 0x2CAF JUMP JUMPDEST DUP6 PUSH1 0x60 ADD MLOAD PUSH1 0x40 MLOAD DUP6 PUSH4 0xFFFFFFFF AND PUSH1 0xE0 SHL DUP2 MSTORE PUSH1 0x4 ADD PUSH2 0x1466 SWAP5 SWAP4 SWAP3 SWAP2 SWAP1 PUSH2 0x3CA2 JUMP JUMPDEST PUSH1 0x0 PUSH1 0x40 MLOAD DUP1 DUP4 SUB DUP2 DUP7 GAS DELEGATECALL ISZERO DUP1 ISZERO PUSH2 0x1483 JUMPI RETURNDATASIZE PUSH1 0x0 DUP1 RETURNDATACOPY RETURNDATASIZE PUSH1 0x0 REVERT JUMPDEST POP POP POP POP PUSH1 0x40 MLOAD RETURNDATASIZE PUSH1 0x0 DUP3 RETURNDATACOPY PUSH1 0x1F RETURNDATASIZE SWAP1 DUP2 ADD PUSH1 0x1F NOT AND DUP3 ADD PUSH1 0x40 MSTORE PUSH2 0x14AB SWAP2 SWAP1 DUP2 ADD SWAP1 PUSH2 0x3951 JUMP JUMPDEST SWAP8 POP POP POP DUP1 DUP1 PUSH2 0x14BA SWAP1 PUSH2 0x3C89 JUMP JUMPDEST SWAP2 POP POP PUSH2 0x12A6 JUMP JUMPDEST POP SWAP4 SWAP6 SWAP5 POP POP POP POP POP JUMP JUMPDEST CALLER PUSH1 0x0 SWAP1 DUP2 MSTORE PUSH1 0x2 PUSH1 0x20 MSTORE PUSH1 0x40 DUP2 KECCAK256 SLOAD PUSH1 0xFF AND ISZERO ISZERO SWAP1 SUB PUSH2 0x166B JUMPI PUSH1 0x0 PUSH2 0x156A CALLER PUSH1 0x1 PUSH1 0x0 SWAP1 SLOAD SWAP1 PUSH2 0x100 EXP SWAP1 DIV PUSH1 0x1 PUSH1 0x1 PUSH1 0xA0 SHL SUB AND PUSH1 0x1 PUSH1 0x1 PUSH1 0xA0 SHL SUB AND PUSH4 0x27C4758B PUSH1 0x40 MLOAD DUP2 PUSH4 0xFFFFFFFF AND PUSH1 0xE0 SHL DUP2 MSTORE PUSH1 0x4 ADD PUSH1 0x20 PUSH1 0x40 MLOAD DUP1 DUP4 SUB DUP2 DUP7 GAS STATICCALL ISZERO DUP1 ISZERO PUSH2 0x1541 JUMPI RETURNDATASIZE PUSH1 0x0 DUP1 RETURNDATACOPY RETURNDATASIZE PUSH1 0x0 REVERT JUMPDEST POP POP POP POP PUSH1 0x40 MLOAD RETURNDATASIZE PUSH1 0x1F NOT PUSH1 0x1F DUP3 ADD AND DUP3 ADD DUP1 PUSH1 0x40 MSTORE POP DUP2 ADD SWAP1 PUSH2 0x1565 SWAP2 SWAP1 PUSH2 0x3D57 JUMP JUMPDEST PUSH2 0x318D JUMP JUMPDEST CALLER PUSH1 0x0 SWAP1 DUP2 MSTORE PUSH1 0x2 PUSH1 0x20 SWAP1 DUP2 MSTORE PUSH1 0x40 SWAP2 DUP3 SWAP1 KECCAK256 DUP1 SLOAD PUSH1 0x1 PUSH5 0xFFFFFFFFFF NOT SWAP1 SWAP2 AND PUSH2 0x100 PUSH4 0xFFFFFFFF DUP8 AND MUL PUSH1 0xFF NOT AND OR DUP2 OR SWAP1 SWAP2 SSTORE SLOAD DUP3 MLOAD PUSH4 0xF4C47B17 PUSH1 0xE0 SHL DUP2 MSTORE SWAP3 MLOAD SWAP4 SWAP5 POP PUSH1 0x1 PUSH1 0x1 PUSH1 0xA0 SHL SUB AND SWAP3 PUSH4 0x22A6EFD7 SWAP3 DUP5 SWAP3 PUSH4 0xF4C47B17 SWAP3 PUSH1 0x4 DUP1 DUP5 ADD SWAP4 DUP3 SWAP1 SUB ADD DUP2 DUP7 GAS STATICCALL ISZERO DUP1 ISZERO PUSH2 0x15E9 JUMPI RETURNDATASIZE PUSH1 0x0 DUP1 RETURNDATACOPY RETURNDATASIZE PUSH1 0x0 REVERT JUMPDEST POP POP POP POP PUSH1 0x40 MLOAD RETURNDATASIZE PUSH1 0x1F NOT PUSH1 0x1F DUP3 ADD AND DUP3 ADD DUP1 PUSH1 0x40 MSTORE POP DUP2 ADD SWAP1 PUSH2 0x160D SWAP2 SWAP1 PUSH2 0x39CD JUMP JUMPDEST PUSH2 0x1618 SWAP1 PUSH1 0x1 PUSH2 0x3D7D JUMP JUMPDEST PUSH1 0x40 MLOAD DUP3 PUSH4 0xFFFFFFFF AND PUSH1 0xE0 SHL DUP2 MSTORE PUSH1 0x4 ADD PUSH2 0x1636 SWAP2 DUP2 MSTORE PUSH1 0x20 ADD SWAP1 JUMP JUMPDEST PUSH1 0x0 PUSH1 0x40 MLOAD DUP1 DUP4 SUB DUP2 PUSH1 0x0 DUP8 DUP1 EXTCODESIZE ISZERO DUP1 ISZERO PUSH2 0x1650 JUMPI PUSH1 0x0 DUP1 REVERT JUMPDEST POP GAS CALL ISZERO DUP1 ISZERO PUSH2 0x1664 JUMPI RETURNDATASIZE PUSH1 0x0 DUP1 RETURNDATACOPY RETURNDATASIZE PUSH1 0x0 REVERT JUMPDEST POP POP POP POP POP JUMP JUMPDEST PUSH1 0x1 DUP1 PUSH1 0x0 SWAP1 SLOAD SWAP1 PUSH2 0x100 EXP SWAP1 DIV PUSH1 0x1 PUSH1 0x1 PUSH1 0xA0 SHL SUB AND PUSH1 0x1 PUSH1 0x1 PUSH1 0xA0 SHL SUB AND PUSH4 0x27C4758B PUSH1 0x40 MLOAD DUP2 PUSH4 0xFFFFFFFF AND PUSH1 0xE0 SHL DUP2 MSTORE PUSH1 0x4 ADD PUSH1 0x20 PUSH1 0x40 MLOAD DUP1 DUP4 SUB DUP2 DUP7 GAS STATICCALL ISZERO DUP1 ISZERO PUSH2 0x16BF JUMPI RETURNDATASIZE PUSH1 0x0 DUP1 RETURNDATACOPY RETURNDATASIZE PUSH1 0x0 REVERT JUMPDEST POP POP POP POP PUSH1 0x40 MLOAD RETURNDATASIZE PUSH1 0x1F NOT PUSH1 0x1F DUP3 ADD AND DUP3 ADD DUP1 PUSH1 0x40 MSTORE POP DUP2 ADD SWAP1 PUSH2 0x16E3 SWAP2 SWAP1 PUSH2 0x3D57 JUMP JUMPDEST PUSH2 0x16ED SWAP2 SWAP1 PUSH2 0x3D90 JUMP JUMPDEST CALLER PUSH1 0x0 SWAP1 DUP2 MSTORE PUSH1 0x2 PUSH1 0x20 MSTORE PUSH1 0x40 SWAP1 KECCAK256 SLOAD PUSH4 0xFFFFFFFF SWAP2 DUP3 AND PUSH2 0x100 SWAP1 SWAP2 DIV SWAP1 SWAP2 AND GT ISZERO PUSH2 0xD11 JUMPI PUSH1 0x0 PUSH2 0x176D CALLER PUSH1 0x1 PUSH1 0x0 SWAP1 SLOAD SWAP1 PUSH2 0x100 EXP SWAP1 DIV PUSH1 0x1 PUSH1 0x1 PUSH1 0xA0 SHL SUB AND PUSH1 0x1 PUSH1 0x1 PUSH1 0xA0 SHL SUB AND PUSH4 0x27C4758B PUSH1 0x40 MLOAD DUP2 PUSH4 0xFFFFFFFF AND PUSH1 0xE0 SHL DUP2 MSTORE PUSH1 0x4 ADD PUSH1 0x20 PUSH1 0x40 MLOAD DUP1 DUP4 SUB DUP2 DUP7 GAS STATICCALL ISZERO DUP1 ISZERO PUSH2 0x1541 JUMPI RETURNDATASIZE PUSH1 0x0 DUP1 RETURNDATACOPY RETURNDATASIZE PUSH1 0x0 REVERT JUMPDEST CALLER PUSH1 0x0 SWAP1 DUP2 MSTORE PUSH1 0x2 PUSH1 0x20 MSTORE PUSH1 0x40 SWAP1 KECCAK256 DUP1 SLOAD PUSH4 0xFFFFFFFF SWAP1 SWAP3 AND PUSH2 0x100 MUL PUSH5 0xFFFFFFFF00 NOT SWAP1 SWAP3 AND SWAP2 SWAP1 SWAP2 OR SWAP1 SSTORE POP JUMP JUMPDEST PUSH1 0x0 SLOAD PUSH1 0x1 PUSH1 0x1 PUSH1 0xA0 SHL SUB AND CALLER EQ PUSH2 0x17C7 JUMPI PUSH1 0x40 MLOAD PUSH3 0x461BCD PUSH1 0xE5 SHL DUP2 MSTORE PUSH1 0x4 ADD PUSH2 0x192 SWAP1 PUSH2 0x3A92 JUMP JUMPDEST PUSH1 0x1 PUSH1 0x1 PUSH1 0xA0 SHL SUB DUP2 AND PUSH2 0x182C JUMPI PUSH1 0x40 MLOAD PUSH3 0x461BCD PUSH1 0xE5 SHL DUP2 MSTORE PUSH1 0x20 PUSH1 0x4 DUP3 ADD MSTORE PUSH1 0x26 PUSH1 0x24 DUP3 ADD MSTORE PUSH32 0x4F776E61626C653A206E6577206F776E657220697320746865207A65726F2061 PUSH1 0x44 DUP3 ADD MSTORE PUSH6 0x646472657373 PUSH1 0xD0 SHL PUSH1 0x64 DUP3 ADD MSTORE PUSH1 0x84 ADD PUSH2 0x192 JUMP JUMPDEST PUSH2 0x1835 DUP2 PUSH2 0x30B5 JUMP JUMPDEST POP JUMP JUMPDEST PUSH1 0x1 SLOAD PUSH1 0x40 MLOAD PUSH4 0x1BF4604F PUSH1 0xE1 SHL DUP2 MSTORE PUSH1 0x4 DUP2 ADD DUP5 SWAP1 MSTORE PUSH1 0x0 SWAP2 PUSH1 0x1 PUSH1 0x1 PUSH1 0xA0 SHL SUB AND SWAP1 PUSH4 0x37E8C09E SWAP1 PUSH1 0x24 ADD PUSH1 0x0 PUSH1 0x40 MLOAD DUP1 DUP4 SUB DUP2 DUP7 GAS STATICCALL ISZERO DUP1 ISZERO PUSH2 0x1882 JUMPI RETURNDATASIZE PUSH1 0x0 DUP1 RETURNDATACOPY RETURNDATASIZE PUSH1 0x0 REVERT JUMPDEST POP POP POP POP PUSH1 0x40 MLOAD RETURNDATASIZE PUSH1 0x0 DUP3 RETURNDATACOPY PUSH1 0x1F RETURNDATASIZE SWAP1 DUP2 ADD PUSH1 0x1F NOT AND DUP3 ADD PUSH1 0x40 MSTORE PUSH2 0x18AA SWAP2 SWAP1 DUP2 ADD SWAP1 PUSH2 0x3862 JUMP JUMPDEST SWAP1 POP PUSH1 0x1 DUP2 PUSH1 0xC0 ADD MLOAD PUSH1 0xFF AND SUB PUSH2 0x1F2D JUMPI PUSH1 0x1 SLOAD PUSH1 0x40 MLOAD PUSH4 0xEF01E53 PUSH1 0xE2 SHL DUP2 MSTORE PUSH1 0x4 DUP2 ADD DUP6 SWAP1 MSTORE PUSH1 0x0 SWAP2 PUSH1 0x1 PUSH1 0x1 PUSH1 0xA0 SHL SUB AND SWAP1 PUSH4 0x3BC0794C SWAP1 PUSH1 0x24 ADD PUSH1 0x20 PUSH1 0x40 MLOAD DUP1 DUP4 SUB DUP2 DUP7 GAS STATICCALL ISZERO DUP1 ISZERO PUSH2 0x1905 JUMPI RETURNDATASIZE PUSH1 0x0 DUP1 RETURNDATACOPY RETURNDATASIZE PUSH1 0x0 REVERT JUMPDEST POP POP POP POP PUSH1 0x40 MLOAD RETURNDATASIZE PUSH1 0x1F NOT PUSH1 0x1F DUP3 ADD AND DUP3 ADD DUP1 PUSH1 0x40 MSTORE POP DUP2 ADD SWAP1 PUSH2 0x1929 SWAP2 SWAP1 PUSH2 0x39CD JUMP JUMPDEST PUSH1 0x1 SLOAD PUSH1 0x40 MLOAD PUSH4 0xCC0FDAF PUSH1 0xE2 SHL DUP2 MSTORE PUSH1 0x4 DUP2 ADD DUP8 SWAP1 MSTORE SWAP2 SWAP3 POP PUSH1 0x0 SWAP2 PUSH1 0x1 PUSH1 0x1 PUSH1 0xA0 SHL SUB SWAP1 SWAP2 AND SWAP1 PUSH4 0x3303F6BC SWAP1 PUSH1 0x24 ADD PUSH1 0x0 PUSH1 0x40 MLOAD DUP1 DUP4 SUB DUP2 DUP7 GAS STATICCALL ISZERO DUP1 ISZERO PUSH2 0x1978 JUMPI RETURNDATASIZE PUSH1 0x0 DUP1 RETURNDATACOPY RETURNDATASIZE PUSH1 0x0 REVERT JUMPDEST POP POP POP POP PUSH1 0x40 MLOAD RETURNDATASIZE PUSH1 0x0 DUP3 RETURNDATACOPY PUSH1 0x1F RETURNDATASIZE SWAP1 DUP2 ADD PUSH1 0x1F NOT AND DUP3 ADD PUSH1 0x40 MSTORE PUSH2 0x19A0 SWAP2 SWAP1 DUP2 ADD SWAP1 PUSH2 0x3DB4 JUMP JUMPDEST PUSH1 0x1 SLOAD PUSH1 0x40 DUP1 MLOAD DUP1 DUP3 ADD DUP3 MSTORE PUSH1 0x14 DUP2 MSTORE PUSH20 0x20A92124AA2920AA27A921A7A6A6A4A9A9A4A7A7 PUSH1 0x61 SHL PUSH1 0x20 DUP3 ADD MSTORE SWAP1 MLOAD PUSH4 0x22AD378F PUSH1 0xE2 SHL DUP2 MSTORE SWAP3 SWAP4 POP PUSH1 0x0 SWAP3 PUSH20 0x0 SWAP3 PUSH4 0x1BD95155 SWAP3 PUSH1 0x1 PUSH1 0x1 PUSH1 0xA0 SHL SUB SWAP1 SWAP2 AND SWAP2 PUSH4 0x8AB4DE3C SWAP2 PUSH2 0x1A1C SWAP2 DUP13 SWAP2 SWAP1 PUSH1 0x4 ADD PUSH2 0x3986 JUMP JUMPDEST PUSH1 0x0 PUSH1 0x40 MLOAD DUP1 DUP4 SUB DUP2 DUP7 GAS STATICCALL ISZERO DUP1 ISZERO PUSH2 0x1A39 JUMPI RETURNDATASIZE PUSH1 0x0 DUP1 RETURNDATACOPY RETURNDATASIZE PUSH1 0x0 REVERT JUMPDEST POP POP POP POP PUSH1 0x40 MLOAD RETURNDATASIZE PUSH1 0x0 DUP3 RETURNDATACOPY PUSH1 0x1F RETURNDATASIZE SWAP1 DUP2 ADD PUSH1 0x1F NOT AND DUP3 ADD PUSH1 0x40 MSTORE PUSH2 0x1A61 SWAP2 SWAP1 DUP2 ADD SWAP1 PUSH2 0x3951 JUMP JUMPDEST PUSH1 0x40 MLOAD DUP3 PUSH4 0xFFFFFFFF AND PUSH1 0xE0 SHL DUP2 MSTORE PUSH1 0x4 ADD PUSH2 0x1A7D SWAP2 SWAP1 PUSH2 0x36BC JUMP JUMPDEST PUSH1 0x20 PUSH1 0x40 MLOAD DUP1 DUP4 SUB DUP2 DUP7 GAS DELEGATECALL ISZERO DUP1 ISZERO PUSH2 0x1A9A JUMPI RETURNDATASIZE PUSH1 0x0 DUP1 RETURNDATACOPY RETURNDATASIZE PUSH1 0x0 REVERT JUMPDEST POP POP POP POP PUSH1 0x40 MLOAD RETURNDATASIZE PUSH1 0x1F NOT PUSH1 0x1F DUP3 ADD AND DUP3 ADD DUP1 PUSH1 0x40 MSTORE POP DUP2 ADD SWAP1 PUSH2 0x1ABE SWAP2 SWAP1 PUSH2 0x39CD JUMP JUMPDEST SWAP1 POP PUSH1 0x0 JUMPDEST DUP4 DUP2 LT ISZERO PUSH2 0x1DBD JUMPI PUSH20 0x0 PUSH4 0xBED34BBA DUP5 DUP4 DUP2 MLOAD DUP2 LT PUSH2 0x1AF7 JUMPI PUSH2 0x1AF7 PUSH2 0x3B7C JUMP JUMPDEST PUSH1 0x20 MUL PUSH1 0x20 ADD ADD MLOAD PUSH1 0x40 ADD MLOAD DUP9 PUSH1 0x40 MLOAD DUP4 PUSH4 0xFFFFFFFF AND PUSH1 0xE0 SHL DUP2 MSTORE PUSH1 0x4 ADD PUSH2 0x1B21 SWAP3 SWAP2 SWAP1 PUSH2 0x399F JUMP JUMPDEST PUSH1 0x20 PUSH1 0x40 MLOAD DUP1 DUP4 SUB DUP2 DUP7 GAS DELEGATECALL ISZERO DUP1 ISZERO PUSH2 0x1B3E JUMPI RETURNDATASIZE PUSH1 0x0 DUP1 RETURNDATACOPY RETURNDATASIZE PUSH1 0x0 REVERT JUMPDEST POP POP POP POP PUSH1 0x40 MLOAD RETURNDATASIZE PUSH1 0x1F NOT PUSH1 0x1F DUP3 ADD AND DUP3 ADD DUP1 PUSH1 0x40 MSTORE POP DUP2 ADD SWAP1 PUSH2 0x1B62 SWAP2 SWAP1 PUSH2 0x3742 JUMP JUMPDEST ISZERO PUSH2 0x1DAB JUMPI PUSH1 0x0 PUSH2 0x1B9D PUSH3 0x186A0 PUSH2 0xA0C PUSH1 0x64 PUSH2 0xA0C PUSH1 0x64 PUSH2 0xA0C PUSH1 0x20 PUSH2 0x1B97 DUP12 DUP16 PUSH2 0x100 ADD MLOAD PUSH2 0x2DDB SWAP1 SWAP2 SWAP1 PUSH4 0xFFFFFFFF AND JUMP JUMPDEST SWAP1 PUSH2 0x2DDB JUMP JUMPDEST PUSH1 0x1 SLOAD DUP6 MLOAD SWAP2 SWAP3 POP PUSH1 0x1 PUSH1 0x1 PUSH1 0xA0 SHL SUB AND SWAP1 PUSH4 0x21670F22 SWAP1 DUP7 SWAP1 DUP6 SWAP1 DUP2 LT PUSH2 0x1BC7 JUMPI PUSH2 0x1BC7 PUSH2 0x3B7C JUMP JUMPDEST PUSH1 0x20 MUL PUSH1 0x20 ADD ADD MLOAD PUSH1 0x20 ADD MLOAD DUP7 DUP6 DUP2 MLOAD DUP2 LT PUSH2 0x1BE5 JUMPI PUSH2 0x1BE5 PUSH2 0x3B7C JUMP JUMPDEST PUSH1 0x20 MUL PUSH1 0x20 ADD ADD MLOAD PUSH1 0x60 ADD MLOAD PUSH1 0x40 MLOAD DUP4 PUSH4 0xFFFFFFFF AND PUSH1 0xE0 SHL DUP2 MSTORE PUSH1 0x4 ADD PUSH2 0x1C0E SWAP3 SWAP2 SWAP1 PUSH2 0x39E6 JUMP JUMPDEST PUSH1 0x20 PUSH1 0x40 MLOAD DUP1 DUP4 SUB DUP2 PUSH1 0x0 DUP8 GAS CALL ISZERO DUP1 ISZERO PUSH2 0x1C2D JUMPI RETURNDATASIZE PUSH1 0x0 DUP1 RETURNDATACOPY RETURNDATASIZE PUSH1 0x0 REVERT JUMPDEST POP POP POP POP PUSH1 0x40 MLOAD RETURNDATASIZE PUSH1 0x1F NOT PUSH1 0x1F DUP3 ADD AND DUP3 ADD DUP1 PUSH1 0x40 MSTORE POP DUP2 ADD SWAP1 PUSH2 0x1C51 SWAP2 SWAP1 PUSH2 0x3742 JUMP JUMPDEST POP PUSH2 0x1C5A PUSH2 0x3241 JUMP JUMPDEST ISZERO PUSH2 0x1D11 JUMPI PUSH1 0x1 SLOAD DUP5 MLOAD PUSH1 0x1 PUSH1 0x1 PUSH1 0xA0 SHL SUB SWAP1 SWAP2 AND SWAP1 PUSH4 0x283760FA SWAP1 DUP7 SWAP1 DUP6 SWAP1 DUP2 LT PUSH2 0x1C88 JUMPI PUSH2 0x1C88 PUSH2 0x3B7C JUMP JUMPDEST PUSH1 0x20 MUL PUSH1 0x20 ADD ADD MLOAD PUSH1 0x20 ADD MLOAD DUP4 PUSH1 0x40 MLOAD DUP4 PUSH4 0xFFFFFFFF AND PUSH1 0xE0 SHL DUP2 MSTORE PUSH1 0x4 ADD PUSH2 0x1CB2 SWAP3 SWAP2 SWAP1 PUSH2 0x39E6 JUMP JUMPDEST PUSH1 0x20 PUSH1 0x40 MLOAD DUP1 DUP4 SUB DUP2 PUSH1 0x0 DUP8 GAS CALL ISZERO DUP1 ISZERO PUSH2 0x1CD1 JUMPI RETURNDATASIZE PUSH1 0x0 DUP1 RETURNDATACOPY RETURNDATASIZE PUSH1 0x0 REVERT JUMPDEST POP POP POP POP PUSH1 0x40 MLOAD RETURNDATASIZE PUSH1 0x1F NOT PUSH1 0x1F DUP3 ADD AND DUP3 ADD DUP1 PUSH1 0x40 MSTORE POP DUP2 ADD SWAP1 PUSH2 0x1CF5 SWAP2 SWAP1 PUSH2 0x3742 JUMP JUMPDEST POP PUSH2 0x120 DUP7 ADD MLOAD PUSH2 0x1D06 SWAP1 DUP3 PUSH2 0x332D JUMP JUMPDEST PUSH2 0x120 DUP8 ADD MSTORE PUSH2 0x1DA9 JUMP JUMPDEST PUSH1 0x1 SLOAD DUP5 MLOAD PUSH1 0x1 PUSH1 0x1 PUSH1 0xA0 SHL SUB SWAP1 SWAP2 AND SWAP1 PUSH4 0x21670F22 SWAP1 DUP7 SWAP1 DUP6 SWAP1 DUP2 LT PUSH2 0x1D3A JUMPI PUSH2 0x1D3A PUSH2 0x3B7C JUMP JUMPDEST PUSH1 0x20 MUL PUSH1 0x20 ADD ADD MLOAD PUSH1 0x20 ADD MLOAD DUP4 PUSH1 0x40 MLOAD DUP4 PUSH4 0xFFFFFFFF AND PUSH1 0xE0 SHL DUP2 MSTORE PUSH1 0x4 ADD PUSH2 0x1D64 SWAP3 SWAP2 SWAP1 PUSH2 0x39E6 JUMP JUMPDEST PUSH1 0x20 PUSH1 0x40 MLOAD DUP1 DUP4 SUB DUP2 PUSH1 0x0 DUP8 GAS CALL ISZERO DUP1 ISZERO PUSH2 0x1D83 JUMPI RETURNDATASIZE PUSH1 0x0 DUP1 RETURNDATACOPY RETURNDATASIZE PUSH1 0x0 REVERT JUMPDEST POP POP POP POP PUSH1 0x40 MLOAD RETURNDATASIZE PUSH1 0x1F NOT PUSH1 0x1F DUP3 ADD AND DUP3 ADD DUP1 PUSH1 0x40 MSTORE POP DUP2 ADD SWAP1 PUSH2 0x1DA7 SWAP2 SWAP1 PUSH2 0x3742 JUMP JUMPDEST POP JUMPDEST POP JUMPDEST DUP1 PUSH2 0x1DB5 DUP2 PUSH2 0x3C89 JUMP JUMPDEST SWAP2 POP POP PUSH2 0x1AC3 JUMP JUMPDEST POP PUSH1 0x0 PUSH2 0x1DEF PUSH3 0x186A0 PUSH2 0xA0C PUSH1 0x64 PUSH2 0xA0C PUSH2 0x3E8 PUSH2 0xA0C PUSH1 0x23 PUSH2 0x1B97 DUP11 DUP15 PUSH2 0x100 ADD MLOAD PUSH2 0x2DDB SWAP1 SWAP2 SWAP1 PUSH4 0xFFFFFFFF AND JUMP JUMPDEST SWAP1 POP PUSH2 0x1DF9 PUSH2 0x3241 JUMP JUMPDEST ISZERO PUSH2 0x1E9E JUMPI PUSH1 0x1 SLOAD PUSH1 0x1 PUSH1 0x1 PUSH1 0xA0 SHL SUB AND PUSH4 0x283760FA PUSH2 0x1E21 PUSH1 0x0 SLOAD PUSH1 0x1 PUSH1 0x1 PUSH1 0xA0 SHL SUB AND SWAP1 JUMP JUMPDEST DUP4 PUSH1 0x40 MLOAD DUP4 PUSH4 0xFFFFFFFF AND PUSH1 0xE0 SHL DUP2 MSTORE PUSH1 0x4 ADD PUSH2 0x1E3F SWAP3 SWAP2 SWAP1 PUSH2 0x39E6 JUMP JUMPDEST PUSH1 0x20 PUSH1 0x40 MLOAD DUP1 DUP4 SUB DUP2 PUSH1 0x0 DUP8 GAS CALL ISZERO DUP1 ISZERO PUSH2 0x1E5E JUMPI RETURNDATASIZE PUSH1 0x0 DUP1 RETURNDATACOPY RETURNDATASIZE PUSH1 0x0 REVERT JUMPDEST POP POP POP POP PUSH1 0x40 MLOAD RETURNDATASIZE PUSH1 0x1F NOT PUSH1 0x1F DUP3 ADD AND DUP3 ADD DUP1 PUSH1 0x40 MSTORE POP DUP2 ADD SWAP1 PUSH2 0x1E82 SWAP2 SWAP1 PUSH2 0x3742 JUMP JUMPDEST POP PUSH2 0x120 DUP6 ADD MLOAD PUSH2 0x1E93 SWAP1 DUP3 PUSH2 0x332D JUMP JUMPDEST PUSH2 0x120 DUP7 ADD MSTORE PUSH2 0x1F24 JUMP JUMPDEST PUSH1 0x1 SLOAD PUSH1 0x1 PUSH1 0x1 PUSH1 0xA0 SHL SUB AND PUSH4 0x21670F22 PUSH2 0x1EC1 PUSH1 0x0 SLOAD PUSH1 0x1 PUSH1 0x1 PUSH1 0xA0 SHL SUB AND SWAP1 JUMP JUMPDEST DUP4 PUSH1 0x40 MLOAD DUP4 PUSH4 0xFFFFFFFF AND PUSH1 0xE0 SHL DUP2 MSTORE PUSH1 0x4 ADD PUSH2 0x1EDF SWAP3 SWAP2 SWAP1 PUSH2 0x39E6 JUMP JUMPDEST PUSH1 0x20 PUSH1 0x40 MLOAD DUP1 DUP4 SUB DUP2 PUSH1 0x0 DUP8 GAS CALL ISZERO DUP1 ISZERO PUSH2 0x1EFE JUMPI RETURNDATASIZE PUSH1 0x0 DUP1 RETURNDATACOPY RETURNDATASIZE PUSH1 0x0 REVERT JUMPDEST POP POP POP POP PUSH1 0x40 MLOAD RETURNDATASIZE PUSH1 0x1F NOT PUSH1 0x1F DUP3 ADD AND DUP3 ADD DUP1 PUSH1 0x40 MSTORE POP DUP2 ADD SWAP1 PUSH2 0x1F22 SWAP2 SWAP1 PUSH2 0x3742 JUMP JUMPDEST POP JUMPDEST POP POP POP POP PUSH2 0x23EB JUMP JUMPDEST PUSH1 0x1 SLOAD PUSH1 0x40 DUP1 MLOAD DUP1 DUP3 ADD DUP3 MSTORE PUSH1 0x14 DUP2 MSTORE PUSH20 0x20A92124AA2920AA27A921A7A6A6A4A9A9A4A7A7 PUSH1 0x61 SHL PUSH1 0x20 DUP3 ADD MSTORE SWAP1 MLOAD PUSH4 0x22AD378F PUSH1 0xE2 SHL DUP2 MSTORE PUSH1 0x0 SWAP3 PUSH20 0x0 SWAP3 PUSH4 0x1BD95155 SWAP3 PUSH1 0x1 PUSH1 0x1 PUSH1 0xA0 SHL SUB SWAP1 SWAP3 AND SWAP2 PUSH4 0x8AB4DE3C SWAP2 PUSH2 0x1FA6 SWAP2 DUP11 SWAP2 SWAP1 PUSH1 0x4 ADD PUSH2 0x3986 JUMP JUMPDEST PUSH1 0x0 PUSH1 0x40 MLOAD DUP1 DUP4 SUB DUP2 DUP7 GAS STATICCALL ISZERO DUP1 ISZERO PUSH2 0x1FC3 JUMPI RETURNDATASIZE PUSH1 0x0 DUP1 RETURNDATACOPY RETURNDATASIZE PUSH1 0x0 REVERT JUMPDEST POP POP POP POP PUSH1 0x40 MLOAD RETURNDATASIZE PUSH1 0x0 DUP3 RETURNDATACOPY PUSH1 0x1F RETURNDATASIZE SWAP1 DUP2 ADD PUSH1 0x1F NOT AND DUP3 ADD PUSH1 0x40 MSTORE PUSH2 0x1FEB SWAP2 SWAP1 DUP2 ADD SWAP1 PUSH2 0x3951 JUMP JUMPDEST PUSH1 0x40 MLOAD DUP3 PUSH4 0xFFFFFFFF AND PUSH1 0xE0 SHL DUP2 MSTORE PUSH1 0x4 ADD PUSH2 0x2007 SWAP2 SWAP1 PUSH2 0x36BC JUMP JUMPDEST PUSH1 0x20 PUSH1 0x40 MLOAD DUP1 DUP4 SUB DUP2 DUP7 GAS DELEGATECALL ISZERO DUP1 ISZERO PUSH2 0x2024 JUMPI RETURNDATASIZE PUSH1 0x0 DUP1 RETURNDATACOPY RETURNDATASIZE PUSH1 0x0 REVERT JUMPDEST POP POP POP POP PUSH1 0x40 MLOAD RETURNDATASIZE PUSH1 0x1F NOT PUSH1 0x1F DUP3 ADD AND DUP3 ADD DUP1 PUSH1 0x40 MSTORE POP DUP2 ADD SWAP1 PUSH2 0x2048 SWAP2 SWAP1 PUSH2 0x39CD JUMP JUMPDEST PUSH1 0x1 SLOAD PUSH1 0x40 DUP1 MLOAD DUP1 DUP3 ADD DUP3 MSTORE PUSH1 0xA DUP2 MSTORE PUSH10 0x20A92124AA2920AA27A9 PUSH1 0xB1 SHL PUSH1 0x20 DUP3 ADD MSTORE SWAP1 MLOAD PUSH4 0x22AD378F PUSH1 0xE2 SHL DUP2 MSTORE SWAP3 SWAP4 POP PUSH1 0x0 SWAP3 PUSH2 0x20E9 SWAP3 PUSH1 0x1 PUSH1 0x1 PUSH1 0xA0 SHL SUB AND SWAP2 PUSH4 0x8AB4DE3C SWAP2 PUSH2 0x209F SWAP2 DUP11 SWAP2 PUSH1 0x4 ADD PUSH2 0x3986 JUMP JUMPDEST PUSH1 0x0 PUSH1 0x40 MLOAD DUP1 DUP4 SUB DUP2 DUP7 GAS STATICCALL ISZERO DUP1 ISZERO PUSH2 0x20BC JUMPI RETURNDATASIZE PUSH1 0x0 DUP1 RETURNDATACOPY RETURNDATASIZE PUSH1 0x0 REVERT JUMPDEST POP POP POP POP PUSH1 0x40 MLOAD RETURNDATASIZE PUSH1 0x0 DUP3 RETURNDATACOPY PUSH1 0x1F RETURNDATASIZE SWAP1 DUP2 ADD PUSH1 0x1F NOT AND DUP3 ADD PUSH1 0x40 MSTORE PUSH2 0x20E4 SWAP2 SWAP1 DUP2 ADD SWAP1 PUSH2 0x3951 JUMP JUMPDEST PUSH2 0x3339 JUMP JUMPDEST SWAP1 POP PUSH1 0x0 PUSH2 0x211C PUSH3 0x186A0 PUSH2 0xA0C PUSH1 0x64 PUSH2 0xA0C PUSH2 0x3E8 PUSH2 0xA0C PUSH1 0x23 PUSH2 0x1B97 DUP12 DUP14 PUSH2 0x100 ADD MLOAD PUSH2 0x2DDB SWAP1 SWAP2 SWAP1 PUSH4 0xFFFFFFFF AND JUMP JUMPDEST SWAP1 POP PUSH1 0x0 DUP4 GT DUP1 ISZERO PUSH2 0x2136 JUMPI POP PUSH1 0x1 PUSH1 0x1 PUSH1 0xA0 SHL SUB DUP3 AND ISZERO ISZERO JUMPDEST ISZERO PUSH2 0x2297 JUMPI PUSH1 0x0 PUSH2 0x216B PUSH3 0x186A0 PUSH2 0xA0C PUSH1 0x64 PUSH2 0xA0C PUSH1 0x64 PUSH2 0xA0C PUSH1 0x60 PUSH2 0x1B97 DUP13 DUP15 PUSH2 0x100 ADD MLOAD PUSH2 0x2DDB SWAP1 SWAP2 SWAP1 PUSH4 0xFFFFFFFF AND JUMP JUMPDEST PUSH2 0x120 DUP7 ADD MLOAD SWAP1 SWAP2 POP PUSH2 0x217E SWAP1 DUP3 PUSH2 0x332D JUMP JUMPDEST PUSH2 0x120 DUP7 ADD MSTORE PUSH1 0x1 SLOAD PUSH1 0x40 MLOAD PUSH4 0x141BB07D PUSH1 0xE1 SHL DUP2 MSTORE PUSH1 0x1 PUSH1 0x1 PUSH1 0xA0 SHL SUB SWAP1 SWAP2 AND SWAP1 PUSH4 0x283760FA SWAP1 PUSH2 0x21B6 SWAP1 DUP7 SWAP1 DUP6 SWAP1 PUSH1 0x4 ADD PUSH2 0x39E6 JUMP JUMPDEST PUSH1 0x20 PUSH1 0x40 MLOAD DUP1 DUP4 SUB DUP2 PUSH1 0x0 DUP8 GAS CALL ISZERO DUP1 ISZERO PUSH2 0x21D5 JUMPI RETURNDATASIZE PUSH1 0x0 DUP1 RETURNDATACOPY RETURNDATASIZE PUSH1 0x0 REVERT JUMPDEST POP POP POP POP PUSH1 0x40 MLOAD RETURNDATASIZE PUSH1 0x1F NOT PUSH1 0x1F DUP3 ADD AND DUP3 ADD DUP1 PUSH1 0x40 MSTORE POP DUP2 ADD SWAP1 PUSH2 0x21F9 SWAP2 SWAP1 PUSH2 0x3742 JUMP JUMPDEST POP PUSH1 0x1 SLOAD PUSH1 0x1 PUSH1 0x1 PUSH1 0xA0 SHL SUB AND PUSH4 0x283760FA PUSH2 0x221D PUSH1 0x0 SLOAD PUSH1 0x1 PUSH1 0x1 PUSH1 0xA0 SHL SUB AND SWAP1 JUMP JUMPDEST DUP5 PUSH1 0x40 MLOAD DUP4 PUSH4 0xFFFFFFFF AND PUSH1 0xE0 SHL DUP2 MSTORE PUSH1 0x4 ADD PUSH2 0x223B SWAP3 SWAP2 SWAP1 PUSH2 0x39E6 JUMP JUMPDEST PUSH1 0x20 PUSH1 0x40 MLOAD DUP1 DUP4 SUB DUP2 PUSH1 0x0 DUP8 GAS CALL ISZERO DUP1 ISZERO PUSH2 0x225A JUMPI RETURNDATASIZE PUSH1 0x0 DUP1 RETURNDATACOPY RETURNDATASIZE PUSH1 0x0 REVERT JUMPDEST POP POP POP POP PUSH1 0x40 MLOAD RETURNDATASIZE PUSH1 0x1F NOT PUSH1 0x1F DUP3 ADD AND DUP3 ADD DUP1 PUSH1 0x40 MSTORE POP DUP2 ADD SWAP1 PUSH2 0x227E SWAP2 SWAP1 PUSH2 0x3742 JUMP JUMPDEST POP PUSH2 0x120 DUP6 ADD MLOAD PUSH2 0x228F SWAP1 DUP4 PUSH2 0x332D JUMP JUMPDEST PUSH2 0x120 DUP7 ADD MSTORE POP JUMPDEST PUSH2 0x229F PUSH2 0x3241 JUMP JUMPDEST ISZERO DUP1 ISZERO PUSH2 0x22B4 JUMPI POP PUSH1 0x1 PUSH1 0x1 PUSH1 0xA0 SHL SUB DUP3 AND ISZERO ISZERO JUMPDEST ISZERO PUSH2 0x2362 JUMPI PUSH1 0x0 PUSH2 0x22E9 PUSH3 0x186A0 PUSH2 0xA0C PUSH1 0x64 PUSH2 0xA0C PUSH1 0x64 PUSH2 0xA0C PUSH1 0x20 PUSH2 0x1B97 DUP13 DUP15 PUSH2 0x100 ADD MLOAD PUSH2 0x2DDB SWAP1 SWAP2 SWAP1 PUSH4 0xFFFFFFFF AND JUMP JUMPDEST PUSH1 0x1 SLOAD PUSH1 0x40 MLOAD PUSH4 0x10B38791 PUSH1 0xE1 SHL DUP2 MSTORE SWAP2 SWAP3 POP PUSH1 0x1 PUSH1 0x1 PUSH1 0xA0 SHL SUB AND SWAP1 PUSH4 0x21670F22 SWAP1 PUSH2 0x231C SWAP1 DUP7 SWAP1 DUP6 SWAP1 PUSH1 0x4 ADD PUSH2 0x39E6 JUMP JUMPDEST PUSH1 0x20 PUSH1 0x40 MLOAD DUP1 DUP4 SUB DUP2 PUSH1 0x0 DUP8 GAS CALL ISZERO DUP1 ISZERO PUSH2 0x233B JUMPI RETURNDATASIZE PUSH1 0x0 DUP1 RETURNDATACOPY RETURNDATASIZE PUSH1 0x0 REVERT JUMPDEST POP POP POP POP PUSH1 0x40 MLOAD RETURNDATASIZE PUSH1 0x1F NOT PUSH1 0x1F DUP3 ADD AND DUP3 ADD DUP1 PUSH1 0x40 MSTORE POP DUP2 ADD SWAP1 PUSH2 0x235F SWAP2 SWAP1 PUSH2 0x3742 JUMP JUMPDEST POP POP JUMPDEST PUSH1 0x1 SLOAD PUSH1 0x1 PUSH1 0x1 PUSH1 0xA0 SHL SUB AND PUSH4 0x21670F22 PUSH2 0x2385 PUSH1 0x0 SLOAD PUSH1 0x1 PUSH1 0x1 PUSH1 0xA0 SHL SUB AND SWAP1 JUMP JUMPDEST DUP4 PUSH1 0x40 MLOAD DUP4 PUSH4 0xFFFFFFFF AND PUSH1 0xE0 SHL DUP2 MSTORE PUSH1 0x4 ADD PUSH2 0x23A3 SWAP3 SWAP2 SWAP1 PUSH2 0x39E6 JUMP JUMPDEST PUSH1 0x20 PUSH1 0x40 MLOAD DUP1 DUP4 SUB DUP2 PUSH1 0x0 DUP8 GAS CALL ISZERO DUP1 ISZERO PUSH2 0x23C2 JUMPI RETURNDATASIZE PUSH1 0x0 DUP1 RETURNDATACOPY RETURNDATASIZE PUSH1 0x0 REVERT JUMPDEST POP POP POP POP PUSH1 0x40 MLOAD RETURNDATASIZE PUSH1 0x1F NOT PUSH1 0x1F DUP3 ADD AND DUP3 ADD DUP1 PUSH1 0x40 MSTORE POP DUP2 ADD SWAP1 PUSH2 0x23E6 SWAP2 SWAP1 PUSH2 0x3742 JUMP JUMPDEST POP POP POP POP JUMPDEST PUSH2 0x120 DUP2 ADD DUP1 MLOAD PUSH1 0x0 SWAP1 SWAP2 MSTORE PUSH1 0x4 PUSH1 0xE0 DUP4 ADD DUP2 SWAP1 MSTORE PUSH1 0x1 SLOAD PUSH1 0x40 MLOAD PUSH4 0x293E2397 PUSH1 0xE1 SHL DUP2 MSTORE PUSH1 0x1 PUSH1 0x1 PUSH1 0xA0 SHL SUB SWAP1 SWAP2 AND SWAP2 PUSH4 0x527C472E SWAP2 PUSH2 0x242E SWAP2 DUP7 SWAP2 ADD PUSH2 0x3EC5 JUMP JUMPDEST PUSH1 0x20 PUSH1 0x40 MLOAD DUP1 DUP4 SUB DUP2 PUSH1 0x0 DUP8 GAS CALL ISZERO DUP1 ISZERO PUSH2 0x244D JUMPI RETURNDATASIZE PUSH1 0x0 DUP1 RETURNDATACOPY RETURNDATASIZE PUSH1 0x0 REVERT JUMPDEST POP POP POP POP PUSH1 0x40 MLOAD RETURNDATASIZE PUSH1 0x1F NOT PUSH1 0x1F DUP3 ADD AND DUP3 ADD DUP1 PUSH1 0x40 MSTORE POP DUP2 ADD SWAP1 PUSH2 0x2471 SWAP2 SWAP1 PUSH2 0x3742 JUMP JUMPDEST POP PUSH1 0x1 SLOAD PUSH1 0x40 DUP1 MLOAD DUP1 DUP3 ADD DUP3 MSTORE PUSH1 0xE DUP2 MSTORE PUSH14 0x43414E43454C5343454E4152494F PUSH1 0x90 SHL PUSH1 0x20 DUP3 ADD MSTORE SWAP1 MLOAD PUSH4 0x203A6BFD PUSH1 0xE0 SHL DUP2 MSTORE PUSH1 0x1 PUSH1 0x1 PUSH1 0xA0 SHL SUB SWAP1 SWAP3 AND SWAP2 PUSH4 0x203A6BFD SWAP2 PUSH2 0x24C8 SWAP2 DUP9 SWAP2 SWAP1 DUP9 SWAP1 PUSH1 0x4 ADD PUSH2 0x3F80 JUMP JUMPDEST PUSH1 0x20 PUSH1 0x40 MLOAD DUP1 DUP4 SUB DUP2 PUSH1 0x0 DUP8 GAS CALL ISZERO DUP1 ISZERO PUSH2 0x24E7 JUMPI RETURNDATASIZE PUSH1 0x0 DUP1 RETURNDATACOPY RETURNDATASIZE PUSH1 0x0 REVERT JUMPDEST POP POP POP POP PUSH1 0x40 MLOAD RETURNDATASIZE PUSH1 0x1F NOT PUSH1 0x1F DUP3 ADD AND DUP3 ADD DUP1 PUSH1 0x40 MSTORE POP DUP2 ADD SWAP1 PUSH2 0x250B SWAP2 SWAP1 PUSH2 0x3742 JUMP JUMPDEST POP PUSH1 0x1 SLOAD PUSH1 0x40 DUP1 MLOAD DUP1 DUP3 ADD DUP3 MSTORE PUSH1 0xC DUP2 MSTORE PUSH12 0x50454E44494E475155455545 PUSH1 0xA0 SHL PUSH1 0x20 DUP3 ADD MSTORE SWAP1 MLOAD PUSH4 0x22AD378F PUSH1 0xE2 SHL DUP2 MSTORE PUSH1 0x0 SWAP3 PUSH20 0x0 SWAP3 PUSH4 0x1BD95155 SWAP3 PUSH1 0x1 PUSH1 0x1 PUSH1 0xA0 SHL SUB SWAP1 SWAP3 AND SWAP2 PUSH4 0x8AB4DE3C SWAP2 PUSH2 0x257D SWAP2 DUP12 SWAP2 SWAP1 PUSH1 0x4 ADD PUSH2 0x3986 JUMP JUMPDEST PUSH1 0x0 PUSH1 0x40 MLOAD DUP1 DUP4 SUB DUP2 DUP7 GAS STATICCALL ISZERO DUP1 ISZERO PUSH2 0x259A JUMPI RETURNDATASIZE PUSH1 0x0 DUP1 RETURNDATACOPY RETURNDATASIZE PUSH1 0x0 REVERT JUMPDEST POP POP POP POP PUSH1 0x40 MLOAD RETURNDATASIZE PUSH1 0x0 DUP3 RETURNDATACOPY PUSH1 0x1F RETURNDATASIZE SWAP1 DUP2 ADD PUSH1 0x1F NOT AND DUP3 ADD PUSH1 0x40 MSTORE PUSH2 0x25C2 SWAP2 SWAP1 DUP2 ADD SWAP1 PUSH2 0x3951 JUMP JUMPDEST PUSH1 0x40 MLOAD DUP3 PUSH4 0xFFFFFFFF AND PUSH1 0xE0 SHL DUP2 MSTORE PUSH1 0x4 ADD PUSH2 0x25DE SWAP2 SWAP1 PUSH2 0x36BC JUMP JUMPDEST PUSH1 0x20 PUSH1 0x40 MLOAD DUP1 DUP4 SUB DUP2 DUP7 GAS DELEGATECALL ISZERO DUP1 ISZERO PUSH2 0x25FB JUMPI RETURNDATASIZE PUSH1 0x0 DUP1 RETURNDATACOPY RETURNDATASIZE PUSH1 0x0 REVERT JUMPDEST POP POP POP POP PUSH1 0x40 MLOAD RETURNDATASIZE PUSH1 0x1F NOT PUSH1 0x1F DUP3 ADD AND DUP3 ADD DUP1 PUSH1 0x40 MSTORE POP DUP2 ADD SWAP1 PUSH2 0x261F SWAP2 SWAP1 PUSH2 0x39CD JUMP JUMPDEST PUSH1 0x1 SLOAD PUSH1 0x40 MLOAD PUSH4 0x616E229D PUSH1 0xE1 SHL DUP2 MSTORE PUSH4 0xFFFFFFFF DUP4 AND PUSH1 0x4 DUP3 ADD MSTORE SWAP2 SWAP3 POP PUSH1 0x0 SWAP2 PUSH1 0x1 PUSH1 0x1 PUSH1 0xA0 SHL SUB SWAP1 SWAP2 AND SWAP1 PUSH4 0xC2DC453A SWAP1 PUSH1 0x24 ADD PUSH1 0x20 PUSH1 0x40 MLOAD DUP1 DUP4 SUB DUP2 DUP7 GAS STATICCALL ISZERO DUP1 ISZERO PUSH2 0x2673 JUMPI RETURNDATASIZE PUSH1 0x0 DUP1 RETURNDATACOPY RETURNDATASIZE PUSH1 0x0 REVERT JUMPDEST POP POP POP POP PUSH1 0x40 MLOAD RETURNDATASIZE PUSH1 0x1F NOT PUSH1 0x1F DUP3 ADD AND DUP3 ADD DUP1 PUSH1 0x40 MSTORE POP DUP2 ADD SWAP1 PUSH2 0x2697 SWAP2 SWAP1 PUSH2 0x39CD JUMP JUMPDEST PUSH1 0x1 SLOAD PUSH1 0x40 MLOAD PUSH4 0xCA5D5B57 PUSH1 0xE0 SHL DUP2 MSTORE PUSH1 0x4 DUP2 ADD DUP4 SWAP1 MSTORE PUSH1 0x24 DUP2 ADD DUP10 SWAP1 MSTORE SWAP2 SWAP3 POP PUSH1 0x1 PUSH1 0x1 PUSH1 0xA0 SHL SUB AND SWAP1 PUSH4 0xCA5D5B57 SWAP1 PUSH1 0x44 ADD PUSH1 0x0 PUSH1 0x40 MLOAD DUP1 DUP4 SUB DUP2 PUSH1 0x0 DUP8 DUP1 EXTCODESIZE ISZERO DUP1 ISZERO PUSH2 0x26E5 JUMPI PUSH1 0x0 DUP1 REVERT JUMPDEST POP GAS CALL ISZERO DUP1 ISZERO PUSH2 0x26F9 JUMPI RETURNDATASIZE PUSH1 0x0 DUP1 RETURNDATACOPY RETURNDATASIZE PUSH1 0x0 REVERT JUMPDEST POP POP PUSH1 0x40 DUP1 MLOAD DUP1 DUP3 ADD DUP3 MSTORE PUSH1 0x9 DUP2 MSTORE PUSH9 0x10D05390D153131151 PUSH1 0xBA SHL PUSH1 0x20 DUP3 ADD MSTORE SWAP1 MLOAD PUSH4 0x5F69A5DD PUSH1 0xE1 SHL DUP2 MSTORE PUSH20 0x0 SWAP4 POP PUSH4 0xBED34BBA SWAP3 POP PUSH2 0x2752 SWAP2 DUP10 SWAP2 PUSH1 0x4 ADD PUSH2 0x399F JUMP JUMPDEST PUSH1 0x20 PUSH1 0x40 MLOAD DUP1 DUP4 SUB DUP2 DUP7 GAS DELEGATECALL ISZERO DUP1 ISZERO PUSH2 0x276F JUMPI RETURNDATASIZE PUSH1 0x0 DUP1 RETURNDATACOPY RETURNDATASIZE PUSH1 0x0 REVERT JUMPDEST POP POP POP POP PUSH1 0x40 MLOAD RETURNDATASIZE PUSH1 0x1F NOT PUSH1 0x1F DUP3 ADD AND DUP3 ADD DUP1 PUSH1 0x40 MSTORE POP DUP2 ADD SWAP1 PUSH2 0x2793 SWAP2 SWAP1 PUSH2 0x3742 JUMP JUMPDEST ISZERO PUSH2 0x293D JUMPI PUSH1 0x1 SLOAD PUSH1 0x40 DUP1 MLOAD DUP1 DUP3 ADD DUP3 MSTORE PUSH1 0x5 DUP2 MSTORE PUSH5 0x4245544545 PUSH1 0xD8 SHL PUSH1 0x20 DUP3 ADD MSTORE SWAP1 MLOAD PUSH4 0x22AD378F PUSH1 0xE2 SHL DUP2 MSTORE PUSH1 0x0 SWAP3 PUSH1 0x1 PUSH1 0x1 PUSH1 0xA0 SHL SUB AND SWAP2 PUSH4 0x8AB4DE3C SWAP2 PUSH2 0x27E3 SWAP2 DUP12 SWAP2 PUSH1 0x4 ADD PUSH2 0x3986 JUMP JUMPDEST PUSH1 0x0 PUSH1 0x40 MLOAD DUP1 DUP4 SUB DUP2 DUP7 GAS STATICCALL ISZERO DUP1 ISZERO PUSH2 0x2800 JUMPI RETURNDATASIZE PUSH1 0x0 DUP1 RETURNDATACOPY RETURNDATASIZE PUSH1 0x0 REVERT JUMPDEST POP POP POP POP PUSH1 0x40 MLOAD RETURNDATASIZE PUSH1 0x0 DUP3 RETURNDATACOPY PUSH1 0x1F RETURNDATASIZE SWAP1 DUP2 ADD PUSH1 0x1F NOT AND DUP3 ADD PUSH1 0x40 MSTORE PUSH2 0x2828 SWAP2 SWAP1 DUP2 ADD SWAP1 PUSH2 0x3951 JUMP JUMPDEST PUSH1 0x1 SLOAD SWAP1 SWAP2 POP PUSH1 0x1 PUSH1 0x1 PUSH1 0xA0 SHL SUB AND PUSH4 0x283760FA PUSH2 0x2845 DUP4 PUSH2 0x3339 JUMP JUMPDEST PUSH2 0x2850 DUP8 PUSH1 0x2 PUSH2 0x2DF0 JUMP JUMPDEST PUSH1 0x40 MLOAD DUP4 PUSH4 0xFFFFFFFF AND PUSH1 0xE0 SHL DUP2 MSTORE PUSH1 0x4 ADD PUSH2 0x286D SWAP3 SWAP2 SWAP1 PUSH2 0x39E6 JUMP JUMPDEST PUSH1 0x20 PUSH1 0x40 MLOAD DUP1 DUP4 SUB DUP2 PUSH1 0x0 DUP8 GAS CALL ISZERO DUP1 ISZERO PUSH2 0x288C JUMPI RETURNDATASIZE PUSH1 0x0 DUP1 RETURNDATACOPY RETURNDATASIZE PUSH1 0x0 REVERT JUMPDEST POP POP POP POP PUSH1 0x40 MLOAD RETURNDATASIZE PUSH1 0x1F NOT PUSH1 0x1F DUP3 ADD AND DUP3 ADD DUP1 PUSH1 0x40 MSTORE POP DUP2 ADD SWAP1 PUSH2 0x28B0 SWAP2 SWAP1 PUSH2 0x3742 JUMP JUMPDEST POP PUSH1 0x1 SLOAD PUSH1 0x40 DUP7 ADD MLOAD PUSH1 0x1 PUSH1 0x1 PUSH1 0xA0 SHL SUB SWAP1 SWAP2 AND SWAP1 PUSH4 0x283760FA SWAP1 PUSH2 0x28D6 DUP8 PUSH1 0x2 PUSH2 0x2DF0 JUMP JUMPDEST PUSH1 0x40 MLOAD DUP4 PUSH4 0xFFFFFFFF AND PUSH1 0xE0 SHL DUP2 MSTORE PUSH1 0x4 ADD PUSH2 0x28F3 SWAP3 SWAP2 SWAP1 PUSH2 0x39E6 JUMP JUMPDEST PUSH1 0x20 PUSH1 0x40 MLOAD DUP1 DUP4 SUB DUP2 PUSH1 0x0 DUP8 GAS CALL ISZERO DUP1 ISZERO PUSH2 0x2912 JUMPI RETURNDATASIZE PUSH1 0x0 DUP1 RETURNDATACOPY RETURNDATASIZE PUSH1 0x0 REVERT JUMPDEST POP POP POP POP PUSH1 0x40 MLOAD RETURNDATASIZE PUSH1 0x1F NOT PUSH1 0x1F DUP3 ADD AND DUP3 ADD DUP1 PUSH1 0x40 MSTORE POP DUP2 ADD SWAP1 PUSH2 0x2936 SWAP2 SWAP1 PUSH2 0x3742 JUMP JUMPDEST POP POP PUSH2 0x2C07 JUMP JUMPDEST PUSH1 0x40 DUP1 MLOAD DUP1 DUP3 ADD DUP3 MSTORE PUSH1 0xB DUP2 MSTORE PUSH11 0x21A922A0AA27A92FABA7A7 PUSH1 0xA9 SHL PUSH1 0x20 DUP3 ADD MSTORE SWAP1 MLOAD PUSH4 0x5F69A5DD PUSH1 0xE1 SHL DUP2 MSTORE PUSH20 0x0 SWAP2 PUSH4 0xBED34BBA SWAP2 PUSH2 0x2994 SWAP2 DUP10 SWAP2 PUSH1 0x4 ADD PUSH2 0x399F JUMP JUMPDEST PUSH1 0x20 PUSH1 0x40 MLOAD DUP1 DUP4 SUB DUP2 DUP7 GAS DELEGATECALL ISZERO DUP1 ISZERO PUSH2 0x29B1 JUMPI RETURNDATASIZE PUSH1 0x0 DUP1 RETURNDATACOPY RETURNDATASIZE PUSH1 0x0 REVERT JUMPDEST POP POP POP POP PUSH1 0x40 MLOAD RETURNDATASIZE PUSH1 0x1F NOT PUSH1 0x1F DUP3 ADD AND DUP3 ADD DUP1 PUSH1 0x40 MSTORE POP DUP2 ADD SWAP1 PUSH2 0x29D5 SWAP2 SWAP1 PUSH2 0x3742 JUMP JUMPDEST ISZERO PUSH2 0x2A58 JUMPI PUSH1 0x1 SLOAD PUSH1 0x40 DUP1 DUP7 ADD MLOAD SWAP1 MLOAD PUSH4 0x141BB07D PUSH1 0xE1 SHL DUP2 MSTORE PUSH1 0x1 PUSH1 0x1 PUSH1 0xA0 SHL SUB SWAP1 SWAP3 AND SWAP2 PUSH4 0x283760FA SWAP2 PUSH2 0x2A0F SWAP2 DUP8 SWAP1 PUSH1 0x4 ADD PUSH2 0x39E6 JUMP JUMPDEST PUSH1 0x20 PUSH1 0x40 MLOAD DUP1 DUP4 SUB DUP2 PUSH1 0x0 DUP8 GAS CALL ISZERO DUP1 ISZERO PUSH2 0x2A2E JUMPI RETURNDATASIZE PUSH1 0x0 DUP1 RETURNDATACOPY RETURNDATASIZE PUSH1 0x0 REVERT JUMPDEST POP POP POP POP PUSH1 0x40 MLOAD RETURNDATASIZE PUSH1 0x1F NOT PUSH1 0x1F DUP3 ADD AND DUP3 ADD DUP1 PUSH1 0x40 MSTORE POP DUP2 ADD SWAP1 PUSH2 0x2A52 SWAP2 SWAP1 PUSH2 0x3742 JUMP JUMPDEST POP PUSH2 0x2C07 JUMP JUMPDEST PUSH1 0x40 DUP1 MLOAD DUP1 DUP3 ADD DUP3 MSTORE PUSH1 0xC DUP2 MSTORE PUSH12 0x10D491505513D497D313D4D5 PUSH1 0xA2 SHL PUSH1 0x20 DUP3 ADD MSTORE SWAP1 MLOAD PUSH4 0x5F69A5DD PUSH1 0xE1 SHL DUP2 MSTORE PUSH20 0x0 SWAP2 PUSH4 0xBED34BBA SWAP2 PUSH2 0x2AB0 SWAP2 DUP10 SWAP2 PUSH1 0x4 ADD PUSH2 0x399F JUMP JUMPDEST PUSH1 0x20 PUSH1 0x40 MLOAD DUP1 DUP4 SUB DUP2 DUP7 GAS DELEGATECALL ISZERO DUP1 ISZERO PUSH2 0x2ACD JUMPI RETURNDATASIZE PUSH1 0x0 DUP1 RETURNDATACOPY RETURNDATASIZE PUSH1 0x0 REVERT JUMPDEST POP POP POP POP PUSH1 0x40 MLOAD RETURNDATASIZE PUSH1 0x1F NOT PUSH1 0x1F DUP3 ADD AND DUP3 ADD DUP1 PUSH1 0x40 MSTORE POP DUP2 ADD SWAP1 PUSH2 0x2AF1 SWAP2 SWAP1 PUSH2 0x3742 JUMP JUMPDEST ISZERO PUSH2 0x2C07 JUMPI PUSH1 0x1 SLOAD PUSH1 0x40 DUP1 MLOAD DUP1 DUP3 ADD DUP3 MSTORE PUSH1 0x5 DUP2 MSTORE PUSH5 0x4245544545 PUSH1 0xD8 SHL PUSH1 0x20 DUP3 ADD MSTORE SWAP1 MLOAD PUSH4 0x22AD378F PUSH1 0xE2 SHL DUP2 MSTORE PUSH1 0x0 SWAP3 PUSH1 0x1 PUSH1 0x1 PUSH1 0xA0 SHL SUB AND SWAP2 PUSH4 0x8AB4DE3C SWAP2 PUSH2 0x2B41 SWAP2 DUP12 SWAP2 PUSH1 0x4 ADD PUSH2 0x3986 JUMP JUMPDEST PUSH1 0x0 PUSH1 0x40 MLOAD DUP1 DUP4 SUB DUP2 DUP7 GAS STATICCALL ISZERO DUP1 ISZERO PUSH2 0x2B5E JUMPI RETURNDATASIZE PUSH1 0x0 DUP1 RETURNDATACOPY RETURNDATASIZE PUSH1 0x0 REVERT JUMPDEST POP POP POP POP PUSH1 0x40 MLOAD RETURNDATASIZE PUSH1 0x0 DUP3 RETURNDATACOPY PUSH1 0x1F RETURNDATASIZE SWAP1 DUP2 ADD PUSH1 0x1F NOT AND DUP3 ADD PUSH1 0x40 MSTORE PUSH2 0x2B86 SWAP2 SWAP1 DUP2 ADD SWAP1 PUSH2 0x3951 JUMP JUMPDEST PUSH1 0x1 SLOAD SWAP1 SWAP2 POP PUSH1 0x1 PUSH1 0x1 PUSH1 0xA0 SHL SUB AND PUSH4 0x283760FA PUSH2 0x2BA3 DUP4 PUSH2 0x3339 JUMP JUMPDEST DUP7 PUSH1 0x40 MLOAD DUP4 PUSH4 0xFFFFFFFF AND PUSH1 0xE0 SHL DUP2 MSTORE PUSH1 0x4 ADD PUSH2 0x2BC1 SWAP3 SWAP2 SWAP1 PUSH2 0x39E6 JUMP JUMPDEST PUSH1 0x20 PUSH1 0x40 MLOAD DUP1 DUP4 SUB DUP2 PUSH1 0x0 DUP8 GAS CALL ISZERO DUP1 ISZERO PUSH2 0x2BE0 JUMPI RETURNDATASIZE PUSH1 0x0 DUP1 RETURNDATACOPY RETURNDATASIZE PUSH1 0x0 REVERT JUMPDEST POP POP POP POP PUSH1 0x40 MLOAD RETURNDATASIZE PUSH1 0x1F NOT PUSH1 0x1F DUP3 ADD AND DUP3 ADD DUP1 PUSH1 0x40 MSTORE POP DUP2 ADD SWAP1 PUSH2 0x2C04 SWAP2 SWAP1 PUSH2 0x3742 JUMP JUMPDEST POP POP JUMPDEST PUSH1 0x1 PUSH1 0x0 SWAP1 SLOAD SWAP1 PUSH2 0x100 EXP SWAP1 DIV PUSH1 0x1 PUSH1 0x1 PUSH1 0xA0 SHL SUB AND PUSH1 0x1 PUSH1 0x1 PUSH1 0xA0 SHL SUB AND PUSH4 0x2FA38F9B PUSH1 0x40 MLOAD DUP2 PUSH4 0xFFFFFFFF AND PUSH1 0xE0 SHL DUP2 MSTORE PUSH1 0x4 ADD PUSH1 0x0 PUSH1 0x40 MLOAD DUP1 DUP4 SUB DUP2 PUSH1 0x0 DUP8 DUP1 EXTCODESIZE ISZERO DUP1 ISZERO PUSH2 0x2C57 JUMPI PUSH1 0x0 DUP1 REVERT JUMPDEST POP GAS CALL ISZERO DUP1 ISZERO PUSH2 0x2C6B JUMPI RETURNDATASIZE PUSH1 0x0 DUP1 RETURNDATACOPY RETURNDATASIZE PUSH1 0x0 REVERT JUMPDEST POP POP POP POP DUP6 PUSH32 0x8EDF4DED3A58729C2D2CF8C1497DDF8AB171B4136977DB72EEBE37C3DA0E65D7 DUP7 PUSH1 0x40 MLOAD PUSH2 0x2C9F SWAP2 SWAP1 PUSH2 0x36BC JUMP JUMPDEST PUSH1 0x40 MLOAD DUP1 SWAP2 SUB SWAP1 LOG2 POP POP POP POP POP POP JUMP JUMPDEST PUSH1 0x60 DUP2 PUSH1 0x0 SUB PUSH2 0x2CD6 JUMPI POP POP PUSH1 0x40 DUP1 MLOAD DUP1 DUP3 ADD SWAP1 SWAP2 MSTORE PUSH1 0x1 DUP2 MSTORE PUSH1 0x3 PUSH1 0xFC SHL PUSH1 0x20 DUP3 ADD MSTORE SWAP1 JUMP JUMPDEST DUP2 PUSH1 0x0 JUMPDEST DUP2 ISZERO PUSH2 0x2D00 JUMPI DUP1 PUSH2 0x2CEA DUP2 PUSH2 0x3C89 JUMP JUMPDEST SWAP2 POP PUSH2 0x2CF9 SWAP1 POP PUSH1 0xA DUP4 PUSH2 0x3FCB JUMP JUMPDEST SWAP2 POP PUSH2 0x2CDA JUMP JUMPDEST PUSH1 0x0 DUP2 PUSH8 0xFFFFFFFFFFFFFFFF DUP2 GT ISZERO PUSH2 0x2D1B JUMPI PUSH2 0x2D1B PUSH2 0x3526 JUMP JUMPDEST PUSH1 0x40 MLOAD SWAP1 DUP1 DUP3 MSTORE DUP1 PUSH1 0x1F ADD PUSH1 0x1F NOT AND PUSH1 0x20 ADD DUP3 ADD PUSH1 0x40 MSTORE DUP1 ISZERO PUSH2 0x2D45 JUMPI PUSH1 0x20 DUP3 ADD DUP2 DUP1 CALLDATASIZE DUP4 CALLDATACOPY ADD SWAP1 POP JUMPDEST POP SWAP1 POP DUP2 JUMPDEST DUP6 ISZERO PUSH2 0x2DD2 JUMPI PUSH2 0x2D5B PUSH1 0x1 DUP3 PUSH2 0x3FDF JUMP JUMPDEST SWAP1 POP PUSH1 0x0 PUSH2 0x2D6A PUSH1 0xA DUP9 PUSH2 0x3FCB JUMP JUMPDEST PUSH2 0x2D75 SWAP1 PUSH1 0xA PUSH2 0x3FF2 JUMP JUMPDEST PUSH2 0x2D7F SWAP1 DUP9 PUSH2 0x3FDF JUMP JUMPDEST PUSH2 0x2D8A SWAP1 PUSH1 0x30 PUSH2 0x4009 JUMP JUMPDEST SWAP1 POP PUSH1 0x0 DUP2 PUSH1 0xF8 SHL SWAP1 POP DUP1 DUP5 DUP5 DUP2 MLOAD DUP2 LT PUSH2 0x2DA7 JUMPI PUSH2 0x2DA7 PUSH2 0x3B7C JUMP JUMPDEST PUSH1 0x20 ADD ADD SWAP1 PUSH1 0x1 PUSH1 0x1 PUSH1 0xF8 SHL SUB NOT AND SWAP1 DUP2 PUSH1 0x0 BYTE SWAP1 MSTORE8 POP PUSH2 0x2DC9 PUSH1 0xA DUP10 PUSH2 0x3FCB JUMP JUMPDEST SWAP8 POP POP POP PUSH2 0x2D4A JUMP JUMPDEST POP SWAP5 SWAP4 POP POP POP POP JUMP JUMPDEST PUSH1 0x0 PUSH2 0x2DE7 DUP3 DUP5 PUSH2 0x3FF2 JUMP JUMPDEST SWAP1 POP JUMPDEST SWAP3 SWAP2 POP POP JUMP JUMPDEST PUSH1 0x0 PUSH2 0x2DE7 DUP3 DUP5 PUSH2 0x3FCB JUMP JUMPDEST PUSH1 0x1 SLOAD PUSH1 0x40 MLOAD PUSH4 0xEF01E53 PUSH1 0xE2 SHL DUP2 MSTORE PUSH1 0x4 DUP2 ADD DUP4 SWAP1 MSTORE PUSH1 0x0 SWAP2 PUSH1 0x1 PUSH1 0x1 PUSH1 0xA0 SHL SUB AND SWAP1 PUSH4 0x3BC0794C SWAP1 PUSH1 0x24 ADD PUSH1 0x20 PUSH1 0x40 MLOAD DUP1 DUP4 SUB DUP2 DUP7 GAS STATICCALL ISZERO DUP1 ISZERO PUSH2 0x2E46 JUMPI RETURNDATASIZE PUSH1 0x0 DUP1 RETURNDATACOPY RETURNDATASIZE PUSH1 0x0 REVERT JUMPDEST POP POP POP POP PUSH1 0x40 MLOAD RETURNDATASIZE PUSH1 0x1F NOT PUSH1 0x1F DUP3 ADD AND DUP3 ADD DUP1 PUSH1 0x40 MSTORE POP DUP2 ADD SWAP1 PUSH2 0x2E6A SWAP2 SWAP1 PUSH2 0x39CD JUMP JUMPDEST SWAP1 POP PUSH1 0x2 DUP2 GT ISZERO PUSH2 0x3014 JUMPI PUSH1 0x1 SLOAD PUSH1 0x40 MLOAD PUSH4 0xCC0FDAF PUSH1 0xE2 SHL DUP2 MSTORE PUSH1 0x4 DUP2 ADD DUP5 SWAP1 MSTORE PUSH1 0x0 SWAP2 PUSH1 0x1 PUSH1 0x1 PUSH1 0xA0 SHL SUB AND SWAP1 PUSH4 0x3303F6BC SWAP1 PUSH1 0x24 ADD PUSH1 0x0 PUSH1 0x40 MLOAD DUP1 DUP4 SUB DUP2 DUP7 GAS STATICCALL ISZERO DUP1 ISZERO PUSH2 0x2EBF JUMPI RETURNDATASIZE PUSH1 0x0 DUP1 RETURNDATACOPY RETURNDATASIZE PUSH1 0x0 REVERT JUMPDEST POP POP POP POP PUSH1 0x40 MLOAD RETURNDATASIZE PUSH1 0x0 DUP3 RETURNDATACOPY PUSH1 0x1F RETURNDATASIZE SWAP1 DUP2 ADD PUSH1 0x1F NOT AND DUP3 ADD PUSH1 0x40 MSTORE PUSH2 0x2EE7 SWAP2 SWAP1 DUP2 ADD SWAP1 PUSH2 0x3DB4 JUMP JUMPDEST SWAP1 POP PUSH20 0x0 PUSH4 0x9A223F9 DUP3 PUSH2 0x2F0F PUSH1 0x2 DUP7 PUSH2 0x3FDF JUMP JUMPDEST DUP2 MLOAD DUP2 LT PUSH2 0x2F1F JUMPI PUSH2 0x2F1F PUSH2 0x3B7C JUMP JUMPDEST PUSH1 0x20 MUL PUSH1 0x20 ADD ADD MLOAD PUSH1 0x40 ADD MLOAD DUP4 PUSH1 0x1 DUP7 PUSH2 0x2F39 SWAP2 SWAP1 PUSH2 0x3FDF JUMP JUMPDEST DUP2 MLOAD DUP2 LT PUSH2 0x2F49 JUMPI PUSH2 0x2F49 PUSH2 0x3B7C JUMP JUMPDEST PUSH1 0x20 MUL PUSH1 0x20 ADD ADD MLOAD PUSH1 0x40 ADD MLOAD DUP5 PUSH1 0x3 DUP8 PUSH2 0x2F63 SWAP2 SWAP1 PUSH2 0x3FDF JUMP JUMPDEST DUP2 MLOAD DUP2 LT PUSH2 0x2F73 JUMPI PUSH2 0x2F73 PUSH2 0x3B7C JUMP JUMPDEST PUSH1 0x20 MUL PUSH1 0x20 ADD ADD MLOAD PUSH1 0x40 ADD MLOAD PUSH1 0x40 MLOAD DUP5 PUSH4 0xFFFFFFFF AND PUSH1 0xE0 SHL DUP2 MSTORE PUSH1 0x4 ADD PUSH2 0x2F9D SWAP4 SWAP3 SWAP2 SWAP1 PUSH2 0x4022 JUMP JUMPDEST PUSH1 0x20 PUSH1 0x40 MLOAD DUP1 DUP4 SUB DUP2 DUP7 GAS DELEGATECALL ISZERO DUP1 ISZERO PUSH2 0x2FBA JUMPI RETURNDATASIZE PUSH1 0x0 DUP1 RETURNDATACOPY RETURNDATASIZE PUSH1 0x0 REVERT JUMPDEST POP POP POP POP PUSH1 0x40 MLOAD RETURNDATASIZE PUSH1 0x1F NOT PUSH1 0x1F DUP3 ADD AND DUP3 ADD DUP1 PUSH1 0x40 MSTORE POP DUP2 ADD SWAP1 PUSH2 0x2FDE SWAP2 SWAP1 PUSH2 0x3742 JUMP JUMPDEST ISZERO PUSH2 0x68E JUMPI PUSH2 0x68E DUP4 DUP3 PUSH2 0x2FF3 PUSH1 0x1 DUP7 PUSH2 0x3FDF JUMP JUMPDEST DUP2 MLOAD DUP2 LT PUSH2 0x3003 JUMPI PUSH2 0x3003 PUSH2 0x3B7C JUMP JUMPDEST PUSH1 0x20 MUL PUSH1 0x20 ADD ADD MLOAD PUSH1 0x40 ADD MLOAD PUSH2 0x1838 JUMP JUMPDEST POP POP JUMP JUMPDEST PUSH1 0x0 SLOAD PUSH1 0x1 PUSH1 0xA0 SHL SWAP1 DIV PUSH1 0xFF AND PUSH2 0x3068 JUMPI PUSH1 0x40 MLOAD PUSH3 0x461BCD PUSH1 0xE5 SHL DUP2 MSTORE PUSH1 0x20 PUSH1 0x4 DUP3 ADD MSTORE PUSH1 0x14 PUSH1 0x24 DUP3 ADD MSTORE PUSH20 0x14185D5CD8589B194E881B9BDD081C185D5CD959 PUSH1 0x62 SHL PUSH1 0x44 DUP3 ADD MSTORE PUSH1 0x64 ADD PUSH2 0x192 JUMP JUMPDEST PUSH1 0x0 DUP1 SLOAD PUSH1 0xFF PUSH1 0xA0 SHL NOT AND SWAP1 SSTORE PUSH32 0x5DB9EE0A495BF2E6FF9C91A7834C1BA4FDD244A5E8AA4E537BD38AEAE4B073AA CALLER JUMPDEST PUSH1 0x40 MLOAD PUSH1 0x1 PUSH1 0x1 PUSH1 0xA0 SHL SUB SWAP1 SWAP2 AND DUP2 MSTORE PUSH1 0x20 ADD PUSH1 0x40 MLOAD DUP1 SWAP2 SUB SWAP1 LOG1 JUMP JUMPDEST PUSH1 0x0 DUP1 SLOAD PUSH1 0x1 PUSH1 0x1 PUSH1 0xA0 SHL SUB DUP4 DUP2 AND PUSH1 0x1 PUSH1 0x1 PUSH1 0xA0 SHL SUB NOT DUP4 AND DUP2 OR DUP5 SSTORE PUSH1 0x40 MLOAD SWAP2 SWAP1 SWAP3 AND SWAP3 DUP4 SWAP2 PUSH32 0x8BE0079C531659141344CD1FD0A4F28419497F9722A3DAAFE3B4186F6B6457E0 SWAP2 SWAP1 LOG3 POP POP JUMP JUMPDEST PUSH1 0x0 SLOAD PUSH1 0x1 PUSH1 0xA0 SHL SWAP1 DIV PUSH1 0xFF AND ISZERO PUSH2 0x3152 JUMPI PUSH1 0x40 MLOAD PUSH3 0x461BCD PUSH1 0xE5 SHL DUP2 MSTORE PUSH1 0x20 PUSH1 0x4 DUP3 ADD MSTORE PUSH1 0x10 PUSH1 0x24 DUP3 ADD MSTORE PUSH16 0x14185D5CD8589B194E881C185D5CD959 PUSH1 0x82 SHL PUSH1 0x44 DUP3 ADD MSTORE PUSH1 0x64 ADD PUSH2 0x192 JUMP JUMPDEST PUSH1 0x0 DUP1 SLOAD PUSH1 0xFF PUSH1 0xA0 SHL NOT AND PUSH1 0x1 PUSH1 0xA0 SHL OR SWAP1 SSTORE PUSH32 0x62E78CEA01BEE320CD4E420270B5EA74000D11B0C9F74754EBDBFC544B05A258 PUSH2 0x3098 CALLER SWAP1 JUMP JUMPDEST PUSH1 0x3 DUP1 SLOAD PUSH1 0x0 SWAP2 DUP3 SWAP2 PUSH4 0xFFFFFFFF DUP6 AND SWAP2 PUSH1 0xFF SWAP1 SWAP2 AND SWAP1 DUP4 PUSH2 0x31AE DUP4 PUSH2 0x405B JUMP JUMPDEST SWAP2 SWAP1 PUSH2 0x100 EXP DUP2 SLOAD DUP2 PUSH1 0xFF MUL NOT AND SWAP1 DUP4 PUSH1 0xFF AND MUL OR SWAP1 SSTORE POP PUSH1 0xFF AND NUMBER PUSH2 0x31D4 SWAP2 SWAP1 PUSH2 0x3FDF JUMP JUMPDEST PUSH1 0x40 DUP1 MLOAD SWAP2 BLOCKHASH PUSH1 0x20 DUP4 ADD MSTORE PUSH12 0xFFFFFFFFFFFFFFFFFFFFFFFF NOT PUSH1 0x60 DUP9 SWAP1 SHL AND SWAP1 DUP3 ADD MSTORE PUSH1 0x54 ADD PUSH1 0x40 MLOAD PUSH1 0x20 DUP2 DUP4 SUB SUB DUP2 MSTORE SWAP1 PUSH1 0x40 MSTORE DUP1 MLOAD SWAP1 PUSH1 0x20 ADD KECCAK256 PUSH1 0x0 SHR PUSH2 0x321D SWAP2 SWAP1 PUSH2 0x407A JUMP JUMPDEST PUSH1 0x3 SLOAD SWAP1 SWAP2 POP PUSH1 0xFA PUSH1 0xFF SWAP1 SWAP2 AND GT ISZERO PUSH2 0x2DE7 JUMPI PUSH1 0x3 DUP1 SLOAD PUSH1 0xFF NOT AND SWAP1 SSTORE SWAP4 SWAP3 POP POP POP JUMP JUMPDEST PUSH1 0x1 SLOAD PUSH1 0x40 DUP1 MLOAD PUSH4 0x20DFEEFB PUSH1 0xE2 SHL DUP2 MSTORE SWAP1 MLOAD PUSH1 0x0 SWAP3 PUSH1 0x1 PUSH1 0x1 PUSH1 0xA0 SHL SUB AND SWAP2 PUSH4 0x837FBBEC SWAP2 PUSH1 0x4 DUP1 DUP4 ADD SWAP3 PUSH1 0x20 SWAP3 SWAP2 SWAP1 DUP3 SWAP1 SUB ADD DUP2 DUP7 GAS STATICCALL ISZERO DUP1 ISZERO PUSH2 0x328B JUMPI RETURNDATASIZE PUSH1 0x0 DUP1 RETURNDATACOPY RETURNDATASIZE PUSH1 0x0 REVERT JUMPDEST POP POP POP POP PUSH1 0x40 MLOAD RETURNDATASIZE PUSH1 0x1F NOT PUSH1 0x1F DUP3 ADD AND DUP3 ADD DUP1 PUSH1 0x40 MSTORE POP DUP2 ADD SWAP1 PUSH2 0x32AF SWAP2 SWAP1 PUSH2 0x39CD JUMP JUMPDEST PUSH1 0x1 PUSH1 0x0 SWAP1 SLOAD SWAP1 PUSH2 0x100 EXP SWAP1 DIV PUSH1 0x1 PUSH1 0x1 PUSH1 0xA0 SHL SUB AND PUSH1 0x1 PUSH1 0x1 PUSH1 0xA0 SHL SUB AND PUSH4 0x15A54A64 PUSH1 0x40 MLOAD DUP2 PUSH4 0xFFFFFFFF AND PUSH1 0xE0 SHL DUP2 MSTORE PUSH1 0x4 ADD PUSH1 0x20 PUSH1 0x40 MLOAD DUP1 DUP4 SUB DUP2 DUP7 GAS STATICCALL ISZERO DUP1 ISZERO PUSH2 0x3302 JUMPI RETURNDATASIZE PUSH1 0x0 DUP1 RETURNDATACOPY RETURNDATASIZE PUSH1 0x0 REVERT JUMPDEST POP POP POP POP PUSH1 0x40 MLOAD RETURNDATASIZE PUSH1 0x1F NOT PUSH1 0x1F DUP3 ADD AND DUP3 ADD DUP1 PUSH1 0x40 MSTORE POP DUP2 ADD SWAP1 PUSH2 0x3326 SWAP2 SWAP1 PUSH2 0x39CD JUMP JUMPDEST LT ISZERO SWAP1 POP SWAP1 JUMP JUMPDEST PUSH1 0x0 PUSH2 0x2DE7 DUP3 DUP5 PUSH2 0x3FDF JUMP JUMPDEST PUSH1 0x0 DUP2 DUP2 DUP1 DUP1 PUSH1 0x2 JUMPDEST PUSH1 0x2A DUP2 LT ISZERO PUSH2 0x351B JUMPI PUSH2 0x3357 PUSH2 0x100 DUP6 PUSH2 0x408E JUMP JUMPDEST SWAP4 POP DUP5 DUP2 DUP2 MLOAD DUP2 LT PUSH2 0x336B JUMPI PUSH2 0x336B PUSH2 0x3B7C JUMP JUMPDEST ADD PUSH1 0x20 ADD MLOAD PUSH1 0xF8 SHR SWAP3 POP DUP5 PUSH2 0x3381 DUP3 PUSH1 0x1 PUSH2 0x3D7D JUMP JUMPDEST DUP2 MLOAD DUP2 LT PUSH2 0x3391 JUMPI PUSH2 0x3391 PUSH2 0x3B7C JUMP JUMPDEST ADD PUSH1 0x20 ADD MLOAD PUSH1 0xF8 SHR SWAP2 POP PUSH1 0x61 PUSH1 0x1 PUSH1 0x1 PUSH1 0xA0 SHL SUB DUP5 AND LT DUP1 ISZERO SWAP1 PUSH2 0x33BF JUMPI POP PUSH1 0x66 DUP4 PUSH1 0x1 PUSH1 0x1 PUSH1 0xA0 SHL SUB AND GT ISZERO JUMPDEST ISZERO PUSH2 0x33D6 JUMPI PUSH2 0x33CF PUSH1 0x57 DUP5 PUSH2 0x40C0 JUMP JUMPDEST SWAP3 POP PUSH2 0x3441 JUMP JUMPDEST PUSH1 0x41 DUP4 PUSH1 0x1 PUSH1 0x1 PUSH1 0xA0 SHL SUB AND LT ISZERO DUP1 ISZERO PUSH2 0x33FA JUMPI POP PUSH1 0x46 DUP4 PUSH1 0x1 PUSH1 0x1 PUSH1 0xA0 SHL SUB AND GT ISZERO JUMPDEST ISZERO PUSH2 0x340A JUMPI PUSH2 0x33CF PUSH1 0x37 DUP5 PUSH2 0x40C0 JUMP JUMPDEST PUSH1 0x30 DUP4 PUSH1 0x1 PUSH1 0x1 PUSH1 0xA0 SHL SUB AND LT ISZERO DUP1 ISZERO PUSH2 0x342E JUMPI POP PUSH1 0x39 DUP4 PUSH1 0x1 PUSH1 0x1 PUSH1 0xA0 SHL SUB AND GT ISZERO JUMPDEST ISZERO PUSH2 0x3441 JUMPI PUSH2 0x343E PUSH1 0x30 DUP5 PUSH2 0x40C0 JUMP JUMPDEST SWAP3 POP JUMPDEST PUSH1 0x61 DUP3 PUSH1 0x1 PUSH1 0x1 PUSH1 0xA0 SHL SUB AND LT ISZERO DUP1 ISZERO PUSH2 0x3465 JUMPI POP PUSH1 0x66 DUP3 PUSH1 0x1 PUSH1 0x1 PUSH1 0xA0 SHL SUB AND GT ISZERO JUMPDEST ISZERO PUSH2 0x347C JUMPI PUSH2 0x3475 PUSH1 0x57 DUP4 PUSH2 0x40C0 JUMP JUMPDEST SWAP2 POP PUSH2 0x34E7 JUMP JUMPDEST PUSH1 0x41 DUP3 PUSH1 0x1 PUSH1 0x1 PUSH1 0xA0 SHL SUB AND LT ISZERO DUP1 ISZERO PUSH2 0x34A0 JUMPI POP PUSH1 0x46 DUP3 PUSH1 0x1 PUSH1 0x1 PUSH1 0xA0 SHL SUB AND GT ISZERO JUMPDEST ISZERO PUSH2 0x34B0 JUMPI PUSH2 0x3475 PUSH1 0x37 DUP4 PUSH2 0x40C0 JUMP JUMPDEST PUSH1 0x30 DUP3 PUSH1 0x1 PUSH1 0x1 PUSH1 0xA0 SHL SUB AND LT ISZERO DUP1 ISZERO PUSH2 0x34D4 JUMPI POP PUSH1 0x39 DUP3 PUSH1 0x1 PUSH1 0x1 PUSH1 0xA0 SHL SUB AND GT ISZERO JUMPDEST ISZERO PUSH2 0x34E7 JUMPI PUSH2 0x34E4 PUSH1 0x30 DUP4 PUSH2 0x40C0 JUMP JUMPDEST SWAP2 POP JUMPDEST DUP2 PUSH2 0x34F3 DUP5 PUSH1 0x10 PUSH2 0x408E JUMP JUMPDEST PUSH2 0x34FD SWAP2 SWAP1 PUSH2 0x40E0 JUMP JUMPDEST PUSH2 0x3507 SWAP1 DUP6 PUSH2 0x40E0 JUMP JUMPDEST SWAP4 POP PUSH2 0x3514 PUSH1 0x2 DUP3 PUSH2 0x3D7D JUMP JUMPDEST SWAP1 POP PUSH2 0x3342 JUMP JUMPDEST POP SWAP2 SWAP6 SWAP5 POP POP POP POP POP JUMP JUMPDEST PUSH4 0x4E487B71 PUSH1 0xE0 SHL PUSH1 0x0 MSTORE PUSH1 0x41 PUSH1 0x4 MSTORE PUSH1 0x24 PUSH1 0x0 REVERT JUMPDEST PUSH1 0x40 MLOAD PUSH2 0x140 DUP2 ADD PUSH8 0xFFFFFFFFFFFFFFFF DUP2 GT DUP3 DUP3 LT OR ISZERO PUSH2 0x3560 JUMPI PUSH2 0x3560 PUSH2 0x3526 JUMP JUMPDEST PUSH1 0x40 MSTORE SWAP1 JUMP JUMPDEST PUSH1 0x40 MLOAD PUSH1 0x80 DUP2 ADD PUSH8 0xFFFFFFFFFFFFFFFF DUP2 GT DUP3 DUP3 LT OR ISZERO PUSH2 0x3560 JUMPI PUSH2 0x3560 PUSH2 0x3526 JUMP JUMPDEST PUSH1 0x40 MLOAD PUSH1 0x1F DUP3 ADD PUSH1 0x1F NOT AND DUP2 ADD PUSH8 0xFFFFFFFFFFFFFFFF DUP2 GT DUP3 DUP3 LT OR ISZERO PUSH2 0x35B2 JUMPI PUSH2 0x35B2 PUSH2 0x3526 JUMP JUMPDEST PUSH1 0x40 MSTORE SWAP2 SWAP1 POP JUMP JUMPDEST PUSH1 0x0 PUSH8 0xFFFFFFFFFFFFFFFF DUP3 GT ISZERO PUSH2 0x35D4 JUMPI PUSH2 0x35D4 PUSH2 0x3526 JUMP JUMPDEST POP PUSH1 0x1F ADD PUSH1 0x1F NOT AND PUSH1 0x20 ADD SWAP1 JUMP JUMPDEST PUSH1 0x0 DUP1 PUSH1 0x40 DUP4 DUP6 SUB SLT ISZERO PUSH2 0x35F5 JUMPI PUSH1 0x0 DUP1 REVERT JUMPDEST DUP3 CALLDATALOAD SWAP2 POP PUSH1 0x20 DUP4 ADD CALLDATALOAD PUSH8 0xFFFFFFFFFFFFFFFF DUP2 GT ISZERO PUSH2 0x3613 JUMPI PUSH1 0x0 DUP1 REVERT JUMPDEST DUP4 ADD PUSH1 0x1F DUP2 ADD DUP6 SGT PUSH2 0x3624 JUMPI PUSH1 0x0 DUP1 REVERT JUMPDEST DUP1 CALLDATALOAD PUSH2 0x3637 PUSH2 0x3632 DUP3 PUSH2 0x35BA JUMP JUMPDEST PUSH2 0x3589 JUMP JUMPDEST DUP2 DUP2 MSTORE DUP7 PUSH1 0x20 DUP4 DUP6 ADD ADD GT ISZERO PUSH2 0x364C JUMPI PUSH1 0x0 DUP1 REVERT JUMPDEST DUP2 PUSH1 0x20 DUP5 ADD PUSH1 0x20 DUP4 ADD CALLDATACOPY PUSH1 0x0 PUSH1 0x20 DUP4 DUP4 ADD ADD MSTORE DUP1 SWAP4 POP POP POP POP SWAP3 POP SWAP3 SWAP1 POP JUMP JUMPDEST PUSH1 0x0 JUMPDEST DUP4 DUP2 LT ISZERO PUSH2 0x3687 JUMPI DUP2 DUP2 ADD MLOAD DUP4 DUP3 ADD MSTORE PUSH1 0x20 ADD PUSH2 0x366F JUMP JUMPDEST POP POP PUSH1 0x0 SWAP2 ADD MSTORE JUMP JUMPDEST PUSH1 0x0 DUP2 MLOAD DUP1 DUP5 MSTORE PUSH2 0x36A8 DUP2 PUSH1 0x20 DUP7 ADD PUSH1 0x20 DUP7 ADD PUSH2 0x366C JUMP JUMPDEST PUSH1 0x1F ADD PUSH1 0x1F NOT AND SWAP3 SWAP1 SWAP3 ADD PUSH1 0x20 ADD SWAP3 SWAP2 POP POP JUMP JUMPDEST PUSH1 0x20 DUP2 MSTORE PUSH1 0x0 PUSH2 0x2DE7 PUSH1 0x20 DUP4 ADD DUP5 PUSH2 0x3690 JUMP JUMPDEST PUSH1 0x1 PUSH1 0x1 PUSH1 0xA0 SHL SUB DUP2 AND DUP2 EQ PUSH2 0x1835 JUMPI PUSH1 0x0 DUP1 REVERT JUMPDEST PUSH1 0x0 PUSH1 0x20 DUP3 DUP5 SUB SLT ISZERO PUSH2 0x36F6 JUMPI PUSH1 0x0 DUP1 REVERT JUMPDEST DUP2 CALLDATALOAD PUSH2 0x2DE7 DUP2 PUSH2 0x36CF JUMP JUMPDEST PUSH1 0x40 DUP2 MSTORE PUSH1 0x0 PUSH2 0x3714 PUSH1 0x40 DUP4 ADD DUP5 PUSH2 0x3690 JUMP JUMPDEST DUP3 DUP2 SUB PUSH1 0x20 DUP5 ADD MSTORE PUSH1 0xC DUP2 MSTORE PUSH12 0x10D491505513D497D313D4D5 PUSH1 0xA2 SHL PUSH1 0x20 DUP3 ADD MSTORE PUSH1 0x40 DUP2 ADD SWAP2 POP POP SWAP3 SWAP2 POP POP JUMP JUMPDEST PUSH1 0x0 PUSH1 0x20 DUP3 DUP5 SUB SLT ISZERO PUSH2 0x3754 JUMPI PUSH1 0x0 DUP1 REVERT JUMPDEST DUP2 MLOAD DUP1 ISZERO ISZERO DUP2 EQ PUSH2 0x2DE7 JUMPI PUSH1 0x0 DUP1 REVERT JUMPDEST PUSH1 0x40 DUP2 MSTORE PUSH1 0x0 PUSH2 0x3777 PUSH1 0x40 DUP4 ADD DUP5 PUSH2 0x3690 JUMP JUMPDEST DUP3 DUP2 SUB PUSH1 0x20 DUP5 ADD MSTORE PUSH1 0xB DUP2 MSTORE PUSH11 0x21A922A0AA27A92FABA7A7 PUSH1 0xA9 SHL PUSH1 0x20 DUP3 ADD MSTORE PUSH1 0x40 DUP2 ADD SWAP2 POP POP SWAP3 SWAP2 POP POP JUMP JUMPDEST PUSH1 0x40 DUP2 MSTORE PUSH1 0x0 PUSH2 0x37B7 PUSH1 0x40 DUP4 ADD DUP5 PUSH2 0x3690 JUMP JUMPDEST DUP3 DUP2 SUB PUSH1 0x20 DUP5 ADD MSTORE PUSH1 0x9 DUP2 MSTORE PUSH9 0x10D05390D153131151 PUSH1 0xBA SHL PUSH1 0x20 DUP3 ADD MSTORE PUSH1 0x40 DUP2 ADD SWAP2 POP POP SWAP3 SWAP2 POP POP JUMP JUMPDEST DUP1 MLOAD PUSH2 0xFFFF DUP2 AND DUP2 EQ PUSH2 0x37F4 JUMPI PUSH1 0x0 DUP1 REVERT JUMPDEST SWAP2 SWAP1 POP JUMP JUMPDEST DUP1 MLOAD PUSH2 0x37F4 DUP2 PUSH2 0x36CF JUMP JUMPDEST PUSH1 0x0 DUP3 PUSH1 0x1F DUP4 ADD SLT PUSH2 0x3815 JUMPI PUSH1 0x0 DUP1 REVERT JUMPDEST DUP2 MLOAD PUSH2 0x3823 PUSH2 0x3632 DUP3 PUSH2 0x35BA JUMP JUMPDEST DUP2 DUP2 MSTORE DUP5 PUSH1 0x20 DUP4 DUP7 ADD ADD GT ISZERO PUSH2 0x3838 JUMPI PUSH1 0x0 DUP1 REVERT JUMPDEST PUSH2 0x3849 DUP3 PUSH1 0x20 DUP4 ADD PUSH1 0x20 DUP8 ADD PUSH2 0x366C JUMP JUMPDEST SWAP5 SWAP4 POP POP POP POP JUMP JUMPDEST DUP1 MLOAD PUSH1 0xFF DUP2 AND DUP2 EQ PUSH2 0x37F4 JUMPI PUSH1 0x0 DUP1 REVERT JUMPDEST PUSH1 0x0 PUSH1 0x20 DUP3 DUP5 SUB SLT ISZERO PUSH2 0x3874 JUMPI PUSH1 0x0 DUP1 REVERT JUMPDEST DUP2 MLOAD PUSH8 0xFFFFFFFFFFFFFFFF DUP1 DUP3 GT ISZERO PUSH2 0x388C JUMPI PUSH1 0x0 DUP1 REVERT JUMPDEST SWAP1 DUP4 ADD SWAP1 PUSH2 0x140 DUP3 DUP7 SUB SLT ISZERO PUSH2 0x38A1 JUMPI PUSH1 0x0 DUP1 REVERT JUMPDEST PUSH2 0x38A9 PUSH2 0x353C JUMP JUMPDEST PUSH2 0x38B2 DUP4 PUSH2 0x37E2 JUMP JUMPDEST DUP2 MSTORE PUSH1 0x20 DUP4 ADD MLOAD PUSH1 0x20 DUP3 ADD MSTORE PUSH2 0x38CA PUSH1 0x40 DUP5 ADD PUSH2 0x37F9 JUMP JUMPDEST PUSH1 0x40 DUP3 ADD MSTORE PUSH1 0x60 DUP4 ADD MLOAD DUP3 DUP2 GT ISZERO PUSH2 0x38E1 JUMPI PUSH1 0x0 DUP1 REVERT JUMPDEST PUSH2 0x38ED DUP8 DUP3 DUP7 ADD PUSH2 0x3804 JUMP JUMPDEST PUSH1 0x60 DUP4 ADD MSTORE POP PUSH1 0x80 DUP4 ADD MLOAD PUSH1 0x80 DUP3 ADD MSTORE PUSH2 0x3909 PUSH1 0xA0 DUP5 ADD PUSH2 0x3851 JUMP JUMPDEST PUSH1 0xA0 DUP3 ADD MSTORE PUSH2 0x391A PUSH1 0xC0 DUP5 ADD PUSH2 0x3851 JUMP JUMPDEST PUSH1 0xC0 DUP3 ADD MSTORE PUSH2 0x392B PUSH1 0xE0 DUP5 ADD PUSH2 0x3851 JUMP JUMPDEST PUSH1 0xE0 DUP3 ADD MSTORE PUSH2 0x100 DUP4 DUP2 ADD MLOAD SWAP1 DUP3 ADD MSTORE PUSH2 0x120 SWAP3 DUP4 ADD MLOAD SWAP3 DUP2 ADD SWAP3 SWAP1 SWAP3 MSTORE POP SWAP4 SWAP3 POP POP POP JUMP JUMPDEST PUSH1 0x0 PUSH1 0x20 DUP3 DUP5 SUB SLT ISZERO PUSH2 0x3963 JUMPI PUSH1 0x0 DUP1 REVERT JUMPDEST DUP2 MLOAD PUSH8 0xFFFFFFFFFFFFFFFF DUP2 GT ISZERO PUSH2 0x397A JUMPI PUSH1 0x0 DUP1 REVERT JUMPDEST PUSH2 0x3849 DUP5 DUP3 DUP6 ADD PUSH2 0x3804 JUMP JUMPDEST DUP3 DUP2 MSTORE PUSH1 0x40 PUSH1 0x20 DUP3 ADD MSTORE PUSH1 0x0 PUSH2 0x3849 PUSH1 0x40 DUP4 ADD DUP5 PUSH2 0x3690 JUMP JUMPDEST PUSH1 0x40 DUP2 MSTORE PUSH1 0x0 PUSH2 0x39B2 PUSH1 0x40 DUP4 ADD DUP6 PUSH2 0x3690 JUMP JUMPDEST DUP3 DUP2 SUB PUSH1 0x20 DUP5 ADD MSTORE PUSH2 0x39C4 DUP2 DUP6 PUSH2 0x3690 JUMP JUMPDEST SWAP6 SWAP5 POP POP POP POP POP JUMP JUMPDEST PUSH1 0x0 PUSH1 0x20 DUP3 DUP5 SUB SLT ISZERO PUSH2 0x39DF JUMPI PUSH1 0x0 DUP1 REVERT JUMPDEST POP MLOAD SWAP2 SWAP1 POP JUMP JUMPDEST PUSH1 0x1 PUSH1 0x1 PUSH1 0xA0 SHL SUB SWAP3 SWAP1 SWAP3 AND DUP3 MSTORE PUSH1 0x20 DUP3 ADD MSTORE PUSH1 0x40 ADD SWAP1 JUMP JUMPDEST DUP4 DUP2 MSTORE PUSH12 0xFFFFFFFFFFFFFFFFFFFFFFFF NOT DUP4 PUSH1 0x60 SHL AND PUSH1 0x20 DUP3 ADD MSTORE PUSH1 0x0 DUP3 MLOAD PUSH2 0x3A2F DUP2 PUSH1 0x34 DUP6 ADD PUSH1 0x20 DUP8 ADD PUSH2 0x366C JUMP JUMPDEST SWAP2 SWAP1 SWAP2 ADD PUSH1 0x34 ADD SWAP5 SWAP4 POP POP POP POP JUMP JUMPDEST DUP3 DUP2 MSTORE PUSH1 0x40 PUSH1 0x20 DUP1 DUP4 ADD DUP3 SWAP1 MSTORE DUP4 MLOAD DUP3 DUP5 ADD MSTORE DUP4 ADD MLOAD PUSH1 0x1 PUSH1 0x1 PUSH1 0xA0 SHL SUB AND PUSH1 0x60 DUP4 ADD MSTORE DUP3 ADD MLOAD PUSH1 0x80 DUP1 DUP4 ADD MSTORE PUSH1 0x0 SWAP1 PUSH2 0x3A7B PUSH1 0xC0 DUP5 ADD DUP3 PUSH2 0x3690 JUMP JUMPDEST SWAP1 POP PUSH1 0x60 DUP5 ADD MLOAD PUSH1 0xA0 DUP5 ADD MSTORE DUP1 SWAP2 POP POP SWAP4 SWAP3 POP POP POP JUMP JUMPDEST PUSH1 0x20 DUP1 DUP3 MSTORE DUP2 DUP2 ADD MSTORE PUSH32 0x4F776E61626C653A2063616C6C6572206973206E6F7420746865206F776E6572 PUSH1 0x40 DUP3 ADD MSTORE PUSH1 0x60 ADD SWAP1 JUMP JUMPDEST PUSH1 0x0 PUSH8 0xFFFFFFFFFFFFFFFF DUP3 GT ISZERO PUSH2 0x3AE1 JUMPI PUSH2 0x3AE1 PUSH2 0x3526 JUMP JUMPDEST POP PUSH1 0x5 SHL PUSH1 0x20 ADD SWAP1 JUMP JUMPDEST PUSH1 0x0 PUSH1 0x20 DUP1 DUP4 DUP6 SUB SLT ISZERO PUSH2 0x3AFE JUMPI PUSH1 0x0 DUP1 REVERT JUMPDEST DUP3 MLOAD PUSH8 0xFFFFFFFFFFFFFFFF DUP2 GT ISZERO PUSH2 0x3B15 JUMPI PUSH1 0x0 DUP1 REVERT JUMPDEST DUP4 ADD PUSH1 0x1F DUP2 ADD DUP6 SGT PUSH2 0x3B26 JUMPI PUSH1 0x0 DUP1 REVERT JUMPDEST DUP1 MLOAD PUSH2 0x3B34 PUSH2 0x3632 DUP3 PUSH2 0x3AC7 JUMP JUMPDEST DUP2 DUP2 MSTORE PUSH1 0x5 SWAP2 SWAP1 SWAP2 SHL DUP3 ADD DUP4 ADD SWAP1 DUP4 DUP2 ADD SWAP1 DUP8 DUP4 GT ISZERO PUSH2 0x3B53 JUMPI PUSH1 0x0 DUP1 REVERT JUMPDEST SWAP3 DUP5 ADD SWAP3 JUMPDEST DUP3 DUP5 LT ISZERO PUSH2 0x3B71 JUMPI DUP4 MLOAD DUP3 MSTORE SWAP3 DUP5 ADD SWAP3 SWAP1 DUP5 ADD SWAP1 PUSH2 0x3B58 JUMP JUMPDEST SWAP8 SWAP7 POP POP POP POP POP POP POP JUMP JUMPDEST PUSH4 0x4E487B71 PUSH1 0xE0 SHL PUSH1 0x0 MSTORE PUSH1 0x32 PUSH1 0x4 MSTORE PUSH1 0x24 PUSH1 0x0 REVERT JUMPDEST PUSH1 0x1 DUP2 MSTORE PUSH1 0xB PUSH1 0xFA SHL PUSH1 0x20 DUP3 ADD MSTORE PUSH1 0x40 ADD SWAP1 JUMP JUMPDEST PUSH1 0x0 PUSH2 0x120 DUP1 DUP4 MSTORE PUSH2 0x3BBA DUP2 DUP5 ADD DUP9 PUSH2 0x3690 JUMP JUMPDEST SWAP1 POP DUP3 DUP2 SUB PUSH1 0x20 DUP5 ADD MSTORE PUSH2 0x3BCE DUP2 DUP8 PUSH2 0x3690 JUMP JUMPDEST SWAP1 POP DUP3 DUP2 SUB PUSH1 0x40 DUP5 ADD MSTORE PUSH2 0x3BE1 DUP2 PUSH2 0x3B92 JUMP JUMPDEST SWAP1 POP DUP3 DUP2 SUB PUSH1 0x60 DUP5 ADD MSTORE PUSH2 0x3BF5 DUP2 DUP7 PUSH2 0x3690 JUMP JUMPDEST SWAP1 POP DUP3 DUP2 SUB PUSH1 0x80 DUP5 ADD MSTORE PUSH2 0x3C08 DUP2 PUSH2 0x3B92 JUMP JUMPDEST SWAP1 POP DUP3 DUP2 SUB PUSH1 0xA0 DUP5 ADD MSTORE PUSH2 0x3C1C DUP2 DUP6 PUSH2 0x3690 JUMP JUMPDEST SWAP1 POP DUP3 DUP2 SUB DUP1 PUSH1 0xC0 DUP6 ADD MSTORE PUSH1 0x2 DUP3 MSTORE PUSH2 0x2C31 PUSH1 0xF0 SHL PUSH1 0x20 DUP4 ADD MSTORE PUSH1 0x40 DUP2 ADD PUSH1 0xE0 DUP6 ADD MSTORE POP PUSH2 0x3C5B PUSH1 0x40 DUP3 ADD PUSH1 0x1 DUP2 MSTORE PUSH1 0x1F PUSH1 0xFA SHL PUSH1 0x20 DUP3 ADD MSTORE PUSH1 0x40 ADD SWAP1 JUMP JUMPDEST DUP4 DUP2 SUB PUSH2 0x100 DUP6 ADD MSTORE PUSH1 0x0 DUP2 MSTORE SWAP1 POP PUSH1 0x20 DUP2 ADD PUSH2 0x3B71 JUMP JUMPDEST PUSH4 0x4E487B71 PUSH1 0xE0 SHL PUSH1 0x0 MSTORE PUSH1 0x11 PUSH1 0x4 MSTORE PUSH1 0x24 PUSH1 0x0 REVERT JUMPDEST PUSH1 0x0 PUSH1 0x1 DUP3 ADD PUSH2 0x3C9B JUMPI PUSH2 0x3C9B PUSH2 0x3C73 JUMP JUMPDEST POP PUSH1 0x1 ADD SWAP1 JUMP JUMPDEST PUSH1 0x0 PUSH2 0x120 DUP1 DUP4 MSTORE PUSH2 0x3CB6 DUP2 DUP5 ADD DUP9 PUSH2 0x3690 JUMP JUMPDEST SWAP1 POP DUP3 DUP2 SUB PUSH1 0x20 DUP5 ADD MSTORE PUSH2 0x3CCA DUP2 DUP8 PUSH2 0x3690 JUMP JUMPDEST SWAP1 POP DUP3 DUP2 SUB PUSH1 0x40 DUP5 ADD MSTORE PUSH2 0x3CDD DUP2 PUSH2 0x3B92 JUMP JUMPDEST SWAP1 POP DUP3 DUP2 SUB PUSH1 0x60 DUP5 ADD MSTORE PUSH2 0x3CF1 DUP2 DUP7 PUSH2 0x3690 JUMP JUMPDEST SWAP1 POP DUP3 DUP2 SUB PUSH1 0x80 DUP5 ADD MSTORE PUSH2 0x3D04 DUP2 PUSH2 0x3B92 JUMP JUMPDEST SWAP1 POP DUP3 DUP2 SUB PUSH1 0xA0 DUP5 ADD MSTORE PUSH2 0x3D18 DUP2 DUP6 PUSH2 0x3690 JUMP JUMPDEST SWAP1 POP DUP3 DUP2 SUB DUP1 PUSH1 0xC0 DUP6 ADD MSTORE PUSH1 0x2 DUP3 MSTORE PUSH2 0x1619 PUSH1 0xF1 SHL PUSH1 0x20 DUP4 ADD MSTORE PUSH1 0x40 DUP2 ADD PUSH1 0xE0 DUP6 ADD MSTORE POP PUSH2 0x3C5B PUSH1 0x40 DUP3 ADD PUSH1 0x1 DUP2 MSTORE PUSH1 0x1F PUSH1 0xFA SHL PUSH1 0x20 DUP3 ADD MSTORE PUSH1 0x40 ADD SWAP1 JUMP JUMPDEST PUSH1 0x0 PUSH1 0x20 DUP3 DUP5 SUB SLT ISZERO PUSH2 0x3D69 JUMPI PUSH1 0x0 DUP1 REVERT JUMPDEST DUP2 MLOAD PUSH4 0xFFFFFFFF DUP2 AND DUP2 EQ PUSH2 0x2DE7 JUMPI PUSH1 0x0 DUP1 REVERT JUMPDEST DUP1 DUP3 ADD DUP1 DUP3 GT ISZERO PUSH2 0x2DEA JUMPI PUSH2 0x2DEA PUSH2 0x3C73 JUMP JUMPDEST PUSH4 0xFFFFFFFF DUP3 DUP2 AND DUP3 DUP3 AND SUB SWAP1 DUP1 DUP3 GT ISZERO PUSH2 0x3DAD JUMPI PUSH2 0x3DAD PUSH2 0x3C73 JUMP JUMPDEST POP SWAP3 SWAP2 POP POP JUMP JUMPDEST PUSH1 0x0 PUSH1 0x20 DUP1 DUP4 DUP6 SUB SLT ISZERO PUSH2 0x3DC7 JUMPI PUSH1 0x0 DUP1 REVERT JUMPDEST DUP3 MLOAD PUSH8 0xFFFFFFFFFFFFFFFF DUP1 DUP3 GT ISZERO PUSH2 0x3DDF JUMPI PUSH1 0x0 DUP1 REVERT JUMPDEST DUP2 DUP6 ADD SWAP2 POP DUP6 PUSH1 0x1F DUP4 ADD SLT PUSH2 0x3DF3 JUMPI PUSH1 0x0 DUP1 REVERT JUMPDEST DUP2 MLOAD PUSH2 0x3E01 PUSH2 0x3632 DUP3 PUSH2 0x3AC7 JUMP JUMPDEST DUP2 DUP2 MSTORE PUSH1 0x5 SWAP2 SWAP1 SWAP2 SHL DUP4 ADD DUP5 ADD SWAP1 DUP5 DUP2 ADD SWAP1 DUP9 DUP4 GT ISZERO PUSH2 0x3E20 JUMPI PUSH1 0x0 DUP1 REVERT JUMPDEST DUP6 DUP6 ADD JUMPDEST DUP4 DUP2 LT ISZERO PUSH2 0x3EB8 JUMPI DUP1 MLOAD DUP6 DUP2 GT ISZERO PUSH2 0x3E3B JUMPI PUSH1 0x0 DUP1 REVERT JUMPDEST DUP7 ADD PUSH1 0x80 DUP2 DUP13 SUB PUSH1 0x1F NOT ADD SLT ISZERO PUSH2 0x3E52 JUMPI PUSH1 0x0 DUP1 DUP2 REVERT JUMPDEST PUSH2 0x3E5A PUSH2 0x3566 JUMP JUMPDEST DUP9 DUP3 ADD MLOAD DUP2 MSTORE PUSH1 0x40 DUP1 DUP4 ADD MLOAD PUSH2 0x3E6F DUP2 PUSH2 0x36CF JUMP JUMPDEST DUP3 DUP12 ADD MSTORE PUSH1 0x60 DUP4 DUP2 ADD MLOAD DUP10 DUP2 GT ISZERO PUSH2 0x3E87 JUMPI PUSH1 0x0 DUP1 DUP2 REVERT JUMPDEST PUSH2 0x3E95 DUP16 DUP14 DUP4 DUP9 ADD ADD PUSH2 0x3804 JUMP JUMPDEST SWAP3 DUP5 ADD SWAP3 SWAP1 SWAP3 MSTORE PUSH1 0x80 SWAP4 SWAP1 SWAP4 ADD MLOAD SWAP3 DUP3 ADD SWAP3 SWAP1 SWAP3 MSTORE DUP5 MSTORE POP SWAP2 DUP7 ADD SWAP2 DUP7 ADD PUSH2 0x3E24 JUMP JUMPDEST POP SWAP9 SWAP8 POP POP POP POP POP POP POP POP JUMP JUMPDEST PUSH1 0x20 DUP2 MSTORE PUSH2 0x3EDA PUSH1 0x20 DUP3 ADD DUP4 MLOAD PUSH2 0xFFFF AND SWAP1 MSTORE JUMP JUMPDEST PUSH1 0x20 DUP3 ADD MLOAD PUSH1 0x40 DUP3 ADD MSTORE PUSH1 0x0 PUSH1 0x40 DUP4 ADD MLOAD PUSH2 0x3F00 PUSH1 0x60 DUP5 ADD DUP3 PUSH1 0x1 PUSH1 0x1 PUSH1 0xA0 SHL SUB AND SWAP1 MSTORE JUMP JUMPDEST POP PUSH1 0x60 DUP4 ADD MLOAD PUSH2 0x140 DUP1 PUSH1 0x80 DUP6 ADD MSTORE PUSH2 0x3F1D PUSH2 0x160 DUP6 ADD DUP4 PUSH2 0x3690 JUMP JUMPDEST SWAP2 POP PUSH1 0x80 DUP6 ADD MLOAD PUSH1 0xA0 DUP6 ADD MSTORE PUSH1 0xA0 DUP6 ADD MLOAD PUSH2 0x3F3D PUSH1 0xC0 DUP7 ADD DUP3 PUSH1 0xFF AND SWAP1 MSTORE JUMP JUMPDEST POP PUSH1 0xC0 DUP6 ADD MLOAD PUSH1 0xFF DUP2 AND PUSH1 0xE0 DUP7 ADD MSTORE POP PUSH1 0xE0 DUP6 ADD MLOAD PUSH2 0x100 PUSH2 0x3F63 DUP2 DUP8 ADD DUP4 PUSH1 0xFF AND SWAP1 MSTORE JUMP JUMPDEST DUP7 ADD MLOAD PUSH2 0x120 DUP7 DUP2 ADD SWAP2 SWAP1 SWAP2 MSTORE SWAP1 SWAP6 ADD MLOAD SWAP4 ADD SWAP3 SWAP1 SWAP3 MSTORE POP SWAP2 SWAP1 POP JUMP JUMPDEST DUP4 DUP2 MSTORE PUSH1 0x60 PUSH1 0x20 DUP3 ADD MSTORE PUSH1 0x0 PUSH2 0x3F99 PUSH1 0x60 DUP4 ADD DUP6 PUSH2 0x3690 JUMP JUMPDEST DUP3 DUP2 SUB PUSH1 0x40 DUP5 ADD MSTORE PUSH2 0x3FAB DUP2 DUP6 PUSH2 0x3690 JUMP JUMPDEST SWAP7 SWAP6 POP POP POP POP POP POP JUMP JUMPDEST PUSH4 0x4E487B71 PUSH1 0xE0 SHL PUSH1 0x0 MSTORE PUSH1 0x12 PUSH1 0x4 MSTORE PUSH1 0x24 PUSH1 0x0 REVERT JUMPDEST PUSH1 0x0 DUP3 PUSH2 0x3FDA JUMPI PUSH2 0x3FDA PUSH2 0x3FB5 JUMP JUMPDEST POP DIV SWAP1 JUMP JUMPDEST DUP2 DUP2 SUB DUP2 DUP2 GT ISZERO PUSH2 0x2DEA JUMPI PUSH2 0x2DEA PUSH2 0x3C73 JUMP JUMPDEST DUP1 DUP3 MUL DUP2 ISZERO DUP3 DUP3 DIV DUP5 EQ OR PUSH2 0x2DEA JUMPI PUSH2 0x2DEA PUSH2 0x3C73 JUMP JUMPDEST PUSH1 0xFF DUP2 DUP2 AND DUP4 DUP3 AND ADD SWAP1 DUP2 GT ISZERO PUSH2 0x2DEA JUMPI PUSH2 0x2DEA PUSH2 0x3C73 JUMP JUMPDEST PUSH1 0x60 DUP2 MSTORE PUSH1 0x0 PUSH2 0x4035 PUSH1 0x60 DUP4 ADD DUP7 PUSH2 0x3690 JUMP JUMPDEST DUP3 DUP2 SUB PUSH1 0x20 DUP5 ADD MSTORE PUSH2 0x4047 DUP2 DUP7 PUSH2 0x3690 JUMP JUMPDEST SWAP1 POP DUP3 DUP2 SUB PUSH1 0x40 DUP5 ADD MSTORE PUSH2 0x3FAB DUP2 DUP6 PUSH2 0x3690 JUMP JUMPDEST PUSH1 0x0 PUSH1 0xFF DUP3 AND PUSH1 0xFF DUP2 SUB PUSH2 0x4071 JUMPI PUSH2 0x4071 PUSH2 0x3C73 JUMP JUMPDEST PUSH1 0x1 ADD SWAP3 SWAP2 POP POP JUMP JUMPDEST PUSH1 0x0 DUP3 PUSH2 0x4089 JUMPI PUSH2 0x4089 PUSH2 0x3FB5 JUMP JUMPDEST POP MOD SWAP1 JUMP JUMPDEST PUSH1 0x1 PUSH1 0x1 PUSH1 0xA0 SHL SUB DUP3 DUP2 AND DUP3 DUP3 AND DUP2 DUP2 MUL DUP4 AND SWAP3 SWAP2 DUP2 ISZERO DUP3 DUP6 DIV DUP3 EQ OR PUSH2 0x40B7 JUMPI PUSH2 0x40B7 PUSH2 0x3C73 JUMP JUMPDEST POP POP POP SWAP3 SWAP2 POP POP JUMP JUMPDEST PUSH1 0x1 PUSH1 0x1 PUSH1 0xA0 SHL SUB DUP3 DUP2 AND DUP3 DUP3 AND SUB SWAP1 DUP1 DUP3 GT ISZERO PUSH2 0x3DAD JUMPI PUSH2 0x3DAD PUSH2 0x3C73 JUMP JUMPDEST PUSH1 0x1 PUSH1 0x1 PUSH1 0xA0 SHL SUB DUP2 DUP2 AND DUP4 DUP3 AND ADD SWAP1 DUP1 DUP3 GT ISZERO PUSH2 0x3DAD JUMPI PUSH2 0x3DAD PUSH2 0x3C73 JUMP INVALID LOG2 PUSH5 0x6970667358 0x22 SLT KECCAK256 MOD SWAP16 DUP5 DUP10 0x2E STOP 0xCF PUSH2 0x5372 PUSH19 0xD2786E9A1E0888CF9B1313C034439D240D5729 GAS OR PUSH5 0x736F6C6343 STOP ADDMOD GT STOP CALLER "
		},
		"gasEstimates": {
			"creation": {
				"codeDepositCost": "3338800",
				"executionCost": "infinite",
				"totalCost": "infinite"
			},
			"external": {
				"arbitrateBet(bytes32,string)": "infinite",
				"getMyPendingArbitrations()": "infinite",
				"owner()": "2323",
				"pause()": "29779",
				"paused()": "2343",
				"registerAsArbitrator()": "infinite",
				"renounceOwnership()": "28181",
				"transferOwnership(address)": "infinite",
				"unpause()": "29773"
			},
			"internal": {
				"finalizeBet(bytes32,string memory)": "infinite",
				"getRandomIndex(address,uint32)": "infinite",
				"isServiceTokensExhausted()": "infinite",
				"validateIfFinalized(bytes32)": "infinite"
			}
		},
		"methodIdentifiers": {
			"arbitrateBet(bytes32,string)": "0fd6b7ff",
			"getMyPendingArbitrations()": "908a0375",
			"owner()": "8da5cb5b",
			"pause()": "8456cb59",
			"paused()": "5c975abb",
			"registerAsArbitrator()": "ebc8c500",
			"renounceOwnership()": "715018a6",
			"transferOwnership(address)": "f2fde38b",
			"unpause()": "3f4ba83a"
		}
	},
	"abi": [
		{
			"inputs": [
				{
					"internalType": "address",
					"name": "sureBetDataContract",
					"type": "address"
				}
			],
			"stateMutability": "nonpayable",
			"type": "constructor"
		},
		{
			"anonymous": false,
			"inputs": [
				{
					"indexed": true,
					"internalType": "bytes32",
					"name": "betKey",
					"type": "bytes32"
				},
				{
					"indexed": true,
					"internalType": "address",
					"name": "arbitrator",
					"type": "address"
				}
			],
			"name": "BetArbitrated",
			"type": "event"
		},
		{
			"anonymous": false,
			"inputs": [
				{
					"indexed": true,
					"internalType": "bytes32",
					"name": "betKey",
					"type": "bytes32"
				},
				{
					"indexed": false,
					"internalType": "string",
					"name": "outcome",
					"type": "string"
				}
			],
			"name": "BetFinalized",
			"type": "event"
		},
		{
			"anonymous": false,
			"inputs": [
				{
					"indexed": true,
					"internalType": "bytes32",
					"name": "betKey",
					"type": "bytes32"
				}
			],
			"name": "BetInArbitration",
			"type": "event"
		},
		{
			"anonymous": false,
			"inputs": [
				{
					"indexed": true,
					"internalType": "address",
					"name": "previousOwner",
					"type": "address"
				},
				{
					"indexed": true,
					"internalType": "address",
					"name": "newOwner",
					"type": "address"
				}
			],
			"name": "OwnershipTransferred",
			"type": "event"
		},
		{
			"anonymous": false,
			"inputs": [
				{
					"indexed": false,
					"internalType": "address",
					"name": "account",
					"type": "address"
				}
			],
			"name": "Paused",
			"type": "event"
		},
		{
			"anonymous": false,
			"inputs": [
				{
					"indexed": false,
					"internalType": "address",
					"name": "account",
					"type": "address"
				}
			],
			"name": "Unpaused",
			"type": "event"
		},
		{
			"inputs": [
				{
					"internalType": "bytes32",
					"name": "betKey",
					"type": "bytes32"
				},
				{
					"internalType": "string",
					"name": "outcome",
					"type": "string"
				}
			],
			"name": "arbitrateBet",
			"outputs": [],
			"stateMutability": "nonpayable",
			"type": "function"
		},
		{
			"inputs": [],
			"name": "getMyPendingArbitrations",
			"outputs": [
				{
					"internalType": "string",
					"name": "",
					"type": "string"
				}
			],
			"stateMutability": "view",
			"type": "function"
		},
		{
			"inputs": [],
			"name": "owner",
			"outputs": [
				{
					"internalType": "address",
					"name": "",
					"type": "address"
				}
			],
			"stateMutability": "view",
			"type": "function"
		},
		{
			"inputs": [],
			"name": "pause",
			"outputs": [],
			"stateMutability": "nonpayable",
			"type": "function"
		},
		{
			"inputs": [],
			"name": "paused",
			"outputs": [
				{
					"internalType": "bool",
					"name": "",
					"type": "bool"
				}
			],
			"stateMutability": "view",
			"type": "function"
		},
		{
			"inputs": [],
			"name": "registerAsArbitrator",
			"outputs": [],
			"stateMutability": "nonpayable",
			"type": "function"
		},
		{
			"inputs": [],
			"name": "renounceOwnership",
			"outputs": [],
			"stateMutability": "nonpayable",
			"type": "function"
		},
		{
			"inputs": [
				{
					"internalType": "address",
					"name": "newOwner",
					"type": "address"
				}
			],
			"name": "transferOwnership",
			"outputs": [],
			"stateMutability": "nonpayable",
			"type": "function"
		},
		{
			"inputs": [],
			"name": "unpause",
			"outputs": [],
			"stateMutability": "nonpayable",
			"type": "function"
		}
	]
}