{
	"data": {
		"bytecode": {
			"linkReferences": {
				"contracts/Lib.sol": {
					"ConversionUtil": [
						{
							"length": 20,
							"start": 1092
						},
						{
							"length": 20,
							"start": 1792
						},
						{
							"length": 20,
							"start": 2441
						},
						{
							"length": 20,
							"start": 2698
						},
						{
							"length": 20,
							"start": 3165
						},
						{
							"length": 20,
							"start": 3541
						},
						{
							"length": 20,
							"start": 4088
						}
					],
					"Lib": [
						{
							"length": 20,
							"start": 1065
						},
						{
							"length": 20,
							"start": 2413
						},
						{
							"length": 20,
							"start": 2671
						},
						{
							"length": 20,
							"start": 3009
						},
						{
							"length": 20,
							"start": 3138
						},
						{
							"length": 20,
							"start": 3385
						},
						{
							"length": 20,
							"start": 3514
						}
					]
				}
			},
			"object": "60806040523480156200001157600080fd5b50604051620023f0380380620023f08339810160408190526200003491620000c2565b6200003f3362000072565b6000805460ff60a01b19169055600180546001600160a01b0319166001600160a01b0392909216919091179055620000f4565b600080546001600160a01b038381166001600160a01b0319831681178455604051919092169283917f8be0079c531659141344cd1fd0a4f28419497f9722a3daafe3b4186f6b6457e09190a35050565b600060208284031215620000d557600080fd5b81516001600160a01b0381168114620000ed57600080fd5b9392505050565b6122ec80620001046000396000f3fe608060405234801561001057600080fd5b50600436106100935760003560e01c80638456cb59116100665780638456cb59146100f05780638da5cb5b146100f857806399535bd7146101135780639c11180d1461011b578063f2fde38b1461013b57600080fd5b806319275d79146100985780633f4ba83a146100c15780635c975abb146100cb578063715018a6146100e8575b600080fd5b6100ab6100a6366004611cf2565b61014e565b6040516100b89190611df8565b60405180910390f35b6100c9610480565b005b600054600160a01b900460ff1660405190151581526020016100b8565b6100c96104bd565b6100c96104f1565b6000546040516001600160a01b0390911681526020016100b8565b6100ab610523565b61012e610129366004611b9c565b610e15565b6040516100b89190611d7d565b6100c9610149366004611aa9565b6116e1565b60608060005b60015460405163584603c960e01b815261ffff8089166004830152808816602483015286166044820152600060648201526001600160a01b039091169063584603c99060840160206040518083038186803b1580156101b257600080fd5b505afa1580156101c6573d6000803e3d6000fd5b505050506040513d601f19601f820116820180604052508101906101ea9190611bb5565b811015610477576001546040516337f288c760e21b815261ffff808916600483015280881660248301528616604482015260006064820181905260848201849052916001600160a01b03169063dfca231c9060a40160206040518083038186803b15801561025757600080fd5b505afa15801561026b573d6000803e3d6000fd5b505050506040513d601f19601f8201168201806040525081019061028f9190611bb5565b600154604051631bf4604f60e11b8152600481018390529192506000916001600160a01b03909116906337e8c09e9060240160006040518083038186803b1580156102d957600080fd5b505afa1580156102ed573d6000803e3d6000fd5b505050506040513d6000823e601f3d908101601f191682016040526103159190810190611c03565b905042816080015111156104625773__$6cf167dfb7c5c94c9fb5276b5691085b47$__63dfbe0b1f8573__$acd136b36b4fe61d8edff89239067e5de1$__639201de55866040518263ffffffff1660e01b815260040161037791815260200190565b60006040518083038186803b15801561038f57600080fd5b505af41580156103a3573d6000803e3d6000fd5b505050506040513d6000823e601f3d908101601f191682016040526103cb9190810190611bce565b6103d8856080015161177c565b85606001516103eb87610100015161177c565b6040518663ffffffff1660e01b815260040161040b959493929190611e39565b60006040518083038186803b15801561042357600080fd5b505af4158015610437573d6000803e3d6000fd5b505050506040513d6000823e601f3d908101601f1916820160405261045f9190810190611bce565b93505b5050808061046f90612234565b915050610154565b50949350505050565b6000546001600160a01b031633146104b35760405162461bcd60e51b81526004016104aa906120f7565b60405180910390fd5b6104bb61189c565b565b6000546001600160a01b031633146104e75760405162461bcd60e51b81526004016104aa906120f7565b6104bb6000611939565b6000546001600160a01b0316331461051b5760405162461bcd60e51b81526004016104aa906120f7565b6104bb611989565b60015460405163d5a1ad6160e01b81523360048201526060916000916001600160a01b039091169063d5a1ad619060240160006040518083038186803b15801561056c57600080fd5b505afa158015610580573d6000803e3d6000fd5b505050506040513d6000823e601f3d908101601f191682016040526105a89190810190611acd565b90506060600082511115610e0f5760005b8251811015610e0d5760008382815181106105d6576105d6612265565b6020908102919091010151604051635e57966d60e01b815233600482015290915060009073__$acd136b36b4fe61d8edff89239067e5de1$__90635e57966d9060240160006040518083038186803b15801561063157600080fd5b505af4158015610645573d6000803e3d6000fd5b505050506040513d6000823e601f3d908101601f1916820160405261066d9190810190611bce565b600154604051631bf4604f60e11b8152600481018590529192506000916001600160a01b03909116906337e8c09e9060240160006040518083038186803b1580156106b757600080fd5b505afa1580156106cb573d6000803e3d6000fd5b505050506040513d6000823e601f3d908101601f191682016040526106f39190810190611c03565b6001546040805180820182526005815264424554454560d81b602082015290516322ad378f60e21b81529293506000926001600160a01b0390921691638ab4de3c9161074491889190600401611ddf565b60006040518083038186803b15801561075c57600080fd5b505afa158015610770573d6000803e3d6000fd5b505050506040513d6000823e601f3d908101601f191682016040526107989190810190611bce565b600154604080518082018252600a81526920a92124aa2920aa27a960b11b602082015290516322ad378f60e21b81529293506000926001600160a01b0390921691638ab4de3c916107ee91899190600401611ddf565b60006040518083038186803b15801561080657600080fd5b505afa15801561081a573d6000803e3d6000fd5b505050506040513d6000823e601f3d908101601f191682016040526108429190810190611bce565b6040808501519051635e57966d60e01b81526001600160a01b03909116600482015290915073__$6cf167dfb7c5c94c9fb5276b5691085b47$__9063bed34bba9073__$acd136b36b4fe61d8edff89239067e5de1$__90635e57966d9060240160006040518083038186803b1580156108ba57600080fd5b505af41580156108ce573d6000803e3d6000fd5b505050506040513d6000823e601f3d908101601f191682016040526108f69190810190611bce565b866040518363ffffffff1660e01b8152600401610914929190611e0b565b60206040518083038186803b15801561092c57600080fd5b505af4158015610940573d6000803e3d6000fd5b505050506040513d601f19601f820116820180604052508101906109649190611b7a565b15610aae5773__$6cf167dfb7c5c94c9fb5276b5691085b47$__63dfbe0b1f8873__$acd136b36b4fe61d8edff89239067e5de1$__639201de55896040518263ffffffff1660e01b81526004016109bd91815260200190565b60006040518083038186803b1580156109d557600080fd5b505af41580156109e9573d6000803e3d6000fd5b505050506040513d6000823e601f3d908101601f19168201604052610a119190810190611bce565b610a1e876080015161177c565b8760600151610a338960e0015160ff1661177c565b6040518663ffffffff1660e01b8152600401610a53959493929190611eff565b60006040518083038186803b158015610a6b57600080fd5b505af4158015610a7f573d6000803e3d6000fd5b505050506040513d6000823e601f3d908101601f19168201604052610aa79190810190611bce565b9650610df5565b604051635f69a5dd60e11b815273__$6cf167dfb7c5c94c9fb5276b5691085b47$__9063bed34bba90610ae79085908890600401611e0b565b60206040518083038186803b158015610aff57600080fd5b505af4158015610b13573d6000803e3d6000fd5b505050506040513d601f19601f82011682018060405250810190610b379190611b7a565b15610c265773__$6cf167dfb7c5c94c9fb5276b5691085b47$__63dfbe0b1f8873__$acd136b36b4fe61d8edff89239067e5de1$__639201de55896040518263ffffffff1660e01b8152600401610b9091815260200190565b60006040518083038186803b158015610ba857600080fd5b505af4158015610bbc573d6000803e3d6000fd5b505050506040513d6000823e601f3d908101601f19168201604052610be49190810190611bce565b610bf1876080015161177c565b8760600151610c068960e0015160ff1661177c565b6040518663ffffffff1660e01b8152600401610a53959493929190611fa7565b604051635f69a5dd60e11b815273__$6cf167dfb7c5c94c9fb5276b5691085b47$__9063bed34bba90610c5f9084908890600401611e0b565b60206040518083038186803b158015610c7757600080fd5b505af4158015610c8b573d6000803e3d6000fd5b505050506040513d601f19601f82011682018060405250810190610caf9190611b7a565b15610df55773__$6cf167dfb7c5c94c9fb5276b5691085b47$__63dfbe0b1f8873__$acd136b36b4fe61d8edff89239067e5de1$__639201de55896040518263ffffffff1660e01b8152600401610d0891815260200190565b60006040518083038186803b158015610d2057600080fd5b505af4158015610d34573d6000803e3d6000fd5b505050506040513d6000823e601f3d908101601f19168201604052610d5c9190810190611bce565b610d69876080015161177c565b8760600151610d7e8960e0015160ff1661177c565b6040518663ffffffff1660e01b8152600401610d9e95949392919061204f565b60006040518083038186803b158015610db657600080fd5b505af4158015610dca573d6000803e3d6000fd5b505050506040513d6000823e601f3d908101601f19168201604052610df29190810190611bce565b96505b50505050508080610e0590612234565b9150506105b9565b505b92915050565b60408051600f808252610200820190925260609160009190816020015b6060815260200190600190039081610e3257905050600154604051631bf4604f60e11b8152600481018690529192506000916001600160a01b03909116906337e8c09e9060240160006040518083038186803b158015610e9157600080fd5b505afa158015610ea5573d6000803e3d6000fd5b505050506040513d6000823e601f3d908101601f19168201604052610ecd9190810190611c03565b6040818101519051635e57966d60e01b81526001600160a01b03909116600482015290915073__$acd136b36b4fe61d8edff89239067e5de1$__90635e57966d9060240160006040518083038186803b158015610f2957600080fd5b505af4158015610f3d573d6000803e3d6000fd5b505050506040513d6000823e601f3d908101601f19168201604052610f659190810190611bce565b82600081518110610f7857610f78612265565b6020026020010181905250806060015182600181518110610f9b57610f9b612265565b6020026020010181905250610fb3816080015161177c565b82600281518110610fc657610fc6612265565b6020026020010181905250610fe18160a0015160ff1661177c565b82600381518110610ff457610ff4612265565b602002602001018190525061100f8160c0015160ff1661177c565b8260048151811061102257611022612265565b602002602001018190525061103b81610100015161177c565b8260058151811061104e5761104e612265565b602002602001018190525061106781610120015161177c565b8260068151811061107a5761107a612265565b602090810291909101810191909152600154604080518082018252600a81526920a92124aa2920aa27a960b11b93810193909352516322ad378f60e21b81526001600160a01b0390911691638ab4de3c916110d9918891600401611ddf565b60006040518083038186803b1580156110f157600080fd5b505afa158015611105573d6000803e3d6000fd5b505050506040513d6000823e601f3d908101601f1916820160405261112d9190810190611bce565b8260078151811061114057611140612265565b602090810291909101810191909152600154604080518082018252600e81526d41524249545241544f524e414d4560901b93810193909352516322ad378f60e21b81526001600160a01b0390911691638ab4de3c916111a3918891600401611ddf565b60006040518083038186803b1580156111bb57600080fd5b505afa1580156111cf573d6000803e3d6000fd5b505050506040513d6000823e601f3d908101601f191682016040526111f79190810190611bce565b8260088151811061120a5761120a612265565b602090810291909101810191909152600154604080518082018252600b81526a57494e5343454e4152494f60a81b93810193909352516322ad378f60e21b81526001600160a01b0390911691638ab4de3c9161126a918891600401611ddf565b60006040518083038186803b15801561128257600080fd5b505afa158015611296573d6000803e3d6000fd5b505050506040513d6000823e601f3d908101601f191682016040526112be9190810190611bce565b826009815181106112d1576112d1612265565b602090810291909101810191909152600154604080518082018252600c81526b4c4f53455343454e4152494f60a01b93810193909352516322ad378f60e21b81526001600160a01b0390911691638ab4de3c91611332918891600401611ddf565b60006040518083038186803b15801561134a57600080fd5b505afa15801561135e573d6000803e3d6000fd5b505050506040513d6000823e601f3d908101601f191682016040526113869190810190611bce565b82600a8151811061139957611399612265565b602090810291909101810191909152600154604080518082018252600e81526d43414e43454c5343454e4152494f60901b93810193909352516322ad378f60e21b81526001600160a01b0390911691638ab4de3c916113fc918891600401611ddf565b60006040518083038186803b15801561141457600080fd5b505afa158015611428573d6000803e3d6000fd5b505050506040513d6000823e601f3d908101601f191682016040526114509190810190611bce565b82600b8151811061146357611463612265565b602090810291909101810191909152600154604080518082018252601481527320a92124aa2920aa27a921a7a6a6a4a9a9a4a7a760611b93810193909352516322ad378f60e21b81526001600160a01b0390911691638ab4de3c916114cc918891600401611ddf565b60006040518083038186803b1580156114e457600080fd5b505afa1580156114f8573d6000803e3d6000fd5b505050506040513d6000823e601f3d908101601f191682016040526115209190810190611bce565b82600c8151811061153357611533612265565b602090810291909101810191909152600154604080518082018252601081526f1091551051d0525394d5105353d5539560821b93810193909352516322ad378f60e21b81526001600160a01b0390911691638ab4de3c91611598918891600401611ddf565b60006040518083038186803b1580156115b057600080fd5b505afa1580156115c4573d6000803e3d6000fd5b505050506040513d6000823e601f3d908101601f191682016040526115ec9190810190611bce565b82600d815181106115ff576115ff612265565b602090810291909101810191909152600154604080518082018252601481527314d51052d154115490d15395149154555254915160621b93810193909352516322ad378f60e21b81526001600160a01b0390911691638ab4de3c91611668918891600401611ddf565b60006040518083038186803b15801561168057600080fd5b505afa158015611694573d6000803e3d6000fd5b505050506040513d6000823e601f3d908101601f191682016040526116bc9190810190611bce565b82600e815181106116cf576116cf612265565b60209081029190910101525092915050565b6000546001600160a01b0316331461170b5760405162461bcd60e51b81526004016104aa906120f7565b6001600160a01b0381166117705760405162461bcd60e51b815260206004820152602660248201527f4f776e61626c653a206e6577206f776e657220697320746865207a65726f206160448201526564647265737360d01b60648201526084016104aa565b61177981611939565b50565b6060816117a05750506040805180820190915260018152600360fc1b602082015290565b8160005b81156117ca57806117b481612234565b91506117c39050600a836121ac565b91506117a4565b60008167ffffffffffffffff8111156117e5576117e561227b565b6040519080825280601f01601f19166020018201604052801561180f576020820181803683370190505b509050815b8515610477576118256001826121ed565b90506000611834600a886121ac565b61183f90600a6121ce565b61184990886121ed565b611854906030612187565b905060008160f81b90508084848151811061187157611871612265565b60200101906001600160f81b031916908160001a905350611893600a896121ac565b97505050611814565b600054600160a01b900460ff166118ec5760405162461bcd60e51b815260206004820152601460248201527314185d5cd8589b194e881b9bdd081c185d5cd95960621b60448201526064016104aa565b6000805460ff60a01b191690557f5db9ee0a495bf2e6ff9c91a7834c1ba4fdd244a5e8aa4e537bd38aeae4b073aa335b6040516001600160a01b03909116815260200160405180910390a1565b600080546001600160a01b038381166001600160a01b0319831681178455604051919092169283917f8be0079c531659141344cd1fd0a4f28419497f9722a3daafe3b4186f6b6457e09190a35050565b600054600160a01b900460ff16156119d65760405162461bcd60e51b815260206004820152601060248201526f14185d5cd8589b194e881c185d5cd95960821b60448201526064016104aa565b6000805460ff60a01b1916600160a01b1790557f62e78cea01bee320cd4e420270b5ea74000d11b0c9f74754ebdbfc544b05a25861191c3390565b8051611a1c81612291565b919050565b600082601f830112611a3257600080fd5b815167ffffffffffffffff811115611a4c57611a4c61227b565b611a5f601f8201601f1916602001612156565b818152846020838601011115611a7457600080fd5b611a85826020830160208701612204565b949350505050565b8051611a1c816122a6565b805160ff81168114611a1c57600080fd5b600060208284031215611abb57600080fd5b8135611ac681612291565b9392505050565b60006020808385031215611ae057600080fd5b825167ffffffffffffffff80821115611af857600080fd5b818501915085601f830112611b0c57600080fd5b815181811115611b1e57611b1e61227b565b8060051b9150611b2f848301612156565b8181528481019084860184860187018a1015611b4a57600080fd5b600095505b83861015611b6d578051835260019590950194918601918601611b4f565b5098975050505050505050565b600060208284031215611b8c57600080fd5b81518015158114611ac657600080fd5b600060208284031215611bae57600080fd5b5035919050565b600060208284031215611bc757600080fd5b5051919050565b600060208284031215611be057600080fd5b815167ffffffffffffffff811115611bf757600080fd5b611a8584828501611a21565b600060208284031215611c1557600080fd5b815167ffffffffffffffff80821115611c2d57600080fd5b908301906101408286031215611c4257600080fd5b611c4a61212c565b611c5383611a8d565b815260208301516020820152611c6b60408401611a11565b6040820152606083015182811115611c8257600080fd5b611c8e87828601611a21565b60608301525060808301516080820152611caa60a08401611a98565b60a0820152611cbb60c08401611a98565b60c0820152611ccc60e08401611a98565b60e082015261010083810151908201526101209283015192810192909252509392505050565b600080600060608486031215611d0757600080fd5b8335611d12816122a6565b92506020840135611d22816122a6565b91506040840135611d32816122a6565b809150509250925092565b60008151808452611d55816020860160208601612204565b601f01601f19169290920160200192915050565b60018152600b60fa1b602082015260400190565b6000602080830181845280855180835260408601915060408160051b870101925083870160005b82811015611dd257603f19888603018452611dc0858351611d3d565b94509285019290850190600101611da4565b5092979650505050505050565b828152604060208201526000611a856040830184611d3d565b602081526000611ac66020830184611d3d565b604081526000611e1e6040830185611d3d565b8281036020840152611e308185611d3d565b95945050505050565b6000610120808352611e4d81840189611d3d565b90508281036020840152611e618188611d3d565b90508281036040840152611e7481611d69565b90508281036060840152611e888187611d3d565b90508281036080840152611e9b81611d69565b905082810360a0840152611eaf8186611d3d565b905082810360c0840152611ec281611d69565b905082810360e0840152611ed68185611d3d565b83810361010085015260018152601f60fa1b602082015290506040810198975050505050505050565b6000610120808352611f1381840189611d3d565b90508281036020840152611f278188611d3d565b90508281036040840152611f3a81611d69565b90508281036060840152611f4e8187611d3d565b90508281036080840152611f6181611d69565b905082810360a0840152611f758186611d3d565b90508281038060c085015260038252620b0c4b60ea1b60208301526040810160e085015250611ed66040820185611d3d565b6000610120808352611fbb81840189611d3d565b90508281036020840152611fcf8188611d3d565b90508281036040840152611fe281611d69565b90508281036060840152611ff68187611d3d565b9050828103608084015261200981611d69565b905082810360a084015261201d8186611d3d565b90508281038060c085015260038252620b0c8b60ea1b60208301526040810160e085015250611ed66040820185611d3d565b600061012080835261206381840189611d3d565b905082810360208401526120778188611d3d565b9050828103604084015261208a81611d69565b9050828103606084015261209e8187611d3d565b905082810360808401526120b181611d69565b905082810360a08401526120c58186611d3d565b90508281038060c085015260038252620b0d0b60ea1b60208301526040810160e085015250611ed66040820185611d3d565b6020808252818101527f4f776e61626c653a2063616c6c6572206973206e6f7420746865206f776e6572604082015260600190565b604051610140810167ffffffffffffffff811182821017156121505761215061227b565b60405290565b604051601f8201601f1916810167ffffffffffffffff8111828210171561217f5761217f61227b565b604052919050565b600060ff821660ff84168060ff038211156121a4576121a461224f565b019392505050565b6000826121c957634e487b7160e01b600052601260045260246000fd5b500490565b60008160001904831182151516156121e8576121e861224f565b500290565b6000828210156121ff576121ff61224f565b500390565b60005b8381101561221f578181015183820152602001612207565b8381111561222e576000848401525b50505050565b60006000198214156122485761224861224f565b5060010190565b634e487b7160e01b600052601160045260246000fd5b634e487b7160e01b600052603260045260246000fd5b634e487b7160e01b600052604160045260246000fd5b6001600160a01b038116811461177957600080fd5b61ffff8116811461177957600080fdfea2646970667358221220654627ab3e3c140dd5ca1a0003ef725c75a673533c06e1b7543e9254f6d508ce64736f6c63430008070033",
			"opcodes": "PUSH1 0x80 PUSH1 0x40 MSTORE CALLVALUE DUP1 ISZERO PUSH3 0x11 JUMPI PUSH1 0x0 DUP1 REVERT JUMPDEST POP PUSH1 0x40 MLOAD PUSH3 0x23F0 CODESIZE SUB DUP1 PUSH3 0x23F0 DUP4 CODECOPY DUP2 ADD PUSH1 0x40 DUP2 SWAP1 MSTORE PUSH3 0x34 SWAP2 PUSH3 0xC2 JUMP JUMPDEST PUSH3 0x3F CALLER PUSH3 0x72 JUMP JUMPDEST PUSH1 0x0 DUP1 SLOAD PUSH1 0xFF PUSH1 0xA0 SHL NOT AND SWAP1 SSTORE PUSH1 0x1 DUP1 SLOAD PUSH1 0x1 PUSH1 0x1 PUSH1 0xA0 SHL SUB NOT AND PUSH1 0x1 PUSH1 0x1 PUSH1 0xA0 SHL SUB SWAP3 SWAP1 SWAP3 AND SWAP2 SWAP1 SWAP2 OR SWAP1 SSTORE PUSH3 0xF4 JUMP JUMPDEST PUSH1 0x0 DUP1 SLOAD PUSH1 0x1 PUSH1 0x1 PUSH1 0xA0 SHL SUB DUP4 DUP2 AND PUSH1 0x1 PUSH1 0x1 PUSH1 0xA0 SHL SUB NOT DUP4 AND DUP2 OR DUP5 SSTORE PUSH1 0x40 MLOAD SWAP2 SWAP1 SWAP3 AND SWAP3 DUP4 SWAP2 PUSH32 0x8BE0079C531659141344CD1FD0A4F28419497F9722A3DAAFE3B4186F6B6457E0 SWAP2 SWAP1 LOG3 POP POP JUMP JUMPDEST PUSH1 0x0 PUSH1 0x20 DUP3 DUP5 SUB SLT ISZERO PUSH3 0xD5 JUMPI PUSH1 0x0 DUP1 REVERT JUMPDEST DUP2 MLOAD PUSH1 0x1 PUSH1 0x1 PUSH1 0xA0 SHL SUB DUP2 AND DUP2 EQ PUSH3 0xED JUMPI PUSH1 0x0 DUP1 REVERT JUMPDEST SWAP4 SWAP3 POP POP POP JUMP JUMPDEST PUSH2 0x22EC DUP1 PUSH3 0x104 PUSH1 0x0 CODECOPY PUSH1 0x0 RETURN INVALID PUSH1 0x80 PUSH1 0x40 MSTORE CALLVALUE DUP1 ISZERO PUSH2 0x10 JUMPI PUSH1 0x0 DUP1 REVERT JUMPDEST POP PUSH1 0x4 CALLDATASIZE LT PUSH2 0x93 JUMPI PUSH1 0x0 CALLDATALOAD PUSH1 0xE0 SHR DUP1 PUSH4 0x8456CB59 GT PUSH2 0x66 JUMPI DUP1 PUSH4 0x8456CB59 EQ PUSH2 0xF0 JUMPI DUP1 PUSH4 0x8DA5CB5B EQ PUSH2 0xF8 JUMPI DUP1 PUSH4 0x99535BD7 EQ PUSH2 0x113 JUMPI DUP1 PUSH4 0x9C11180D EQ PUSH2 0x11B JUMPI DUP1 PUSH4 0xF2FDE38B EQ PUSH2 0x13B JUMPI PUSH1 0x0 DUP1 REVERT JUMPDEST DUP1 PUSH4 0x19275D79 EQ PUSH2 0x98 JUMPI DUP1 PUSH4 0x3F4BA83A EQ PUSH2 0xC1 JUMPI DUP1 PUSH4 0x5C975ABB EQ PUSH2 0xCB JUMPI DUP1 PUSH4 0x715018A6 EQ PUSH2 0xE8 JUMPI JUMPDEST PUSH1 0x0 DUP1 REVERT JUMPDEST PUSH2 0xAB PUSH2 0xA6 CALLDATASIZE PUSH1 0x4 PUSH2 0x1CF2 JUMP JUMPDEST PUSH2 0x14E JUMP JUMPDEST PUSH1 0x40 MLOAD PUSH2 0xB8 SWAP2 SWAP1 PUSH2 0x1DF8 JUMP JUMPDEST PUSH1 0x40 MLOAD DUP1 SWAP2 SUB SWAP1 RETURN JUMPDEST PUSH2 0xC9 PUSH2 0x480 JUMP JUMPDEST STOP JUMPDEST PUSH1 0x0 SLOAD PUSH1 0x1 PUSH1 0xA0 SHL SWAP1 DIV PUSH1 0xFF AND PUSH1 0x40 MLOAD SWAP1 ISZERO ISZERO DUP2 MSTORE PUSH1 0x20 ADD PUSH2 0xB8 JUMP JUMPDEST PUSH2 0xC9 PUSH2 0x4BD JUMP JUMPDEST PUSH2 0xC9 PUSH2 0x4F1 JUMP JUMPDEST PUSH1 0x0 SLOAD PUSH1 0x40 MLOAD PUSH1 0x1 PUSH1 0x1 PUSH1 0xA0 SHL SUB SWAP1 SWAP2 AND DUP2 MSTORE PUSH1 0x20 ADD PUSH2 0xB8 JUMP JUMPDEST PUSH2 0xAB PUSH2 0x523 JUMP JUMPDEST PUSH2 0x12E PUSH2 0x129 CALLDATASIZE PUSH1 0x4 PUSH2 0x1B9C JUMP JUMPDEST PUSH2 0xE15 JUMP JUMPDEST PUSH1 0x40 MLOAD PUSH2 0xB8 SWAP2 SWAP1 PUSH2 0x1D7D JUMP JUMPDEST PUSH2 0xC9 PUSH2 0x149 CALLDATASIZE PUSH1 0x4 PUSH2 0x1AA9 JUMP JUMPDEST PUSH2 0x16E1 JUMP JUMPDEST PUSH1 0x60 DUP1 PUSH1 0x0 JUMPDEST PUSH1 0x1 SLOAD PUSH1 0x40 MLOAD PUSH4 0x584603C9 PUSH1 0xE0 SHL DUP2 MSTORE PUSH2 0xFFFF DUP1 DUP10 AND PUSH1 0x4 DUP4 ADD MSTORE DUP1 DUP9 AND PUSH1 0x24 DUP4 ADD MSTORE DUP7 AND PUSH1 0x44 DUP3 ADD MSTORE PUSH1 0x0 PUSH1 0x64 DUP3 ADD MSTORE PUSH1 0x1 PUSH1 0x1 PUSH1 0xA0 SHL SUB SWAP1 SWAP2 AND SWAP1 PUSH4 0x584603C9 SWAP1 PUSH1 0x84 ADD PUSH1 0x20 PUSH1 0x40 MLOAD DUP1 DUP4 SUB DUP2 DUP7 DUP1 EXTCODESIZE ISZERO DUP1 ISZERO PUSH2 0x1B2 JUMPI PUSH1 0x0 DUP1 REVERT JUMPDEST POP GAS STATICCALL ISZERO DUP1 ISZERO PUSH2 0x1C6 JUMPI RETURNDATASIZE PUSH1 0x0 DUP1 RETURNDATACOPY RETURNDATASIZE PUSH1 0x0 REVERT JUMPDEST POP POP POP POP PUSH1 0x40 MLOAD RETURNDATASIZE PUSH1 0x1F NOT PUSH1 0x1F DUP3 ADD AND DUP3 ADD DUP1 PUSH1 0x40 MSTORE POP DUP2 ADD SWAP1 PUSH2 0x1EA SWAP2 SWAP1 PUSH2 0x1BB5 JUMP JUMPDEST DUP2 LT ISZERO PUSH2 0x477 JUMPI PUSH1 0x1 SLOAD PUSH1 0x40 MLOAD PUSH4 0x37F288C7 PUSH1 0xE2 SHL DUP2 MSTORE PUSH2 0xFFFF DUP1 DUP10 AND PUSH1 0x4 DUP4 ADD MSTORE DUP1 DUP9 AND PUSH1 0x24 DUP4 ADD MSTORE DUP7 AND PUSH1 0x44 DUP3 ADD MSTORE PUSH1 0x0 PUSH1 0x64 DUP3 ADD DUP2 SWAP1 MSTORE PUSH1 0x84 DUP3 ADD DUP5 SWAP1 MSTORE SWAP2 PUSH1 0x1 PUSH1 0x1 PUSH1 0xA0 SHL SUB AND SWAP1 PUSH4 0xDFCA231C SWAP1 PUSH1 0xA4 ADD PUSH1 0x20 PUSH1 0x40 MLOAD DUP1 DUP4 SUB DUP2 DUP7 DUP1 EXTCODESIZE ISZERO DUP1 ISZERO PUSH2 0x257 JUMPI PUSH1 0x0 DUP1 REVERT JUMPDEST POP GAS STATICCALL ISZERO DUP1 ISZERO PUSH2 0x26B JUMPI RETURNDATASIZE PUSH1 0x0 DUP1 RETURNDATACOPY RETURNDATASIZE PUSH1 0x0 REVERT JUMPDEST POP POP POP POP PUSH1 0x40 MLOAD RETURNDATASIZE PUSH1 0x1F NOT PUSH1 0x1F DUP3 ADD AND DUP3 ADD DUP1 PUSH1 0x40 MSTORE POP DUP2 ADD SWAP1 PUSH2 0x28F SWAP2 SWAP1 PUSH2 0x1BB5 JUMP JUMPDEST PUSH1 0x1 SLOAD PUSH1 0x40 MLOAD PUSH4 0x1BF4604F PUSH1 0xE1 SHL DUP2 MSTORE PUSH1 0x4 DUP2 ADD DUP4 SWAP1 MSTORE SWAP2 SWAP3 POP PUSH1 0x0 SWAP2 PUSH1 0x1 PUSH1 0x1 PUSH1 0xA0 SHL SUB SWAP1 SWAP2 AND SWAP1 PUSH4 0x37E8C09E SWAP1 PUSH1 0x24 ADD PUSH1 0x0 PUSH1 0x40 MLOAD DUP1 DUP4 SUB DUP2 DUP7 DUP1 EXTCODESIZE ISZERO DUP1 ISZERO PUSH2 0x2D9 JUMPI PUSH1 0x0 DUP1 REVERT JUMPDEST POP GAS STATICCALL ISZERO DUP1 ISZERO PUSH2 0x2ED JUMPI RETURNDATASIZE PUSH1 0x0 DUP1 RETURNDATACOPY RETURNDATASIZE PUSH1 0x0 REVERT JUMPDEST POP POP POP POP PUSH1 0x40 MLOAD RETURNDATASIZE PUSH1 0x0 DUP3 RETURNDATACOPY PUSH1 0x1F RETURNDATASIZE SWAP1 DUP2 ADD PUSH1 0x1F NOT AND DUP3 ADD PUSH1 0x40 MSTORE PUSH2 0x315 SWAP2 SWAP1 DUP2 ADD SWAP1 PUSH2 0x1C03 JUMP JUMPDEST SWAP1 POP TIMESTAMP DUP2 PUSH1 0x80 ADD MLOAD GT ISZERO PUSH2 0x462 JUMPI PUSH20 0x0 PUSH4 0xDFBE0B1F DUP6 PUSH20 0x0 PUSH4 0x9201DE55 DUP7 PUSH1 0x40 MLOAD DUP3 PUSH4 0xFFFFFFFF AND PUSH1 0xE0 SHL DUP2 MSTORE PUSH1 0x4 ADD PUSH2 0x377 SWAP2 DUP2 MSTORE PUSH1 0x20 ADD SWAP1 JUMP JUMPDEST PUSH1 0x0 PUSH1 0x40 MLOAD DUP1 DUP4 SUB DUP2 DUP7 DUP1 EXTCODESIZE ISZERO DUP1 ISZERO PUSH2 0x38F JUMPI PUSH1 0x0 DUP1 REVERT JUMPDEST POP GAS DELEGATECALL ISZERO DUP1 ISZERO PUSH2 0x3A3 JUMPI RETURNDATASIZE PUSH1 0x0 DUP1 RETURNDATACOPY RETURNDATASIZE PUSH1 0x0 REVERT JUMPDEST POP POP POP POP PUSH1 0x40 MLOAD RETURNDATASIZE PUSH1 0x0 DUP3 RETURNDATACOPY PUSH1 0x1F RETURNDATASIZE SWAP1 DUP2 ADD PUSH1 0x1F NOT AND DUP3 ADD PUSH1 0x40 MSTORE PUSH2 0x3CB SWAP2 SWAP1 DUP2 ADD SWAP1 PUSH2 0x1BCE JUMP JUMPDEST PUSH2 0x3D8 DUP6 PUSH1 0x80 ADD MLOAD PUSH2 0x177C JUMP JUMPDEST DUP6 PUSH1 0x60 ADD MLOAD PUSH2 0x3EB DUP8 PUSH2 0x100 ADD MLOAD PUSH2 0x177C JUMP JUMPDEST PUSH1 0x40 MLOAD DUP7 PUSH4 0xFFFFFFFF AND PUSH1 0xE0 SHL DUP2 MSTORE PUSH1 0x4 ADD PUSH2 0x40B SWAP6 SWAP5 SWAP4 SWAP3 SWAP2 SWAP1 PUSH2 0x1E39 JUMP JUMPDEST PUSH1 0x0 PUSH1 0x40 MLOAD DUP1 DUP4 SUB DUP2 DUP7 DUP1 EXTCODESIZE ISZERO DUP1 ISZERO PUSH2 0x423 JUMPI PUSH1 0x0 DUP1 REVERT JUMPDEST POP GAS DELEGATECALL ISZERO DUP1 ISZERO PUSH2 0x437 JUMPI RETURNDATASIZE PUSH1 0x0 DUP1 RETURNDATACOPY RETURNDATASIZE PUSH1 0x0 REVERT JUMPDEST POP POP POP POP PUSH1 0x40 MLOAD RETURNDATASIZE PUSH1 0x0 DUP3 RETURNDATACOPY PUSH1 0x1F RETURNDATASIZE SWAP1 DUP2 ADD PUSH1 0x1F NOT AND DUP3 ADD PUSH1 0x40 MSTORE PUSH2 0x45F SWAP2 SWAP1 DUP2 ADD SWAP1 PUSH2 0x1BCE JUMP JUMPDEST SWAP4 POP JUMPDEST POP POP DUP1 DUP1 PUSH2 0x46F SWAP1 PUSH2 0x2234 JUMP JUMPDEST SWAP2 POP POP PUSH2 0x154 JUMP JUMPDEST POP SWAP5 SWAP4 POP POP POP POP JUMP JUMPDEST PUSH1 0x0 SLOAD PUSH1 0x1 PUSH1 0x1 PUSH1 0xA0 SHL SUB AND CALLER EQ PUSH2 0x4B3 JUMPI PUSH1 0x40 MLOAD PUSH3 0x461BCD PUSH1 0xE5 SHL DUP2 MSTORE PUSH1 0x4 ADD PUSH2 0x4AA SWAP1 PUSH2 0x20F7 JUMP JUMPDEST PUSH1 0x40 MLOAD DUP1 SWAP2 SUB SWAP1 REVERT JUMPDEST PUSH2 0x4BB PUSH2 0x189C JUMP JUMPDEST JUMP JUMPDEST PUSH1 0x0 SLOAD PUSH1 0x1 PUSH1 0x1 PUSH1 0xA0 SHL SUB AND CALLER EQ PUSH2 0x4E7 JUMPI PUSH1 0x40 MLOAD PUSH3 0x461BCD PUSH1 0xE5 SHL DUP2 MSTORE PUSH1 0x4 ADD PUSH2 0x4AA SWAP1 PUSH2 0x20F7 JUMP JUMPDEST PUSH2 0x4BB PUSH1 0x0 PUSH2 0x1939 JUMP JUMPDEST PUSH1 0x0 SLOAD PUSH1 0x1 PUSH1 0x1 PUSH1 0xA0 SHL SUB AND CALLER EQ PUSH2 0x51B JUMPI PUSH1 0x40 MLOAD PUSH3 0x461BCD PUSH1 0xE5 SHL DUP2 MSTORE PUSH1 0x4 ADD PUSH2 0x4AA SWAP1 PUSH2 0x20F7 JUMP JUMPDEST PUSH2 0x4BB PUSH2 0x1989 JUMP JUMPDEST PUSH1 0x1 SLOAD PUSH1 0x40 MLOAD PUSH4 0xD5A1AD61 PUSH1 0xE0 SHL DUP2 MSTORE CALLER PUSH1 0x4 DUP3 ADD MSTORE PUSH1 0x60 SWAP2 PUSH1 0x0 SWAP2 PUSH1 0x1 PUSH1 0x1 PUSH1 0xA0 SHL SUB SWAP1 SWAP2 AND SWAP1 PUSH4 0xD5A1AD61 SWAP1 PUSH1 0x24 ADD PUSH1 0x0 PUSH1 0x40 MLOAD DUP1 DUP4 SUB DUP2 DUP7 DUP1 EXTCODESIZE ISZERO DUP1 ISZERO PUSH2 0x56C JUMPI PUSH1 0x0 DUP1 REVERT JUMPDEST POP GAS STATICCALL ISZERO DUP1 ISZERO PUSH2 0x580 JUMPI RETURNDATASIZE PUSH1 0x0 DUP1 RETURNDATACOPY RETURNDATASIZE PUSH1 0x0 REVERT JUMPDEST POP POP POP POP PUSH1 0x40 MLOAD RETURNDATASIZE PUSH1 0x0 DUP3 RETURNDATACOPY PUSH1 0x1F RETURNDATASIZE SWAP1 DUP2 ADD PUSH1 0x1F NOT AND DUP3 ADD PUSH1 0x40 MSTORE PUSH2 0x5A8 SWAP2 SWAP1 DUP2 ADD SWAP1 PUSH2 0x1ACD JUMP JUMPDEST SWAP1 POP PUSH1 0x60 PUSH1 0x0 DUP3 MLOAD GT ISZERO PUSH2 0xE0F JUMPI PUSH1 0x0 JUMPDEST DUP3 MLOAD DUP2 LT ISZERO PUSH2 0xE0D JUMPI PUSH1 0x0 DUP4 DUP3 DUP2 MLOAD DUP2 LT PUSH2 0x5D6 JUMPI PUSH2 0x5D6 PUSH2 0x2265 JUMP JUMPDEST PUSH1 0x20 SWAP1 DUP2 MUL SWAP2 SWAP1 SWAP2 ADD ADD MLOAD PUSH1 0x40 MLOAD PUSH4 0x5E57966D PUSH1 0xE0 SHL DUP2 MSTORE CALLER PUSH1 0x4 DUP3 ADD MSTORE SWAP1 SWAP2 POP PUSH1 0x0 SWAP1 PUSH20 0x0 SWAP1 PUSH4 0x5E57966D SWAP1 PUSH1 0x24 ADD PUSH1 0x0 PUSH1 0x40 MLOAD DUP1 DUP4 SUB DUP2 DUP7 DUP1 EXTCODESIZE ISZERO DUP1 ISZERO PUSH2 0x631 JUMPI PUSH1 0x0 DUP1 REVERT JUMPDEST POP GAS DELEGATECALL ISZERO DUP1 ISZERO PUSH2 0x645 JUMPI RETURNDATASIZE PUSH1 0x0 DUP1 RETURNDATACOPY RETURNDATASIZE PUSH1 0x0 REVERT JUMPDEST POP POP POP POP PUSH1 0x40 MLOAD RETURNDATASIZE PUSH1 0x0 DUP3 RETURNDATACOPY PUSH1 0x1F RETURNDATASIZE SWAP1 DUP2 ADD PUSH1 0x1F NOT AND DUP3 ADD PUSH1 0x40 MSTORE PUSH2 0x66D SWAP2 SWAP1 DUP2 ADD SWAP1 PUSH2 0x1BCE JUMP JUMPDEST PUSH1 0x1 SLOAD PUSH1 0x40 MLOAD PUSH4 0x1BF4604F PUSH1 0xE1 SHL DUP2 MSTORE PUSH1 0x4 DUP2 ADD DUP6 SWAP1 MSTORE SWAP2 SWAP3 POP PUSH1 0x0 SWAP2 PUSH1 0x1 PUSH1 0x1 PUSH1 0xA0 SHL SUB SWAP1 SWAP2 AND SWAP1 PUSH4 0x37E8C09E SWAP1 PUSH1 0x24 ADD PUSH1 0x0 PUSH1 0x40 MLOAD DUP1 DUP4 SUB DUP2 DUP7 DUP1 EXTCODESIZE ISZERO DUP1 ISZERO PUSH2 0x6B7 JUMPI PUSH1 0x0 DUP1 REVERT JUMPDEST POP GAS STATICCALL ISZERO DUP1 ISZERO PUSH2 0x6CB JUMPI RETURNDATASIZE PUSH1 0x0 DUP1 RETURNDATACOPY RETURNDATASIZE PUSH1 0x0 REVERT JUMPDEST POP POP POP POP PUSH1 0x40 MLOAD RETURNDATASIZE PUSH1 0x0 DUP3 RETURNDATACOPY PUSH1 0x1F RETURNDATASIZE SWAP1 DUP2 ADD PUSH1 0x1F NOT AND DUP3 ADD PUSH1 0x40 MSTORE PUSH2 0x6F3 SWAP2 SWAP1 DUP2 ADD SWAP1 PUSH2 0x1C03 JUMP JUMPDEST PUSH1 0x1 SLOAD PUSH1 0x40 DUP1 MLOAD DUP1 DUP3 ADD DUP3 MSTORE PUSH1 0x5 DUP2 MSTORE PUSH5 0x4245544545 PUSH1 0xD8 SHL PUSH1 0x20 DUP3 ADD MSTORE SWAP1 MLOAD PUSH4 0x22AD378F PUSH1 0xE2 SHL DUP2 MSTORE SWAP3 SWAP4 POP PUSH1 0x0 SWAP3 PUSH1 0x1 PUSH1 0x1 PUSH1 0xA0 SHL SUB SWAP1 SWAP3 AND SWAP2 PUSH4 0x8AB4DE3C SWAP2 PUSH2 0x744 SWAP2 DUP9 SWAP2 SWAP1 PUSH1 0x4 ADD PUSH2 0x1DDF JUMP JUMPDEST PUSH1 0x0 PUSH1 0x40 MLOAD DUP1 DUP4 SUB DUP2 DUP7 DUP1 EXTCODESIZE ISZERO DUP1 ISZERO PUSH2 0x75C JUMPI PUSH1 0x0 DUP1 REVERT JUMPDEST POP GAS STATICCALL ISZERO DUP1 ISZERO PUSH2 0x770 JUMPI RETURNDATASIZE PUSH1 0x0 DUP1 RETURNDATACOPY RETURNDATASIZE PUSH1 0x0 REVERT JUMPDEST POP POP POP POP PUSH1 0x40 MLOAD RETURNDATASIZE PUSH1 0x0 DUP3 RETURNDATACOPY PUSH1 0x1F RETURNDATASIZE SWAP1 DUP2 ADD PUSH1 0x1F NOT AND DUP3 ADD PUSH1 0x40 MSTORE PUSH2 0x798 SWAP2 SWAP1 DUP2 ADD SWAP1 PUSH2 0x1BCE JUMP JUMPDEST PUSH1 0x1 SLOAD PUSH1 0x40 DUP1 MLOAD DUP1 DUP3 ADD DUP3 MSTORE PUSH1 0xA DUP2 MSTORE PUSH10 0x20A92124AA2920AA27A9 PUSH1 0xB1 SHL PUSH1 0x20 DUP3 ADD MSTORE SWAP1 MLOAD PUSH4 0x22AD378F PUSH1 0xE2 SHL DUP2 MSTORE SWAP3 SWAP4 POP PUSH1 0x0 SWAP3 PUSH1 0x1 PUSH1 0x1 PUSH1 0xA0 SHL SUB SWAP1 SWAP3 AND SWAP2 PUSH4 0x8AB4DE3C SWAP2 PUSH2 0x7EE SWAP2 DUP10 SWAP2 SWAP1 PUSH1 0x4 ADD PUSH2 0x1DDF JUMP JUMPDEST PUSH1 0x0 PUSH1 0x40 MLOAD DUP1 DUP4 SUB DUP2 DUP7 DUP1 EXTCODESIZE ISZERO DUP1 ISZERO PUSH2 0x806 JUMPI PUSH1 0x0 DUP1 REVERT JUMPDEST POP GAS STATICCALL ISZERO DUP1 ISZERO PUSH2 0x81A JUMPI RETURNDATASIZE PUSH1 0x0 DUP1 RETURNDATACOPY RETURNDATASIZE PUSH1 0x0 REVERT JUMPDEST POP POP POP POP PUSH1 0x40 MLOAD RETURNDATASIZE PUSH1 0x0 DUP3 RETURNDATACOPY PUSH1 0x1F RETURNDATASIZE SWAP1 DUP2 ADD PUSH1 0x1F NOT AND DUP3 ADD PUSH1 0x40 MSTORE PUSH2 0x842 SWAP2 SWAP1 DUP2 ADD SWAP1 PUSH2 0x1BCE JUMP JUMPDEST PUSH1 0x40 DUP1 DUP6 ADD MLOAD SWAP1 MLOAD PUSH4 0x5E57966D PUSH1 0xE0 SHL DUP2 MSTORE PUSH1 0x1 PUSH1 0x1 PUSH1 0xA0 SHL SUB SWAP1 SWAP2 AND PUSH1 0x4 DUP3 ADD MSTORE SWAP1 SWAP2 POP PUSH20 0x0 SWAP1 PUSH4 0xBED34BBA SWAP1 PUSH20 0x0 SWAP1 PUSH4 0x5E57966D SWAP1 PUSH1 0x24 ADD PUSH1 0x0 PUSH1 0x40 MLOAD DUP1 DUP4 SUB DUP2 DUP7 DUP1 EXTCODESIZE ISZERO DUP1 ISZERO PUSH2 0x8BA JUMPI PUSH1 0x0 DUP1 REVERT JUMPDEST POP GAS DELEGATECALL ISZERO DUP1 ISZERO PUSH2 0x8CE JUMPI RETURNDATASIZE PUSH1 0x0 DUP1 RETURNDATACOPY RETURNDATASIZE PUSH1 0x0 REVERT JUMPDEST POP POP POP POP PUSH1 0x40 MLOAD RETURNDATASIZE PUSH1 0x0 DUP3 RETURNDATACOPY PUSH1 0x1F RETURNDATASIZE SWAP1 DUP2 ADD PUSH1 0x1F NOT AND DUP3 ADD PUSH1 0x40 MSTORE PUSH2 0x8F6 SWAP2 SWAP1 DUP2 ADD SWAP1 PUSH2 0x1BCE JUMP JUMPDEST DUP7 PUSH1 0x40 MLOAD DUP4 PUSH4 0xFFFFFFFF AND PUSH1 0xE0 SHL DUP2 MSTORE PUSH1 0x4 ADD PUSH2 0x914 SWAP3 SWAP2 SWAP1 PUSH2 0x1E0B JUMP JUMPDEST PUSH1 0x20 PUSH1 0x40 MLOAD DUP1 DUP4 SUB DUP2 DUP7 DUP1 EXTCODESIZE ISZERO DUP1 ISZERO PUSH2 0x92C JUMPI PUSH1 0x0 DUP1 REVERT JUMPDEST POP GAS DELEGATECALL ISZERO DUP1 ISZERO PUSH2 0x940 JUMPI RETURNDATASIZE PUSH1 0x0 DUP1 RETURNDATACOPY RETURNDATASIZE PUSH1 0x0 REVERT JUMPDEST POP POP POP POP PUSH1 0x40 MLOAD RETURNDATASIZE PUSH1 0x1F NOT PUSH1 0x1F DUP3 ADD AND DUP3 ADD DUP1 PUSH1 0x40 MSTORE POP DUP2 ADD SWAP1 PUSH2 0x964 SWAP2 SWAP1 PUSH2 0x1B7A JUMP JUMPDEST ISZERO PUSH2 0xAAE JUMPI PUSH20 0x0 PUSH4 0xDFBE0B1F DUP9 PUSH20 0x0 PUSH4 0x9201DE55 DUP10 PUSH1 0x40 MLOAD DUP3 PUSH4 0xFFFFFFFF AND PUSH1 0xE0 SHL DUP2 MSTORE PUSH1 0x4 ADD PUSH2 0x9BD SWAP2 DUP2 MSTORE PUSH1 0x20 ADD SWAP1 JUMP JUMPDEST PUSH1 0x0 PUSH1 0x40 MLOAD DUP1 DUP4 SUB DUP2 DUP7 DUP1 EXTCODESIZE ISZERO DUP1 ISZERO PUSH2 0x9D5 JUMPI PUSH1 0x0 DUP1 REVERT JUMPDEST POP GAS DELEGATECALL ISZERO DUP1 ISZERO PUSH2 0x9E9 JUMPI RETURNDATASIZE PUSH1 0x0 DUP1 RETURNDATACOPY RETURNDATASIZE PUSH1 0x0 REVERT JUMPDEST POP POP POP POP PUSH1 0x40 MLOAD RETURNDATASIZE PUSH1 0x0 DUP3 RETURNDATACOPY PUSH1 0x1F RETURNDATASIZE SWAP1 DUP2 ADD PUSH1 0x1F NOT AND DUP3 ADD PUSH1 0x40 MSTORE PUSH2 0xA11 SWAP2 SWAP1 DUP2 ADD SWAP1 PUSH2 0x1BCE JUMP JUMPDEST PUSH2 0xA1E DUP8 PUSH1 0x80 ADD MLOAD PUSH2 0x177C JUMP JUMPDEST DUP8 PUSH1 0x60 ADD MLOAD PUSH2 0xA33 DUP10 PUSH1 0xE0 ADD MLOAD PUSH1 0xFF AND PUSH2 0x177C JUMP JUMPDEST PUSH1 0x40 MLOAD DUP7 PUSH4 0xFFFFFFFF AND PUSH1 0xE0 SHL DUP2 MSTORE PUSH1 0x4 ADD PUSH2 0xA53 SWAP6 SWAP5 SWAP4 SWAP3 SWAP2 SWAP1 PUSH2 0x1EFF JUMP JUMPDEST PUSH1 0x0 PUSH1 0x40 MLOAD DUP1 DUP4 SUB DUP2 DUP7 DUP1 EXTCODESIZE ISZERO DUP1 ISZERO PUSH2 0xA6B JUMPI PUSH1 0x0 DUP1 REVERT JUMPDEST POP GAS DELEGATECALL ISZERO DUP1 ISZERO PUSH2 0xA7F JUMPI RETURNDATASIZE PUSH1 0x0 DUP1 RETURNDATACOPY RETURNDATASIZE PUSH1 0x0 REVERT JUMPDEST POP POP POP POP PUSH1 0x40 MLOAD RETURNDATASIZE PUSH1 0x0 DUP3 RETURNDATACOPY PUSH1 0x1F RETURNDATASIZE SWAP1 DUP2 ADD PUSH1 0x1F NOT AND DUP3 ADD PUSH1 0x40 MSTORE PUSH2 0xAA7 SWAP2 SWAP1 DUP2 ADD SWAP1 PUSH2 0x1BCE JUMP JUMPDEST SWAP7 POP PUSH2 0xDF5 JUMP JUMPDEST PUSH1 0x40 MLOAD PUSH4 0x5F69A5DD PUSH1 0xE1 SHL DUP2 MSTORE PUSH20 0x0 SWAP1 PUSH4 0xBED34BBA SWAP1 PUSH2 0xAE7 SWAP1 DUP6 SWAP1 DUP9 SWAP1 PUSH1 0x4 ADD PUSH2 0x1E0B JUMP JUMPDEST PUSH1 0x20 PUSH1 0x40 MLOAD DUP1 DUP4 SUB DUP2 DUP7 DUP1 EXTCODESIZE ISZERO DUP1 ISZERO PUSH2 0xAFF JUMPI PUSH1 0x0 DUP1 REVERT JUMPDEST POP GAS DELEGATECALL ISZERO DUP1 ISZERO PUSH2 0xB13 JUMPI RETURNDATASIZE PUSH1 0x0 DUP1 RETURNDATACOPY RETURNDATASIZE PUSH1 0x0 REVERT JUMPDEST POP POP POP POP PUSH1 0x40 MLOAD RETURNDATASIZE PUSH1 0x1F NOT PUSH1 0x1F DUP3 ADD AND DUP3 ADD DUP1 PUSH1 0x40 MSTORE POP DUP2 ADD SWAP1 PUSH2 0xB37 SWAP2 SWAP1 PUSH2 0x1B7A JUMP JUMPDEST ISZERO PUSH2 0xC26 JUMPI PUSH20 0x0 PUSH4 0xDFBE0B1F DUP9 PUSH20 0x0 PUSH4 0x9201DE55 DUP10 PUSH1 0x40 MLOAD DUP3 PUSH4 0xFFFFFFFF AND PUSH1 0xE0 SHL DUP2 MSTORE PUSH1 0x4 ADD PUSH2 0xB90 SWAP2 DUP2 MSTORE PUSH1 0x20 ADD SWAP1 JUMP JUMPDEST PUSH1 0x0 PUSH1 0x40 MLOAD DUP1 DUP4 SUB DUP2 DUP7 DUP1 EXTCODESIZE ISZERO DUP1 ISZERO PUSH2 0xBA8 JUMPI PUSH1 0x0 DUP1 REVERT JUMPDEST POP GAS DELEGATECALL ISZERO DUP1 ISZERO PUSH2 0xBBC JUMPI RETURNDATASIZE PUSH1 0x0 DUP1 RETURNDATACOPY RETURNDATASIZE PUSH1 0x0 REVERT JUMPDEST POP POP POP POP PUSH1 0x40 MLOAD RETURNDATASIZE PUSH1 0x0 DUP3 RETURNDATACOPY PUSH1 0x1F RETURNDATASIZE SWAP1 DUP2 ADD PUSH1 0x1F NOT AND DUP3 ADD PUSH1 0x40 MSTORE PUSH2 0xBE4 SWAP2 SWAP1 DUP2 ADD SWAP1 PUSH2 0x1BCE JUMP JUMPDEST PUSH2 0xBF1 DUP8 PUSH1 0x80 ADD MLOAD PUSH2 0x177C JUMP JUMPDEST DUP8 PUSH1 0x60 ADD MLOAD PUSH2 0xC06 DUP10 PUSH1 0xE0 ADD MLOAD PUSH1 0xFF AND PUSH2 0x177C JUMP JUMPDEST PUSH1 0x40 MLOAD DUP7 PUSH4 0xFFFFFFFF AND PUSH1 0xE0 SHL DUP2 MSTORE PUSH1 0x4 ADD PUSH2 0xA53 SWAP6 SWAP5 SWAP4 SWAP3 SWAP2 SWAP1 PUSH2 0x1FA7 JUMP JUMPDEST PUSH1 0x40 MLOAD PUSH4 0x5F69A5DD PUSH1 0xE1 SHL DUP2 MSTORE PUSH20 0x0 SWAP1 PUSH4 0xBED34BBA SWAP1 PUSH2 0xC5F SWAP1 DUP5 SWAP1 DUP9 SWAP1 PUSH1 0x4 ADD PUSH2 0x1E0B JUMP JUMPDEST PUSH1 0x20 PUSH1 0x40 MLOAD DUP1 DUP4 SUB DUP2 DUP7 DUP1 EXTCODESIZE ISZERO DUP1 ISZERO PUSH2 0xC77 JUMPI PUSH1 0x0 DUP1 REVERT JUMPDEST POP GAS DELEGATECALL ISZERO DUP1 ISZERO PUSH2 0xC8B JUMPI RETURNDATASIZE PUSH1 0x0 DUP1 RETURNDATACOPY RETURNDATASIZE PUSH1 0x0 REVERT JUMPDEST POP POP POP POP PUSH1 0x40 MLOAD RETURNDATASIZE PUSH1 0x1F NOT PUSH1 0x1F DUP3 ADD AND DUP3 ADD DUP1 PUSH1 0x40 MSTORE POP DUP2 ADD SWAP1 PUSH2 0xCAF SWAP2 SWAP1 PUSH2 0x1B7A JUMP JUMPDEST ISZERO PUSH2 0xDF5 JUMPI PUSH20 0x0 PUSH4 0xDFBE0B1F DUP9 PUSH20 0x0 PUSH4 0x9201DE55 DUP10 PUSH1 0x40 MLOAD DUP3 PUSH4 0xFFFFFFFF AND PUSH1 0xE0 SHL DUP2 MSTORE PUSH1 0x4 ADD PUSH2 0xD08 SWAP2 DUP2 MSTORE PUSH1 0x20 ADD SWAP1 JUMP JUMPDEST PUSH1 0x0 PUSH1 0x40 MLOAD DUP1 DUP4 SUB DUP2 DUP7 DUP1 EXTCODESIZE ISZERO DUP1 ISZERO PUSH2 0xD20 JUMPI PUSH1 0x0 DUP1 REVERT JUMPDEST POP GAS DELEGATECALL ISZERO DUP1 ISZERO PUSH2 0xD34 JUMPI RETURNDATASIZE PUSH1 0x0 DUP1 RETURNDATACOPY RETURNDATASIZE PUSH1 0x0 REVERT JUMPDEST POP POP POP POP PUSH1 0x40 MLOAD RETURNDATASIZE PUSH1 0x0 DUP3 RETURNDATACOPY PUSH1 0x1F RETURNDATASIZE SWAP1 DUP2 ADD PUSH1 0x1F NOT AND DUP3 ADD PUSH1 0x40 MSTORE PUSH2 0xD5C SWAP2 SWAP1 DUP2 ADD SWAP1 PUSH2 0x1BCE JUMP JUMPDEST PUSH2 0xD69 DUP8 PUSH1 0x80 ADD MLOAD PUSH2 0x177C JUMP JUMPDEST DUP8 PUSH1 0x60 ADD MLOAD PUSH2 0xD7E DUP10 PUSH1 0xE0 ADD MLOAD PUSH1 0xFF AND PUSH2 0x177C JUMP JUMPDEST PUSH1 0x40 MLOAD DUP7 PUSH4 0xFFFFFFFF AND PUSH1 0xE0 SHL DUP2 MSTORE PUSH1 0x4 ADD PUSH2 0xD9E SWAP6 SWAP5 SWAP4 SWAP3 SWAP2 SWAP1 PUSH2 0x204F JUMP JUMPDEST PUSH1 0x0 PUSH1 0x40 MLOAD DUP1 DUP4 SUB DUP2 DUP7 DUP1 EXTCODESIZE ISZERO DUP1 ISZERO PUSH2 0xDB6 JUMPI PUSH1 0x0 DUP1 REVERT JUMPDEST POP GAS DELEGATECALL ISZERO DUP1 ISZERO PUSH2 0xDCA JUMPI RETURNDATASIZE PUSH1 0x0 DUP1 RETURNDATACOPY RETURNDATASIZE PUSH1 0x0 REVERT JUMPDEST POP POP POP POP PUSH1 0x40 MLOAD RETURNDATASIZE PUSH1 0x0 DUP3 RETURNDATACOPY PUSH1 0x1F RETURNDATASIZE SWAP1 DUP2 ADD PUSH1 0x1F NOT AND DUP3 ADD PUSH1 0x40 MSTORE PUSH2 0xDF2 SWAP2 SWAP1 DUP2 ADD SWAP1 PUSH2 0x1BCE JUMP JUMPDEST SWAP7 POP JUMPDEST POP POP POP POP POP DUP1 DUP1 PUSH2 0xE05 SWAP1 PUSH2 0x2234 JUMP JUMPDEST SWAP2 POP POP PUSH2 0x5B9 JUMP JUMPDEST POP JUMPDEST SWAP3 SWAP2 POP POP JUMP JUMPDEST PUSH1 0x40 DUP1 MLOAD PUSH1 0xF DUP1 DUP3 MSTORE PUSH2 0x200 DUP3 ADD SWAP1 SWAP3 MSTORE PUSH1 0x60 SWAP2 PUSH1 0x0 SWAP2 SWAP1 DUP2 PUSH1 0x20 ADD JUMPDEST PUSH1 0x60 DUP2 MSTORE PUSH1 0x20 ADD SWAP1 PUSH1 0x1 SWAP1 SUB SWAP1 DUP2 PUSH2 0xE32 JUMPI SWAP1 POP POP PUSH1 0x1 SLOAD PUSH1 0x40 MLOAD PUSH4 0x1BF4604F PUSH1 0xE1 SHL DUP2 MSTORE PUSH1 0x4 DUP2 ADD DUP7 SWAP1 MSTORE SWAP2 SWAP3 POP PUSH1 0x0 SWAP2 PUSH1 0x1 PUSH1 0x1 PUSH1 0xA0 SHL SUB SWAP1 SWAP2 AND SWAP1 PUSH4 0x37E8C09E SWAP1 PUSH1 0x24 ADD PUSH1 0x0 PUSH1 0x40 MLOAD DUP1 DUP4 SUB DUP2 DUP7 DUP1 EXTCODESIZE ISZERO DUP1 ISZERO PUSH2 0xE91 JUMPI PUSH1 0x0 DUP1 REVERT JUMPDEST POP GAS STATICCALL ISZERO DUP1 ISZERO PUSH2 0xEA5 JUMPI RETURNDATASIZE PUSH1 0x0 DUP1 RETURNDATACOPY RETURNDATASIZE PUSH1 0x0 REVERT JUMPDEST POP POP POP POP PUSH1 0x40 MLOAD RETURNDATASIZE PUSH1 0x0 DUP3 RETURNDATACOPY PUSH1 0x1F RETURNDATASIZE SWAP1 DUP2 ADD PUSH1 0x1F NOT AND DUP3 ADD PUSH1 0x40 MSTORE PUSH2 0xECD SWAP2 SWAP1 DUP2 ADD SWAP1 PUSH2 0x1C03 JUMP JUMPDEST PUSH1 0x40 DUP2 DUP2 ADD MLOAD SWAP1 MLOAD PUSH4 0x5E57966D PUSH1 0xE0 SHL DUP2 MSTORE PUSH1 0x1 PUSH1 0x1 PUSH1 0xA0 SHL SUB SWAP1 SWAP2 AND PUSH1 0x4 DUP3 ADD MSTORE SWAP1 SWAP2 POP PUSH20 0x0 SWAP1 PUSH4 0x5E57966D SWAP1 PUSH1 0x24 ADD PUSH1 0x0 PUSH1 0x40 MLOAD DUP1 DUP4 SUB DUP2 DUP7 DUP1 EXTCODESIZE ISZERO DUP1 ISZERO PUSH2 0xF29 JUMPI PUSH1 0x0 DUP1 REVERT JUMPDEST POP GAS DELEGATECALL ISZERO DUP1 ISZERO PUSH2 0xF3D JUMPI RETURNDATASIZE PUSH1 0x0 DUP1 RETURNDATACOPY RETURNDATASIZE PUSH1 0x0 REVERT JUMPDEST POP POP POP POP PUSH1 0x40 MLOAD RETURNDATASIZE PUSH1 0x0 DUP3 RETURNDATACOPY PUSH1 0x1F RETURNDATASIZE SWAP1 DUP2 ADD PUSH1 0x1F NOT AND DUP3 ADD PUSH1 0x40 MSTORE PUSH2 0xF65 SWAP2 SWAP1 DUP2 ADD SWAP1 PUSH2 0x1BCE JUMP JUMPDEST DUP3 PUSH1 0x0 DUP2 MLOAD DUP2 LT PUSH2 0xF78 JUMPI PUSH2 0xF78 PUSH2 0x2265 JUMP JUMPDEST PUSH1 0x20 MUL PUSH1 0x20 ADD ADD DUP2 SWAP1 MSTORE POP DUP1 PUSH1 0x60 ADD MLOAD DUP3 PUSH1 0x1 DUP2 MLOAD DUP2 LT PUSH2 0xF9B JUMPI PUSH2 0xF9B PUSH2 0x2265 JUMP JUMPDEST PUSH1 0x20 MUL PUSH1 0x20 ADD ADD DUP2 SWAP1 MSTORE POP PUSH2 0xFB3 DUP2 PUSH1 0x80 ADD MLOAD PUSH2 0x177C JUMP JUMPDEST DUP3 PUSH1 0x2 DUP2 MLOAD DUP2 LT PUSH2 0xFC6 JUMPI PUSH2 0xFC6 PUSH2 0x2265 JUMP JUMPDEST PUSH1 0x20 MUL PUSH1 0x20 ADD ADD DUP2 SWAP1 MSTORE POP PUSH2 0xFE1 DUP2 PUSH1 0xA0 ADD MLOAD PUSH1 0xFF AND PUSH2 0x177C JUMP JUMPDEST DUP3 PUSH1 0x3 DUP2 MLOAD DUP2 LT PUSH2 0xFF4 JUMPI PUSH2 0xFF4 PUSH2 0x2265 JUMP JUMPDEST PUSH1 0x20 MUL PUSH1 0x20 ADD ADD DUP2 SWAP1 MSTORE POP PUSH2 0x100F DUP2 PUSH1 0xC0 ADD MLOAD PUSH1 0xFF AND PUSH2 0x177C JUMP JUMPDEST DUP3 PUSH1 0x4 DUP2 MLOAD DUP2 LT PUSH2 0x1022 JUMPI PUSH2 0x1022 PUSH2 0x2265 JUMP JUMPDEST PUSH1 0x20 MUL PUSH1 0x20 ADD ADD DUP2 SWAP1 MSTORE POP PUSH2 0x103B DUP2 PUSH2 0x100 ADD MLOAD PUSH2 0x177C JUMP JUMPDEST DUP3 PUSH1 0x5 DUP2 MLOAD DUP2 LT PUSH2 0x104E JUMPI PUSH2 0x104E PUSH2 0x2265 JUMP JUMPDEST PUSH1 0x20 MUL PUSH1 0x20 ADD ADD DUP2 SWAP1 MSTORE POP PUSH2 0x1067 DUP2 PUSH2 0x120 ADD MLOAD PUSH2 0x177C JUMP JUMPDEST DUP3 PUSH1 0x6 DUP2 MLOAD DUP2 LT PUSH2 0x107A JUMPI PUSH2 0x107A PUSH2 0x2265 JUMP JUMPDEST PUSH1 0x20 SWAP1 DUP2 MUL SWAP2 SWAP1 SWAP2 ADD DUP2 ADD SWAP2 SWAP1 SWAP2 MSTORE PUSH1 0x1 SLOAD PUSH1 0x40 DUP1 MLOAD DUP1 DUP3 ADD DUP3 MSTORE PUSH1 0xA DUP2 MSTORE PUSH10 0x20A92124AA2920AA27A9 PUSH1 0xB1 SHL SWAP4 DUP2 ADD SWAP4 SWAP1 SWAP4 MSTORE MLOAD PUSH4 0x22AD378F PUSH1 0xE2 SHL DUP2 MSTORE PUSH1 0x1 PUSH1 0x1 PUSH1 0xA0 SHL SUB SWAP1 SWAP2 AND SWAP2 PUSH4 0x8AB4DE3C SWAP2 PUSH2 0x10D9 SWAP2 DUP9 SWAP2 PUSH1 0x4 ADD PUSH2 0x1DDF JUMP JUMPDEST PUSH1 0x0 PUSH1 0x40 MLOAD DUP1 DUP4 SUB DUP2 DUP7 DUP1 EXTCODESIZE ISZERO DUP1 ISZERO PUSH2 0x10F1 JUMPI PUSH1 0x0 DUP1 REVERT JUMPDEST POP GAS STATICCALL ISZERO DUP1 ISZERO PUSH2 0x1105 JUMPI RETURNDATASIZE PUSH1 0x0 DUP1 RETURNDATACOPY RETURNDATASIZE PUSH1 0x0 REVERT JUMPDEST POP POP POP POP PUSH1 0x40 MLOAD RETURNDATASIZE PUSH1 0x0 DUP3 RETURNDATACOPY PUSH1 0x1F RETURNDATASIZE SWAP1 DUP2 ADD PUSH1 0x1F NOT AND DUP3 ADD PUSH1 0x40 MSTORE PUSH2 0x112D SWAP2 SWAP1 DUP2 ADD SWAP1 PUSH2 0x1BCE JUMP JUMPDEST DUP3 PUSH1 0x7 DUP2 MLOAD DUP2 LT PUSH2 0x1140 JUMPI PUSH2 0x1140 PUSH2 0x2265 JUMP JUMPDEST PUSH1 0x20 SWAP1 DUP2 MUL SWAP2 SWAP1 SWAP2 ADD DUP2 ADD SWAP2 SWAP1 SWAP2 MSTORE PUSH1 0x1 SLOAD PUSH1 0x40 DUP1 MLOAD DUP1 DUP3 ADD DUP3 MSTORE PUSH1 0xE DUP2 MSTORE PUSH14 0x41524249545241544F524E414D45 PUSH1 0x90 SHL SWAP4 DUP2 ADD SWAP4 SWAP1 SWAP4 MSTORE MLOAD PUSH4 0x22AD378F PUSH1 0xE2 SHL DUP2 MSTORE PUSH1 0x1 PUSH1 0x1 PUSH1 0xA0 SHL SUB SWAP1 SWAP2 AND SWAP2 PUSH4 0x8AB4DE3C SWAP2 PUSH2 0x11A3 SWAP2 DUP9 SWAP2 PUSH1 0x4 ADD PUSH2 0x1DDF JUMP JUMPDEST PUSH1 0x0 PUSH1 0x40 MLOAD DUP1 DUP4 SUB DUP2 DUP7 DUP1 EXTCODESIZE ISZERO DUP1 ISZERO PUSH2 0x11BB JUMPI PUSH1 0x0 DUP1 REVERT JUMPDEST POP GAS STATICCALL ISZERO DUP1 ISZERO PUSH2 0x11CF JUMPI RETURNDATASIZE PUSH1 0x0 DUP1 RETURNDATACOPY RETURNDATASIZE PUSH1 0x0 REVERT JUMPDEST POP POP POP POP PUSH1 0x40 MLOAD RETURNDATASIZE PUSH1 0x0 DUP3 RETURNDATACOPY PUSH1 0x1F RETURNDATASIZE SWAP1 DUP2 ADD PUSH1 0x1F NOT AND DUP3 ADD PUSH1 0x40 MSTORE PUSH2 0x11F7 SWAP2 SWAP1 DUP2 ADD SWAP1 PUSH2 0x1BCE JUMP JUMPDEST DUP3 PUSH1 0x8 DUP2 MLOAD DUP2 LT PUSH2 0x120A JUMPI PUSH2 0x120A PUSH2 0x2265 JUMP JUMPDEST PUSH1 0x20 SWAP1 DUP2 MUL SWAP2 SWAP1 SWAP2 ADD DUP2 ADD SWAP2 SWAP1 SWAP2 MSTORE PUSH1 0x1 SLOAD PUSH1 0x40 DUP1 MLOAD DUP1 DUP3 ADD DUP3 MSTORE PUSH1 0xB DUP2 MSTORE PUSH11 0x57494E5343454E4152494F PUSH1 0xA8 SHL SWAP4 DUP2 ADD SWAP4 SWAP1 SWAP4 MSTORE MLOAD PUSH4 0x22AD378F PUSH1 0xE2 SHL DUP2 MSTORE PUSH1 0x1 PUSH1 0x1 PUSH1 0xA0 SHL SUB SWAP1 SWAP2 AND SWAP2 PUSH4 0x8AB4DE3C SWAP2 PUSH2 0x126A SWAP2 DUP9 SWAP2 PUSH1 0x4 ADD PUSH2 0x1DDF JUMP JUMPDEST PUSH1 0x0 PUSH1 0x40 MLOAD DUP1 DUP4 SUB DUP2 DUP7 DUP1 EXTCODESIZE ISZERO DUP1 ISZERO PUSH2 0x1282 JUMPI PUSH1 0x0 DUP1 REVERT JUMPDEST POP GAS STATICCALL ISZERO DUP1 ISZERO PUSH2 0x1296 JUMPI RETURNDATASIZE PUSH1 0x0 DUP1 RETURNDATACOPY RETURNDATASIZE PUSH1 0x0 REVERT JUMPDEST POP POP POP POP PUSH1 0x40 MLOAD RETURNDATASIZE PUSH1 0x0 DUP3 RETURNDATACOPY PUSH1 0x1F RETURNDATASIZE SWAP1 DUP2 ADD PUSH1 0x1F NOT AND DUP3 ADD PUSH1 0x40 MSTORE PUSH2 0x12BE SWAP2 SWAP1 DUP2 ADD SWAP1 PUSH2 0x1BCE JUMP JUMPDEST DUP3 PUSH1 0x9 DUP2 MLOAD DUP2 LT PUSH2 0x12D1 JUMPI PUSH2 0x12D1 PUSH2 0x2265 JUMP JUMPDEST PUSH1 0x20 SWAP1 DUP2 MUL SWAP2 SWAP1 SWAP2 ADD DUP2 ADD SWAP2 SWAP1 SWAP2 MSTORE PUSH1 0x1 SLOAD PUSH1 0x40 DUP1 MLOAD DUP1 DUP3 ADD DUP3 MSTORE PUSH1 0xC DUP2 MSTORE PUSH12 0x4C4F53455343454E4152494F PUSH1 0xA0 SHL SWAP4 DUP2 ADD SWAP4 SWAP1 SWAP4 MSTORE MLOAD PUSH4 0x22AD378F PUSH1 0xE2 SHL DUP2 MSTORE PUSH1 0x1 PUSH1 0x1 PUSH1 0xA0 SHL SUB SWAP1 SWAP2 AND SWAP2 PUSH4 0x8AB4DE3C SWAP2 PUSH2 0x1332 SWAP2 DUP9 SWAP2 PUSH1 0x4 ADD PUSH2 0x1DDF JUMP JUMPDEST PUSH1 0x0 PUSH1 0x40 MLOAD DUP1 DUP4 SUB DUP2 DUP7 DUP1 EXTCODESIZE ISZERO DUP1 ISZERO PUSH2 0x134A JUMPI PUSH1 0x0 DUP1 REVERT JUMPDEST POP GAS STATICCALL ISZERO DUP1 ISZERO PUSH2 0x135E JUMPI RETURNDATASIZE PUSH1 0x0 DUP1 RETURNDATACOPY RETURNDATASIZE PUSH1 0x0 REVERT JUMPDEST POP POP POP POP PUSH1 0x40 MLOAD RETURNDATASIZE PUSH1 0x0 DUP3 RETURNDATACOPY PUSH1 0x1F RETURNDATASIZE SWAP1 DUP2 ADD PUSH1 0x1F NOT AND DUP3 ADD PUSH1 0x40 MSTORE PUSH2 0x1386 SWAP2 SWAP1 DUP2 ADD SWAP1 PUSH2 0x1BCE JUMP JUMPDEST DUP3 PUSH1 0xA DUP2 MLOAD DUP2 LT PUSH2 0x1399 JUMPI PUSH2 0x1399 PUSH2 0x2265 JUMP JUMPDEST PUSH1 0x20 SWAP1 DUP2 MUL SWAP2 SWAP1 SWAP2 ADD DUP2 ADD SWAP2 SWAP1 SWAP2 MSTORE PUSH1 0x1 SLOAD PUSH1 0x40 DUP1 MLOAD DUP1 DUP3 ADD DUP3 MSTORE PUSH1 0xE DUP2 MSTORE PUSH14 0x43414E43454C5343454E4152494F PUSH1 0x90 SHL SWAP4 DUP2 ADD SWAP4 SWAP1 SWAP4 MSTORE MLOAD PUSH4 0x22AD378F PUSH1 0xE2 SHL DUP2 MSTORE PUSH1 0x1 PUSH1 0x1 PUSH1 0xA0 SHL SUB SWAP1 SWAP2 AND SWAP2 PUSH4 0x8AB4DE3C SWAP2 PUSH2 0x13FC SWAP2 DUP9 SWAP2 PUSH1 0x4 ADD PUSH2 0x1DDF JUMP JUMPDEST PUSH1 0x0 PUSH1 0x40 MLOAD DUP1 DUP4 SUB DUP2 DUP7 DUP1 EXTCODESIZE ISZERO DUP1 ISZERO PUSH2 0x1414 JUMPI PUSH1 0x0 DUP1 REVERT JUMPDEST POP GAS STATICCALL ISZERO DUP1 ISZERO PUSH2 0x1428 JUMPI RETURNDATASIZE PUSH1 0x0 DUP1 RETURNDATACOPY RETURNDATASIZE PUSH1 0x0 REVERT JUMPDEST POP POP POP POP PUSH1 0x40 MLOAD RETURNDATASIZE PUSH1 0x0 DUP3 RETURNDATACOPY PUSH1 0x1F RETURNDATASIZE SWAP1 DUP2 ADD PUSH1 0x1F NOT AND DUP3 ADD PUSH1 0x40 MSTORE PUSH2 0x1450 SWAP2 SWAP1 DUP2 ADD SWAP1 PUSH2 0x1BCE JUMP JUMPDEST DUP3 PUSH1 0xB DUP2 MLOAD DUP2 LT PUSH2 0x1463 JUMPI PUSH2 0x1463 PUSH2 0x2265 JUMP JUMPDEST PUSH1 0x20 SWAP1 DUP2 MUL SWAP2 SWAP1 SWAP2 ADD DUP2 ADD SWAP2 SWAP1 SWAP2 MSTORE PUSH1 0x1 SLOAD PUSH1 0x40 DUP1 MLOAD DUP1 DUP3 ADD DUP3 MSTORE PUSH1 0x14 DUP2 MSTORE PUSH20 0x20A92124AA2920AA27A921A7A6A6A4A9A9A4A7A7 PUSH1 0x61 SHL SWAP4 DUP2 ADD SWAP4 SWAP1 SWAP4 MSTORE MLOAD PUSH4 0x22AD378F PUSH1 0xE2 SHL DUP2 MSTORE PUSH1 0x1 PUSH1 0x1 PUSH1 0xA0 SHL SUB SWAP1 SWAP2 AND SWAP2 PUSH4 0x8AB4DE3C SWAP2 PUSH2 0x14CC SWAP2 DUP9 SWAP2 PUSH1 0x4 ADD PUSH2 0x1DDF JUMP JUMPDEST PUSH1 0x0 PUSH1 0x40 MLOAD DUP1 DUP4 SUB DUP2 DUP7 DUP1 EXTCODESIZE ISZERO DUP1 ISZERO PUSH2 0x14E4 JUMPI PUSH1 0x0 DUP1 REVERT JUMPDEST POP GAS STATICCALL ISZERO DUP1 ISZERO PUSH2 0x14F8 JUMPI RETURNDATASIZE PUSH1 0x0 DUP1 RETURNDATACOPY RETURNDATASIZE PUSH1 0x0 REVERT JUMPDEST POP POP POP POP PUSH1 0x40 MLOAD RETURNDATASIZE PUSH1 0x0 DUP3 RETURNDATACOPY PUSH1 0x1F RETURNDATASIZE SWAP1 DUP2 ADD PUSH1 0x1F NOT AND DUP3 ADD PUSH1 0x40 MSTORE PUSH2 0x1520 SWAP2 SWAP1 DUP2 ADD SWAP1 PUSH2 0x1BCE JUMP JUMPDEST DUP3 PUSH1 0xC DUP2 MLOAD DUP2 LT PUSH2 0x1533 JUMPI PUSH2 0x1533 PUSH2 0x2265 JUMP JUMPDEST PUSH1 0x20 SWAP1 DUP2 MUL SWAP2 SWAP1 SWAP2 ADD DUP2 ADD SWAP2 SWAP1 SWAP2 MSTORE PUSH1 0x1 SLOAD PUSH1 0x40 DUP1 MLOAD DUP1 DUP3 ADD DUP3 MSTORE PUSH1 0x10 DUP2 MSTORE PUSH16 0x1091551051D0525394D5105353D55395 PUSH1 0x82 SHL SWAP4 DUP2 ADD SWAP4 SWAP1 SWAP4 MSTORE MLOAD PUSH4 0x22AD378F PUSH1 0xE2 SHL DUP2 MSTORE PUSH1 0x1 PUSH1 0x1 PUSH1 0xA0 SHL SUB SWAP1 SWAP2 AND SWAP2 PUSH4 0x8AB4DE3C SWAP2 PUSH2 0x1598 SWAP2 DUP9 SWAP2 PUSH1 0x4 ADD PUSH2 0x1DDF JUMP JUMPDEST PUSH1 0x0 PUSH1 0x40 MLOAD DUP1 DUP4 SUB DUP2 DUP7 DUP1 EXTCODESIZE ISZERO DUP1 ISZERO PUSH2 0x15B0 JUMPI PUSH1 0x0 DUP1 REVERT JUMPDEST POP GAS STATICCALL ISZERO DUP1 ISZERO PUSH2 0x15C4 JUMPI RETURNDATASIZE PUSH1 0x0 DUP1 RETURNDATACOPY RETURNDATASIZE PUSH1 0x0 REVERT JUMPDEST POP POP POP POP PUSH1 0x40 MLOAD RETURNDATASIZE PUSH1 0x0 DUP3 RETURNDATACOPY PUSH1 0x1F RETURNDATASIZE SWAP1 DUP2 ADD PUSH1 0x1F NOT AND DUP3 ADD PUSH1 0x40 MSTORE PUSH2 0x15EC SWAP2 SWAP1 DUP2 ADD SWAP1 PUSH2 0x1BCE JUMP JUMPDEST DUP3 PUSH1 0xD DUP2 MLOAD DUP2 LT PUSH2 0x15FF JUMPI PUSH2 0x15FF PUSH2 0x2265 JUMP JUMPDEST PUSH1 0x20 SWAP1 DUP2 MUL SWAP2 SWAP1 SWAP2 ADD DUP2 ADD SWAP2 SWAP1 SWAP2 MSTORE PUSH1 0x1 SLOAD PUSH1 0x40 DUP1 MLOAD DUP1 DUP3 ADD DUP3 MSTORE PUSH1 0x14 DUP2 MSTORE PUSH20 0x14D51052D154115490D153951491545552549151 PUSH1 0x62 SHL SWAP4 DUP2 ADD SWAP4 SWAP1 SWAP4 MSTORE MLOAD PUSH4 0x22AD378F PUSH1 0xE2 SHL DUP2 MSTORE PUSH1 0x1 PUSH1 0x1 PUSH1 0xA0 SHL SUB SWAP1 SWAP2 AND SWAP2 PUSH4 0x8AB4DE3C SWAP2 PUSH2 0x1668 SWAP2 DUP9 SWAP2 PUSH1 0x4 ADD PUSH2 0x1DDF JUMP JUMPDEST PUSH1 0x0 PUSH1 0x40 MLOAD DUP1 DUP4 SUB DUP2 DUP7 DUP1 EXTCODESIZE ISZERO DUP1 ISZERO PUSH2 0x1680 JUMPI PUSH1 0x0 DUP1 REVERT JUMPDEST POP GAS STATICCALL ISZERO DUP1 ISZERO PUSH2 0x1694 JUMPI RETURNDATASIZE PUSH1 0x0 DUP1 RETURNDATACOPY RETURNDATASIZE PUSH1 0x0 REVERT JUMPDEST POP POP POP POP PUSH1 0x40 MLOAD RETURNDATASIZE PUSH1 0x0 DUP3 RETURNDATACOPY PUSH1 0x1F RETURNDATASIZE SWAP1 DUP2 ADD PUSH1 0x1F NOT AND DUP3 ADD PUSH1 0x40 MSTORE PUSH2 0x16BC SWAP2 SWAP1 DUP2 ADD SWAP1 PUSH2 0x1BCE JUMP JUMPDEST DUP3 PUSH1 0xE DUP2 MLOAD DUP2 LT PUSH2 0x16CF JUMPI PUSH2 0x16CF PUSH2 0x2265 JUMP JUMPDEST PUSH1 0x20 SWAP1 DUP2 MUL SWAP2 SWAP1 SWAP2 ADD ADD MSTORE POP SWAP3 SWAP2 POP POP JUMP JUMPDEST PUSH1 0x0 SLOAD PUSH1 0x1 PUSH1 0x1 PUSH1 0xA0 SHL SUB AND CALLER EQ PUSH2 0x170B JUMPI PUSH1 0x40 MLOAD PUSH3 0x461BCD PUSH1 0xE5 SHL DUP2 MSTORE PUSH1 0x4 ADD PUSH2 0x4AA SWAP1 PUSH2 0x20F7 JUMP JUMPDEST PUSH1 0x1 PUSH1 0x1 PUSH1 0xA0 SHL SUB DUP2 AND PUSH2 0x1770 JUMPI PUSH1 0x40 MLOAD PUSH3 0x461BCD PUSH1 0xE5 SHL DUP2 MSTORE PUSH1 0x20 PUSH1 0x4 DUP3 ADD MSTORE PUSH1 0x26 PUSH1 0x24 DUP3 ADD MSTORE PUSH32 0x4F776E61626C653A206E6577206F776E657220697320746865207A65726F2061 PUSH1 0x44 DUP3 ADD MSTORE PUSH6 0x646472657373 PUSH1 0xD0 SHL PUSH1 0x64 DUP3 ADD MSTORE PUSH1 0x84 ADD PUSH2 0x4AA JUMP JUMPDEST PUSH2 0x1779 DUP2 PUSH2 0x1939 JUMP JUMPDEST POP JUMP JUMPDEST PUSH1 0x60 DUP2 PUSH2 0x17A0 JUMPI POP POP PUSH1 0x40 DUP1 MLOAD DUP1 DUP3 ADD SWAP1 SWAP2 MSTORE PUSH1 0x1 DUP2 MSTORE PUSH1 0x3 PUSH1 0xFC SHL PUSH1 0x20 DUP3 ADD MSTORE SWAP1 JUMP JUMPDEST DUP2 PUSH1 0x0 JUMPDEST DUP2 ISZERO PUSH2 0x17CA JUMPI DUP1 PUSH2 0x17B4 DUP2 PUSH2 0x2234 JUMP JUMPDEST SWAP2 POP PUSH2 0x17C3 SWAP1 POP PUSH1 0xA DUP4 PUSH2 0x21AC JUMP JUMPDEST SWAP2 POP PUSH2 0x17A4 JUMP JUMPDEST PUSH1 0x0 DUP2 PUSH8 0xFFFFFFFFFFFFFFFF DUP2 GT ISZERO PUSH2 0x17E5 JUMPI PUSH2 0x17E5 PUSH2 0x227B JUMP JUMPDEST PUSH1 0x40 MLOAD SWAP1 DUP1 DUP3 MSTORE DUP1 PUSH1 0x1F ADD PUSH1 0x1F NOT AND PUSH1 0x20 ADD DUP3 ADD PUSH1 0x40 MSTORE DUP1 ISZERO PUSH2 0x180F JUMPI PUSH1 0x20 DUP3 ADD DUP2 DUP1 CALLDATASIZE DUP4 CALLDATACOPY ADD SWAP1 POP JUMPDEST POP SWAP1 POP DUP2 JUMPDEST DUP6 ISZERO PUSH2 0x477 JUMPI PUSH2 0x1825 PUSH1 0x1 DUP3 PUSH2 0x21ED JUMP JUMPDEST SWAP1 POP PUSH1 0x0 PUSH2 0x1834 PUSH1 0xA DUP9 PUSH2 0x21AC JUMP JUMPDEST PUSH2 0x183F SWAP1 PUSH1 0xA PUSH2 0x21CE JUMP JUMPDEST PUSH2 0x1849 SWAP1 DUP9 PUSH2 0x21ED JUMP JUMPDEST PUSH2 0x1854 SWAP1 PUSH1 0x30 PUSH2 0x2187 JUMP JUMPDEST SWAP1 POP PUSH1 0x0 DUP2 PUSH1 0xF8 SHL SWAP1 POP DUP1 DUP5 DUP5 DUP2 MLOAD DUP2 LT PUSH2 0x1871 JUMPI PUSH2 0x1871 PUSH2 0x2265 JUMP JUMPDEST PUSH1 0x20 ADD ADD SWAP1 PUSH1 0x1 PUSH1 0x1 PUSH1 0xF8 SHL SUB NOT AND SWAP1 DUP2 PUSH1 0x0 BYTE SWAP1 MSTORE8 POP PUSH2 0x1893 PUSH1 0xA DUP10 PUSH2 0x21AC JUMP JUMPDEST SWAP8 POP POP POP PUSH2 0x1814 JUMP JUMPDEST PUSH1 0x0 SLOAD PUSH1 0x1 PUSH1 0xA0 SHL SWAP1 DIV PUSH1 0xFF AND PUSH2 0x18EC JUMPI PUSH1 0x40 MLOAD PUSH3 0x461BCD PUSH1 0xE5 SHL DUP2 MSTORE PUSH1 0x20 PUSH1 0x4 DUP3 ADD MSTORE PUSH1 0x14 PUSH1 0x24 DUP3 ADD MSTORE PUSH20 0x14185D5CD8589B194E881B9BDD081C185D5CD959 PUSH1 0x62 SHL PUSH1 0x44 DUP3 ADD MSTORE PUSH1 0x64 ADD PUSH2 0x4AA JUMP JUMPDEST PUSH1 0x0 DUP1 SLOAD PUSH1 0xFF PUSH1 0xA0 SHL NOT AND SWAP1 SSTORE PUSH32 0x5DB9EE0A495BF2E6FF9C91A7834C1BA4FDD244A5E8AA4E537BD38AEAE4B073AA CALLER JUMPDEST PUSH1 0x40 MLOAD PUSH1 0x1 PUSH1 0x1 PUSH1 0xA0 SHL SUB SWAP1 SWAP2 AND DUP2 MSTORE PUSH1 0x20 ADD PUSH1 0x40 MLOAD DUP1 SWAP2 SUB SWAP1 LOG1 JUMP JUMPDEST PUSH1 0x0 DUP1 SLOAD PUSH1 0x1 PUSH1 0x1 PUSH1 0xA0 SHL SUB DUP4 DUP2 AND PUSH1 0x1 PUSH1 0x1 PUSH1 0xA0 SHL SUB NOT DUP4 AND DUP2 OR DUP5 SSTORE PUSH1 0x40 MLOAD SWAP2 SWAP1 SWAP3 AND SWAP3 DUP4 SWAP2 PUSH32 0x8BE0079C531659141344CD1FD0A4F28419497F9722A3DAAFE3B4186F6B6457E0 SWAP2 SWAP1 LOG3 POP POP JUMP JUMPDEST PUSH1 0x0 SLOAD PUSH1 0x1 PUSH1 0xA0 SHL SWAP1 DIV PUSH1 0xFF AND ISZERO PUSH2 0x19D6 JUMPI PUSH1 0x40 MLOAD PUSH3 0x461BCD PUSH1 0xE5 SHL DUP2 MSTORE PUSH1 0x20 PUSH1 0x4 DUP3 ADD MSTORE PUSH1 0x10 PUSH1 0x24 DUP3 ADD MSTORE PUSH16 0x14185D5CD8589B194E881C185D5CD959 PUSH1 0x82 SHL PUSH1 0x44 DUP3 ADD MSTORE PUSH1 0x64 ADD PUSH2 0x4AA JUMP JUMPDEST PUSH1 0x0 DUP1 SLOAD PUSH1 0xFF PUSH1 0xA0 SHL NOT AND PUSH1 0x1 PUSH1 0xA0 SHL OR SWAP1 SSTORE PUSH32 0x62E78CEA01BEE320CD4E420270B5EA74000D11B0C9F74754EBDBFC544B05A258 PUSH2 0x191C CALLER SWAP1 JUMP JUMPDEST DUP1 MLOAD PUSH2 0x1A1C DUP2 PUSH2 0x2291 JUMP JUMPDEST SWAP2 SWAP1 POP JUMP JUMPDEST PUSH1 0x0 DUP3 PUSH1 0x1F DUP4 ADD SLT PUSH2 0x1A32 JUMPI PUSH1 0x0 DUP1 REVERT JUMPDEST DUP2 MLOAD PUSH8 0xFFFFFFFFFFFFFFFF DUP2 GT ISZERO PUSH2 0x1A4C JUMPI PUSH2 0x1A4C PUSH2 0x227B JUMP JUMPDEST PUSH2 0x1A5F PUSH1 0x1F DUP3 ADD PUSH1 0x1F NOT AND PUSH1 0x20 ADD PUSH2 0x2156 JUMP JUMPDEST DUP2 DUP2 MSTORE DUP5 PUSH1 0x20 DUP4 DUP7 ADD ADD GT ISZERO PUSH2 0x1A74 JUMPI PUSH1 0x0 DUP1 REVERT JUMPDEST PUSH2 0x1A85 DUP3 PUSH1 0x20 DUP4 ADD PUSH1 0x20 DUP8 ADD PUSH2 0x2204 JUMP JUMPDEST SWAP5 SWAP4 POP POP POP POP JUMP JUMPDEST DUP1 MLOAD PUSH2 0x1A1C DUP2 PUSH2 0x22A6 JUMP JUMPDEST DUP1 MLOAD PUSH1 0xFF DUP2 AND DUP2 EQ PUSH2 0x1A1C JUMPI PUSH1 0x0 DUP1 REVERT JUMPDEST PUSH1 0x0 PUSH1 0x20 DUP3 DUP5 SUB SLT ISZERO PUSH2 0x1ABB JUMPI PUSH1 0x0 DUP1 REVERT JUMPDEST DUP2 CALLDATALOAD PUSH2 0x1AC6 DUP2 PUSH2 0x2291 JUMP JUMPDEST SWAP4 SWAP3 POP POP POP JUMP JUMPDEST PUSH1 0x0 PUSH1 0x20 DUP1 DUP4 DUP6 SUB SLT ISZERO PUSH2 0x1AE0 JUMPI PUSH1 0x0 DUP1 REVERT JUMPDEST DUP3 MLOAD PUSH8 0xFFFFFFFFFFFFFFFF DUP1 DUP3 GT ISZERO PUSH2 0x1AF8 JUMPI PUSH1 0x0 DUP1 REVERT JUMPDEST DUP2 DUP6 ADD SWAP2 POP DUP6 PUSH1 0x1F DUP4 ADD SLT PUSH2 0x1B0C JUMPI PUSH1 0x0 DUP1 REVERT JUMPDEST DUP2 MLOAD DUP2 DUP2 GT ISZERO PUSH2 0x1B1E JUMPI PUSH2 0x1B1E PUSH2 0x227B JUMP JUMPDEST DUP1 PUSH1 0x5 SHL SWAP2 POP PUSH2 0x1B2F DUP5 DUP4 ADD PUSH2 0x2156 JUMP JUMPDEST DUP2 DUP2 MSTORE DUP5 DUP2 ADD SWAP1 DUP5 DUP7 ADD DUP5 DUP7 ADD DUP8 ADD DUP11 LT ISZERO PUSH2 0x1B4A JUMPI PUSH1 0x0 DUP1 REVERT JUMPDEST PUSH1 0x0 SWAP6 POP JUMPDEST DUP4 DUP7 LT ISZERO PUSH2 0x1B6D JUMPI DUP1 MLOAD DUP4 MSTORE PUSH1 0x1 SWAP6 SWAP1 SWAP6 ADD SWAP5 SWAP2 DUP7 ADD SWAP2 DUP7 ADD PUSH2 0x1B4F JUMP JUMPDEST POP SWAP9 SWAP8 POP POP POP POP POP POP POP POP JUMP JUMPDEST PUSH1 0x0 PUSH1 0x20 DUP3 DUP5 SUB SLT ISZERO PUSH2 0x1B8C JUMPI PUSH1 0x0 DUP1 REVERT JUMPDEST DUP2 MLOAD DUP1 ISZERO ISZERO DUP2 EQ PUSH2 0x1AC6 JUMPI PUSH1 0x0 DUP1 REVERT JUMPDEST PUSH1 0x0 PUSH1 0x20 DUP3 DUP5 SUB SLT ISZERO PUSH2 0x1BAE JUMPI PUSH1 0x0 DUP1 REVERT JUMPDEST POP CALLDATALOAD SWAP2 SWAP1 POP JUMP JUMPDEST PUSH1 0x0 PUSH1 0x20 DUP3 DUP5 SUB SLT ISZERO PUSH2 0x1BC7 JUMPI PUSH1 0x0 DUP1 REVERT JUMPDEST POP MLOAD SWAP2 SWAP1 POP JUMP JUMPDEST PUSH1 0x0 PUSH1 0x20 DUP3 DUP5 SUB SLT ISZERO PUSH2 0x1BE0 JUMPI PUSH1 0x0 DUP1 REVERT JUMPDEST DUP2 MLOAD PUSH8 0xFFFFFFFFFFFFFFFF DUP2 GT ISZERO PUSH2 0x1BF7 JUMPI PUSH1 0x0 DUP1 REVERT JUMPDEST PUSH2 0x1A85 DUP5 DUP3 DUP6 ADD PUSH2 0x1A21 JUMP JUMPDEST PUSH1 0x0 PUSH1 0x20 DUP3 DUP5 SUB SLT ISZERO PUSH2 0x1C15 JUMPI PUSH1 0x0 DUP1 REVERT JUMPDEST DUP2 MLOAD PUSH8 0xFFFFFFFFFFFFFFFF DUP1 DUP3 GT ISZERO PUSH2 0x1C2D JUMPI PUSH1 0x0 DUP1 REVERT JUMPDEST SWAP1 DUP4 ADD SWAP1 PUSH2 0x140 DUP3 DUP7 SUB SLT ISZERO PUSH2 0x1C42 JUMPI PUSH1 0x0 DUP1 REVERT JUMPDEST PUSH2 0x1C4A PUSH2 0x212C JUMP JUMPDEST PUSH2 0x1C53 DUP4 PUSH2 0x1A8D JUMP JUMPDEST DUP2 MSTORE PUSH1 0x20 DUP4 ADD MLOAD PUSH1 0x20 DUP3 ADD MSTORE PUSH2 0x1C6B PUSH1 0x40 DUP5 ADD PUSH2 0x1A11 JUMP JUMPDEST PUSH1 0x40 DUP3 ADD MSTORE PUSH1 0x60 DUP4 ADD MLOAD DUP3 DUP2 GT ISZERO PUSH2 0x1C82 JUMPI PUSH1 0x0 DUP1 REVERT JUMPDEST PUSH2 0x1C8E DUP8 DUP3 DUP7 ADD PUSH2 0x1A21 JUMP JUMPDEST PUSH1 0x60 DUP4 ADD MSTORE POP PUSH1 0x80 DUP4 ADD MLOAD PUSH1 0x80 DUP3 ADD MSTORE PUSH2 0x1CAA PUSH1 0xA0 DUP5 ADD PUSH2 0x1A98 JUMP JUMPDEST PUSH1 0xA0 DUP3 ADD MSTORE PUSH2 0x1CBB PUSH1 0xC0 DUP5 ADD PUSH2 0x1A98 JUMP JUMPDEST PUSH1 0xC0 DUP3 ADD MSTORE PUSH2 0x1CCC PUSH1 0xE0 DUP5 ADD PUSH2 0x1A98 JUMP JUMPDEST PUSH1 0xE0 DUP3 ADD MSTORE PUSH2 0x100 DUP4 DUP2 ADD MLOAD SWAP1 DUP3 ADD MSTORE PUSH2 0x120 SWAP3 DUP4 ADD MLOAD SWAP3 DUP2 ADD SWAP3 SWAP1 SWAP3 MSTORE POP SWAP4 SWAP3 POP POP POP JUMP JUMPDEST PUSH1 0x0 DUP1 PUSH1 0x0 PUSH1 0x60 DUP5 DUP7 SUB SLT ISZERO PUSH2 0x1D07 JUMPI PUSH1 0x0 DUP1 REVERT JUMPDEST DUP4 CALLDATALOAD PUSH2 0x1D12 DUP2 PUSH2 0x22A6 JUMP JUMPDEST SWAP3 POP PUSH1 0x20 DUP5 ADD CALLDATALOAD PUSH2 0x1D22 DUP2 PUSH2 0x22A6 JUMP JUMPDEST SWAP2 POP PUSH1 0x40 DUP5 ADD CALLDATALOAD PUSH2 0x1D32 DUP2 PUSH2 0x22A6 JUMP JUMPDEST DUP1 SWAP2 POP POP SWAP3 POP SWAP3 POP SWAP3 JUMP JUMPDEST PUSH1 0x0 DUP2 MLOAD DUP1 DUP5 MSTORE PUSH2 0x1D55 DUP2 PUSH1 0x20 DUP7 ADD PUSH1 0x20 DUP7 ADD PUSH2 0x2204 JUMP JUMPDEST PUSH1 0x1F ADD PUSH1 0x1F NOT AND SWAP3 SWAP1 SWAP3 ADD PUSH1 0x20 ADD SWAP3 SWAP2 POP POP JUMP JUMPDEST PUSH1 0x1 DUP2 MSTORE PUSH1 0xB PUSH1 0xFA SHL PUSH1 0x20 DUP3 ADD MSTORE PUSH1 0x40 ADD SWAP1 JUMP JUMPDEST PUSH1 0x0 PUSH1 0x20 DUP1 DUP4 ADD DUP2 DUP5 MSTORE DUP1 DUP6 MLOAD DUP1 DUP4 MSTORE PUSH1 0x40 DUP7 ADD SWAP2 POP PUSH1 0x40 DUP2 PUSH1 0x5 SHL DUP8 ADD ADD SWAP3 POP DUP4 DUP8 ADD PUSH1 0x0 JUMPDEST DUP3 DUP2 LT ISZERO PUSH2 0x1DD2 JUMPI PUSH1 0x3F NOT DUP9 DUP7 SUB ADD DUP5 MSTORE PUSH2 0x1DC0 DUP6 DUP4 MLOAD PUSH2 0x1D3D JUMP JUMPDEST SWAP5 POP SWAP3 DUP6 ADD SWAP3 SWAP1 DUP6 ADD SWAP1 PUSH1 0x1 ADD PUSH2 0x1DA4 JUMP JUMPDEST POP SWAP3 SWAP8 SWAP7 POP POP POP POP POP POP POP JUMP JUMPDEST DUP3 DUP2 MSTORE PUSH1 0x40 PUSH1 0x20 DUP3 ADD MSTORE PUSH1 0x0 PUSH2 0x1A85 PUSH1 0x40 DUP4 ADD DUP5 PUSH2 0x1D3D JUMP JUMPDEST PUSH1 0x20 DUP2 MSTORE PUSH1 0x0 PUSH2 0x1AC6 PUSH1 0x20 DUP4 ADD DUP5 PUSH2 0x1D3D JUMP JUMPDEST PUSH1 0x40 DUP2 MSTORE PUSH1 0x0 PUSH2 0x1E1E PUSH1 0x40 DUP4 ADD DUP6 PUSH2 0x1D3D JUMP JUMPDEST DUP3 DUP2 SUB PUSH1 0x20 DUP5 ADD MSTORE PUSH2 0x1E30 DUP2 DUP6 PUSH2 0x1D3D JUMP JUMPDEST SWAP6 SWAP5 POP POP POP POP POP JUMP JUMPDEST PUSH1 0x0 PUSH2 0x120 DUP1 DUP4 MSTORE PUSH2 0x1E4D DUP2 DUP5 ADD DUP10 PUSH2 0x1D3D JUMP JUMPDEST SWAP1 POP DUP3 DUP2 SUB PUSH1 0x20 DUP5 ADD MSTORE PUSH2 0x1E61 DUP2 DUP9 PUSH2 0x1D3D JUMP JUMPDEST SWAP1 POP DUP3 DUP2 SUB PUSH1 0x40 DUP5 ADD MSTORE PUSH2 0x1E74 DUP2 PUSH2 0x1D69 JUMP JUMPDEST SWAP1 POP DUP3 DUP2 SUB PUSH1 0x60 DUP5 ADD MSTORE PUSH2 0x1E88 DUP2 DUP8 PUSH2 0x1D3D JUMP JUMPDEST SWAP1 POP DUP3 DUP2 SUB PUSH1 0x80 DUP5 ADD MSTORE PUSH2 0x1E9B DUP2 PUSH2 0x1D69 JUMP JUMPDEST SWAP1 POP DUP3 DUP2 SUB PUSH1 0xA0 DUP5 ADD MSTORE PUSH2 0x1EAF DUP2 DUP7 PUSH2 0x1D3D JUMP JUMPDEST SWAP1 POP DUP3 DUP2 SUB PUSH1 0xC0 DUP5 ADD MSTORE PUSH2 0x1EC2 DUP2 PUSH2 0x1D69 JUMP JUMPDEST SWAP1 POP DUP3 DUP2 SUB PUSH1 0xE0 DUP5 ADD MSTORE PUSH2 0x1ED6 DUP2 DUP6 PUSH2 0x1D3D JUMP JUMPDEST DUP4 DUP2 SUB PUSH2 0x100 DUP6 ADD MSTORE PUSH1 0x1 DUP2 MSTORE PUSH1 0x1F PUSH1 0xFA SHL PUSH1 0x20 DUP3 ADD MSTORE SWAP1 POP PUSH1 0x40 DUP2 ADD SWAP9 SWAP8 POP POP POP POP POP POP POP POP JUMP JUMPDEST PUSH1 0x0 PUSH2 0x120 DUP1 DUP4 MSTORE PUSH2 0x1F13 DUP2 DUP5 ADD DUP10 PUSH2 0x1D3D JUMP JUMPDEST SWAP1 POP DUP3 DUP2 SUB PUSH1 0x20 DUP5 ADD MSTORE PUSH2 0x1F27 DUP2 DUP9 PUSH2 0x1D3D JUMP JUMPDEST SWAP1 POP DUP3 DUP2 SUB PUSH1 0x40 DUP5 ADD MSTORE PUSH2 0x1F3A DUP2 PUSH2 0x1D69 JUMP JUMPDEST SWAP1 POP DUP3 DUP2 SUB PUSH1 0x60 DUP5 ADD MSTORE PUSH2 0x1F4E DUP2 DUP8 PUSH2 0x1D3D JUMP JUMPDEST SWAP1 POP DUP3 DUP2 SUB PUSH1 0x80 DUP5 ADD MSTORE PUSH2 0x1F61 DUP2 PUSH2 0x1D69 JUMP JUMPDEST SWAP1 POP DUP3 DUP2 SUB PUSH1 0xA0 DUP5 ADD MSTORE PUSH2 0x1F75 DUP2 DUP7 PUSH2 0x1D3D JUMP JUMPDEST SWAP1 POP DUP3 DUP2 SUB DUP1 PUSH1 0xC0 DUP6 ADD MSTORE PUSH1 0x3 DUP3 MSTORE PUSH3 0xB0C4B PUSH1 0xEA SHL PUSH1 0x20 DUP4 ADD MSTORE PUSH1 0x40 DUP2 ADD PUSH1 0xE0 DUP6 ADD MSTORE POP PUSH2 0x1ED6 PUSH1 0x40 DUP3 ADD DUP6 PUSH2 0x1D3D JUMP JUMPDEST PUSH1 0x0 PUSH2 0x120 DUP1 DUP4 MSTORE PUSH2 0x1FBB DUP2 DUP5 ADD DUP10 PUSH2 0x1D3D JUMP JUMPDEST SWAP1 POP DUP3 DUP2 SUB PUSH1 0x20 DUP5 ADD MSTORE PUSH2 0x1FCF DUP2 DUP9 PUSH2 0x1D3D JUMP JUMPDEST SWAP1 POP DUP3 DUP2 SUB PUSH1 0x40 DUP5 ADD MSTORE PUSH2 0x1FE2 DUP2 PUSH2 0x1D69 JUMP JUMPDEST SWAP1 POP DUP3 DUP2 SUB PUSH1 0x60 DUP5 ADD MSTORE PUSH2 0x1FF6 DUP2 DUP8 PUSH2 0x1D3D JUMP JUMPDEST SWAP1 POP DUP3 DUP2 SUB PUSH1 0x80 DUP5 ADD MSTORE PUSH2 0x2009 DUP2 PUSH2 0x1D69 JUMP JUMPDEST SWAP1 POP DUP3 DUP2 SUB PUSH1 0xA0 DUP5 ADD MSTORE PUSH2 0x201D DUP2 DUP7 PUSH2 0x1D3D JUMP JUMPDEST SWAP1 POP DUP3 DUP2 SUB DUP1 PUSH1 0xC0 DUP6 ADD MSTORE PUSH1 0x3 DUP3 MSTORE PUSH3 0xB0C8B PUSH1 0xEA SHL PUSH1 0x20 DUP4 ADD MSTORE PUSH1 0x40 DUP2 ADD PUSH1 0xE0 DUP6 ADD MSTORE POP PUSH2 0x1ED6 PUSH1 0x40 DUP3 ADD DUP6 PUSH2 0x1D3D JUMP JUMPDEST PUSH1 0x0 PUSH2 0x120 DUP1 DUP4 MSTORE PUSH2 0x2063 DUP2 DUP5 ADD DUP10 PUSH2 0x1D3D JUMP JUMPDEST SWAP1 POP DUP3 DUP2 SUB PUSH1 0x20 DUP5 ADD MSTORE PUSH2 0x2077 DUP2 DUP9 PUSH2 0x1D3D JUMP JUMPDEST SWAP1 POP DUP3 DUP2 SUB PUSH1 0x40 DUP5 ADD MSTORE PUSH2 0x208A DUP2 PUSH2 0x1D69 JUMP JUMPDEST SWAP1 POP DUP3 DUP2 SUB PUSH1 0x60 DUP5 ADD MSTORE PUSH2 0x209E DUP2 DUP8 PUSH2 0x1D3D JUMP JUMPDEST SWAP1 POP DUP3 DUP2 SUB PUSH1 0x80 DUP5 ADD MSTORE PUSH2 0x20B1 DUP2 PUSH2 0x1D69 JUMP JUMPDEST SWAP1 POP DUP3 DUP2 SUB PUSH1 0xA0 DUP5 ADD MSTORE PUSH2 0x20C5 DUP2 DUP7 PUSH2 0x1D3D JUMP JUMPDEST SWAP1 POP DUP3 DUP2 SUB DUP1 PUSH1 0xC0 DUP6 ADD MSTORE PUSH1 0x3 DUP3 MSTORE PUSH3 0xB0D0B PUSH1 0xEA SHL PUSH1 0x20 DUP4 ADD MSTORE PUSH1 0x40 DUP2 ADD PUSH1 0xE0 DUP6 ADD MSTORE POP PUSH2 0x1ED6 PUSH1 0x40 DUP3 ADD DUP6 PUSH2 0x1D3D JUMP JUMPDEST PUSH1 0x20 DUP1 DUP3 MSTORE DUP2 DUP2 ADD MSTORE PUSH32 0x4F776E61626C653A2063616C6C6572206973206E6F7420746865206F776E6572 PUSH1 0x40 DUP3 ADD MSTORE PUSH1 0x60 ADD SWAP1 JUMP JUMPDEST PUSH1 0x40 MLOAD PUSH2 0x140 DUP2 ADD PUSH8 0xFFFFFFFFFFFFFFFF DUP2 GT DUP3 DUP3 LT OR ISZERO PUSH2 0x2150 JUMPI PUSH2 0x2150 PUSH2 0x227B JUMP JUMPDEST PUSH1 0x40 MSTORE SWAP1 JUMP JUMPDEST PUSH1 0x40 MLOAD PUSH1 0x1F DUP3 ADD PUSH1 0x1F NOT AND DUP2 ADD PUSH8 0xFFFFFFFFFFFFFFFF DUP2 GT DUP3 DUP3 LT OR ISZERO PUSH2 0x217F JUMPI PUSH2 0x217F PUSH2 0x227B JUMP JUMPDEST PUSH1 0x40 MSTORE SWAP2 SWAP1 POP JUMP JUMPDEST PUSH1 0x0 PUSH1 0xFF DUP3 AND PUSH1 0xFF DUP5 AND DUP1 PUSH1 0xFF SUB DUP3 GT ISZERO PUSH2 0x21A4 JUMPI PUSH2 0x21A4 PUSH2 0x224F JUMP JUMPDEST ADD SWAP4 SWAP3 POP POP POP JUMP JUMPDEST PUSH1 0x0 DUP3 PUSH2 0x21C9 JUMPI PUSH4 0x4E487B71 PUSH1 0xE0 SHL PUSH1 0x0 MSTORE PUSH1 0x12 PUSH1 0x4 MSTORE PUSH1 0x24 PUSH1 0x0 REVERT JUMPDEST POP DIV SWAP1 JUMP JUMPDEST PUSH1 0x0 DUP2 PUSH1 0x0 NOT DIV DUP4 GT DUP3 ISZERO ISZERO AND ISZERO PUSH2 0x21E8 JUMPI PUSH2 0x21E8 PUSH2 0x224F JUMP JUMPDEST POP MUL SWAP1 JUMP JUMPDEST PUSH1 0x0 DUP3 DUP3 LT ISZERO PUSH2 0x21FF JUMPI PUSH2 0x21FF PUSH2 0x224F JUMP JUMPDEST POP SUB SWAP1 JUMP JUMPDEST PUSH1 0x0 JUMPDEST DUP4 DUP2 LT ISZERO PUSH2 0x221F JUMPI DUP2 DUP2 ADD MLOAD DUP4 DUP3 ADD MSTORE PUSH1 0x20 ADD PUSH2 0x2207 JUMP JUMPDEST DUP4 DUP2 GT ISZERO PUSH2 0x222E JUMPI PUSH1 0x0 DUP5 DUP5 ADD MSTORE JUMPDEST POP POP POP POP JUMP JUMPDEST PUSH1 0x0 PUSH1 0x0 NOT DUP3 EQ ISZERO PUSH2 0x2248 JUMPI PUSH2 0x2248 PUSH2 0x224F JUMP JUMPDEST POP PUSH1 0x1 ADD SWAP1 JUMP JUMPDEST PUSH4 0x4E487B71 PUSH1 0xE0 SHL PUSH1 0x0 MSTORE PUSH1 0x11 PUSH1 0x4 MSTORE PUSH1 0x24 PUSH1 0x0 REVERT JUMPDEST PUSH4 0x4E487B71 PUSH1 0xE0 SHL PUSH1 0x0 MSTORE PUSH1 0x32 PUSH1 0x4 MSTORE PUSH1 0x24 PUSH1 0x0 REVERT JUMPDEST PUSH4 0x4E487B71 PUSH1 0xE0 SHL PUSH1 0x0 MSTORE PUSH1 0x41 PUSH1 0x4 MSTORE PUSH1 0x24 PUSH1 0x0 REVERT JUMPDEST PUSH1 0x1 PUSH1 0x1 PUSH1 0xA0 SHL SUB DUP2 AND DUP2 EQ PUSH2 0x1779 JUMPI PUSH1 0x0 DUP1 REVERT JUMPDEST PUSH2 0xFFFF DUP2 AND DUP2 EQ PUSH2 0x1779 JUMPI PUSH1 0x0 DUP1 REVERT INVALID LOG2 PUSH5 0x6970667358 0x22 SLT KECCAK256 PUSH6 0x4627AB3E3C14 0xD 0xD5 0xCA BYTE STOP SUB 0xEF PUSH19 0x5C75A673533C06E1B7543E9254F6D508CE6473 PUSH16 0x6C634300080700330000000000000000 "
		},
		"gasEstimates": {
			"creation": {
				"codeDepositCost": "1788000",
				"executionCost": "infinite",
				"totalCost": "infinite"
			},
			"external": {
				"getBetDetails(bytes32)": "infinite",
				"getMyBets()": "infinite",
				"getOpenBets(uint16,uint16,uint16)": "infinite",
				"owner()": "2323",
				"pause()": "29779",
				"paused()": "2354",
				"renounceOwnership()": "28181",
				"transferOwnership(address)": "infinite",
				"unpause()": "29773"
			}
		},
		"methodIdentifiers": {
			"getBetDetails(bytes32)": "9c11180d",
			"getMyBets()": "99535bd7",
			"getOpenBets(uint16,uint16,uint16)": "19275d79",
			"owner()": "8da5cb5b",
			"pause()": "8456cb59",
			"paused()": "5c975abb",
			"renounceOwnership()": "715018a6",
			"transferOwnership(address)": "f2fde38b",
			"unpause()": "3f4ba83a"
		}
	},
	"abi": [
		{
			"inputs": [
				{
					"internalType": "address",
					"name": "sureBetDataContract",
					"type": "address"
				}
			],
			"stateMutability": "nonpayable",
			"type": "constructor"
		},
		{
			"anonymous": false,
			"inputs": [
				{
					"indexed": true,
					"internalType": "address",
					"name": "previousOwner",
					"type": "address"
				},
				{
					"indexed": true,
					"internalType": "address",
					"name": "newOwner",
					"type": "address"
				}
			],
			"name": "OwnershipTransferred",
			"type": "event"
		},
		{
			"anonymous": false,
			"inputs": [
				{
					"indexed": false,
					"internalType": "address",
					"name": "account",
					"type": "address"
				}
			],
			"name": "Paused",
			"type": "event"
		},
		{
			"anonymous": false,
			"inputs": [
				{
					"indexed": false,
					"internalType": "address",
					"name": "account",
					"type": "address"
				}
			],
			"name": "Unpaused",
			"type": "event"
		},
		{
			"inputs": [
				{
					"internalType": "bytes32",
					"name": "betKey",
					"type": "bytes32"
				}
			],
			"name": "getBetDetails",
			"outputs": [
				{
					"internalType": "string[]",
					"name": "",
					"type": "string[]"
				}
			],
			"stateMutability": "view",
			"type": "function"
		},
		{
			"inputs": [],
			"name": "getMyBets",
			"outputs": [
				{
					"internalType": "string",
					"name": "",
					"type": "string"
				}
			],
			"stateMutability": "view",
			"type": "function"
		},
		{
			"inputs": [
				{
					"internalType": "uint16",
					"name": "year",
					"type": "uint16"
				},
				{
					"internalType": "uint16",
					"name": "month",
					"type": "uint16"
				},
				{
					"internalType": "uint16",
					"name": "day",
					"type": "uint16"
				}
			],
			"name": "getOpenBets",
			"outputs": [
				{
					"internalType": "string",
					"name": "",
					"type": "string"
				}
			],
			"stateMutability": "view",
			"type": "function"
		},
		{
			"inputs": [],
			"name": "owner",
			"outputs": [
				{
					"internalType": "address",
					"name": "",
					"type": "address"
				}
			],
			"stateMutability": "view",
			"type": "function"
		},
		{
			"inputs": [],
			"name": "pause",
			"outputs": [],
			"stateMutability": "nonpayable",
			"type": "function"
		},
		{
			"inputs": [],
			"name": "paused",
			"outputs": [
				{
					"internalType": "bool",
					"name": "",
					"type": "bool"
				}
			],
			"stateMutability": "view",
			"type": "function"
		},
		{
			"inputs": [],
			"name": "renounceOwnership",
			"outputs": [],
			"stateMutability": "nonpayable",
			"type": "function"
		},
		{
			"inputs": [
				{
					"internalType": "address",
					"name": "newOwner",
					"type": "address"
				}
			],
			"name": "transferOwnership",
			"outputs": [],
			"stateMutability": "nonpayable",
			"type": "function"
		},
		{
			"inputs": [],
			"name": "unpause",
			"outputs": [],
			"stateMutability": "nonpayable",
			"type": "function"
		}
	]
}