{
	"data": {
		"bytecode": {
			"linkReferences": {
				"contracts/Lib.sol": {
					"ConversionUtil": [
						{
							"length": 20,
							"start": 1439
						},
						{
							"length": 20,
							"start": 2723
						},
						{
							"length": 20,
							"start": 4215
						},
						{
							"length": 20,
							"start": 4803
						},
						{
							"length": 20,
							"start": 5695
						},
						{
							"length": 20,
							"start": 7383
						},
						{
							"length": 20,
							"start": 8921
						},
						{
							"length": 20,
							"start": 10551
						}
					],
					"Lib": [
						{
							"length": 20,
							"start": 696
						},
						{
							"length": 20,
							"start": 837
						},
						{
							"length": 20,
							"start": 978
						},
						{
							"length": 20,
							"start": 1411
						},
						{
							"length": 20,
							"start": 2264
						},
						{
							"length": 20,
							"start": 4516
						},
						{
							"length": 20,
							"start": 4776
						},
						{
							"length": 20,
							"start": 5668
						},
						{
							"length": 20,
							"start": 7649
						},
						{
							"length": 20,
							"start": 11082
						},
						{
							"length": 20,
							"start": 11722
						},
						{
							"length": 20,
							"start": 12036
						},
						{
							"length": 20,
							"start": 13229
						}
					]
				}
			},
			"object": "60806040526003805460ff191690553480156200001b57600080fd5b5060405162004663380380620046638339810160408190526200003e91620000cc565b62000049336200007c565b6000805460ff60a01b19169055600180546001600160a01b0319166001600160a01b0392909216919091179055620000fe565b600080546001600160a01b038381166001600160a01b0319831681178455604051919092169283917f8be0079c531659141344cd1fd0a4f28419497f9722a3daafe3b4186f6b6457e09190a35050565b600060208284031215620000df57600080fd5b81516001600160a01b0381168114620000f757600080fd5b9392505050565b614555806200010e6000396000f3fe608060405234801561001057600080fd5b50600436106100935760003560e01c80638456cb59116100665780638456cb59146100df5780638da5cb5b146100e7578063908a037514610102578063ebc8c50014610117578063f2fde38b1461011f57600080fd5b80630fd6b7ff146100985780633f4ba83a146100ad5780635c975abb146100b5578063715018a6146100d7575b600080fd5b6100ab6100a6366004613b89565b610132565b005b6100ab610db8565b600054600160a01b900460ff1660405190151581526020015b60405180910390f35b6100ab610dec565b6100ab610e20565b6000546040516001600160a01b0390911681526020016100ce565b61010a610e52565b6040516100ce9190613e92565b6100ab611663565b6100ab61012d36600461398c565b611957565b3360009081526002602052604090205460ff16151560011461019b5760405162461bcd60e51b815260206004820152601d60248201527f41726269747261746f72206973206e6f7420526567697374657265642e00000060448201526064015b60405180910390fd5b604051635f69a5dd60e11b815273__$6cf167dfb7c5c94c9fb5276b5691085b47$__9063bed34bba906101d2908490600401614112565b60206040518083038186803b1580156101ea57600080fd5b505af41580156101fe573d6000803e3d6000fd5b505050506040513d601f19601f820116820180604052508101906102229190613b4e565b806102af5750604051635f69a5dd60e11b815273__$6cf167dfb7c5c94c9fb5276b5691085b47$__9063bed34bba9061025f908490600401614094565b60206040518083038186803b15801561027757600080fd5b505af415801561028b573d6000803e3d6000fd5b505050506040513d601f19601f820116820180604052508101906102af9190613b4e565b8061033c5750604051635f69a5dd60e11b815273__$6cf167dfb7c5c94c9fb5276b5691085b47$__9063bed34bba906102ec9084906004016140d4565b60206040518083038186803b15801561030457600080fd5b505af4158015610318573d6000803e3d6000fd5b505050506040513d601f19601f8201168201806040525081019061033c9190613b4e565b61037a5760405162461bcd60e51b815260206004820152600f60248201526e496e76616c6964204f7574636f6d6560881b6044820152606401610192565b600154604051631bf4604f60e11b8152600481018490526000916001600160a01b0316906337e8c09e9060240160006040518083038186803b1580156103bf57600080fd5b505afa1580156103d3573d6000803e3d6000fd5b505050506040513d6000823e601f3d908101601f191682016040526103fb9190810190613c43565b905060038160e0015160ff16146104545760405162461bcd60e51b815260206004820152601a60248201527f4e6f7420526561647920666f72204172626974726174696f6e2e0000000000006044820152606401610192565b60c081015160ff1661064f57604051635e57966d60e01b815233600482015273__$6cf167dfb7c5c94c9fb5276b5691085b47$__9063bed34bba9073__$acd136b36b4fe61d8edff89239067e5de1$__90635e57966d9060240160006040518083038186803b1580156104c657600080fd5b505af41580156104da573d6000803e3d6000fd5b505050506040513d6000823e601f3d908101601f191682016040526105029190810190613c0e565b600154604080518082018252600a81526920a92124aa2920aa27a960b11b602082015290516322ad378f60e21b81526001600160a01b0390921691638ab4de3c91610552918a9190600401613df0565b60006040518083038186803b15801561056a57600080fd5b505afa15801561057e573d6000803e3d6000fd5b505050506040513d6000823e601f3d908101601f191682016040526105a69190810190613c0e565b6040518363ffffffff1660e01b81526004016105c3929190613ea5565b60206040518083038186803b1580156105db57600080fd5b505af41580156105ef573d6000803e3d6000fd5b505050506040513d601f19601f820116820180604052508101906106139190613b4e565b61064f5760405162461bcd60e51b815260206004820152600d60248201526c2ab720baba3437b934bd32b21760991b6044820152606401610192565b60408101516001600160a01b03163314156106ac5760405162461bcd60e51b815260206004820152601960248201527f43726561746f722063616e6e6f74206172626974726174652e000000000000006044820152606401610192565b60c081015160ff166106f457604051339084907f268b6c0f0f2c83ef3aa7262fb543e78fa631907ef82e731b2ccbba7d6ec3b87f90600090a36106ef83836119f2565b505050565b6001546040516309c716c760e11b8152600481018590523360248201526001600160a01b039091169063138e2d8e9060440160206040518083038186803b15801561073e57600080fd5b505afa158015610752573d6000803e3d6000fd5b505050506040513d601f19601f820116820180604052508101906107769190613b4e565b156107b85760405162461bcd60e51b8152602060048201526012602482015271223ab83634b1b0ba32902932b8bab2b9ba1760711b6044820152606401610192565b3360009081526002602052604090205473__$6cf167dfb7c5c94c9fb5276b5691085b47$__9063bed34bba906107f890610100900463ffffffff1661304a565b600154604080518082018252600c81526b50454e44494e47515545554560a01b602082015290516322ad378f60e21b81526001600160a01b0390921691638ab4de3c9161084a918a9190600401613df0565b60006040518083038186803b15801561086257600080fd5b505afa158015610876573d6000803e3d6000fd5b505050506040513d6000823e601f3d908101601f1916820160405261089e9190810190613c0e565b6040518363ffffffff1660e01b81526004016108bb929190613ea5565b60206040518083038186803b1580156108d357600080fd5b505af41580156108e7573d6000803e3d6000fd5b505050506040513d601f19601f8201168201806040525081019061090b9190613b4e565b6109575760405162461bcd60e51b815260206004820152601b60248201527f57726f6e672051756575652e20506c65617365205265667265736800000000006044820152606401610192565b600154604080518082018252601481527314d51052d154115490d15395149154555254915160621b602082015290516322ad378f60e21b815260009273__$acd136b36b4fe61d8edff89239067e5de1$__92631bd95155926001600160a01b0390921691638ab4de3c916109d0918a9190600401613df0565b60006040518083038186803b1580156109e857600080fd5b505afa1580156109fc573d6000803e3d6000fd5b505050506040513d6000823e601f3d908101601f19168201604052610a249190810190613c0e565b6040518263ffffffff1660e01b8152600401610a409190613e92565b60206040518083038186803b158015610a5857600080fd5b505af4158015610a6c573d6000803e3d6000fd5b505050506040513d601f19601f82011682018060405250810190610a909190613b70565b90506000610abe620186a0610ab86064610ab88761010001518761317390919063ffffffff16565b90613186565b600154604051634dcb776760e11b815233600482015291925082916001600160a01b0390911690639b96eece9060240160206040518083038186803b158015610b0657600080fd5b505afa158015610b1a573d6000803e3d6000fd5b505050506040513d601f19601f82011682018060405250810190610b3e9190613b70565b1015610b8c5760405162461bcd60e51b815260206004820152601f60248201527f42616c616e636520496e73756666696369656e7420666f72205374616b652e006044820152606401610192565b60015460408051630569529960e21b8152905183926001600160a01b0316916315a54a64916004808301926020929190829003018186803b158015610bd057600080fd5b505afa158015610be4573d6000803e3d6000fd5b505050506040513d601f19601f82011682018060405250810190610c089190613b70565b1115610c9457600154604051632770a7eb60e21b81526001600160a01b0390911690639dc29fac90610c409033908590600401613dd7565b602060405180830381600087803b158015610c5a57600080fd5b505af1158015610c6e573d6000803e3d6000fd5b505050506040513d601f19601f82011682018060405250810190610c929190613b4e565b505b600154604051632ebb5d8960e11b8152600481018790523360248201526001600160a01b0390911690635d76bb1290604401600060405180830381600087803b158015610ce057600080fd5b505af1158015610cf4573d6000803e3d6000fd5b505050506000853386604051602001610d0f93929190613d98565b60408051601f1981840301815282825280516020918201206001546080850184528185523392850192909252838301899052606084018690529151633682445160e11b81529193506001600160a01b031691636d0488a291610d75918a91600401613e3e565b600060405180830381600087803b158015610d8f57600080fd5b505af1158015610da3573d6000803e3d6000fd5b50505050610db086613192565b505050505050565b6000546001600160a01b03163314610de25760405162461bcd60e51b815260040161019290614153565b610dea6133db565b565b6000546001600160a01b03163314610e165760405162461bcd60e51b815260040161019290614153565b610dea6000613478565b6000546001600160a01b03163314610e4a5760405162461bcd60e51b815260040161019290614153565b610dea6134c8565b3360009081526002602052604090205460609060ff16610e94575060408051808201909152600d81526c1393d5149151d254d511549151609a1b602082015290565b60015460405163d5a1ad6160e01b81523360048201526060916000916001600160a01b039091169063d5a1ad619060240160006040518083038186803b158015610edd57600080fd5b505afa158015610ef1573d6000803e3d6000fd5b505050506040513d6000823e601f3d908101601f19168201604052610f1991908101906139a9565b8051909150156112e15760005b81518110156112df576000828281518110610f4357610f436144de565b6020908102919091010151604051635e57966d60e01b815233600482015290915060009073__$acd136b36b4fe61d8edff89239067e5de1$__90635e57966d9060240160006040518083038186803b158015610f9e57600080fd5b505af4158015610fb2573d6000803e3d6000fd5b505050506040513d6000823e601f3d908101601f19168201604052610fda9190810190613c0e565b600154604080518082018252600a81526920a92124aa2920aa27a960b11b602082015290516322ad378f60e21b81529293506000926001600160a01b0390921691638ab4de3c9161103091879190600401613df0565b60006040518083038186803b15801561104857600080fd5b505afa15801561105c573d6000803e3d6000fd5b505050506040513d6000823e601f3d908101601f191682016040526110849190810190613c0e565b604051635f69a5dd60e11b815290915073__$6cf167dfb7c5c94c9fb5276b5691085b47$__9063bed34bba906110c09084908690600401613ea5565b60206040518083038186803b1580156110d857600080fd5b505af41580156110ec573d6000803e3d6000fd5b505050506040513d601f19601f820116820180604052508101906111109190613b4e565b156112c957600154604051631bf4604f60e11b8152600481018590526000916001600160a01b0316906337e8c09e9060240160006040518083038186803b15801561115a57600080fd5b505afa15801561116e573d6000803e3d6000fd5b505050506040513d6000823e601f3d908101601f191682016040526111969190810190613c43565b905073__$6cf167dfb7c5c94c9fb5276b5691085b47$__63dfbe0b1f8873__$acd136b36b4fe61d8edff89239067e5de1$__639201de55886040518263ffffffff1660e01b81526004016111ec91815260200190565b60006040518083038186803b15801561120457600080fd5b505af4158015611218573d6000803e3d6000fd5b505050506040513d6000823e601f3d908101601f191682016040526112409190810190613c0e565b61124d856080015161304a565b85606001516040518563ffffffff1660e01b81526004016112719493929190613fdf565b60006040518083038186803b15801561128957600080fd5b505af415801561129d573d6000803e3d6000fd5b505050506040513d6000823e601f3d908101601f191682016040526112c59190810190613c0e565b9650505b50505080806112d790614463565b915050610f26565b505b3360009081526002602052604080822054600154915163616e229d60e11b815261010090910463ffffffff166004820181905292916001600160a01b03169063c2dc453a9060240160206040518083038186803b15801561134157600080fd5b505afa158015611355573d6000803e3d6000fd5b505050506040513d601f19601f820116820180604052508101906113799190613b70565b600154604051631740a32160e11b8152600481018390529192506000916001600160a01b0390911690632e8146429060240160206040518083038186803b1580156113c357600080fd5b505afa1580156113d7573d6000803e3d6000fd5b505050506040513d601f19601f820116820180604052508101906113fb9190613b70565b905060005b818110156116585760015460405163f3c55a9160e01b815260048101859052602481018390526000916001600160a01b03169063f3c55a919060440160206040518083038186803b15801561145457600080fd5b505afa158015611468573d6000803e3d6000fd5b505050506040513d601f19601f8201168201806040525081019061148c9190613b70565b600154604051631bf4604f60e11b8152600481018390529192506000916001600160a01b03909116906337e8c09e9060240160006040518083038186803b1580156114d657600080fd5b505afa1580156114ea573d6000803e3d6000fd5b505050506040513d6000823e601f3d908101601f191682016040526115129190810190613c43565b905073__$6cf167dfb7c5c94c9fb5276b5691085b47$__63dfbe0b1f8973__$acd136b36b4fe61d8edff89239067e5de1$__639201de55866040518263ffffffff1660e01b815260040161156891815260200190565b60006040518083038186803b15801561158057600080fd5b505af4158015611594573d6000803e3d6000fd5b505050506040513d6000823e601f3d908101601f191682016040526115bc9190810190613c0e565b6115c9856080015161304a565b85606001516040518563ffffffff1660e01b81526004016115ed9493929190613f0c565b60006040518083038186803b15801561160557600080fd5b505af4158015611619573d6000803e3d6000fd5b505050506040513d6000823e601f3d908101601f191682016040526116419190810190613c0e565b97505050808061165090614463565b915050611400565b509395945050505050565b3360009081526002602052604090205460ff1661181b57600061170b33600160009054906101000a90046001600160a01b03166001600160a01b03166327c4758b6040518163ffffffff1660e01b815260040160206040518083038186803b1580156116ce57600080fd5b505afa1580156116e2573d6000803e3d6000fd5b505050506040513d601f19601f820116820180604052508101906117069190613d32565b613550565b336000908152600260209081526040918290208054600164ffffffffff1990911661010063ffffffff87160260ff191617811790915554825163f4c47b1760e01b815292519394506001600160a01b0316926322a6efd792849263f4c47b1792600480840193829003018186803b15801561178557600080fd5b505afa158015611799573d6000803e3d6000fd5b505050506040513d601f19601f820116820180604052508101906117bd9190613b70565b6117c8906001614338565b6040518263ffffffff1660e01b81526004016117e691815260200190565b600060405180830381600087803b15801561180057600080fd5b505af1158015611814573d6000803e3d6000fd5b5050505050565b60018060009054906101000a90046001600160a01b03166001600160a01b03166327c4758b6040518163ffffffff1660e01b815260040160206040518083038186803b15801561186a57600080fd5b505afa15801561187e573d6000803e3d6000fd5b505050506040513d601f19601f820116820180604052508101906118a29190613d32565b6118ac9190614416565b3360009081526002602052604090205463ffffffff9182166101009091049091161115610dea57600061192733600160009054906101000a90046001600160a01b03166001600160a01b03166327c4758b6040518163ffffffff1660e01b815260040160206040518083038186803b1580156116ce57600080fd5b336000908152600260205260409020805463ffffffff9092166101000264ffffffff001990921691909117905550565b6000546001600160a01b031633146119815760405162461bcd60e51b815260040161019290614153565b6001600160a01b0381166119e65760405162461bcd60e51b815260206004820152602660248201527f4f776e61626c653a206e6577206f776e657220697320746865207a65726f206160448201526564647265737360d01b6064820152608401610192565b6119ef81613478565b50565b600154604051631bf4604f60e11b8152600481018490526000916001600160a01b0316906337e8c09e9060240160006040518083038186803b158015611a3757600080fd5b505afa158015611a4b573d6000803e3d6000fd5b505050506040513d6000823e601f3d908101601f19168201604052611a739190810190613c43565b905060018160c0015160ff16141561218d57600154604051630ef01e5360e21b8152600481018590526000916001600160a01b031690633bc0794c9060240160206040518083038186803b158015611aca57600080fd5b505afa158015611ade573d6000803e3d6000fd5b505050506040513d601f19601f82011682018060405250810190611b029190613b70565b600154604051630cc0fdaf60e21b8152600481018790529192506000916001600160a01b0390911690633303f6bc9060240160006040518083038186803b158015611b4c57600080fd5b505afa158015611b60573d6000803e3d6000fd5b505050506040513d6000823e601f3d908101601f19168201604052611b889190810190613a41565b600154604080518082018252601481527320a92124aa2920aa27a921a7a6a6a4a9a9a4a7a760611b602082015290516322ad378f60e21b815292935060009273__$acd136b36b4fe61d8edff89239067e5de1$__92631bd95155926001600160a01b0390911691638ab4de3c91611c04918c9190600401613df0565b60006040518083038186803b158015611c1c57600080fd5b505afa158015611c30573d6000803e3d6000fd5b505050506040513d6000823e601f3d908101601f19168201604052611c589190810190613c0e565b6040518263ffffffff1660e01b8152600401611c749190613e92565b60206040518083038186803b158015611c8c57600080fd5b505af4158015611ca0573d6000803e3d6000fd5b505050506040513d601f19601f82011682018060405250810190611cc49190613b70565b905060005b83811015611fff5773__$6cf167dfb7c5c94c9fb5276b5691085b47$__63bed34bba848381518110611cfd57611cfd6144de565b602002602001015160400151886040518363ffffffff1660e01b8152600401611d27929190613ea5565b60206040518083038186803b158015611d3f57600080fd5b505af4158015611d53573d6000803e3d6000fd5b505050506040513d601f19601f82011682018060405250810190611d779190613b4e565b15611fed576000611db2620186a0610ab86064610ab86064610ab86020611dac8b8f610100015161317390919063ffffffff16565b90613173565b60015485519192506001600160a01b0316906321670f2290869085908110611ddc57611ddc6144de565b602002602001015160200151868581518110611dfa57611dfa6144de565b6020026020010151606001516040518363ffffffff1660e01b8152600401611e23929190613dd7565b602060405180830381600087803b158015611e3d57600080fd5b505af1158015611e51573d6000803e3d6000fd5b505050506040513d601f19601f82011682018060405250810190611e759190613b4e565b50611e7e613604565b15611f445760015484516001600160a01b039091169063283760fa90869085908110611eac57611eac6144de565b602002602001015160200151836040518363ffffffff1660e01b8152600401611ed6929190613dd7565b602060405180830381600087803b158015611ef057600080fd5b505af1158015611f04573d6000803e3d6000fd5b505050506040513d601f19601f82011682018060405250810190611f289190613b4e565b50610120860151611f39908261370e565b610120870152611feb565b60015484516001600160a01b03909116906321670f2290869085908110611f6d57611f6d6144de565b602002602001015160200151836040518363ffffffff1660e01b8152600401611f97929190613dd7565b602060405180830381600087803b158015611fb157600080fd5b505af1158015611fc5573d6000803e3d6000fd5b505050506040513d601f19601f82011682018060405250810190611fe99190613b4e565b505b505b80611ff781614463565b915050611cc9565b506000612031620186a0610ab86064610ab86103e8610ab86023611dac8a8e610100015161317390919063ffffffff16565b905061203b613604565b156120ef576001546001600160a01b031663283760fa6120636000546001600160a01b031690565b836040518363ffffffff1660e01b8152600401612081929190613dd7565b602060405180830381600087803b15801561209b57600080fd5b505af11580156120af573d6000803e3d6000fd5b505050506040513d601f19601f820116820180604052508101906120d39190613b4e565b506101208501516120e4908261370e565b610120860152612184565b6001546001600160a01b03166321670f226121126000546001600160a01b031690565b836040518363ffffffff1660e01b8152600401612130929190613dd7565b602060405180830381600087803b15801561214a57600080fd5b505af115801561215e573d6000803e3d6000fd5b505050506040513d601f19601f820116820180604052508101906121829190613b4e565b505b505050506126b4565b600154604080518082018252601481527320a92124aa2920aa27a921a7a6a6a4a9a9a4a7a760611b602082015290516322ad378f60e21b815260009273__$acd136b36b4fe61d8edff89239067e5de1$__92631bd95155926001600160a01b0390921691638ab4de3c91612206918a9190600401613df0565b60006040518083038186803b15801561221e57600080fd5b505afa158015612232573d6000803e3d6000fd5b505050506040513d6000823e601f3d908101601f1916820160405261225a9190810190613c0e565b6040518263ffffffff1660e01b81526004016122769190613e92565b60206040518083038186803b15801561228e57600080fd5b505af41580156122a2573d6000803e3d6000fd5b505050506040513d601f19601f820116820180604052508101906122c69190613b70565b600154604080518082018252600a81526920a92124aa2920aa27a960b11b602082015290516322ad378f60e21b8152929350600092612376926001600160a01b031691638ab4de3c9161231d918a91600401613df0565b60006040518083038186803b15801561233557600080fd5b505afa158015612349573d6000803e3d6000fd5b505050506040513d6000823e601f3d908101601f191682016040526123719190810190613c0e565b61371a565b905060006123a9620186a0610ab86064610ab86103e8610ab86023611dac8b8d610100015161317390919063ffffffff16565b90506000831180156123c357506001600160a01b03821615155b156125425760006123f8620186a0610ab86064610ab86064610ab86060611dac8c8e610100015161317390919063ffffffff16565b61012086015190915061240b908261370e565b61012086015260015460405163141bb07d60e11b81526001600160a01b039091169063283760fa906124439086908590600401613dd7565b602060405180830381600087803b15801561245d57600080fd5b505af1158015612471573d6000803e3d6000fd5b505050506040513d601f19601f820116820180604052508101906124959190613b4e565b506001546001600160a01b031663283760fa6124b96000546001600160a01b031690565b846040518363ffffffff1660e01b81526004016124d7929190613dd7565b602060405180830381600087803b1580156124f157600080fd5b505af1158015612505573d6000803e3d6000fd5b505050506040513d601f19601f820116820180604052508101906125299190613b4e565b5061012085015161253a908361370e565b610120860152505b61254a613604565b15801561255f57506001600160a01b03821615155b1561261c576000612594620186a0610ab86064610ab86064610ab86020611dac8c8e610100015161317390919063ffffffff16565b6001546040516310b3879160e11b81529192506001600160a01b0316906321670f22906125c79086908590600401613dd7565b602060405180830381600087803b1580156125e157600080fd5b505af11580156125f5573d6000803e3d6000fd5b505050506040513d601f19601f820116820180604052508101906126199190613b4e565b50505b6001546001600160a01b03166321670f2261263f6000546001600160a01b031690565b836040518363ffffffff1660e01b815260040161265d929190613dd7565b602060405180830381600087803b15801561267757600080fd5b505af115801561268b573d6000803e3d6000fd5b505050506040513d601f19601f820116820180604052508101906126af9190613b4e565b505050505b610120810180516000909152600460e0830181905260015460405163293e239760e11b81526001600160a01b039091169163527c472e916126f791869101614188565b602060405180830381600087803b15801561271157600080fd5b505af1158015612725573d6000803e3d6000fd5b505050506040513d601f19601f820116820180604052508101906127499190613b4e565b50600154604080518082018252600e81526d43414e43454c5343454e4152494f60901b6020820152905163203a6bfd60e01b81526001600160a01b039092169163203a6bfd916127a0918891908890600401613e09565b602060405180830381600087803b1580156127ba57600080fd5b505af11580156127ce573d6000803e3d6000fd5b505050506040513d601f19601f820116820180604052508101906127f29190613b4e565b50600154604080518082018252600c81526b50454e44494e47515545554560a01b602082015290516322ad378f60e21b815260009273__$acd136b36b4fe61d8edff89239067e5de1$__92631bd95155926001600160a01b0390921691638ab4de3c91612864918b9190600401613df0565b60006040518083038186803b15801561287c57600080fd5b505afa158015612890573d6000803e3d6000fd5b505050506040513d6000823e601f3d908101601f191682016040526128b89190810190613c0e565b6040518263ffffffff1660e01b81526004016128d49190613e92565b60206040518083038186803b1580156128ec57600080fd5b505af4158015612900573d6000803e3d6000fd5b505050506040513d601f19601f820116820180604052508101906129249190613b70565b60015460405163616e229d60e11b815263ffffffff831660048201529192506000916001600160a01b039091169063c2dc453a9060240160206040518083038186803b15801561297357600080fd5b505afa158015612987573d6000803e3d6000fd5b505050506040513d601f19601f820116820180604052508101906129ab9190613b70565b60015460405163ca5d5b5760e01b815260048101839052602481018990529192506001600160a01b03169063ca5d5b5790604401600060405180830381600087803b1580156129f957600080fd5b505af1158015612a0d573d6000803e3d6000fd5b5050604080518082018252600981526810d05390d15313115160ba1b60208201529051635f69a5dd60e11b815273__$6cf167dfb7c5c94c9fb5276b5691085b47$__935063bed34bba9250612a66918991600401613ea5565b60206040518083038186803b158015612a7e57600080fd5b505af4158015612a92573d6000803e3d6000fd5b505050506040513d601f19601f82011682018060405250810190612ab69190613b4e565b15612c8d576001546040805180820182526005815264424554454560d81b602082015290516322ad378f60e21b81526000926001600160a01b031691638ab4de3c91612b06918b91600401613df0565b60006040518083038186803b158015612b1e57600080fd5b505afa158015612b32573d6000803e3d6000fd5b505050506040513d6000823e601f3d908101601f19168201604052612b5a9190810190613c0e565b6001549091506001600160a01b031663283760fa612b778361371a565b612b82876002613186565b6040518363ffffffff1660e01b8152600401612b9f929190613dd7565b602060405180830381600087803b158015612bb957600080fd5b505af1158015612bcd573d6000803e3d6000fd5b505050506040513d601f19601f82011682018060405250810190612bf19190613b4e565b5060015460408601516001600160a01b039091169063283760fa90612c17876002613186565b6040518363ffffffff1660e01b8152600401612c34929190613dd7565b602060405180830381600087803b158015612c4e57600080fd5b505af1158015612c62573d6000803e3d6000fd5b505050506040513d601f19601f82011682018060405250810190612c869190613b4e565b5050612fa2565b604080518082018252600b81526a21a922a0aa27a92faba7a760a91b60208201529051635f69a5dd60e11b815273__$6cf167dfb7c5c94c9fb5276b5691085b47$__9163bed34bba91612ce4918991600401613ea5565b60206040518083038186803b158015612cfc57600080fd5b505af4158015612d10573d6000803e3d6000fd5b505050506040513d601f19601f82011682018060405250810190612d349190613b4e565b15612dc657600154604080860151905163141bb07d60e11b81526001600160a01b039092169163283760fa91612d6e918790600401613dd7565b602060405180830381600087803b158015612d8857600080fd5b505af1158015612d9c573d6000803e3d6000fd5b505050506040513d601f19601f82011682018060405250810190612dc09190613b4e565b50612fa2565b604080518082018252600c81526b10d491505513d497d313d4d560a21b60208201529051635f69a5dd60e11b815273__$6cf167dfb7c5c94c9fb5276b5691085b47$__9163bed34bba91612e1e918991600401613ea5565b60206040518083038186803b158015612e3657600080fd5b505af4158015612e4a573d6000803e3d6000fd5b505050506040513d601f19601f82011682018060405250810190612e6e9190613b4e565b15612fa2576001546040805180820182526005815264424554454560d81b602082015290516322ad378f60e21b81526000926001600160a01b031691638ab4de3c91612ebe918b91600401613df0565b60006040518083038186803b158015612ed657600080fd5b505afa158015612eea573d6000803e3d6000fd5b505050506040513d6000823e601f3d908101601f19168201604052612f129190810190613c0e565b6001549091506001600160a01b031663283760fa612f2f8361371a565b866040518363ffffffff1660e01b8152600401612f4d929190613dd7565b602060405180830381600087803b158015612f6757600080fd5b505af1158015612f7b573d6000803e3d6000fd5b505050506040513d601f19601f82011682018060405250810190612f9f9190613b4e565b50505b600160009054906101000a90046001600160a01b03166001600160a01b0316632fa38f9b6040518163ffffffff1660e01b8152600401600060405180830381600087803b158015612ff257600080fd5b505af1158015613006573d6000803e3d6000fd5b50505050857f8edf4ded3a58729c2d2cf8c1497ddf8ab171b4136977db72eebe37c3da0e65d78660405161303a9190613e92565b60405180910390a2505050505050565b60608161306e5750506040805180820190915260018152600360fc1b602082015290565b8160005b8115613098578061308281614463565b91506130919050600a83614375565b9150613072565b60008167ffffffffffffffff8111156130b3576130b36144f4565b6040519080825280601f01601f1916602001820160405280156130dd576020820181803683370190505b509050815b851561316a576130f36001826143ff565b90506000613102600a88614375565b61310d90600a6143b8565b61311790886143ff565b613122906030614350565b905060008160f81b90508084848151811061313f5761313f6144de565b60200101906001600160f81b031916908160001a905350613161600a89614375565b975050506130e2565b50949350505050565b600061317f82846143b8565b9392505050565b600061317f8284614375565b600154604051630ef01e5360e21b8152600481018390526000916001600160a01b031690633bc0794c9060240160206040518083038186803b1580156131d757600080fd5b505afa1580156131eb573d6000803e3d6000fd5b505050506040513d601f19601f8201168201806040525081019061320f9190613b70565b905060028111156133d757600154604051630cc0fdaf60e21b8152600481018490526000916001600160a01b031690633303f6bc9060240160006040518083038186803b15801561325f57600080fd5b505afa158015613273573d6000803e3d6000fd5b505050506040513d6000823e601f3d908101601f1916820160405261329b9190810190613a41565b905073__$6cf167dfb7c5c94c9fb5276b5691085b47$__6309a223f9826132c36002866143ff565b815181106132d3576132d36144de565b602002602001015160400151836001866132ed91906143ff565b815181106132fd576132fd6144de565b6020026020010151604001518460038761331791906143ff565b81518110613327576133276144de565b6020026020010151604001516040518463ffffffff1660e01b815260040161335193929190613ed3565b60206040518083038186803b15801561336957600080fd5b505af415801561337d573d6000803e3d6000fd5b505050506040513d601f19601f820116820180604052508101906133a19190613b4e565b156106ef576106ef83826133b66001866143ff565b815181106133c6576133c66144de565b6020026020010151604001516119f2565b5050565b600054600160a01b900460ff1661342b5760405162461bcd60e51b815260206004820152601460248201527314185d5cd8589b194e881b9bdd081c185d5cd95960621b6044820152606401610192565b6000805460ff60a01b191690557f5db9ee0a495bf2e6ff9c91a7834c1ba4fdd244a5e8aa4e537bd38aeae4b073aa335b6040516001600160a01b03909116815260200160405180910390a1565b600080546001600160a01b038381166001600160a01b0319831681178455604051919092169283917f8be0079c531659141344cd1fd0a4f28419497f9722a3daafe3b4186f6b6457e09190a35050565b600054600160a01b900460ff16156135155760405162461bcd60e51b815260206004820152601060248201526f14185d5cd8589b194e881c185d5cd95960821b6044820152606401610192565b6000805460ff60a01b1916600160a01b1790557f62e78cea01bee320cd4e420270b5ea74000d11b0c9f74754ebdbfc544b05a25861345b3390565b60038054600091829163ffffffff85169160ff90911690836135718361447e565b91906101000a81548160ff021916908360ff16021790555060ff164361359791906143ff565b60408051914060208301526bffffffffffffffffffffffff19606088901b16908201526054016040516020818303038152906040528051906020012060001c6135e0919061449e565b60035490915060fa60ff909116111561317f576003805460ff191690559392505050565b600154604080516320dfeefb60e21b815290516000926001600160a01b03169163837fbbec916004808301926020929190829003018186803b15801561364957600080fd5b505afa15801561365d573d6000803e3d6000fd5b505050506040513d601f19601f820116820180604052508101906136819190613b70565b600160009054906101000a90046001600160a01b03166001600160a01b03166315a54a646040518163ffffffff1660e01b815260040160206040518083038186803b1580156136cf57600080fd5b505afa1580156136e3573d6000803e3d6000fd5b505050506040513d601f19601f820116820180604052508101906137079190613b70565b1015905090565b600061317f82846143ff565b60008181808060025b602a8110156138fc5761373861010085614389565b935084818151811061374c5761374c6144de565b016020015160f81c925084613762826001614338565b81518110613772576137726144de565b016020015160f81c915060616001600160a01b038416108015906137a057506066836001600160a01b031611155b156137b7576137b06057846143d7565b9250613822565b6041836001600160a01b0316101580156137db57506046836001600160a01b031611155b156137eb576137b06037846143d7565b6030836001600160a01b03161015801561380f57506039836001600160a01b031611155b156138225761381f6030846143d7565b92505b6061826001600160a01b03161015801561384657506066826001600160a01b031611155b1561385d576138566057836143d7565b91506138c8565b6041826001600160a01b03161015801561388157506046826001600160a01b031611155b15613891576138566037836143d7565b6030826001600160a01b0316101580156138b557506039826001600160a01b031611155b156138c8576138c56030836143d7565b91505b816138d4846010614389565b6138de919061430d565b6138e8908561430d565b93506138f5600282614338565b9050613723565b509195945050505050565b80516139128161450a565b919050565b600082601f83011261392857600080fd5b815161393b613936826142e5565b614290565b81815284602083860101111561395057600080fd5b613961826020830160208701614433565b949350505050565b805161ffff8116811461391257600080fd5b805160ff8116811461391257600080fd5b60006020828403121561399e57600080fd5b813561317f8161450a565b600060208083850312156139bc57600080fd5b825167ffffffffffffffff8111156139d357600080fd5b8301601f810185136139e457600080fd5b80516139f2613936826142c1565b80828252848201915084840188868560051b8701011115613a1257600080fd5b600094505b83851015613a35578051835260019490940193918501918501613a17565b50979650505050505050565b60006020808385031215613a5457600080fd5b825167ffffffffffffffff80821115613a6c57600080fd5b818501915085601f830112613a8057600080fd5b8151613a8e613936826142c1565b80828252858201915085850189878560051b8801011115613aae57600080fd5b60005b84811015613b3f57815186811115613ac857600080fd5b87016080818d03601f1901811315613adf57600080fd5b613ae7614243565b8a83015181526040830151613afb8161450a565b818c0152606083015189811115613b1157600080fd5b613b1f8f8d83870101613917565b604083015250910151606082015284529287019290870190600101613ab1565b50909998505050505050505050565b600060208284031215613b6057600080fd5b8151801515811461317f57600080fd5b600060208284031215613b8257600080fd5b5051919050565b60008060408385031215613b9c57600080fd5b82359150602083013567ffffffffffffffff811115613bba57600080fd5b8301601f81018513613bcb57600080fd5b8035613bd9613936826142e5565b818152866020838501011115613bee57600080fd5b816020840160208301376000602083830101528093505050509250929050565b600060208284031215613c2057600080fd5b815167ffffffffffffffff811115613c3757600080fd5b61396184828501613917565b600060208284031215613c5557600080fd5b815167ffffffffffffffff80821115613c6d57600080fd5b908301906101408286031215613c8257600080fd5b613c8a61426c565b613c9383613969565b815260208301516020820152613cab60408401613907565b6040820152606083015182811115613cc257600080fd5b613cce87828601613917565b60608301525060808301516080820152613cea60a0840161397b565b60a0820152613cfb60c0840161397b565b60c0820152613d0c60e0840161397b565b60e082015261010083810151908201526101209283015192810192909252509392505050565b600060208284031215613d4457600080fd5b815163ffffffff8116811461317f57600080fd5b60008151808452613d70816020860160208601614433565b601f01601f19169290920160200192915050565b60018152600b60fa1b602082015260400190565b8381526bffffffffffffffffffffffff198360601b16602082015260008251613dc8816034850160208701614433565b91909101603401949350505050565b6001600160a01b03929092168252602082015260400190565b8281526040602082015260006139616040830184613d58565b838152606060208201526000613e226060830185613d58565b8281036040840152613e348185613d58565b9695505050505050565b828152604060208083018290528351828401528301516001600160a01b03166060830152820151608080830152600090613e7b60c0840182613d58565b9050606084015160a0840152809150509392505050565b60208152600061317f6020830184613d58565b604081526000613eb86040830185613d58565b8281036020840152613eca8185613d58565b95945050505050565b606081526000613ee66060830186613d58565b8281036020840152613ef88186613d58565b90508281036040840152613e348185613d58565b6000610120808352613f2081840188613d58565b90508281036020840152613f348187613d58565b90508281036040840152613f4781613d84565b90508281036060840152613f5b8186613d58565b90508281036080840152613f6e81613d84565b905082810360a0840152613f828185613d58565b90508281038060c08501526002825261161960f11b60208301526040810160e085015250613fc16040820160018152601f60fa1b602082015260400190565b83810361010085015260008152905060208101979650505050505050565b6000610120808352613ff381840188613d58565b905082810360208401526140078187613d58565b9050828103604084015261401a81613d84565b9050828103606084015261402e8186613d58565b9050828103608084015261404181613d84565b905082810360a08401526140558185613d58565b90508281038060c085015260028252612c3160f01b60208301526040810160e085015250613fc16040820160018152601f60fa1b602082015260400190565b6040815260006140a76040830184613d58565b8281036020840152600b81526a21a922a0aa27a92faba7a760a91b60208201526040810191505092915050565b6040815260006140e76040830184613d58565b8281036020840152600981526810d05390d15313115160ba1b60208201526040810191505092915050565b6040815260006141256040830184613d58565b8281036020840152600c81526b10d491505513d497d313d4d560a21b60208201526040810191505092915050565b6020808252818101527f4f776e61626c653a2063616c6c6572206973206e6f7420746865206f776e6572604082015260600190565b6020815261419d60208201835161ffff169052565b60208201516040820152600060408301516141c360608401826001600160a01b03169052565b5060608301516101408060808501526141e0610160850183613d58565b9150608085015160a085015260a085015161420060c086018260ff169052565b5060c085015160ff811660e08601525060e08501516101006142268187018360ff169052565b860151610120868101919091529095015193019290925250919050565b6040516080810167ffffffffffffffff81118282101715614266576142666144f4565b60405290565b604051610140810167ffffffffffffffff81118282101715614266576142666144f4565b604051601f8201601f1916810167ffffffffffffffff811182821017156142b9576142b96144f4565b604052919050565b600067ffffffffffffffff8211156142db576142db6144f4565b5060051b60200190565b600067ffffffffffffffff8211156142ff576142ff6144f4565b50601f01601f191660200190565b60006001600160a01b0382811684821680830382111561432f5761432f6144b2565b01949350505050565b6000821982111561434b5761434b6144b2565b500190565b600060ff821660ff84168060ff0382111561436d5761436d6144b2565b019392505050565b600082614384576143846144c8565b500490565b60006001600160a01b03828116848216811515828404821116156143af576143af6144b2565b02949350505050565b60008160001904831182151516156143d2576143d26144b2565b500290565b60006001600160a01b03838116908316818110156143f7576143f76144b2565b039392505050565b600082821015614411576144116144b2565b500390565b600063ffffffff838116908316818110156143f7576143f76144b2565b60005b8381101561444e578181015183820152602001614436565b8381111561445d576000848401525b50505050565b6000600019821415614477576144776144b2565b5060010190565b600060ff821660ff811415614495576144956144b2565b60010192915050565b6000826144ad576144ad6144c8565b500690565b634e487b7160e01b600052601160045260246000fd5b634e487b7160e01b600052601260045260246000fd5b634e487b7160e01b600052603260045260246000fd5b634e487b7160e01b600052604160045260246000fd5b6001600160a01b03811681146119ef57600080fdfea264697066735822122047e5003828877cbbf6d334e9686965a76d1459a4e3130059e21fe6661805efdd64736f6c63430008070033",
			"opcodes": "PUSH1 0x80 PUSH1 0x40 MSTORE PUSH1 0x3 DUP1 SLOAD PUSH1 0xFF NOT AND SWAP1 SSTORE CALLVALUE DUP1 ISZERO PUSH3 0x1B JUMPI PUSH1 0x0 DUP1 REVERT JUMPDEST POP PUSH1 0x40 MLOAD PUSH3 0x4663 CODESIZE SUB DUP1 PUSH3 0x4663 DUP4 CODECOPY DUP2 ADD PUSH1 0x40 DUP2 SWAP1 MSTORE PUSH3 0x3E SWAP2 PUSH3 0xCC JUMP JUMPDEST PUSH3 0x49 CALLER PUSH3 0x7C JUMP JUMPDEST PUSH1 0x0 DUP1 SLOAD PUSH1 0xFF PUSH1 0xA0 SHL NOT AND SWAP1 SSTORE PUSH1 0x1 DUP1 SLOAD PUSH1 0x1 PUSH1 0x1 PUSH1 0xA0 SHL SUB NOT AND PUSH1 0x1 PUSH1 0x1 PUSH1 0xA0 SHL SUB SWAP3 SWAP1 SWAP3 AND SWAP2 SWAP1 SWAP2 OR SWAP1 SSTORE PUSH3 0xFE JUMP JUMPDEST PUSH1 0x0 DUP1 SLOAD PUSH1 0x1 PUSH1 0x1 PUSH1 0xA0 SHL SUB DUP4 DUP2 AND PUSH1 0x1 PUSH1 0x1 PUSH1 0xA0 SHL SUB NOT DUP4 AND DUP2 OR DUP5 SSTORE PUSH1 0x40 MLOAD SWAP2 SWAP1 SWAP3 AND SWAP3 DUP4 SWAP2 PUSH32 0x8BE0079C531659141344CD1FD0A4F28419497F9722A3DAAFE3B4186F6B6457E0 SWAP2 SWAP1 LOG3 POP POP JUMP JUMPDEST PUSH1 0x0 PUSH1 0x20 DUP3 DUP5 SUB SLT ISZERO PUSH3 0xDF JUMPI PUSH1 0x0 DUP1 REVERT JUMPDEST DUP2 MLOAD PUSH1 0x1 PUSH1 0x1 PUSH1 0xA0 SHL SUB DUP2 AND DUP2 EQ PUSH3 0xF7 JUMPI PUSH1 0x0 DUP1 REVERT JUMPDEST SWAP4 SWAP3 POP POP POP JUMP JUMPDEST PUSH2 0x4555 DUP1 PUSH3 0x10E PUSH1 0x0 CODECOPY PUSH1 0x0 RETURN INVALID PUSH1 0x80 PUSH1 0x40 MSTORE CALLVALUE DUP1 ISZERO PUSH2 0x10 JUMPI PUSH1 0x0 DUP1 REVERT JUMPDEST POP PUSH1 0x4 CALLDATASIZE LT PUSH2 0x93 JUMPI PUSH1 0x0 CALLDATALOAD PUSH1 0xE0 SHR DUP1 PUSH4 0x8456CB59 GT PUSH2 0x66 JUMPI DUP1 PUSH4 0x8456CB59 EQ PUSH2 0xDF JUMPI DUP1 PUSH4 0x8DA5CB5B EQ PUSH2 0xE7 JUMPI DUP1 PUSH4 0x908A0375 EQ PUSH2 0x102 JUMPI DUP1 PUSH4 0xEBC8C500 EQ PUSH2 0x117 JUMPI DUP1 PUSH4 0xF2FDE38B EQ PUSH2 0x11F JUMPI PUSH1 0x0 DUP1 REVERT JUMPDEST DUP1 PUSH4 0xFD6B7FF EQ PUSH2 0x98 JUMPI DUP1 PUSH4 0x3F4BA83A EQ PUSH2 0xAD JUMPI DUP1 PUSH4 0x5C975ABB EQ PUSH2 0xB5 JUMPI DUP1 PUSH4 0x715018A6 EQ PUSH2 0xD7 JUMPI JUMPDEST PUSH1 0x0 DUP1 REVERT JUMPDEST PUSH2 0xAB PUSH2 0xA6 CALLDATASIZE PUSH1 0x4 PUSH2 0x3B89 JUMP JUMPDEST PUSH2 0x132 JUMP JUMPDEST STOP JUMPDEST PUSH2 0xAB PUSH2 0xDB8 JUMP JUMPDEST PUSH1 0x0 SLOAD PUSH1 0x1 PUSH1 0xA0 SHL SWAP1 DIV PUSH1 0xFF AND PUSH1 0x40 MLOAD SWAP1 ISZERO ISZERO DUP2 MSTORE PUSH1 0x20 ADD JUMPDEST PUSH1 0x40 MLOAD DUP1 SWAP2 SUB SWAP1 RETURN JUMPDEST PUSH2 0xAB PUSH2 0xDEC JUMP JUMPDEST PUSH2 0xAB PUSH2 0xE20 JUMP JUMPDEST PUSH1 0x0 SLOAD PUSH1 0x40 MLOAD PUSH1 0x1 PUSH1 0x1 PUSH1 0xA0 SHL SUB SWAP1 SWAP2 AND DUP2 MSTORE PUSH1 0x20 ADD PUSH2 0xCE JUMP JUMPDEST PUSH2 0x10A PUSH2 0xE52 JUMP JUMPDEST PUSH1 0x40 MLOAD PUSH2 0xCE SWAP2 SWAP1 PUSH2 0x3E92 JUMP JUMPDEST PUSH2 0xAB PUSH2 0x1663 JUMP JUMPDEST PUSH2 0xAB PUSH2 0x12D CALLDATASIZE PUSH1 0x4 PUSH2 0x398C JUMP JUMPDEST PUSH2 0x1957 JUMP JUMPDEST CALLER PUSH1 0x0 SWAP1 DUP2 MSTORE PUSH1 0x2 PUSH1 0x20 MSTORE PUSH1 0x40 SWAP1 KECCAK256 SLOAD PUSH1 0xFF AND ISZERO ISZERO PUSH1 0x1 EQ PUSH2 0x19B JUMPI PUSH1 0x40 MLOAD PUSH3 0x461BCD PUSH1 0xE5 SHL DUP2 MSTORE PUSH1 0x20 PUSH1 0x4 DUP3 ADD MSTORE PUSH1 0x1D PUSH1 0x24 DUP3 ADD MSTORE PUSH32 0x41726269747261746F72206973206E6F7420526567697374657265642E000000 PUSH1 0x44 DUP3 ADD MSTORE PUSH1 0x64 ADD JUMPDEST PUSH1 0x40 MLOAD DUP1 SWAP2 SUB SWAP1 REVERT JUMPDEST PUSH1 0x40 MLOAD PUSH4 0x5F69A5DD PUSH1 0xE1 SHL DUP2 MSTORE PUSH20 0x0 SWAP1 PUSH4 0xBED34BBA SWAP1 PUSH2 0x1D2 SWAP1 DUP5 SWAP1 PUSH1 0x4 ADD PUSH2 0x4112 JUMP JUMPDEST PUSH1 0x20 PUSH1 0x40 MLOAD DUP1 DUP4 SUB DUP2 DUP7 DUP1 EXTCODESIZE ISZERO DUP1 ISZERO PUSH2 0x1EA JUMPI PUSH1 0x0 DUP1 REVERT JUMPDEST POP GAS DELEGATECALL ISZERO DUP1 ISZERO PUSH2 0x1FE JUMPI RETURNDATASIZE PUSH1 0x0 DUP1 RETURNDATACOPY RETURNDATASIZE PUSH1 0x0 REVERT JUMPDEST POP POP POP POP PUSH1 0x40 MLOAD RETURNDATASIZE PUSH1 0x1F NOT PUSH1 0x1F DUP3 ADD AND DUP3 ADD DUP1 PUSH1 0x40 MSTORE POP DUP2 ADD SWAP1 PUSH2 0x222 SWAP2 SWAP1 PUSH2 0x3B4E JUMP JUMPDEST DUP1 PUSH2 0x2AF JUMPI POP PUSH1 0x40 MLOAD PUSH4 0x5F69A5DD PUSH1 0xE1 SHL DUP2 MSTORE PUSH20 0x0 SWAP1 PUSH4 0xBED34BBA SWAP1 PUSH2 0x25F SWAP1 DUP5 SWAP1 PUSH1 0x4 ADD PUSH2 0x4094 JUMP JUMPDEST PUSH1 0x20 PUSH1 0x40 MLOAD DUP1 DUP4 SUB DUP2 DUP7 DUP1 EXTCODESIZE ISZERO DUP1 ISZERO PUSH2 0x277 JUMPI PUSH1 0x0 DUP1 REVERT JUMPDEST POP GAS DELEGATECALL ISZERO DUP1 ISZERO PUSH2 0x28B JUMPI RETURNDATASIZE PUSH1 0x0 DUP1 RETURNDATACOPY RETURNDATASIZE PUSH1 0x0 REVERT JUMPDEST POP POP POP POP PUSH1 0x40 MLOAD RETURNDATASIZE PUSH1 0x1F NOT PUSH1 0x1F DUP3 ADD AND DUP3 ADD DUP1 PUSH1 0x40 MSTORE POP DUP2 ADD SWAP1 PUSH2 0x2AF SWAP2 SWAP1 PUSH2 0x3B4E JUMP JUMPDEST DUP1 PUSH2 0x33C JUMPI POP PUSH1 0x40 MLOAD PUSH4 0x5F69A5DD PUSH1 0xE1 SHL DUP2 MSTORE PUSH20 0x0 SWAP1 PUSH4 0xBED34BBA SWAP1 PUSH2 0x2EC SWAP1 DUP5 SWAP1 PUSH1 0x4 ADD PUSH2 0x40D4 JUMP JUMPDEST PUSH1 0x20 PUSH1 0x40 MLOAD DUP1 DUP4 SUB DUP2 DUP7 DUP1 EXTCODESIZE ISZERO DUP1 ISZERO PUSH2 0x304 JUMPI PUSH1 0x0 DUP1 REVERT JUMPDEST POP GAS DELEGATECALL ISZERO DUP1 ISZERO PUSH2 0x318 JUMPI RETURNDATASIZE PUSH1 0x0 DUP1 RETURNDATACOPY RETURNDATASIZE PUSH1 0x0 REVERT JUMPDEST POP POP POP POP PUSH1 0x40 MLOAD RETURNDATASIZE PUSH1 0x1F NOT PUSH1 0x1F DUP3 ADD AND DUP3 ADD DUP1 PUSH1 0x40 MSTORE POP DUP2 ADD SWAP1 PUSH2 0x33C SWAP2 SWAP1 PUSH2 0x3B4E JUMP JUMPDEST PUSH2 0x37A JUMPI PUSH1 0x40 MLOAD PUSH3 0x461BCD PUSH1 0xE5 SHL DUP2 MSTORE PUSH1 0x20 PUSH1 0x4 DUP3 ADD MSTORE PUSH1 0xF PUSH1 0x24 DUP3 ADD MSTORE PUSH15 0x496E76616C6964204F7574636F6D65 PUSH1 0x88 SHL PUSH1 0x44 DUP3 ADD MSTORE PUSH1 0x64 ADD PUSH2 0x192 JUMP JUMPDEST PUSH1 0x1 SLOAD PUSH1 0x40 MLOAD PUSH4 0x1BF4604F PUSH1 0xE1 SHL DUP2 MSTORE PUSH1 0x4 DUP2 ADD DUP5 SWAP1 MSTORE PUSH1 0x0 SWAP2 PUSH1 0x1 PUSH1 0x1 PUSH1 0xA0 SHL SUB AND SWAP1 PUSH4 0x37E8C09E SWAP1 PUSH1 0x24 ADD PUSH1 0x0 PUSH1 0x40 MLOAD DUP1 DUP4 SUB DUP2 DUP7 DUP1 EXTCODESIZE ISZERO DUP1 ISZERO PUSH2 0x3BF JUMPI PUSH1 0x0 DUP1 REVERT JUMPDEST POP GAS STATICCALL ISZERO DUP1 ISZERO PUSH2 0x3D3 JUMPI RETURNDATASIZE PUSH1 0x0 DUP1 RETURNDATACOPY RETURNDATASIZE PUSH1 0x0 REVERT JUMPDEST POP POP POP POP PUSH1 0x40 MLOAD RETURNDATASIZE PUSH1 0x0 DUP3 RETURNDATACOPY PUSH1 0x1F RETURNDATASIZE SWAP1 DUP2 ADD PUSH1 0x1F NOT AND DUP3 ADD PUSH1 0x40 MSTORE PUSH2 0x3FB SWAP2 SWAP1 DUP2 ADD SWAP1 PUSH2 0x3C43 JUMP JUMPDEST SWAP1 POP PUSH1 0x3 DUP2 PUSH1 0xE0 ADD MLOAD PUSH1 0xFF AND EQ PUSH2 0x454 JUMPI PUSH1 0x40 MLOAD PUSH3 0x461BCD PUSH1 0xE5 SHL DUP2 MSTORE PUSH1 0x20 PUSH1 0x4 DUP3 ADD MSTORE PUSH1 0x1A PUSH1 0x24 DUP3 ADD MSTORE PUSH32 0x4E6F7420526561647920666F72204172626974726174696F6E2E000000000000 PUSH1 0x44 DUP3 ADD MSTORE PUSH1 0x64 ADD PUSH2 0x192 JUMP JUMPDEST PUSH1 0xC0 DUP2 ADD MLOAD PUSH1 0xFF AND PUSH2 0x64F JUMPI PUSH1 0x40 MLOAD PUSH4 0x5E57966D PUSH1 0xE0 SHL DUP2 MSTORE CALLER PUSH1 0x4 DUP3 ADD MSTORE PUSH20 0x0 SWAP1 PUSH4 0xBED34BBA SWAP1 PUSH20 0x0 SWAP1 PUSH4 0x5E57966D SWAP1 PUSH1 0x24 ADD PUSH1 0x0 PUSH1 0x40 MLOAD DUP1 DUP4 SUB DUP2 DUP7 DUP1 EXTCODESIZE ISZERO DUP1 ISZERO PUSH2 0x4C6 JUMPI PUSH1 0x0 DUP1 REVERT JUMPDEST POP GAS DELEGATECALL ISZERO DUP1 ISZERO PUSH2 0x4DA JUMPI RETURNDATASIZE PUSH1 0x0 DUP1 RETURNDATACOPY RETURNDATASIZE PUSH1 0x0 REVERT JUMPDEST POP POP POP POP PUSH1 0x40 MLOAD RETURNDATASIZE PUSH1 0x0 DUP3 RETURNDATACOPY PUSH1 0x1F RETURNDATASIZE SWAP1 DUP2 ADD PUSH1 0x1F NOT AND DUP3 ADD PUSH1 0x40 MSTORE PUSH2 0x502 SWAP2 SWAP1 DUP2 ADD SWAP1 PUSH2 0x3C0E JUMP JUMPDEST PUSH1 0x1 SLOAD PUSH1 0x40 DUP1 MLOAD DUP1 DUP3 ADD DUP3 MSTORE PUSH1 0xA DUP2 MSTORE PUSH10 0x20A92124AA2920AA27A9 PUSH1 0xB1 SHL PUSH1 0x20 DUP3 ADD MSTORE SWAP1 MLOAD PUSH4 0x22AD378F PUSH1 0xE2 SHL DUP2 MSTORE PUSH1 0x1 PUSH1 0x1 PUSH1 0xA0 SHL SUB SWAP1 SWAP3 AND SWAP2 PUSH4 0x8AB4DE3C SWAP2 PUSH2 0x552 SWAP2 DUP11 SWAP2 SWAP1 PUSH1 0x4 ADD PUSH2 0x3DF0 JUMP JUMPDEST PUSH1 0x0 PUSH1 0x40 MLOAD DUP1 DUP4 SUB DUP2 DUP7 DUP1 EXTCODESIZE ISZERO DUP1 ISZERO PUSH2 0x56A JUMPI PUSH1 0x0 DUP1 REVERT JUMPDEST POP GAS STATICCALL ISZERO DUP1 ISZERO PUSH2 0x57E JUMPI RETURNDATASIZE PUSH1 0x0 DUP1 RETURNDATACOPY RETURNDATASIZE PUSH1 0x0 REVERT JUMPDEST POP POP POP POP PUSH1 0x40 MLOAD RETURNDATASIZE PUSH1 0x0 DUP3 RETURNDATACOPY PUSH1 0x1F RETURNDATASIZE SWAP1 DUP2 ADD PUSH1 0x1F NOT AND DUP3 ADD PUSH1 0x40 MSTORE PUSH2 0x5A6 SWAP2 SWAP1 DUP2 ADD SWAP1 PUSH2 0x3C0E JUMP JUMPDEST PUSH1 0x40 MLOAD DUP4 PUSH4 0xFFFFFFFF AND PUSH1 0xE0 SHL DUP2 MSTORE PUSH1 0x4 ADD PUSH2 0x5C3 SWAP3 SWAP2 SWAP1 PUSH2 0x3EA5 JUMP JUMPDEST PUSH1 0x20 PUSH1 0x40 MLOAD DUP1 DUP4 SUB DUP2 DUP7 DUP1 EXTCODESIZE ISZERO DUP1 ISZERO PUSH2 0x5DB JUMPI PUSH1 0x0 DUP1 REVERT JUMPDEST POP GAS DELEGATECALL ISZERO DUP1 ISZERO PUSH2 0x5EF JUMPI RETURNDATASIZE PUSH1 0x0 DUP1 RETURNDATACOPY RETURNDATASIZE PUSH1 0x0 REVERT JUMPDEST POP POP POP POP PUSH1 0x40 MLOAD RETURNDATASIZE PUSH1 0x1F NOT PUSH1 0x1F DUP3 ADD AND DUP3 ADD DUP1 PUSH1 0x40 MSTORE POP DUP2 ADD SWAP1 PUSH2 0x613 SWAP2 SWAP1 PUSH2 0x3B4E JUMP JUMPDEST PUSH2 0x64F JUMPI PUSH1 0x40 MLOAD PUSH3 0x461BCD PUSH1 0xE5 SHL DUP2 MSTORE PUSH1 0x20 PUSH1 0x4 DUP3 ADD MSTORE PUSH1 0xD PUSH1 0x24 DUP3 ADD MSTORE PUSH13 0x2AB720BABA3437B934BD32B217 PUSH1 0x99 SHL PUSH1 0x44 DUP3 ADD MSTORE PUSH1 0x64 ADD PUSH2 0x192 JUMP JUMPDEST PUSH1 0x40 DUP2 ADD MLOAD PUSH1 0x1 PUSH1 0x1 PUSH1 0xA0 SHL SUB AND CALLER EQ ISZERO PUSH2 0x6AC JUMPI PUSH1 0x40 MLOAD PUSH3 0x461BCD PUSH1 0xE5 SHL DUP2 MSTORE PUSH1 0x20 PUSH1 0x4 DUP3 ADD MSTORE PUSH1 0x19 PUSH1 0x24 DUP3 ADD MSTORE PUSH32 0x43726561746F722063616E6E6F74206172626974726174652E00000000000000 PUSH1 0x44 DUP3 ADD MSTORE PUSH1 0x64 ADD PUSH2 0x192 JUMP JUMPDEST PUSH1 0xC0 DUP2 ADD MLOAD PUSH1 0xFF AND PUSH2 0x6F4 JUMPI PUSH1 0x40 MLOAD CALLER SWAP1 DUP5 SWAP1 PUSH32 0x268B6C0F0F2C83EF3AA7262FB543E78FA631907EF82E731B2CCBBA7D6EC3B87F SWAP1 PUSH1 0x0 SWAP1 LOG3 PUSH2 0x6EF DUP4 DUP4 PUSH2 0x19F2 JUMP JUMPDEST POP POP POP JUMP JUMPDEST PUSH1 0x1 SLOAD PUSH1 0x40 MLOAD PUSH4 0x9C716C7 PUSH1 0xE1 SHL DUP2 MSTORE PUSH1 0x4 DUP2 ADD DUP6 SWAP1 MSTORE CALLER PUSH1 0x24 DUP3 ADD MSTORE PUSH1 0x1 PUSH1 0x1 PUSH1 0xA0 SHL SUB SWAP1 SWAP2 AND SWAP1 PUSH4 0x138E2D8E SWAP1 PUSH1 0x44 ADD PUSH1 0x20 PUSH1 0x40 MLOAD DUP1 DUP4 SUB DUP2 DUP7 DUP1 EXTCODESIZE ISZERO DUP1 ISZERO PUSH2 0x73E JUMPI PUSH1 0x0 DUP1 REVERT JUMPDEST POP GAS STATICCALL ISZERO DUP1 ISZERO PUSH2 0x752 JUMPI RETURNDATASIZE PUSH1 0x0 DUP1 RETURNDATACOPY RETURNDATASIZE PUSH1 0x0 REVERT JUMPDEST POP POP POP POP PUSH1 0x40 MLOAD RETURNDATASIZE PUSH1 0x1F NOT PUSH1 0x1F DUP3 ADD AND DUP3 ADD DUP1 PUSH1 0x40 MSTORE POP DUP2 ADD SWAP1 PUSH2 0x776 SWAP2 SWAP1 PUSH2 0x3B4E JUMP JUMPDEST ISZERO PUSH2 0x7B8 JUMPI PUSH1 0x40 MLOAD PUSH3 0x461BCD PUSH1 0xE5 SHL DUP2 MSTORE PUSH1 0x20 PUSH1 0x4 DUP3 ADD MSTORE PUSH1 0x12 PUSH1 0x24 DUP3 ADD MSTORE PUSH18 0x223AB83634B1B0BA32902932B8BAB2B9BA17 PUSH1 0x71 SHL PUSH1 0x44 DUP3 ADD MSTORE PUSH1 0x64 ADD PUSH2 0x192 JUMP JUMPDEST CALLER PUSH1 0x0 SWAP1 DUP2 MSTORE PUSH1 0x2 PUSH1 0x20 MSTORE PUSH1 0x40 SWAP1 KECCAK256 SLOAD PUSH20 0x0 SWAP1 PUSH4 0xBED34BBA SWAP1 PUSH2 0x7F8 SWAP1 PUSH2 0x100 SWAP1 DIV PUSH4 0xFFFFFFFF AND PUSH2 0x304A JUMP JUMPDEST PUSH1 0x1 SLOAD PUSH1 0x40 DUP1 MLOAD DUP1 DUP3 ADD DUP3 MSTORE PUSH1 0xC DUP2 MSTORE PUSH12 0x50454E44494E475155455545 PUSH1 0xA0 SHL PUSH1 0x20 DUP3 ADD MSTORE SWAP1 MLOAD PUSH4 0x22AD378F PUSH1 0xE2 SHL DUP2 MSTORE PUSH1 0x1 PUSH1 0x1 PUSH1 0xA0 SHL SUB SWAP1 SWAP3 AND SWAP2 PUSH4 0x8AB4DE3C SWAP2 PUSH2 0x84A SWAP2 DUP11 SWAP2 SWAP1 PUSH1 0x4 ADD PUSH2 0x3DF0 JUMP JUMPDEST PUSH1 0x0 PUSH1 0x40 MLOAD DUP1 DUP4 SUB DUP2 DUP7 DUP1 EXTCODESIZE ISZERO DUP1 ISZERO PUSH2 0x862 JUMPI PUSH1 0x0 DUP1 REVERT JUMPDEST POP GAS STATICCALL ISZERO DUP1 ISZERO PUSH2 0x876 JUMPI RETURNDATASIZE PUSH1 0x0 DUP1 RETURNDATACOPY RETURNDATASIZE PUSH1 0x0 REVERT JUMPDEST POP POP POP POP PUSH1 0x40 MLOAD RETURNDATASIZE PUSH1 0x0 DUP3 RETURNDATACOPY PUSH1 0x1F RETURNDATASIZE SWAP1 DUP2 ADD PUSH1 0x1F NOT AND DUP3 ADD PUSH1 0x40 MSTORE PUSH2 0x89E SWAP2 SWAP1 DUP2 ADD SWAP1 PUSH2 0x3C0E JUMP JUMPDEST PUSH1 0x40 MLOAD DUP4 PUSH4 0xFFFFFFFF AND PUSH1 0xE0 SHL DUP2 MSTORE PUSH1 0x4 ADD PUSH2 0x8BB SWAP3 SWAP2 SWAP1 PUSH2 0x3EA5 JUMP JUMPDEST PUSH1 0x20 PUSH1 0x40 MLOAD DUP1 DUP4 SUB DUP2 DUP7 DUP1 EXTCODESIZE ISZERO DUP1 ISZERO PUSH2 0x8D3 JUMPI PUSH1 0x0 DUP1 REVERT JUMPDEST POP GAS DELEGATECALL ISZERO DUP1 ISZERO PUSH2 0x8E7 JUMPI RETURNDATASIZE PUSH1 0x0 DUP1 RETURNDATACOPY RETURNDATASIZE PUSH1 0x0 REVERT JUMPDEST POP POP POP POP PUSH1 0x40 MLOAD RETURNDATASIZE PUSH1 0x1F NOT PUSH1 0x1F DUP3 ADD AND DUP3 ADD DUP1 PUSH1 0x40 MSTORE POP DUP2 ADD SWAP1 PUSH2 0x90B SWAP2 SWAP1 PUSH2 0x3B4E JUMP JUMPDEST PUSH2 0x957 JUMPI PUSH1 0x40 MLOAD PUSH3 0x461BCD PUSH1 0xE5 SHL DUP2 MSTORE PUSH1 0x20 PUSH1 0x4 DUP3 ADD MSTORE PUSH1 0x1B PUSH1 0x24 DUP3 ADD MSTORE PUSH32 0x57726F6E672051756575652E20506C6561736520526566726573680000000000 PUSH1 0x44 DUP3 ADD MSTORE PUSH1 0x64 ADD PUSH2 0x192 JUMP JUMPDEST PUSH1 0x1 SLOAD PUSH1 0x40 DUP1 MLOAD DUP1 DUP3 ADD DUP3 MSTORE PUSH1 0x14 DUP2 MSTORE PUSH20 0x14D51052D154115490D153951491545552549151 PUSH1 0x62 SHL PUSH1 0x20 DUP3 ADD MSTORE SWAP1 MLOAD PUSH4 0x22AD378F PUSH1 0xE2 SHL DUP2 MSTORE PUSH1 0x0 SWAP3 PUSH20 0x0 SWAP3 PUSH4 0x1BD95155 SWAP3 PUSH1 0x1 PUSH1 0x1 PUSH1 0xA0 SHL SUB SWAP1 SWAP3 AND SWAP2 PUSH4 0x8AB4DE3C SWAP2 PUSH2 0x9D0 SWAP2 DUP11 SWAP2 SWAP1 PUSH1 0x4 ADD PUSH2 0x3DF0 JUMP JUMPDEST PUSH1 0x0 PUSH1 0x40 MLOAD DUP1 DUP4 SUB DUP2 DUP7 DUP1 EXTCODESIZE ISZERO DUP1 ISZERO PUSH2 0x9E8 JUMPI PUSH1 0x0 DUP1 REVERT JUMPDEST POP GAS STATICCALL ISZERO DUP1 ISZERO PUSH2 0x9FC JUMPI RETURNDATASIZE PUSH1 0x0 DUP1 RETURNDATACOPY RETURNDATASIZE PUSH1 0x0 REVERT JUMPDEST POP POP POP POP PUSH1 0x40 MLOAD RETURNDATASIZE PUSH1 0x0 DUP3 RETURNDATACOPY PUSH1 0x1F RETURNDATASIZE SWAP1 DUP2 ADD PUSH1 0x1F NOT AND DUP3 ADD PUSH1 0x40 MSTORE PUSH2 0xA24 SWAP2 SWAP1 DUP2 ADD SWAP1 PUSH2 0x3C0E JUMP JUMPDEST PUSH1 0x40 MLOAD DUP3 PUSH4 0xFFFFFFFF AND PUSH1 0xE0 SHL DUP2 MSTORE PUSH1 0x4 ADD PUSH2 0xA40 SWAP2 SWAP1 PUSH2 0x3E92 JUMP JUMPDEST PUSH1 0x20 PUSH1 0x40 MLOAD DUP1 DUP4 SUB DUP2 DUP7 DUP1 EXTCODESIZE ISZERO DUP1 ISZERO PUSH2 0xA58 JUMPI PUSH1 0x0 DUP1 REVERT JUMPDEST POP GAS DELEGATECALL ISZERO DUP1 ISZERO PUSH2 0xA6C JUMPI RETURNDATASIZE PUSH1 0x0 DUP1 RETURNDATACOPY RETURNDATASIZE PUSH1 0x0 REVERT JUMPDEST POP POP POP POP PUSH1 0x40 MLOAD RETURNDATASIZE PUSH1 0x1F NOT PUSH1 0x1F DUP3 ADD AND DUP3 ADD DUP1 PUSH1 0x40 MSTORE POP DUP2 ADD SWAP1 PUSH2 0xA90 SWAP2 SWAP1 PUSH2 0x3B70 JUMP JUMPDEST SWAP1 POP PUSH1 0x0 PUSH2 0xABE PUSH3 0x186A0 PUSH2 0xAB8 PUSH1 0x64 PUSH2 0xAB8 DUP8 PUSH2 0x100 ADD MLOAD DUP8 PUSH2 0x3173 SWAP1 SWAP2 SWAP1 PUSH4 0xFFFFFFFF AND JUMP JUMPDEST SWAP1 PUSH2 0x3186 JUMP JUMPDEST PUSH1 0x1 SLOAD PUSH1 0x40 MLOAD PUSH4 0x4DCB7767 PUSH1 0xE1 SHL DUP2 MSTORE CALLER PUSH1 0x4 DUP3 ADD MSTORE SWAP2 SWAP3 POP DUP3 SWAP2 PUSH1 0x1 PUSH1 0x1 PUSH1 0xA0 SHL SUB SWAP1 SWAP2 AND SWAP1 PUSH4 0x9B96EECE SWAP1 PUSH1 0x24 ADD PUSH1 0x20 PUSH1 0x40 MLOAD DUP1 DUP4 SUB DUP2 DUP7 DUP1 EXTCODESIZE ISZERO DUP1 ISZERO PUSH2 0xB06 JUMPI PUSH1 0x0 DUP1 REVERT JUMPDEST POP GAS STATICCALL ISZERO DUP1 ISZERO PUSH2 0xB1A JUMPI RETURNDATASIZE PUSH1 0x0 DUP1 RETURNDATACOPY RETURNDATASIZE PUSH1 0x0 REVERT JUMPDEST POP POP POP POP PUSH1 0x40 MLOAD RETURNDATASIZE PUSH1 0x1F NOT PUSH1 0x1F DUP3 ADD AND DUP3 ADD DUP1 PUSH1 0x40 MSTORE POP DUP2 ADD SWAP1 PUSH2 0xB3E SWAP2 SWAP1 PUSH2 0x3B70 JUMP JUMPDEST LT ISZERO PUSH2 0xB8C JUMPI PUSH1 0x40 MLOAD PUSH3 0x461BCD PUSH1 0xE5 SHL DUP2 MSTORE PUSH1 0x20 PUSH1 0x4 DUP3 ADD MSTORE PUSH1 0x1F PUSH1 0x24 DUP3 ADD MSTORE PUSH32 0x42616C616E636520496E73756666696369656E7420666F72205374616B652E00 PUSH1 0x44 DUP3 ADD MSTORE PUSH1 0x64 ADD PUSH2 0x192 JUMP JUMPDEST PUSH1 0x1 SLOAD PUSH1 0x40 DUP1 MLOAD PUSH4 0x5695299 PUSH1 0xE2 SHL DUP2 MSTORE SWAP1 MLOAD DUP4 SWAP3 PUSH1 0x1 PUSH1 0x1 PUSH1 0xA0 SHL SUB AND SWAP2 PUSH4 0x15A54A64 SWAP2 PUSH1 0x4 DUP1 DUP4 ADD SWAP3 PUSH1 0x20 SWAP3 SWAP2 SWAP1 DUP3 SWAP1 SUB ADD DUP2 DUP7 DUP1 EXTCODESIZE ISZERO DUP1 ISZERO PUSH2 0xBD0 JUMPI PUSH1 0x0 DUP1 REVERT JUMPDEST POP GAS STATICCALL ISZERO DUP1 ISZERO PUSH2 0xBE4 JUMPI RETURNDATASIZE PUSH1 0x0 DUP1 RETURNDATACOPY RETURNDATASIZE PUSH1 0x0 REVERT JUMPDEST POP POP POP POP PUSH1 0x40 MLOAD RETURNDATASIZE PUSH1 0x1F NOT PUSH1 0x1F DUP3 ADD AND DUP3 ADD DUP1 PUSH1 0x40 MSTORE POP DUP2 ADD SWAP1 PUSH2 0xC08 SWAP2 SWAP1 PUSH2 0x3B70 JUMP JUMPDEST GT ISZERO PUSH2 0xC94 JUMPI PUSH1 0x1 SLOAD PUSH1 0x40 MLOAD PUSH4 0x2770A7EB PUSH1 0xE2 SHL DUP2 MSTORE PUSH1 0x1 PUSH1 0x1 PUSH1 0xA0 SHL SUB SWAP1 SWAP2 AND SWAP1 PUSH4 0x9DC29FAC SWAP1 PUSH2 0xC40 SWAP1 CALLER SWAP1 DUP6 SWAP1 PUSH1 0x4 ADD PUSH2 0x3DD7 JUMP JUMPDEST PUSH1 0x20 PUSH1 0x40 MLOAD DUP1 DUP4 SUB DUP2 PUSH1 0x0 DUP8 DUP1 EXTCODESIZE ISZERO DUP1 ISZERO PUSH2 0xC5A JUMPI PUSH1 0x0 DUP1 REVERT JUMPDEST POP GAS CALL ISZERO DUP1 ISZERO PUSH2 0xC6E JUMPI RETURNDATASIZE PUSH1 0x0 DUP1 RETURNDATACOPY RETURNDATASIZE PUSH1 0x0 REVERT JUMPDEST POP POP POP POP PUSH1 0x40 MLOAD RETURNDATASIZE PUSH1 0x1F NOT PUSH1 0x1F DUP3 ADD AND DUP3 ADD DUP1 PUSH1 0x40 MSTORE POP DUP2 ADD SWAP1 PUSH2 0xC92 SWAP2 SWAP1 PUSH2 0x3B4E JUMP JUMPDEST POP JUMPDEST PUSH1 0x1 SLOAD PUSH1 0x40 MLOAD PUSH4 0x2EBB5D89 PUSH1 0xE1 SHL DUP2 MSTORE PUSH1 0x4 DUP2 ADD DUP8 SWAP1 MSTORE CALLER PUSH1 0x24 DUP3 ADD MSTORE PUSH1 0x1 PUSH1 0x1 PUSH1 0xA0 SHL SUB SWAP1 SWAP2 AND SWAP1 PUSH4 0x5D76BB12 SWAP1 PUSH1 0x44 ADD PUSH1 0x0 PUSH1 0x40 MLOAD DUP1 DUP4 SUB DUP2 PUSH1 0x0 DUP8 DUP1 EXTCODESIZE ISZERO DUP1 ISZERO PUSH2 0xCE0 JUMPI PUSH1 0x0 DUP1 REVERT JUMPDEST POP GAS CALL ISZERO DUP1 ISZERO PUSH2 0xCF4 JUMPI RETURNDATASIZE PUSH1 0x0 DUP1 RETURNDATACOPY RETURNDATASIZE PUSH1 0x0 REVERT JUMPDEST POP POP POP POP PUSH1 0x0 DUP6 CALLER DUP7 PUSH1 0x40 MLOAD PUSH1 0x20 ADD PUSH2 0xD0F SWAP4 SWAP3 SWAP2 SWAP1 PUSH2 0x3D98 JUMP JUMPDEST PUSH1 0x40 DUP1 MLOAD PUSH1 0x1F NOT DUP2 DUP5 SUB ADD DUP2 MSTORE DUP3 DUP3 MSTORE DUP1 MLOAD PUSH1 0x20 SWAP2 DUP3 ADD KECCAK256 PUSH1 0x1 SLOAD PUSH1 0x80 DUP6 ADD DUP5 MSTORE DUP2 DUP6 MSTORE CALLER SWAP3 DUP6 ADD SWAP3 SWAP1 SWAP3 MSTORE DUP4 DUP4 ADD DUP10 SWAP1 MSTORE PUSH1 0x60 DUP5 ADD DUP7 SWAP1 MSTORE SWAP2 MLOAD PUSH4 0x36824451 PUSH1 0xE1 SHL DUP2 MSTORE SWAP2 SWAP4 POP PUSH1 0x1 PUSH1 0x1 PUSH1 0xA0 SHL SUB AND SWAP2 PUSH4 0x6D0488A2 SWAP2 PUSH2 0xD75 SWAP2 DUP11 SWAP2 PUSH1 0x4 ADD PUSH2 0x3E3E JUMP JUMPDEST PUSH1 0x0 PUSH1 0x40 MLOAD DUP1 DUP4 SUB DUP2 PUSH1 0x0 DUP8 DUP1 EXTCODESIZE ISZERO DUP1 ISZERO PUSH2 0xD8F JUMPI PUSH1 0x0 DUP1 REVERT JUMPDEST POP GAS CALL ISZERO DUP1 ISZERO PUSH2 0xDA3 JUMPI RETURNDATASIZE PUSH1 0x0 DUP1 RETURNDATACOPY RETURNDATASIZE PUSH1 0x0 REVERT JUMPDEST POP POP POP POP PUSH2 0xDB0 DUP7 PUSH2 0x3192 JUMP JUMPDEST POP POP POP POP POP POP JUMP JUMPDEST PUSH1 0x0 SLOAD PUSH1 0x1 PUSH1 0x1 PUSH1 0xA0 SHL SUB AND CALLER EQ PUSH2 0xDE2 JUMPI PUSH1 0x40 MLOAD PUSH3 0x461BCD PUSH1 0xE5 SHL DUP2 MSTORE PUSH1 0x4 ADD PUSH2 0x192 SWAP1 PUSH2 0x4153 JUMP JUMPDEST PUSH2 0xDEA PUSH2 0x33DB JUMP JUMPDEST JUMP JUMPDEST PUSH1 0x0 SLOAD PUSH1 0x1 PUSH1 0x1 PUSH1 0xA0 SHL SUB AND CALLER EQ PUSH2 0xE16 JUMPI PUSH1 0x40 MLOAD PUSH3 0x461BCD PUSH1 0xE5 SHL DUP2 MSTORE PUSH1 0x4 ADD PUSH2 0x192 SWAP1 PUSH2 0x4153 JUMP JUMPDEST PUSH2 0xDEA PUSH1 0x0 PUSH2 0x3478 JUMP JUMPDEST PUSH1 0x0 SLOAD PUSH1 0x1 PUSH1 0x1 PUSH1 0xA0 SHL SUB AND CALLER EQ PUSH2 0xE4A JUMPI PUSH1 0x40 MLOAD PUSH3 0x461BCD PUSH1 0xE5 SHL DUP2 MSTORE PUSH1 0x4 ADD PUSH2 0x192 SWAP1 PUSH2 0x4153 JUMP JUMPDEST PUSH2 0xDEA PUSH2 0x34C8 JUMP JUMPDEST CALLER PUSH1 0x0 SWAP1 DUP2 MSTORE PUSH1 0x2 PUSH1 0x20 MSTORE PUSH1 0x40 SWAP1 KECCAK256 SLOAD PUSH1 0x60 SWAP1 PUSH1 0xFF AND PUSH2 0xE94 JUMPI POP PUSH1 0x40 DUP1 MLOAD DUP1 DUP3 ADD SWAP1 SWAP2 MSTORE PUSH1 0xD DUP2 MSTORE PUSH13 0x1393D5149151D254D511549151 PUSH1 0x9A SHL PUSH1 0x20 DUP3 ADD MSTORE SWAP1 JUMP JUMPDEST PUSH1 0x1 SLOAD PUSH1 0x40 MLOAD PUSH4 0xD5A1AD61 PUSH1 0xE0 SHL DUP2 MSTORE CALLER PUSH1 0x4 DUP3 ADD MSTORE PUSH1 0x60 SWAP2 PUSH1 0x0 SWAP2 PUSH1 0x1 PUSH1 0x1 PUSH1 0xA0 SHL SUB SWAP1 SWAP2 AND SWAP1 PUSH4 0xD5A1AD61 SWAP1 PUSH1 0x24 ADD PUSH1 0x0 PUSH1 0x40 MLOAD DUP1 DUP4 SUB DUP2 DUP7 DUP1 EXTCODESIZE ISZERO DUP1 ISZERO PUSH2 0xEDD JUMPI PUSH1 0x0 DUP1 REVERT JUMPDEST POP GAS STATICCALL ISZERO DUP1 ISZERO PUSH2 0xEF1 JUMPI RETURNDATASIZE PUSH1 0x0 DUP1 RETURNDATACOPY RETURNDATASIZE PUSH1 0x0 REVERT JUMPDEST POP POP POP POP PUSH1 0x40 MLOAD RETURNDATASIZE PUSH1 0x0 DUP3 RETURNDATACOPY PUSH1 0x1F RETURNDATASIZE SWAP1 DUP2 ADD PUSH1 0x1F NOT AND DUP3 ADD PUSH1 0x40 MSTORE PUSH2 0xF19 SWAP2 SWAP1 DUP2 ADD SWAP1 PUSH2 0x39A9 JUMP JUMPDEST DUP1 MLOAD SWAP1 SWAP2 POP ISZERO PUSH2 0x12E1 JUMPI PUSH1 0x0 JUMPDEST DUP2 MLOAD DUP2 LT ISZERO PUSH2 0x12DF JUMPI PUSH1 0x0 DUP3 DUP3 DUP2 MLOAD DUP2 LT PUSH2 0xF43 JUMPI PUSH2 0xF43 PUSH2 0x44DE JUMP JUMPDEST PUSH1 0x20 SWAP1 DUP2 MUL SWAP2 SWAP1 SWAP2 ADD ADD MLOAD PUSH1 0x40 MLOAD PUSH4 0x5E57966D PUSH1 0xE0 SHL DUP2 MSTORE CALLER PUSH1 0x4 DUP3 ADD MSTORE SWAP1 SWAP2 POP PUSH1 0x0 SWAP1 PUSH20 0x0 SWAP1 PUSH4 0x5E57966D SWAP1 PUSH1 0x24 ADD PUSH1 0x0 PUSH1 0x40 MLOAD DUP1 DUP4 SUB DUP2 DUP7 DUP1 EXTCODESIZE ISZERO DUP1 ISZERO PUSH2 0xF9E JUMPI PUSH1 0x0 DUP1 REVERT JUMPDEST POP GAS DELEGATECALL ISZERO DUP1 ISZERO PUSH2 0xFB2 JUMPI RETURNDATASIZE PUSH1 0x0 DUP1 RETURNDATACOPY RETURNDATASIZE PUSH1 0x0 REVERT JUMPDEST POP POP POP POP PUSH1 0x40 MLOAD RETURNDATASIZE PUSH1 0x0 DUP3 RETURNDATACOPY PUSH1 0x1F RETURNDATASIZE SWAP1 DUP2 ADD PUSH1 0x1F NOT AND DUP3 ADD PUSH1 0x40 MSTORE PUSH2 0xFDA SWAP2 SWAP1 DUP2 ADD SWAP1 PUSH2 0x3C0E JUMP JUMPDEST PUSH1 0x1 SLOAD PUSH1 0x40 DUP1 MLOAD DUP1 DUP3 ADD DUP3 MSTORE PUSH1 0xA DUP2 MSTORE PUSH10 0x20A92124AA2920AA27A9 PUSH1 0xB1 SHL PUSH1 0x20 DUP3 ADD MSTORE SWAP1 MLOAD PUSH4 0x22AD378F PUSH1 0xE2 SHL DUP2 MSTORE SWAP3 SWAP4 POP PUSH1 0x0 SWAP3 PUSH1 0x1 PUSH1 0x1 PUSH1 0xA0 SHL SUB SWAP1 SWAP3 AND SWAP2 PUSH4 0x8AB4DE3C SWAP2 PUSH2 0x1030 SWAP2 DUP8 SWAP2 SWAP1 PUSH1 0x4 ADD PUSH2 0x3DF0 JUMP JUMPDEST PUSH1 0x0 PUSH1 0x40 MLOAD DUP1 DUP4 SUB DUP2 DUP7 DUP1 EXTCODESIZE ISZERO DUP1 ISZERO PUSH2 0x1048 JUMPI PUSH1 0x0 DUP1 REVERT JUMPDEST POP GAS STATICCALL ISZERO DUP1 ISZERO PUSH2 0x105C JUMPI RETURNDATASIZE PUSH1 0x0 DUP1 RETURNDATACOPY RETURNDATASIZE PUSH1 0x0 REVERT JUMPDEST POP POP POP POP PUSH1 0x40 MLOAD RETURNDATASIZE PUSH1 0x0 DUP3 RETURNDATACOPY PUSH1 0x1F RETURNDATASIZE SWAP1 DUP2 ADD PUSH1 0x1F NOT AND DUP3 ADD PUSH1 0x40 MSTORE PUSH2 0x1084 SWAP2 SWAP1 DUP2 ADD SWAP1 PUSH2 0x3C0E JUMP JUMPDEST PUSH1 0x40 MLOAD PUSH4 0x5F69A5DD PUSH1 0xE1 SHL DUP2 MSTORE SWAP1 SWAP2 POP PUSH20 0x0 SWAP1 PUSH4 0xBED34BBA SWAP1 PUSH2 0x10C0 SWAP1 DUP5 SWAP1 DUP7 SWAP1 PUSH1 0x4 ADD PUSH2 0x3EA5 JUMP JUMPDEST PUSH1 0x20 PUSH1 0x40 MLOAD DUP1 DUP4 SUB DUP2 DUP7 DUP1 EXTCODESIZE ISZERO DUP1 ISZERO PUSH2 0x10D8 JUMPI PUSH1 0x0 DUP1 REVERT JUMPDEST POP GAS DELEGATECALL ISZERO DUP1 ISZERO PUSH2 0x10EC JUMPI RETURNDATASIZE PUSH1 0x0 DUP1 RETURNDATACOPY RETURNDATASIZE PUSH1 0x0 REVERT JUMPDEST POP POP POP POP PUSH1 0x40 MLOAD RETURNDATASIZE PUSH1 0x1F NOT PUSH1 0x1F DUP3 ADD AND DUP3 ADD DUP1 PUSH1 0x40 MSTORE POP DUP2 ADD SWAP1 PUSH2 0x1110 SWAP2 SWAP1 PUSH2 0x3B4E JUMP JUMPDEST ISZERO PUSH2 0x12C9 JUMPI PUSH1 0x1 SLOAD PUSH1 0x40 MLOAD PUSH4 0x1BF4604F PUSH1 0xE1 SHL DUP2 MSTORE PUSH1 0x4 DUP2 ADD DUP6 SWAP1 MSTORE PUSH1 0x0 SWAP2 PUSH1 0x1 PUSH1 0x1 PUSH1 0xA0 SHL SUB AND SWAP1 PUSH4 0x37E8C09E SWAP1 PUSH1 0x24 ADD PUSH1 0x0 PUSH1 0x40 MLOAD DUP1 DUP4 SUB DUP2 DUP7 DUP1 EXTCODESIZE ISZERO DUP1 ISZERO PUSH2 0x115A JUMPI PUSH1 0x0 DUP1 REVERT JUMPDEST POP GAS STATICCALL ISZERO DUP1 ISZERO PUSH2 0x116E JUMPI RETURNDATASIZE PUSH1 0x0 DUP1 RETURNDATACOPY RETURNDATASIZE PUSH1 0x0 REVERT JUMPDEST POP POP POP POP PUSH1 0x40 MLOAD RETURNDATASIZE PUSH1 0x0 DUP3 RETURNDATACOPY PUSH1 0x1F RETURNDATASIZE SWAP1 DUP2 ADD PUSH1 0x1F NOT AND DUP3 ADD PUSH1 0x40 MSTORE PUSH2 0x1196 SWAP2 SWAP1 DUP2 ADD SWAP1 PUSH2 0x3C43 JUMP JUMPDEST SWAP1 POP PUSH20 0x0 PUSH4 0xDFBE0B1F DUP9 PUSH20 0x0 PUSH4 0x9201DE55 DUP9 PUSH1 0x40 MLOAD DUP3 PUSH4 0xFFFFFFFF AND PUSH1 0xE0 SHL DUP2 MSTORE PUSH1 0x4 ADD PUSH2 0x11EC SWAP2 DUP2 MSTORE PUSH1 0x20 ADD SWAP1 JUMP JUMPDEST PUSH1 0x0 PUSH1 0x40 MLOAD DUP1 DUP4 SUB DUP2 DUP7 DUP1 EXTCODESIZE ISZERO DUP1 ISZERO PUSH2 0x1204 JUMPI PUSH1 0x0 DUP1 REVERT JUMPDEST POP GAS DELEGATECALL ISZERO DUP1 ISZERO PUSH2 0x1218 JUMPI RETURNDATASIZE PUSH1 0x0 DUP1 RETURNDATACOPY RETURNDATASIZE PUSH1 0x0 REVERT JUMPDEST POP POP POP POP PUSH1 0x40 MLOAD RETURNDATASIZE PUSH1 0x0 DUP3 RETURNDATACOPY PUSH1 0x1F RETURNDATASIZE SWAP1 DUP2 ADD PUSH1 0x1F NOT AND DUP3 ADD PUSH1 0x40 MSTORE PUSH2 0x1240 SWAP2 SWAP1 DUP2 ADD SWAP1 PUSH2 0x3C0E JUMP JUMPDEST PUSH2 0x124D DUP6 PUSH1 0x80 ADD MLOAD PUSH2 0x304A JUMP JUMPDEST DUP6 PUSH1 0x60 ADD MLOAD PUSH1 0x40 MLOAD DUP6 PUSH4 0xFFFFFFFF AND PUSH1 0xE0 SHL DUP2 MSTORE PUSH1 0x4 ADD PUSH2 0x1271 SWAP5 SWAP4 SWAP3 SWAP2 SWAP1 PUSH2 0x3FDF JUMP JUMPDEST PUSH1 0x0 PUSH1 0x40 MLOAD DUP1 DUP4 SUB DUP2 DUP7 DUP1 EXTCODESIZE ISZERO DUP1 ISZERO PUSH2 0x1289 JUMPI PUSH1 0x0 DUP1 REVERT JUMPDEST POP GAS DELEGATECALL ISZERO DUP1 ISZERO PUSH2 0x129D JUMPI RETURNDATASIZE PUSH1 0x0 DUP1 RETURNDATACOPY RETURNDATASIZE PUSH1 0x0 REVERT JUMPDEST POP POP POP POP PUSH1 0x40 MLOAD RETURNDATASIZE PUSH1 0x0 DUP3 RETURNDATACOPY PUSH1 0x1F RETURNDATASIZE SWAP1 DUP2 ADD PUSH1 0x1F NOT AND DUP3 ADD PUSH1 0x40 MSTORE PUSH2 0x12C5 SWAP2 SWAP1 DUP2 ADD SWAP1 PUSH2 0x3C0E JUMP JUMPDEST SWAP7 POP POP JUMPDEST POP POP POP DUP1 DUP1 PUSH2 0x12D7 SWAP1 PUSH2 0x4463 JUMP JUMPDEST SWAP2 POP POP PUSH2 0xF26 JUMP JUMPDEST POP JUMPDEST CALLER PUSH1 0x0 SWAP1 DUP2 MSTORE PUSH1 0x2 PUSH1 0x20 MSTORE PUSH1 0x40 DUP1 DUP3 KECCAK256 SLOAD PUSH1 0x1 SLOAD SWAP2 MLOAD PUSH4 0x616E229D PUSH1 0xE1 SHL DUP2 MSTORE PUSH2 0x100 SWAP1 SWAP2 DIV PUSH4 0xFFFFFFFF AND PUSH1 0x4 DUP3 ADD DUP2 SWAP1 MSTORE SWAP3 SWAP2 PUSH1 0x1 PUSH1 0x1 PUSH1 0xA0 SHL SUB AND SWAP1 PUSH4 0xC2DC453A SWAP1 PUSH1 0x24 ADD PUSH1 0x20 PUSH1 0x40 MLOAD DUP1 DUP4 SUB DUP2 DUP7 DUP1 EXTCODESIZE ISZERO DUP1 ISZERO PUSH2 0x1341 JUMPI PUSH1 0x0 DUP1 REVERT JUMPDEST POP GAS STATICCALL ISZERO DUP1 ISZERO PUSH2 0x1355 JUMPI RETURNDATASIZE PUSH1 0x0 DUP1 RETURNDATACOPY RETURNDATASIZE PUSH1 0x0 REVERT JUMPDEST POP POP POP POP PUSH1 0x40 MLOAD RETURNDATASIZE PUSH1 0x1F NOT PUSH1 0x1F DUP3 ADD AND DUP3 ADD DUP1 PUSH1 0x40 MSTORE POP DUP2 ADD SWAP1 PUSH2 0x1379 SWAP2 SWAP1 PUSH2 0x3B70 JUMP JUMPDEST PUSH1 0x1 SLOAD PUSH1 0x40 MLOAD PUSH4 0x1740A321 PUSH1 0xE1 SHL DUP2 MSTORE PUSH1 0x4 DUP2 ADD DUP4 SWAP1 MSTORE SWAP2 SWAP3 POP PUSH1 0x0 SWAP2 PUSH1 0x1 PUSH1 0x1 PUSH1 0xA0 SHL SUB SWAP1 SWAP2 AND SWAP1 PUSH4 0x2E814642 SWAP1 PUSH1 0x24 ADD PUSH1 0x20 PUSH1 0x40 MLOAD DUP1 DUP4 SUB DUP2 DUP7 DUP1 EXTCODESIZE ISZERO DUP1 ISZERO PUSH2 0x13C3 JUMPI PUSH1 0x0 DUP1 REVERT JUMPDEST POP GAS STATICCALL ISZERO DUP1 ISZERO PUSH2 0x13D7 JUMPI RETURNDATASIZE PUSH1 0x0 DUP1 RETURNDATACOPY RETURNDATASIZE PUSH1 0x0 REVERT JUMPDEST POP POP POP POP PUSH1 0x40 MLOAD RETURNDATASIZE PUSH1 0x1F NOT PUSH1 0x1F DUP3 ADD AND DUP3 ADD DUP1 PUSH1 0x40 MSTORE POP DUP2 ADD SWAP1 PUSH2 0x13FB SWAP2 SWAP1 PUSH2 0x3B70 JUMP JUMPDEST SWAP1 POP PUSH1 0x0 JUMPDEST DUP2 DUP2 LT ISZERO PUSH2 0x1658 JUMPI PUSH1 0x1 SLOAD PUSH1 0x40 MLOAD PUSH4 0xF3C55A91 PUSH1 0xE0 SHL DUP2 MSTORE PUSH1 0x4 DUP2 ADD DUP6 SWAP1 MSTORE PUSH1 0x24 DUP2 ADD DUP4 SWAP1 MSTORE PUSH1 0x0 SWAP2 PUSH1 0x1 PUSH1 0x1 PUSH1 0xA0 SHL SUB AND SWAP1 PUSH4 0xF3C55A91 SWAP1 PUSH1 0x44 ADD PUSH1 0x20 PUSH1 0x40 MLOAD DUP1 DUP4 SUB DUP2 DUP7 DUP1 EXTCODESIZE ISZERO DUP1 ISZERO PUSH2 0x1454 JUMPI PUSH1 0x0 DUP1 REVERT JUMPDEST POP GAS STATICCALL ISZERO DUP1 ISZERO PUSH2 0x1468 JUMPI RETURNDATASIZE PUSH1 0x0 DUP1 RETURNDATACOPY RETURNDATASIZE PUSH1 0x0 REVERT JUMPDEST POP POP POP POP PUSH1 0x40 MLOAD RETURNDATASIZE PUSH1 0x1F NOT PUSH1 0x1F DUP3 ADD AND DUP3 ADD DUP1 PUSH1 0x40 MSTORE POP DUP2 ADD SWAP1 PUSH2 0x148C SWAP2 SWAP1 PUSH2 0x3B70 JUMP JUMPDEST PUSH1 0x1 SLOAD PUSH1 0x40 MLOAD PUSH4 0x1BF4604F PUSH1 0xE1 SHL DUP2 MSTORE PUSH1 0x4 DUP2 ADD DUP4 SWAP1 MSTORE SWAP2 SWAP3 POP PUSH1 0x0 SWAP2 PUSH1 0x1 PUSH1 0x1 PUSH1 0xA0 SHL SUB SWAP1 SWAP2 AND SWAP1 PUSH4 0x37E8C09E SWAP1 PUSH1 0x24 ADD PUSH1 0x0 PUSH1 0x40 MLOAD DUP1 DUP4 SUB DUP2 DUP7 DUP1 EXTCODESIZE ISZERO DUP1 ISZERO PUSH2 0x14D6 JUMPI PUSH1 0x0 DUP1 REVERT JUMPDEST POP GAS STATICCALL ISZERO DUP1 ISZERO PUSH2 0x14EA JUMPI RETURNDATASIZE PUSH1 0x0 DUP1 RETURNDATACOPY RETURNDATASIZE PUSH1 0x0 REVERT JUMPDEST POP POP POP POP PUSH1 0x40 MLOAD RETURNDATASIZE PUSH1 0x0 DUP3 RETURNDATACOPY PUSH1 0x1F RETURNDATASIZE SWAP1 DUP2 ADD PUSH1 0x1F NOT AND DUP3 ADD PUSH1 0x40 MSTORE PUSH2 0x1512 SWAP2 SWAP1 DUP2 ADD SWAP1 PUSH2 0x3C43 JUMP JUMPDEST SWAP1 POP PUSH20 0x0 PUSH4 0xDFBE0B1F DUP10 PUSH20 0x0 PUSH4 0x9201DE55 DUP7 PUSH1 0x40 MLOAD DUP3 PUSH4 0xFFFFFFFF AND PUSH1 0xE0 SHL DUP2 MSTORE PUSH1 0x4 ADD PUSH2 0x1568 SWAP2 DUP2 MSTORE PUSH1 0x20 ADD SWAP1 JUMP JUMPDEST PUSH1 0x0 PUSH1 0x40 MLOAD DUP1 DUP4 SUB DUP2 DUP7 DUP1 EXTCODESIZE ISZERO DUP1 ISZERO PUSH2 0x1580 JUMPI PUSH1 0x0 DUP1 REVERT JUMPDEST POP GAS DELEGATECALL ISZERO DUP1 ISZERO PUSH2 0x1594 JUMPI RETURNDATASIZE PUSH1 0x0 DUP1 RETURNDATACOPY RETURNDATASIZE PUSH1 0x0 REVERT JUMPDEST POP POP POP POP PUSH1 0x40 MLOAD RETURNDATASIZE PUSH1 0x0 DUP3 RETURNDATACOPY PUSH1 0x1F RETURNDATASIZE SWAP1 DUP2 ADD PUSH1 0x1F NOT AND DUP3 ADD PUSH1 0x40 MSTORE PUSH2 0x15BC SWAP2 SWAP1 DUP2 ADD SWAP1 PUSH2 0x3C0E JUMP JUMPDEST PUSH2 0x15C9 DUP6 PUSH1 0x80 ADD MLOAD PUSH2 0x304A JUMP JUMPDEST DUP6 PUSH1 0x60 ADD MLOAD PUSH1 0x40 MLOAD DUP6 PUSH4 0xFFFFFFFF AND PUSH1 0xE0 SHL DUP2 MSTORE PUSH1 0x4 ADD PUSH2 0x15ED SWAP5 SWAP4 SWAP3 SWAP2 SWAP1 PUSH2 0x3F0C JUMP JUMPDEST PUSH1 0x0 PUSH1 0x40 MLOAD DUP1 DUP4 SUB DUP2 DUP7 DUP1 EXTCODESIZE ISZERO DUP1 ISZERO PUSH2 0x1605 JUMPI PUSH1 0x0 DUP1 REVERT JUMPDEST POP GAS DELEGATECALL ISZERO DUP1 ISZERO PUSH2 0x1619 JUMPI RETURNDATASIZE PUSH1 0x0 DUP1 RETURNDATACOPY RETURNDATASIZE PUSH1 0x0 REVERT JUMPDEST POP POP POP POP PUSH1 0x40 MLOAD RETURNDATASIZE PUSH1 0x0 DUP3 RETURNDATACOPY PUSH1 0x1F RETURNDATASIZE SWAP1 DUP2 ADD PUSH1 0x1F NOT AND DUP3 ADD PUSH1 0x40 MSTORE PUSH2 0x1641 SWAP2 SWAP1 DUP2 ADD SWAP1 PUSH2 0x3C0E JUMP JUMPDEST SWAP8 POP POP POP DUP1 DUP1 PUSH2 0x1650 SWAP1 PUSH2 0x4463 JUMP JUMPDEST SWAP2 POP POP PUSH2 0x1400 JUMP JUMPDEST POP SWAP4 SWAP6 SWAP5 POP POP POP POP POP JUMP JUMPDEST CALLER PUSH1 0x0 SWAP1 DUP2 MSTORE PUSH1 0x2 PUSH1 0x20 MSTORE PUSH1 0x40 SWAP1 KECCAK256 SLOAD PUSH1 0xFF AND PUSH2 0x181B JUMPI PUSH1 0x0 PUSH2 0x170B CALLER PUSH1 0x1 PUSH1 0x0 SWAP1 SLOAD SWAP1 PUSH2 0x100 EXP SWAP1 DIV PUSH1 0x1 PUSH1 0x1 PUSH1 0xA0 SHL SUB AND PUSH1 0x1 PUSH1 0x1 PUSH1 0xA0 SHL SUB AND PUSH4 0x27C4758B PUSH1 0x40 MLOAD DUP2 PUSH4 0xFFFFFFFF AND PUSH1 0xE0 SHL DUP2 MSTORE PUSH1 0x4 ADD PUSH1 0x20 PUSH1 0x40 MLOAD DUP1 DUP4 SUB DUP2 DUP7 DUP1 EXTCODESIZE ISZERO DUP1 ISZERO PUSH2 0x16CE JUMPI PUSH1 0x0 DUP1 REVERT JUMPDEST POP GAS STATICCALL ISZERO DUP1 ISZERO PUSH2 0x16E2 JUMPI RETURNDATASIZE PUSH1 0x0 DUP1 RETURNDATACOPY RETURNDATASIZE PUSH1 0x0 REVERT JUMPDEST POP POP POP POP PUSH1 0x40 MLOAD RETURNDATASIZE PUSH1 0x1F NOT PUSH1 0x1F DUP3 ADD AND DUP3 ADD DUP1 PUSH1 0x40 MSTORE POP DUP2 ADD SWAP1 PUSH2 0x1706 SWAP2 SWAP1 PUSH2 0x3D32 JUMP JUMPDEST PUSH2 0x3550 JUMP JUMPDEST CALLER PUSH1 0x0 SWAP1 DUP2 MSTORE PUSH1 0x2 PUSH1 0x20 SWAP1 DUP2 MSTORE PUSH1 0x40 SWAP2 DUP3 SWAP1 KECCAK256 DUP1 SLOAD PUSH1 0x1 PUSH5 0xFFFFFFFFFF NOT SWAP1 SWAP2 AND PUSH2 0x100 PUSH4 0xFFFFFFFF DUP8 AND MUL PUSH1 0xFF NOT AND OR DUP2 OR SWAP1 SWAP2 SSTORE SLOAD DUP3 MLOAD PUSH4 0xF4C47B17 PUSH1 0xE0 SHL DUP2 MSTORE SWAP3 MLOAD SWAP4 SWAP5 POP PUSH1 0x1 PUSH1 0x1 PUSH1 0xA0 SHL SUB AND SWAP3 PUSH4 0x22A6EFD7 SWAP3 DUP5 SWAP3 PUSH4 0xF4C47B17 SWAP3 PUSH1 0x4 DUP1 DUP5 ADD SWAP4 DUP3 SWAP1 SUB ADD DUP2 DUP7 DUP1 EXTCODESIZE ISZERO DUP1 ISZERO PUSH2 0x1785 JUMPI PUSH1 0x0 DUP1 REVERT JUMPDEST POP GAS STATICCALL ISZERO DUP1 ISZERO PUSH2 0x1799 JUMPI RETURNDATASIZE PUSH1 0x0 DUP1 RETURNDATACOPY RETURNDATASIZE PUSH1 0x0 REVERT JUMPDEST POP POP POP POP PUSH1 0x40 MLOAD RETURNDATASIZE PUSH1 0x1F NOT PUSH1 0x1F DUP3 ADD AND DUP3 ADD DUP1 PUSH1 0x40 MSTORE POP DUP2 ADD SWAP1 PUSH2 0x17BD SWAP2 SWAP1 PUSH2 0x3B70 JUMP JUMPDEST PUSH2 0x17C8 SWAP1 PUSH1 0x1 PUSH2 0x4338 JUMP JUMPDEST PUSH1 0x40 MLOAD DUP3 PUSH4 0xFFFFFFFF AND PUSH1 0xE0 SHL DUP2 MSTORE PUSH1 0x4 ADD PUSH2 0x17E6 SWAP2 DUP2 MSTORE PUSH1 0x20 ADD SWAP1 JUMP JUMPDEST PUSH1 0x0 PUSH1 0x40 MLOAD DUP1 DUP4 SUB DUP2 PUSH1 0x0 DUP8 DUP1 EXTCODESIZE ISZERO DUP1 ISZERO PUSH2 0x1800 JUMPI PUSH1 0x0 DUP1 REVERT JUMPDEST POP GAS CALL ISZERO DUP1 ISZERO PUSH2 0x1814 JUMPI RETURNDATASIZE PUSH1 0x0 DUP1 RETURNDATACOPY RETURNDATASIZE PUSH1 0x0 REVERT JUMPDEST POP POP POP POP POP JUMP JUMPDEST PUSH1 0x1 DUP1 PUSH1 0x0 SWAP1 SLOAD SWAP1 PUSH2 0x100 EXP SWAP1 DIV PUSH1 0x1 PUSH1 0x1 PUSH1 0xA0 SHL SUB AND PUSH1 0x1 PUSH1 0x1 PUSH1 0xA0 SHL SUB AND PUSH4 0x27C4758B PUSH1 0x40 MLOAD DUP2 PUSH4 0xFFFFFFFF AND PUSH1 0xE0 SHL DUP2 MSTORE PUSH1 0x4 ADD PUSH1 0x20 PUSH1 0x40 MLOAD DUP1 DUP4 SUB DUP2 DUP7 DUP1 EXTCODESIZE ISZERO DUP1 ISZERO PUSH2 0x186A JUMPI PUSH1 0x0 DUP1 REVERT JUMPDEST POP GAS STATICCALL ISZERO DUP1 ISZERO PUSH2 0x187E JUMPI RETURNDATASIZE PUSH1 0x0 DUP1 RETURNDATACOPY RETURNDATASIZE PUSH1 0x0 REVERT JUMPDEST POP POP POP POP PUSH1 0x40 MLOAD RETURNDATASIZE PUSH1 0x1F NOT PUSH1 0x1F DUP3 ADD AND DUP3 ADD DUP1 PUSH1 0x40 MSTORE POP DUP2 ADD SWAP1 PUSH2 0x18A2 SWAP2 SWAP1 PUSH2 0x3D32 JUMP JUMPDEST PUSH2 0x18AC SWAP2 SWAP1 PUSH2 0x4416 JUMP JUMPDEST CALLER PUSH1 0x0 SWAP1 DUP2 MSTORE PUSH1 0x2 PUSH1 0x20 MSTORE PUSH1 0x40 SWAP1 KECCAK256 SLOAD PUSH4 0xFFFFFFFF SWAP2 DUP3 AND PUSH2 0x100 SWAP1 SWAP2 DIV SWAP1 SWAP2 AND GT ISZERO PUSH2 0xDEA JUMPI PUSH1 0x0 PUSH2 0x1927 CALLER PUSH1 0x1 PUSH1 0x0 SWAP1 SLOAD SWAP1 PUSH2 0x100 EXP SWAP1 DIV PUSH1 0x1 PUSH1 0x1 PUSH1 0xA0 SHL SUB AND PUSH1 0x1 PUSH1 0x1 PUSH1 0xA0 SHL SUB AND PUSH4 0x27C4758B PUSH1 0x40 MLOAD DUP2 PUSH4 0xFFFFFFFF AND PUSH1 0xE0 SHL DUP2 MSTORE PUSH1 0x4 ADD PUSH1 0x20 PUSH1 0x40 MLOAD DUP1 DUP4 SUB DUP2 DUP7 DUP1 EXTCODESIZE ISZERO DUP1 ISZERO PUSH2 0x16CE JUMPI PUSH1 0x0 DUP1 REVERT JUMPDEST CALLER PUSH1 0x0 SWAP1 DUP2 MSTORE PUSH1 0x2 PUSH1 0x20 MSTORE PUSH1 0x40 SWAP1 KECCAK256 DUP1 SLOAD PUSH4 0xFFFFFFFF SWAP1 SWAP3 AND PUSH2 0x100 MUL PUSH5 0xFFFFFFFF00 NOT SWAP1 SWAP3 AND SWAP2 SWAP1 SWAP2 OR SWAP1 SSTORE POP JUMP JUMPDEST PUSH1 0x0 SLOAD PUSH1 0x1 PUSH1 0x1 PUSH1 0xA0 SHL SUB AND CALLER EQ PUSH2 0x1981 JUMPI PUSH1 0x40 MLOAD PUSH3 0x461BCD PUSH1 0xE5 SHL DUP2 MSTORE PUSH1 0x4 ADD PUSH2 0x192 SWAP1 PUSH2 0x4153 JUMP JUMPDEST PUSH1 0x1 PUSH1 0x1 PUSH1 0xA0 SHL SUB DUP2 AND PUSH2 0x19E6 JUMPI PUSH1 0x40 MLOAD PUSH3 0x461BCD PUSH1 0xE5 SHL DUP2 MSTORE PUSH1 0x20 PUSH1 0x4 DUP3 ADD MSTORE PUSH1 0x26 PUSH1 0x24 DUP3 ADD MSTORE PUSH32 0x4F776E61626C653A206E6577206F776E657220697320746865207A65726F2061 PUSH1 0x44 DUP3 ADD MSTORE PUSH6 0x646472657373 PUSH1 0xD0 SHL PUSH1 0x64 DUP3 ADD MSTORE PUSH1 0x84 ADD PUSH2 0x192 JUMP JUMPDEST PUSH2 0x19EF DUP2 PUSH2 0x3478 JUMP JUMPDEST POP JUMP JUMPDEST PUSH1 0x1 SLOAD PUSH1 0x40 MLOAD PUSH4 0x1BF4604F PUSH1 0xE1 SHL DUP2 MSTORE PUSH1 0x4 DUP2 ADD DUP5 SWAP1 MSTORE PUSH1 0x0 SWAP2 PUSH1 0x1 PUSH1 0x1 PUSH1 0xA0 SHL SUB AND SWAP1 PUSH4 0x37E8C09E SWAP1 PUSH1 0x24 ADD PUSH1 0x0 PUSH1 0x40 MLOAD DUP1 DUP4 SUB DUP2 DUP7 DUP1 EXTCODESIZE ISZERO DUP1 ISZERO PUSH2 0x1A37 JUMPI PUSH1 0x0 DUP1 REVERT JUMPDEST POP GAS STATICCALL ISZERO DUP1 ISZERO PUSH2 0x1A4B JUMPI RETURNDATASIZE PUSH1 0x0 DUP1 RETURNDATACOPY RETURNDATASIZE PUSH1 0x0 REVERT JUMPDEST POP POP POP POP PUSH1 0x40 MLOAD RETURNDATASIZE PUSH1 0x0 DUP3 RETURNDATACOPY PUSH1 0x1F RETURNDATASIZE SWAP1 DUP2 ADD PUSH1 0x1F NOT AND DUP3 ADD PUSH1 0x40 MSTORE PUSH2 0x1A73 SWAP2 SWAP1 DUP2 ADD SWAP1 PUSH2 0x3C43 JUMP JUMPDEST SWAP1 POP PUSH1 0x1 DUP2 PUSH1 0xC0 ADD MLOAD PUSH1 0xFF AND EQ ISZERO PUSH2 0x218D JUMPI PUSH1 0x1 SLOAD PUSH1 0x40 MLOAD PUSH4 0xEF01E53 PUSH1 0xE2 SHL DUP2 MSTORE PUSH1 0x4 DUP2 ADD DUP6 SWAP1 MSTORE PUSH1 0x0 SWAP2 PUSH1 0x1 PUSH1 0x1 PUSH1 0xA0 SHL SUB AND SWAP1 PUSH4 0x3BC0794C SWAP1 PUSH1 0x24 ADD PUSH1 0x20 PUSH1 0x40 MLOAD DUP1 DUP4 SUB DUP2 DUP7 DUP1 EXTCODESIZE ISZERO DUP1 ISZERO PUSH2 0x1ACA JUMPI PUSH1 0x0 DUP1 REVERT JUMPDEST POP GAS STATICCALL ISZERO DUP1 ISZERO PUSH2 0x1ADE JUMPI RETURNDATASIZE PUSH1 0x0 DUP1 RETURNDATACOPY RETURNDATASIZE PUSH1 0x0 REVERT JUMPDEST POP POP POP POP PUSH1 0x40 MLOAD RETURNDATASIZE PUSH1 0x1F NOT PUSH1 0x1F DUP3 ADD AND DUP3 ADD DUP1 PUSH1 0x40 MSTORE POP DUP2 ADD SWAP1 PUSH2 0x1B02 SWAP2 SWAP1 PUSH2 0x3B70 JUMP JUMPDEST PUSH1 0x1 SLOAD PUSH1 0x40 MLOAD PUSH4 0xCC0FDAF PUSH1 0xE2 SHL DUP2 MSTORE PUSH1 0x4 DUP2 ADD DUP8 SWAP1 MSTORE SWAP2 SWAP3 POP PUSH1 0x0 SWAP2 PUSH1 0x1 PUSH1 0x1 PUSH1 0xA0 SHL SUB SWAP1 SWAP2 AND SWAP1 PUSH4 0x3303F6BC SWAP1 PUSH1 0x24 ADD PUSH1 0x0 PUSH1 0x40 MLOAD DUP1 DUP4 SUB DUP2 DUP7 DUP1 EXTCODESIZE ISZERO DUP1 ISZERO PUSH2 0x1B4C JUMPI PUSH1 0x0 DUP1 REVERT JUMPDEST POP GAS STATICCALL ISZERO DUP1 ISZERO PUSH2 0x1B60 JUMPI RETURNDATASIZE PUSH1 0x0 DUP1 RETURNDATACOPY RETURNDATASIZE PUSH1 0x0 REVERT JUMPDEST POP POP POP POP PUSH1 0x40 MLOAD RETURNDATASIZE PUSH1 0x0 DUP3 RETURNDATACOPY PUSH1 0x1F RETURNDATASIZE SWAP1 DUP2 ADD PUSH1 0x1F NOT AND DUP3 ADD PUSH1 0x40 MSTORE PUSH2 0x1B88 SWAP2 SWAP1 DUP2 ADD SWAP1 PUSH2 0x3A41 JUMP JUMPDEST PUSH1 0x1 SLOAD PUSH1 0x40 DUP1 MLOAD DUP1 DUP3 ADD DUP3 MSTORE PUSH1 0x14 DUP2 MSTORE PUSH20 0x20A92124AA2920AA27A921A7A6A6A4A9A9A4A7A7 PUSH1 0x61 SHL PUSH1 0x20 DUP3 ADD MSTORE SWAP1 MLOAD PUSH4 0x22AD378F PUSH1 0xE2 SHL DUP2 MSTORE SWAP3 SWAP4 POP PUSH1 0x0 SWAP3 PUSH20 0x0 SWAP3 PUSH4 0x1BD95155 SWAP3 PUSH1 0x1 PUSH1 0x1 PUSH1 0xA0 SHL SUB SWAP1 SWAP2 AND SWAP2 PUSH4 0x8AB4DE3C SWAP2 PUSH2 0x1C04 SWAP2 DUP13 SWAP2 SWAP1 PUSH1 0x4 ADD PUSH2 0x3DF0 JUMP JUMPDEST PUSH1 0x0 PUSH1 0x40 MLOAD DUP1 DUP4 SUB DUP2 DUP7 DUP1 EXTCODESIZE ISZERO DUP1 ISZERO PUSH2 0x1C1C JUMPI PUSH1 0x0 DUP1 REVERT JUMPDEST POP GAS STATICCALL ISZERO DUP1 ISZERO PUSH2 0x1C30 JUMPI RETURNDATASIZE PUSH1 0x0 DUP1 RETURNDATACOPY RETURNDATASIZE PUSH1 0x0 REVERT JUMPDEST POP POP POP POP PUSH1 0x40 MLOAD RETURNDATASIZE PUSH1 0x0 DUP3 RETURNDATACOPY PUSH1 0x1F RETURNDATASIZE SWAP1 DUP2 ADD PUSH1 0x1F NOT AND DUP3 ADD PUSH1 0x40 MSTORE PUSH2 0x1C58 SWAP2 SWAP1 DUP2 ADD SWAP1 PUSH2 0x3C0E JUMP JUMPDEST PUSH1 0x40 MLOAD DUP3 PUSH4 0xFFFFFFFF AND PUSH1 0xE0 SHL DUP2 MSTORE PUSH1 0x4 ADD PUSH2 0x1C74 SWAP2 SWAP1 PUSH2 0x3E92 JUMP JUMPDEST PUSH1 0x20 PUSH1 0x40 MLOAD DUP1 DUP4 SUB DUP2 DUP7 DUP1 EXTCODESIZE ISZERO DUP1 ISZERO PUSH2 0x1C8C JUMPI PUSH1 0x0 DUP1 REVERT JUMPDEST POP GAS DELEGATECALL ISZERO DUP1 ISZERO PUSH2 0x1CA0 JUMPI RETURNDATASIZE PUSH1 0x0 DUP1 RETURNDATACOPY RETURNDATASIZE PUSH1 0x0 REVERT JUMPDEST POP POP POP POP PUSH1 0x40 MLOAD RETURNDATASIZE PUSH1 0x1F NOT PUSH1 0x1F DUP3 ADD AND DUP3 ADD DUP1 PUSH1 0x40 MSTORE POP DUP2 ADD SWAP1 PUSH2 0x1CC4 SWAP2 SWAP1 PUSH2 0x3B70 JUMP JUMPDEST SWAP1 POP PUSH1 0x0 JUMPDEST DUP4 DUP2 LT ISZERO PUSH2 0x1FFF JUMPI PUSH20 0x0 PUSH4 0xBED34BBA DUP5 DUP4 DUP2 MLOAD DUP2 LT PUSH2 0x1CFD JUMPI PUSH2 0x1CFD PUSH2 0x44DE JUMP JUMPDEST PUSH1 0x20 MUL PUSH1 0x20 ADD ADD MLOAD PUSH1 0x40 ADD MLOAD DUP9 PUSH1 0x40 MLOAD DUP4 PUSH4 0xFFFFFFFF AND PUSH1 0xE0 SHL DUP2 MSTORE PUSH1 0x4 ADD PUSH2 0x1D27 SWAP3 SWAP2 SWAP1 PUSH2 0x3EA5 JUMP JUMPDEST PUSH1 0x20 PUSH1 0x40 MLOAD DUP1 DUP4 SUB DUP2 DUP7 DUP1 EXTCODESIZE ISZERO DUP1 ISZERO PUSH2 0x1D3F JUMPI PUSH1 0x0 DUP1 REVERT JUMPDEST POP GAS DELEGATECALL ISZERO DUP1 ISZERO PUSH2 0x1D53 JUMPI RETURNDATASIZE PUSH1 0x0 DUP1 RETURNDATACOPY RETURNDATASIZE PUSH1 0x0 REVERT JUMPDEST POP POP POP POP PUSH1 0x40 MLOAD RETURNDATASIZE PUSH1 0x1F NOT PUSH1 0x1F DUP3 ADD AND DUP3 ADD DUP1 PUSH1 0x40 MSTORE POP DUP2 ADD SWAP1 PUSH2 0x1D77 SWAP2 SWAP1 PUSH2 0x3B4E JUMP JUMPDEST ISZERO PUSH2 0x1FED JUMPI PUSH1 0x0 PUSH2 0x1DB2 PUSH3 0x186A0 PUSH2 0xAB8 PUSH1 0x64 PUSH2 0xAB8 PUSH1 0x64 PUSH2 0xAB8 PUSH1 0x20 PUSH2 0x1DAC DUP12 DUP16 PUSH2 0x100 ADD MLOAD PUSH2 0x3173 SWAP1 SWAP2 SWAP1 PUSH4 0xFFFFFFFF AND JUMP JUMPDEST SWAP1 PUSH2 0x3173 JUMP JUMPDEST PUSH1 0x1 SLOAD DUP6 MLOAD SWAP2 SWAP3 POP PUSH1 0x1 PUSH1 0x1 PUSH1 0xA0 SHL SUB AND SWAP1 PUSH4 0x21670F22 SWAP1 DUP7 SWAP1 DUP6 SWAP1 DUP2 LT PUSH2 0x1DDC JUMPI PUSH2 0x1DDC PUSH2 0x44DE JUMP JUMPDEST PUSH1 0x20 MUL PUSH1 0x20 ADD ADD MLOAD PUSH1 0x20 ADD MLOAD DUP7 DUP6 DUP2 MLOAD DUP2 LT PUSH2 0x1DFA JUMPI PUSH2 0x1DFA PUSH2 0x44DE JUMP JUMPDEST PUSH1 0x20 MUL PUSH1 0x20 ADD ADD MLOAD PUSH1 0x60 ADD MLOAD PUSH1 0x40 MLOAD DUP4 PUSH4 0xFFFFFFFF AND PUSH1 0xE0 SHL DUP2 MSTORE PUSH1 0x4 ADD PUSH2 0x1E23 SWAP3 SWAP2 SWAP1 PUSH2 0x3DD7 JUMP JUMPDEST PUSH1 0x20 PUSH1 0x40 MLOAD DUP1 DUP4 SUB DUP2 PUSH1 0x0 DUP8 DUP1 EXTCODESIZE ISZERO DUP1 ISZERO PUSH2 0x1E3D JUMPI PUSH1 0x0 DUP1 REVERT JUMPDEST POP GAS CALL ISZERO DUP1 ISZERO PUSH2 0x1E51 JUMPI RETURNDATASIZE PUSH1 0x0 DUP1 RETURNDATACOPY RETURNDATASIZE PUSH1 0x0 REVERT JUMPDEST POP POP POP POP PUSH1 0x40 MLOAD RETURNDATASIZE PUSH1 0x1F NOT PUSH1 0x1F DUP3 ADD AND DUP3 ADD DUP1 PUSH1 0x40 MSTORE POP DUP2 ADD SWAP1 PUSH2 0x1E75 SWAP2 SWAP1 PUSH2 0x3B4E JUMP JUMPDEST POP PUSH2 0x1E7E PUSH2 0x3604 JUMP JUMPDEST ISZERO PUSH2 0x1F44 JUMPI PUSH1 0x1 SLOAD DUP5 MLOAD PUSH1 0x1 PUSH1 0x1 PUSH1 0xA0 SHL SUB SWAP1 SWAP2 AND SWAP1 PUSH4 0x283760FA SWAP1 DUP7 SWAP1 DUP6 SWAP1 DUP2 LT PUSH2 0x1EAC JUMPI PUSH2 0x1EAC PUSH2 0x44DE JUMP JUMPDEST PUSH1 0x20 MUL PUSH1 0x20 ADD ADD MLOAD PUSH1 0x20 ADD MLOAD DUP4 PUSH1 0x40 MLOAD DUP4 PUSH4 0xFFFFFFFF AND PUSH1 0xE0 SHL DUP2 MSTORE PUSH1 0x4 ADD PUSH2 0x1ED6 SWAP3 SWAP2 SWAP1 PUSH2 0x3DD7 JUMP JUMPDEST PUSH1 0x20 PUSH1 0x40 MLOAD DUP1 DUP4 SUB DUP2 PUSH1 0x0 DUP8 DUP1 EXTCODESIZE ISZERO DUP1 ISZERO PUSH2 0x1EF0 JUMPI PUSH1 0x0 DUP1 REVERT JUMPDEST POP GAS CALL ISZERO DUP1 ISZERO PUSH2 0x1F04 JUMPI RETURNDATASIZE PUSH1 0x0 DUP1 RETURNDATACOPY RETURNDATASIZE PUSH1 0x0 REVERT JUMPDEST POP POP POP POP PUSH1 0x40 MLOAD RETURNDATASIZE PUSH1 0x1F NOT PUSH1 0x1F DUP3 ADD AND DUP3 ADD DUP1 PUSH1 0x40 MSTORE POP DUP2 ADD SWAP1 PUSH2 0x1F28 SWAP2 SWAP1 PUSH2 0x3B4E JUMP JUMPDEST POP PUSH2 0x120 DUP7 ADD MLOAD PUSH2 0x1F39 SWAP1 DUP3 PUSH2 0x370E JUMP JUMPDEST PUSH2 0x120 DUP8 ADD MSTORE PUSH2 0x1FEB JUMP JUMPDEST PUSH1 0x1 SLOAD DUP5 MLOAD PUSH1 0x1 PUSH1 0x1 PUSH1 0xA0 SHL SUB SWAP1 SWAP2 AND SWAP1 PUSH4 0x21670F22 SWAP1 DUP7 SWAP1 DUP6 SWAP1 DUP2 LT PUSH2 0x1F6D JUMPI PUSH2 0x1F6D PUSH2 0x44DE JUMP JUMPDEST PUSH1 0x20 MUL PUSH1 0x20 ADD ADD MLOAD PUSH1 0x20 ADD MLOAD DUP4 PUSH1 0x40 MLOAD DUP4 PUSH4 0xFFFFFFFF AND PUSH1 0xE0 SHL DUP2 MSTORE PUSH1 0x4 ADD PUSH2 0x1F97 SWAP3 SWAP2 SWAP1 PUSH2 0x3DD7 JUMP JUMPDEST PUSH1 0x20 PUSH1 0x40 MLOAD DUP1 DUP4 SUB DUP2 PUSH1 0x0 DUP8 DUP1 EXTCODESIZE ISZERO DUP1 ISZERO PUSH2 0x1FB1 JUMPI PUSH1 0x0 DUP1 REVERT JUMPDEST POP GAS CALL ISZERO DUP1 ISZERO PUSH2 0x1FC5 JUMPI RETURNDATASIZE PUSH1 0x0 DUP1 RETURNDATACOPY RETURNDATASIZE PUSH1 0x0 REVERT JUMPDEST POP POP POP POP PUSH1 0x40 MLOAD RETURNDATASIZE PUSH1 0x1F NOT PUSH1 0x1F DUP3 ADD AND DUP3 ADD DUP1 PUSH1 0x40 MSTORE POP DUP2 ADD SWAP1 PUSH2 0x1FE9 SWAP2 SWAP1 PUSH2 0x3B4E JUMP JUMPDEST POP JUMPDEST POP JUMPDEST DUP1 PUSH2 0x1FF7 DUP2 PUSH2 0x4463 JUMP JUMPDEST SWAP2 POP POP PUSH2 0x1CC9 JUMP JUMPDEST POP PUSH1 0x0 PUSH2 0x2031 PUSH3 0x186A0 PUSH2 0xAB8 PUSH1 0x64 PUSH2 0xAB8 PUSH2 0x3E8 PUSH2 0xAB8 PUSH1 0x23 PUSH2 0x1DAC DUP11 DUP15 PUSH2 0x100 ADD MLOAD PUSH2 0x3173 SWAP1 SWAP2 SWAP1 PUSH4 0xFFFFFFFF AND JUMP JUMPDEST SWAP1 POP PUSH2 0x203B PUSH2 0x3604 JUMP JUMPDEST ISZERO PUSH2 0x20EF JUMPI PUSH1 0x1 SLOAD PUSH1 0x1 PUSH1 0x1 PUSH1 0xA0 SHL SUB AND PUSH4 0x283760FA PUSH2 0x2063 PUSH1 0x0 SLOAD PUSH1 0x1 PUSH1 0x1 PUSH1 0xA0 SHL SUB AND SWAP1 JUMP JUMPDEST DUP4 PUSH1 0x40 MLOAD DUP4 PUSH4 0xFFFFFFFF AND PUSH1 0xE0 SHL DUP2 MSTORE PUSH1 0x4 ADD PUSH2 0x2081 SWAP3 SWAP2 SWAP1 PUSH2 0x3DD7 JUMP JUMPDEST PUSH1 0x20 PUSH1 0x40 MLOAD DUP1 DUP4 SUB DUP2 PUSH1 0x0 DUP8 DUP1 EXTCODESIZE ISZERO DUP1 ISZERO PUSH2 0x209B JUMPI PUSH1 0x0 DUP1 REVERT JUMPDEST POP GAS CALL ISZERO DUP1 ISZERO PUSH2 0x20AF JUMPI RETURNDATASIZE PUSH1 0x0 DUP1 RETURNDATACOPY RETURNDATASIZE PUSH1 0x0 REVERT JUMPDEST POP POP POP POP PUSH1 0x40 MLOAD RETURNDATASIZE PUSH1 0x1F NOT PUSH1 0x1F DUP3 ADD AND DUP3 ADD DUP1 PUSH1 0x40 MSTORE POP DUP2 ADD SWAP1 PUSH2 0x20D3 SWAP2 SWAP1 PUSH2 0x3B4E JUMP JUMPDEST POP PUSH2 0x120 DUP6 ADD MLOAD PUSH2 0x20E4 SWAP1 DUP3 PUSH2 0x370E JUMP JUMPDEST PUSH2 0x120 DUP7 ADD MSTORE PUSH2 0x2184 JUMP JUMPDEST PUSH1 0x1 SLOAD PUSH1 0x1 PUSH1 0x1 PUSH1 0xA0 SHL SUB AND PUSH4 0x21670F22 PUSH2 0x2112 PUSH1 0x0 SLOAD PUSH1 0x1 PUSH1 0x1 PUSH1 0xA0 SHL SUB AND SWAP1 JUMP JUMPDEST DUP4 PUSH1 0x40 MLOAD DUP4 PUSH4 0xFFFFFFFF AND PUSH1 0xE0 SHL DUP2 MSTORE PUSH1 0x4 ADD PUSH2 0x2130 SWAP3 SWAP2 SWAP1 PUSH2 0x3DD7 JUMP JUMPDEST PUSH1 0x20 PUSH1 0x40 MLOAD DUP1 DUP4 SUB DUP2 PUSH1 0x0 DUP8 DUP1 EXTCODESIZE ISZERO DUP1 ISZERO PUSH2 0x214A JUMPI PUSH1 0x0 DUP1 REVERT JUMPDEST POP GAS CALL ISZERO DUP1 ISZERO PUSH2 0x215E JUMPI RETURNDATASIZE PUSH1 0x0 DUP1 RETURNDATACOPY RETURNDATASIZE PUSH1 0x0 REVERT JUMPDEST POP POP POP POP PUSH1 0x40 MLOAD RETURNDATASIZE PUSH1 0x1F NOT PUSH1 0x1F DUP3 ADD AND DUP3 ADD DUP1 PUSH1 0x40 MSTORE POP DUP2 ADD SWAP1 PUSH2 0x2182 SWAP2 SWAP1 PUSH2 0x3B4E JUMP JUMPDEST POP JUMPDEST POP POP POP POP PUSH2 0x26B4 JUMP JUMPDEST PUSH1 0x1 SLOAD PUSH1 0x40 DUP1 MLOAD DUP1 DUP3 ADD DUP3 MSTORE PUSH1 0x14 DUP2 MSTORE PUSH20 0x20A92124AA2920AA27A921A7A6A6A4A9A9A4A7A7 PUSH1 0x61 SHL PUSH1 0x20 DUP3 ADD MSTORE SWAP1 MLOAD PUSH4 0x22AD378F PUSH1 0xE2 SHL DUP2 MSTORE PUSH1 0x0 SWAP3 PUSH20 0x0 SWAP3 PUSH4 0x1BD95155 SWAP3 PUSH1 0x1 PUSH1 0x1 PUSH1 0xA0 SHL SUB SWAP1 SWAP3 AND SWAP2 PUSH4 0x8AB4DE3C SWAP2 PUSH2 0x2206 SWAP2 DUP11 SWAP2 SWAP1 PUSH1 0x4 ADD PUSH2 0x3DF0 JUMP JUMPDEST PUSH1 0x0 PUSH1 0x40 MLOAD DUP1 DUP4 SUB DUP2 DUP7 DUP1 EXTCODESIZE ISZERO DUP1 ISZERO PUSH2 0x221E JUMPI PUSH1 0x0 DUP1 REVERT JUMPDEST POP GAS STATICCALL ISZERO DUP1 ISZERO PUSH2 0x2232 JUMPI RETURNDATASIZE PUSH1 0x0 DUP1 RETURNDATACOPY RETURNDATASIZE PUSH1 0x0 REVERT JUMPDEST POP POP POP POP PUSH1 0x40 MLOAD RETURNDATASIZE PUSH1 0x0 DUP3 RETURNDATACOPY PUSH1 0x1F RETURNDATASIZE SWAP1 DUP2 ADD PUSH1 0x1F NOT AND DUP3 ADD PUSH1 0x40 MSTORE PUSH2 0x225A SWAP2 SWAP1 DUP2 ADD SWAP1 PUSH2 0x3C0E JUMP JUMPDEST PUSH1 0x40 MLOAD DUP3 PUSH4 0xFFFFFFFF AND PUSH1 0xE0 SHL DUP2 MSTORE PUSH1 0x4 ADD PUSH2 0x2276 SWAP2 SWAP1 PUSH2 0x3E92 JUMP JUMPDEST PUSH1 0x20 PUSH1 0x40 MLOAD DUP1 DUP4 SUB DUP2 DUP7 DUP1 EXTCODESIZE ISZERO DUP1 ISZERO PUSH2 0x228E JUMPI PUSH1 0x0 DUP1 REVERT JUMPDEST POP GAS DELEGATECALL ISZERO DUP1 ISZERO PUSH2 0x22A2 JUMPI RETURNDATASIZE PUSH1 0x0 DUP1 RETURNDATACOPY RETURNDATASIZE PUSH1 0x0 REVERT JUMPDEST POP POP POP POP PUSH1 0x40 MLOAD RETURNDATASIZE PUSH1 0x1F NOT PUSH1 0x1F DUP3 ADD AND DUP3 ADD DUP1 PUSH1 0x40 MSTORE POP DUP2 ADD SWAP1 PUSH2 0x22C6 SWAP2 SWAP1 PUSH2 0x3B70 JUMP JUMPDEST PUSH1 0x1 SLOAD PUSH1 0x40 DUP1 MLOAD DUP1 DUP3 ADD DUP3 MSTORE PUSH1 0xA DUP2 MSTORE PUSH10 0x20A92124AA2920AA27A9 PUSH1 0xB1 SHL PUSH1 0x20 DUP3 ADD MSTORE SWAP1 MLOAD PUSH4 0x22AD378F PUSH1 0xE2 SHL DUP2 MSTORE SWAP3 SWAP4 POP PUSH1 0x0 SWAP3 PUSH2 0x2376 SWAP3 PUSH1 0x1 PUSH1 0x1 PUSH1 0xA0 SHL SUB AND SWAP2 PUSH4 0x8AB4DE3C SWAP2 PUSH2 0x231D SWAP2 DUP11 SWAP2 PUSH1 0x4 ADD PUSH2 0x3DF0 JUMP JUMPDEST PUSH1 0x0 PUSH1 0x40 MLOAD DUP1 DUP4 SUB DUP2 DUP7 DUP1 EXTCODESIZE ISZERO DUP1 ISZERO PUSH2 0x2335 JUMPI PUSH1 0x0 DUP1 REVERT JUMPDEST POP GAS STATICCALL ISZERO DUP1 ISZERO PUSH2 0x2349 JUMPI RETURNDATASIZE PUSH1 0x0 DUP1 RETURNDATACOPY RETURNDATASIZE PUSH1 0x0 REVERT JUMPDEST POP POP POP POP PUSH1 0x40 MLOAD RETURNDATASIZE PUSH1 0x0 DUP3 RETURNDATACOPY PUSH1 0x1F RETURNDATASIZE SWAP1 DUP2 ADD PUSH1 0x1F NOT AND DUP3 ADD PUSH1 0x40 MSTORE PUSH2 0x2371 SWAP2 SWAP1 DUP2 ADD SWAP1 PUSH2 0x3C0E JUMP JUMPDEST PUSH2 0x371A JUMP JUMPDEST SWAP1 POP PUSH1 0x0 PUSH2 0x23A9 PUSH3 0x186A0 PUSH2 0xAB8 PUSH1 0x64 PUSH2 0xAB8 PUSH2 0x3E8 PUSH2 0xAB8 PUSH1 0x23 PUSH2 0x1DAC DUP12 DUP14 PUSH2 0x100 ADD MLOAD PUSH2 0x3173 SWAP1 SWAP2 SWAP1 PUSH4 0xFFFFFFFF AND JUMP JUMPDEST SWAP1 POP PUSH1 0x0 DUP4 GT DUP1 ISZERO PUSH2 0x23C3 JUMPI POP PUSH1 0x1 PUSH1 0x1 PUSH1 0xA0 SHL SUB DUP3 AND ISZERO ISZERO JUMPDEST ISZERO PUSH2 0x2542 JUMPI PUSH1 0x0 PUSH2 0x23F8 PUSH3 0x186A0 PUSH2 0xAB8 PUSH1 0x64 PUSH2 0xAB8 PUSH1 0x64 PUSH2 0xAB8 PUSH1 0x60 PUSH2 0x1DAC DUP13 DUP15 PUSH2 0x100 ADD MLOAD PUSH2 0x3173 SWAP1 SWAP2 SWAP1 PUSH4 0xFFFFFFFF AND JUMP JUMPDEST PUSH2 0x120 DUP7 ADD MLOAD SWAP1 SWAP2 POP PUSH2 0x240B SWAP1 DUP3 PUSH2 0x370E JUMP JUMPDEST PUSH2 0x120 DUP7 ADD MSTORE PUSH1 0x1 SLOAD PUSH1 0x40 MLOAD PUSH4 0x141BB07D PUSH1 0xE1 SHL DUP2 MSTORE PUSH1 0x1 PUSH1 0x1 PUSH1 0xA0 SHL SUB SWAP1 SWAP2 AND SWAP1 PUSH4 0x283760FA SWAP1 PUSH2 0x2443 SWAP1 DUP7 SWAP1 DUP6 SWAP1 PUSH1 0x4 ADD PUSH2 0x3DD7 JUMP JUMPDEST PUSH1 0x20 PUSH1 0x40 MLOAD DUP1 DUP4 SUB DUP2 PUSH1 0x0 DUP8 DUP1 EXTCODESIZE ISZERO DUP1 ISZERO PUSH2 0x245D JUMPI PUSH1 0x0 DUP1 REVERT JUMPDEST POP GAS CALL ISZERO DUP1 ISZERO PUSH2 0x2471 JUMPI RETURNDATASIZE PUSH1 0x0 DUP1 RETURNDATACOPY RETURNDATASIZE PUSH1 0x0 REVERT JUMPDEST POP POP POP POP PUSH1 0x40 MLOAD RETURNDATASIZE PUSH1 0x1F NOT PUSH1 0x1F DUP3 ADD AND DUP3 ADD DUP1 PUSH1 0x40 MSTORE POP DUP2 ADD SWAP1 PUSH2 0x2495 SWAP2 SWAP1 PUSH2 0x3B4E JUMP JUMPDEST POP PUSH1 0x1 SLOAD PUSH1 0x1 PUSH1 0x1 PUSH1 0xA0 SHL SUB AND PUSH4 0x283760FA PUSH2 0x24B9 PUSH1 0x0 SLOAD PUSH1 0x1 PUSH1 0x1 PUSH1 0xA0 SHL SUB AND SWAP1 JUMP JUMPDEST DUP5 PUSH1 0x40 MLOAD DUP4 PUSH4 0xFFFFFFFF AND PUSH1 0xE0 SHL DUP2 MSTORE PUSH1 0x4 ADD PUSH2 0x24D7 SWAP3 SWAP2 SWAP1 PUSH2 0x3DD7 JUMP JUMPDEST PUSH1 0x20 PUSH1 0x40 MLOAD DUP1 DUP4 SUB DUP2 PUSH1 0x0 DUP8 DUP1 EXTCODESIZE ISZERO DUP1 ISZERO PUSH2 0x24F1 JUMPI PUSH1 0x0 DUP1 REVERT JUMPDEST POP GAS CALL ISZERO DUP1 ISZERO PUSH2 0x2505 JUMPI RETURNDATASIZE PUSH1 0x0 DUP1 RETURNDATACOPY RETURNDATASIZE PUSH1 0x0 REVERT JUMPDEST POP POP POP POP PUSH1 0x40 MLOAD RETURNDATASIZE PUSH1 0x1F NOT PUSH1 0x1F DUP3 ADD AND DUP3 ADD DUP1 PUSH1 0x40 MSTORE POP DUP2 ADD SWAP1 PUSH2 0x2529 SWAP2 SWAP1 PUSH2 0x3B4E JUMP JUMPDEST POP PUSH2 0x120 DUP6 ADD MLOAD PUSH2 0x253A SWAP1 DUP4 PUSH2 0x370E JUMP JUMPDEST PUSH2 0x120 DUP7 ADD MSTORE POP JUMPDEST PUSH2 0x254A PUSH2 0x3604 JUMP JUMPDEST ISZERO DUP1 ISZERO PUSH2 0x255F JUMPI POP PUSH1 0x1 PUSH1 0x1 PUSH1 0xA0 SHL SUB DUP3 AND ISZERO ISZERO JUMPDEST ISZERO PUSH2 0x261C JUMPI PUSH1 0x0 PUSH2 0x2594 PUSH3 0x186A0 PUSH2 0xAB8 PUSH1 0x64 PUSH2 0xAB8 PUSH1 0x64 PUSH2 0xAB8 PUSH1 0x20 PUSH2 0x1DAC DUP13 DUP15 PUSH2 0x100 ADD MLOAD PUSH2 0x3173 SWAP1 SWAP2 SWAP1 PUSH4 0xFFFFFFFF AND JUMP JUMPDEST PUSH1 0x1 SLOAD PUSH1 0x40 MLOAD PUSH4 0x10B38791 PUSH1 0xE1 SHL DUP2 MSTORE SWAP2 SWAP3 POP PUSH1 0x1 PUSH1 0x1 PUSH1 0xA0 SHL SUB AND SWAP1 PUSH4 0x21670F22 SWAP1 PUSH2 0x25C7 SWAP1 DUP7 SWAP1 DUP6 SWAP1 PUSH1 0x4 ADD PUSH2 0x3DD7 JUMP JUMPDEST PUSH1 0x20 PUSH1 0x40 MLOAD DUP1 DUP4 SUB DUP2 PUSH1 0x0 DUP8 DUP1 EXTCODESIZE ISZERO DUP1 ISZERO PUSH2 0x25E1 JUMPI PUSH1 0x0 DUP1 REVERT JUMPDEST POP GAS CALL ISZERO DUP1 ISZERO PUSH2 0x25F5 JUMPI RETURNDATASIZE PUSH1 0x0 DUP1 RETURNDATACOPY RETURNDATASIZE PUSH1 0x0 REVERT JUMPDEST POP POP POP POP PUSH1 0x40 MLOAD RETURNDATASIZE PUSH1 0x1F NOT PUSH1 0x1F DUP3 ADD AND DUP3 ADD DUP1 PUSH1 0x40 MSTORE POP DUP2 ADD SWAP1 PUSH2 0x2619 SWAP2 SWAP1 PUSH2 0x3B4E JUMP JUMPDEST POP POP JUMPDEST PUSH1 0x1 SLOAD PUSH1 0x1 PUSH1 0x1 PUSH1 0xA0 SHL SUB AND PUSH4 0x21670F22 PUSH2 0x263F PUSH1 0x0 SLOAD PUSH1 0x1 PUSH1 0x1 PUSH1 0xA0 SHL SUB AND SWAP1 JUMP JUMPDEST DUP4 PUSH1 0x40 MLOAD DUP4 PUSH4 0xFFFFFFFF AND PUSH1 0xE0 SHL DUP2 MSTORE PUSH1 0x4 ADD PUSH2 0x265D SWAP3 SWAP2 SWAP1 PUSH2 0x3DD7 JUMP JUMPDEST PUSH1 0x20 PUSH1 0x40 MLOAD DUP1 DUP4 SUB DUP2 PUSH1 0x0 DUP8 DUP1 EXTCODESIZE ISZERO DUP1 ISZERO PUSH2 0x2677 JUMPI PUSH1 0x0 DUP1 REVERT JUMPDEST POP GAS CALL ISZERO DUP1 ISZERO PUSH2 0x268B JUMPI RETURNDATASIZE PUSH1 0x0 DUP1 RETURNDATACOPY RETURNDATASIZE PUSH1 0x0 REVERT JUMPDEST POP POP POP POP PUSH1 0x40 MLOAD RETURNDATASIZE PUSH1 0x1F NOT PUSH1 0x1F DUP3 ADD AND DUP3 ADD DUP1 PUSH1 0x40 MSTORE POP DUP2 ADD SWAP1 PUSH2 0x26AF SWAP2 SWAP1 PUSH2 0x3B4E JUMP JUMPDEST POP POP POP POP JUMPDEST PUSH2 0x120 DUP2 ADD DUP1 MLOAD PUSH1 0x0 SWAP1 SWAP2 MSTORE PUSH1 0x4 PUSH1 0xE0 DUP4 ADD DUP2 SWAP1 MSTORE PUSH1 0x1 SLOAD PUSH1 0x40 MLOAD PUSH4 0x293E2397 PUSH1 0xE1 SHL DUP2 MSTORE PUSH1 0x1 PUSH1 0x1 PUSH1 0xA0 SHL SUB SWAP1 SWAP2 AND SWAP2 PUSH4 0x527C472E SWAP2 PUSH2 0x26F7 SWAP2 DUP7 SWAP2 ADD PUSH2 0x4188 JUMP JUMPDEST PUSH1 0x20 PUSH1 0x40 MLOAD DUP1 DUP4 SUB DUP2 PUSH1 0x0 DUP8 DUP1 EXTCODESIZE ISZERO DUP1 ISZERO PUSH2 0x2711 JUMPI PUSH1 0x0 DUP1 REVERT JUMPDEST POP GAS CALL ISZERO DUP1 ISZERO PUSH2 0x2725 JUMPI RETURNDATASIZE PUSH1 0x0 DUP1 RETURNDATACOPY RETURNDATASIZE PUSH1 0x0 REVERT JUMPDEST POP POP POP POP PUSH1 0x40 MLOAD RETURNDATASIZE PUSH1 0x1F NOT PUSH1 0x1F DUP3 ADD AND DUP3 ADD DUP1 PUSH1 0x40 MSTORE POP DUP2 ADD SWAP1 PUSH2 0x2749 SWAP2 SWAP1 PUSH2 0x3B4E JUMP JUMPDEST POP PUSH1 0x1 SLOAD PUSH1 0x40 DUP1 MLOAD DUP1 DUP3 ADD DUP3 MSTORE PUSH1 0xE DUP2 MSTORE PUSH14 0x43414E43454C5343454E4152494F PUSH1 0x90 SHL PUSH1 0x20 DUP3 ADD MSTORE SWAP1 MLOAD PUSH4 0x203A6BFD PUSH1 0xE0 SHL DUP2 MSTORE PUSH1 0x1 PUSH1 0x1 PUSH1 0xA0 SHL SUB SWAP1 SWAP3 AND SWAP2 PUSH4 0x203A6BFD SWAP2 PUSH2 0x27A0 SWAP2 DUP9 SWAP2 SWAP1 DUP9 SWAP1 PUSH1 0x4 ADD PUSH2 0x3E09 JUMP JUMPDEST PUSH1 0x20 PUSH1 0x40 MLOAD DUP1 DUP4 SUB DUP2 PUSH1 0x0 DUP8 DUP1 EXTCODESIZE ISZERO DUP1 ISZERO PUSH2 0x27BA JUMPI PUSH1 0x0 DUP1 REVERT JUMPDEST POP GAS CALL ISZERO DUP1 ISZERO PUSH2 0x27CE JUMPI RETURNDATASIZE PUSH1 0x0 DUP1 RETURNDATACOPY RETURNDATASIZE PUSH1 0x0 REVERT JUMPDEST POP POP POP POP PUSH1 0x40 MLOAD RETURNDATASIZE PUSH1 0x1F NOT PUSH1 0x1F DUP3 ADD AND DUP3 ADD DUP1 PUSH1 0x40 MSTORE POP DUP2 ADD SWAP1 PUSH2 0x27F2 SWAP2 SWAP1 PUSH2 0x3B4E JUMP JUMPDEST POP PUSH1 0x1 SLOAD PUSH1 0x40 DUP1 MLOAD DUP1 DUP3 ADD DUP3 MSTORE PUSH1 0xC DUP2 MSTORE PUSH12 0x50454E44494E475155455545 PUSH1 0xA0 SHL PUSH1 0x20 DUP3 ADD MSTORE SWAP1 MLOAD PUSH4 0x22AD378F PUSH1 0xE2 SHL DUP2 MSTORE PUSH1 0x0 SWAP3 PUSH20 0x0 SWAP3 PUSH4 0x1BD95155 SWAP3 PUSH1 0x1 PUSH1 0x1 PUSH1 0xA0 SHL SUB SWAP1 SWAP3 AND SWAP2 PUSH4 0x8AB4DE3C SWAP2 PUSH2 0x2864 SWAP2 DUP12 SWAP2 SWAP1 PUSH1 0x4 ADD PUSH2 0x3DF0 JUMP JUMPDEST PUSH1 0x0 PUSH1 0x40 MLOAD DUP1 DUP4 SUB DUP2 DUP7 DUP1 EXTCODESIZE ISZERO DUP1 ISZERO PUSH2 0x287C JUMPI PUSH1 0x0 DUP1 REVERT JUMPDEST POP GAS STATICCALL ISZERO DUP1 ISZERO PUSH2 0x2890 JUMPI RETURNDATASIZE PUSH1 0x0 DUP1 RETURNDATACOPY RETURNDATASIZE PUSH1 0x0 REVERT JUMPDEST POP POP POP POP PUSH1 0x40 MLOAD RETURNDATASIZE PUSH1 0x0 DUP3 RETURNDATACOPY PUSH1 0x1F RETURNDATASIZE SWAP1 DUP2 ADD PUSH1 0x1F NOT AND DUP3 ADD PUSH1 0x40 MSTORE PUSH2 0x28B8 SWAP2 SWAP1 DUP2 ADD SWAP1 PUSH2 0x3C0E JUMP JUMPDEST PUSH1 0x40 MLOAD DUP3 PUSH4 0xFFFFFFFF AND PUSH1 0xE0 SHL DUP2 MSTORE PUSH1 0x4 ADD PUSH2 0x28D4 SWAP2 SWAP1 PUSH2 0x3E92 JUMP JUMPDEST PUSH1 0x20 PUSH1 0x40 MLOAD DUP1 DUP4 SUB DUP2 DUP7 DUP1 EXTCODESIZE ISZERO DUP1 ISZERO PUSH2 0x28EC JUMPI PUSH1 0x0 DUP1 REVERT JUMPDEST POP GAS DELEGATECALL ISZERO DUP1 ISZERO PUSH2 0x2900 JUMPI RETURNDATASIZE PUSH1 0x0 DUP1 RETURNDATACOPY RETURNDATASIZE PUSH1 0x0 REVERT JUMPDEST POP POP POP POP PUSH1 0x40 MLOAD RETURNDATASIZE PUSH1 0x1F NOT PUSH1 0x1F DUP3 ADD AND DUP3 ADD DUP1 PUSH1 0x40 MSTORE POP DUP2 ADD SWAP1 PUSH2 0x2924 SWAP2 SWAP1 PUSH2 0x3B70 JUMP JUMPDEST PUSH1 0x1 SLOAD PUSH1 0x40 MLOAD PUSH4 0x616E229D PUSH1 0xE1 SHL DUP2 MSTORE PUSH4 0xFFFFFFFF DUP4 AND PUSH1 0x4 DUP3 ADD MSTORE SWAP2 SWAP3 POP PUSH1 0x0 SWAP2 PUSH1 0x1 PUSH1 0x1 PUSH1 0xA0 SHL SUB SWAP1 SWAP2 AND SWAP1 PUSH4 0xC2DC453A SWAP1 PUSH1 0x24 ADD PUSH1 0x20 PUSH1 0x40 MLOAD DUP1 DUP4 SUB DUP2 DUP7 DUP1 EXTCODESIZE ISZERO DUP1 ISZERO PUSH2 0x2973 JUMPI PUSH1 0x0 DUP1 REVERT JUMPDEST POP GAS STATICCALL ISZERO DUP1 ISZERO PUSH2 0x2987 JUMPI RETURNDATASIZE PUSH1 0x0 DUP1 RETURNDATACOPY RETURNDATASIZE PUSH1 0x0 REVERT JUMPDEST POP POP POP POP PUSH1 0x40 MLOAD RETURNDATASIZE PUSH1 0x1F NOT PUSH1 0x1F DUP3 ADD AND DUP3 ADD DUP1 PUSH1 0x40 MSTORE POP DUP2 ADD SWAP1 PUSH2 0x29AB SWAP2 SWAP1 PUSH2 0x3B70 JUMP JUMPDEST PUSH1 0x1 SLOAD PUSH1 0x40 MLOAD PUSH4 0xCA5D5B57 PUSH1 0xE0 SHL DUP2 MSTORE PUSH1 0x4 DUP2 ADD DUP4 SWAP1 MSTORE PUSH1 0x24 DUP2 ADD DUP10 SWAP1 MSTORE SWAP2 SWAP3 POP PUSH1 0x1 PUSH1 0x1 PUSH1 0xA0 SHL SUB AND SWAP1 PUSH4 0xCA5D5B57 SWAP1 PUSH1 0x44 ADD PUSH1 0x0 PUSH1 0x40 MLOAD DUP1 DUP4 SUB DUP2 PUSH1 0x0 DUP8 DUP1 EXTCODESIZE ISZERO DUP1 ISZERO PUSH2 0x29F9 JUMPI PUSH1 0x0 DUP1 REVERT JUMPDEST POP GAS CALL ISZERO DUP1 ISZERO PUSH2 0x2A0D JUMPI RETURNDATASIZE PUSH1 0x0 DUP1 RETURNDATACOPY RETURNDATASIZE PUSH1 0x0 REVERT JUMPDEST POP POP PUSH1 0x40 DUP1 MLOAD DUP1 DUP3 ADD DUP3 MSTORE PUSH1 0x9 DUP2 MSTORE PUSH9 0x10D05390D153131151 PUSH1 0xBA SHL PUSH1 0x20 DUP3 ADD MSTORE SWAP1 MLOAD PUSH4 0x5F69A5DD PUSH1 0xE1 SHL DUP2 MSTORE PUSH20 0x0 SWAP4 POP PUSH4 0xBED34BBA SWAP3 POP PUSH2 0x2A66 SWAP2 DUP10 SWAP2 PUSH1 0x4 ADD PUSH2 0x3EA5 JUMP JUMPDEST PUSH1 0x20 PUSH1 0x40 MLOAD DUP1 DUP4 SUB DUP2 DUP7 DUP1 EXTCODESIZE ISZERO DUP1 ISZERO PUSH2 0x2A7E JUMPI PUSH1 0x0 DUP1 REVERT JUMPDEST POP GAS DELEGATECALL ISZERO DUP1 ISZERO PUSH2 0x2A92 JUMPI RETURNDATASIZE PUSH1 0x0 DUP1 RETURNDATACOPY RETURNDATASIZE PUSH1 0x0 REVERT JUMPDEST POP POP POP POP PUSH1 0x40 MLOAD RETURNDATASIZE PUSH1 0x1F NOT PUSH1 0x1F DUP3 ADD AND DUP3 ADD DUP1 PUSH1 0x40 MSTORE POP DUP2 ADD SWAP1 PUSH2 0x2AB6 SWAP2 SWAP1 PUSH2 0x3B4E JUMP JUMPDEST ISZERO PUSH2 0x2C8D JUMPI PUSH1 0x1 SLOAD PUSH1 0x40 DUP1 MLOAD DUP1 DUP3 ADD DUP3 MSTORE PUSH1 0x5 DUP2 MSTORE PUSH5 0x4245544545 PUSH1 0xD8 SHL PUSH1 0x20 DUP3 ADD MSTORE SWAP1 MLOAD PUSH4 0x22AD378F PUSH1 0xE2 SHL DUP2 MSTORE PUSH1 0x0 SWAP3 PUSH1 0x1 PUSH1 0x1 PUSH1 0xA0 SHL SUB AND SWAP2 PUSH4 0x8AB4DE3C SWAP2 PUSH2 0x2B06 SWAP2 DUP12 SWAP2 PUSH1 0x4 ADD PUSH2 0x3DF0 JUMP JUMPDEST PUSH1 0x0 PUSH1 0x40 MLOAD DUP1 DUP4 SUB DUP2 DUP7 DUP1 EXTCODESIZE ISZERO DUP1 ISZERO PUSH2 0x2B1E JUMPI PUSH1 0x0 DUP1 REVERT JUMPDEST POP GAS STATICCALL ISZERO DUP1 ISZERO PUSH2 0x2B32 JUMPI RETURNDATASIZE PUSH1 0x0 DUP1 RETURNDATACOPY RETURNDATASIZE PUSH1 0x0 REVERT JUMPDEST POP POP POP POP PUSH1 0x40 MLOAD RETURNDATASIZE PUSH1 0x0 DUP3 RETURNDATACOPY PUSH1 0x1F RETURNDATASIZE SWAP1 DUP2 ADD PUSH1 0x1F NOT AND DUP3 ADD PUSH1 0x40 MSTORE PUSH2 0x2B5A SWAP2 SWAP1 DUP2 ADD SWAP1 PUSH2 0x3C0E JUMP JUMPDEST PUSH1 0x1 SLOAD SWAP1 SWAP2 POP PUSH1 0x1 PUSH1 0x1 PUSH1 0xA0 SHL SUB AND PUSH4 0x283760FA PUSH2 0x2B77 DUP4 PUSH2 0x371A JUMP JUMPDEST PUSH2 0x2B82 DUP8 PUSH1 0x2 PUSH2 0x3186 JUMP JUMPDEST PUSH1 0x40 MLOAD DUP4 PUSH4 0xFFFFFFFF AND PUSH1 0xE0 SHL DUP2 MSTORE PUSH1 0x4 ADD PUSH2 0x2B9F SWAP3 SWAP2 SWAP1 PUSH2 0x3DD7 JUMP JUMPDEST PUSH1 0x20 PUSH1 0x40 MLOAD DUP1 DUP4 SUB DUP2 PUSH1 0x0 DUP8 DUP1 EXTCODESIZE ISZERO DUP1 ISZERO PUSH2 0x2BB9 JUMPI PUSH1 0x0 DUP1 REVERT JUMPDEST POP GAS CALL ISZERO DUP1 ISZERO PUSH2 0x2BCD JUMPI RETURNDATASIZE PUSH1 0x0 DUP1 RETURNDATACOPY RETURNDATASIZE PUSH1 0x0 REVERT JUMPDEST POP POP POP POP PUSH1 0x40 MLOAD RETURNDATASIZE PUSH1 0x1F NOT PUSH1 0x1F DUP3 ADD AND DUP3 ADD DUP1 PUSH1 0x40 MSTORE POP DUP2 ADD SWAP1 PUSH2 0x2BF1 SWAP2 SWAP1 PUSH2 0x3B4E JUMP JUMPDEST POP PUSH1 0x1 SLOAD PUSH1 0x40 DUP7 ADD MLOAD PUSH1 0x1 PUSH1 0x1 PUSH1 0xA0 SHL SUB SWAP1 SWAP2 AND SWAP1 PUSH4 0x283760FA SWAP1 PUSH2 0x2C17 DUP8 PUSH1 0x2 PUSH2 0x3186 JUMP JUMPDEST PUSH1 0x40 MLOAD DUP4 PUSH4 0xFFFFFFFF AND PUSH1 0xE0 SHL DUP2 MSTORE PUSH1 0x4 ADD PUSH2 0x2C34 SWAP3 SWAP2 SWAP1 PUSH2 0x3DD7 JUMP JUMPDEST PUSH1 0x20 PUSH1 0x40 MLOAD DUP1 DUP4 SUB DUP2 PUSH1 0x0 DUP8 DUP1 EXTCODESIZE ISZERO DUP1 ISZERO PUSH2 0x2C4E JUMPI PUSH1 0x0 DUP1 REVERT JUMPDEST POP GAS CALL ISZERO DUP1 ISZERO PUSH2 0x2C62 JUMPI RETURNDATASIZE PUSH1 0x0 DUP1 RETURNDATACOPY RETURNDATASIZE PUSH1 0x0 REVERT JUMPDEST POP POP POP POP PUSH1 0x40 MLOAD RETURNDATASIZE PUSH1 0x1F NOT PUSH1 0x1F DUP3 ADD AND DUP3 ADD DUP1 PUSH1 0x40 MSTORE POP DUP2 ADD SWAP1 PUSH2 0x2C86 SWAP2 SWAP1 PUSH2 0x3B4E JUMP JUMPDEST POP POP PUSH2 0x2FA2 JUMP JUMPDEST PUSH1 0x40 DUP1 MLOAD DUP1 DUP3 ADD DUP3 MSTORE PUSH1 0xB DUP2 MSTORE PUSH11 0x21A922A0AA27A92FABA7A7 PUSH1 0xA9 SHL PUSH1 0x20 DUP3 ADD MSTORE SWAP1 MLOAD PUSH4 0x5F69A5DD PUSH1 0xE1 SHL DUP2 MSTORE PUSH20 0x0 SWAP2 PUSH4 0xBED34BBA SWAP2 PUSH2 0x2CE4 SWAP2 DUP10 SWAP2 PUSH1 0x4 ADD PUSH2 0x3EA5 JUMP JUMPDEST PUSH1 0x20 PUSH1 0x40 MLOAD DUP1 DUP4 SUB DUP2 DUP7 DUP1 EXTCODESIZE ISZERO DUP1 ISZERO PUSH2 0x2CFC JUMPI PUSH1 0x0 DUP1 REVERT JUMPDEST POP GAS DELEGATECALL ISZERO DUP1 ISZERO PUSH2 0x2D10 JUMPI RETURNDATASIZE PUSH1 0x0 DUP1 RETURNDATACOPY RETURNDATASIZE PUSH1 0x0 REVERT JUMPDEST POP POP POP POP PUSH1 0x40 MLOAD RETURNDATASIZE PUSH1 0x1F NOT PUSH1 0x1F DUP3 ADD AND DUP3 ADD DUP1 PUSH1 0x40 MSTORE POP DUP2 ADD SWAP1 PUSH2 0x2D34 SWAP2 SWAP1 PUSH2 0x3B4E JUMP JUMPDEST ISZERO PUSH2 0x2DC6 JUMPI PUSH1 0x1 SLOAD PUSH1 0x40 DUP1 DUP7 ADD MLOAD SWAP1 MLOAD PUSH4 0x141BB07D PUSH1 0xE1 SHL DUP2 MSTORE PUSH1 0x1 PUSH1 0x1 PUSH1 0xA0 SHL SUB SWAP1 SWAP3 AND SWAP2 PUSH4 0x283760FA SWAP2 PUSH2 0x2D6E SWAP2 DUP8 SWAP1 PUSH1 0x4 ADD PUSH2 0x3DD7 JUMP JUMPDEST PUSH1 0x20 PUSH1 0x40 MLOAD DUP1 DUP4 SUB DUP2 PUSH1 0x0 DUP8 DUP1 EXTCODESIZE ISZERO DUP1 ISZERO PUSH2 0x2D88 JUMPI PUSH1 0x0 DUP1 REVERT JUMPDEST POP GAS CALL ISZERO DUP1 ISZERO PUSH2 0x2D9C JUMPI RETURNDATASIZE PUSH1 0x0 DUP1 RETURNDATACOPY RETURNDATASIZE PUSH1 0x0 REVERT JUMPDEST POP POP POP POP PUSH1 0x40 MLOAD RETURNDATASIZE PUSH1 0x1F NOT PUSH1 0x1F DUP3 ADD AND DUP3 ADD DUP1 PUSH1 0x40 MSTORE POP DUP2 ADD SWAP1 PUSH2 0x2DC0 SWAP2 SWAP1 PUSH2 0x3B4E JUMP JUMPDEST POP PUSH2 0x2FA2 JUMP JUMPDEST PUSH1 0x40 DUP1 MLOAD DUP1 DUP3 ADD DUP3 MSTORE PUSH1 0xC DUP2 MSTORE PUSH12 0x10D491505513D497D313D4D5 PUSH1 0xA2 SHL PUSH1 0x20 DUP3 ADD MSTORE SWAP1 MLOAD PUSH4 0x5F69A5DD PUSH1 0xE1 SHL DUP2 MSTORE PUSH20 0x0 SWAP2 PUSH4 0xBED34BBA SWAP2 PUSH2 0x2E1E SWAP2 DUP10 SWAP2 PUSH1 0x4 ADD PUSH2 0x3EA5 JUMP JUMPDEST PUSH1 0x20 PUSH1 0x40 MLOAD DUP1 DUP4 SUB DUP2 DUP7 DUP1 EXTCODESIZE ISZERO DUP1 ISZERO PUSH2 0x2E36 JUMPI PUSH1 0x0 DUP1 REVERT JUMPDEST POP GAS DELEGATECALL ISZERO DUP1 ISZERO PUSH2 0x2E4A JUMPI RETURNDATASIZE PUSH1 0x0 DUP1 RETURNDATACOPY RETURNDATASIZE PUSH1 0x0 REVERT JUMPDEST POP POP POP POP PUSH1 0x40 MLOAD RETURNDATASIZE PUSH1 0x1F NOT PUSH1 0x1F DUP3 ADD AND DUP3 ADD DUP1 PUSH1 0x40 MSTORE POP DUP2 ADD SWAP1 PUSH2 0x2E6E SWAP2 SWAP1 PUSH2 0x3B4E JUMP JUMPDEST ISZERO PUSH2 0x2FA2 JUMPI PUSH1 0x1 SLOAD PUSH1 0x40 DUP1 MLOAD DUP1 DUP3 ADD DUP3 MSTORE PUSH1 0x5 DUP2 MSTORE PUSH5 0x4245544545 PUSH1 0xD8 SHL PUSH1 0x20 DUP3 ADD MSTORE SWAP1 MLOAD PUSH4 0x22AD378F PUSH1 0xE2 SHL DUP2 MSTORE PUSH1 0x0 SWAP3 PUSH1 0x1 PUSH1 0x1 PUSH1 0xA0 SHL SUB AND SWAP2 PUSH4 0x8AB4DE3C SWAP2 PUSH2 0x2EBE SWAP2 DUP12 SWAP2 PUSH1 0x4 ADD PUSH2 0x3DF0 JUMP JUMPDEST PUSH1 0x0 PUSH1 0x40 MLOAD DUP1 DUP4 SUB DUP2 DUP7 DUP1 EXTCODESIZE ISZERO DUP1 ISZERO PUSH2 0x2ED6 JUMPI PUSH1 0x0 DUP1 REVERT JUMPDEST POP GAS STATICCALL ISZERO DUP1 ISZERO PUSH2 0x2EEA JUMPI RETURNDATASIZE PUSH1 0x0 DUP1 RETURNDATACOPY RETURNDATASIZE PUSH1 0x0 REVERT JUMPDEST POP POP POP POP PUSH1 0x40 MLOAD RETURNDATASIZE PUSH1 0x0 DUP3 RETURNDATACOPY PUSH1 0x1F RETURNDATASIZE SWAP1 DUP2 ADD PUSH1 0x1F NOT AND DUP3 ADD PUSH1 0x40 MSTORE PUSH2 0x2F12 SWAP2 SWAP1 DUP2 ADD SWAP1 PUSH2 0x3C0E JUMP JUMPDEST PUSH1 0x1 SLOAD SWAP1 SWAP2 POP PUSH1 0x1 PUSH1 0x1 PUSH1 0xA0 SHL SUB AND PUSH4 0x283760FA PUSH2 0x2F2F DUP4 PUSH2 0x371A JUMP JUMPDEST DUP7 PUSH1 0x40 MLOAD DUP4 PUSH4 0xFFFFFFFF AND PUSH1 0xE0 SHL DUP2 MSTORE PUSH1 0x4 ADD PUSH2 0x2F4D SWAP3 SWAP2 SWAP1 PUSH2 0x3DD7 JUMP JUMPDEST PUSH1 0x20 PUSH1 0x40 MLOAD DUP1 DUP4 SUB DUP2 PUSH1 0x0 DUP8 DUP1 EXTCODESIZE ISZERO DUP1 ISZERO PUSH2 0x2F67 JUMPI PUSH1 0x0 DUP1 REVERT JUMPDEST POP GAS CALL ISZERO DUP1 ISZERO PUSH2 0x2F7B JUMPI RETURNDATASIZE PUSH1 0x0 DUP1 RETURNDATACOPY RETURNDATASIZE PUSH1 0x0 REVERT JUMPDEST POP POP POP POP PUSH1 0x40 MLOAD RETURNDATASIZE PUSH1 0x1F NOT PUSH1 0x1F DUP3 ADD AND DUP3 ADD DUP1 PUSH1 0x40 MSTORE POP DUP2 ADD SWAP1 PUSH2 0x2F9F SWAP2 SWAP1 PUSH2 0x3B4E JUMP JUMPDEST POP POP JUMPDEST PUSH1 0x1 PUSH1 0x0 SWAP1 SLOAD SWAP1 PUSH2 0x100 EXP SWAP1 DIV PUSH1 0x1 PUSH1 0x1 PUSH1 0xA0 SHL SUB AND PUSH1 0x1 PUSH1 0x1 PUSH1 0xA0 SHL SUB AND PUSH4 0x2FA38F9B PUSH1 0x40 MLOAD DUP2 PUSH4 0xFFFFFFFF AND PUSH1 0xE0 SHL DUP2 MSTORE PUSH1 0x4 ADD PUSH1 0x0 PUSH1 0x40 MLOAD DUP1 DUP4 SUB DUP2 PUSH1 0x0 DUP8 DUP1 EXTCODESIZE ISZERO DUP1 ISZERO PUSH2 0x2FF2 JUMPI PUSH1 0x0 DUP1 REVERT JUMPDEST POP GAS CALL ISZERO DUP1 ISZERO PUSH2 0x3006 JUMPI RETURNDATASIZE PUSH1 0x0 DUP1 RETURNDATACOPY RETURNDATASIZE PUSH1 0x0 REVERT JUMPDEST POP POP POP POP DUP6 PUSH32 0x8EDF4DED3A58729C2D2CF8C1497DDF8AB171B4136977DB72EEBE37C3DA0E65D7 DUP7 PUSH1 0x40 MLOAD PUSH2 0x303A SWAP2 SWAP1 PUSH2 0x3E92 JUMP JUMPDEST PUSH1 0x40 MLOAD DUP1 SWAP2 SUB SWAP1 LOG2 POP POP POP POP POP POP JUMP JUMPDEST PUSH1 0x60 DUP2 PUSH2 0x306E JUMPI POP POP PUSH1 0x40 DUP1 MLOAD DUP1 DUP3 ADD SWAP1 SWAP2 MSTORE PUSH1 0x1 DUP2 MSTORE PUSH1 0x3 PUSH1 0xFC SHL PUSH1 0x20 DUP3 ADD MSTORE SWAP1 JUMP JUMPDEST DUP2 PUSH1 0x0 JUMPDEST DUP2 ISZERO PUSH2 0x3098 JUMPI DUP1 PUSH2 0x3082 DUP2 PUSH2 0x4463 JUMP JUMPDEST SWAP2 POP PUSH2 0x3091 SWAP1 POP PUSH1 0xA DUP4 PUSH2 0x4375 JUMP JUMPDEST SWAP2 POP PUSH2 0x3072 JUMP JUMPDEST PUSH1 0x0 DUP2 PUSH8 0xFFFFFFFFFFFFFFFF DUP2 GT ISZERO PUSH2 0x30B3 JUMPI PUSH2 0x30B3 PUSH2 0x44F4 JUMP JUMPDEST PUSH1 0x40 MLOAD SWAP1 DUP1 DUP3 MSTORE DUP1 PUSH1 0x1F ADD PUSH1 0x1F NOT AND PUSH1 0x20 ADD DUP3 ADD PUSH1 0x40 MSTORE DUP1 ISZERO PUSH2 0x30DD JUMPI PUSH1 0x20 DUP3 ADD DUP2 DUP1 CALLDATASIZE DUP4 CALLDATACOPY ADD SWAP1 POP JUMPDEST POP SWAP1 POP DUP2 JUMPDEST DUP6 ISZERO PUSH2 0x316A JUMPI PUSH2 0x30F3 PUSH1 0x1 DUP3 PUSH2 0x43FF JUMP JUMPDEST SWAP1 POP PUSH1 0x0 PUSH2 0x3102 PUSH1 0xA DUP9 PUSH2 0x4375 JUMP JUMPDEST PUSH2 0x310D SWAP1 PUSH1 0xA PUSH2 0x43B8 JUMP JUMPDEST PUSH2 0x3117 SWAP1 DUP9 PUSH2 0x43FF JUMP JUMPDEST PUSH2 0x3122 SWAP1 PUSH1 0x30 PUSH2 0x4350 JUMP JUMPDEST SWAP1 POP PUSH1 0x0 DUP2 PUSH1 0xF8 SHL SWAP1 POP DUP1 DUP5 DUP5 DUP2 MLOAD DUP2 LT PUSH2 0x313F JUMPI PUSH2 0x313F PUSH2 0x44DE JUMP JUMPDEST PUSH1 0x20 ADD ADD SWAP1 PUSH1 0x1 PUSH1 0x1 PUSH1 0xF8 SHL SUB NOT AND SWAP1 DUP2 PUSH1 0x0 BYTE SWAP1 MSTORE8 POP PUSH2 0x3161 PUSH1 0xA DUP10 PUSH2 0x4375 JUMP JUMPDEST SWAP8 POP POP POP PUSH2 0x30E2 JUMP JUMPDEST POP SWAP5 SWAP4 POP POP POP POP JUMP JUMPDEST PUSH1 0x0 PUSH2 0x317F DUP3 DUP5 PUSH2 0x43B8 JUMP JUMPDEST SWAP4 SWAP3 POP POP POP JUMP JUMPDEST PUSH1 0x0 PUSH2 0x317F DUP3 DUP5 PUSH2 0x4375 JUMP JUMPDEST PUSH1 0x1 SLOAD PUSH1 0x40 MLOAD PUSH4 0xEF01E53 PUSH1 0xE2 SHL DUP2 MSTORE PUSH1 0x4 DUP2 ADD DUP4 SWAP1 MSTORE PUSH1 0x0 SWAP2 PUSH1 0x1 PUSH1 0x1 PUSH1 0xA0 SHL SUB AND SWAP1 PUSH4 0x3BC0794C SWAP1 PUSH1 0x24 ADD PUSH1 0x20 PUSH1 0x40 MLOAD DUP1 DUP4 SUB DUP2 DUP7 DUP1 EXTCODESIZE ISZERO DUP1 ISZERO PUSH2 0x31D7 JUMPI PUSH1 0x0 DUP1 REVERT JUMPDEST POP GAS STATICCALL ISZERO DUP1 ISZERO PUSH2 0x31EB JUMPI RETURNDATASIZE PUSH1 0x0 DUP1 RETURNDATACOPY RETURNDATASIZE PUSH1 0x0 REVERT JUMPDEST POP POP POP POP PUSH1 0x40 MLOAD RETURNDATASIZE PUSH1 0x1F NOT PUSH1 0x1F DUP3 ADD AND DUP3 ADD DUP1 PUSH1 0x40 MSTORE POP DUP2 ADD SWAP1 PUSH2 0x320F SWAP2 SWAP1 PUSH2 0x3B70 JUMP JUMPDEST SWAP1 POP PUSH1 0x2 DUP2 GT ISZERO PUSH2 0x33D7 JUMPI PUSH1 0x1 SLOAD PUSH1 0x40 MLOAD PUSH4 0xCC0FDAF PUSH1 0xE2 SHL DUP2 MSTORE PUSH1 0x4 DUP2 ADD DUP5 SWAP1 MSTORE PUSH1 0x0 SWAP2 PUSH1 0x1 PUSH1 0x1 PUSH1 0xA0 SHL SUB AND SWAP1 PUSH4 0x3303F6BC SWAP1 PUSH1 0x24 ADD PUSH1 0x0 PUSH1 0x40 MLOAD DUP1 DUP4 SUB DUP2 DUP7 DUP1 EXTCODESIZE ISZERO DUP1 ISZERO PUSH2 0x325F JUMPI PUSH1 0x0 DUP1 REVERT JUMPDEST POP GAS STATICCALL ISZERO DUP1 ISZERO PUSH2 0x3273 JUMPI RETURNDATASIZE PUSH1 0x0 DUP1 RETURNDATACOPY RETURNDATASIZE PUSH1 0x0 REVERT JUMPDEST POP POP POP POP PUSH1 0x40 MLOAD RETURNDATASIZE PUSH1 0x0 DUP3 RETURNDATACOPY PUSH1 0x1F RETURNDATASIZE SWAP1 DUP2 ADD PUSH1 0x1F NOT AND DUP3 ADD PUSH1 0x40 MSTORE PUSH2 0x329B SWAP2 SWAP1 DUP2 ADD SWAP1 PUSH2 0x3A41 JUMP JUMPDEST SWAP1 POP PUSH20 0x0 PUSH4 0x9A223F9 DUP3 PUSH2 0x32C3 PUSH1 0x2 DUP7 PUSH2 0x43FF JUMP JUMPDEST DUP2 MLOAD DUP2 LT PUSH2 0x32D3 JUMPI PUSH2 0x32D3 PUSH2 0x44DE JUMP JUMPDEST PUSH1 0x20 MUL PUSH1 0x20 ADD ADD MLOAD PUSH1 0x40 ADD MLOAD DUP4 PUSH1 0x1 DUP7 PUSH2 0x32ED SWAP2 SWAP1 PUSH2 0x43FF JUMP JUMPDEST DUP2 MLOAD DUP2 LT PUSH2 0x32FD JUMPI PUSH2 0x32FD PUSH2 0x44DE JUMP JUMPDEST PUSH1 0x20 MUL PUSH1 0x20 ADD ADD MLOAD PUSH1 0x40 ADD MLOAD DUP5 PUSH1 0x3 DUP8 PUSH2 0x3317 SWAP2 SWAP1 PUSH2 0x43FF JUMP JUMPDEST DUP2 MLOAD DUP2 LT PUSH2 0x3327 JUMPI PUSH2 0x3327 PUSH2 0x44DE JUMP JUMPDEST PUSH1 0x20 MUL PUSH1 0x20 ADD ADD MLOAD PUSH1 0x40 ADD MLOAD PUSH1 0x40 MLOAD DUP5 PUSH4 0xFFFFFFFF AND PUSH1 0xE0 SHL DUP2 MSTORE PUSH1 0x4 ADD PUSH2 0x3351 SWAP4 SWAP3 SWAP2 SWAP1 PUSH2 0x3ED3 JUMP JUMPDEST PUSH1 0x20 PUSH1 0x40 MLOAD DUP1 DUP4 SUB DUP2 DUP7 DUP1 EXTCODESIZE ISZERO DUP1 ISZERO PUSH2 0x3369 JUMPI PUSH1 0x0 DUP1 REVERT JUMPDEST POP GAS DELEGATECALL ISZERO DUP1 ISZERO PUSH2 0x337D JUMPI RETURNDATASIZE PUSH1 0x0 DUP1 RETURNDATACOPY RETURNDATASIZE PUSH1 0x0 REVERT JUMPDEST POP POP POP POP PUSH1 0x40 MLOAD RETURNDATASIZE PUSH1 0x1F NOT PUSH1 0x1F DUP3 ADD AND DUP3 ADD DUP1 PUSH1 0x40 MSTORE POP DUP2 ADD SWAP1 PUSH2 0x33A1 SWAP2 SWAP1 PUSH2 0x3B4E JUMP JUMPDEST ISZERO PUSH2 0x6EF JUMPI PUSH2 0x6EF DUP4 DUP3 PUSH2 0x33B6 PUSH1 0x1 DUP7 PUSH2 0x43FF JUMP JUMPDEST DUP2 MLOAD DUP2 LT PUSH2 0x33C6 JUMPI PUSH2 0x33C6 PUSH2 0x44DE JUMP JUMPDEST PUSH1 0x20 MUL PUSH1 0x20 ADD ADD MLOAD PUSH1 0x40 ADD MLOAD PUSH2 0x19F2 JUMP JUMPDEST POP POP JUMP JUMPDEST PUSH1 0x0 SLOAD PUSH1 0x1 PUSH1 0xA0 SHL SWAP1 DIV PUSH1 0xFF AND PUSH2 0x342B JUMPI PUSH1 0x40 MLOAD PUSH3 0x461BCD PUSH1 0xE5 SHL DUP2 MSTORE PUSH1 0x20 PUSH1 0x4 DUP3 ADD MSTORE PUSH1 0x14 PUSH1 0x24 DUP3 ADD MSTORE PUSH20 0x14185D5CD8589B194E881B9BDD081C185D5CD959 PUSH1 0x62 SHL PUSH1 0x44 DUP3 ADD MSTORE PUSH1 0x64 ADD PUSH2 0x192 JUMP JUMPDEST PUSH1 0x0 DUP1 SLOAD PUSH1 0xFF PUSH1 0xA0 SHL NOT AND SWAP1 SSTORE PUSH32 0x5DB9EE0A495BF2E6FF9C91A7834C1BA4FDD244A5E8AA4E537BD38AEAE4B073AA CALLER JUMPDEST PUSH1 0x40 MLOAD PUSH1 0x1 PUSH1 0x1 PUSH1 0xA0 SHL SUB SWAP1 SWAP2 AND DUP2 MSTORE PUSH1 0x20 ADD PUSH1 0x40 MLOAD DUP1 SWAP2 SUB SWAP1 LOG1 JUMP JUMPDEST PUSH1 0x0 DUP1 SLOAD PUSH1 0x1 PUSH1 0x1 PUSH1 0xA0 SHL SUB DUP4 DUP2 AND PUSH1 0x1 PUSH1 0x1 PUSH1 0xA0 SHL SUB NOT DUP4 AND DUP2 OR DUP5 SSTORE PUSH1 0x40 MLOAD SWAP2 SWAP1 SWAP3 AND SWAP3 DUP4 SWAP2 PUSH32 0x8BE0079C531659141344CD1FD0A4F28419497F9722A3DAAFE3B4186F6B6457E0 SWAP2 SWAP1 LOG3 POP POP JUMP JUMPDEST PUSH1 0x0 SLOAD PUSH1 0x1 PUSH1 0xA0 SHL SWAP1 DIV PUSH1 0xFF AND ISZERO PUSH2 0x3515 JUMPI PUSH1 0x40 MLOAD PUSH3 0x461BCD PUSH1 0xE5 SHL DUP2 MSTORE PUSH1 0x20 PUSH1 0x4 DUP3 ADD MSTORE PUSH1 0x10 PUSH1 0x24 DUP3 ADD MSTORE PUSH16 0x14185D5CD8589B194E881C185D5CD959 PUSH1 0x82 SHL PUSH1 0x44 DUP3 ADD MSTORE PUSH1 0x64 ADD PUSH2 0x192 JUMP JUMPDEST PUSH1 0x0 DUP1 SLOAD PUSH1 0xFF PUSH1 0xA0 SHL NOT AND PUSH1 0x1 PUSH1 0xA0 SHL OR SWAP1 SSTORE PUSH32 0x62E78CEA01BEE320CD4E420270B5EA74000D11B0C9F74754EBDBFC544B05A258 PUSH2 0x345B CALLER SWAP1 JUMP JUMPDEST PUSH1 0x3 DUP1 SLOAD PUSH1 0x0 SWAP2 DUP3 SWAP2 PUSH4 0xFFFFFFFF DUP6 AND SWAP2 PUSH1 0xFF SWAP1 SWAP2 AND SWAP1 DUP4 PUSH2 0x3571 DUP4 PUSH2 0x447E JUMP JUMPDEST SWAP2 SWAP1 PUSH2 0x100 EXP DUP2 SLOAD DUP2 PUSH1 0xFF MUL NOT AND SWAP1 DUP4 PUSH1 0xFF AND MUL OR SWAP1 SSTORE POP PUSH1 0xFF AND NUMBER PUSH2 0x3597 SWAP2 SWAP1 PUSH2 0x43FF JUMP JUMPDEST PUSH1 0x40 DUP1 MLOAD SWAP2 BLOCKHASH PUSH1 0x20 DUP4 ADD MSTORE PUSH12 0xFFFFFFFFFFFFFFFFFFFFFFFF NOT PUSH1 0x60 DUP9 SWAP1 SHL AND SWAP1 DUP3 ADD MSTORE PUSH1 0x54 ADD PUSH1 0x40 MLOAD PUSH1 0x20 DUP2 DUP4 SUB SUB DUP2 MSTORE SWAP1 PUSH1 0x40 MSTORE DUP1 MLOAD SWAP1 PUSH1 0x20 ADD KECCAK256 PUSH1 0x0 SHR PUSH2 0x35E0 SWAP2 SWAP1 PUSH2 0x449E JUMP JUMPDEST PUSH1 0x3 SLOAD SWAP1 SWAP2 POP PUSH1 0xFA PUSH1 0xFF SWAP1 SWAP2 AND GT ISZERO PUSH2 0x317F JUMPI PUSH1 0x3 DUP1 SLOAD PUSH1 0xFF NOT AND SWAP1 SSTORE SWAP4 SWAP3 POP POP POP JUMP JUMPDEST PUSH1 0x1 SLOAD PUSH1 0x40 DUP1 MLOAD PUSH4 0x20DFEEFB PUSH1 0xE2 SHL DUP2 MSTORE SWAP1 MLOAD PUSH1 0x0 SWAP3 PUSH1 0x1 PUSH1 0x1 PUSH1 0xA0 SHL SUB AND SWAP2 PUSH4 0x837FBBEC SWAP2 PUSH1 0x4 DUP1 DUP4 ADD SWAP3 PUSH1 0x20 SWAP3 SWAP2 SWAP1 DUP3 SWAP1 SUB ADD DUP2 DUP7 DUP1 EXTCODESIZE ISZERO DUP1 ISZERO PUSH2 0x3649 JUMPI PUSH1 0x0 DUP1 REVERT JUMPDEST POP GAS STATICCALL ISZERO DUP1 ISZERO PUSH2 0x365D JUMPI RETURNDATASIZE PUSH1 0x0 DUP1 RETURNDATACOPY RETURNDATASIZE PUSH1 0x0 REVERT JUMPDEST POP POP POP POP PUSH1 0x40 MLOAD RETURNDATASIZE PUSH1 0x1F NOT PUSH1 0x1F DUP3 ADD AND DUP3 ADD DUP1 PUSH1 0x40 MSTORE POP DUP2 ADD SWAP1 PUSH2 0x3681 SWAP2 SWAP1 PUSH2 0x3B70 JUMP JUMPDEST PUSH1 0x1 PUSH1 0x0 SWAP1 SLOAD SWAP1 PUSH2 0x100 EXP SWAP1 DIV PUSH1 0x1 PUSH1 0x1 PUSH1 0xA0 SHL SUB AND PUSH1 0x1 PUSH1 0x1 PUSH1 0xA0 SHL SUB AND PUSH4 0x15A54A64 PUSH1 0x40 MLOAD DUP2 PUSH4 0xFFFFFFFF AND PUSH1 0xE0 SHL DUP2 MSTORE PUSH1 0x4 ADD PUSH1 0x20 PUSH1 0x40 MLOAD DUP1 DUP4 SUB DUP2 DUP7 DUP1 EXTCODESIZE ISZERO DUP1 ISZERO PUSH2 0x36CF JUMPI PUSH1 0x0 DUP1 REVERT JUMPDEST POP GAS STATICCALL ISZERO DUP1 ISZERO PUSH2 0x36E3 JUMPI RETURNDATASIZE PUSH1 0x0 DUP1 RETURNDATACOPY RETURNDATASIZE PUSH1 0x0 REVERT JUMPDEST POP POP POP POP PUSH1 0x40 MLOAD RETURNDATASIZE PUSH1 0x1F NOT PUSH1 0x1F DUP3 ADD AND DUP3 ADD DUP1 PUSH1 0x40 MSTORE POP DUP2 ADD SWAP1 PUSH2 0x3707 SWAP2 SWAP1 PUSH2 0x3B70 JUMP JUMPDEST LT ISZERO SWAP1 POP SWAP1 JUMP JUMPDEST PUSH1 0x0 PUSH2 0x317F DUP3 DUP5 PUSH2 0x43FF JUMP JUMPDEST PUSH1 0x0 DUP2 DUP2 DUP1 DUP1 PUSH1 0x2 JUMPDEST PUSH1 0x2A DUP2 LT ISZERO PUSH2 0x38FC JUMPI PUSH2 0x3738 PUSH2 0x100 DUP6 PUSH2 0x4389 JUMP JUMPDEST SWAP4 POP DUP5 DUP2 DUP2 MLOAD DUP2 LT PUSH2 0x374C JUMPI PUSH2 0x374C PUSH2 0x44DE JUMP JUMPDEST ADD PUSH1 0x20 ADD MLOAD PUSH1 0xF8 SHR SWAP3 POP DUP5 PUSH2 0x3762 DUP3 PUSH1 0x1 PUSH2 0x4338 JUMP JUMPDEST DUP2 MLOAD DUP2 LT PUSH2 0x3772 JUMPI PUSH2 0x3772 PUSH2 0x44DE JUMP JUMPDEST ADD PUSH1 0x20 ADD MLOAD PUSH1 0xF8 SHR SWAP2 POP PUSH1 0x61 PUSH1 0x1 PUSH1 0x1 PUSH1 0xA0 SHL SUB DUP5 AND LT DUP1 ISZERO SWAP1 PUSH2 0x37A0 JUMPI POP PUSH1 0x66 DUP4 PUSH1 0x1 PUSH1 0x1 PUSH1 0xA0 SHL SUB AND GT ISZERO JUMPDEST ISZERO PUSH2 0x37B7 JUMPI PUSH2 0x37B0 PUSH1 0x57 DUP5 PUSH2 0x43D7 JUMP JUMPDEST SWAP3 POP PUSH2 0x3822 JUMP JUMPDEST PUSH1 0x41 DUP4 PUSH1 0x1 PUSH1 0x1 PUSH1 0xA0 SHL SUB AND LT ISZERO DUP1 ISZERO PUSH2 0x37DB JUMPI POP PUSH1 0x46 DUP4 PUSH1 0x1 PUSH1 0x1 PUSH1 0xA0 SHL SUB AND GT ISZERO JUMPDEST ISZERO PUSH2 0x37EB JUMPI PUSH2 0x37B0 PUSH1 0x37 DUP5 PUSH2 0x43D7 JUMP JUMPDEST PUSH1 0x30 DUP4 PUSH1 0x1 PUSH1 0x1 PUSH1 0xA0 SHL SUB AND LT ISZERO DUP1 ISZERO PUSH2 0x380F JUMPI POP PUSH1 0x39 DUP4 PUSH1 0x1 PUSH1 0x1 PUSH1 0xA0 SHL SUB AND GT ISZERO JUMPDEST ISZERO PUSH2 0x3822 JUMPI PUSH2 0x381F PUSH1 0x30 DUP5 PUSH2 0x43D7 JUMP JUMPDEST SWAP3 POP JUMPDEST PUSH1 0x61 DUP3 PUSH1 0x1 PUSH1 0x1 PUSH1 0xA0 SHL SUB AND LT ISZERO DUP1 ISZERO PUSH2 0x3846 JUMPI POP PUSH1 0x66 DUP3 PUSH1 0x1 PUSH1 0x1 PUSH1 0xA0 SHL SUB AND GT ISZERO JUMPDEST ISZERO PUSH2 0x385D JUMPI PUSH2 0x3856 PUSH1 0x57 DUP4 PUSH2 0x43D7 JUMP JUMPDEST SWAP2 POP PUSH2 0x38C8 JUMP JUMPDEST PUSH1 0x41 DUP3 PUSH1 0x1 PUSH1 0x1 PUSH1 0xA0 SHL SUB AND LT ISZERO DUP1 ISZERO PUSH2 0x3881 JUMPI POP PUSH1 0x46 DUP3 PUSH1 0x1 PUSH1 0x1 PUSH1 0xA0 SHL SUB AND GT ISZERO JUMPDEST ISZERO PUSH2 0x3891 JUMPI PUSH2 0x3856 PUSH1 0x37 DUP4 PUSH2 0x43D7 JUMP JUMPDEST PUSH1 0x30 DUP3 PUSH1 0x1 PUSH1 0x1 PUSH1 0xA0 SHL SUB AND LT ISZERO DUP1 ISZERO PUSH2 0x38B5 JUMPI POP PUSH1 0x39 DUP3 PUSH1 0x1 PUSH1 0x1 PUSH1 0xA0 SHL SUB AND GT ISZERO JUMPDEST ISZERO PUSH2 0x38C8 JUMPI PUSH2 0x38C5 PUSH1 0x30 DUP4 PUSH2 0x43D7 JUMP JUMPDEST SWAP2 POP JUMPDEST DUP2 PUSH2 0x38D4 DUP5 PUSH1 0x10 PUSH2 0x4389 JUMP JUMPDEST PUSH2 0x38DE SWAP2 SWAP1 PUSH2 0x430D JUMP JUMPDEST PUSH2 0x38E8 SWAP1 DUP6 PUSH2 0x430D JUMP JUMPDEST SWAP4 POP PUSH2 0x38F5 PUSH1 0x2 DUP3 PUSH2 0x4338 JUMP JUMPDEST SWAP1 POP PUSH2 0x3723 JUMP JUMPDEST POP SWAP2 SWAP6 SWAP5 POP POP POP POP POP JUMP JUMPDEST DUP1 MLOAD PUSH2 0x3912 DUP2 PUSH2 0x450A JUMP JUMPDEST SWAP2 SWAP1 POP JUMP JUMPDEST PUSH1 0x0 DUP3 PUSH1 0x1F DUP4 ADD SLT PUSH2 0x3928 JUMPI PUSH1 0x0 DUP1 REVERT JUMPDEST DUP2 MLOAD PUSH2 0x393B PUSH2 0x3936 DUP3 PUSH2 0x42E5 JUMP JUMPDEST PUSH2 0x4290 JUMP JUMPDEST DUP2 DUP2 MSTORE DUP5 PUSH1 0x20 DUP4 DUP7 ADD ADD GT ISZERO PUSH2 0x3950 JUMPI PUSH1 0x0 DUP1 REVERT JUMPDEST PUSH2 0x3961 DUP3 PUSH1 0x20 DUP4 ADD PUSH1 0x20 DUP8 ADD PUSH2 0x4433 JUMP JUMPDEST SWAP5 SWAP4 POP POP POP POP JUMP JUMPDEST DUP1 MLOAD PUSH2 0xFFFF DUP2 AND DUP2 EQ PUSH2 0x3912 JUMPI PUSH1 0x0 DUP1 REVERT JUMPDEST DUP1 MLOAD PUSH1 0xFF DUP2 AND DUP2 EQ PUSH2 0x3912 JUMPI PUSH1 0x0 DUP1 REVERT JUMPDEST PUSH1 0x0 PUSH1 0x20 DUP3 DUP5 SUB SLT ISZERO PUSH2 0x399E JUMPI PUSH1 0x0 DUP1 REVERT JUMPDEST DUP2 CALLDATALOAD PUSH2 0x317F DUP2 PUSH2 0x450A JUMP JUMPDEST PUSH1 0x0 PUSH1 0x20 DUP1 DUP4 DUP6 SUB SLT ISZERO PUSH2 0x39BC JUMPI PUSH1 0x0 DUP1 REVERT JUMPDEST DUP3 MLOAD PUSH8 0xFFFFFFFFFFFFFFFF DUP2 GT ISZERO PUSH2 0x39D3 JUMPI PUSH1 0x0 DUP1 REVERT JUMPDEST DUP4 ADD PUSH1 0x1F DUP2 ADD DUP6 SGT PUSH2 0x39E4 JUMPI PUSH1 0x0 DUP1 REVERT JUMPDEST DUP1 MLOAD PUSH2 0x39F2 PUSH2 0x3936 DUP3 PUSH2 0x42C1 JUMP JUMPDEST DUP1 DUP3 DUP3 MSTORE DUP5 DUP3 ADD SWAP2 POP DUP5 DUP5 ADD DUP9 DUP7 DUP6 PUSH1 0x5 SHL DUP8 ADD ADD GT ISZERO PUSH2 0x3A12 JUMPI PUSH1 0x0 DUP1 REVERT JUMPDEST PUSH1 0x0 SWAP5 POP JUMPDEST DUP4 DUP6 LT ISZERO PUSH2 0x3A35 JUMPI DUP1 MLOAD DUP4 MSTORE PUSH1 0x1 SWAP5 SWAP1 SWAP5 ADD SWAP4 SWAP2 DUP6 ADD SWAP2 DUP6 ADD PUSH2 0x3A17 JUMP JUMPDEST POP SWAP8 SWAP7 POP POP POP POP POP POP POP JUMP JUMPDEST PUSH1 0x0 PUSH1 0x20 DUP1 DUP4 DUP6 SUB SLT ISZERO PUSH2 0x3A54 JUMPI PUSH1 0x0 DUP1 REVERT JUMPDEST DUP3 MLOAD PUSH8 0xFFFFFFFFFFFFFFFF DUP1 DUP3 GT ISZERO PUSH2 0x3A6C JUMPI PUSH1 0x0 DUP1 REVERT JUMPDEST DUP2 DUP6 ADD SWAP2 POP DUP6 PUSH1 0x1F DUP4 ADD SLT PUSH2 0x3A80 JUMPI PUSH1 0x0 DUP1 REVERT JUMPDEST DUP2 MLOAD PUSH2 0x3A8E PUSH2 0x3936 DUP3 PUSH2 0x42C1 JUMP JUMPDEST DUP1 DUP3 DUP3 MSTORE DUP6 DUP3 ADD SWAP2 POP DUP6 DUP6 ADD DUP10 DUP8 DUP6 PUSH1 0x5 SHL DUP9 ADD ADD GT ISZERO PUSH2 0x3AAE JUMPI PUSH1 0x0 DUP1 REVERT JUMPDEST PUSH1 0x0 JUMPDEST DUP5 DUP2 LT ISZERO PUSH2 0x3B3F JUMPI DUP2 MLOAD DUP7 DUP2 GT ISZERO PUSH2 0x3AC8 JUMPI PUSH1 0x0 DUP1 REVERT JUMPDEST DUP8 ADD PUSH1 0x80 DUP2 DUP14 SUB PUSH1 0x1F NOT ADD DUP2 SGT ISZERO PUSH2 0x3ADF JUMPI PUSH1 0x0 DUP1 REVERT JUMPDEST PUSH2 0x3AE7 PUSH2 0x4243 JUMP JUMPDEST DUP11 DUP4 ADD MLOAD DUP2 MSTORE PUSH1 0x40 DUP4 ADD MLOAD PUSH2 0x3AFB DUP2 PUSH2 0x450A JUMP JUMPDEST DUP2 DUP13 ADD MSTORE PUSH1 0x60 DUP4 ADD MLOAD DUP10 DUP2 GT ISZERO PUSH2 0x3B11 JUMPI PUSH1 0x0 DUP1 REVERT JUMPDEST PUSH2 0x3B1F DUP16 DUP14 DUP4 DUP8 ADD ADD PUSH2 0x3917 JUMP JUMPDEST PUSH1 0x40 DUP4 ADD MSTORE POP SWAP2 ADD MLOAD PUSH1 0x60 DUP3 ADD MSTORE DUP5 MSTORE SWAP3 DUP8 ADD SWAP3 SWAP1 DUP8 ADD SWAP1 PUSH1 0x1 ADD PUSH2 0x3AB1 JUMP JUMPDEST POP SWAP1 SWAP10 SWAP9 POP POP POP POP POP POP POP POP POP JUMP JUMPDEST PUSH1 0x0 PUSH1 0x20 DUP3 DUP5 SUB SLT ISZERO PUSH2 0x3B60 JUMPI PUSH1 0x0 DUP1 REVERT JUMPDEST DUP2 MLOAD DUP1 ISZERO ISZERO DUP2 EQ PUSH2 0x317F JUMPI PUSH1 0x0 DUP1 REVERT JUMPDEST PUSH1 0x0 PUSH1 0x20 DUP3 DUP5 SUB SLT ISZERO PUSH2 0x3B82 JUMPI PUSH1 0x0 DUP1 REVERT JUMPDEST POP MLOAD SWAP2 SWAP1 POP JUMP JUMPDEST PUSH1 0x0 DUP1 PUSH1 0x40 DUP4 DUP6 SUB SLT ISZERO PUSH2 0x3B9C JUMPI PUSH1 0x0 DUP1 REVERT JUMPDEST DUP3 CALLDATALOAD SWAP2 POP PUSH1 0x20 DUP4 ADD CALLDATALOAD PUSH8 0xFFFFFFFFFFFFFFFF DUP2 GT ISZERO PUSH2 0x3BBA JUMPI PUSH1 0x0 DUP1 REVERT JUMPDEST DUP4 ADD PUSH1 0x1F DUP2 ADD DUP6 SGT PUSH2 0x3BCB JUMPI PUSH1 0x0 DUP1 REVERT JUMPDEST DUP1 CALLDATALOAD PUSH2 0x3BD9 PUSH2 0x3936 DUP3 PUSH2 0x42E5 JUMP JUMPDEST DUP2 DUP2 MSTORE DUP7 PUSH1 0x20 DUP4 DUP6 ADD ADD GT ISZERO PUSH2 0x3BEE JUMPI PUSH1 0x0 DUP1 REVERT JUMPDEST DUP2 PUSH1 0x20 DUP5 ADD PUSH1 0x20 DUP4 ADD CALLDATACOPY PUSH1 0x0 PUSH1 0x20 DUP4 DUP4 ADD ADD MSTORE DUP1 SWAP4 POP POP POP POP SWAP3 POP SWAP3 SWAP1 POP JUMP JUMPDEST PUSH1 0x0 PUSH1 0x20 DUP3 DUP5 SUB SLT ISZERO PUSH2 0x3C20 JUMPI PUSH1 0x0 DUP1 REVERT JUMPDEST DUP2 MLOAD PUSH8 0xFFFFFFFFFFFFFFFF DUP2 GT ISZERO PUSH2 0x3C37 JUMPI PUSH1 0x0 DUP1 REVERT JUMPDEST PUSH2 0x3961 DUP5 DUP3 DUP6 ADD PUSH2 0x3917 JUMP JUMPDEST PUSH1 0x0 PUSH1 0x20 DUP3 DUP5 SUB SLT ISZERO PUSH2 0x3C55 JUMPI PUSH1 0x0 DUP1 REVERT JUMPDEST DUP2 MLOAD PUSH8 0xFFFFFFFFFFFFFFFF DUP1 DUP3 GT ISZERO PUSH2 0x3C6D JUMPI PUSH1 0x0 DUP1 REVERT JUMPDEST SWAP1 DUP4 ADD SWAP1 PUSH2 0x140 DUP3 DUP7 SUB SLT ISZERO PUSH2 0x3C82 JUMPI PUSH1 0x0 DUP1 REVERT JUMPDEST PUSH2 0x3C8A PUSH2 0x426C JUMP JUMPDEST PUSH2 0x3C93 DUP4 PUSH2 0x3969 JUMP JUMPDEST DUP2 MSTORE PUSH1 0x20 DUP4 ADD MLOAD PUSH1 0x20 DUP3 ADD MSTORE PUSH2 0x3CAB PUSH1 0x40 DUP5 ADD PUSH2 0x3907 JUMP JUMPDEST PUSH1 0x40 DUP3 ADD MSTORE PUSH1 0x60 DUP4 ADD MLOAD DUP3 DUP2 GT ISZERO PUSH2 0x3CC2 JUMPI PUSH1 0x0 DUP1 REVERT JUMPDEST PUSH2 0x3CCE DUP8 DUP3 DUP7 ADD PUSH2 0x3917 JUMP JUMPDEST PUSH1 0x60 DUP4 ADD MSTORE POP PUSH1 0x80 DUP4 ADD MLOAD PUSH1 0x80 DUP3 ADD MSTORE PUSH2 0x3CEA PUSH1 0xA0 DUP5 ADD PUSH2 0x397B JUMP JUMPDEST PUSH1 0xA0 DUP3 ADD MSTORE PUSH2 0x3CFB PUSH1 0xC0 DUP5 ADD PUSH2 0x397B JUMP JUMPDEST PUSH1 0xC0 DUP3 ADD MSTORE PUSH2 0x3D0C PUSH1 0xE0 DUP5 ADD PUSH2 0x397B JUMP JUMPDEST PUSH1 0xE0 DUP3 ADD MSTORE PUSH2 0x100 DUP4 DUP2 ADD MLOAD SWAP1 DUP3 ADD MSTORE PUSH2 0x120 SWAP3 DUP4 ADD MLOAD SWAP3 DUP2 ADD SWAP3 SWAP1 SWAP3 MSTORE POP SWAP4 SWAP3 POP POP POP JUMP JUMPDEST PUSH1 0x0 PUSH1 0x20 DUP3 DUP5 SUB SLT ISZERO PUSH2 0x3D44 JUMPI PUSH1 0x0 DUP1 REVERT JUMPDEST DUP2 MLOAD PUSH4 0xFFFFFFFF DUP2 AND DUP2 EQ PUSH2 0x317F JUMPI PUSH1 0x0 DUP1 REVERT JUMPDEST PUSH1 0x0 DUP2 MLOAD DUP1 DUP5 MSTORE PUSH2 0x3D70 DUP2 PUSH1 0x20 DUP7 ADD PUSH1 0x20 DUP7 ADD PUSH2 0x4433 JUMP JUMPDEST PUSH1 0x1F ADD PUSH1 0x1F NOT AND SWAP3 SWAP1 SWAP3 ADD PUSH1 0x20 ADD SWAP3 SWAP2 POP POP JUMP JUMPDEST PUSH1 0x1 DUP2 MSTORE PUSH1 0xB PUSH1 0xFA SHL PUSH1 0x20 DUP3 ADD MSTORE PUSH1 0x40 ADD SWAP1 JUMP JUMPDEST DUP4 DUP2 MSTORE PUSH12 0xFFFFFFFFFFFFFFFFFFFFFFFF NOT DUP4 PUSH1 0x60 SHL AND PUSH1 0x20 DUP3 ADD MSTORE PUSH1 0x0 DUP3 MLOAD PUSH2 0x3DC8 DUP2 PUSH1 0x34 DUP6 ADD PUSH1 0x20 DUP8 ADD PUSH2 0x4433 JUMP JUMPDEST SWAP2 SWAP1 SWAP2 ADD PUSH1 0x34 ADD SWAP5 SWAP4 POP POP POP POP JUMP JUMPDEST PUSH1 0x1 PUSH1 0x1 PUSH1 0xA0 SHL SUB SWAP3 SWAP1 SWAP3 AND DUP3 MSTORE PUSH1 0x20 DUP3 ADD MSTORE PUSH1 0x40 ADD SWAP1 JUMP JUMPDEST DUP3 DUP2 MSTORE PUSH1 0x40 PUSH1 0x20 DUP3 ADD MSTORE PUSH1 0x0 PUSH2 0x3961 PUSH1 0x40 DUP4 ADD DUP5 PUSH2 0x3D58 JUMP JUMPDEST DUP4 DUP2 MSTORE PUSH1 0x60 PUSH1 0x20 DUP3 ADD MSTORE PUSH1 0x0 PUSH2 0x3E22 PUSH1 0x60 DUP4 ADD DUP6 PUSH2 0x3D58 JUMP JUMPDEST DUP3 DUP2 SUB PUSH1 0x40 DUP5 ADD MSTORE PUSH2 0x3E34 DUP2 DUP6 PUSH2 0x3D58 JUMP JUMPDEST SWAP7 SWAP6 POP POP POP POP POP POP JUMP JUMPDEST DUP3 DUP2 MSTORE PUSH1 0x40 PUSH1 0x20 DUP1 DUP4 ADD DUP3 SWAP1 MSTORE DUP4 MLOAD DUP3 DUP5 ADD MSTORE DUP4 ADD MLOAD PUSH1 0x1 PUSH1 0x1 PUSH1 0xA0 SHL SUB AND PUSH1 0x60 DUP4 ADD MSTORE DUP3 ADD MLOAD PUSH1 0x80 DUP1 DUP4 ADD MSTORE PUSH1 0x0 SWAP1 PUSH2 0x3E7B PUSH1 0xC0 DUP5 ADD DUP3 PUSH2 0x3D58 JUMP JUMPDEST SWAP1 POP PUSH1 0x60 DUP5 ADD MLOAD PUSH1 0xA0 DUP5 ADD MSTORE DUP1 SWAP2 POP POP SWAP4 SWAP3 POP POP POP JUMP JUMPDEST PUSH1 0x20 DUP2 MSTORE PUSH1 0x0 PUSH2 0x317F PUSH1 0x20 DUP4 ADD DUP5 PUSH2 0x3D58 JUMP JUMPDEST PUSH1 0x40 DUP2 MSTORE PUSH1 0x0 PUSH2 0x3EB8 PUSH1 0x40 DUP4 ADD DUP6 PUSH2 0x3D58 JUMP JUMPDEST DUP3 DUP2 SUB PUSH1 0x20 DUP5 ADD MSTORE PUSH2 0x3ECA DUP2 DUP6 PUSH2 0x3D58 JUMP JUMPDEST SWAP6 SWAP5 POP POP POP POP POP JUMP JUMPDEST PUSH1 0x60 DUP2 MSTORE PUSH1 0x0 PUSH2 0x3EE6 PUSH1 0x60 DUP4 ADD DUP7 PUSH2 0x3D58 JUMP JUMPDEST DUP3 DUP2 SUB PUSH1 0x20 DUP5 ADD MSTORE PUSH2 0x3EF8 DUP2 DUP7 PUSH2 0x3D58 JUMP JUMPDEST SWAP1 POP DUP3 DUP2 SUB PUSH1 0x40 DUP5 ADD MSTORE PUSH2 0x3E34 DUP2 DUP6 PUSH2 0x3D58 JUMP JUMPDEST PUSH1 0x0 PUSH2 0x120 DUP1 DUP4 MSTORE PUSH2 0x3F20 DUP2 DUP5 ADD DUP9 PUSH2 0x3D58 JUMP JUMPDEST SWAP1 POP DUP3 DUP2 SUB PUSH1 0x20 DUP5 ADD MSTORE PUSH2 0x3F34 DUP2 DUP8 PUSH2 0x3D58 JUMP JUMPDEST SWAP1 POP DUP3 DUP2 SUB PUSH1 0x40 DUP5 ADD MSTORE PUSH2 0x3F47 DUP2 PUSH2 0x3D84 JUMP JUMPDEST SWAP1 POP DUP3 DUP2 SUB PUSH1 0x60 DUP5 ADD MSTORE PUSH2 0x3F5B DUP2 DUP7 PUSH2 0x3D58 JUMP JUMPDEST SWAP1 POP DUP3 DUP2 SUB PUSH1 0x80 DUP5 ADD MSTORE PUSH2 0x3F6E DUP2 PUSH2 0x3D84 JUMP JUMPDEST SWAP1 POP DUP3 DUP2 SUB PUSH1 0xA0 DUP5 ADD MSTORE PUSH2 0x3F82 DUP2 DUP6 PUSH2 0x3D58 JUMP JUMPDEST SWAP1 POP DUP3 DUP2 SUB DUP1 PUSH1 0xC0 DUP6 ADD MSTORE PUSH1 0x2 DUP3 MSTORE PUSH2 0x1619 PUSH1 0xF1 SHL PUSH1 0x20 DUP4 ADD MSTORE PUSH1 0x40 DUP2 ADD PUSH1 0xE0 DUP6 ADD MSTORE POP PUSH2 0x3FC1 PUSH1 0x40 DUP3 ADD PUSH1 0x1 DUP2 MSTORE PUSH1 0x1F PUSH1 0xFA SHL PUSH1 0x20 DUP3 ADD MSTORE PUSH1 0x40 ADD SWAP1 JUMP JUMPDEST DUP4 DUP2 SUB PUSH2 0x100 DUP6 ADD MSTORE PUSH1 0x0 DUP2 MSTORE SWAP1 POP PUSH1 0x20 DUP2 ADD SWAP8 SWAP7 POP POP POP POP POP POP POP JUMP JUMPDEST PUSH1 0x0 PUSH2 0x120 DUP1 DUP4 MSTORE PUSH2 0x3FF3 DUP2 DUP5 ADD DUP9 PUSH2 0x3D58 JUMP JUMPDEST SWAP1 POP DUP3 DUP2 SUB PUSH1 0x20 DUP5 ADD MSTORE PUSH2 0x4007 DUP2 DUP8 PUSH2 0x3D58 JUMP JUMPDEST SWAP1 POP DUP3 DUP2 SUB PUSH1 0x40 DUP5 ADD MSTORE PUSH2 0x401A DUP2 PUSH2 0x3D84 JUMP JUMPDEST SWAP1 POP DUP3 DUP2 SUB PUSH1 0x60 DUP5 ADD MSTORE PUSH2 0x402E DUP2 DUP7 PUSH2 0x3D58 JUMP JUMPDEST SWAP1 POP DUP3 DUP2 SUB PUSH1 0x80 DUP5 ADD MSTORE PUSH2 0x4041 DUP2 PUSH2 0x3D84 JUMP JUMPDEST SWAP1 POP DUP3 DUP2 SUB PUSH1 0xA0 DUP5 ADD MSTORE PUSH2 0x4055 DUP2 DUP6 PUSH2 0x3D58 JUMP JUMPDEST SWAP1 POP DUP3 DUP2 SUB DUP1 PUSH1 0xC0 DUP6 ADD MSTORE PUSH1 0x2 DUP3 MSTORE PUSH2 0x2C31 PUSH1 0xF0 SHL PUSH1 0x20 DUP4 ADD MSTORE PUSH1 0x40 DUP2 ADD PUSH1 0xE0 DUP6 ADD MSTORE POP PUSH2 0x3FC1 PUSH1 0x40 DUP3 ADD PUSH1 0x1 DUP2 MSTORE PUSH1 0x1F PUSH1 0xFA SHL PUSH1 0x20 DUP3 ADD MSTORE PUSH1 0x40 ADD SWAP1 JUMP JUMPDEST PUSH1 0x40 DUP2 MSTORE PUSH1 0x0 PUSH2 0x40A7 PUSH1 0x40 DUP4 ADD DUP5 PUSH2 0x3D58 JUMP JUMPDEST DUP3 DUP2 SUB PUSH1 0x20 DUP5 ADD MSTORE PUSH1 0xB DUP2 MSTORE PUSH11 0x21A922A0AA27A92FABA7A7 PUSH1 0xA9 SHL PUSH1 0x20 DUP3 ADD MSTORE PUSH1 0x40 DUP2 ADD SWAP2 POP POP SWAP3 SWAP2 POP POP JUMP JUMPDEST PUSH1 0x40 DUP2 MSTORE PUSH1 0x0 PUSH2 0x40E7 PUSH1 0x40 DUP4 ADD DUP5 PUSH2 0x3D58 JUMP JUMPDEST DUP3 DUP2 SUB PUSH1 0x20 DUP5 ADD MSTORE PUSH1 0x9 DUP2 MSTORE PUSH9 0x10D05390D153131151 PUSH1 0xBA SHL PUSH1 0x20 DUP3 ADD MSTORE PUSH1 0x40 DUP2 ADD SWAP2 POP POP SWAP3 SWAP2 POP POP JUMP JUMPDEST PUSH1 0x40 DUP2 MSTORE PUSH1 0x0 PUSH2 0x4125 PUSH1 0x40 DUP4 ADD DUP5 PUSH2 0x3D58 JUMP JUMPDEST DUP3 DUP2 SUB PUSH1 0x20 DUP5 ADD MSTORE PUSH1 0xC DUP2 MSTORE PUSH12 0x10D491505513D497D313D4D5 PUSH1 0xA2 SHL PUSH1 0x20 DUP3 ADD MSTORE PUSH1 0x40 DUP2 ADD SWAP2 POP POP SWAP3 SWAP2 POP POP JUMP JUMPDEST PUSH1 0x20 DUP1 DUP3 MSTORE DUP2 DUP2 ADD MSTORE PUSH32 0x4F776E61626C653A2063616C6C6572206973206E6F7420746865206F776E6572 PUSH1 0x40 DUP3 ADD MSTORE PUSH1 0x60 ADD SWAP1 JUMP JUMPDEST PUSH1 0x20 DUP2 MSTORE PUSH2 0x419D PUSH1 0x20 DUP3 ADD DUP4 MLOAD PUSH2 0xFFFF AND SWAP1 MSTORE JUMP JUMPDEST PUSH1 0x20 DUP3 ADD MLOAD PUSH1 0x40 DUP3 ADD MSTORE PUSH1 0x0 PUSH1 0x40 DUP4 ADD MLOAD PUSH2 0x41C3 PUSH1 0x60 DUP5 ADD DUP3 PUSH1 0x1 PUSH1 0x1 PUSH1 0xA0 SHL SUB AND SWAP1 MSTORE JUMP JUMPDEST POP PUSH1 0x60 DUP4 ADD MLOAD PUSH2 0x140 DUP1 PUSH1 0x80 DUP6 ADD MSTORE PUSH2 0x41E0 PUSH2 0x160 DUP6 ADD DUP4 PUSH2 0x3D58 JUMP JUMPDEST SWAP2 POP PUSH1 0x80 DUP6 ADD MLOAD PUSH1 0xA0 DUP6 ADD MSTORE PUSH1 0xA0 DUP6 ADD MLOAD PUSH2 0x4200 PUSH1 0xC0 DUP7 ADD DUP3 PUSH1 0xFF AND SWAP1 MSTORE JUMP JUMPDEST POP PUSH1 0xC0 DUP6 ADD MLOAD PUSH1 0xFF DUP2 AND PUSH1 0xE0 DUP7 ADD MSTORE POP PUSH1 0xE0 DUP6 ADD MLOAD PUSH2 0x100 PUSH2 0x4226 DUP2 DUP8 ADD DUP4 PUSH1 0xFF AND SWAP1 MSTORE JUMP JUMPDEST DUP7 ADD MLOAD PUSH2 0x120 DUP7 DUP2 ADD SWAP2 SWAP1 SWAP2 MSTORE SWAP1 SWAP6 ADD MLOAD SWAP4 ADD SWAP3 SWAP1 SWAP3 MSTORE POP SWAP2 SWAP1 POP JUMP JUMPDEST PUSH1 0x40 MLOAD PUSH1 0x80 DUP2 ADD PUSH8 0xFFFFFFFFFFFFFFFF DUP2 GT DUP3 DUP3 LT OR ISZERO PUSH2 0x4266 JUMPI PUSH2 0x4266 PUSH2 0x44F4 JUMP JUMPDEST PUSH1 0x40 MSTORE SWAP1 JUMP JUMPDEST PUSH1 0x40 MLOAD PUSH2 0x140 DUP2 ADD PUSH8 0xFFFFFFFFFFFFFFFF DUP2 GT DUP3 DUP3 LT OR ISZERO PUSH2 0x4266 JUMPI PUSH2 0x4266 PUSH2 0x44F4 JUMP JUMPDEST PUSH1 0x40 MLOAD PUSH1 0x1F DUP3 ADD PUSH1 0x1F NOT AND DUP2 ADD PUSH8 0xFFFFFFFFFFFFFFFF DUP2 GT DUP3 DUP3 LT OR ISZERO PUSH2 0x42B9 JUMPI PUSH2 0x42B9 PUSH2 0x44F4 JUMP JUMPDEST PUSH1 0x40 MSTORE SWAP2 SWAP1 POP JUMP JUMPDEST PUSH1 0x0 PUSH8 0xFFFFFFFFFFFFFFFF DUP3 GT ISZERO PUSH2 0x42DB JUMPI PUSH2 0x42DB PUSH2 0x44F4 JUMP JUMPDEST POP PUSH1 0x5 SHL PUSH1 0x20 ADD SWAP1 JUMP JUMPDEST PUSH1 0x0 PUSH8 0xFFFFFFFFFFFFFFFF DUP3 GT ISZERO PUSH2 0x42FF JUMPI PUSH2 0x42FF PUSH2 0x44F4 JUMP JUMPDEST POP PUSH1 0x1F ADD PUSH1 0x1F NOT AND PUSH1 0x20 ADD SWAP1 JUMP JUMPDEST PUSH1 0x0 PUSH1 0x1 PUSH1 0x1 PUSH1 0xA0 SHL SUB DUP3 DUP2 AND DUP5 DUP3 AND DUP1 DUP4 SUB DUP3 GT ISZERO PUSH2 0x432F JUMPI PUSH2 0x432F PUSH2 0x44B2 JUMP JUMPDEST ADD SWAP5 SWAP4 POP POP POP POP JUMP JUMPDEST PUSH1 0x0 DUP3 NOT DUP3 GT ISZERO PUSH2 0x434B JUMPI PUSH2 0x434B PUSH2 0x44B2 JUMP JUMPDEST POP ADD SWAP1 JUMP JUMPDEST PUSH1 0x0 PUSH1 0xFF DUP3 AND PUSH1 0xFF DUP5 AND DUP1 PUSH1 0xFF SUB DUP3 GT ISZERO PUSH2 0x436D JUMPI PUSH2 0x436D PUSH2 0x44B2 JUMP JUMPDEST ADD SWAP4 SWAP3 POP POP POP JUMP JUMPDEST PUSH1 0x0 DUP3 PUSH2 0x4384 JUMPI PUSH2 0x4384 PUSH2 0x44C8 JUMP JUMPDEST POP DIV SWAP1 JUMP JUMPDEST PUSH1 0x0 PUSH1 0x1 PUSH1 0x1 PUSH1 0xA0 SHL SUB DUP3 DUP2 AND DUP5 DUP3 AND DUP2 ISZERO ISZERO DUP3 DUP5 DIV DUP3 GT AND ISZERO PUSH2 0x43AF JUMPI PUSH2 0x43AF PUSH2 0x44B2 JUMP JUMPDEST MUL SWAP5 SWAP4 POP POP POP POP JUMP JUMPDEST PUSH1 0x0 DUP2 PUSH1 0x0 NOT DIV DUP4 GT DUP3 ISZERO ISZERO AND ISZERO PUSH2 0x43D2 JUMPI PUSH2 0x43D2 PUSH2 0x44B2 JUMP JUMPDEST POP MUL SWAP1 JUMP JUMPDEST PUSH1 0x0 PUSH1 0x1 PUSH1 0x1 PUSH1 0xA0 SHL SUB DUP4 DUP2 AND SWAP1 DUP4 AND DUP2 DUP2 LT ISZERO PUSH2 0x43F7 JUMPI PUSH2 0x43F7 PUSH2 0x44B2 JUMP JUMPDEST SUB SWAP4 SWAP3 POP POP POP JUMP JUMPDEST PUSH1 0x0 DUP3 DUP3 LT ISZERO PUSH2 0x4411 JUMPI PUSH2 0x4411 PUSH2 0x44B2 JUMP JUMPDEST POP SUB SWAP1 JUMP JUMPDEST PUSH1 0x0 PUSH4 0xFFFFFFFF DUP4 DUP2 AND SWAP1 DUP4 AND DUP2 DUP2 LT ISZERO PUSH2 0x43F7 JUMPI PUSH2 0x43F7 PUSH2 0x44B2 JUMP JUMPDEST PUSH1 0x0 JUMPDEST DUP4 DUP2 LT ISZERO PUSH2 0x444E JUMPI DUP2 DUP2 ADD MLOAD DUP4 DUP3 ADD MSTORE PUSH1 0x20 ADD PUSH2 0x4436 JUMP JUMPDEST DUP4 DUP2 GT ISZERO PUSH2 0x445D JUMPI PUSH1 0x0 DUP5 DUP5 ADD MSTORE JUMPDEST POP POP POP POP JUMP JUMPDEST PUSH1 0x0 PUSH1 0x0 NOT DUP3 EQ ISZERO PUSH2 0x4477 JUMPI PUSH2 0x4477 PUSH2 0x44B2 JUMP JUMPDEST POP PUSH1 0x1 ADD SWAP1 JUMP JUMPDEST PUSH1 0x0 PUSH1 0xFF DUP3 AND PUSH1 0xFF DUP2 EQ ISZERO PUSH2 0x4495 JUMPI PUSH2 0x4495 PUSH2 0x44B2 JUMP JUMPDEST PUSH1 0x1 ADD SWAP3 SWAP2 POP POP JUMP JUMPDEST PUSH1 0x0 DUP3 PUSH2 0x44AD JUMPI PUSH2 0x44AD PUSH2 0x44C8 JUMP JUMPDEST POP MOD SWAP1 JUMP JUMPDEST PUSH4 0x4E487B71 PUSH1 0xE0 SHL PUSH1 0x0 MSTORE PUSH1 0x11 PUSH1 0x4 MSTORE PUSH1 0x24 PUSH1 0x0 REVERT JUMPDEST PUSH4 0x4E487B71 PUSH1 0xE0 SHL PUSH1 0x0 MSTORE PUSH1 0x12 PUSH1 0x4 MSTORE PUSH1 0x24 PUSH1 0x0 REVERT JUMPDEST PUSH4 0x4E487B71 PUSH1 0xE0 SHL PUSH1 0x0 MSTORE PUSH1 0x32 PUSH1 0x4 MSTORE PUSH1 0x24 PUSH1 0x0 REVERT JUMPDEST PUSH4 0x4E487B71 PUSH1 0xE0 SHL PUSH1 0x0 MSTORE PUSH1 0x41 PUSH1 0x4 MSTORE PUSH1 0x24 PUSH1 0x0 REVERT JUMPDEST PUSH1 0x1 PUSH1 0x1 PUSH1 0xA0 SHL SUB DUP2 AND DUP2 EQ PUSH2 0x19EF JUMPI PUSH1 0x0 DUP1 REVERT INVALID LOG2 PUSH5 0x6970667358 0x22 SLT KECCAK256 SELFBALANCE 0xE5 STOP CODESIZE 0x28 DUP8 PUSH29 0xBBF6D334E9686965A76D1459A4E3130059E21FE6661805EFDD64736F6C PUSH4 0x43000807 STOP CALLER "
		},
		"gasEstimates": {
			"creation": {
				"codeDepositCost": "3549800",
				"executionCost": "infinite",
				"totalCost": "infinite"
			},
			"external": {
				"arbitrateBet(bytes32,string)": "infinite",
				"getMyPendingArbitrations()": "infinite",
				"owner()": "2323",
				"pause()": "29779",
				"paused()": "2343",
				"registerAsArbitrator()": "infinite",
				"renounceOwnership()": "28181",
				"transferOwnership(address)": "infinite",
				"unpause()": "29773"
			},
			"internal": {
				"finalizeBet(bytes32,string memory)": "infinite",
				"getRandomIndex(address,uint32)": "infinite",
				"isServiceTokensExhausted()": "infinite",
				"validateIfFinalized(bytes32)": "infinite"
			}
		},
		"methodIdentifiers": {
			"arbitrateBet(bytes32,string)": "0fd6b7ff",
			"getMyPendingArbitrations()": "908a0375",
			"owner()": "8da5cb5b",
			"pause()": "8456cb59",
			"paused()": "5c975abb",
			"registerAsArbitrator()": "ebc8c500",
			"renounceOwnership()": "715018a6",
			"transferOwnership(address)": "f2fde38b",
			"unpause()": "3f4ba83a"
		}
	},
	"abi": [
		{
			"inputs": [
				{
					"internalType": "address",
					"name": "sureBetDataContract",
					"type": "address"
				}
			],
			"stateMutability": "nonpayable",
			"type": "constructor"
		},
		{
			"anonymous": false,
			"inputs": [
				{
					"indexed": true,
					"internalType": "bytes32",
					"name": "betKey",
					"type": "bytes32"
				},
				{
					"indexed": true,
					"internalType": "address",
					"name": "arbitrator",
					"type": "address"
				}
			],
			"name": "BetArbitrated",
			"type": "event"
		},
		{
			"anonymous": false,
			"inputs": [
				{
					"indexed": true,
					"internalType": "bytes32",
					"name": "betKey",
					"type": "bytes32"
				},
				{
					"indexed": false,
					"internalType": "string",
					"name": "outcome",
					"type": "string"
				}
			],
			"name": "BetFinalized",
			"type": "event"
		},
		{
			"anonymous": false,
			"inputs": [
				{
					"indexed": true,
					"internalType": "bytes32",
					"name": "betKey",
					"type": "bytes32"
				}
			],
			"name": "BetInArbitration",
			"type": "event"
		},
		{
			"anonymous": false,
			"inputs": [
				{
					"indexed": true,
					"internalType": "address",
					"name": "previousOwner",
					"type": "address"
				},
				{
					"indexed": true,
					"internalType": "address",
					"name": "newOwner",
					"type": "address"
				}
			],
			"name": "OwnershipTransferred",
			"type": "event"
		},
		{
			"anonymous": false,
			"inputs": [
				{
					"indexed": false,
					"internalType": "address",
					"name": "account",
					"type": "address"
				}
			],
			"name": "Paused",
			"type": "event"
		},
		{
			"anonymous": false,
			"inputs": [
				{
					"indexed": false,
					"internalType": "address",
					"name": "account",
					"type": "address"
				}
			],
			"name": "Unpaused",
			"type": "event"
		},
		{
			"inputs": [
				{
					"internalType": "bytes32",
					"name": "betKey",
					"type": "bytes32"
				},
				{
					"internalType": "string",
					"name": "outcome",
					"type": "string"
				}
			],
			"name": "arbitrateBet",
			"outputs": [],
			"stateMutability": "nonpayable",
			"type": "function"
		},
		{
			"inputs": [],
			"name": "getMyPendingArbitrations",
			"outputs": [
				{
					"internalType": "string",
					"name": "",
					"type": "string"
				}
			],
			"stateMutability": "view",
			"type": "function"
		},
		{
			"inputs": [],
			"name": "owner",
			"outputs": [
				{
					"internalType": "address",
					"name": "",
					"type": "address"
				}
			],
			"stateMutability": "view",
			"type": "function"
		},
		{
			"inputs": [],
			"name": "pause",
			"outputs": [],
			"stateMutability": "nonpayable",
			"type": "function"
		},
		{
			"inputs": [],
			"name": "paused",
			"outputs": [
				{
					"internalType": "bool",
					"name": "",
					"type": "bool"
				}
			],
			"stateMutability": "view",
			"type": "function"
		},
		{
			"inputs": [],
			"name": "registerAsArbitrator",
			"outputs": [],
			"stateMutability": "nonpayable",
			"type": "function"
		},
		{
			"inputs": [],
			"name": "renounceOwnership",
			"outputs": [],
			"stateMutability": "nonpayable",
			"type": "function"
		},
		{
			"inputs": [
				{
					"internalType": "address",
					"name": "newOwner",
					"type": "address"
				}
			],
			"name": "transferOwnership",
			"outputs": [],
			"stateMutability": "nonpayable",
			"type": "function"
		},
		{
			"inputs": [],
			"name": "unpause",
			"outputs": [],
			"stateMutability": "nonpayable",
			"type": "function"
		}
	]
}