{
	"data": {
		"bytecode": {
			"linkReferences": {
				"contracts/Lib.sol": {
					"ConversionUtil": [
						{
							"length": 20,
							"start": 1122
						},
						{
							"length": 20,
							"start": 2136
						},
						{
							"length": 20,
							"start": 2701
						},
						{
							"length": 20,
							"start": 3350
						},
						{
							"length": 20,
							"start": 3607
						},
						{
							"length": 20,
							"start": 4074
						},
						{
							"length": 20,
							"start": 4450
						},
						{
							"length": 20,
							"start": 4997
						}
					],
					"Lib": [
						{
							"length": 20,
							"start": 1095
						},
						{
							"length": 20,
							"start": 2109
						},
						{
							"length": 20,
							"start": 3322
						},
						{
							"length": 20,
							"start": 3580
						},
						{
							"length": 20,
							"start": 3918
						},
						{
							"length": 20,
							"start": 4047
						},
						{
							"length": 20,
							"start": 4294
						},
						{
							"length": 20,
							"start": 4423
						}
					]
				}
			},
			"object": "60806040523480156200001157600080fd5b5060405162002a8c38038062002a8c8339810160408190526200003491620000c2565b6200003f3362000072565b6000805460ff60a01b19169055600180546001600160a01b0319166001600160a01b0392909216919091179055620000f4565b600080546001600160a01b038381166001600160a01b0319831681178455604051919092169283917f8be0079c531659141344cd1fd0a4f28419497f9722a3daafe3b4186f6b6457e09190a35050565b600060208284031215620000d557600080fd5b81516001600160a01b0381168114620000ed57600080fd5b9392505050565b61298880620001046000396000f3fe608060405234801561001057600080fd5b506004361061009e5760003560e01c80638bcbc129116100665780638bcbc129146101035780638da5cb5b1461011657806399535bd7146101315780639c11180d14610139578063f2fde38b1461015957600080fd5b806319275d79146100a35780633f4ba83a146100cc5780635c975abb146100d6578063715018a6146100f35780638456cb59146100fb575b600080fd5b6100b66100b1366004612219565b61016c565b6040516100c39190612341565b60405180910390f35b6100d461049e565b005b600054600160a01b900460ff1660405190151581526020016100c3565b6100d46104db565b6100d461050f565b6100b6610111366004612264565b610541565b6000546040516001600160a01b0390911681526020016100c3565b6100b66108b0565b61014c6101473660046120c3565b6111a2565b6040516100c391906122c6565b6100d4610167366004611fd0565b611a6e565b60608060005b60015460405163584603c960e01b815261ffff8089166004830152808816602483015286166044820152600060648201526001600160a01b039091169063584603c99060840160206040518083038186803b1580156101d057600080fd5b505afa1580156101e4573d6000803e3d6000fd5b505050506040513d601f19601f8201168201806040525081019061020891906120dc565b811015610495576001546040516337f288c760e21b815261ffff808916600483015280881660248301528616604482015260006064820181905260848201849052916001600160a01b03169063dfca231c9060a40160206040518083038186803b15801561027557600080fd5b505afa158015610289573d6000803e3d6000fd5b505050506040513d601f19601f820116820180604052508101906102ad91906120dc565b600154604051631bf4604f60e11b8152600481018390529192506000916001600160a01b03909116906337e8c09e9060240160006040518083038186803b1580156102f757600080fd5b505afa15801561030b573d6000803e3d6000fd5b505050506040513d6000823e601f3d908101601f19168201604052610333919081019061212a565b905042816080015111156104805773__$6cf167dfb7c5c94c9fb5276b5691085b47$__63dfbe0b1f8573__$acd136b36b4fe61d8edff89239067e5de1$__639201de55866040518263ffffffff1660e01b815260040161039591815260200190565b60006040518083038186803b1580156103ad57600080fd5b505af41580156103c1573d6000803e3d6000fd5b505050506040513d6000823e601f3d908101601f191682016040526103e991908101906120f5565b6103f68560800151611b09565b8560600151610409876101000151611b09565b6040518663ffffffff1660e01b8152600401610429959493929190612382565b60006040518083038186803b15801561044157600080fd5b505af4158015610455573d6000803e3d6000fd5b505050506040513d6000823e601f3d908101601f1916820160405261047d91908101906120f5565b93505b5050808061048d906128ba565b915050610172565b50949350505050565b6000546001600160a01b031633146104d15760405162461bcd60e51b81526004016104c890612640565b60405180910390fd5b6104d9611c29565b565b6000546001600160a01b031633146105055760405162461bcd60e51b81526004016104c890612640565b6104d96000611cc6565b6000546001600160a01b031633146105395760405162461bcd60e51b81526004016104c890612640565b6104d9611d16565b606080835b8381116108a857600080600061055b84611d9e565b9194509250905082828260005b60015460405163584603c960e01b815261ffff8087166004830152808616602483015284166044820152600060648201526001600160a01b039091169063584603c99060840160206040518083038186803b1580156105c657600080fd5b505afa1580156105da573d6000803e3d6000fd5b505050506040513d601f19601f820116820180604052508101906105fe91906120dc565b81101561088b576001546040516337f288c760e21b815261ffff808716600483015280861660248301528416604482015260006064820181905260848201849052916001600160a01b03169063dfca231c9060a40160206040518083038186803b15801561066b57600080fd5b505afa15801561067f573d6000803e3d6000fd5b505050506040513d601f19601f820116820180604052508101906106a391906120dc565b600154604051631bf4604f60e11b8152600481018390529192506000916001600160a01b03909116906337e8c09e9060240160006040518083038186803b1580156106ed57600080fd5b505afa158015610701573d6000803e3d6000fd5b505050506040513d6000823e601f3d908101601f19168201604052610729919081019061212a565b905042816080015111156108765773__$6cf167dfb7c5c94c9fb5276b5691085b47$__63dfbe0b1f8c73__$acd136b36b4fe61d8edff89239067e5de1$__639201de55866040518263ffffffff1660e01b815260040161078b91815260200190565b60006040518083038186803b1580156107a357600080fd5b505af41580156107b7573d6000803e3d6000fd5b505050506040513d6000823e601f3d908101601f191682016040526107df91908101906120f5565b6107ec8560800151611b09565b85606001516107ff876101000151611b09565b6040518663ffffffff1660e01b815260040161081f959493929190612382565b60006040518083038186803b15801561083757600080fd5b505af415801561084b573d6000803e3d6000fd5b505050506040513d6000823e601f3d908101601f1916820160405261087391908101906120f5565b9a505b50508080610883906128ba565b915050610568565b5050505050505080620151806108a19190612711565b9050610546565b509392505050565b60015460405163d5a1ad6160e01b81523360048201526060916000916001600160a01b039091169063d5a1ad619060240160006040518083038186803b1580156108f957600080fd5b505afa15801561090d573d6000803e3d6000fd5b505050506040513d6000823e601f3d908101601f191682016040526109359190810190611ff4565b9050606060008251111561119c5760005b825181101561119a57600083828151811061096357610963612901565b6020908102919091010151604051635e57966d60e01b815233600482015290915060009073__$acd136b36b4fe61d8edff89239067e5de1$__90635e57966d9060240160006040518083038186803b1580156109be57600080fd5b505af41580156109d2573d6000803e3d6000fd5b505050506040513d6000823e601f3d908101601f191682016040526109fa91908101906120f5565b600154604051631bf4604f60e11b8152600481018590529192506000916001600160a01b03909116906337e8c09e9060240160006040518083038186803b158015610a4457600080fd5b505afa158015610a58573d6000803e3d6000fd5b505050506040513d6000823e601f3d908101601f19168201604052610a80919081019061212a565b6001546040805180820182526005815264424554454560d81b602082015290516322ad378f60e21b81529293506000926001600160a01b0390921691638ab4de3c91610ad191889190600401612328565b60006040518083038186803b158015610ae957600080fd5b505afa158015610afd573d6000803e3d6000fd5b505050506040513d6000823e601f3d908101601f19168201604052610b2591908101906120f5565b600154604080518082018252600a81526920a92124aa2920aa27a960b11b602082015290516322ad378f60e21b81529293506000926001600160a01b0390921691638ab4de3c91610b7b91899190600401612328565b60006040518083038186803b158015610b9357600080fd5b505afa158015610ba7573d6000803e3d6000fd5b505050506040513d6000823e601f3d908101601f19168201604052610bcf91908101906120f5565b6040808501519051635e57966d60e01b81526001600160a01b03909116600482015290915073__$6cf167dfb7c5c94c9fb5276b5691085b47$__9063bed34bba9073__$acd136b36b4fe61d8edff89239067e5de1$__90635e57966d9060240160006040518083038186803b158015610c4757600080fd5b505af4158015610c5b573d6000803e3d6000fd5b505050506040513d6000823e601f3d908101601f19168201604052610c8391908101906120f5565b866040518363ffffffff1660e01b8152600401610ca1929190612354565b60206040518083038186803b158015610cb957600080fd5b505af4158015610ccd573d6000803e3d6000fd5b505050506040513d601f19601f82011682018060405250810190610cf191906120a1565b15610e3b5773__$6cf167dfb7c5c94c9fb5276b5691085b47$__63dfbe0b1f8873__$acd136b36b4fe61d8edff89239067e5de1$__639201de55896040518263ffffffff1660e01b8152600401610d4a91815260200190565b60006040518083038186803b158015610d6257600080fd5b505af4158015610d76573d6000803e3d6000fd5b505050506040513d6000823e601f3d908101601f19168201604052610d9e91908101906120f5565b610dab8760800151611b09565b8760600151610dc08960e0015160ff16611b09565b6040518663ffffffff1660e01b8152600401610de0959493929190612448565b60006040518083038186803b158015610df857600080fd5b505af4158015610e0c573d6000803e3d6000fd5b505050506040513d6000823e601f3d908101601f19168201604052610e3491908101906120f5565b9650611182565b604051635f69a5dd60e11b815273__$6cf167dfb7c5c94c9fb5276b5691085b47$__9063bed34bba90610e749085908890600401612354565b60206040518083038186803b158015610e8c57600080fd5b505af4158015610ea0573d6000803e3d6000fd5b505050506040513d601f19601f82011682018060405250810190610ec491906120a1565b15610fb35773__$6cf167dfb7c5c94c9fb5276b5691085b47$__63dfbe0b1f8873__$acd136b36b4fe61d8edff89239067e5de1$__639201de55896040518263ffffffff1660e01b8152600401610f1d91815260200190565b60006040518083038186803b158015610f3557600080fd5b505af4158015610f49573d6000803e3d6000fd5b505050506040513d6000823e601f3d908101601f19168201604052610f7191908101906120f5565b610f7e8760800151611b09565b8760600151610f938960e0015160ff16611b09565b6040518663ffffffff1660e01b8152600401610de09594939291906124f0565b604051635f69a5dd60e11b815273__$6cf167dfb7c5c94c9fb5276b5691085b47$__9063bed34bba90610fec9084908890600401612354565b60206040518083038186803b15801561100457600080fd5b505af4158015611018573d6000803e3d6000fd5b505050506040513d601f19601f8201168201806040525081019061103c91906120a1565b156111825773__$6cf167dfb7c5c94c9fb5276b5691085b47$__63dfbe0b1f8873__$acd136b36b4fe61d8edff89239067e5de1$__639201de55896040518263ffffffff1660e01b815260040161109591815260200190565b60006040518083038186803b1580156110ad57600080fd5b505af41580156110c1573d6000803e3d6000fd5b505050506040513d6000823e601f3d908101601f191682016040526110e991908101906120f5565b6110f68760800151611b09565b876060015161110b8960e0015160ff16611b09565b6040518663ffffffff1660e01b815260040161112b959493929190612598565b60006040518083038186803b15801561114357600080fd5b505af4158015611157573d6000803e3d6000fd5b505050506040513d6000823e601f3d908101601f1916820160405261117f91908101906120f5565b96505b50505050508080611192906128ba565b915050610946565b505b92915050565b60408051600f808252610200820190925260609160009190816020015b60608152602001906001900390816111bf57905050600154604051631bf4604f60e11b8152600481018690529192506000916001600160a01b03909116906337e8c09e9060240160006040518083038186803b15801561121e57600080fd5b505afa158015611232573d6000803e3d6000fd5b505050506040513d6000823e601f3d908101601f1916820160405261125a919081019061212a565b6040818101519051635e57966d60e01b81526001600160a01b03909116600482015290915073__$acd136b36b4fe61d8edff89239067e5de1$__90635e57966d9060240160006040518083038186803b1580156112b657600080fd5b505af41580156112ca573d6000803e3d6000fd5b505050506040513d6000823e601f3d908101601f191682016040526112f291908101906120f5565b8260008151811061130557611305612901565b602002602001018190525080606001518260018151811061132857611328612901565b60200260200101819052506113408160800151611b09565b8260028151811061135357611353612901565b602002602001018190525061136e8160a0015160ff16611b09565b8260038151811061138157611381612901565b602002602001018190525061139c8160c0015160ff16611b09565b826004815181106113af576113af612901565b60200260200101819052506113c8816101000151611b09565b826005815181106113db576113db612901565b60200260200101819052506113f4816101200151611b09565b8260068151811061140757611407612901565b602090810291909101810191909152600154604080518082018252600a81526920a92124aa2920aa27a960b11b93810193909352516322ad378f60e21b81526001600160a01b0390911691638ab4de3c91611466918891600401612328565b60006040518083038186803b15801561147e57600080fd5b505afa158015611492573d6000803e3d6000fd5b505050506040513d6000823e601f3d908101601f191682016040526114ba91908101906120f5565b826007815181106114cd576114cd612901565b602090810291909101810191909152600154604080518082018252600e81526d41524249545241544f524e414d4560901b93810193909352516322ad378f60e21b81526001600160a01b0390911691638ab4de3c91611530918891600401612328565b60006040518083038186803b15801561154857600080fd5b505afa15801561155c573d6000803e3d6000fd5b505050506040513d6000823e601f3d908101601f1916820160405261158491908101906120f5565b8260088151811061159757611597612901565b602090810291909101810191909152600154604080518082018252600b81526a57494e5343454e4152494f60a81b93810193909352516322ad378f60e21b81526001600160a01b0390911691638ab4de3c916115f7918891600401612328565b60006040518083038186803b15801561160f57600080fd5b505afa158015611623573d6000803e3d6000fd5b505050506040513d6000823e601f3d908101601f1916820160405261164b91908101906120f5565b8260098151811061165e5761165e612901565b602090810291909101810191909152600154604080518082018252600c81526b4c4f53455343454e4152494f60a01b93810193909352516322ad378f60e21b81526001600160a01b0390911691638ab4de3c916116bf918891600401612328565b60006040518083038186803b1580156116d757600080fd5b505afa1580156116eb573d6000803e3d6000fd5b505050506040513d6000823e601f3d908101601f1916820160405261171391908101906120f5565b82600a8151811061172657611726612901565b602090810291909101810191909152600154604080518082018252600e81526d43414e43454c5343454e4152494f60901b93810193909352516322ad378f60e21b81526001600160a01b0390911691638ab4de3c91611789918891600401612328565b60006040518083038186803b1580156117a157600080fd5b505afa1580156117b5573d6000803e3d6000fd5b505050506040513d6000823e601f3d908101601f191682016040526117dd91908101906120f5565b82600b815181106117f0576117f0612901565b602090810291909101810191909152600154604080518082018252601481527320a92124aa2920aa27a921a7a6a6a4a9a9a4a7a760611b93810193909352516322ad378f60e21b81526001600160a01b0390911691638ab4de3c91611859918891600401612328565b60006040518083038186803b15801561187157600080fd5b505afa158015611885573d6000803e3d6000fd5b505050506040513d6000823e601f3d908101601f191682016040526118ad91908101906120f5565b82600c815181106118c0576118c0612901565b602090810291909101810191909152600154604080518082018252601081526f1091551051d0525394d5105353d5539560821b93810193909352516322ad378f60e21b81526001600160a01b0390911691638ab4de3c91611925918891600401612328565b60006040518083038186803b15801561193d57600080fd5b505afa158015611951573d6000803e3d6000fd5b505050506040513d6000823e601f3d908101601f1916820160405261197991908101906120f5565b82600d8151811061198c5761198c612901565b602090810291909101810191909152600154604080518082018252601481527314d51052d154115490d15395149154555254915160621b93810193909352516322ad378f60e21b81526001600160a01b0390911691638ab4de3c916119f5918891600401612328565b60006040518083038186803b158015611a0d57600080fd5b505afa158015611a21573d6000803e3d6000fd5b505050506040513d6000823e601f3d908101601f19168201604052611a4991908101906120f5565b82600e81518110611a5c57611a5c612901565b60209081029190910101525092915050565b6000546001600160a01b03163314611a985760405162461bcd60e51b81526004016104c890612640565b6001600160a01b038116611afd5760405162461bcd60e51b815260206004820152602660248201527f4f776e61626c653a206e6577206f776e657220697320746865207a65726f206160448201526564647265737360d01b60648201526084016104c8565b611b0681611cc6565b50565b606081611b2d5750506040805180820190915260018152600360fc1b602082015290565b8160005b8115611b575780611b41816128ba565b9150611b509050600a8361277c565b9150611b31565b60008167ffffffffffffffff811115611b7257611b72612917565b6040519080825280601f01601f191660200182016040528015611b9c576020820181803683370190505b509050815b851561049557611bb2600182612873565b90506000611bc1600a8861277c565b611bcc90600a612815565b611bd69088612873565b611be1906030612729565b905060008160f81b905080848481518110611bfe57611bfe612901565b60200101906001600160f81b031916908160001a905350611c20600a8961277c565b97505050611ba1565b600054600160a01b900460ff16611c795760405162461bcd60e51b815260206004820152601460248201527314185d5cd8589b194e881b9bdd081c185d5cd95960621b60448201526064016104c8565b6000805460ff60a01b191690557f5db9ee0a495bf2e6ff9c91a7834c1ba4fdd244a5e8aa4e537bd38aeae4b073aa335b6040516001600160a01b03909116815260200160405180910390a1565b600080546001600160a01b038381166001600160a01b0319831681178455604051919092169283917f8be0079c531659141344cd1fd0a4f28419497f9722a3daafe3b4186f6b6457e09190a35050565b600054600160a01b900460ff1615611d635760405162461bcd60e51b815260206004820152601060248201526f14185d5cd8589b194e881c185d5cd95960821b60448201526064016104c8565b6000805460ff60a01b1916600160a01b1790557f62e78cea01bee320cd4e420270b5ea74000d11b0c9f74754ebdbfc544b05a258611ca93390565b60008080611db7611db2620151808661277c565b611dc4565b9196909550909350915050565b60008080838162253d8c611ddb8362010bd96126d0565b611de591906126d0565b9050600062023ab1611df8836004612790565b611e02919061274e565b90506004611e138262023ab1612790565b611e1e9060036126d0565b611e28919061274e565b611e329083612834565b9150600062164b09611e458460016126d0565b611e5190610fa0612790565b611e5b919061274e565b90506004611e6b826105b5612790565b611e75919061274e565b611e7f9084612834565b611e8a90601f6126d0565b9250600061098f611e9c856050612790565b611ea6919061274e565b905060006050611eb88361098f612790565b611ec2919061274e565b611ecc9086612834565b9050611ed9600b8361274e565b9450611ee685600c612790565b611ef18360026126d0565b611efb9190612834565b91508483611f0a603187612834565b611f15906064612790565b611f1f91906126d0565b611f2991906126d0565b9a919950975095505050505050565b8051611f438161292d565b919050565b600082601f830112611f5957600080fd5b815167ffffffffffffffff811115611f7357611f73612917565b611f86601f8201601f191660200161269f565b818152846020838601011115611f9b57600080fd5b611fac82602083016020870161288a565b949350505050565b8051611f4381612942565b805160ff81168114611f4357600080fd5b600060208284031215611fe257600080fd5b8135611fed8161292d565b9392505050565b6000602080838503121561200757600080fd5b825167ffffffffffffffff8082111561201f57600080fd5b818501915085601f83011261203357600080fd5b81518181111561204557612045612917565b8060051b915061205684830161269f565b8181528481019084860184860187018a101561207157600080fd5b600095505b83861015612094578051835260019590950194918601918601612076565b5098975050505050505050565b6000602082840312156120b357600080fd5b81518015158114611fed57600080fd5b6000602082840312156120d557600080fd5b5035919050565b6000602082840312156120ee57600080fd5b5051919050565b60006020828403121561210757600080fd5b815167ffffffffffffffff81111561211e57600080fd5b611fac84828501611f48565b60006020828403121561213c57600080fd5b815167ffffffffffffffff8082111561215457600080fd5b90830190610140828603121561216957600080fd5b612171612675565b61217a83611fb4565b81526020830151602082015261219260408401611f38565b60408201526060830151828111156121a957600080fd5b6121b587828601611f48565b606083015250608083015160808201526121d160a08401611fbf565b60a08201526121e260c08401611fbf565b60c08201526121f360e08401611fbf565b60e082015261010083810151908201526101209283015192810192909252509392505050565b60008060006060848603121561222e57600080fd5b833561223981612942565b9250602084013561224981612942565b9150604084013561225981612942565b809150509250925092565b6000806040838503121561227757600080fd5b50508035926020909101359150565b6000815180845261229e81602086016020860161288a565b601f01601f19169290920160200192915050565b60018152600b60fa1b602082015260400190565b6000602080830181845280855180835260408601915060408160051b870101925083870160005b8281101561231b57603f19888603018452612309858351612286565b945092850192908501906001016122ed565b5092979650505050505050565b828152604060208201526000611fac6040830184612286565b602081526000611fed6020830184612286565b6040815260006123676040830185612286565b82810360208401526123798185612286565b95945050505050565b600061012080835261239681840189612286565b905082810360208401526123aa8188612286565b905082810360408401526123bd816122b2565b905082810360608401526123d18187612286565b905082810360808401526123e4816122b2565b905082810360a08401526123f88186612286565b905082810360c084015261240b816122b2565b905082810360e084015261241f8185612286565b83810361010085015260018152601f60fa1b602082015290506040810198975050505050505050565b600061012080835261245c81840189612286565b905082810360208401526124708188612286565b90508281036040840152612483816122b2565b905082810360608401526124978187612286565b905082810360808401526124aa816122b2565b905082810360a08401526124be8186612286565b90508281038060c085015260038252620b0c4b60ea1b60208301526040810160e08501525061241f6040820185612286565b600061012080835261250481840189612286565b905082810360208401526125188188612286565b9050828103604084015261252b816122b2565b9050828103606084015261253f8187612286565b90508281036080840152612552816122b2565b905082810360a08401526125668186612286565b90508281038060c085015260038252620b0c8b60ea1b60208301526040810160e08501525061241f6040820185612286565b60006101208083526125ac81840189612286565b905082810360208401526125c08188612286565b905082810360408401526125d3816122b2565b905082810360608401526125e78187612286565b905082810360808401526125fa816122b2565b905082810360a084015261260e8186612286565b90508281038060c085015260038252620b0d0b60ea1b60208301526040810160e08501525061241f6040820185612286565b6020808252818101527f4f776e61626c653a2063616c6c6572206973206e6f7420746865206f776e6572604082015260600190565b604051610140810167ffffffffffffffff8111828210171561269957612699612917565b60405290565b604051601f8201601f1916810167ffffffffffffffff811182821017156126c8576126c8612917565b604052919050565b600080821280156001600160ff1b03849003851316156126f2576126f26128d5565b600160ff1b839003841281161561270b5761270b6128d5565b50500190565b60008219821115612724576127246128d5565b500190565b600060ff821660ff84168060ff03821115612746576127466128d5565b019392505050565b60008261275d5761275d6128eb565b600160ff1b821460001984141615612777576127776128d5565b500590565b60008261278b5761278b6128eb565b500490565b60006001600160ff1b03818413828413808216868404861116156127b6576127b66128d5565b600160ff1b60008712828116878305891216156127d5576127d56128d5565b600087129250878205871284841616156127f1576127f16128d5565b87850587128184161615612807576128076128d5565b505050929093029392505050565b600081600019048311821515161561282f5761282f6128d5565b500290565b60008083128015600160ff1b850184121615612852576128526128d5565b6001600160ff1b038401831381161561286d5761286d6128d5565b50500390565b600082821015612885576128856128d5565b500390565b60005b838110156128a557818101518382015260200161288d565b838111156128b4576000848401525b50505050565b60006000198214156128ce576128ce6128d5565b5060010190565b634e487b7160e01b600052601160045260246000fd5b634e487b7160e01b600052601260045260246000fd5b634e487b7160e01b600052603260045260246000fd5b634e487b7160e01b600052604160045260246000fd5b6001600160a01b0381168114611b0657600080fd5b61ffff81168114611b0657600080fdfea2646970667358221220501c9af436ec66a4abdc7fb85038f677d44e1940ec066204eac12d23f5a5d1c864736f6c63430008070033",
			"opcodes": "PUSH1 0x80 PUSH1 0x40 MSTORE CALLVALUE DUP1 ISZERO PUSH3 0x11 JUMPI PUSH1 0x0 DUP1 REVERT JUMPDEST POP PUSH1 0x40 MLOAD PUSH3 0x2A8C CODESIZE SUB DUP1 PUSH3 0x2A8C DUP4 CODECOPY DUP2 ADD PUSH1 0x40 DUP2 SWAP1 MSTORE PUSH3 0x34 SWAP2 PUSH3 0xC2 JUMP JUMPDEST PUSH3 0x3F CALLER PUSH3 0x72 JUMP JUMPDEST PUSH1 0x0 DUP1 SLOAD PUSH1 0xFF PUSH1 0xA0 SHL NOT AND SWAP1 SSTORE PUSH1 0x1 DUP1 SLOAD PUSH1 0x1 PUSH1 0x1 PUSH1 0xA0 SHL SUB NOT AND PUSH1 0x1 PUSH1 0x1 PUSH1 0xA0 SHL SUB SWAP3 SWAP1 SWAP3 AND SWAP2 SWAP1 SWAP2 OR SWAP1 SSTORE PUSH3 0xF4 JUMP JUMPDEST PUSH1 0x0 DUP1 SLOAD PUSH1 0x1 PUSH1 0x1 PUSH1 0xA0 SHL SUB DUP4 DUP2 AND PUSH1 0x1 PUSH1 0x1 PUSH1 0xA0 SHL SUB NOT DUP4 AND DUP2 OR DUP5 SSTORE PUSH1 0x40 MLOAD SWAP2 SWAP1 SWAP3 AND SWAP3 DUP4 SWAP2 PUSH32 0x8BE0079C531659141344CD1FD0A4F28419497F9722A3DAAFE3B4186F6B6457E0 SWAP2 SWAP1 LOG3 POP POP JUMP JUMPDEST PUSH1 0x0 PUSH1 0x20 DUP3 DUP5 SUB SLT ISZERO PUSH3 0xD5 JUMPI PUSH1 0x0 DUP1 REVERT JUMPDEST DUP2 MLOAD PUSH1 0x1 PUSH1 0x1 PUSH1 0xA0 SHL SUB DUP2 AND DUP2 EQ PUSH3 0xED JUMPI PUSH1 0x0 DUP1 REVERT JUMPDEST SWAP4 SWAP3 POP POP POP JUMP JUMPDEST PUSH2 0x2988 DUP1 PUSH3 0x104 PUSH1 0x0 CODECOPY PUSH1 0x0 RETURN INVALID PUSH1 0x80 PUSH1 0x40 MSTORE CALLVALUE DUP1 ISZERO PUSH2 0x10 JUMPI PUSH1 0x0 DUP1 REVERT JUMPDEST POP PUSH1 0x4 CALLDATASIZE LT PUSH2 0x9E JUMPI PUSH1 0x0 CALLDATALOAD PUSH1 0xE0 SHR DUP1 PUSH4 0x8BCBC129 GT PUSH2 0x66 JUMPI DUP1 PUSH4 0x8BCBC129 EQ PUSH2 0x103 JUMPI DUP1 PUSH4 0x8DA5CB5B EQ PUSH2 0x116 JUMPI DUP1 PUSH4 0x99535BD7 EQ PUSH2 0x131 JUMPI DUP1 PUSH4 0x9C11180D EQ PUSH2 0x139 JUMPI DUP1 PUSH4 0xF2FDE38B EQ PUSH2 0x159 JUMPI PUSH1 0x0 DUP1 REVERT JUMPDEST DUP1 PUSH4 0x19275D79 EQ PUSH2 0xA3 JUMPI DUP1 PUSH4 0x3F4BA83A EQ PUSH2 0xCC JUMPI DUP1 PUSH4 0x5C975ABB EQ PUSH2 0xD6 JUMPI DUP1 PUSH4 0x715018A6 EQ PUSH2 0xF3 JUMPI DUP1 PUSH4 0x8456CB59 EQ PUSH2 0xFB JUMPI JUMPDEST PUSH1 0x0 DUP1 REVERT JUMPDEST PUSH2 0xB6 PUSH2 0xB1 CALLDATASIZE PUSH1 0x4 PUSH2 0x2219 JUMP JUMPDEST PUSH2 0x16C JUMP JUMPDEST PUSH1 0x40 MLOAD PUSH2 0xC3 SWAP2 SWAP1 PUSH2 0x2341 JUMP JUMPDEST PUSH1 0x40 MLOAD DUP1 SWAP2 SUB SWAP1 RETURN JUMPDEST PUSH2 0xD4 PUSH2 0x49E JUMP JUMPDEST STOP JUMPDEST PUSH1 0x0 SLOAD PUSH1 0x1 PUSH1 0xA0 SHL SWAP1 DIV PUSH1 0xFF AND PUSH1 0x40 MLOAD SWAP1 ISZERO ISZERO DUP2 MSTORE PUSH1 0x20 ADD PUSH2 0xC3 JUMP JUMPDEST PUSH2 0xD4 PUSH2 0x4DB JUMP JUMPDEST PUSH2 0xD4 PUSH2 0x50F JUMP JUMPDEST PUSH2 0xB6 PUSH2 0x111 CALLDATASIZE PUSH1 0x4 PUSH2 0x2264 JUMP JUMPDEST PUSH2 0x541 JUMP JUMPDEST PUSH1 0x0 SLOAD PUSH1 0x40 MLOAD PUSH1 0x1 PUSH1 0x1 PUSH1 0xA0 SHL SUB SWAP1 SWAP2 AND DUP2 MSTORE PUSH1 0x20 ADD PUSH2 0xC3 JUMP JUMPDEST PUSH2 0xB6 PUSH2 0x8B0 JUMP JUMPDEST PUSH2 0x14C PUSH2 0x147 CALLDATASIZE PUSH1 0x4 PUSH2 0x20C3 JUMP JUMPDEST PUSH2 0x11A2 JUMP JUMPDEST PUSH1 0x40 MLOAD PUSH2 0xC3 SWAP2 SWAP1 PUSH2 0x22C6 JUMP JUMPDEST PUSH2 0xD4 PUSH2 0x167 CALLDATASIZE PUSH1 0x4 PUSH2 0x1FD0 JUMP JUMPDEST PUSH2 0x1A6E JUMP JUMPDEST PUSH1 0x60 DUP1 PUSH1 0x0 JUMPDEST PUSH1 0x1 SLOAD PUSH1 0x40 MLOAD PUSH4 0x584603C9 PUSH1 0xE0 SHL DUP2 MSTORE PUSH2 0xFFFF DUP1 DUP10 AND PUSH1 0x4 DUP4 ADD MSTORE DUP1 DUP9 AND PUSH1 0x24 DUP4 ADD MSTORE DUP7 AND PUSH1 0x44 DUP3 ADD MSTORE PUSH1 0x0 PUSH1 0x64 DUP3 ADD MSTORE PUSH1 0x1 PUSH1 0x1 PUSH1 0xA0 SHL SUB SWAP1 SWAP2 AND SWAP1 PUSH4 0x584603C9 SWAP1 PUSH1 0x84 ADD PUSH1 0x20 PUSH1 0x40 MLOAD DUP1 DUP4 SUB DUP2 DUP7 DUP1 EXTCODESIZE ISZERO DUP1 ISZERO PUSH2 0x1D0 JUMPI PUSH1 0x0 DUP1 REVERT JUMPDEST POP GAS STATICCALL ISZERO DUP1 ISZERO PUSH2 0x1E4 JUMPI RETURNDATASIZE PUSH1 0x0 DUP1 RETURNDATACOPY RETURNDATASIZE PUSH1 0x0 REVERT JUMPDEST POP POP POP POP PUSH1 0x40 MLOAD RETURNDATASIZE PUSH1 0x1F NOT PUSH1 0x1F DUP3 ADD AND DUP3 ADD DUP1 PUSH1 0x40 MSTORE POP DUP2 ADD SWAP1 PUSH2 0x208 SWAP2 SWAP1 PUSH2 0x20DC JUMP JUMPDEST DUP2 LT ISZERO PUSH2 0x495 JUMPI PUSH1 0x1 SLOAD PUSH1 0x40 MLOAD PUSH4 0x37F288C7 PUSH1 0xE2 SHL DUP2 MSTORE PUSH2 0xFFFF DUP1 DUP10 AND PUSH1 0x4 DUP4 ADD MSTORE DUP1 DUP9 AND PUSH1 0x24 DUP4 ADD MSTORE DUP7 AND PUSH1 0x44 DUP3 ADD MSTORE PUSH1 0x0 PUSH1 0x64 DUP3 ADD DUP2 SWAP1 MSTORE PUSH1 0x84 DUP3 ADD DUP5 SWAP1 MSTORE SWAP2 PUSH1 0x1 PUSH1 0x1 PUSH1 0xA0 SHL SUB AND SWAP1 PUSH4 0xDFCA231C SWAP1 PUSH1 0xA4 ADD PUSH1 0x20 PUSH1 0x40 MLOAD DUP1 DUP4 SUB DUP2 DUP7 DUP1 EXTCODESIZE ISZERO DUP1 ISZERO PUSH2 0x275 JUMPI PUSH1 0x0 DUP1 REVERT JUMPDEST POP GAS STATICCALL ISZERO DUP1 ISZERO PUSH2 0x289 JUMPI RETURNDATASIZE PUSH1 0x0 DUP1 RETURNDATACOPY RETURNDATASIZE PUSH1 0x0 REVERT JUMPDEST POP POP POP POP PUSH1 0x40 MLOAD RETURNDATASIZE PUSH1 0x1F NOT PUSH1 0x1F DUP3 ADD AND DUP3 ADD DUP1 PUSH1 0x40 MSTORE POP DUP2 ADD SWAP1 PUSH2 0x2AD SWAP2 SWAP1 PUSH2 0x20DC JUMP JUMPDEST PUSH1 0x1 SLOAD PUSH1 0x40 MLOAD PUSH4 0x1BF4604F PUSH1 0xE1 SHL DUP2 MSTORE PUSH1 0x4 DUP2 ADD DUP4 SWAP1 MSTORE SWAP2 SWAP3 POP PUSH1 0x0 SWAP2 PUSH1 0x1 PUSH1 0x1 PUSH1 0xA0 SHL SUB SWAP1 SWAP2 AND SWAP1 PUSH4 0x37E8C09E SWAP1 PUSH1 0x24 ADD PUSH1 0x0 PUSH1 0x40 MLOAD DUP1 DUP4 SUB DUP2 DUP7 DUP1 EXTCODESIZE ISZERO DUP1 ISZERO PUSH2 0x2F7 JUMPI PUSH1 0x0 DUP1 REVERT JUMPDEST POP GAS STATICCALL ISZERO DUP1 ISZERO PUSH2 0x30B JUMPI RETURNDATASIZE PUSH1 0x0 DUP1 RETURNDATACOPY RETURNDATASIZE PUSH1 0x0 REVERT JUMPDEST POP POP POP POP PUSH1 0x40 MLOAD RETURNDATASIZE PUSH1 0x0 DUP3 RETURNDATACOPY PUSH1 0x1F RETURNDATASIZE SWAP1 DUP2 ADD PUSH1 0x1F NOT AND DUP3 ADD PUSH1 0x40 MSTORE PUSH2 0x333 SWAP2 SWAP1 DUP2 ADD SWAP1 PUSH2 0x212A JUMP JUMPDEST SWAP1 POP TIMESTAMP DUP2 PUSH1 0x80 ADD MLOAD GT ISZERO PUSH2 0x480 JUMPI PUSH20 0x0 PUSH4 0xDFBE0B1F DUP6 PUSH20 0x0 PUSH4 0x9201DE55 DUP7 PUSH1 0x40 MLOAD DUP3 PUSH4 0xFFFFFFFF AND PUSH1 0xE0 SHL DUP2 MSTORE PUSH1 0x4 ADD PUSH2 0x395 SWAP2 DUP2 MSTORE PUSH1 0x20 ADD SWAP1 JUMP JUMPDEST PUSH1 0x0 PUSH1 0x40 MLOAD DUP1 DUP4 SUB DUP2 DUP7 DUP1 EXTCODESIZE ISZERO DUP1 ISZERO PUSH2 0x3AD JUMPI PUSH1 0x0 DUP1 REVERT JUMPDEST POP GAS DELEGATECALL ISZERO DUP1 ISZERO PUSH2 0x3C1 JUMPI RETURNDATASIZE PUSH1 0x0 DUP1 RETURNDATACOPY RETURNDATASIZE PUSH1 0x0 REVERT JUMPDEST POP POP POP POP PUSH1 0x40 MLOAD RETURNDATASIZE PUSH1 0x0 DUP3 RETURNDATACOPY PUSH1 0x1F RETURNDATASIZE SWAP1 DUP2 ADD PUSH1 0x1F NOT AND DUP3 ADD PUSH1 0x40 MSTORE PUSH2 0x3E9 SWAP2 SWAP1 DUP2 ADD SWAP1 PUSH2 0x20F5 JUMP JUMPDEST PUSH2 0x3F6 DUP6 PUSH1 0x80 ADD MLOAD PUSH2 0x1B09 JUMP JUMPDEST DUP6 PUSH1 0x60 ADD MLOAD PUSH2 0x409 DUP8 PUSH2 0x100 ADD MLOAD PUSH2 0x1B09 JUMP JUMPDEST PUSH1 0x40 MLOAD DUP7 PUSH4 0xFFFFFFFF AND PUSH1 0xE0 SHL DUP2 MSTORE PUSH1 0x4 ADD PUSH2 0x429 SWAP6 SWAP5 SWAP4 SWAP3 SWAP2 SWAP1 PUSH2 0x2382 JUMP JUMPDEST PUSH1 0x0 PUSH1 0x40 MLOAD DUP1 DUP4 SUB DUP2 DUP7 DUP1 EXTCODESIZE ISZERO DUP1 ISZERO PUSH2 0x441 JUMPI PUSH1 0x0 DUP1 REVERT JUMPDEST POP GAS DELEGATECALL ISZERO DUP1 ISZERO PUSH2 0x455 JUMPI RETURNDATASIZE PUSH1 0x0 DUP1 RETURNDATACOPY RETURNDATASIZE PUSH1 0x0 REVERT JUMPDEST POP POP POP POP PUSH1 0x40 MLOAD RETURNDATASIZE PUSH1 0x0 DUP3 RETURNDATACOPY PUSH1 0x1F RETURNDATASIZE SWAP1 DUP2 ADD PUSH1 0x1F NOT AND DUP3 ADD PUSH1 0x40 MSTORE PUSH2 0x47D SWAP2 SWAP1 DUP2 ADD SWAP1 PUSH2 0x20F5 JUMP JUMPDEST SWAP4 POP JUMPDEST POP POP DUP1 DUP1 PUSH2 0x48D SWAP1 PUSH2 0x28BA JUMP JUMPDEST SWAP2 POP POP PUSH2 0x172 JUMP JUMPDEST POP SWAP5 SWAP4 POP POP POP POP JUMP JUMPDEST PUSH1 0x0 SLOAD PUSH1 0x1 PUSH1 0x1 PUSH1 0xA0 SHL SUB AND CALLER EQ PUSH2 0x4D1 JUMPI PUSH1 0x40 MLOAD PUSH3 0x461BCD PUSH1 0xE5 SHL DUP2 MSTORE PUSH1 0x4 ADD PUSH2 0x4C8 SWAP1 PUSH2 0x2640 JUMP JUMPDEST PUSH1 0x40 MLOAD DUP1 SWAP2 SUB SWAP1 REVERT JUMPDEST PUSH2 0x4D9 PUSH2 0x1C29 JUMP JUMPDEST JUMP JUMPDEST PUSH1 0x0 SLOAD PUSH1 0x1 PUSH1 0x1 PUSH1 0xA0 SHL SUB AND CALLER EQ PUSH2 0x505 JUMPI PUSH1 0x40 MLOAD PUSH3 0x461BCD PUSH1 0xE5 SHL DUP2 MSTORE PUSH1 0x4 ADD PUSH2 0x4C8 SWAP1 PUSH2 0x2640 JUMP JUMPDEST PUSH2 0x4D9 PUSH1 0x0 PUSH2 0x1CC6 JUMP JUMPDEST PUSH1 0x0 SLOAD PUSH1 0x1 PUSH1 0x1 PUSH1 0xA0 SHL SUB AND CALLER EQ PUSH2 0x539 JUMPI PUSH1 0x40 MLOAD PUSH3 0x461BCD PUSH1 0xE5 SHL DUP2 MSTORE PUSH1 0x4 ADD PUSH2 0x4C8 SWAP1 PUSH2 0x2640 JUMP JUMPDEST PUSH2 0x4D9 PUSH2 0x1D16 JUMP JUMPDEST PUSH1 0x60 DUP1 DUP4 JUMPDEST DUP4 DUP2 GT PUSH2 0x8A8 JUMPI PUSH1 0x0 DUP1 PUSH1 0x0 PUSH2 0x55B DUP5 PUSH2 0x1D9E JUMP JUMPDEST SWAP2 SWAP5 POP SWAP3 POP SWAP1 POP DUP3 DUP3 DUP3 PUSH1 0x0 JUMPDEST PUSH1 0x1 SLOAD PUSH1 0x40 MLOAD PUSH4 0x584603C9 PUSH1 0xE0 SHL DUP2 MSTORE PUSH2 0xFFFF DUP1 DUP8 AND PUSH1 0x4 DUP4 ADD MSTORE DUP1 DUP7 AND PUSH1 0x24 DUP4 ADD MSTORE DUP5 AND PUSH1 0x44 DUP3 ADD MSTORE PUSH1 0x0 PUSH1 0x64 DUP3 ADD MSTORE PUSH1 0x1 PUSH1 0x1 PUSH1 0xA0 SHL SUB SWAP1 SWAP2 AND SWAP1 PUSH4 0x584603C9 SWAP1 PUSH1 0x84 ADD PUSH1 0x20 PUSH1 0x40 MLOAD DUP1 DUP4 SUB DUP2 DUP7 DUP1 EXTCODESIZE ISZERO DUP1 ISZERO PUSH2 0x5C6 JUMPI PUSH1 0x0 DUP1 REVERT JUMPDEST POP GAS STATICCALL ISZERO DUP1 ISZERO PUSH2 0x5DA JUMPI RETURNDATASIZE PUSH1 0x0 DUP1 RETURNDATACOPY RETURNDATASIZE PUSH1 0x0 REVERT JUMPDEST POP POP POP POP PUSH1 0x40 MLOAD RETURNDATASIZE PUSH1 0x1F NOT PUSH1 0x1F DUP3 ADD AND DUP3 ADD DUP1 PUSH1 0x40 MSTORE POP DUP2 ADD SWAP1 PUSH2 0x5FE SWAP2 SWAP1 PUSH2 0x20DC JUMP JUMPDEST DUP2 LT ISZERO PUSH2 0x88B JUMPI PUSH1 0x1 SLOAD PUSH1 0x40 MLOAD PUSH4 0x37F288C7 PUSH1 0xE2 SHL DUP2 MSTORE PUSH2 0xFFFF DUP1 DUP8 AND PUSH1 0x4 DUP4 ADD MSTORE DUP1 DUP7 AND PUSH1 0x24 DUP4 ADD MSTORE DUP5 AND PUSH1 0x44 DUP3 ADD MSTORE PUSH1 0x0 PUSH1 0x64 DUP3 ADD DUP2 SWAP1 MSTORE PUSH1 0x84 DUP3 ADD DUP5 SWAP1 MSTORE SWAP2 PUSH1 0x1 PUSH1 0x1 PUSH1 0xA0 SHL SUB AND SWAP1 PUSH4 0xDFCA231C SWAP1 PUSH1 0xA4 ADD PUSH1 0x20 PUSH1 0x40 MLOAD DUP1 DUP4 SUB DUP2 DUP7 DUP1 EXTCODESIZE ISZERO DUP1 ISZERO PUSH2 0x66B JUMPI PUSH1 0x0 DUP1 REVERT JUMPDEST POP GAS STATICCALL ISZERO DUP1 ISZERO PUSH2 0x67F JUMPI RETURNDATASIZE PUSH1 0x0 DUP1 RETURNDATACOPY RETURNDATASIZE PUSH1 0x0 REVERT JUMPDEST POP POP POP POP PUSH1 0x40 MLOAD RETURNDATASIZE PUSH1 0x1F NOT PUSH1 0x1F DUP3 ADD AND DUP3 ADD DUP1 PUSH1 0x40 MSTORE POP DUP2 ADD SWAP1 PUSH2 0x6A3 SWAP2 SWAP1 PUSH2 0x20DC JUMP JUMPDEST PUSH1 0x1 SLOAD PUSH1 0x40 MLOAD PUSH4 0x1BF4604F PUSH1 0xE1 SHL DUP2 MSTORE PUSH1 0x4 DUP2 ADD DUP4 SWAP1 MSTORE SWAP2 SWAP3 POP PUSH1 0x0 SWAP2 PUSH1 0x1 PUSH1 0x1 PUSH1 0xA0 SHL SUB SWAP1 SWAP2 AND SWAP1 PUSH4 0x37E8C09E SWAP1 PUSH1 0x24 ADD PUSH1 0x0 PUSH1 0x40 MLOAD DUP1 DUP4 SUB DUP2 DUP7 DUP1 EXTCODESIZE ISZERO DUP1 ISZERO PUSH2 0x6ED JUMPI PUSH1 0x0 DUP1 REVERT JUMPDEST POP GAS STATICCALL ISZERO DUP1 ISZERO PUSH2 0x701 JUMPI RETURNDATASIZE PUSH1 0x0 DUP1 RETURNDATACOPY RETURNDATASIZE PUSH1 0x0 REVERT JUMPDEST POP POP POP POP PUSH1 0x40 MLOAD RETURNDATASIZE PUSH1 0x0 DUP3 RETURNDATACOPY PUSH1 0x1F RETURNDATASIZE SWAP1 DUP2 ADD PUSH1 0x1F NOT AND DUP3 ADD PUSH1 0x40 MSTORE PUSH2 0x729 SWAP2 SWAP1 DUP2 ADD SWAP1 PUSH2 0x212A JUMP JUMPDEST SWAP1 POP TIMESTAMP DUP2 PUSH1 0x80 ADD MLOAD GT ISZERO PUSH2 0x876 JUMPI PUSH20 0x0 PUSH4 0xDFBE0B1F DUP13 PUSH20 0x0 PUSH4 0x9201DE55 DUP7 PUSH1 0x40 MLOAD DUP3 PUSH4 0xFFFFFFFF AND PUSH1 0xE0 SHL DUP2 MSTORE PUSH1 0x4 ADD PUSH2 0x78B SWAP2 DUP2 MSTORE PUSH1 0x20 ADD SWAP1 JUMP JUMPDEST PUSH1 0x0 PUSH1 0x40 MLOAD DUP1 DUP4 SUB DUP2 DUP7 DUP1 EXTCODESIZE ISZERO DUP1 ISZERO PUSH2 0x7A3 JUMPI PUSH1 0x0 DUP1 REVERT JUMPDEST POP GAS DELEGATECALL ISZERO DUP1 ISZERO PUSH2 0x7B7 JUMPI RETURNDATASIZE PUSH1 0x0 DUP1 RETURNDATACOPY RETURNDATASIZE PUSH1 0x0 REVERT JUMPDEST POP POP POP POP PUSH1 0x40 MLOAD RETURNDATASIZE PUSH1 0x0 DUP3 RETURNDATACOPY PUSH1 0x1F RETURNDATASIZE SWAP1 DUP2 ADD PUSH1 0x1F NOT AND DUP3 ADD PUSH1 0x40 MSTORE PUSH2 0x7DF SWAP2 SWAP1 DUP2 ADD SWAP1 PUSH2 0x20F5 JUMP JUMPDEST PUSH2 0x7EC DUP6 PUSH1 0x80 ADD MLOAD PUSH2 0x1B09 JUMP JUMPDEST DUP6 PUSH1 0x60 ADD MLOAD PUSH2 0x7FF DUP8 PUSH2 0x100 ADD MLOAD PUSH2 0x1B09 JUMP JUMPDEST PUSH1 0x40 MLOAD DUP7 PUSH4 0xFFFFFFFF AND PUSH1 0xE0 SHL DUP2 MSTORE PUSH1 0x4 ADD PUSH2 0x81F SWAP6 SWAP5 SWAP4 SWAP3 SWAP2 SWAP1 PUSH2 0x2382 JUMP JUMPDEST PUSH1 0x0 PUSH1 0x40 MLOAD DUP1 DUP4 SUB DUP2 DUP7 DUP1 EXTCODESIZE ISZERO DUP1 ISZERO PUSH2 0x837 JUMPI PUSH1 0x0 DUP1 REVERT JUMPDEST POP GAS DELEGATECALL ISZERO DUP1 ISZERO PUSH2 0x84B JUMPI RETURNDATASIZE PUSH1 0x0 DUP1 RETURNDATACOPY RETURNDATASIZE PUSH1 0x0 REVERT JUMPDEST POP POP POP POP PUSH1 0x40 MLOAD RETURNDATASIZE PUSH1 0x0 DUP3 RETURNDATACOPY PUSH1 0x1F RETURNDATASIZE SWAP1 DUP2 ADD PUSH1 0x1F NOT AND DUP3 ADD PUSH1 0x40 MSTORE PUSH2 0x873 SWAP2 SWAP1 DUP2 ADD SWAP1 PUSH2 0x20F5 JUMP JUMPDEST SWAP11 POP JUMPDEST POP POP DUP1 DUP1 PUSH2 0x883 SWAP1 PUSH2 0x28BA JUMP JUMPDEST SWAP2 POP POP PUSH2 0x568 JUMP JUMPDEST POP POP POP POP POP POP POP DUP1 PUSH3 0x15180 PUSH2 0x8A1 SWAP2 SWAP1 PUSH2 0x2711 JUMP JUMPDEST SWAP1 POP PUSH2 0x546 JUMP JUMPDEST POP SWAP4 SWAP3 POP POP POP JUMP JUMPDEST PUSH1 0x1 SLOAD PUSH1 0x40 MLOAD PUSH4 0xD5A1AD61 PUSH1 0xE0 SHL DUP2 MSTORE CALLER PUSH1 0x4 DUP3 ADD MSTORE PUSH1 0x60 SWAP2 PUSH1 0x0 SWAP2 PUSH1 0x1 PUSH1 0x1 PUSH1 0xA0 SHL SUB SWAP1 SWAP2 AND SWAP1 PUSH4 0xD5A1AD61 SWAP1 PUSH1 0x24 ADD PUSH1 0x0 PUSH1 0x40 MLOAD DUP1 DUP4 SUB DUP2 DUP7 DUP1 EXTCODESIZE ISZERO DUP1 ISZERO PUSH2 0x8F9 JUMPI PUSH1 0x0 DUP1 REVERT JUMPDEST POP GAS STATICCALL ISZERO DUP1 ISZERO PUSH2 0x90D JUMPI RETURNDATASIZE PUSH1 0x0 DUP1 RETURNDATACOPY RETURNDATASIZE PUSH1 0x0 REVERT JUMPDEST POP POP POP POP PUSH1 0x40 MLOAD RETURNDATASIZE PUSH1 0x0 DUP3 RETURNDATACOPY PUSH1 0x1F RETURNDATASIZE SWAP1 DUP2 ADD PUSH1 0x1F NOT AND DUP3 ADD PUSH1 0x40 MSTORE PUSH2 0x935 SWAP2 SWAP1 DUP2 ADD SWAP1 PUSH2 0x1FF4 JUMP JUMPDEST SWAP1 POP PUSH1 0x60 PUSH1 0x0 DUP3 MLOAD GT ISZERO PUSH2 0x119C JUMPI PUSH1 0x0 JUMPDEST DUP3 MLOAD DUP2 LT ISZERO PUSH2 0x119A JUMPI PUSH1 0x0 DUP4 DUP3 DUP2 MLOAD DUP2 LT PUSH2 0x963 JUMPI PUSH2 0x963 PUSH2 0x2901 JUMP JUMPDEST PUSH1 0x20 SWAP1 DUP2 MUL SWAP2 SWAP1 SWAP2 ADD ADD MLOAD PUSH1 0x40 MLOAD PUSH4 0x5E57966D PUSH1 0xE0 SHL DUP2 MSTORE CALLER PUSH1 0x4 DUP3 ADD MSTORE SWAP1 SWAP2 POP PUSH1 0x0 SWAP1 PUSH20 0x0 SWAP1 PUSH4 0x5E57966D SWAP1 PUSH1 0x24 ADD PUSH1 0x0 PUSH1 0x40 MLOAD DUP1 DUP4 SUB DUP2 DUP7 DUP1 EXTCODESIZE ISZERO DUP1 ISZERO PUSH2 0x9BE JUMPI PUSH1 0x0 DUP1 REVERT JUMPDEST POP GAS DELEGATECALL ISZERO DUP1 ISZERO PUSH2 0x9D2 JUMPI RETURNDATASIZE PUSH1 0x0 DUP1 RETURNDATACOPY RETURNDATASIZE PUSH1 0x0 REVERT JUMPDEST POP POP POP POP PUSH1 0x40 MLOAD RETURNDATASIZE PUSH1 0x0 DUP3 RETURNDATACOPY PUSH1 0x1F RETURNDATASIZE SWAP1 DUP2 ADD PUSH1 0x1F NOT AND DUP3 ADD PUSH1 0x40 MSTORE PUSH2 0x9FA SWAP2 SWAP1 DUP2 ADD SWAP1 PUSH2 0x20F5 JUMP JUMPDEST PUSH1 0x1 SLOAD PUSH1 0x40 MLOAD PUSH4 0x1BF4604F PUSH1 0xE1 SHL DUP2 MSTORE PUSH1 0x4 DUP2 ADD DUP6 SWAP1 MSTORE SWAP2 SWAP3 POP PUSH1 0x0 SWAP2 PUSH1 0x1 PUSH1 0x1 PUSH1 0xA0 SHL SUB SWAP1 SWAP2 AND SWAP1 PUSH4 0x37E8C09E SWAP1 PUSH1 0x24 ADD PUSH1 0x0 PUSH1 0x40 MLOAD DUP1 DUP4 SUB DUP2 DUP7 DUP1 EXTCODESIZE ISZERO DUP1 ISZERO PUSH2 0xA44 JUMPI PUSH1 0x0 DUP1 REVERT JUMPDEST POP GAS STATICCALL ISZERO DUP1 ISZERO PUSH2 0xA58 JUMPI RETURNDATASIZE PUSH1 0x0 DUP1 RETURNDATACOPY RETURNDATASIZE PUSH1 0x0 REVERT JUMPDEST POP POP POP POP PUSH1 0x40 MLOAD RETURNDATASIZE PUSH1 0x0 DUP3 RETURNDATACOPY PUSH1 0x1F RETURNDATASIZE SWAP1 DUP2 ADD PUSH1 0x1F NOT AND DUP3 ADD PUSH1 0x40 MSTORE PUSH2 0xA80 SWAP2 SWAP1 DUP2 ADD SWAP1 PUSH2 0x212A JUMP JUMPDEST PUSH1 0x1 SLOAD PUSH1 0x40 DUP1 MLOAD DUP1 DUP3 ADD DUP3 MSTORE PUSH1 0x5 DUP2 MSTORE PUSH5 0x4245544545 PUSH1 0xD8 SHL PUSH1 0x20 DUP3 ADD MSTORE SWAP1 MLOAD PUSH4 0x22AD378F PUSH1 0xE2 SHL DUP2 MSTORE SWAP3 SWAP4 POP PUSH1 0x0 SWAP3 PUSH1 0x1 PUSH1 0x1 PUSH1 0xA0 SHL SUB SWAP1 SWAP3 AND SWAP2 PUSH4 0x8AB4DE3C SWAP2 PUSH2 0xAD1 SWAP2 DUP9 SWAP2 SWAP1 PUSH1 0x4 ADD PUSH2 0x2328 JUMP JUMPDEST PUSH1 0x0 PUSH1 0x40 MLOAD DUP1 DUP4 SUB DUP2 DUP7 DUP1 EXTCODESIZE ISZERO DUP1 ISZERO PUSH2 0xAE9 JUMPI PUSH1 0x0 DUP1 REVERT JUMPDEST POP GAS STATICCALL ISZERO DUP1 ISZERO PUSH2 0xAFD JUMPI RETURNDATASIZE PUSH1 0x0 DUP1 RETURNDATACOPY RETURNDATASIZE PUSH1 0x0 REVERT JUMPDEST POP POP POP POP PUSH1 0x40 MLOAD RETURNDATASIZE PUSH1 0x0 DUP3 RETURNDATACOPY PUSH1 0x1F RETURNDATASIZE SWAP1 DUP2 ADD PUSH1 0x1F NOT AND DUP3 ADD PUSH1 0x40 MSTORE PUSH2 0xB25 SWAP2 SWAP1 DUP2 ADD SWAP1 PUSH2 0x20F5 JUMP JUMPDEST PUSH1 0x1 SLOAD PUSH1 0x40 DUP1 MLOAD DUP1 DUP3 ADD DUP3 MSTORE PUSH1 0xA DUP2 MSTORE PUSH10 0x20A92124AA2920AA27A9 PUSH1 0xB1 SHL PUSH1 0x20 DUP3 ADD MSTORE SWAP1 MLOAD PUSH4 0x22AD378F PUSH1 0xE2 SHL DUP2 MSTORE SWAP3 SWAP4 POP PUSH1 0x0 SWAP3 PUSH1 0x1 PUSH1 0x1 PUSH1 0xA0 SHL SUB SWAP1 SWAP3 AND SWAP2 PUSH4 0x8AB4DE3C SWAP2 PUSH2 0xB7B SWAP2 DUP10 SWAP2 SWAP1 PUSH1 0x4 ADD PUSH2 0x2328 JUMP JUMPDEST PUSH1 0x0 PUSH1 0x40 MLOAD DUP1 DUP4 SUB DUP2 DUP7 DUP1 EXTCODESIZE ISZERO DUP1 ISZERO PUSH2 0xB93 JUMPI PUSH1 0x0 DUP1 REVERT JUMPDEST POP GAS STATICCALL ISZERO DUP1 ISZERO PUSH2 0xBA7 JUMPI RETURNDATASIZE PUSH1 0x0 DUP1 RETURNDATACOPY RETURNDATASIZE PUSH1 0x0 REVERT JUMPDEST POP POP POP POP PUSH1 0x40 MLOAD RETURNDATASIZE PUSH1 0x0 DUP3 RETURNDATACOPY PUSH1 0x1F RETURNDATASIZE SWAP1 DUP2 ADD PUSH1 0x1F NOT AND DUP3 ADD PUSH1 0x40 MSTORE PUSH2 0xBCF SWAP2 SWAP1 DUP2 ADD SWAP1 PUSH2 0x20F5 JUMP JUMPDEST PUSH1 0x40 DUP1 DUP6 ADD MLOAD SWAP1 MLOAD PUSH4 0x5E57966D PUSH1 0xE0 SHL DUP2 MSTORE PUSH1 0x1 PUSH1 0x1 PUSH1 0xA0 SHL SUB SWAP1 SWAP2 AND PUSH1 0x4 DUP3 ADD MSTORE SWAP1 SWAP2 POP PUSH20 0x0 SWAP1 PUSH4 0xBED34BBA SWAP1 PUSH20 0x0 SWAP1 PUSH4 0x5E57966D SWAP1 PUSH1 0x24 ADD PUSH1 0x0 PUSH1 0x40 MLOAD DUP1 DUP4 SUB DUP2 DUP7 DUP1 EXTCODESIZE ISZERO DUP1 ISZERO PUSH2 0xC47 JUMPI PUSH1 0x0 DUP1 REVERT JUMPDEST POP GAS DELEGATECALL ISZERO DUP1 ISZERO PUSH2 0xC5B JUMPI RETURNDATASIZE PUSH1 0x0 DUP1 RETURNDATACOPY RETURNDATASIZE PUSH1 0x0 REVERT JUMPDEST POP POP POP POP PUSH1 0x40 MLOAD RETURNDATASIZE PUSH1 0x0 DUP3 RETURNDATACOPY PUSH1 0x1F RETURNDATASIZE SWAP1 DUP2 ADD PUSH1 0x1F NOT AND DUP3 ADD PUSH1 0x40 MSTORE PUSH2 0xC83 SWAP2 SWAP1 DUP2 ADD SWAP1 PUSH2 0x20F5 JUMP JUMPDEST DUP7 PUSH1 0x40 MLOAD DUP4 PUSH4 0xFFFFFFFF AND PUSH1 0xE0 SHL DUP2 MSTORE PUSH1 0x4 ADD PUSH2 0xCA1 SWAP3 SWAP2 SWAP1 PUSH2 0x2354 JUMP JUMPDEST PUSH1 0x20 PUSH1 0x40 MLOAD DUP1 DUP4 SUB DUP2 DUP7 DUP1 EXTCODESIZE ISZERO DUP1 ISZERO PUSH2 0xCB9 JUMPI PUSH1 0x0 DUP1 REVERT JUMPDEST POP GAS DELEGATECALL ISZERO DUP1 ISZERO PUSH2 0xCCD JUMPI RETURNDATASIZE PUSH1 0x0 DUP1 RETURNDATACOPY RETURNDATASIZE PUSH1 0x0 REVERT JUMPDEST POP POP POP POP PUSH1 0x40 MLOAD RETURNDATASIZE PUSH1 0x1F NOT PUSH1 0x1F DUP3 ADD AND DUP3 ADD DUP1 PUSH1 0x40 MSTORE POP DUP2 ADD SWAP1 PUSH2 0xCF1 SWAP2 SWAP1 PUSH2 0x20A1 JUMP JUMPDEST ISZERO PUSH2 0xE3B JUMPI PUSH20 0x0 PUSH4 0xDFBE0B1F DUP9 PUSH20 0x0 PUSH4 0x9201DE55 DUP10 PUSH1 0x40 MLOAD DUP3 PUSH4 0xFFFFFFFF AND PUSH1 0xE0 SHL DUP2 MSTORE PUSH1 0x4 ADD PUSH2 0xD4A SWAP2 DUP2 MSTORE PUSH1 0x20 ADD SWAP1 JUMP JUMPDEST PUSH1 0x0 PUSH1 0x40 MLOAD DUP1 DUP4 SUB DUP2 DUP7 DUP1 EXTCODESIZE ISZERO DUP1 ISZERO PUSH2 0xD62 JUMPI PUSH1 0x0 DUP1 REVERT JUMPDEST POP GAS DELEGATECALL ISZERO DUP1 ISZERO PUSH2 0xD76 JUMPI RETURNDATASIZE PUSH1 0x0 DUP1 RETURNDATACOPY RETURNDATASIZE PUSH1 0x0 REVERT JUMPDEST POP POP POP POP PUSH1 0x40 MLOAD RETURNDATASIZE PUSH1 0x0 DUP3 RETURNDATACOPY PUSH1 0x1F RETURNDATASIZE SWAP1 DUP2 ADD PUSH1 0x1F NOT AND DUP3 ADD PUSH1 0x40 MSTORE PUSH2 0xD9E SWAP2 SWAP1 DUP2 ADD SWAP1 PUSH2 0x20F5 JUMP JUMPDEST PUSH2 0xDAB DUP8 PUSH1 0x80 ADD MLOAD PUSH2 0x1B09 JUMP JUMPDEST DUP8 PUSH1 0x60 ADD MLOAD PUSH2 0xDC0 DUP10 PUSH1 0xE0 ADD MLOAD PUSH1 0xFF AND PUSH2 0x1B09 JUMP JUMPDEST PUSH1 0x40 MLOAD DUP7 PUSH4 0xFFFFFFFF AND PUSH1 0xE0 SHL DUP2 MSTORE PUSH1 0x4 ADD PUSH2 0xDE0 SWAP6 SWAP5 SWAP4 SWAP3 SWAP2 SWAP1 PUSH2 0x2448 JUMP JUMPDEST PUSH1 0x0 PUSH1 0x40 MLOAD DUP1 DUP4 SUB DUP2 DUP7 DUP1 EXTCODESIZE ISZERO DUP1 ISZERO PUSH2 0xDF8 JUMPI PUSH1 0x0 DUP1 REVERT JUMPDEST POP GAS DELEGATECALL ISZERO DUP1 ISZERO PUSH2 0xE0C JUMPI RETURNDATASIZE PUSH1 0x0 DUP1 RETURNDATACOPY RETURNDATASIZE PUSH1 0x0 REVERT JUMPDEST POP POP POP POP PUSH1 0x40 MLOAD RETURNDATASIZE PUSH1 0x0 DUP3 RETURNDATACOPY PUSH1 0x1F RETURNDATASIZE SWAP1 DUP2 ADD PUSH1 0x1F NOT AND DUP3 ADD PUSH1 0x40 MSTORE PUSH2 0xE34 SWAP2 SWAP1 DUP2 ADD SWAP1 PUSH2 0x20F5 JUMP JUMPDEST SWAP7 POP PUSH2 0x1182 JUMP JUMPDEST PUSH1 0x40 MLOAD PUSH4 0x5F69A5DD PUSH1 0xE1 SHL DUP2 MSTORE PUSH20 0x0 SWAP1 PUSH4 0xBED34BBA SWAP1 PUSH2 0xE74 SWAP1 DUP6 SWAP1 DUP9 SWAP1 PUSH1 0x4 ADD PUSH2 0x2354 JUMP JUMPDEST PUSH1 0x20 PUSH1 0x40 MLOAD DUP1 DUP4 SUB DUP2 DUP7 DUP1 EXTCODESIZE ISZERO DUP1 ISZERO PUSH2 0xE8C JUMPI PUSH1 0x0 DUP1 REVERT JUMPDEST POP GAS DELEGATECALL ISZERO DUP1 ISZERO PUSH2 0xEA0 JUMPI RETURNDATASIZE PUSH1 0x0 DUP1 RETURNDATACOPY RETURNDATASIZE PUSH1 0x0 REVERT JUMPDEST POP POP POP POP PUSH1 0x40 MLOAD RETURNDATASIZE PUSH1 0x1F NOT PUSH1 0x1F DUP3 ADD AND DUP3 ADD DUP1 PUSH1 0x40 MSTORE POP DUP2 ADD SWAP1 PUSH2 0xEC4 SWAP2 SWAP1 PUSH2 0x20A1 JUMP JUMPDEST ISZERO PUSH2 0xFB3 JUMPI PUSH20 0x0 PUSH4 0xDFBE0B1F DUP9 PUSH20 0x0 PUSH4 0x9201DE55 DUP10 PUSH1 0x40 MLOAD DUP3 PUSH4 0xFFFFFFFF AND PUSH1 0xE0 SHL DUP2 MSTORE PUSH1 0x4 ADD PUSH2 0xF1D SWAP2 DUP2 MSTORE PUSH1 0x20 ADD SWAP1 JUMP JUMPDEST PUSH1 0x0 PUSH1 0x40 MLOAD DUP1 DUP4 SUB DUP2 DUP7 DUP1 EXTCODESIZE ISZERO DUP1 ISZERO PUSH2 0xF35 JUMPI PUSH1 0x0 DUP1 REVERT JUMPDEST POP GAS DELEGATECALL ISZERO DUP1 ISZERO PUSH2 0xF49 JUMPI RETURNDATASIZE PUSH1 0x0 DUP1 RETURNDATACOPY RETURNDATASIZE PUSH1 0x0 REVERT JUMPDEST POP POP POP POP PUSH1 0x40 MLOAD RETURNDATASIZE PUSH1 0x0 DUP3 RETURNDATACOPY PUSH1 0x1F RETURNDATASIZE SWAP1 DUP2 ADD PUSH1 0x1F NOT AND DUP3 ADD PUSH1 0x40 MSTORE PUSH2 0xF71 SWAP2 SWAP1 DUP2 ADD SWAP1 PUSH2 0x20F5 JUMP JUMPDEST PUSH2 0xF7E DUP8 PUSH1 0x80 ADD MLOAD PUSH2 0x1B09 JUMP JUMPDEST DUP8 PUSH1 0x60 ADD MLOAD PUSH2 0xF93 DUP10 PUSH1 0xE0 ADD MLOAD PUSH1 0xFF AND PUSH2 0x1B09 JUMP JUMPDEST PUSH1 0x40 MLOAD DUP7 PUSH4 0xFFFFFFFF AND PUSH1 0xE0 SHL DUP2 MSTORE PUSH1 0x4 ADD PUSH2 0xDE0 SWAP6 SWAP5 SWAP4 SWAP3 SWAP2 SWAP1 PUSH2 0x24F0 JUMP JUMPDEST PUSH1 0x40 MLOAD PUSH4 0x5F69A5DD PUSH1 0xE1 SHL DUP2 MSTORE PUSH20 0x0 SWAP1 PUSH4 0xBED34BBA SWAP1 PUSH2 0xFEC SWAP1 DUP5 SWAP1 DUP9 SWAP1 PUSH1 0x4 ADD PUSH2 0x2354 JUMP JUMPDEST PUSH1 0x20 PUSH1 0x40 MLOAD DUP1 DUP4 SUB DUP2 DUP7 DUP1 EXTCODESIZE ISZERO DUP1 ISZERO PUSH2 0x1004 JUMPI PUSH1 0x0 DUP1 REVERT JUMPDEST POP GAS DELEGATECALL ISZERO DUP1 ISZERO PUSH2 0x1018 JUMPI RETURNDATASIZE PUSH1 0x0 DUP1 RETURNDATACOPY RETURNDATASIZE PUSH1 0x0 REVERT JUMPDEST POP POP POP POP PUSH1 0x40 MLOAD RETURNDATASIZE PUSH1 0x1F NOT PUSH1 0x1F DUP3 ADD AND DUP3 ADD DUP1 PUSH1 0x40 MSTORE POP DUP2 ADD SWAP1 PUSH2 0x103C SWAP2 SWAP1 PUSH2 0x20A1 JUMP JUMPDEST ISZERO PUSH2 0x1182 JUMPI PUSH20 0x0 PUSH4 0xDFBE0B1F DUP9 PUSH20 0x0 PUSH4 0x9201DE55 DUP10 PUSH1 0x40 MLOAD DUP3 PUSH4 0xFFFFFFFF AND PUSH1 0xE0 SHL DUP2 MSTORE PUSH1 0x4 ADD PUSH2 0x1095 SWAP2 DUP2 MSTORE PUSH1 0x20 ADD SWAP1 JUMP JUMPDEST PUSH1 0x0 PUSH1 0x40 MLOAD DUP1 DUP4 SUB DUP2 DUP7 DUP1 EXTCODESIZE ISZERO DUP1 ISZERO PUSH2 0x10AD JUMPI PUSH1 0x0 DUP1 REVERT JUMPDEST POP GAS DELEGATECALL ISZERO DUP1 ISZERO PUSH2 0x10C1 JUMPI RETURNDATASIZE PUSH1 0x0 DUP1 RETURNDATACOPY RETURNDATASIZE PUSH1 0x0 REVERT JUMPDEST POP POP POP POP PUSH1 0x40 MLOAD RETURNDATASIZE PUSH1 0x0 DUP3 RETURNDATACOPY PUSH1 0x1F RETURNDATASIZE SWAP1 DUP2 ADD PUSH1 0x1F NOT AND DUP3 ADD PUSH1 0x40 MSTORE PUSH2 0x10E9 SWAP2 SWAP1 DUP2 ADD SWAP1 PUSH2 0x20F5 JUMP JUMPDEST PUSH2 0x10F6 DUP8 PUSH1 0x80 ADD MLOAD PUSH2 0x1B09 JUMP JUMPDEST DUP8 PUSH1 0x60 ADD MLOAD PUSH2 0x110B DUP10 PUSH1 0xE0 ADD MLOAD PUSH1 0xFF AND PUSH2 0x1B09 JUMP JUMPDEST PUSH1 0x40 MLOAD DUP7 PUSH4 0xFFFFFFFF AND PUSH1 0xE0 SHL DUP2 MSTORE PUSH1 0x4 ADD PUSH2 0x112B SWAP6 SWAP5 SWAP4 SWAP3 SWAP2 SWAP1 PUSH2 0x2598 JUMP JUMPDEST PUSH1 0x0 PUSH1 0x40 MLOAD DUP1 DUP4 SUB DUP2 DUP7 DUP1 EXTCODESIZE ISZERO DUP1 ISZERO PUSH2 0x1143 JUMPI PUSH1 0x0 DUP1 REVERT JUMPDEST POP GAS DELEGATECALL ISZERO DUP1 ISZERO PUSH2 0x1157 JUMPI RETURNDATASIZE PUSH1 0x0 DUP1 RETURNDATACOPY RETURNDATASIZE PUSH1 0x0 REVERT JUMPDEST POP POP POP POP PUSH1 0x40 MLOAD RETURNDATASIZE PUSH1 0x0 DUP3 RETURNDATACOPY PUSH1 0x1F RETURNDATASIZE SWAP1 DUP2 ADD PUSH1 0x1F NOT AND DUP3 ADD PUSH1 0x40 MSTORE PUSH2 0x117F SWAP2 SWAP1 DUP2 ADD SWAP1 PUSH2 0x20F5 JUMP JUMPDEST SWAP7 POP JUMPDEST POP POP POP POP POP DUP1 DUP1 PUSH2 0x1192 SWAP1 PUSH2 0x28BA JUMP JUMPDEST SWAP2 POP POP PUSH2 0x946 JUMP JUMPDEST POP JUMPDEST SWAP3 SWAP2 POP POP JUMP JUMPDEST PUSH1 0x40 DUP1 MLOAD PUSH1 0xF DUP1 DUP3 MSTORE PUSH2 0x200 DUP3 ADD SWAP1 SWAP3 MSTORE PUSH1 0x60 SWAP2 PUSH1 0x0 SWAP2 SWAP1 DUP2 PUSH1 0x20 ADD JUMPDEST PUSH1 0x60 DUP2 MSTORE PUSH1 0x20 ADD SWAP1 PUSH1 0x1 SWAP1 SUB SWAP1 DUP2 PUSH2 0x11BF JUMPI SWAP1 POP POP PUSH1 0x1 SLOAD PUSH1 0x40 MLOAD PUSH4 0x1BF4604F PUSH1 0xE1 SHL DUP2 MSTORE PUSH1 0x4 DUP2 ADD DUP7 SWAP1 MSTORE SWAP2 SWAP3 POP PUSH1 0x0 SWAP2 PUSH1 0x1 PUSH1 0x1 PUSH1 0xA0 SHL SUB SWAP1 SWAP2 AND SWAP1 PUSH4 0x37E8C09E SWAP1 PUSH1 0x24 ADD PUSH1 0x0 PUSH1 0x40 MLOAD DUP1 DUP4 SUB DUP2 DUP7 DUP1 EXTCODESIZE ISZERO DUP1 ISZERO PUSH2 0x121E JUMPI PUSH1 0x0 DUP1 REVERT JUMPDEST POP GAS STATICCALL ISZERO DUP1 ISZERO PUSH2 0x1232 JUMPI RETURNDATASIZE PUSH1 0x0 DUP1 RETURNDATACOPY RETURNDATASIZE PUSH1 0x0 REVERT JUMPDEST POP POP POP POP PUSH1 0x40 MLOAD RETURNDATASIZE PUSH1 0x0 DUP3 RETURNDATACOPY PUSH1 0x1F RETURNDATASIZE SWAP1 DUP2 ADD PUSH1 0x1F NOT AND DUP3 ADD PUSH1 0x40 MSTORE PUSH2 0x125A SWAP2 SWAP1 DUP2 ADD SWAP1 PUSH2 0x212A JUMP JUMPDEST PUSH1 0x40 DUP2 DUP2 ADD MLOAD SWAP1 MLOAD PUSH4 0x5E57966D PUSH1 0xE0 SHL DUP2 MSTORE PUSH1 0x1 PUSH1 0x1 PUSH1 0xA0 SHL SUB SWAP1 SWAP2 AND PUSH1 0x4 DUP3 ADD MSTORE SWAP1 SWAP2 POP PUSH20 0x0 SWAP1 PUSH4 0x5E57966D SWAP1 PUSH1 0x24 ADD PUSH1 0x0 PUSH1 0x40 MLOAD DUP1 DUP4 SUB DUP2 DUP7 DUP1 EXTCODESIZE ISZERO DUP1 ISZERO PUSH2 0x12B6 JUMPI PUSH1 0x0 DUP1 REVERT JUMPDEST POP GAS DELEGATECALL ISZERO DUP1 ISZERO PUSH2 0x12CA JUMPI RETURNDATASIZE PUSH1 0x0 DUP1 RETURNDATACOPY RETURNDATASIZE PUSH1 0x0 REVERT JUMPDEST POP POP POP POP PUSH1 0x40 MLOAD RETURNDATASIZE PUSH1 0x0 DUP3 RETURNDATACOPY PUSH1 0x1F RETURNDATASIZE SWAP1 DUP2 ADD PUSH1 0x1F NOT AND DUP3 ADD PUSH1 0x40 MSTORE PUSH2 0x12F2 SWAP2 SWAP1 DUP2 ADD SWAP1 PUSH2 0x20F5 JUMP JUMPDEST DUP3 PUSH1 0x0 DUP2 MLOAD DUP2 LT PUSH2 0x1305 JUMPI PUSH2 0x1305 PUSH2 0x2901 JUMP JUMPDEST PUSH1 0x20 MUL PUSH1 0x20 ADD ADD DUP2 SWAP1 MSTORE POP DUP1 PUSH1 0x60 ADD MLOAD DUP3 PUSH1 0x1 DUP2 MLOAD DUP2 LT PUSH2 0x1328 JUMPI PUSH2 0x1328 PUSH2 0x2901 JUMP JUMPDEST PUSH1 0x20 MUL PUSH1 0x20 ADD ADD DUP2 SWAP1 MSTORE POP PUSH2 0x1340 DUP2 PUSH1 0x80 ADD MLOAD PUSH2 0x1B09 JUMP JUMPDEST DUP3 PUSH1 0x2 DUP2 MLOAD DUP2 LT PUSH2 0x1353 JUMPI PUSH2 0x1353 PUSH2 0x2901 JUMP JUMPDEST PUSH1 0x20 MUL PUSH1 0x20 ADD ADD DUP2 SWAP1 MSTORE POP PUSH2 0x136E DUP2 PUSH1 0xA0 ADD MLOAD PUSH1 0xFF AND PUSH2 0x1B09 JUMP JUMPDEST DUP3 PUSH1 0x3 DUP2 MLOAD DUP2 LT PUSH2 0x1381 JUMPI PUSH2 0x1381 PUSH2 0x2901 JUMP JUMPDEST PUSH1 0x20 MUL PUSH1 0x20 ADD ADD DUP2 SWAP1 MSTORE POP PUSH2 0x139C DUP2 PUSH1 0xC0 ADD MLOAD PUSH1 0xFF AND PUSH2 0x1B09 JUMP JUMPDEST DUP3 PUSH1 0x4 DUP2 MLOAD DUP2 LT PUSH2 0x13AF JUMPI PUSH2 0x13AF PUSH2 0x2901 JUMP JUMPDEST PUSH1 0x20 MUL PUSH1 0x20 ADD ADD DUP2 SWAP1 MSTORE POP PUSH2 0x13C8 DUP2 PUSH2 0x100 ADD MLOAD PUSH2 0x1B09 JUMP JUMPDEST DUP3 PUSH1 0x5 DUP2 MLOAD DUP2 LT PUSH2 0x13DB JUMPI PUSH2 0x13DB PUSH2 0x2901 JUMP JUMPDEST PUSH1 0x20 MUL PUSH1 0x20 ADD ADD DUP2 SWAP1 MSTORE POP PUSH2 0x13F4 DUP2 PUSH2 0x120 ADD MLOAD PUSH2 0x1B09 JUMP JUMPDEST DUP3 PUSH1 0x6 DUP2 MLOAD DUP2 LT PUSH2 0x1407 JUMPI PUSH2 0x1407 PUSH2 0x2901 JUMP JUMPDEST PUSH1 0x20 SWAP1 DUP2 MUL SWAP2 SWAP1 SWAP2 ADD DUP2 ADD SWAP2 SWAP1 SWAP2 MSTORE PUSH1 0x1 SLOAD PUSH1 0x40 DUP1 MLOAD DUP1 DUP3 ADD DUP3 MSTORE PUSH1 0xA DUP2 MSTORE PUSH10 0x20A92124AA2920AA27A9 PUSH1 0xB1 SHL SWAP4 DUP2 ADD SWAP4 SWAP1 SWAP4 MSTORE MLOAD PUSH4 0x22AD378F PUSH1 0xE2 SHL DUP2 MSTORE PUSH1 0x1 PUSH1 0x1 PUSH1 0xA0 SHL SUB SWAP1 SWAP2 AND SWAP2 PUSH4 0x8AB4DE3C SWAP2 PUSH2 0x1466 SWAP2 DUP9 SWAP2 PUSH1 0x4 ADD PUSH2 0x2328 JUMP JUMPDEST PUSH1 0x0 PUSH1 0x40 MLOAD DUP1 DUP4 SUB DUP2 DUP7 DUP1 EXTCODESIZE ISZERO DUP1 ISZERO PUSH2 0x147E JUMPI PUSH1 0x0 DUP1 REVERT JUMPDEST POP GAS STATICCALL ISZERO DUP1 ISZERO PUSH2 0x1492 JUMPI RETURNDATASIZE PUSH1 0x0 DUP1 RETURNDATACOPY RETURNDATASIZE PUSH1 0x0 REVERT JUMPDEST POP POP POP POP PUSH1 0x40 MLOAD RETURNDATASIZE PUSH1 0x0 DUP3 RETURNDATACOPY PUSH1 0x1F RETURNDATASIZE SWAP1 DUP2 ADD PUSH1 0x1F NOT AND DUP3 ADD PUSH1 0x40 MSTORE PUSH2 0x14BA SWAP2 SWAP1 DUP2 ADD SWAP1 PUSH2 0x20F5 JUMP JUMPDEST DUP3 PUSH1 0x7 DUP2 MLOAD DUP2 LT PUSH2 0x14CD JUMPI PUSH2 0x14CD PUSH2 0x2901 JUMP JUMPDEST PUSH1 0x20 SWAP1 DUP2 MUL SWAP2 SWAP1 SWAP2 ADD DUP2 ADD SWAP2 SWAP1 SWAP2 MSTORE PUSH1 0x1 SLOAD PUSH1 0x40 DUP1 MLOAD DUP1 DUP3 ADD DUP3 MSTORE PUSH1 0xE DUP2 MSTORE PUSH14 0x41524249545241544F524E414D45 PUSH1 0x90 SHL SWAP4 DUP2 ADD SWAP4 SWAP1 SWAP4 MSTORE MLOAD PUSH4 0x22AD378F PUSH1 0xE2 SHL DUP2 MSTORE PUSH1 0x1 PUSH1 0x1 PUSH1 0xA0 SHL SUB SWAP1 SWAP2 AND SWAP2 PUSH4 0x8AB4DE3C SWAP2 PUSH2 0x1530 SWAP2 DUP9 SWAP2 PUSH1 0x4 ADD PUSH2 0x2328 JUMP JUMPDEST PUSH1 0x0 PUSH1 0x40 MLOAD DUP1 DUP4 SUB DUP2 DUP7 DUP1 EXTCODESIZE ISZERO DUP1 ISZERO PUSH2 0x1548 JUMPI PUSH1 0x0 DUP1 REVERT JUMPDEST POP GAS STATICCALL ISZERO DUP1 ISZERO PUSH2 0x155C JUMPI RETURNDATASIZE PUSH1 0x0 DUP1 RETURNDATACOPY RETURNDATASIZE PUSH1 0x0 REVERT JUMPDEST POP POP POP POP PUSH1 0x40 MLOAD RETURNDATASIZE PUSH1 0x0 DUP3 RETURNDATACOPY PUSH1 0x1F RETURNDATASIZE SWAP1 DUP2 ADD PUSH1 0x1F NOT AND DUP3 ADD PUSH1 0x40 MSTORE PUSH2 0x1584 SWAP2 SWAP1 DUP2 ADD SWAP1 PUSH2 0x20F5 JUMP JUMPDEST DUP3 PUSH1 0x8 DUP2 MLOAD DUP2 LT PUSH2 0x1597 JUMPI PUSH2 0x1597 PUSH2 0x2901 JUMP JUMPDEST PUSH1 0x20 SWAP1 DUP2 MUL SWAP2 SWAP1 SWAP2 ADD DUP2 ADD SWAP2 SWAP1 SWAP2 MSTORE PUSH1 0x1 SLOAD PUSH1 0x40 DUP1 MLOAD DUP1 DUP3 ADD DUP3 MSTORE PUSH1 0xB DUP2 MSTORE PUSH11 0x57494E5343454E4152494F PUSH1 0xA8 SHL SWAP4 DUP2 ADD SWAP4 SWAP1 SWAP4 MSTORE MLOAD PUSH4 0x22AD378F PUSH1 0xE2 SHL DUP2 MSTORE PUSH1 0x1 PUSH1 0x1 PUSH1 0xA0 SHL SUB SWAP1 SWAP2 AND SWAP2 PUSH4 0x8AB4DE3C SWAP2 PUSH2 0x15F7 SWAP2 DUP9 SWAP2 PUSH1 0x4 ADD PUSH2 0x2328 JUMP JUMPDEST PUSH1 0x0 PUSH1 0x40 MLOAD DUP1 DUP4 SUB DUP2 DUP7 DUP1 EXTCODESIZE ISZERO DUP1 ISZERO PUSH2 0x160F JUMPI PUSH1 0x0 DUP1 REVERT JUMPDEST POP GAS STATICCALL ISZERO DUP1 ISZERO PUSH2 0x1623 JUMPI RETURNDATASIZE PUSH1 0x0 DUP1 RETURNDATACOPY RETURNDATASIZE PUSH1 0x0 REVERT JUMPDEST POP POP POP POP PUSH1 0x40 MLOAD RETURNDATASIZE PUSH1 0x0 DUP3 RETURNDATACOPY PUSH1 0x1F RETURNDATASIZE SWAP1 DUP2 ADD PUSH1 0x1F NOT AND DUP3 ADD PUSH1 0x40 MSTORE PUSH2 0x164B SWAP2 SWAP1 DUP2 ADD SWAP1 PUSH2 0x20F5 JUMP JUMPDEST DUP3 PUSH1 0x9 DUP2 MLOAD DUP2 LT PUSH2 0x165E JUMPI PUSH2 0x165E PUSH2 0x2901 JUMP JUMPDEST PUSH1 0x20 SWAP1 DUP2 MUL SWAP2 SWAP1 SWAP2 ADD DUP2 ADD SWAP2 SWAP1 SWAP2 MSTORE PUSH1 0x1 SLOAD PUSH1 0x40 DUP1 MLOAD DUP1 DUP3 ADD DUP3 MSTORE PUSH1 0xC DUP2 MSTORE PUSH12 0x4C4F53455343454E4152494F PUSH1 0xA0 SHL SWAP4 DUP2 ADD SWAP4 SWAP1 SWAP4 MSTORE MLOAD PUSH4 0x22AD378F PUSH1 0xE2 SHL DUP2 MSTORE PUSH1 0x1 PUSH1 0x1 PUSH1 0xA0 SHL SUB SWAP1 SWAP2 AND SWAP2 PUSH4 0x8AB4DE3C SWAP2 PUSH2 0x16BF SWAP2 DUP9 SWAP2 PUSH1 0x4 ADD PUSH2 0x2328 JUMP JUMPDEST PUSH1 0x0 PUSH1 0x40 MLOAD DUP1 DUP4 SUB DUP2 DUP7 DUP1 EXTCODESIZE ISZERO DUP1 ISZERO PUSH2 0x16D7 JUMPI PUSH1 0x0 DUP1 REVERT JUMPDEST POP GAS STATICCALL ISZERO DUP1 ISZERO PUSH2 0x16EB JUMPI RETURNDATASIZE PUSH1 0x0 DUP1 RETURNDATACOPY RETURNDATASIZE PUSH1 0x0 REVERT JUMPDEST POP POP POP POP PUSH1 0x40 MLOAD RETURNDATASIZE PUSH1 0x0 DUP3 RETURNDATACOPY PUSH1 0x1F RETURNDATASIZE SWAP1 DUP2 ADD PUSH1 0x1F NOT AND DUP3 ADD PUSH1 0x40 MSTORE PUSH2 0x1713 SWAP2 SWAP1 DUP2 ADD SWAP1 PUSH2 0x20F5 JUMP JUMPDEST DUP3 PUSH1 0xA DUP2 MLOAD DUP2 LT PUSH2 0x1726 JUMPI PUSH2 0x1726 PUSH2 0x2901 JUMP JUMPDEST PUSH1 0x20 SWAP1 DUP2 MUL SWAP2 SWAP1 SWAP2 ADD DUP2 ADD SWAP2 SWAP1 SWAP2 MSTORE PUSH1 0x1 SLOAD PUSH1 0x40 DUP1 MLOAD DUP1 DUP3 ADD DUP3 MSTORE PUSH1 0xE DUP2 MSTORE PUSH14 0x43414E43454C5343454E4152494F PUSH1 0x90 SHL SWAP4 DUP2 ADD SWAP4 SWAP1 SWAP4 MSTORE MLOAD PUSH4 0x22AD378F PUSH1 0xE2 SHL DUP2 MSTORE PUSH1 0x1 PUSH1 0x1 PUSH1 0xA0 SHL SUB SWAP1 SWAP2 AND SWAP2 PUSH4 0x8AB4DE3C SWAP2 PUSH2 0x1789 SWAP2 DUP9 SWAP2 PUSH1 0x4 ADD PUSH2 0x2328 JUMP JUMPDEST PUSH1 0x0 PUSH1 0x40 MLOAD DUP1 DUP4 SUB DUP2 DUP7 DUP1 EXTCODESIZE ISZERO DUP1 ISZERO PUSH2 0x17A1 JUMPI PUSH1 0x0 DUP1 REVERT JUMPDEST POP GAS STATICCALL ISZERO DUP1 ISZERO PUSH2 0x17B5 JUMPI RETURNDATASIZE PUSH1 0x0 DUP1 RETURNDATACOPY RETURNDATASIZE PUSH1 0x0 REVERT JUMPDEST POP POP POP POP PUSH1 0x40 MLOAD RETURNDATASIZE PUSH1 0x0 DUP3 RETURNDATACOPY PUSH1 0x1F RETURNDATASIZE SWAP1 DUP2 ADD PUSH1 0x1F NOT AND DUP3 ADD PUSH1 0x40 MSTORE PUSH2 0x17DD SWAP2 SWAP1 DUP2 ADD SWAP1 PUSH2 0x20F5 JUMP JUMPDEST DUP3 PUSH1 0xB DUP2 MLOAD DUP2 LT PUSH2 0x17F0 JUMPI PUSH2 0x17F0 PUSH2 0x2901 JUMP JUMPDEST PUSH1 0x20 SWAP1 DUP2 MUL SWAP2 SWAP1 SWAP2 ADD DUP2 ADD SWAP2 SWAP1 SWAP2 MSTORE PUSH1 0x1 SLOAD PUSH1 0x40 DUP1 MLOAD DUP1 DUP3 ADD DUP3 MSTORE PUSH1 0x14 DUP2 MSTORE PUSH20 0x20A92124AA2920AA27A921A7A6A6A4A9A9A4A7A7 PUSH1 0x61 SHL SWAP4 DUP2 ADD SWAP4 SWAP1 SWAP4 MSTORE MLOAD PUSH4 0x22AD378F PUSH1 0xE2 SHL DUP2 MSTORE PUSH1 0x1 PUSH1 0x1 PUSH1 0xA0 SHL SUB SWAP1 SWAP2 AND SWAP2 PUSH4 0x8AB4DE3C SWAP2 PUSH2 0x1859 SWAP2 DUP9 SWAP2 PUSH1 0x4 ADD PUSH2 0x2328 JUMP JUMPDEST PUSH1 0x0 PUSH1 0x40 MLOAD DUP1 DUP4 SUB DUP2 DUP7 DUP1 EXTCODESIZE ISZERO DUP1 ISZERO PUSH2 0x1871 JUMPI PUSH1 0x0 DUP1 REVERT JUMPDEST POP GAS STATICCALL ISZERO DUP1 ISZERO PUSH2 0x1885 JUMPI RETURNDATASIZE PUSH1 0x0 DUP1 RETURNDATACOPY RETURNDATASIZE PUSH1 0x0 REVERT JUMPDEST POP POP POP POP PUSH1 0x40 MLOAD RETURNDATASIZE PUSH1 0x0 DUP3 RETURNDATACOPY PUSH1 0x1F RETURNDATASIZE SWAP1 DUP2 ADD PUSH1 0x1F NOT AND DUP3 ADD PUSH1 0x40 MSTORE PUSH2 0x18AD SWAP2 SWAP1 DUP2 ADD SWAP1 PUSH2 0x20F5 JUMP JUMPDEST DUP3 PUSH1 0xC DUP2 MLOAD DUP2 LT PUSH2 0x18C0 JUMPI PUSH2 0x18C0 PUSH2 0x2901 JUMP JUMPDEST PUSH1 0x20 SWAP1 DUP2 MUL SWAP2 SWAP1 SWAP2 ADD DUP2 ADD SWAP2 SWAP1 SWAP2 MSTORE PUSH1 0x1 SLOAD PUSH1 0x40 DUP1 MLOAD DUP1 DUP3 ADD DUP3 MSTORE PUSH1 0x10 DUP2 MSTORE PUSH16 0x1091551051D0525394D5105353D55395 PUSH1 0x82 SHL SWAP4 DUP2 ADD SWAP4 SWAP1 SWAP4 MSTORE MLOAD PUSH4 0x22AD378F PUSH1 0xE2 SHL DUP2 MSTORE PUSH1 0x1 PUSH1 0x1 PUSH1 0xA0 SHL SUB SWAP1 SWAP2 AND SWAP2 PUSH4 0x8AB4DE3C SWAP2 PUSH2 0x1925 SWAP2 DUP9 SWAP2 PUSH1 0x4 ADD PUSH2 0x2328 JUMP JUMPDEST PUSH1 0x0 PUSH1 0x40 MLOAD DUP1 DUP4 SUB DUP2 DUP7 DUP1 EXTCODESIZE ISZERO DUP1 ISZERO PUSH2 0x193D JUMPI PUSH1 0x0 DUP1 REVERT JUMPDEST POP GAS STATICCALL ISZERO DUP1 ISZERO PUSH2 0x1951 JUMPI RETURNDATASIZE PUSH1 0x0 DUP1 RETURNDATACOPY RETURNDATASIZE PUSH1 0x0 REVERT JUMPDEST POP POP POP POP PUSH1 0x40 MLOAD RETURNDATASIZE PUSH1 0x0 DUP3 RETURNDATACOPY PUSH1 0x1F RETURNDATASIZE SWAP1 DUP2 ADD PUSH1 0x1F NOT AND DUP3 ADD PUSH1 0x40 MSTORE PUSH2 0x1979 SWAP2 SWAP1 DUP2 ADD SWAP1 PUSH2 0x20F5 JUMP JUMPDEST DUP3 PUSH1 0xD DUP2 MLOAD DUP2 LT PUSH2 0x198C JUMPI PUSH2 0x198C PUSH2 0x2901 JUMP JUMPDEST PUSH1 0x20 SWAP1 DUP2 MUL SWAP2 SWAP1 SWAP2 ADD DUP2 ADD SWAP2 SWAP1 SWAP2 MSTORE PUSH1 0x1 SLOAD PUSH1 0x40 DUP1 MLOAD DUP1 DUP3 ADD DUP3 MSTORE PUSH1 0x14 DUP2 MSTORE PUSH20 0x14D51052D154115490D153951491545552549151 PUSH1 0x62 SHL SWAP4 DUP2 ADD SWAP4 SWAP1 SWAP4 MSTORE MLOAD PUSH4 0x22AD378F PUSH1 0xE2 SHL DUP2 MSTORE PUSH1 0x1 PUSH1 0x1 PUSH1 0xA0 SHL SUB SWAP1 SWAP2 AND SWAP2 PUSH4 0x8AB4DE3C SWAP2 PUSH2 0x19F5 SWAP2 DUP9 SWAP2 PUSH1 0x4 ADD PUSH2 0x2328 JUMP JUMPDEST PUSH1 0x0 PUSH1 0x40 MLOAD DUP1 DUP4 SUB DUP2 DUP7 DUP1 EXTCODESIZE ISZERO DUP1 ISZERO PUSH2 0x1A0D JUMPI PUSH1 0x0 DUP1 REVERT JUMPDEST POP GAS STATICCALL ISZERO DUP1 ISZERO PUSH2 0x1A21 JUMPI RETURNDATASIZE PUSH1 0x0 DUP1 RETURNDATACOPY RETURNDATASIZE PUSH1 0x0 REVERT JUMPDEST POP POP POP POP PUSH1 0x40 MLOAD RETURNDATASIZE PUSH1 0x0 DUP3 RETURNDATACOPY PUSH1 0x1F RETURNDATASIZE SWAP1 DUP2 ADD PUSH1 0x1F NOT AND DUP3 ADD PUSH1 0x40 MSTORE PUSH2 0x1A49 SWAP2 SWAP1 DUP2 ADD SWAP1 PUSH2 0x20F5 JUMP JUMPDEST DUP3 PUSH1 0xE DUP2 MLOAD DUP2 LT PUSH2 0x1A5C JUMPI PUSH2 0x1A5C PUSH2 0x2901 JUMP JUMPDEST PUSH1 0x20 SWAP1 DUP2 MUL SWAP2 SWAP1 SWAP2 ADD ADD MSTORE POP SWAP3 SWAP2 POP POP JUMP JUMPDEST PUSH1 0x0 SLOAD PUSH1 0x1 PUSH1 0x1 PUSH1 0xA0 SHL SUB AND CALLER EQ PUSH2 0x1A98 JUMPI PUSH1 0x40 MLOAD PUSH3 0x461BCD PUSH1 0xE5 SHL DUP2 MSTORE PUSH1 0x4 ADD PUSH2 0x4C8 SWAP1 PUSH2 0x2640 JUMP JUMPDEST PUSH1 0x1 PUSH1 0x1 PUSH1 0xA0 SHL SUB DUP2 AND PUSH2 0x1AFD JUMPI PUSH1 0x40 MLOAD PUSH3 0x461BCD PUSH1 0xE5 SHL DUP2 MSTORE PUSH1 0x20 PUSH1 0x4 DUP3 ADD MSTORE PUSH1 0x26 PUSH1 0x24 DUP3 ADD MSTORE PUSH32 0x4F776E61626C653A206E6577206F776E657220697320746865207A65726F2061 PUSH1 0x44 DUP3 ADD MSTORE PUSH6 0x646472657373 PUSH1 0xD0 SHL PUSH1 0x64 DUP3 ADD MSTORE PUSH1 0x84 ADD PUSH2 0x4C8 JUMP JUMPDEST PUSH2 0x1B06 DUP2 PUSH2 0x1CC6 JUMP JUMPDEST POP JUMP JUMPDEST PUSH1 0x60 DUP2 PUSH2 0x1B2D JUMPI POP POP PUSH1 0x40 DUP1 MLOAD DUP1 DUP3 ADD SWAP1 SWAP2 MSTORE PUSH1 0x1 DUP2 MSTORE PUSH1 0x3 PUSH1 0xFC SHL PUSH1 0x20 DUP3 ADD MSTORE SWAP1 JUMP JUMPDEST DUP2 PUSH1 0x0 JUMPDEST DUP2 ISZERO PUSH2 0x1B57 JUMPI DUP1 PUSH2 0x1B41 DUP2 PUSH2 0x28BA JUMP JUMPDEST SWAP2 POP PUSH2 0x1B50 SWAP1 POP PUSH1 0xA DUP4 PUSH2 0x277C JUMP JUMPDEST SWAP2 POP PUSH2 0x1B31 JUMP JUMPDEST PUSH1 0x0 DUP2 PUSH8 0xFFFFFFFFFFFFFFFF DUP2 GT ISZERO PUSH2 0x1B72 JUMPI PUSH2 0x1B72 PUSH2 0x2917 JUMP JUMPDEST PUSH1 0x40 MLOAD SWAP1 DUP1 DUP3 MSTORE DUP1 PUSH1 0x1F ADD PUSH1 0x1F NOT AND PUSH1 0x20 ADD DUP3 ADD PUSH1 0x40 MSTORE DUP1 ISZERO PUSH2 0x1B9C JUMPI PUSH1 0x20 DUP3 ADD DUP2 DUP1 CALLDATASIZE DUP4 CALLDATACOPY ADD SWAP1 POP JUMPDEST POP SWAP1 POP DUP2 JUMPDEST DUP6 ISZERO PUSH2 0x495 JUMPI PUSH2 0x1BB2 PUSH1 0x1 DUP3 PUSH2 0x2873 JUMP JUMPDEST SWAP1 POP PUSH1 0x0 PUSH2 0x1BC1 PUSH1 0xA DUP9 PUSH2 0x277C JUMP JUMPDEST PUSH2 0x1BCC SWAP1 PUSH1 0xA PUSH2 0x2815 JUMP JUMPDEST PUSH2 0x1BD6 SWAP1 DUP9 PUSH2 0x2873 JUMP JUMPDEST PUSH2 0x1BE1 SWAP1 PUSH1 0x30 PUSH2 0x2729 JUMP JUMPDEST SWAP1 POP PUSH1 0x0 DUP2 PUSH1 0xF8 SHL SWAP1 POP DUP1 DUP5 DUP5 DUP2 MLOAD DUP2 LT PUSH2 0x1BFE JUMPI PUSH2 0x1BFE PUSH2 0x2901 JUMP JUMPDEST PUSH1 0x20 ADD ADD SWAP1 PUSH1 0x1 PUSH1 0x1 PUSH1 0xF8 SHL SUB NOT AND SWAP1 DUP2 PUSH1 0x0 BYTE SWAP1 MSTORE8 POP PUSH2 0x1C20 PUSH1 0xA DUP10 PUSH2 0x277C JUMP JUMPDEST SWAP8 POP POP POP PUSH2 0x1BA1 JUMP JUMPDEST PUSH1 0x0 SLOAD PUSH1 0x1 PUSH1 0xA0 SHL SWAP1 DIV PUSH1 0xFF AND PUSH2 0x1C79 JUMPI PUSH1 0x40 MLOAD PUSH3 0x461BCD PUSH1 0xE5 SHL DUP2 MSTORE PUSH1 0x20 PUSH1 0x4 DUP3 ADD MSTORE PUSH1 0x14 PUSH1 0x24 DUP3 ADD MSTORE PUSH20 0x14185D5CD8589B194E881B9BDD081C185D5CD959 PUSH1 0x62 SHL PUSH1 0x44 DUP3 ADD MSTORE PUSH1 0x64 ADD PUSH2 0x4C8 JUMP JUMPDEST PUSH1 0x0 DUP1 SLOAD PUSH1 0xFF PUSH1 0xA0 SHL NOT AND SWAP1 SSTORE PUSH32 0x5DB9EE0A495BF2E6FF9C91A7834C1BA4FDD244A5E8AA4E537BD38AEAE4B073AA CALLER JUMPDEST PUSH1 0x40 MLOAD PUSH1 0x1 PUSH1 0x1 PUSH1 0xA0 SHL SUB SWAP1 SWAP2 AND DUP2 MSTORE PUSH1 0x20 ADD PUSH1 0x40 MLOAD DUP1 SWAP2 SUB SWAP1 LOG1 JUMP JUMPDEST PUSH1 0x0 DUP1 SLOAD PUSH1 0x1 PUSH1 0x1 PUSH1 0xA0 SHL SUB DUP4 DUP2 AND PUSH1 0x1 PUSH1 0x1 PUSH1 0xA0 SHL SUB NOT DUP4 AND DUP2 OR DUP5 SSTORE PUSH1 0x40 MLOAD SWAP2 SWAP1 SWAP3 AND SWAP3 DUP4 SWAP2 PUSH32 0x8BE0079C531659141344CD1FD0A4F28419497F9722A3DAAFE3B4186F6B6457E0 SWAP2 SWAP1 LOG3 POP POP JUMP JUMPDEST PUSH1 0x0 SLOAD PUSH1 0x1 PUSH1 0xA0 SHL SWAP1 DIV PUSH1 0xFF AND ISZERO PUSH2 0x1D63 JUMPI PUSH1 0x40 MLOAD PUSH3 0x461BCD PUSH1 0xE5 SHL DUP2 MSTORE PUSH1 0x20 PUSH1 0x4 DUP3 ADD MSTORE PUSH1 0x10 PUSH1 0x24 DUP3 ADD MSTORE PUSH16 0x14185D5CD8589B194E881C185D5CD959 PUSH1 0x82 SHL PUSH1 0x44 DUP3 ADD MSTORE PUSH1 0x64 ADD PUSH2 0x4C8 JUMP JUMPDEST PUSH1 0x0 DUP1 SLOAD PUSH1 0xFF PUSH1 0xA0 SHL NOT AND PUSH1 0x1 PUSH1 0xA0 SHL OR SWAP1 SSTORE PUSH32 0x62E78CEA01BEE320CD4E420270B5EA74000D11B0C9F74754EBDBFC544B05A258 PUSH2 0x1CA9 CALLER SWAP1 JUMP JUMPDEST PUSH1 0x0 DUP1 DUP1 PUSH2 0x1DB7 PUSH2 0x1DB2 PUSH3 0x15180 DUP7 PUSH2 0x277C JUMP JUMPDEST PUSH2 0x1DC4 JUMP JUMPDEST SWAP2 SWAP7 SWAP1 SWAP6 POP SWAP1 SWAP4 POP SWAP2 POP POP JUMP JUMPDEST PUSH1 0x0 DUP1 DUP1 DUP4 DUP2 PUSH3 0x253D8C PUSH2 0x1DDB DUP4 PUSH3 0x10BD9 PUSH2 0x26D0 JUMP JUMPDEST PUSH2 0x1DE5 SWAP2 SWAP1 PUSH2 0x26D0 JUMP JUMPDEST SWAP1 POP PUSH1 0x0 PUSH3 0x23AB1 PUSH2 0x1DF8 DUP4 PUSH1 0x4 PUSH2 0x2790 JUMP JUMPDEST PUSH2 0x1E02 SWAP2 SWAP1 PUSH2 0x274E JUMP JUMPDEST SWAP1 POP PUSH1 0x4 PUSH2 0x1E13 DUP3 PUSH3 0x23AB1 PUSH2 0x2790 JUMP JUMPDEST PUSH2 0x1E1E SWAP1 PUSH1 0x3 PUSH2 0x26D0 JUMP JUMPDEST PUSH2 0x1E28 SWAP2 SWAP1 PUSH2 0x274E JUMP JUMPDEST PUSH2 0x1E32 SWAP1 DUP4 PUSH2 0x2834 JUMP JUMPDEST SWAP2 POP PUSH1 0x0 PUSH3 0x164B09 PUSH2 0x1E45 DUP5 PUSH1 0x1 PUSH2 0x26D0 JUMP JUMPDEST PUSH2 0x1E51 SWAP1 PUSH2 0xFA0 PUSH2 0x2790 JUMP JUMPDEST PUSH2 0x1E5B SWAP2 SWAP1 PUSH2 0x274E JUMP JUMPDEST SWAP1 POP PUSH1 0x4 PUSH2 0x1E6B DUP3 PUSH2 0x5B5 PUSH2 0x2790 JUMP JUMPDEST PUSH2 0x1E75 SWAP2 SWAP1 PUSH2 0x274E JUMP JUMPDEST PUSH2 0x1E7F SWAP1 DUP5 PUSH2 0x2834 JUMP JUMPDEST PUSH2 0x1E8A SWAP1 PUSH1 0x1F PUSH2 0x26D0 JUMP JUMPDEST SWAP3 POP PUSH1 0x0 PUSH2 0x98F PUSH2 0x1E9C DUP6 PUSH1 0x50 PUSH2 0x2790 JUMP JUMPDEST PUSH2 0x1EA6 SWAP2 SWAP1 PUSH2 0x274E JUMP JUMPDEST SWAP1 POP PUSH1 0x0 PUSH1 0x50 PUSH2 0x1EB8 DUP4 PUSH2 0x98F PUSH2 0x2790 JUMP JUMPDEST PUSH2 0x1EC2 SWAP2 SWAP1 PUSH2 0x274E JUMP JUMPDEST PUSH2 0x1ECC SWAP1 DUP7 PUSH2 0x2834 JUMP JUMPDEST SWAP1 POP PUSH2 0x1ED9 PUSH1 0xB DUP4 PUSH2 0x274E JUMP JUMPDEST SWAP5 POP PUSH2 0x1EE6 DUP6 PUSH1 0xC PUSH2 0x2790 JUMP JUMPDEST PUSH2 0x1EF1 DUP4 PUSH1 0x2 PUSH2 0x26D0 JUMP JUMPDEST PUSH2 0x1EFB SWAP2 SWAP1 PUSH2 0x2834 JUMP JUMPDEST SWAP2 POP DUP5 DUP4 PUSH2 0x1F0A PUSH1 0x31 DUP8 PUSH2 0x2834 JUMP JUMPDEST PUSH2 0x1F15 SWAP1 PUSH1 0x64 PUSH2 0x2790 JUMP JUMPDEST PUSH2 0x1F1F SWAP2 SWAP1 PUSH2 0x26D0 JUMP JUMPDEST PUSH2 0x1F29 SWAP2 SWAP1 PUSH2 0x26D0 JUMP JUMPDEST SWAP11 SWAP2 SWAP10 POP SWAP8 POP SWAP6 POP POP POP POP POP POP JUMP JUMPDEST DUP1 MLOAD PUSH2 0x1F43 DUP2 PUSH2 0x292D JUMP JUMPDEST SWAP2 SWAP1 POP JUMP JUMPDEST PUSH1 0x0 DUP3 PUSH1 0x1F DUP4 ADD SLT PUSH2 0x1F59 JUMPI PUSH1 0x0 DUP1 REVERT JUMPDEST DUP2 MLOAD PUSH8 0xFFFFFFFFFFFFFFFF DUP2 GT ISZERO PUSH2 0x1F73 JUMPI PUSH2 0x1F73 PUSH2 0x2917 JUMP JUMPDEST PUSH2 0x1F86 PUSH1 0x1F DUP3 ADD PUSH1 0x1F NOT AND PUSH1 0x20 ADD PUSH2 0x269F JUMP JUMPDEST DUP2 DUP2 MSTORE DUP5 PUSH1 0x20 DUP4 DUP7 ADD ADD GT ISZERO PUSH2 0x1F9B JUMPI PUSH1 0x0 DUP1 REVERT JUMPDEST PUSH2 0x1FAC DUP3 PUSH1 0x20 DUP4 ADD PUSH1 0x20 DUP8 ADD PUSH2 0x288A JUMP JUMPDEST SWAP5 SWAP4 POP POP POP POP JUMP JUMPDEST DUP1 MLOAD PUSH2 0x1F43 DUP2 PUSH2 0x2942 JUMP JUMPDEST DUP1 MLOAD PUSH1 0xFF DUP2 AND DUP2 EQ PUSH2 0x1F43 JUMPI PUSH1 0x0 DUP1 REVERT JUMPDEST PUSH1 0x0 PUSH1 0x20 DUP3 DUP5 SUB SLT ISZERO PUSH2 0x1FE2 JUMPI PUSH1 0x0 DUP1 REVERT JUMPDEST DUP2 CALLDATALOAD PUSH2 0x1FED DUP2 PUSH2 0x292D JUMP JUMPDEST SWAP4 SWAP3 POP POP POP JUMP JUMPDEST PUSH1 0x0 PUSH1 0x20 DUP1 DUP4 DUP6 SUB SLT ISZERO PUSH2 0x2007 JUMPI PUSH1 0x0 DUP1 REVERT JUMPDEST DUP3 MLOAD PUSH8 0xFFFFFFFFFFFFFFFF DUP1 DUP3 GT ISZERO PUSH2 0x201F JUMPI PUSH1 0x0 DUP1 REVERT JUMPDEST DUP2 DUP6 ADD SWAP2 POP DUP6 PUSH1 0x1F DUP4 ADD SLT PUSH2 0x2033 JUMPI PUSH1 0x0 DUP1 REVERT JUMPDEST DUP2 MLOAD DUP2 DUP2 GT ISZERO PUSH2 0x2045 JUMPI PUSH2 0x2045 PUSH2 0x2917 JUMP JUMPDEST DUP1 PUSH1 0x5 SHL SWAP2 POP PUSH2 0x2056 DUP5 DUP4 ADD PUSH2 0x269F JUMP JUMPDEST DUP2 DUP2 MSTORE DUP5 DUP2 ADD SWAP1 DUP5 DUP7 ADD DUP5 DUP7 ADD DUP8 ADD DUP11 LT ISZERO PUSH2 0x2071 JUMPI PUSH1 0x0 DUP1 REVERT JUMPDEST PUSH1 0x0 SWAP6 POP JUMPDEST DUP4 DUP7 LT ISZERO PUSH2 0x2094 JUMPI DUP1 MLOAD DUP4 MSTORE PUSH1 0x1 SWAP6 SWAP1 SWAP6 ADD SWAP5 SWAP2 DUP7 ADD SWAP2 DUP7 ADD PUSH2 0x2076 JUMP JUMPDEST POP SWAP9 SWAP8 POP POP POP POP POP POP POP POP JUMP JUMPDEST PUSH1 0x0 PUSH1 0x20 DUP3 DUP5 SUB SLT ISZERO PUSH2 0x20B3 JUMPI PUSH1 0x0 DUP1 REVERT JUMPDEST DUP2 MLOAD DUP1 ISZERO ISZERO DUP2 EQ PUSH2 0x1FED JUMPI PUSH1 0x0 DUP1 REVERT JUMPDEST PUSH1 0x0 PUSH1 0x20 DUP3 DUP5 SUB SLT ISZERO PUSH2 0x20D5 JUMPI PUSH1 0x0 DUP1 REVERT JUMPDEST POP CALLDATALOAD SWAP2 SWAP1 POP JUMP JUMPDEST PUSH1 0x0 PUSH1 0x20 DUP3 DUP5 SUB SLT ISZERO PUSH2 0x20EE JUMPI PUSH1 0x0 DUP1 REVERT JUMPDEST POP MLOAD SWAP2 SWAP1 POP JUMP JUMPDEST PUSH1 0x0 PUSH1 0x20 DUP3 DUP5 SUB SLT ISZERO PUSH2 0x2107 JUMPI PUSH1 0x0 DUP1 REVERT JUMPDEST DUP2 MLOAD PUSH8 0xFFFFFFFFFFFFFFFF DUP2 GT ISZERO PUSH2 0x211E JUMPI PUSH1 0x0 DUP1 REVERT JUMPDEST PUSH2 0x1FAC DUP5 DUP3 DUP6 ADD PUSH2 0x1F48 JUMP JUMPDEST PUSH1 0x0 PUSH1 0x20 DUP3 DUP5 SUB SLT ISZERO PUSH2 0x213C JUMPI PUSH1 0x0 DUP1 REVERT JUMPDEST DUP2 MLOAD PUSH8 0xFFFFFFFFFFFFFFFF DUP1 DUP3 GT ISZERO PUSH2 0x2154 JUMPI PUSH1 0x0 DUP1 REVERT JUMPDEST SWAP1 DUP4 ADD SWAP1 PUSH2 0x140 DUP3 DUP7 SUB SLT ISZERO PUSH2 0x2169 JUMPI PUSH1 0x0 DUP1 REVERT JUMPDEST PUSH2 0x2171 PUSH2 0x2675 JUMP JUMPDEST PUSH2 0x217A DUP4 PUSH2 0x1FB4 JUMP JUMPDEST DUP2 MSTORE PUSH1 0x20 DUP4 ADD MLOAD PUSH1 0x20 DUP3 ADD MSTORE PUSH2 0x2192 PUSH1 0x40 DUP5 ADD PUSH2 0x1F38 JUMP JUMPDEST PUSH1 0x40 DUP3 ADD MSTORE PUSH1 0x60 DUP4 ADD MLOAD DUP3 DUP2 GT ISZERO PUSH2 0x21A9 JUMPI PUSH1 0x0 DUP1 REVERT JUMPDEST PUSH2 0x21B5 DUP8 DUP3 DUP7 ADD PUSH2 0x1F48 JUMP JUMPDEST PUSH1 0x60 DUP4 ADD MSTORE POP PUSH1 0x80 DUP4 ADD MLOAD PUSH1 0x80 DUP3 ADD MSTORE PUSH2 0x21D1 PUSH1 0xA0 DUP5 ADD PUSH2 0x1FBF JUMP JUMPDEST PUSH1 0xA0 DUP3 ADD MSTORE PUSH2 0x21E2 PUSH1 0xC0 DUP5 ADD PUSH2 0x1FBF JUMP JUMPDEST PUSH1 0xC0 DUP3 ADD MSTORE PUSH2 0x21F3 PUSH1 0xE0 DUP5 ADD PUSH2 0x1FBF JUMP JUMPDEST PUSH1 0xE0 DUP3 ADD MSTORE PUSH2 0x100 DUP4 DUP2 ADD MLOAD SWAP1 DUP3 ADD MSTORE PUSH2 0x120 SWAP3 DUP4 ADD MLOAD SWAP3 DUP2 ADD SWAP3 SWAP1 SWAP3 MSTORE POP SWAP4 SWAP3 POP POP POP JUMP JUMPDEST PUSH1 0x0 DUP1 PUSH1 0x0 PUSH1 0x60 DUP5 DUP7 SUB SLT ISZERO PUSH2 0x222E JUMPI PUSH1 0x0 DUP1 REVERT JUMPDEST DUP4 CALLDATALOAD PUSH2 0x2239 DUP2 PUSH2 0x2942 JUMP JUMPDEST SWAP3 POP PUSH1 0x20 DUP5 ADD CALLDATALOAD PUSH2 0x2249 DUP2 PUSH2 0x2942 JUMP JUMPDEST SWAP2 POP PUSH1 0x40 DUP5 ADD CALLDATALOAD PUSH2 0x2259 DUP2 PUSH2 0x2942 JUMP JUMPDEST DUP1 SWAP2 POP POP SWAP3 POP SWAP3 POP SWAP3 JUMP JUMPDEST PUSH1 0x0 DUP1 PUSH1 0x40 DUP4 DUP6 SUB SLT ISZERO PUSH2 0x2277 JUMPI PUSH1 0x0 DUP1 REVERT JUMPDEST POP POP DUP1 CALLDATALOAD SWAP3 PUSH1 0x20 SWAP1 SWAP2 ADD CALLDATALOAD SWAP2 POP JUMP JUMPDEST PUSH1 0x0 DUP2 MLOAD DUP1 DUP5 MSTORE PUSH2 0x229E DUP2 PUSH1 0x20 DUP7 ADD PUSH1 0x20 DUP7 ADD PUSH2 0x288A JUMP JUMPDEST PUSH1 0x1F ADD PUSH1 0x1F NOT AND SWAP3 SWAP1 SWAP3 ADD PUSH1 0x20 ADD SWAP3 SWAP2 POP POP JUMP JUMPDEST PUSH1 0x1 DUP2 MSTORE PUSH1 0xB PUSH1 0xFA SHL PUSH1 0x20 DUP3 ADD MSTORE PUSH1 0x40 ADD SWAP1 JUMP JUMPDEST PUSH1 0x0 PUSH1 0x20 DUP1 DUP4 ADD DUP2 DUP5 MSTORE DUP1 DUP6 MLOAD DUP1 DUP4 MSTORE PUSH1 0x40 DUP7 ADD SWAP2 POP PUSH1 0x40 DUP2 PUSH1 0x5 SHL DUP8 ADD ADD SWAP3 POP DUP4 DUP8 ADD PUSH1 0x0 JUMPDEST DUP3 DUP2 LT ISZERO PUSH2 0x231B JUMPI PUSH1 0x3F NOT DUP9 DUP7 SUB ADD DUP5 MSTORE PUSH2 0x2309 DUP6 DUP4 MLOAD PUSH2 0x2286 JUMP JUMPDEST SWAP5 POP SWAP3 DUP6 ADD SWAP3 SWAP1 DUP6 ADD SWAP1 PUSH1 0x1 ADD PUSH2 0x22ED JUMP JUMPDEST POP SWAP3 SWAP8 SWAP7 POP POP POP POP POP POP POP JUMP JUMPDEST DUP3 DUP2 MSTORE PUSH1 0x40 PUSH1 0x20 DUP3 ADD MSTORE PUSH1 0x0 PUSH2 0x1FAC PUSH1 0x40 DUP4 ADD DUP5 PUSH2 0x2286 JUMP JUMPDEST PUSH1 0x20 DUP2 MSTORE PUSH1 0x0 PUSH2 0x1FED PUSH1 0x20 DUP4 ADD DUP5 PUSH2 0x2286 JUMP JUMPDEST PUSH1 0x40 DUP2 MSTORE PUSH1 0x0 PUSH2 0x2367 PUSH1 0x40 DUP4 ADD DUP6 PUSH2 0x2286 JUMP JUMPDEST DUP3 DUP2 SUB PUSH1 0x20 DUP5 ADD MSTORE PUSH2 0x2379 DUP2 DUP6 PUSH2 0x2286 JUMP JUMPDEST SWAP6 SWAP5 POP POP POP POP POP JUMP JUMPDEST PUSH1 0x0 PUSH2 0x120 DUP1 DUP4 MSTORE PUSH2 0x2396 DUP2 DUP5 ADD DUP10 PUSH2 0x2286 JUMP JUMPDEST SWAP1 POP DUP3 DUP2 SUB PUSH1 0x20 DUP5 ADD MSTORE PUSH2 0x23AA DUP2 DUP9 PUSH2 0x2286 JUMP JUMPDEST SWAP1 POP DUP3 DUP2 SUB PUSH1 0x40 DUP5 ADD MSTORE PUSH2 0x23BD DUP2 PUSH2 0x22B2 JUMP JUMPDEST SWAP1 POP DUP3 DUP2 SUB PUSH1 0x60 DUP5 ADD MSTORE PUSH2 0x23D1 DUP2 DUP8 PUSH2 0x2286 JUMP JUMPDEST SWAP1 POP DUP3 DUP2 SUB PUSH1 0x80 DUP5 ADD MSTORE PUSH2 0x23E4 DUP2 PUSH2 0x22B2 JUMP JUMPDEST SWAP1 POP DUP3 DUP2 SUB PUSH1 0xA0 DUP5 ADD MSTORE PUSH2 0x23F8 DUP2 DUP7 PUSH2 0x2286 JUMP JUMPDEST SWAP1 POP DUP3 DUP2 SUB PUSH1 0xC0 DUP5 ADD MSTORE PUSH2 0x240B DUP2 PUSH2 0x22B2 JUMP JUMPDEST SWAP1 POP DUP3 DUP2 SUB PUSH1 0xE0 DUP5 ADD MSTORE PUSH2 0x241F DUP2 DUP6 PUSH2 0x2286 JUMP JUMPDEST DUP4 DUP2 SUB PUSH2 0x100 DUP6 ADD MSTORE PUSH1 0x1 DUP2 MSTORE PUSH1 0x1F PUSH1 0xFA SHL PUSH1 0x20 DUP3 ADD MSTORE SWAP1 POP PUSH1 0x40 DUP2 ADD SWAP9 SWAP8 POP POP POP POP POP POP POP POP JUMP JUMPDEST PUSH1 0x0 PUSH2 0x120 DUP1 DUP4 MSTORE PUSH2 0x245C DUP2 DUP5 ADD DUP10 PUSH2 0x2286 JUMP JUMPDEST SWAP1 POP DUP3 DUP2 SUB PUSH1 0x20 DUP5 ADD MSTORE PUSH2 0x2470 DUP2 DUP9 PUSH2 0x2286 JUMP JUMPDEST SWAP1 POP DUP3 DUP2 SUB PUSH1 0x40 DUP5 ADD MSTORE PUSH2 0x2483 DUP2 PUSH2 0x22B2 JUMP JUMPDEST SWAP1 POP DUP3 DUP2 SUB PUSH1 0x60 DUP5 ADD MSTORE PUSH2 0x2497 DUP2 DUP8 PUSH2 0x2286 JUMP JUMPDEST SWAP1 POP DUP3 DUP2 SUB PUSH1 0x80 DUP5 ADD MSTORE PUSH2 0x24AA DUP2 PUSH2 0x22B2 JUMP JUMPDEST SWAP1 POP DUP3 DUP2 SUB PUSH1 0xA0 DUP5 ADD MSTORE PUSH2 0x24BE DUP2 DUP7 PUSH2 0x2286 JUMP JUMPDEST SWAP1 POP DUP3 DUP2 SUB DUP1 PUSH1 0xC0 DUP6 ADD MSTORE PUSH1 0x3 DUP3 MSTORE PUSH3 0xB0C4B PUSH1 0xEA SHL PUSH1 0x20 DUP4 ADD MSTORE PUSH1 0x40 DUP2 ADD PUSH1 0xE0 DUP6 ADD MSTORE POP PUSH2 0x241F PUSH1 0x40 DUP3 ADD DUP6 PUSH2 0x2286 JUMP JUMPDEST PUSH1 0x0 PUSH2 0x120 DUP1 DUP4 MSTORE PUSH2 0x2504 DUP2 DUP5 ADD DUP10 PUSH2 0x2286 JUMP JUMPDEST SWAP1 POP DUP3 DUP2 SUB PUSH1 0x20 DUP5 ADD MSTORE PUSH2 0x2518 DUP2 DUP9 PUSH2 0x2286 JUMP JUMPDEST SWAP1 POP DUP3 DUP2 SUB PUSH1 0x40 DUP5 ADD MSTORE PUSH2 0x252B DUP2 PUSH2 0x22B2 JUMP JUMPDEST SWAP1 POP DUP3 DUP2 SUB PUSH1 0x60 DUP5 ADD MSTORE PUSH2 0x253F DUP2 DUP8 PUSH2 0x2286 JUMP JUMPDEST SWAP1 POP DUP3 DUP2 SUB PUSH1 0x80 DUP5 ADD MSTORE PUSH2 0x2552 DUP2 PUSH2 0x22B2 JUMP JUMPDEST SWAP1 POP DUP3 DUP2 SUB PUSH1 0xA0 DUP5 ADD MSTORE PUSH2 0x2566 DUP2 DUP7 PUSH2 0x2286 JUMP JUMPDEST SWAP1 POP DUP3 DUP2 SUB DUP1 PUSH1 0xC0 DUP6 ADD MSTORE PUSH1 0x3 DUP3 MSTORE PUSH3 0xB0C8B PUSH1 0xEA SHL PUSH1 0x20 DUP4 ADD MSTORE PUSH1 0x40 DUP2 ADD PUSH1 0xE0 DUP6 ADD MSTORE POP PUSH2 0x241F PUSH1 0x40 DUP3 ADD DUP6 PUSH2 0x2286 JUMP JUMPDEST PUSH1 0x0 PUSH2 0x120 DUP1 DUP4 MSTORE PUSH2 0x25AC DUP2 DUP5 ADD DUP10 PUSH2 0x2286 JUMP JUMPDEST SWAP1 POP DUP3 DUP2 SUB PUSH1 0x20 DUP5 ADD MSTORE PUSH2 0x25C0 DUP2 DUP9 PUSH2 0x2286 JUMP JUMPDEST SWAP1 POP DUP3 DUP2 SUB PUSH1 0x40 DUP5 ADD MSTORE PUSH2 0x25D3 DUP2 PUSH2 0x22B2 JUMP JUMPDEST SWAP1 POP DUP3 DUP2 SUB PUSH1 0x60 DUP5 ADD MSTORE PUSH2 0x25E7 DUP2 DUP8 PUSH2 0x2286 JUMP JUMPDEST SWAP1 POP DUP3 DUP2 SUB PUSH1 0x80 DUP5 ADD MSTORE PUSH2 0x25FA DUP2 PUSH2 0x22B2 JUMP JUMPDEST SWAP1 POP DUP3 DUP2 SUB PUSH1 0xA0 DUP5 ADD MSTORE PUSH2 0x260E DUP2 DUP7 PUSH2 0x2286 JUMP JUMPDEST SWAP1 POP DUP3 DUP2 SUB DUP1 PUSH1 0xC0 DUP6 ADD MSTORE PUSH1 0x3 DUP3 MSTORE PUSH3 0xB0D0B PUSH1 0xEA SHL PUSH1 0x20 DUP4 ADD MSTORE PUSH1 0x40 DUP2 ADD PUSH1 0xE0 DUP6 ADD MSTORE POP PUSH2 0x241F PUSH1 0x40 DUP3 ADD DUP6 PUSH2 0x2286 JUMP JUMPDEST PUSH1 0x20 DUP1 DUP3 MSTORE DUP2 DUP2 ADD MSTORE PUSH32 0x4F776E61626C653A2063616C6C6572206973206E6F7420746865206F776E6572 PUSH1 0x40 DUP3 ADD MSTORE PUSH1 0x60 ADD SWAP1 JUMP JUMPDEST PUSH1 0x40 MLOAD PUSH2 0x140 DUP2 ADD PUSH8 0xFFFFFFFFFFFFFFFF DUP2 GT DUP3 DUP3 LT OR ISZERO PUSH2 0x2699 JUMPI PUSH2 0x2699 PUSH2 0x2917 JUMP JUMPDEST PUSH1 0x40 MSTORE SWAP1 JUMP JUMPDEST PUSH1 0x40 MLOAD PUSH1 0x1F DUP3 ADD PUSH1 0x1F NOT AND DUP2 ADD PUSH8 0xFFFFFFFFFFFFFFFF DUP2 GT DUP3 DUP3 LT OR ISZERO PUSH2 0x26C8 JUMPI PUSH2 0x26C8 PUSH2 0x2917 JUMP JUMPDEST PUSH1 0x40 MSTORE SWAP2 SWAP1 POP JUMP JUMPDEST PUSH1 0x0 DUP1 DUP3 SLT DUP1 ISZERO PUSH1 0x1 PUSH1 0x1 PUSH1 0xFF SHL SUB DUP5 SWAP1 SUB DUP6 SGT AND ISZERO PUSH2 0x26F2 JUMPI PUSH2 0x26F2 PUSH2 0x28D5 JUMP JUMPDEST PUSH1 0x1 PUSH1 0xFF SHL DUP4 SWAP1 SUB DUP5 SLT DUP2 AND ISZERO PUSH2 0x270B JUMPI PUSH2 0x270B PUSH2 0x28D5 JUMP JUMPDEST POP POP ADD SWAP1 JUMP JUMPDEST PUSH1 0x0 DUP3 NOT DUP3 GT ISZERO PUSH2 0x2724 JUMPI PUSH2 0x2724 PUSH2 0x28D5 JUMP JUMPDEST POP ADD SWAP1 JUMP JUMPDEST PUSH1 0x0 PUSH1 0xFF DUP3 AND PUSH1 0xFF DUP5 AND DUP1 PUSH1 0xFF SUB DUP3 GT ISZERO PUSH2 0x2746 JUMPI PUSH2 0x2746 PUSH2 0x28D5 JUMP JUMPDEST ADD SWAP4 SWAP3 POP POP POP JUMP JUMPDEST PUSH1 0x0 DUP3 PUSH2 0x275D JUMPI PUSH2 0x275D PUSH2 0x28EB JUMP JUMPDEST PUSH1 0x1 PUSH1 0xFF SHL DUP3 EQ PUSH1 0x0 NOT DUP5 EQ AND ISZERO PUSH2 0x2777 JUMPI PUSH2 0x2777 PUSH2 0x28D5 JUMP JUMPDEST POP SDIV SWAP1 JUMP JUMPDEST PUSH1 0x0 DUP3 PUSH2 0x278B JUMPI PUSH2 0x278B PUSH2 0x28EB JUMP JUMPDEST POP DIV SWAP1 JUMP JUMPDEST PUSH1 0x0 PUSH1 0x1 PUSH1 0x1 PUSH1 0xFF SHL SUB DUP2 DUP5 SGT DUP3 DUP5 SGT DUP1 DUP3 AND DUP7 DUP5 DIV DUP7 GT AND ISZERO PUSH2 0x27B6 JUMPI PUSH2 0x27B6 PUSH2 0x28D5 JUMP JUMPDEST PUSH1 0x1 PUSH1 0xFF SHL PUSH1 0x0 DUP8 SLT DUP3 DUP2 AND DUP8 DUP4 SDIV DUP10 SLT AND ISZERO PUSH2 0x27D5 JUMPI PUSH2 0x27D5 PUSH2 0x28D5 JUMP JUMPDEST PUSH1 0x0 DUP8 SLT SWAP3 POP DUP8 DUP3 SDIV DUP8 SLT DUP5 DUP5 AND AND ISZERO PUSH2 0x27F1 JUMPI PUSH2 0x27F1 PUSH2 0x28D5 JUMP JUMPDEST DUP8 DUP6 SDIV DUP8 SLT DUP2 DUP5 AND AND ISZERO PUSH2 0x2807 JUMPI PUSH2 0x2807 PUSH2 0x28D5 JUMP JUMPDEST POP POP POP SWAP3 SWAP1 SWAP4 MUL SWAP4 SWAP3 POP POP POP JUMP JUMPDEST PUSH1 0x0 DUP2 PUSH1 0x0 NOT DIV DUP4 GT DUP3 ISZERO ISZERO AND ISZERO PUSH2 0x282F JUMPI PUSH2 0x282F PUSH2 0x28D5 JUMP JUMPDEST POP MUL SWAP1 JUMP JUMPDEST PUSH1 0x0 DUP1 DUP4 SLT DUP1 ISZERO PUSH1 0x1 PUSH1 0xFF SHL DUP6 ADD DUP5 SLT AND ISZERO PUSH2 0x2852 JUMPI PUSH2 0x2852 PUSH2 0x28D5 JUMP JUMPDEST PUSH1 0x1 PUSH1 0x1 PUSH1 0xFF SHL SUB DUP5 ADD DUP4 SGT DUP2 AND ISZERO PUSH2 0x286D JUMPI PUSH2 0x286D PUSH2 0x28D5 JUMP JUMPDEST POP POP SUB SWAP1 JUMP JUMPDEST PUSH1 0x0 DUP3 DUP3 LT ISZERO PUSH2 0x2885 JUMPI PUSH2 0x2885 PUSH2 0x28D5 JUMP JUMPDEST POP SUB SWAP1 JUMP JUMPDEST PUSH1 0x0 JUMPDEST DUP4 DUP2 LT ISZERO PUSH2 0x28A5 JUMPI DUP2 DUP2 ADD MLOAD DUP4 DUP3 ADD MSTORE PUSH1 0x20 ADD PUSH2 0x288D JUMP JUMPDEST DUP4 DUP2 GT ISZERO PUSH2 0x28B4 JUMPI PUSH1 0x0 DUP5 DUP5 ADD MSTORE JUMPDEST POP POP POP POP JUMP JUMPDEST PUSH1 0x0 PUSH1 0x0 NOT DUP3 EQ ISZERO PUSH2 0x28CE JUMPI PUSH2 0x28CE PUSH2 0x28D5 JUMP JUMPDEST POP PUSH1 0x1 ADD SWAP1 JUMP JUMPDEST PUSH4 0x4E487B71 PUSH1 0xE0 SHL PUSH1 0x0 MSTORE PUSH1 0x11 PUSH1 0x4 MSTORE PUSH1 0x24 PUSH1 0x0 REVERT JUMPDEST PUSH4 0x4E487B71 PUSH1 0xE0 SHL PUSH1 0x0 MSTORE PUSH1 0x12 PUSH1 0x4 MSTORE PUSH1 0x24 PUSH1 0x0 REVERT JUMPDEST PUSH4 0x4E487B71 PUSH1 0xE0 SHL PUSH1 0x0 MSTORE PUSH1 0x32 PUSH1 0x4 MSTORE PUSH1 0x24 PUSH1 0x0 REVERT JUMPDEST PUSH4 0x4E487B71 PUSH1 0xE0 SHL PUSH1 0x0 MSTORE PUSH1 0x41 PUSH1 0x4 MSTORE PUSH1 0x24 PUSH1 0x0 REVERT JUMPDEST PUSH1 0x1 PUSH1 0x1 PUSH1 0xA0 SHL SUB DUP2 AND DUP2 EQ PUSH2 0x1B06 JUMPI PUSH1 0x0 DUP1 REVERT JUMPDEST PUSH2 0xFFFF DUP2 AND DUP2 EQ PUSH2 0x1B06 JUMPI PUSH1 0x0 DUP1 REVERT INVALID LOG2 PUSH5 0x6970667358 0x22 SLT KECCAK256 POP SHR SWAP11 DELEGATECALL CALLDATASIZE 0xEC PUSH7 0xA4ABDC7FB85038 0xF6 PUSH24 0xD44E1940EC066204EAC12D23F5A5D1C864736F6C63430008 SMOD STOP CALLER "
		},
		"gasEstimates": {
			"creation": {
				"codeDepositCost": "2126400",
				"executionCost": "infinite",
				"totalCost": "infinite"
			},
			"external": {
				"getBetDetails(bytes32)": "infinite",
				"getMyBets()": "infinite",
				"getOpenBets(uint16,uint16,uint16)": "infinite",
				"getOpenBetsWithTimeStamp(uint256,uint256)": "infinite",
				"owner()": "2323",
				"pause()": "29868",
				"paused()": "2354",
				"renounceOwnership()": "28181",
				"transferOwnership(address)": "infinite",
				"unpause()": "29773"
			}
		},
		"methodIdentifiers": {
			"getBetDetails(bytes32)": "9c11180d",
			"getMyBets()": "99535bd7",
			"getOpenBets(uint16,uint16,uint16)": "19275d79",
			"getOpenBetsWithTimeStamp(uint256,uint256)": "8bcbc129",
			"owner()": "8da5cb5b",
			"pause()": "8456cb59",
			"paused()": "5c975abb",
			"renounceOwnership()": "715018a6",
			"transferOwnership(address)": "f2fde38b",
			"unpause()": "3f4ba83a"
		}
	},
	"abi": [
		{
			"inputs": [
				{
					"internalType": "address",
					"name": "sureBetDataContract",
					"type": "address"
				}
			],
			"stateMutability": "nonpayable",
			"type": "constructor"
		},
		{
			"anonymous": false,
			"inputs": [
				{
					"indexed": true,
					"internalType": "address",
					"name": "previousOwner",
					"type": "address"
				},
				{
					"indexed": true,
					"internalType": "address",
					"name": "newOwner",
					"type": "address"
				}
			],
			"name": "OwnershipTransferred",
			"type": "event"
		},
		{
			"anonymous": false,
			"inputs": [
				{
					"indexed": false,
					"internalType": "address",
					"name": "account",
					"type": "address"
				}
			],
			"name": "Paused",
			"type": "event"
		},
		{
			"anonymous": false,
			"inputs": [
				{
					"indexed": false,
					"internalType": "address",
					"name": "account",
					"type": "address"
				}
			],
			"name": "Unpaused",
			"type": "event"
		},
		{
			"inputs": [
				{
					"internalType": "bytes32",
					"name": "betKey",
					"type": "bytes32"
				}
			],
			"name": "getBetDetails",
			"outputs": [
				{
					"internalType": "string[]",
					"name": "",
					"type": "string[]"
				}
			],
			"stateMutability": "view",
			"type": "function"
		},
		{
			"inputs": [],
			"name": "getMyBets",
			"outputs": [
				{
					"internalType": "string",
					"name": "",
					"type": "string"
				}
			],
			"stateMutability": "view",
			"type": "function"
		},
		{
			"inputs": [
				{
					"internalType": "uint16",
					"name": "year",
					"type": "uint16"
				},
				{
					"internalType": "uint16",
					"name": "month",
					"type": "uint16"
				},
				{
					"internalType": "uint16",
					"name": "day",
					"type": "uint16"
				}
			],
			"name": "getOpenBets",
			"outputs": [
				{
					"internalType": "string",
					"name": "",
					"type": "string"
				}
			],
			"stateMutability": "view",
			"type": "function"
		},
		{
			"inputs": [
				{
					"internalType": "uint256",
					"name": "fromTimeStamp",
					"type": "uint256"
				},
				{
					"internalType": "uint256",
					"name": "toTimeStamp",
					"type": "uint256"
				}
			],
			"name": "getOpenBetsWithTimeStamp",
			"outputs": [
				{
					"internalType": "string",
					"name": "",
					"type": "string"
				}
			],
			"stateMutability": "view",
			"type": "function"
		},
		{
			"inputs": [],
			"name": "owner",
			"outputs": [
				{
					"internalType": "address",
					"name": "",
					"type": "address"
				}
			],
			"stateMutability": "view",
			"type": "function"
		},
		{
			"inputs": [],
			"name": "pause",
			"outputs": [],
			"stateMutability": "nonpayable",
			"type": "function"
		},
		{
			"inputs": [],
			"name": "paused",
			"outputs": [
				{
					"internalType": "bool",
					"name": "",
					"type": "bool"
				}
			],
			"stateMutability": "view",
			"type": "function"
		},
		{
			"inputs": [],
			"name": "renounceOwnership",
			"outputs": [],
			"stateMutability": "nonpayable",
			"type": "function"
		},
		{
			"inputs": [
				{
					"internalType": "address",
					"name": "newOwner",
					"type": "address"
				}
			],
			"name": "transferOwnership",
			"outputs": [],
			"stateMutability": "nonpayable",
			"type": "function"
		},
		{
			"inputs": [],
			"name": "unpause",
			"outputs": [],
			"stateMutability": "nonpayable",
			"type": "function"
		}
	]
}